{
	"contracts/Forcomstructors.sol": {
		"Test": {
			"abi": [
				{
					"inputs": [],
					"name": "age",
					"outputs": [
						{
							"internalType": "uint256",
							"name": "",
							"type": "uint256"
						}
					],
					"stateMutability": "view",
					"type": "function"
				},
				{
					"inputs": [],
					"name": "getChoice",
					"outputs": [
						{
							"internalType": "enum Test.PizzaSize",
							"name": "",
							"type": "uint8"
						}
					],
					"stateMutability": "view",
					"type": "function"
				},
				{
					"inputs": [],
					"name": "getDefaultChoice",
					"outputs": [
						{
							"internalType": "uint256",
							"name": "",
							"type": "uint256"
						}
					],
					"stateMutability": "pure",
					"type": "function"
				},
				{
					"inputs": [],
					"name": "setLarge",
					"outputs": [],
					"stateMutability": "nonpayable",
					"type": "function"
				}
			],
			"devdoc": {
				"kind": "dev",
				"methods": {},
				"version": 1
			},
			"evm": {
				"assembly": "    /* \"contracts/Forcomstructors.sol\":397:835  contract Test{\r... */\n  mstore(0x40, 0x80)\n    /* \"contracts/Forcomstructors.sol\":504:506  10 */\n  0x0a\n    /* \"contracts/Forcomstructors.sol\":488:506  uint public age=10 */\n  0x01\n  sstore\n    /* \"contracts/Forcomstructors.sol\":397:835  contract Test{\r... */\n  callvalue\n  dup1\n  iszero\n  tag_1\n  jumpi\n  0x00\n  dup1\n  revert\ntag_1:\n  pop\n  dataSize(sub_0)\n  dup1\n  dataOffset(sub_0)\n  0x00\n  codecopy\n  0x00\n  return\nstop\n\nsub_0: assembly {\n        /* \"contracts/Forcomstructors.sol\":397:835  contract Test{\r... */\n      mstore(0x40, 0x80)\n      callvalue\n      dup1\n      iszero\n      tag_1\n      jumpi\n      0x00\n      dup1\n      revert\n    tag_1:\n      pop\n      jumpi(tag_2, lt(calldatasize, 0x04))\n      shr(0xe0, calldataload(0x00))\n      dup1\n      0x262a9dff\n      eq\n      tag_3\n      jumpi\n      dup1\n      0x67cb61b6\n      eq\n      tag_4\n      jumpi\n      dup1\n      0x694ebe4f\n      eq\n      tag_5\n      jumpi\n      dup1\n      0x843f7258\n      eq\n      tag_6\n      jumpi\n    tag_2:\n      0x00\n      dup1\n      revert\n        /* \"contracts/Forcomstructors.sol\":488:506  uint public age=10 */\n    tag_3:\n      tag_7\n      tag_8\n      jump\t// in\n    tag_7:\n      mload(0x40)\n      dup1\n      dup3\n      dup2\n      mstore\n      0x20\n      add\n      swap2\n      pop\n      pop\n      mload(0x40)\n      dup1\n      swap2\n      sub\n      swap1\n      return\n        /* \"contracts/Forcomstructors.sol\":645:728  function getChoice() public view returns(PizzaSize){\r... */\n    tag_4:\n      tag_9\n      tag_10\n      jump\t// in\n    tag_9:\n      mload(0x40)\n      dup1\n      dup3\n      0x02\n      dup2\n      gt\n      iszero\n      tag_11\n      jumpi\n      invalid\n    tag_11:\n      dup2\n      mstore\n      0x20\n      add\n      swap2\n      pop\n      pop\n      mload(0x40)\n      dup1\n      swap2\n      sub\n      swap1\n      return\n        /* \"contracts/Forcomstructors.sol\":572:639  function setLarge() public{\r... */\n    tag_5:\n      tag_12\n      tag_13\n      jump\t// in\n    tag_12:\n      stop\n        /* \"contracts/Forcomstructors.sol\":734:832  function getDefaultChoice() public pure returns(uint){\r... */\n    tag_6:\n      tag_14\n      tag_15\n      jump\t// in\n    tag_14:\n      mload(0x40)\n      dup1\n      dup3\n      dup2\n      mstore\n      0x20\n      add\n      swap2\n      pop\n      pop\n      mload(0x40)\n      dup1\n      swap2\n      sub\n      swap1\n      return\n        /* \"contracts/Forcomstructors.sol\":488:506  uint public age=10 */\n    tag_8:\n      sload(0x01)\n      dup2\n      jump\t// out\n        /* \"contracts/Forcomstructors.sol\":645:728  function getChoice() public view returns(PizzaSize){\r... */\n    tag_10:\n        /* \"contracts/Forcomstructors.sol\":686:695  PizzaSize */\n      0x00\n        /* \"contracts/Forcomstructors.sol\":714:720  choice */\n      dup1\n      0x00\n      swap1\n      sload\n      swap1\n      0x0100\n      exp\n      swap1\n      div\n      0xff\n      and\n        /* \"contracts/Forcomstructors.sol\":707:720  return choice */\n      swap1\n      pop\n        /* \"contracts/Forcomstructors.sol\":645:728  function getChoice() public view returns(PizzaSize){\r... */\n      swap1\n      jump\t// out\n        /* \"contracts/Forcomstructors.sol\":572:639  function setLarge() public{\r... */\n    tag_13:\n        /* \"contracts/Forcomstructors.sol\":616:631  PizzaSize.LARGE */\n      0x02\n        /* \"contracts/Forcomstructors.sol\":609:615  choice */\n      0x00\n      dup1\n        /* \"contracts/Forcomstructors.sol\":609:631  choice=PizzaSize.LARGE */\n      0x0100\n      exp\n      dup2\n      sload\n      dup2\n      0xff\n      mul\n      not\n      and\n      swap1\n      dup4\n      0x02\n      dup2\n      gt\n      iszero\n      tag_18\n      jumpi\n      invalid\n    tag_18:\n      mul\n      or\n      swap1\n      sstore\n      pop\n        /* \"contracts/Forcomstructors.sol\":572:639  function setLarge() public{\r... */\n      jump\t// out\n        /* \"contracts/Forcomstructors.sol\":734:832  function getDefaultChoice() public pure returns(uint){\r... */\n    tag_15:\n        /* \"contracts/Forcomstructors.sol\":782:786  uint */\n      0x00\n        /* \"contracts/Forcomstructors.sol\":550:565  PizzaSize.SMALL */\n      dup1\n        /* \"contracts/Forcomstructors.sol\":805:824  uint(defaultChoice) */\n      0x02\n      dup2\n      gt\n      iszero\n      tag_20\n      jumpi\n      invalid\n    tag_20:\n        /* \"contracts/Forcomstructors.sol\":798:824  return uint(defaultChoice) */\n      swap1\n      pop\n        /* \"contracts/Forcomstructors.sol\":734:832  function getDefaultChoice() public pure returns(uint){\r... */\n      swap1\n      jump\t// out\n\n    auxdata: 0xa2646970667358221220e96d2744ed84b644ada584293409ab30c71eec286112c29b1cd86bbd0200a23364736f6c634300060c0033\n}\n",
				"bytecode": {
					"linkReferences": {},
					"object": "6080604052600a60015534801561001557600080fd5b5061014a806100256000396000f3fe608060405234801561001057600080fd5b506004361061004c5760003560e01c8063262a9dff1461005157806367cb61b61461006f578063694ebe4f14610098578063843f7258146100a2575b600080fd5b6100596100c0565b6040518082815260200191505060405180910390f35b6100776100c6565b6040518082600281111561008757fe5b815260200191505060405180910390f35b6100a06100dc565b005b6100aa610101565b6040518082815260200191505060405180910390f35b60015481565b60008060009054906101000a900460ff16905090565b60026000806101000a81548160ff021916908360028111156100fa57fe5b0217905550565b600080600281111561010f57fe5b90509056fea2646970667358221220e96d2744ed84b644ada584293409ab30c71eec286112c29b1cd86bbd0200a23364736f6c634300060c0033",
					"opcodes": "PUSH1 0x80 PUSH1 0x40 MSTORE PUSH1 0xA PUSH1 0x1 SSTORE CALLVALUE DUP1 ISZERO PUSH2 0x15 JUMPI PUSH1 0x0 DUP1 REVERT JUMPDEST POP PUSH2 0x14A DUP1 PUSH2 0x25 PUSH1 0x0 CODECOPY PUSH1 0x0 RETURN INVALID PUSH1 0x80 PUSH1 0x40 MSTORE CALLVALUE DUP1 ISZERO PUSH2 0x10 JUMPI PUSH1 0x0 DUP1 REVERT JUMPDEST POP PUSH1 0x4 CALLDATASIZE LT PUSH2 0x4C JUMPI PUSH1 0x0 CALLDATALOAD PUSH1 0xE0 SHR DUP1 PUSH4 0x262A9DFF EQ PUSH2 0x51 JUMPI DUP1 PUSH4 0x67CB61B6 EQ PUSH2 0x6F JUMPI DUP1 PUSH4 0x694EBE4F EQ PUSH2 0x98 JUMPI DUP1 PUSH4 0x843F7258 EQ PUSH2 0xA2 JUMPI JUMPDEST PUSH1 0x0 DUP1 REVERT JUMPDEST PUSH2 0x59 PUSH2 0xC0 JUMP JUMPDEST PUSH1 0x40 MLOAD DUP1 DUP3 DUP2 MSTORE PUSH1 0x20 ADD SWAP2 POP POP PUSH1 0x40 MLOAD DUP1 SWAP2 SUB SWAP1 RETURN JUMPDEST PUSH2 0x77 PUSH2 0xC6 JUMP JUMPDEST PUSH1 0x40 MLOAD DUP1 DUP3 PUSH1 0x2 DUP2 GT ISZERO PUSH2 0x87 JUMPI INVALID JUMPDEST DUP2 MSTORE PUSH1 0x20 ADD SWAP2 POP POP PUSH1 0x40 MLOAD DUP1 SWAP2 SUB SWAP1 RETURN JUMPDEST PUSH2 0xA0 PUSH2 0xDC JUMP JUMPDEST STOP JUMPDEST PUSH2 0xAA PUSH2 0x101 JUMP JUMPDEST PUSH1 0x40 MLOAD DUP1 DUP3 DUP2 MSTORE PUSH1 0x20 ADD SWAP2 POP POP PUSH1 0x40 MLOAD DUP1 SWAP2 SUB SWAP1 RETURN JUMPDEST PUSH1 0x1 SLOAD DUP2 JUMP JUMPDEST PUSH1 0x0 DUP1 PUSH1 0x0 SWAP1 SLOAD SWAP1 PUSH2 0x100 EXP SWAP1 DIV PUSH1 0xFF AND SWAP1 POP SWAP1 JUMP JUMPDEST PUSH1 0x2 PUSH1 0x0 DUP1 PUSH2 0x100 EXP DUP2 SLOAD DUP2 PUSH1 0xFF MUL NOT AND SWAP1 DUP4 PUSH1 0x2 DUP2 GT ISZERO PUSH2 0xFA JUMPI INVALID JUMPDEST MUL OR SWAP1 SSTORE POP JUMP JUMPDEST PUSH1 0x0 DUP1 PUSH1 0x2 DUP2 GT ISZERO PUSH2 0x10F JUMPI INVALID JUMPDEST SWAP1 POP SWAP1 JUMP INVALID LOG2 PUSH5 0x6970667358 0x22 SLT KECCAK256 0xE9 PUSH14 0x2744ED84B644ADA584293409AB30 0xC7 0x1E 0xEC 0x28 PUSH2 0x12C2 SWAP12 SHR 0xD8 PUSH12 0xBD0200A23364736F6C634300 MOD 0xC STOP CALLER "
				},
				"gasEstimates": {
					"creation": {
						"codeDepositCost": "66000",
						"executionCost": "20123",
						"totalCost": "86123"
					},
					"external": {
						"age()": "983",
						"getChoice()": "1075",
						"getDefaultChoice()": "283",
						"setLarge()": "21053"
					}
				},
				"methodIdentifiers": {
					"age()": "262a9dff",
					"getChoice()": "67cb61b6",
					"getDefaultChoice()": "843f7258",
					"setLarge()": "694ebe4f"
				}
			},
			"storageLayout": {
				"storage": [
					{
						"astId": 7,
						"contract": "contracts/Forcomstructors.sol:Test",
						"label": "choice",
						"offset": 0,
						"slot": "0",
						"type": "t_enum(PizzaSize)5"
					},
					{
						"astId": 10,
						"contract": "contracts/Forcomstructors.sol:Test",
						"label": "age",
						"offset": 0,
						"slot": "1",
						"type": "t_uint256"
					}
				],
				"types": {
					"t_enum(PizzaSize)5": {
						"encoding": "inplace",
						"label": "enum Test.PizzaSize",
						"numberOfBytes": "1"
					},
					"t_uint256": {
						"encoding": "inplace",
						"label": "uint256",
						"numberOfBytes": "32"
					}
				}
			},
			"userdoc": {
				"kind": "user",
				"methods": {},
				"version": 1
			}
		}
	}
}