{
	"contracts/newproject.sol": {
		"Dapp": {
			"abi": [
				{
					"anonymous": false,
					"inputs": [
						{
							"indexed": false,
							"internalType": "uint256",
							"name": "id",
							"type": "uint256"
						},
						{
							"indexed": false,
							"internalType": "string",
							"name": "name",
							"type": "string"
						}
					],
					"name": "NewApplicant",
					"type": "event"
				},
				{
					"anonymous": false,
					"inputs": [
						{
							"indexed": false,
							"internalType": "uint256",
							"name": "id",
							"type": "uint256"
						},
						{
							"indexed": false,
							"internalType": "string",
							"name": "title",
							"type": "string"
						}
					],
					"name": "NewJob",
					"type": "event"
				},
				{
					"anonymous": false,
					"inputs": [
						{
							"indexed": false,
							"internalType": "uint256",
							"name": "aid",
							"type": "uint256"
						},
						{
							"indexed": false,
							"internalType": "uint256",
							"name": "rating",
							"type": "uint256"
						}
					],
					"name": "Ratingstated",
					"type": "event"
				},
				{
					"inputs": [],
					"name": "acount",
					"outputs": [
						{
							"internalType": "uint256",
							"name": "",
							"type": "uint256"
						}
					],
					"stateMutability": "view",
					"type": "function"
				},
				{
					"inputs": [
						{
							"internalType": "string",
							"name": "_name",
							"type": "string"
						},
						{
							"internalType": "string",
							"name": "_experience",
							"type": "string"
						},
						{
							"internalType": "string",
							"name": "_skills",
							"type": "string"
						}
					],
					"name": "addNewApplicant",
					"outputs": [],
					"stateMutability": "nonpayable",
					"type": "function"
				},
				{
					"inputs": [
						{
							"internalType": "string",
							"name": "_title",
							"type": "string"
						},
						{
							"internalType": "string",
							"name": "_skillsrequired",
							"type": "string"
						},
						{
							"internalType": "uint256",
							"name": "_salary",
							"type": "uint256"
						}
					],
					"name": "addNewJob",
					"outputs": [],
					"stateMutability": "nonpayable",
					"type": "function"
				},
				{
					"inputs": [
						{
							"internalType": "uint256",
							"name": "",
							"type": "uint256"
						}
					],
					"name": "applicants",
					"outputs": [
						{
							"internalType": "uint256",
							"name": "id",
							"type": "uint256"
						},
						{
							"internalType": "string",
							"name": "name",
							"type": "string"
						},
						{
							"internalType": "string",
							"name": "skills",
							"type": "string"
						},
						{
							"internalType": "string",
							"name": "experience",
							"type": "string"
						},
						{
							"internalType": "bool",
							"name": "registered",
							"type": "bool"
						}
					],
					"stateMutability": "view",
					"type": "function"
				},
				{
					"inputs": [
						{
							"internalType": "uint256",
							"name": "_aid",
							"type": "uint256"
						}
					],
					"name": "fetchApplicantRating",
					"outputs": [
						{
							"internalType": "uint256",
							"name": "",
							"type": "uint256"
						},
						{
							"internalType": "uint256",
							"name": "",
							"type": "uint256"
						}
					],
					"stateMutability": "view",
					"type": "function"
				},
				{
					"inputs": [
						{
							"internalType": "uint256",
							"name": "_aid",
							"type": "uint256"
						}
					],
					"name": "getApplicantType",
					"outputs": [
						{
							"internalType": "string",
							"name": "",
							"type": "string"
						}
					],
					"stateMutability": "view",
					"type": "function"
				},
				{
					"inputs": [
						{
							"internalType": "uint256",
							"name": "_aid",
							"type": "uint256"
						}
					],
					"name": "getApplicantValues",
					"outputs": [
						{
							"internalType": "string",
							"name": "",
							"type": "string"
						},
						{
							"internalType": "string",
							"name": "",
							"type": "string"
						},
						{
							"internalType": "string",
							"name": "",
							"type": "string"
						}
					],
					"stateMutability": "view",
					"type": "function"
				},
				{
					"inputs": [
						{
							"internalType": "uint256",
							"name": "_jid",
							"type": "uint256"
						}
					],
					"name": "getJobDetails",
					"outputs": [
						{
							"internalType": "string",
							"name": "",
							"type": "string"
						},
						{
							"internalType": "string",
							"name": "",
							"type": "string"
						},
						{
							"internalType": "uint256",
							"name": "",
							"type": "uint256"
						},
						{
							"internalType": "address",
							"name": "",
							"type": "address"
						}
					],
					"stateMutability": "view",
					"type": "function"
				},
				{
					"inputs": [
						{
							"internalType": "uint256",
							"name": "_aid",
							"type": "uint256"
						},
						{
							"internalType": "uint256",
							"name": "_rating",
							"type": "uint256"
						}
					],
					"name": "giveRating",
					"outputs": [],
					"stateMutability": "nonpayable",
					"type": "function"
				},
				{
					"inputs": [],
					"name": "jcount",
					"outputs": [
						{
							"internalType": "uint256",
							"name": "",
							"type": "uint256"
						}
					],
					"stateMutability": "view",
					"type": "function"
				},
				{
					"inputs": [
						{
							"internalType": "uint256",
							"name": "",
							"type": "uint256"
						}
					],
					"name": "jobs",
					"outputs": [
						{
							"internalType": "uint256",
							"name": "id",
							"type": "uint256"
						},
						{
							"internalType": "string",
							"name": "title",
							"type": "string"
						},
						{
							"internalType": "string",
							"name": "skillsrequired",
							"type": "string"
						},
						{
							"internalType": "uint256",
							"name": "salary",
							"type": "uint256"
						},
						{
							"internalType": "address",
							"name": "provider",
							"type": "address"
						},
						{
							"internalType": "bool",
							"name": "available",
							"type": "bool"
						}
					],
					"stateMutability": "view",
					"type": "function"
				},
				{
					"inputs": [
						{
							"internalType": "uint256",
							"name": "",
							"type": "uint256"
						}
					],
					"name": "ratings",
					"outputs": [
						{
							"internalType": "uint256",
							"name": "rating",
							"type": "uint256"
						},
						{
							"internalType": "uint256",
							"name": "overallrating",
							"type": "uint256"
						}
					],
					"stateMutability": "view",
					"type": "function"
				}
			],
			"devdoc": {
				"kind": "dev",
				"methods": {},
				"version": 1
			},
			"evm": {
				"assembly": "    /* \"contracts/newproject.sol\":60:2965  contract Dapp {... */\n  mstore(0x40, 0x80)\n  callvalue\n  dup1\n  iszero\n  tag_1\n  jumpi\n  0x00\n  dup1\n  revert\ntag_1:\n  pop\n  dataSize(sub_0)\n  dup1\n  dataOffset(sub_0)\n  0x00\n  codecopy\n  0x00\n  return\nstop\n\nsub_0: assembly {\n        /* \"contracts/newproject.sol\":60:2965  contract Dapp {... */\n      mstore(0x40, 0x80)\n      callvalue\n      dup1\n      iszero\n      tag_1\n      jumpi\n      0x00\n      dup1\n      revert\n    tag_1:\n      pop\n      jumpi(tag_2, lt(calldatasize, 0x04))\n      shr(0xe0, calldataload(0x00))\n      dup1\n      0x640ed3fe\n      gt\n      tag_15\n      jumpi\n      dup1\n      0x640ed3fe\n      eq\n      tag_9\n      jumpi\n      dup1\n      0x6c8548ff\n      eq\n      tag_10\n      jumpi\n      dup1\n      0x725d89ba\n      eq\n      tag_11\n      jumpi\n      dup1\n      0x9df752be\n      eq\n      tag_12\n      jumpi\n      dup1\n      0xd280267d\n      eq\n      tag_13\n      jumpi\n      dup1\n      0xecb109e9\n      eq\n      tag_14\n      jumpi\n      jump(tag_2)\n    tag_15:\n      dup1\n      0x180aedf3\n      eq\n      tag_3\n      jumpi\n      dup1\n      0x1a36520d\n      eq\n      tag_4\n      jumpi\n      dup1\n      0x4cac35c6\n      eq\n      tag_5\n      jumpi\n      dup1\n      0x59f9743f\n      eq\n      tag_6\n      jumpi\n      dup1\n      0x5d30e84d\n      eq\n      tag_7\n      jumpi\n      dup1\n      0x63de5323\n      eq\n      tag_8\n      jumpi\n    tag_2:\n      0x00\n      dup1\n      revert\n        /* \"contracts/newproject.sol\":538:570  mapping(uint => Job) public jobs */\n    tag_3:\n      tag_16\n      0x04\n      dup1\n      calldatasize\n      sub\n      dup2\n      add\n      swap1\n      tag_17\n      swap2\n      swap1\n      tag_18\n      jump\t// in\n    tag_17:\n      tag_19\n      jump\t// in\n    tag_16:\n      mload(0x40)\n      tag_20\n      swap7\n      swap6\n      swap5\n      swap4\n      swap3\n      swap2\n      swap1\n      tag_21\n      jump\t// in\n    tag_20:\n      mload(0x40)\n      dup1\n      swap2\n      sub\n      swap1\n      return\n        /* \"contracts/newproject.sol\":2377:2727  function giveRating(uint _aid, uint _rating) public {... */\n    tag_4:\n      tag_22\n      0x04\n      dup1\n      calldatasize\n      sub\n      dup2\n      add\n      swap1\n      tag_23\n      swap2\n      swap1\n      tag_24\n      jump\t// in\n    tag_23:\n      tag_25\n      jump\t// in\n    tag_22:\n      stop\n        /* \"contracts/newproject.sol\":2034:2369  function getJobDetails(uint _jid) public view returns (string memory, string memory, uint,address) {... */\n    tag_5:\n      tag_26\n      0x04\n      dup1\n      calldatasize\n      sub\n      dup2\n      add\n      swap1\n      tag_27\n      swap2\n      swap1\n      tag_18\n      jump\t// in\n    tag_27:\n      tag_28\n      jump\t// in\n    tag_26:\n      mload(0x40)\n      tag_29\n      swap5\n      swap4\n      swap3\n      swap2\n      swap1\n      tag_30\n      jump\t// in\n    tag_29:\n      mload(0x40)\n      dup1\n      swap2\n      sub\n      swap1\n      return\n        /* \"contracts/newproject.sol\":649:667  uint public jcount */\n    tag_6:\n      tag_31\n      tag_32\n      jump\t// in\n    tag_31:\n      mload(0x40)\n      tag_33\n      swap2\n      swap1\n      tag_34\n      jump\t// in\n    tag_33:\n      mload(0x40)\n      dup1\n      swap2\n      sub\n      swap1\n      return\n        /* \"contracts/newproject.sol\":577:615  mapping(uint => Rating) public ratings */\n    tag_7:\n      tag_35\n      0x04\n      dup1\n      calldatasize\n      sub\n      dup2\n      add\n      swap1\n      tag_36\n      swap2\n      swap1\n      tag_18\n      jump\t// in\n    tag_36:\n      tag_37\n      jump\t// in\n    tag_35:\n      mload(0x40)\n      tag_38\n      swap3\n      swap2\n      swap1\n      tag_39\n      jump\t// in\n    tag_38:\n      mload(0x40)\n      dup1\n      swap2\n      sub\n      swap1\n      return\n        /* \"contracts/newproject.sol\":487:531  mapping(uint => Applicant) public applicants */\n    tag_8:\n      tag_40\n      0x04\n      dup1\n      calldatasize\n      sub\n      dup2\n      add\n      swap1\n      tag_41\n      swap2\n      swap1\n      tag_18\n      jump\t// in\n    tag_41:\n      tag_42\n      jump\t// in\n    tag_40:\n      mload(0x40)\n      tag_43\n      swap6\n      swap5\n      swap4\n      swap3\n      swap2\n      swap1\n      tag_44\n      jump\t// in\n    tag_43:\n      mload(0x40)\n      dup1\n      swap2\n      sub\n      swap1\n      return\n        /* \"contracts/newproject.sol\":1746:2026  function addNewJob(... */\n    tag_9:\n      tag_45\n      0x04\n      dup1\n      calldatasize\n      sub\n      dup2\n      add\n      swap1\n      tag_46\n      swap2\n      swap1\n      tag_47\n      jump\t// in\n    tag_46:\n      tag_48\n      jump\t// in\n    tag_45:\n      stop\n        /* \"contracts/newproject.sol\":2735:2962  function fetchApplicantRating(uint _aid) public view returns (uint, uint) {... */\n    tag_10:\n      tag_49\n      0x04\n      dup1\n      calldatasize\n      sub\n      dup2\n      add\n      swap1\n      tag_50\n      swap2\n      swap1\n      tag_18\n      jump\t// in\n    tag_50:\n      tag_51\n      jump\t// in\n    tag_49:\n      mload(0x40)\n      tag_52\n      swap3\n      swap2\n      swap1\n      tag_39\n      jump\t// in\n    tag_52:\n      mload(0x40)\n      dup1\n      swap2\n      sub\n      swap1\n      return\n        /* \"contracts/newproject.sol\":815:1106  function addNewApplicant(... */\n    tag_11:\n      tag_53\n      0x04\n      dup1\n      calldatasize\n      sub\n      dup2\n      add\n      swap1\n      tag_54\n      swap2\n      swap1\n      tag_55\n      jump\t// in\n    tag_54:\n      tag_56\n      jump\t// in\n    tag_53:\n      stop\n        /* \"contracts/newproject.sol\":1114:1432  function getApplicantValues(uint _aid) public view returns (string memory, string memory, string memory) {... */\n    tag_12:\n      tag_57\n      0x04\n      dup1\n      calldatasize\n      sub\n      dup2\n      add\n      swap1\n      tag_58\n      swap2\n      swap1\n      tag_18\n      jump\t// in\n    tag_58:\n      tag_59\n      jump\t// in\n    tag_57:\n      mload(0x40)\n      tag_60\n      swap4\n      swap3\n      swap2\n      swap1\n      tag_61\n      jump\t// in\n    tag_60:\n      mload(0x40)\n      dup1\n      swap2\n      sub\n      swap1\n      return\n        /* \"contracts/newproject.sol\":1440:1738  function getApplicantType(uint _aid) public view returns (string memory) {... */\n    tag_13:\n      tag_62\n      0x04\n      dup1\n      calldatasize\n      sub\n      dup2\n      add\n      swap1\n      tag_63\n      swap2\n      swap1\n      tag_18\n      jump\t// in\n    tag_63:\n      tag_64\n      jump\t// in\n    tag_62:\n      mload(0x40)\n      tag_65\n      swap2\n      swap1\n      tag_66\n      jump\t// in\n    tag_65:\n      mload(0x40)\n      dup1\n      swap2\n      sub\n      swap1\n      return\n        /* \"contracts/newproject.sol\":624:642  uint public acount */\n    tag_14:\n      tag_67\n      tag_68\n      jump\t// in\n    tag_67:\n      mload(0x40)\n      tag_69\n      swap2\n      swap1\n      tag_34\n      jump\t// in\n    tag_69:\n      mload(0x40)\n      dup1\n      swap2\n      sub\n      swap1\n      return\n        /* \"contracts/newproject.sol\":538:570  mapping(uint => Job) public jobs */\n    tag_19:\n      mstore(0x20, 0x01)\n      dup1\n      0x00\n      mstore\n      keccak256(0x00, 0x40)\n      0x00\n      swap2\n      pop\n      swap1\n      pop\n      dup1\n      0x00\n      add\n      sload\n      swap1\n      dup1\n      0x01\n      add\n      dup1\n      sload\n      tag_70\n      swap1\n      tag_71\n      jump\t// in\n    tag_70:\n      dup1\n      0x1f\n      add\n      0x20\n      dup1\n      swap2\n      div\n      mul\n      0x20\n      add\n      mload(0x40)\n      swap1\n      dup2\n      add\n      0x40\n      mstore\n      dup1\n      swap3\n      swap2\n      swap1\n      dup2\n      dup2\n      mstore\n      0x20\n      add\n      dup3\n      dup1\n      sload\n      tag_72\n      swap1\n      tag_71\n      jump\t// in\n    tag_72:\n      dup1\n      iszero\n      tag_73\n      jumpi\n      dup1\n      0x1f\n      lt\n      tag_74\n      jumpi\n      0x0100\n      dup1\n      dup4\n      sload\n      div\n      mul\n      dup4\n      mstore\n      swap2\n      0x20\n      add\n      swap2\n      jump(tag_73)\n    tag_74:\n      dup3\n      add\n      swap2\n      swap1\n      0x00\n      mstore\n      keccak256(0x00, 0x20)\n      swap1\n    tag_75:\n      dup2\n      sload\n      dup2\n      mstore\n      swap1\n      0x01\n      add\n      swap1\n      0x20\n      add\n      dup1\n      dup4\n      gt\n      tag_75\n      jumpi\n      dup3\n      swap1\n      sub\n      0x1f\n      and\n      dup3\n      add\n      swap2\n    tag_73:\n      pop\n      pop\n      pop\n      pop\n      pop\n      swap1\n      dup1\n      0x02\n      add\n      dup1\n      sload\n      tag_76\n      swap1\n      tag_71\n      jump\t// in\n    tag_76:\n      dup1\n      0x1f\n      add\n      0x20\n      dup1\n      swap2\n      div\n      mul\n      0x20\n      add\n      mload(0x40)\n      swap1\n      dup2\n      add\n      0x40\n      mstore\n      dup1\n      swap3\n      swap2\n      swap1\n      dup2\n      dup2\n      mstore\n      0x20\n      add\n      dup3\n      dup1\n      sload\n      tag_77\n      swap1\n      tag_71\n      jump\t// in\n    tag_77:\n      dup1\n      iszero\n      tag_78\n      jumpi\n      dup1\n      0x1f\n      lt\n      tag_79\n      jumpi\n      0x0100\n      dup1\n      dup4\n      sload\n      div\n      mul\n      dup4\n      mstore\n      swap2\n      0x20\n      add\n      swap2\n      jump(tag_78)\n    tag_79:\n      dup3\n      add\n      swap2\n      swap1\n      0x00\n      mstore\n      keccak256(0x00, 0x20)\n      swap1\n    tag_80:\n      dup2\n      sload\n      dup2\n      mstore\n      swap1\n      0x01\n      add\n      swap1\n      0x20\n      add\n      dup1\n      dup4\n      gt\n      tag_80\n      jumpi\n      dup3\n      swap1\n      sub\n      0x1f\n      and\n      dup3\n      add\n      swap2\n    tag_78:\n      pop\n      pop\n      pop\n      pop\n      pop\n      swap1\n      dup1\n      0x03\n      add\n      sload\n      swap1\n      dup1\n      0x04\n      add\n      0x00\n      swap1\n      sload\n      swap1\n      0x0100\n      exp\n      swap1\n      div\n      0xffffffffffffffffffffffffffffffffffffffff\n      and\n      swap1\n      dup1\n      0x04\n      add\n      0x14\n      swap1\n      sload\n      swap1\n      0x0100\n      exp\n      swap1\n      div\n      0xff\n      and\n      swap1\n      pop\n      dup7\n      jump\t// out\n        /* \"contracts/newproject.sol\":2377:2727  function giveRating(uint _aid, uint _rating) public {... */\n    tag_25:\n        /* \"contracts/newproject.sol\":2448:2458  applicants */\n      0x00\n        /* \"contracts/newproject.sol\":2448:2464  applicants[_aid] */\n      dup1\n        /* \"contracts/newproject.sol\":2459:2463  _aid */\n      dup4\n        /* \"contracts/newproject.sol\":2448:2464  applicants[_aid] */\n      dup2\n      mstore\n      0x20\n      add\n      swap1\n      dup2\n      mstore\n      0x20\n      add\n      0x00\n      keccak256\n        /* \"contracts/newproject.sol\":2448:2475  applicants[_aid].registered */\n      0x04\n      add\n      0x00\n      swap1\n      sload\n      swap1\n      0x0100\n      exp\n      swap1\n      div\n      0xff\n      and\n        /* \"contracts/newproject.sol\":2440:2505  require(applicants[_aid].registered, \"Applicant does not exist.\") */\n      tag_82\n      jumpi\n      mload(0x40)\n      0x08c379a000000000000000000000000000000000000000000000000000000000\n      dup2\n      mstore\n      0x04\n      add\n      tag_83\n      swap1\n      tag_84\n      jump\t// in\n    tag_83:\n      mload(0x40)\n      dup1\n      swap2\n      sub\n      swap1\n      revert\n    tag_82:\n        /* \"contracts/newproject.sol\":2535:2536  0 */\n      0x00\n        /* \"contracts/newproject.sol\":2524:2531  _rating */\n      dup2\n        /* \"contracts/newproject.sol\":2524:2536  _rating >= 0 */\n      lt\n      iszero\n        /* \"contracts/newproject.sol\":2524:2552  _rating >= 0 && _rating <= 5 */\n      dup1\n      iszero\n      tag_85\n      jumpi\n      pop\n        /* \"contracts/newproject.sol\":2551:2552  5 */\n      0x05\n        /* \"contracts/newproject.sol\":2540:2547  _rating */\n      dup2\n        /* \"contracts/newproject.sol\":2540:2552  _rating <= 5 */\n      gt\n      iszero\n        /* \"contracts/newproject.sol\":2524:2552  _rating >= 0 && _rating <= 5 */\n    tag_85:\n        /* \"contracts/newproject.sol\":2516:2594  require(_rating >= 0 && _rating <= 5, \"Rating value must be between 0 and 5.\") */\n      tag_86\n      jumpi\n      mload(0x40)\n      0x08c379a000000000000000000000000000000000000000000000000000000000\n      dup2\n      mstore\n      0x04\n      add\n      tag_87\n      swap1\n      tag_88\n      jump\t// in\n    tag_87:\n      mload(0x40)\n      dup1\n      swap2\n      sub\n      swap1\n      revert\n    tag_86:\n        /* \"contracts/newproject.sol\":2629:2636  _rating */\n      dup1\n        /* \"contracts/newproject.sol\":2605:2612  ratings */\n      0x02\n        /* \"contracts/newproject.sol\":2605:2618  ratings[_aid] */\n      0x00\n        /* \"contracts/newproject.sol\":2613:2617  _aid */\n      dup5\n        /* \"contracts/newproject.sol\":2605:2618  ratings[_aid] */\n      dup2\n      mstore\n      0x20\n      add\n      swap1\n      dup2\n      mstore\n      0x20\n      add\n      0x00\n      keccak256\n        /* \"contracts/newproject.sol\":2605:2625  ratings[_aid].rating */\n      0x00\n      add\n      0x00\n        /* \"contracts/newproject.sol\":2605:2636  ratings[_aid].rating += _rating */\n      dup3\n      dup3\n      sload\n      tag_89\n      swap2\n      swap1\n      tag_90\n      jump\t// in\n    tag_89:\n      swap3\n      pop\n      pop\n      dup2\n      swap1\n      sstore\n      pop\n        /* \"contracts/newproject.sol\":2647:2654  ratings */\n      0x02\n        /* \"contracts/newproject.sol\":2647:2660  ratings[_aid] */\n      0x00\n        /* \"contracts/newproject.sol\":2655:2659  _aid */\n      dup4\n        /* \"contracts/newproject.sol\":2647:2660  ratings[_aid] */\n      dup2\n      mstore\n      0x20\n      add\n      swap1\n      dup2\n      mstore\n      0x20\n      add\n      0x00\n      keccak256\n        /* \"contracts/newproject.sol\":2647:2674  ratings[_aid].overallrating */\n      0x01\n      add\n      0x00\n        /* \"contracts/newproject.sol\":2647:2676  ratings[_aid].overallrating++ */\n      dup2\n      sload\n      dup1\n      swap3\n      swap2\n      swap1\n      tag_91\n      swap1\n      tag_92\n      jump\t// in\n    tag_91:\n      swap2\n      swap1\n      pop\n      sstore\n      pop\n        /* \"contracts/newproject.sol\":2692:2719  Ratingstated(_aid, _rating) */\n      0xa19c0ab39df9eafd50df675666e6603bd2f2b879f0c112d1d99c45424eaee703\n        /* \"contracts/newproject.sol\":2705:2709  _aid */\n      dup3\n        /* \"contracts/newproject.sol\":2711:2718  _rating */\n      dup3\n        /* \"contracts/newproject.sol\":2692:2719  Ratingstated(_aid, _rating) */\n      mload(0x40)\n      tag_93\n      swap3\n      swap2\n      swap1\n      tag_39\n      jump\t// in\n    tag_93:\n      mload(0x40)\n      dup1\n      swap2\n      sub\n      swap1\n      log1\n        /* \"contracts/newproject.sol\":2377:2727  function giveRating(uint _aid, uint _rating) public {... */\n      pop\n      pop\n      jump\t// out\n        /* \"contracts/newproject.sol\":2034:2369  function getJobDetails(uint _jid) public view returns (string memory, string memory, uint,address) {... */\n    tag_28:\n        /* \"contracts/newproject.sol\":2089:2102  string memory */\n      0x60\n        /* \"contracts/newproject.sol\":2104:2117  string memory */\n      dup1\n        /* \"contracts/newproject.sol\":2119:2123  uint */\n      0x00\n        /* \"contracts/newproject.sol\":2124:2131  address */\n      dup1\n        /* \"contracts/newproject.sol\":2152:2156  jobs */\n      0x01\n        /* \"contracts/newproject.sol\":2152:2162  jobs[_jid] */\n      0x00\n        /* \"contracts/newproject.sol\":2157:2161  _jid */\n      dup7\n        /* \"contracts/newproject.sol\":2152:2162  jobs[_jid] */\n      dup2\n      mstore\n      0x20\n      add\n      swap1\n      dup2\n      mstore\n      0x20\n      add\n      0x00\n      keccak256\n        /* \"contracts/newproject.sol\":2152:2172  jobs[_jid].available */\n      0x04\n      add\n      0x14\n      swap1\n      sload\n      swap1\n      0x0100\n      exp\n      swap1\n      div\n      0xff\n      and\n        /* \"contracts/newproject.sol\":2144:2195  require(jobs[_jid].available, \"Job does not exist\") */\n      tag_95\n      jumpi\n      mload(0x40)\n      0x08c379a000000000000000000000000000000000000000000000000000000000\n      dup2\n      mstore\n      0x04\n      add\n      tag_96\n      swap1\n      tag_97\n      jump\t// in\n    tag_96:\n      mload(0x40)\n      dup1\n      swap2\n      sub\n      swap1\n      revert\n    tag_95:\n        /* \"contracts/newproject.sol\":2228:2232  jobs */\n      0x01\n        /* \"contracts/newproject.sol\":2228:2238  jobs[_jid] */\n      0x00\n        /* \"contracts/newproject.sol\":2233:2237  _jid */\n      dup7\n        /* \"contracts/newproject.sol\":2228:2238  jobs[_jid] */\n      dup2\n      mstore\n      0x20\n      add\n      swap1\n      dup2\n      mstore\n      0x20\n      add\n      0x00\n      keccak256\n        /* \"contracts/newproject.sol\":2228:2244  jobs[_jid].title */\n      0x01\n      add\n        /* \"contracts/newproject.sol\":2259:2263  jobs */\n      0x01\n        /* \"contracts/newproject.sol\":2259:2269  jobs[_jid] */\n      0x00\n        /* \"contracts/newproject.sol\":2264:2268  _jid */\n      dup8\n        /* \"contracts/newproject.sol\":2259:2269  jobs[_jid] */\n      dup2\n      mstore\n      0x20\n      add\n      swap1\n      dup2\n      mstore\n      0x20\n      add\n      0x00\n      keccak256\n        /* \"contracts/newproject.sol\":2259:2284  jobs[_jid].skillsrequired */\n      0x02\n      add\n        /* \"contracts/newproject.sol\":2299:2303  jobs */\n      0x01\n        /* \"contracts/newproject.sol\":2299:2309  jobs[_jid] */\n      0x00\n        /* \"contracts/newproject.sol\":2304:2308  _jid */\n      dup9\n        /* \"contracts/newproject.sol\":2299:2309  jobs[_jid] */\n      dup2\n      mstore\n      0x20\n      add\n      swap1\n      dup2\n      mstore\n      0x20\n      add\n      0x00\n      keccak256\n        /* \"contracts/newproject.sol\":2299:2316  jobs[_jid].salary */\n      0x03\n      add\n      sload\n        /* \"contracts/newproject.sol\":2331:2335  jobs */\n      0x01\n        /* \"contracts/newproject.sol\":2331:2341  jobs[_jid] */\n      0x00\n        /* \"contracts/newproject.sol\":2336:2340  _jid */\n      dup10\n        /* \"contracts/newproject.sol\":2331:2341  jobs[_jid] */\n      dup2\n      mstore\n      0x20\n      add\n      swap1\n      dup2\n      mstore\n      0x20\n      add\n      0x00\n      keccak256\n        /* \"contracts/newproject.sol\":2331:2350  jobs[_jid].provider */\n      0x04\n      add\n      0x00\n      swap1\n      sload\n      swap1\n      0x0100\n      exp\n      swap1\n      div\n      0xffffffffffffffffffffffffffffffffffffffff\n      and\n        /* \"contracts/newproject.sol\":2206:2361  return (... */\n      dup4\n      dup1\n      sload\n      tag_98\n      swap1\n      tag_71\n      jump\t// in\n    tag_98:\n      dup1\n      0x1f\n      add\n      0x20\n      dup1\n      swap2\n      div\n      mul\n      0x20\n      add\n      mload(0x40)\n      swap1\n      dup2\n      add\n      0x40\n      mstore\n      dup1\n      swap3\n      swap2\n      swap1\n      dup2\n      dup2\n      mstore\n      0x20\n      add\n      dup3\n      dup1\n      sload\n      tag_99\n      swap1\n      tag_71\n      jump\t// in\n    tag_99:\n      dup1\n      iszero\n      tag_100\n      jumpi\n      dup1\n      0x1f\n      lt\n      tag_101\n      jumpi\n      0x0100\n      dup1\n      dup4\n      sload\n      div\n      mul\n      dup4\n      mstore\n      swap2\n      0x20\n      add\n      swap2\n      jump(tag_100)\n    tag_101:\n      dup3\n      add\n      swap2\n      swap1\n      0x00\n      mstore\n      keccak256(0x00, 0x20)\n      swap1\n    tag_102:\n      dup2\n      sload\n      dup2\n      mstore\n      swap1\n      0x01\n      add\n      swap1\n      0x20\n      add\n      dup1\n      dup4\n      gt\n      tag_102\n      jumpi\n      dup3\n      swap1\n      sub\n      0x1f\n      and\n      dup3\n      add\n      swap2\n    tag_100:\n      pop\n      pop\n      pop\n      pop\n      pop\n      swap4\n      pop\n      dup3\n      dup1\n      sload\n      tag_103\n      swap1\n      tag_71\n      jump\t// in\n    tag_103:\n      dup1\n      0x1f\n      add\n      0x20\n      dup1\n      swap2\n      div\n      mul\n      0x20\n      add\n      mload(0x40)\n      swap1\n      dup2\n      add\n      0x40\n      mstore\n      dup1\n      swap3\n      swap2\n      swap1\n      dup2\n      dup2\n      mstore\n      0x20\n      add\n      dup3\n      dup1\n      sload\n      tag_104\n      swap1\n      tag_71\n      jump\t// in\n    tag_104:\n      dup1\n      iszero\n      tag_105\n      jumpi\n      dup1\n      0x1f\n      lt\n      tag_106\n      jumpi\n      0x0100\n      dup1\n      dup4\n      sload\n      div\n      mul\n      dup4\n      mstore\n      swap2\n      0x20\n      add\n      swap2\n      jump(tag_105)\n    tag_106:\n      dup3\n      add\n      swap2\n      swap1\n      0x00\n      mstore\n      keccak256(0x00, 0x20)\n      swap1\n    tag_107:\n      dup2\n      sload\n      dup2\n      mstore\n      swap1\n      0x01\n      add\n      swap1\n      0x20\n      add\n      dup1\n      dup4\n      gt\n      tag_107\n      jumpi\n      dup3\n      swap1\n      sub\n      0x1f\n      and\n      dup3\n      add\n      swap2\n    tag_105:\n      pop\n      pop\n      pop\n      pop\n      pop\n      swap3\n      pop\n      swap4\n      pop\n      swap4\n      pop\n      swap4\n      pop\n      swap4\n      pop\n        /* \"contracts/newproject.sol\":2034:2369  function getJobDetails(uint _jid) public view returns (string memory, string memory, uint,address) {... */\n      swap2\n      swap4\n      pop\n      swap2\n      swap4\n      jump\t// out\n        /* \"contracts/newproject.sol\":649:667  uint public jcount */\n    tag_32:\n      sload(0x04)\n      dup2\n      jump\t// out\n        /* \"contracts/newproject.sol\":577:615  mapping(uint => Rating) public ratings */\n    tag_37:\n      mstore(0x20, 0x02)\n      dup1\n      0x00\n      mstore\n      keccak256(0x00, 0x40)\n      0x00\n      swap2\n      pop\n      swap1\n      pop\n      dup1\n      0x00\n      add\n      sload\n      swap1\n      dup1\n      0x01\n      add\n      sload\n      swap1\n      pop\n      dup3\n      jump\t// out\n        /* \"contracts/newproject.sol\":487:531  mapping(uint => Applicant) public applicants */\n    tag_42:\n      mstore(0x20, 0x00)\n      dup1\n      0x00\n      mstore\n      keccak256(0x00, 0x40)\n      0x00\n      swap2\n      pop\n      swap1\n      pop\n      dup1\n      0x00\n      add\n      sload\n      swap1\n      dup1\n      0x01\n      add\n      dup1\n      sload\n      tag_108\n      swap1\n      tag_71\n      jump\t// in\n    tag_108:\n      dup1\n      0x1f\n      add\n      0x20\n      dup1\n      swap2\n      div\n      mul\n      0x20\n      add\n      mload(0x40)\n      swap1\n      dup2\n      add\n      0x40\n      mstore\n      dup1\n      swap3\n      swap2\n      swap1\n      dup2\n      dup2\n      mstore\n      0x20\n      add\n      dup3\n      dup1\n      sload\n      tag_109\n      swap1\n      tag_71\n      jump\t// in\n    tag_109:\n      dup1\n      iszero\n      tag_110\n      jumpi\n      dup1\n      0x1f\n      lt\n      tag_111\n      jumpi\n      0x0100\n      dup1\n      dup4\n      sload\n      div\n      mul\n      dup4\n      mstore\n      swap2\n      0x20\n      add\n      swap2\n      jump(tag_110)\n    tag_111:\n      dup3\n      add\n      swap2\n      swap1\n      0x00\n      mstore\n      keccak256(0x00, 0x20)\n      swap1\n    tag_112:\n      dup2\n      sload\n      dup2\n      mstore\n      swap1\n      0x01\n      add\n      swap1\n      0x20\n      add\n      dup1\n      dup4\n      gt\n      tag_112\n      jumpi\n      dup3\n      swap1\n      sub\n      0x1f\n      and\n      dup3\n      add\n      swap2\n    tag_110:\n      pop\n      pop\n      pop\n      pop\n      pop\n      swap1\n      dup1\n      0x02\n      add\n      dup1\n      sload\n      tag_113\n      swap1\n      tag_71\n      jump\t// in\n    tag_113:\n      dup1\n      0x1f\n      add\n      0x20\n      dup1\n      swap2\n      div\n      mul\n      0x20\n      add\n      mload(0x40)\n      swap1\n      dup2\n      add\n      0x40\n      mstore\n      dup1\n      swap3\n      swap2\n      swap1\n      dup2\n      dup2\n      mstore\n      0x20\n      add\n      dup3\n      dup1\n      sload\n      tag_114\n      swap1\n      tag_71\n      jump\t// in\n    tag_114:\n      dup1\n      iszero\n      tag_115\n      jumpi\n      dup1\n      0x1f\n      lt\n      tag_116\n      jumpi\n      0x0100\n      dup1\n      dup4\n      sload\n      div\n      mul\n      dup4\n      mstore\n      swap2\n      0x20\n      add\n      swap2\n      jump(tag_115)\n    tag_116:\n      dup3\n      add\n      swap2\n      swap1\n      0x00\n      mstore\n      keccak256(0x00, 0x20)\n      swap1\n    tag_117:\n      dup2\n      sload\n      dup2\n      mstore\n      swap1\n      0x01\n      add\n      swap1\n      0x20\n      add\n      dup1\n      dup4\n      gt\n      tag_117\n      jumpi\n      dup3\n      swap1\n      sub\n      0x1f\n      and\n      dup3\n      add\n      swap2\n    tag_115:\n      pop\n      pop\n      pop\n      pop\n      pop\n      swap1\n      dup1\n      0x03\n      add\n      dup1\n      sload\n      tag_118\n      swap1\n      tag_71\n      jump\t// in\n    tag_118:\n      dup1\n      0x1f\n      add\n      0x20\n      dup1\n      swap2\n      div\n      mul\n      0x20\n      add\n      mload(0x40)\n      swap1\n      dup2\n      add\n      0x40\n      mstore\n      dup1\n      swap3\n      swap2\n      swap1\n      dup2\n      dup2\n      mstore\n      0x20\n      add\n      dup3\n      dup1\n      sload\n      tag_119\n      swap1\n      tag_71\n      jump\t// in\n    tag_119:\n      dup1\n      iszero\n      tag_120\n      jumpi\n      dup1\n      0x1f\n      lt\n      tag_121\n      jumpi\n      0x0100\n      dup1\n      dup4\n      sload\n      div\n      mul\n      dup4\n      mstore\n      swap2\n      0x20\n      add\n      swap2\n      jump(tag_120)\n    tag_121:\n      dup3\n      add\n      swap2\n      swap1\n      0x00\n      mstore\n      keccak256(0x00, 0x20)\n      swap1\n    tag_122:\n      dup2\n      sload\n      dup2\n      mstore\n      swap1\n      0x01\n      add\n      swap1\n      0x20\n      add\n      dup1\n      dup4\n      gt\n      tag_122\n      jumpi\n      dup3\n      swap1\n      sub\n      0x1f\n      and\n      dup3\n      add\n      swap2\n    tag_120:\n      pop\n      pop\n      pop\n      pop\n      pop\n      swap1\n      dup1\n      0x04\n      add\n      0x00\n      swap1\n      sload\n      swap1\n      0x0100\n      exp\n      swap1\n      div\n      0xff\n      and\n      swap1\n      pop\n      dup6\n      jump\t// out\n        /* \"contracts/newproject.sol\":1746:2026  function addNewJob(... */\n    tag_48:\n        /* \"contracts/newproject.sol\":1884:1890  jcount */\n      0x04\n      0x00\n        /* \"contracts/newproject.sol\":1884:1892  jcount++ */\n      dup2\n      sload\n      dup1\n      swap3\n      swap2\n      swap1\n      tag_124\n      swap1\n      tag_92\n      jump\t// in\n    tag_124:\n      swap2\n      swap1\n      pop\n      sstore\n      pop\n        /* \"contracts/newproject.sol\":1918:1980  Job(jcount, _title, _skillsrequired, _salary,msg.sender, true) */\n      mload(0x40)\n      dup1\n      0xc0\n      add\n      0x40\n      mstore\n      dup1\n        /* \"contracts/newproject.sol\":1922:1928  jcount */\n      sload(0x04)\n        /* \"contracts/newproject.sol\":1918:1980  Job(jcount, _title, _skillsrequired, _salary,msg.sender, true) */\n      dup2\n      mstore\n      0x20\n      add\n        /* \"contracts/newproject.sol\":1930:1936  _title */\n      dup5\n        /* \"contracts/newproject.sol\":1918:1980  Job(jcount, _title, _skillsrequired, _salary,msg.sender, true) */\n      dup2\n      mstore\n      0x20\n      add\n        /* \"contracts/newproject.sol\":1938:1953  _skillsrequired */\n      dup4\n        /* \"contracts/newproject.sol\":1918:1980  Job(jcount, _title, _skillsrequired, _salary,msg.sender, true) */\n      dup2\n      mstore\n      0x20\n      add\n        /* \"contracts/newproject.sol\":1955:1962  _salary */\n      dup3\n        /* \"contracts/newproject.sol\":1918:1980  Job(jcount, _title, _skillsrequired, _salary,msg.sender, true) */\n      dup2\n      mstore\n      0x20\n      add\n        /* \"contracts/newproject.sol\":1963:1973  msg.sender */\n      caller\n        /* \"contracts/newproject.sol\":1918:1980  Job(jcount, _title, _skillsrequired, _salary,msg.sender, true) */\n      0xffffffffffffffffffffffffffffffffffffffff\n      and\n      dup2\n      mstore\n      0x20\n      add\n        /* \"contracts/newproject.sol\":1975:1979  true */\n      0x01\n        /* \"contracts/newproject.sol\":1918:1980  Job(jcount, _title, _skillsrequired, _salary,msg.sender, true) */\n      iszero\n      iszero\n      dup2\n      mstore\n      pop\n        /* \"contracts/newproject.sol\":1903:1907  jobs */\n      0x01\n        /* \"contracts/newproject.sol\":1903:1915  jobs[jcount] */\n      0x00\n        /* \"contracts/newproject.sol\":1908:1914  jcount */\n      sload(0x04)\n        /* \"contracts/newproject.sol\":1903:1915  jobs[jcount] */\n      dup2\n      mstore\n      0x20\n      add\n      swap1\n      dup2\n      mstore\n      0x20\n      add\n      0x00\n      keccak256\n        /* \"contracts/newproject.sol\":1903:1980  jobs[jcount] = Job(jcount, _title, _skillsrequired, _salary,msg.sender, true) */\n      0x00\n      dup3\n      add\n      mload\n      dup2\n      0x00\n      add\n      sstore\n      0x20\n      dup3\n      add\n      mload\n      dup2\n      0x01\n      add\n      swap1\n      dup2\n      tag_125\n      swap2\n      swap1\n      tag_126\n      jump\t// in\n    tag_125:\n      pop\n      0x40\n      dup3\n      add\n      mload\n      dup2\n      0x02\n      add\n      swap1\n      dup2\n      tag_127\n      swap2\n      swap1\n      tag_126\n      jump\t// in\n    tag_127:\n      pop\n      0x60\n      dup3\n      add\n      mload\n      dup2\n      0x03\n      add\n      sstore\n      0x80\n      dup3\n      add\n      mload\n      dup2\n      0x04\n      add\n      exp(0x0100, 0x00)\n      dup2\n      sload\n      dup2\n      0xffffffffffffffffffffffffffffffffffffffff\n      mul\n      not\n      and\n      swap1\n      dup4\n      0xffffffffffffffffffffffffffffffffffffffff\n      and\n      mul\n      or\n      swap1\n      sstore\n      pop\n      0xa0\n      dup3\n      add\n      mload\n      dup2\n      0x04\n      add\n      exp(0x0100, 0x14)\n      dup2\n      sload\n      dup2\n      0xff\n      mul\n      not\n      and\n      swap1\n      dup4\n      iszero\n      iszero\n      mul\n      or\n      swap1\n      sstore\n      pop\n      swap1\n      pop\n      pop\n        /* \"contracts/newproject.sol\":1996:2018  NewJob(jcount, _title) */\n      0x16741b99d9970409a70e3afc272f75c16a16fd623ccdf4a19b87637933090ac2\n        /* \"contracts/newproject.sol\":2003:2009  jcount */\n      sload(0x04)\n        /* \"contracts/newproject.sol\":2011:2017  _title */\n      dup5\n        /* \"contracts/newproject.sol\":1996:2018  NewJob(jcount, _title) */\n      mload(0x40)\n      tag_128\n      swap3\n      swap2\n      swap1\n      tag_129\n      jump\t// in\n    tag_128:\n      mload(0x40)\n      dup1\n      swap2\n      sub\n      swap1\n      log1\n        /* \"contracts/newproject.sol\":1746:2026  function addNewJob(... */\n      pop\n      pop\n      pop\n      jump\t// out\n        /* \"contracts/newproject.sol\":2735:2962  function fetchApplicantRating(uint _aid) public view returns (uint, uint) {... */\n    tag_51:\n        /* \"contracts/newproject.sol\":2797:2801  uint */\n      0x00\n        /* \"contracts/newproject.sol\":2803:2807  uint */\n      dup1\n        /* \"contracts/newproject.sol\":2828:2838  applicants */\n      0x00\n        /* \"contracts/newproject.sol\":2828:2844  applicants[_aid] */\n      dup1\n        /* \"contracts/newproject.sol\":2839:2843  _aid */\n      dup5\n        /* \"contracts/newproject.sol\":2828:2844  applicants[_aid] */\n      dup2\n      mstore\n      0x20\n      add\n      swap1\n      dup2\n      mstore\n      0x20\n      add\n      0x00\n      keccak256\n        /* \"contracts/newproject.sol\":2828:2855  applicants[_aid].registered */\n      0x04\n      add\n      0x00\n      swap1\n      sload\n      swap1\n      0x0100\n      exp\n      swap1\n      div\n      0xff\n      and\n        /* \"contracts/newproject.sol\":2820:2885  require(applicants[_aid].registered, \"Applicant does not exist.\") */\n      tag_131\n      jumpi\n      mload(0x40)\n      0x08c379a000000000000000000000000000000000000000000000000000000000\n      dup2\n      mstore\n      0x04\n      add\n      tag_132\n      swap1\n      tag_84\n      jump\t// in\n    tag_132:\n      mload(0x40)\n      dup1\n      swap2\n      sub\n      swap1\n      revert\n    tag_131:\n        /* \"contracts/newproject.sol\":2904:2911  ratings */\n      0x02\n        /* \"contracts/newproject.sol\":2904:2917  ratings[_aid] */\n      0x00\n        /* \"contracts/newproject.sol\":2912:2916  _aid */\n      dup5\n        /* \"contracts/newproject.sol\":2904:2917  ratings[_aid] */\n      dup2\n      mstore\n      0x20\n      add\n      swap1\n      dup2\n      mstore\n      0x20\n      add\n      0x00\n      keccak256\n        /* \"contracts/newproject.sol\":2904:2924  ratings[_aid].rating */\n      0x00\n      add\n      sload\n        /* \"contracts/newproject.sol\":2926:2933  ratings */\n      0x02\n        /* \"contracts/newproject.sol\":2926:2939  ratings[_aid] */\n      0x00\n        /* \"contracts/newproject.sol\":2934:2938  _aid */\n      dup6\n        /* \"contracts/newproject.sol\":2926:2939  ratings[_aid] */\n      dup2\n      mstore\n      0x20\n      add\n      swap1\n      dup2\n      mstore\n      0x20\n      add\n      0x00\n      keccak256\n        /* \"contracts/newproject.sol\":2926:2953  ratings[_aid].overallrating */\n      0x01\n      add\n      sload\n        /* \"contracts/newproject.sol\":2896:2954  return (ratings[_aid].rating, ratings[_aid].overallrating) */\n      swap2\n      pop\n      swap2\n      pop\n        /* \"contracts/newproject.sol\":2735:2962  function fetchApplicantRating(uint _aid) public view returns (uint, uint) {... */\n      swap2\n      pop\n      swap2\n      jump\t// out\n        /* \"contracts/newproject.sol\":815:1106  function addNewApplicant(... */\n    tag_56:\n        /* \"contracts/newproject.sol\":963:969  acount */\n      0x03\n      0x00\n        /* \"contracts/newproject.sol\":963:971  acount++ */\n      dup2\n      sload\n      dup1\n      swap3\n      swap2\n      swap1\n      tag_134\n      swap1\n      tag_92\n      jump\t// in\n    tag_134:\n      swap2\n      swap1\n      pop\n      sstore\n      pop\n        /* \"contracts/newproject.sol\":1003:1055  Applicant(acount, _name, _skills, _experience, true) */\n      mload(0x40)\n      dup1\n      0xa0\n      add\n      0x40\n      mstore\n      dup1\n        /* \"contracts/newproject.sol\":1013:1019  acount */\n      sload(0x03)\n        /* \"contracts/newproject.sol\":1003:1055  Applicant(acount, _name, _skills, _experience, true) */\n      dup2\n      mstore\n      0x20\n      add\n        /* \"contracts/newproject.sol\":1021:1026  _name */\n      dup5\n        /* \"contracts/newproject.sol\":1003:1055  Applicant(acount, _name, _skills, _experience, true) */\n      dup2\n      mstore\n      0x20\n      add\n        /* \"contracts/newproject.sol\":1028:1035  _skills */\n      dup3\n        /* \"contracts/newproject.sol\":1003:1055  Applicant(acount, _name, _skills, _experience, true) */\n      dup2\n      mstore\n      0x20\n      add\n        /* \"contracts/newproject.sol\":1037:1048  _experience */\n      dup4\n        /* \"contracts/newproject.sol\":1003:1055  Applicant(acount, _name, _skills, _experience, true) */\n      dup2\n      mstore\n      0x20\n      add\n        /* \"contracts/newproject.sol\":1050:1054  true */\n      0x01\n        /* \"contracts/newproject.sol\":1003:1055  Applicant(acount, _name, _skills, _experience, true) */\n      iszero\n      iszero\n      dup2\n      mstore\n      pop\n        /* \"contracts/newproject.sol\":982:992  applicants */\n      0x00\n        /* \"contracts/newproject.sol\":982:1000  applicants[acount] */\n      dup1\n        /* \"contracts/newproject.sol\":993:999  acount */\n      sload(0x03)\n        /* \"contracts/newproject.sol\":982:1000  applicants[acount] */\n      dup2\n      mstore\n      0x20\n      add\n      swap1\n      dup2\n      mstore\n      0x20\n      add\n      0x00\n      keccak256\n        /* \"contracts/newproject.sol\":982:1055  applicants[acount] = Applicant(acount, _name, _skills, _experience, true) */\n      0x00\n      dup3\n      add\n      mload\n      dup2\n      0x00\n      add\n      sstore\n      0x20\n      dup3\n      add\n      mload\n      dup2\n      0x01\n      add\n      swap1\n      dup2\n      tag_135\n      swap2\n      swap1\n      tag_126\n      jump\t// in\n    tag_135:\n      pop\n      0x40\n      dup3\n      add\n      mload\n      dup2\n      0x02\n      add\n      swap1\n      dup2\n      tag_136\n      swap2\n      swap1\n      tag_126\n      jump\t// in\n    tag_136:\n      pop\n      0x60\n      dup3\n      add\n      mload\n      dup2\n      0x03\n      add\n      swap1\n      dup2\n      tag_137\n      swap2\n      swap1\n      tag_126\n      jump\t// in\n    tag_137:\n      pop\n      0x80\n      dup3\n      add\n      mload\n      dup2\n      0x04\n      add\n      exp(0x0100, 0x00)\n      dup2\n      sload\n      dup2\n      0xff\n      mul\n      not\n      and\n      swap1\n      dup4\n      iszero\n      iszero\n      mul\n      or\n      swap1\n      sstore\n      pop\n      swap1\n      pop\n      pop\n        /* \"contracts/newproject.sol\":1071:1098  NewApplicant(acount, _name) */\n      0x207e6308a8912df945f02f3c2eda37977f9dc87a78a1bb0f49dc304be79ae50b\n        /* \"contracts/newproject.sol\":1084:1090  acount */\n      sload(0x03)\n        /* \"contracts/newproject.sol\":1092:1097  _name */\n      dup5\n        /* \"contracts/newproject.sol\":1071:1098  NewApplicant(acount, _name) */\n      mload(0x40)\n      tag_138\n      swap3\n      swap2\n      swap1\n      tag_129\n      jump\t// in\n    tag_138:\n      mload(0x40)\n      dup1\n      swap2\n      sub\n      swap1\n      log1\n        /* \"contracts/newproject.sol\":815:1106  function addNewApplicant(... */\n      pop\n      pop\n      pop\n      jump\t// out\n        /* \"contracts/newproject.sol\":1114:1432  function getApplicantValues(uint _aid) public view returns (string memory, string memory, string memory) {... */\n    tag_59:\n        /* \"contracts/newproject.sol\":1174:1187  string memory */\n      0x60\n        /* \"contracts/newproject.sol\":1189:1202  string memory */\n      dup1\n        /* \"contracts/newproject.sol\":1204:1217  string memory */\n      0x60\n        /* \"contracts/newproject.sol\":1238:1248  applicants */\n      0x00\n        /* \"contracts/newproject.sol\":1238:1254  applicants[_aid] */\n      dup1\n        /* \"contracts/newproject.sol\":1249:1253  _aid */\n      dup6\n        /* \"contracts/newproject.sol\":1238:1254  applicants[_aid] */\n      dup2\n      mstore\n      0x20\n      add\n      swap1\n      dup2\n      mstore\n      0x20\n      add\n      0x00\n      keccak256\n        /* \"contracts/newproject.sol\":1238:1265  applicants[_aid].registered */\n      0x04\n      add\n      0x00\n      swap1\n      sload\n      swap1\n      0x0100\n      exp\n      swap1\n      div\n      0xff\n      and\n        /* \"contracts/newproject.sol\":1230:1279  require(applicants[_aid].registered, \"Not valid\") */\n      tag_140\n      jumpi\n      mload(0x40)\n      0x08c379a000000000000000000000000000000000000000000000000000000000\n      dup2\n      mstore\n      0x04\n      add\n      tag_141\n      swap1\n      tag_142\n      jump\t// in\n    tag_141:\n      mload(0x40)\n      dup1\n      swap2\n      sub\n      swap1\n      revert\n    tag_140:\n        /* \"contracts/newproject.sol\":1312:1322  applicants */\n      0x00\n        /* \"contracts/newproject.sol\":1312:1328  applicants[_aid] */\n      dup1\n        /* \"contracts/newproject.sol\":1323:1327  _aid */\n      dup6\n        /* \"contracts/newproject.sol\":1312:1328  applicants[_aid] */\n      dup2\n      mstore\n      0x20\n      add\n      swap1\n      dup2\n      mstore\n      0x20\n      add\n      0x00\n      keccak256\n        /* \"contracts/newproject.sol\":1312:1333  applicants[_aid].name */\n      0x01\n      add\n        /* \"contracts/newproject.sol\":1348:1358  applicants */\n      0x00\n        /* \"contracts/newproject.sol\":1348:1364  applicants[_aid] */\n      dup1\n        /* \"contracts/newproject.sol\":1359:1363  _aid */\n      dup7\n        /* \"contracts/newproject.sol\":1348:1364  applicants[_aid] */\n      dup2\n      mstore\n      0x20\n      add\n      swap1\n      dup2\n      mstore\n      0x20\n      add\n      0x00\n      keccak256\n        /* \"contracts/newproject.sol\":1348:1375  applicants[_aid].experience */\n      0x03\n      add\n        /* \"contracts/newproject.sol\":1390:1400  applicants */\n      0x00\n        /* \"contracts/newproject.sol\":1390:1406  applicants[_aid] */\n      dup1\n        /* \"contracts/newproject.sol\":1401:1405  _aid */\n      dup8\n        /* \"contracts/newproject.sol\":1390:1406  applicants[_aid] */\n      dup2\n      mstore\n      0x20\n      add\n      swap1\n      dup2\n      mstore\n      0x20\n      add\n      0x00\n      keccak256\n        /* \"contracts/newproject.sol\":1390:1413  applicants[_aid].skills */\n      0x02\n      add\n        /* \"contracts/newproject.sol\":1290:1424  return (... */\n      dup3\n      dup1\n      sload\n      tag_143\n      swap1\n      tag_71\n      jump\t// in\n    tag_143:\n      dup1\n      0x1f\n      add\n      0x20\n      dup1\n      swap2\n      div\n      mul\n      0x20\n      add\n      mload(0x40)\n      swap1\n      dup2\n      add\n      0x40\n      mstore\n      dup1\n      swap3\n      swap2\n      swap1\n      dup2\n      dup2\n      mstore\n      0x20\n      add\n      dup3\n      dup1\n      sload\n      tag_144\n      swap1\n      tag_71\n      jump\t// in\n    tag_144:\n      dup1\n      iszero\n      tag_145\n      jumpi\n      dup1\n      0x1f\n      lt\n      tag_146\n      jumpi\n      0x0100\n      dup1\n      dup4\n      sload\n      div\n      mul\n      dup4\n      mstore\n      swap2\n      0x20\n      add\n      swap2\n      jump(tag_145)\n    tag_146:\n      dup3\n      add\n      swap2\n      swap1\n      0x00\n      mstore\n      keccak256(0x00, 0x20)\n      swap1\n    tag_147:\n      dup2\n      sload\n      dup2\n      mstore\n      swap1\n      0x01\n      add\n      swap1\n      0x20\n      add\n      dup1\n      dup4\n      gt\n      tag_147\n      jumpi\n      dup3\n      swap1\n      sub\n      0x1f\n      and\n      dup3\n      add\n      swap2\n    tag_145:\n      pop\n      pop\n      pop\n      pop\n      pop\n      swap3\n      pop\n      dup2\n      dup1\n      sload\n      tag_148\n      swap1\n      tag_71\n      jump\t// in\n    tag_148:\n      dup1\n      0x1f\n      add\n      0x20\n      dup1\n      swap2\n      div\n      mul\n      0x20\n      add\n      mload(0x40)\n      swap1\n      dup2\n      add\n      0x40\n      mstore\n      dup1\n      swap3\n      swap2\n      swap1\n      dup2\n      dup2\n      mstore\n      0x20\n      add\n      dup3\n      dup1\n      sload\n      tag_149\n      swap1\n      tag_71\n      jump\t// in\n    tag_149:\n      dup1\n      iszero\n      tag_150\n      jumpi\n      dup1\n      0x1f\n      lt\n      tag_151\n      jumpi\n      0x0100\n      dup1\n      dup4\n      sload\n      div\n      mul\n      dup4\n      mstore\n      swap2\n      0x20\n      add\n      swap2\n      jump(tag_150)\n    tag_151:\n      dup3\n      add\n      swap2\n      swap1\n      0x00\n      mstore\n      keccak256(0x00, 0x20)\n      swap1\n    tag_152:\n      dup2\n      sload\n      dup2\n      mstore\n      swap1\n      0x01\n      add\n      swap1\n      0x20\n      add\n      dup1\n      dup4\n      gt\n      tag_152\n      jumpi\n      dup3\n      swap1\n      sub\n      0x1f\n      and\n      dup3\n      add\n      swap2\n    tag_150:\n      pop\n      pop\n      pop\n      pop\n      pop\n      swap2\n      pop\n      dup1\n      dup1\n      sload\n      tag_153\n      swap1\n      tag_71\n      jump\t// in\n    tag_153:\n      dup1\n      0x1f\n      add\n      0x20\n      dup1\n      swap2\n      div\n      mul\n      0x20\n      add\n      mload(0x40)\n      swap1\n      dup2\n      add\n      0x40\n      mstore\n      dup1\n      swap3\n      swap2\n      swap1\n      dup2\n      dup2\n      mstore\n      0x20\n      add\n      dup3\n      dup1\n      sload\n      tag_154\n      swap1\n      tag_71\n      jump\t// in\n    tag_154:\n      dup1\n      iszero\n      tag_155\n      jumpi\n      dup1\n      0x1f\n      lt\n      tag_156\n      jumpi\n      0x0100\n      dup1\n      dup4\n      sload\n      div\n      mul\n      dup4\n      mstore\n      swap2\n      0x20\n      add\n      swap2\n      jump(tag_155)\n    tag_156:\n      dup3\n      add\n      swap2\n      swap1\n      0x00\n      mstore\n      keccak256(0x00, 0x20)\n      swap1\n    tag_157:\n      dup2\n      sload\n      dup2\n      mstore\n      swap1\n      0x01\n      add\n      swap1\n      0x20\n      add\n      dup1\n      dup4\n      gt\n      tag_157\n      jumpi\n      dup3\n      swap1\n      sub\n      0x1f\n      and\n      dup3\n      add\n      swap2\n    tag_155:\n      pop\n      pop\n      pop\n      pop\n      pop\n      swap1\n      pop\n      swap3\n      pop\n      swap3\n      pop\n      swap3\n      pop\n        /* \"contracts/newproject.sol\":1114:1432  function getApplicantValues(uint _aid) public view returns (string memory, string memory, string memory) {... */\n      swap2\n      swap4\n      swap1\n      swap3\n      pop\n      jump\t// out\n        /* \"contracts/newproject.sol\":1440:1738  function getApplicantType(uint _aid) public view returns (string memory) {... */\n    tag_64:\n        /* \"contracts/newproject.sol\":1498:1511  string memory */\n      0x60\n        /* \"contracts/newproject.sol\":1532:1542  applicants */\n      0x00\n        /* \"contracts/newproject.sol\":1532:1548  applicants[_aid] */\n      dup1\n        /* \"contracts/newproject.sol\":1543:1547  _aid */\n      dup4\n        /* \"contracts/newproject.sol\":1532:1548  applicants[_aid] */\n      dup2\n      mstore\n      0x20\n      add\n      swap1\n      dup2\n      mstore\n      0x20\n      add\n      0x00\n      keccak256\n        /* \"contracts/newproject.sol\":1532:1559  applicants[_aid].registered */\n      0x04\n      add\n      0x00\n      swap1\n      sload\n      swap1\n      0x0100\n      exp\n      swap1\n      div\n      0xff\n      and\n        /* \"contracts/newproject.sol\":1524:1571  require(applicants[_aid].registered, \"Invalid\") */\n      tag_159\n      jumpi\n      mload(0x40)\n      0x08c379a000000000000000000000000000000000000000000000000000000000\n      dup2\n      mstore\n      0x04\n      add\n      tag_160\n      swap1\n      tag_161\n      jump\t// in\n    tag_160:\n      mload(0x40)\n      dup1\n      swap2\n      sub\n      swap1\n      revert\n    tag_159:\n        /* \"contracts/newproject.sol\":1630:1631  1 */\n      0x01\n        /* \"contracts/newproject.sol\":1592:1602  applicants */\n      0x00\n        /* \"contracts/newproject.sol\":1592:1608  applicants[_aid] */\n      dup1\n        /* \"contracts/newproject.sol\":1603:1607  _aid */\n      dup5\n        /* \"contracts/newproject.sol\":1592:1608  applicants[_aid] */\n      dup2\n      mstore\n      0x20\n      add\n      swap1\n      dup2\n      mstore\n      0x20\n      add\n      0x00\n      keccak256\n        /* \"contracts/newproject.sol\":1592:1619  applicants[_aid].experience */\n      0x03\n      add\n        /* \"contracts/newproject.sol\":1586:1627  bytes(applicants[_aid].experience).length */\n      dup1\n      sload\n      tag_162\n      swap1\n      tag_71\n      jump\t// in\n    tag_162:\n      swap1\n      pop\n        /* \"contracts/newproject.sol\":1586:1631  bytes(applicants[_aid].experience).length > 1 */\n      gt\n        /* \"contracts/newproject.sol\":1582:1731  if (bytes(applicants[_aid].experience).length > 1) {... */\n      iszero\n      tag_163\n      jumpi\n        /* \"contracts/newproject.sol\":1648:1668  return \"Experienced\" */\n      mload(0x40)\n      dup1\n      0x40\n      add\n      0x40\n      mstore\n      dup1\n      0x0b\n      dup2\n      mstore\n      0x20\n      add\n      0x457870657269656e636564000000000000000000000000000000000000000000\n      dup2\n      mstore\n      pop\n      swap1\n      pop\n      jump(tag_158)\n        /* \"contracts/newproject.sol\":1582:1731  if (bytes(applicants[_aid].experience).length > 1) {... */\n    tag_163:\n        /* \"contracts/newproject.sol\":1701:1719  return \"Unskilled\" */\n      mload(0x40)\n      dup1\n      0x40\n      add\n      0x40\n      mstore\n      dup1\n      0x09\n      dup2\n      mstore\n      0x20\n      add\n      0x556e736b696c6c65640000000000000000000000000000000000000000000000\n      dup2\n      mstore\n      pop\n      swap1\n      pop\n        /* \"contracts/newproject.sol\":1440:1738  function getApplicantType(uint _aid) public view returns (string memory) {... */\n    tag_158:\n      swap2\n      swap1\n      pop\n      jump\t// out\n        /* \"contracts/newproject.sol\":624:642  uint public acount */\n    tag_68:\n      sload(0x03)\n      dup2\n      jump\t// out\n        /* \"#utility.yul\":7:82   */\n    tag_165:\n        /* \"#utility.yul\":40:46   */\n      0x00\n        /* \"#utility.yul\":73:75   */\n      0x40\n        /* \"#utility.yul\":67:76   */\n      mload\n        /* \"#utility.yul\":57:76   */\n      swap1\n      pop\n        /* \"#utility.yul\":7:82   */\n      swap1\n      jump\t// out\n        /* \"#utility.yul\":88:205   */\n    tag_166:\n        /* \"#utility.yul\":197:198   */\n      0x00\n        /* \"#utility.yul\":194:195   */\n      dup1\n        /* \"#utility.yul\":187:199   */\n      revert\n        /* \"#utility.yul\":211:328   */\n    tag_167:\n        /* \"#utility.yul\":320:321   */\n      0x00\n        /* \"#utility.yul\":317:318   */\n      dup1\n        /* \"#utility.yul\":310:322   */\n      revert\n        /* \"#utility.yul\":334:411   */\n    tag_168:\n        /* \"#utility.yul\":371:378   */\n      0x00\n        /* \"#utility.yul\":400:405   */\n      dup2\n        /* \"#utility.yul\":389:405   */\n      swap1\n      pop\n        /* \"#utility.yul\":334:411   */\n      swap2\n      swap1\n      pop\n      jump\t// out\n        /* \"#utility.yul\":417:539   */\n    tag_169:\n        /* \"#utility.yul\":490:514   */\n      tag_224\n        /* \"#utility.yul\":508:513   */\n      dup2\n        /* \"#utility.yul\":490:514   */\n      tag_168\n      jump\t// in\n    tag_224:\n        /* \"#utility.yul\":483:488   */\n      dup2\n        /* \"#utility.yul\":480:515   */\n      eq\n        /* \"#utility.yul\":470:533   */\n      tag_225\n      jumpi\n        /* \"#utility.yul\":529:530   */\n      0x00\n        /* \"#utility.yul\":526:527   */\n      dup1\n        /* \"#utility.yul\":519:531   */\n      revert\n        /* \"#utility.yul\":470:533   */\n    tag_225:\n        /* \"#utility.yul\":417:539   */\n      pop\n      jump\t// out\n        /* \"#utility.yul\":545:684   */\n    tag_170:\n        /* \"#utility.yul\":591:596   */\n      0x00\n        /* \"#utility.yul\":629:635   */\n      dup2\n        /* \"#utility.yul\":616:636   */\n      calldataload\n        /* \"#utility.yul\":607:636   */\n      swap1\n      pop\n        /* \"#utility.yul\":645:678   */\n      tag_227\n        /* \"#utility.yul\":672:677   */\n      dup2\n        /* \"#utility.yul\":645:678   */\n      tag_169\n      jump\t// in\n    tag_227:\n        /* \"#utility.yul\":545:684   */\n      swap3\n      swap2\n      pop\n      pop\n      jump\t// out\n        /* \"#utility.yul\":690:1019   */\n    tag_18:\n        /* \"#utility.yul\":749:755   */\n      0x00\n        /* \"#utility.yul\":798:800   */\n      0x20\n        /* \"#utility.yul\":786:795   */\n      dup3\n        /* \"#utility.yul\":777:784   */\n      dup5\n        /* \"#utility.yul\":773:796   */\n      sub\n        /* \"#utility.yul\":769:801   */\n      slt\n        /* \"#utility.yul\":766:885   */\n      iszero\n      tag_229\n      jumpi\n        /* \"#utility.yul\":804:883   */\n      tag_230\n      tag_166\n      jump\t// in\n    tag_230:\n        /* \"#utility.yul\":766:885   */\n    tag_229:\n        /* \"#utility.yul\":924:925   */\n      0x00\n        /* \"#utility.yul\":949:1002   */\n      tag_231\n        /* \"#utility.yul\":994:1001   */\n      dup5\n        /* \"#utility.yul\":985:991   */\n      dup3\n        /* \"#utility.yul\":974:983   */\n      dup6\n        /* \"#utility.yul\":970:992   */\n      add\n        /* \"#utility.yul\":949:1002   */\n      tag_170\n      jump\t// in\n    tag_231:\n        /* \"#utility.yul\":939:1002   */\n      swap2\n      pop\n        /* \"#utility.yul\":895:1012   */\n      pop\n        /* \"#utility.yul\":690:1019   */\n      swap3\n      swap2\n      pop\n      pop\n      jump\t// out\n        /* \"#utility.yul\":1025:1143   */\n    tag_171:\n        /* \"#utility.yul\":1112:1136   */\n      tag_233\n        /* \"#utility.yul\":1130:1135   */\n      dup2\n        /* \"#utility.yul\":1112:1136   */\n      tag_168\n      jump\t// in\n    tag_233:\n        /* \"#utility.yul\":1107:1110   */\n      dup3\n        /* \"#utility.yul\":1100:1137   */\n      mstore\n        /* \"#utility.yul\":1025:1143   */\n      pop\n      pop\n      jump\t// out\n        /* \"#utility.yul\":1149:1248   */\n    tag_172:\n        /* \"#utility.yul\":1201:1207   */\n      0x00\n        /* \"#utility.yul\":1235:1240   */\n      dup2\n        /* \"#utility.yul\":1229:1241   */\n      mload\n        /* \"#utility.yul\":1219:1241   */\n      swap1\n      pop\n        /* \"#utility.yul\":1149:1248   */\n      swap2\n      swap1\n      pop\n      jump\t// out\n        /* \"#utility.yul\":1254:1423   */\n    tag_173:\n        /* \"#utility.yul\":1338:1349   */\n      0x00\n        /* \"#utility.yul\":1372:1378   */\n      dup3\n        /* \"#utility.yul\":1367:1370   */\n      dup3\n        /* \"#utility.yul\":1360:1379   */\n      mstore\n        /* \"#utility.yul\":1412:1416   */\n      0x20\n        /* \"#utility.yul\":1407:1410   */\n      dup3\n        /* \"#utility.yul\":1403:1417   */\n      add\n        /* \"#utility.yul\":1388:1417   */\n      swap1\n      pop\n        /* \"#utility.yul\":1254:1423   */\n      swap3\n      swap2\n      pop\n      pop\n      jump\t// out\n        /* \"#utility.yul\":1429:1675   */\n    tag_174:\n        /* \"#utility.yul\":1510:1511   */\n      0x00\n        /* \"#utility.yul\":1520:1633   */\n    tag_237:\n        /* \"#utility.yul\":1534:1540   */\n      dup4\n        /* \"#utility.yul\":1531:1532   */\n      dup2\n        /* \"#utility.yul\":1528:1541   */\n      lt\n        /* \"#utility.yul\":1520:1633   */\n      iszero\n      tag_239\n      jumpi\n        /* \"#utility.yul\":1619:1620   */\n      dup1\n        /* \"#utility.yul\":1614:1617   */\n      dup3\n        /* \"#utility.yul\":1610:1621   */\n      add\n        /* \"#utility.yul\":1604:1622   */\n      mload\n        /* \"#utility.yul\":1600:1601   */\n      dup2\n        /* \"#utility.yul\":1595:1598   */\n      dup5\n        /* \"#utility.yul\":1591:1602   */\n      add\n        /* \"#utility.yul\":1584:1623   */\n      mstore\n        /* \"#utility.yul\":1556:1558   */\n      0x20\n        /* \"#utility.yul\":1553:1554   */\n      dup2\n        /* \"#utility.yul\":1549:1559   */\n      add\n        /* \"#utility.yul\":1544:1559   */\n      swap1\n      pop\n        /* \"#utility.yul\":1520:1633   */\n      jump(tag_237)\n    tag_239:\n        /* \"#utility.yul\":1667:1668   */\n      0x00\n        /* \"#utility.yul\":1658:1664   */\n      dup5\n        /* \"#utility.yul\":1653:1656   */\n      dup5\n        /* \"#utility.yul\":1649:1665   */\n      add\n        /* \"#utility.yul\":1642:1669   */\n      mstore\n        /* \"#utility.yul\":1491:1675   */\n      pop\n        /* \"#utility.yul\":1429:1675   */\n      pop\n      pop\n      pop\n      jump\t// out\n        /* \"#utility.yul\":1681:1783   */\n    tag_175:\n        /* \"#utility.yul\":1722:1728   */\n      0x00\n        /* \"#utility.yul\":1773:1775   */\n      0x1f\n        /* \"#utility.yul\":1769:1776   */\n      not\n        /* \"#utility.yul\":1764:1766   */\n      0x1f\n        /* \"#utility.yul\":1757:1762   */\n      dup4\n        /* \"#utility.yul\":1753:1767   */\n      add\n        /* \"#utility.yul\":1749:1777   */\n      and\n        /* \"#utility.yul\":1739:1777   */\n      swap1\n      pop\n        /* \"#utility.yul\":1681:1783   */\n      swap2\n      swap1\n      pop\n      jump\t// out\n        /* \"#utility.yul\":1789:2166   */\n    tag_176:\n        /* \"#utility.yul\":1877:1880   */\n      0x00\n        /* \"#utility.yul\":1905:1944   */\n      tag_242\n        /* \"#utility.yul\":1938:1943   */\n      dup3\n        /* \"#utility.yul\":1905:1944   */\n      tag_172\n      jump\t// in\n    tag_242:\n        /* \"#utility.yul\":1960:2031   */\n      tag_243\n        /* \"#utility.yul\":2024:2030   */\n      dup2\n        /* \"#utility.yul\":2019:2022   */\n      dup6\n        /* \"#utility.yul\":1960:2031   */\n      tag_173\n      jump\t// in\n    tag_243:\n        /* \"#utility.yul\":1953:2031   */\n      swap4\n      pop\n        /* \"#utility.yul\":2040:2105   */\n      tag_244\n        /* \"#utility.yul\":2098:2104   */\n      dup2\n        /* \"#utility.yul\":2093:2096   */\n      dup6\n        /* \"#utility.yul\":2086:2090   */\n      0x20\n        /* \"#utility.yul\":2079:2084   */\n      dup7\n        /* \"#utility.yul\":2075:2091   */\n      add\n        /* \"#utility.yul\":2040:2105   */\n      tag_174\n      jump\t// in\n    tag_244:\n        /* \"#utility.yul\":2130:2159   */\n      tag_245\n        /* \"#utility.yul\":2152:2158   */\n      dup2\n        /* \"#utility.yul\":2130:2159   */\n      tag_175\n      jump\t// in\n    tag_245:\n        /* \"#utility.yul\":2125:2128   */\n      dup5\n        /* \"#utility.yul\":2121:2160   */\n      add\n        /* \"#utility.yul\":2114:2160   */\n      swap2\n      pop\n        /* \"#utility.yul\":1881:2166   */\n      pop\n        /* \"#utility.yul\":1789:2166   */\n      swap3\n      swap2\n      pop\n      pop\n      jump\t// out\n        /* \"#utility.yul\":2172:2298   */\n    tag_177:\n        /* \"#utility.yul\":2209:2216   */\n      0x00\n        /* \"#utility.yul\":2249:2291   */\n      0xffffffffffffffffffffffffffffffffffffffff\n        /* \"#utility.yul\":2242:2247   */\n      dup3\n        /* \"#utility.yul\":2238:2292   */\n      and\n        /* \"#utility.yul\":2227:2292   */\n      swap1\n      pop\n        /* \"#utility.yul\":2172:2298   */\n      swap2\n      swap1\n      pop\n      jump\t// out\n        /* \"#utility.yul\":2304:2400   */\n    tag_178:\n        /* \"#utility.yul\":2341:2348   */\n      0x00\n        /* \"#utility.yul\":2370:2394   */\n      tag_248\n        /* \"#utility.yul\":2388:2393   */\n      dup3\n        /* \"#utility.yul\":2370:2394   */\n      tag_177\n      jump\t// in\n    tag_248:\n        /* \"#utility.yul\":2359:2394   */\n      swap1\n      pop\n        /* \"#utility.yul\":2304:2400   */\n      swap2\n      swap1\n      pop\n      jump\t// out\n        /* \"#utility.yul\":2406:2524   */\n    tag_179:\n        /* \"#utility.yul\":2493:2517   */\n      tag_250\n        /* \"#utility.yul\":2511:2516   */\n      dup2\n        /* \"#utility.yul\":2493:2517   */\n      tag_178\n      jump\t// in\n    tag_250:\n        /* \"#utility.yul\":2488:2491   */\n      dup3\n        /* \"#utility.yul\":2481:2518   */\n      mstore\n        /* \"#utility.yul\":2406:2524   */\n      pop\n      pop\n      jump\t// out\n        /* \"#utility.yul\":2530:2620   */\n    tag_180:\n        /* \"#utility.yul\":2564:2571   */\n      0x00\n        /* \"#utility.yul\":2607:2612   */\n      dup2\n        /* \"#utility.yul\":2600:2613   */\n      iszero\n        /* \"#utility.yul\":2593:2614   */\n      iszero\n        /* \"#utility.yul\":2582:2614   */\n      swap1\n      pop\n        /* \"#utility.yul\":2530:2620   */\n      swap2\n      swap1\n      pop\n      jump\t// out\n        /* \"#utility.yul\":2626:2735   */\n    tag_181:\n        /* \"#utility.yul\":2707:2728   */\n      tag_253\n        /* \"#utility.yul\":2722:2727   */\n      dup2\n        /* \"#utility.yul\":2707:2728   */\n      tag_180\n      jump\t// in\n    tag_253:\n        /* \"#utility.yul\":2702:2705   */\n      dup3\n        /* \"#utility.yul\":2695:2729   */\n      mstore\n        /* \"#utility.yul\":2626:2735   */\n      pop\n      pop\n      jump\t// out\n        /* \"#utility.yul\":2741:3686   */\n    tag_21:\n        /* \"#utility.yul\":3008:3012   */\n      0x00\n        /* \"#utility.yul\":3046:3049   */\n      0xc0\n        /* \"#utility.yul\":3035:3044   */\n      dup3\n        /* \"#utility.yul\":3031:3050   */\n      add\n        /* \"#utility.yul\":3023:3050   */\n      swap1\n      pop\n        /* \"#utility.yul\":3060:3131   */\n      tag_255\n        /* \"#utility.yul\":3128:3129   */\n      0x00\n        /* \"#utility.yul\":3117:3126   */\n      dup4\n        /* \"#utility.yul\":3113:3130   */\n      add\n        /* \"#utility.yul\":3104:3110   */\n      dup10\n        /* \"#utility.yul\":3060:3131   */\n      tag_171\n      jump\t// in\n    tag_255:\n        /* \"#utility.yul\":3178:3187   */\n      dup2\n        /* \"#utility.yul\":3172:3176   */\n      dup2\n        /* \"#utility.yul\":3168:3188   */\n      sub\n        /* \"#utility.yul\":3163:3165   */\n      0x20\n        /* \"#utility.yul\":3152:3161   */\n      dup4\n        /* \"#utility.yul\":3148:3166   */\n      add\n        /* \"#utility.yul\":3141:3189   */\n      mstore\n        /* \"#utility.yul\":3206:3284   */\n      tag_256\n        /* \"#utility.yul\":3279:3283   */\n      dup2\n        /* \"#utility.yul\":3270:3276   */\n      dup9\n        /* \"#utility.yul\":3206:3284   */\n      tag_176\n      jump\t// in\n    tag_256:\n        /* \"#utility.yul\":3198:3284   */\n      swap1\n      pop\n        /* \"#utility.yul\":3331:3340   */\n      dup2\n        /* \"#utility.yul\":3325:3329   */\n      dup2\n        /* \"#utility.yul\":3321:3341   */\n      sub\n        /* \"#utility.yul\":3316:3318   */\n      0x40\n        /* \"#utility.yul\":3305:3314   */\n      dup4\n        /* \"#utility.yul\":3301:3319   */\n      add\n        /* \"#utility.yul\":3294:3342   */\n      mstore\n        /* \"#utility.yul\":3359:3437   */\n      tag_257\n        /* \"#utility.yul\":3432:3436   */\n      dup2\n        /* \"#utility.yul\":3423:3429   */\n      dup8\n        /* \"#utility.yul\":3359:3437   */\n      tag_176\n      jump\t// in\n    tag_257:\n        /* \"#utility.yul\":3351:3437   */\n      swap1\n      pop\n        /* \"#utility.yul\":3447:3519   */\n      tag_258\n        /* \"#utility.yul\":3515:3517   */\n      0x60\n        /* \"#utility.yul\":3504:3513   */\n      dup4\n        /* \"#utility.yul\":3500:3518   */\n      add\n        /* \"#utility.yul\":3491:3497   */\n      dup7\n        /* \"#utility.yul\":3447:3519   */\n      tag_171\n      jump\t// in\n    tag_258:\n        /* \"#utility.yul\":3529:3602   */\n      tag_259\n        /* \"#utility.yul\":3597:3600   */\n      0x80\n        /* \"#utility.yul\":3586:3595   */\n      dup4\n        /* \"#utility.yul\":3582:3601   */\n      add\n        /* \"#utility.yul\":3573:3579   */\n      dup6\n        /* \"#utility.yul\":3529:3602   */\n      tag_179\n      jump\t// in\n    tag_259:\n        /* \"#utility.yul\":3612:3679   */\n      tag_260\n        /* \"#utility.yul\":3674:3677   */\n      0xa0\n        /* \"#utility.yul\":3663:3672   */\n      dup4\n        /* \"#utility.yul\":3659:3678   */\n      add\n        /* \"#utility.yul\":3650:3656   */\n      dup5\n        /* \"#utility.yul\":3612:3679   */\n      tag_181\n      jump\t// in\n    tag_260:\n        /* \"#utility.yul\":2741:3686   */\n      swap8\n      swap7\n      pop\n      pop\n      pop\n      pop\n      pop\n      pop\n      pop\n      jump\t// out\n        /* \"#utility.yul\":3692:4166   */\n    tag_24:\n        /* \"#utility.yul\":3760:3766   */\n      0x00\n        /* \"#utility.yul\":3768:3774   */\n      dup1\n        /* \"#utility.yul\":3817:3819   */\n      0x40\n        /* \"#utility.yul\":3805:3814   */\n      dup4\n        /* \"#utility.yul\":3796:3803   */\n      dup6\n        /* \"#utility.yul\":3792:3815   */\n      sub\n        /* \"#utility.yul\":3788:3820   */\n      slt\n        /* \"#utility.yul\":3785:3904   */\n      iszero\n      tag_262\n      jumpi\n        /* \"#utility.yul\":3823:3902   */\n      tag_263\n      tag_166\n      jump\t// in\n    tag_263:\n        /* \"#utility.yul\":3785:3904   */\n    tag_262:\n        /* \"#utility.yul\":3943:3944   */\n      0x00\n        /* \"#utility.yul\":3968:4021   */\n      tag_264\n        /* \"#utility.yul\":4013:4020   */\n      dup6\n        /* \"#utility.yul\":4004:4010   */\n      dup3\n        /* \"#utility.yul\":3993:4002   */\n      dup7\n        /* \"#utility.yul\":3989:4011   */\n      add\n        /* \"#utility.yul\":3968:4021   */\n      tag_170\n      jump\t// in\n    tag_264:\n        /* \"#utility.yul\":3958:4021   */\n      swap3\n      pop\n        /* \"#utility.yul\":3914:4031   */\n      pop\n        /* \"#utility.yul\":4070:4072   */\n      0x20\n        /* \"#utility.yul\":4096:4149   */\n      tag_265\n        /* \"#utility.yul\":4141:4148   */\n      dup6\n        /* \"#utility.yul\":4132:4138   */\n      dup3\n        /* \"#utility.yul\":4121:4130   */\n      dup7\n        /* \"#utility.yul\":4117:4139   */\n      add\n        /* \"#utility.yul\":4096:4149   */\n      tag_170\n      jump\t// in\n    tag_265:\n        /* \"#utility.yul\":4086:4149   */\n      swap2\n      pop\n        /* \"#utility.yul\":4041:4159   */\n      pop\n        /* \"#utility.yul\":3692:4166   */\n      swap3\n      pop\n      swap3\n      swap1\n      pop\n      jump\t// out\n        /* \"#utility.yul\":4172:4907   */\n    tag_30:\n        /* \"#utility.yul\":4389:4393   */\n      0x00\n        /* \"#utility.yul\":4427:4430   */\n      0x80\n        /* \"#utility.yul\":4416:4425   */\n      dup3\n        /* \"#utility.yul\":4412:4431   */\n      add\n        /* \"#utility.yul\":4404:4431   */\n      swap1\n      pop\n        /* \"#utility.yul\":4477:4486   */\n      dup2\n        /* \"#utility.yul\":4471:4475   */\n      dup2\n        /* \"#utility.yul\":4467:4487   */\n      sub\n        /* \"#utility.yul\":4463:4464   */\n      0x00\n        /* \"#utility.yul\":4452:4461   */\n      dup4\n        /* \"#utility.yul\":4448:4465   */\n      add\n        /* \"#utility.yul\":4441:4488   */\n      mstore\n        /* \"#utility.yul\":4505:4583   */\n      tag_267\n        /* \"#utility.yul\":4578:4582   */\n      dup2\n        /* \"#utility.yul\":4569:4575   */\n      dup8\n        /* \"#utility.yul\":4505:4583   */\n      tag_176\n      jump\t// in\n    tag_267:\n        /* \"#utility.yul\":4497:4583   */\n      swap1\n      pop\n        /* \"#utility.yul\":4630:4639   */\n      dup2\n        /* \"#utility.yul\":4624:4628   */\n      dup2\n        /* \"#utility.yul\":4620:4640   */\n      sub\n        /* \"#utility.yul\":4615:4617   */\n      0x20\n        /* \"#utility.yul\":4604:4613   */\n      dup4\n        /* \"#utility.yul\":4600:4618   */\n      add\n        /* \"#utility.yul\":4593:4641   */\n      mstore\n        /* \"#utility.yul\":4658:4736   */\n      tag_268\n        /* \"#utility.yul\":4731:4735   */\n      dup2\n        /* \"#utility.yul\":4722:4728   */\n      dup7\n        /* \"#utility.yul\":4658:4736   */\n      tag_176\n      jump\t// in\n    tag_268:\n        /* \"#utility.yul\":4650:4736   */\n      swap1\n      pop\n        /* \"#utility.yul\":4746:4818   */\n      tag_269\n        /* \"#utility.yul\":4814:4816   */\n      0x40\n        /* \"#utility.yul\":4803:4812   */\n      dup4\n        /* \"#utility.yul\":4799:4817   */\n      add\n        /* \"#utility.yul\":4790:4796   */\n      dup6\n        /* \"#utility.yul\":4746:4818   */\n      tag_171\n      jump\t// in\n    tag_269:\n        /* \"#utility.yul\":4828:4900   */\n      tag_270\n        /* \"#utility.yul\":4896:4898   */\n      0x60\n        /* \"#utility.yul\":4885:4894   */\n      dup4\n        /* \"#utility.yul\":4881:4899   */\n      add\n        /* \"#utility.yul\":4872:4878   */\n      dup5\n        /* \"#utility.yul\":4828:4900   */\n      tag_179\n      jump\t// in\n    tag_270:\n        /* \"#utility.yul\":4172:4907   */\n      swap6\n      swap5\n      pop\n      pop\n      pop\n      pop\n      pop\n      jump\t// out\n        /* \"#utility.yul\":4913:5135   */\n    tag_34:\n        /* \"#utility.yul\":5006:5010   */\n      0x00\n        /* \"#utility.yul\":5044:5046   */\n      0x20\n        /* \"#utility.yul\":5033:5042   */\n      dup3\n        /* \"#utility.yul\":5029:5047   */\n      add\n        /* \"#utility.yul\":5021:5047   */\n      swap1\n      pop\n        /* \"#utility.yul\":5057:5128   */\n      tag_272\n        /* \"#utility.yul\":5125:5126   */\n      0x00\n        /* \"#utility.yul\":5114:5123   */\n      dup4\n        /* \"#utility.yul\":5110:5127   */\n      add\n        /* \"#utility.yul\":5101:5107   */\n      dup5\n        /* \"#utility.yul\":5057:5128   */\n      tag_171\n      jump\t// in\n    tag_272:\n        /* \"#utility.yul\":4913:5135   */\n      swap3\n      swap2\n      pop\n      pop\n      jump\t// out\n        /* \"#utility.yul\":5141:5473   */\n    tag_39:\n        /* \"#utility.yul\":5262:5266   */\n      0x00\n        /* \"#utility.yul\":5300:5302   */\n      0x40\n        /* \"#utility.yul\":5289:5298   */\n      dup3\n        /* \"#utility.yul\":5285:5303   */\n      add\n        /* \"#utility.yul\":5277:5303   */\n      swap1\n      pop\n        /* \"#utility.yul\":5313:5384   */\n      tag_274\n        /* \"#utility.yul\":5381:5382   */\n      0x00\n        /* \"#utility.yul\":5370:5379   */\n      dup4\n        /* \"#utility.yul\":5366:5383   */\n      add\n        /* \"#utility.yul\":5357:5363   */\n      dup6\n        /* \"#utility.yul\":5313:5384   */\n      tag_171\n      jump\t// in\n    tag_274:\n        /* \"#utility.yul\":5394:5466   */\n      tag_275\n        /* \"#utility.yul\":5462:5464   */\n      0x20\n        /* \"#utility.yul\":5451:5460   */\n      dup4\n        /* \"#utility.yul\":5447:5465   */\n      add\n        /* \"#utility.yul\":5438:5444   */\n      dup5\n        /* \"#utility.yul\":5394:5466   */\n      tag_171\n      jump\t// in\n    tag_275:\n        /* \"#utility.yul\":5141:5473   */\n      swap4\n      swap3\n      pop\n      pop\n      pop\n      jump\t// out\n        /* \"#utility.yul\":5479:6404   */\n    tag_44:\n        /* \"#utility.yul\":5738:5742   */\n      0x00\n        /* \"#utility.yul\":5776:5779   */\n      0xa0\n        /* \"#utility.yul\":5765:5774   */\n      dup3\n        /* \"#utility.yul\":5761:5780   */\n      add\n        /* \"#utility.yul\":5753:5780   */\n      swap1\n      pop\n        /* \"#utility.yul\":5790:5861   */\n      tag_277\n        /* \"#utility.yul\":5858:5859   */\n      0x00\n        /* \"#utility.yul\":5847:5856   */\n      dup4\n        /* \"#utility.yul\":5843:5860   */\n      add\n        /* \"#utility.yul\":5834:5840   */\n      dup9\n        /* \"#utility.yul\":5790:5861   */\n      tag_171\n      jump\t// in\n    tag_277:\n        /* \"#utility.yul\":5908:5917   */\n      dup2\n        /* \"#utility.yul\":5902:5906   */\n      dup2\n        /* \"#utility.yul\":5898:5918   */\n      sub\n        /* \"#utility.yul\":5893:5895   */\n      0x20\n        /* \"#utility.yul\":5882:5891   */\n      dup4\n        /* \"#utility.yul\":5878:5896   */\n      add\n        /* \"#utility.yul\":5871:5919   */\n      mstore\n        /* \"#utility.yul\":5936:6014   */\n      tag_278\n        /* \"#utility.yul\":6009:6013   */\n      dup2\n        /* \"#utility.yul\":6000:6006   */\n      dup8\n        /* \"#utility.yul\":5936:6014   */\n      tag_176\n      jump\t// in\n    tag_278:\n        /* \"#utility.yul\":5928:6014   */\n      swap1\n      pop\n        /* \"#utility.yul\":6061:6070   */\n      dup2\n        /* \"#utility.yul\":6055:6059   */\n      dup2\n        /* \"#utility.yul\":6051:6071   */\n      sub\n        /* \"#utility.yul\":6046:6048   */\n      0x40\n        /* \"#utility.yul\":6035:6044   */\n      dup4\n        /* \"#utility.yul\":6031:6049   */\n      add\n        /* \"#utility.yul\":6024:6072   */\n      mstore\n        /* \"#utility.yul\":6089:6167   */\n      tag_279\n        /* \"#utility.yul\":6162:6166   */\n      dup2\n        /* \"#utility.yul\":6153:6159   */\n      dup7\n        /* \"#utility.yul\":6089:6167   */\n      tag_176\n      jump\t// in\n    tag_279:\n        /* \"#utility.yul\":6081:6167   */\n      swap1\n      pop\n        /* \"#utility.yul\":6214:6223   */\n      dup2\n        /* \"#utility.yul\":6208:6212   */\n      dup2\n        /* \"#utility.yul\":6204:6224   */\n      sub\n        /* \"#utility.yul\":6199:6201   */\n      0x60\n        /* \"#utility.yul\":6188:6197   */\n      dup4\n        /* \"#utility.yul\":6184:6202   */\n      add\n        /* \"#utility.yul\":6177:6225   */\n      mstore\n        /* \"#utility.yul\":6242:6320   */\n      tag_280\n        /* \"#utility.yul\":6315:6319   */\n      dup2\n        /* \"#utility.yul\":6306:6312   */\n      dup6\n        /* \"#utility.yul\":6242:6320   */\n      tag_176\n      jump\t// in\n    tag_280:\n        /* \"#utility.yul\":6234:6320   */\n      swap1\n      pop\n        /* \"#utility.yul\":6330:6397   */\n      tag_281\n        /* \"#utility.yul\":6392:6395   */\n      0x80\n        /* \"#utility.yul\":6381:6390   */\n      dup4\n        /* \"#utility.yul\":6377:6396   */\n      add\n        /* \"#utility.yul\":6368:6374   */\n      dup5\n        /* \"#utility.yul\":6330:6397   */\n      tag_181\n      jump\t// in\n    tag_281:\n        /* \"#utility.yul\":5479:6404   */\n      swap7\n      swap6\n      pop\n      pop\n      pop\n      pop\n      pop\n      pop\n      jump\t// out\n        /* \"#utility.yul\":6410:6527   */\n    tag_182:\n        /* \"#utility.yul\":6519:6520   */\n      0x00\n        /* \"#utility.yul\":6516:6517   */\n      dup1\n        /* \"#utility.yul\":6509:6521   */\n      revert\n        /* \"#utility.yul\":6533:6650   */\n    tag_183:\n        /* \"#utility.yul\":6642:6643   */\n      0x00\n        /* \"#utility.yul\":6639:6640   */\n      dup1\n        /* \"#utility.yul\":6632:6644   */\n      revert\n        /* \"#utility.yul\":6656:6836   */\n    tag_184:\n        /* \"#utility.yul\":6704:6781   */\n      0x4e487b7100000000000000000000000000000000000000000000000000000000\n        /* \"#utility.yul\":6701:6702   */\n      0x00\n        /* \"#utility.yul\":6694:6782   */\n      mstore\n        /* \"#utility.yul\":6801:6805   */\n      0x41\n        /* \"#utility.yul\":6798:6799   */\n      0x04\n        /* \"#utility.yul\":6791:6806   */\n      mstore\n        /* \"#utility.yul\":6825:6829   */\n      0x24\n        /* \"#utility.yul\":6822:6823   */\n      0x00\n        /* \"#utility.yul\":6815:6830   */\n      revert\n        /* \"#utility.yul\":6842:7123   */\n    tag_185:\n        /* \"#utility.yul\":6925:6952   */\n      tag_286\n        /* \"#utility.yul\":6947:6951   */\n      dup3\n        /* \"#utility.yul\":6925:6952   */\n      tag_175\n      jump\t// in\n    tag_286:\n        /* \"#utility.yul\":6917:6923   */\n      dup2\n        /* \"#utility.yul\":6913:6953   */\n      add\n        /* \"#utility.yul\":7055:7061   */\n      dup2\n        /* \"#utility.yul\":7043:7053   */\n      dup2\n        /* \"#utility.yul\":7040:7062   */\n      lt\n        /* \"#utility.yul\":7019:7037   */\n      0xffffffffffffffff\n        /* \"#utility.yul\":7007:7017   */\n      dup3\n        /* \"#utility.yul\":7004:7038   */\n      gt\n        /* \"#utility.yul\":7001:7063   */\n      or\n        /* \"#utility.yul\":6998:7086   */\n      iszero\n      tag_287\n      jumpi\n        /* \"#utility.yul\":7066:7084   */\n      tag_288\n      tag_184\n      jump\t// in\n    tag_288:\n        /* \"#utility.yul\":6998:7086   */\n    tag_287:\n        /* \"#utility.yul\":7106:7116   */\n      dup1\n        /* \"#utility.yul\":7102:7104   */\n      0x40\n        /* \"#utility.yul\":7095:7117   */\n      mstore\n        /* \"#utility.yul\":6885:7123   */\n      pop\n        /* \"#utility.yul\":6842:7123   */\n      pop\n      pop\n      jump\t// out\n        /* \"#utility.yul\":7129:7258   */\n    tag_186:\n        /* \"#utility.yul\":7163:7169   */\n      0x00\n        /* \"#utility.yul\":7190:7210   */\n      tag_290\n      tag_165\n      jump\t// in\n    tag_290:\n        /* \"#utility.yul\":7180:7210   */\n      swap1\n      pop\n        /* \"#utility.yul\":7219:7252   */\n      tag_291\n        /* \"#utility.yul\":7247:7251   */\n      dup3\n        /* \"#utility.yul\":7239:7245   */\n      dup3\n        /* \"#utility.yul\":7219:7252   */\n      tag_185\n      jump\t// in\n    tag_291:\n        /* \"#utility.yul\":7129:7258   */\n      swap2\n      swap1\n      pop\n      jump\t// out\n        /* \"#utility.yul\":7264:7572   */\n    tag_187:\n        /* \"#utility.yul\":7326:7330   */\n      0x00\n        /* \"#utility.yul\":7416:7434   */\n      0xffffffffffffffff\n        /* \"#utility.yul\":7408:7414   */\n      dup3\n        /* \"#utility.yul\":7405:7435   */\n      gt\n        /* \"#utility.yul\":7402:7458   */\n      iszero\n      tag_293\n      jumpi\n        /* \"#utility.yul\":7438:7456   */\n      tag_294\n      tag_184\n      jump\t// in\n    tag_294:\n        /* \"#utility.yul\":7402:7458   */\n    tag_293:\n        /* \"#utility.yul\":7476:7505   */\n      tag_295\n        /* \"#utility.yul\":7498:7504   */\n      dup3\n        /* \"#utility.yul\":7476:7505   */\n      tag_175\n      jump\t// in\n    tag_295:\n        /* \"#utility.yul\":7468:7505   */\n      swap1\n      pop\n        /* \"#utility.yul\":7560:7564   */\n      0x20\n        /* \"#utility.yul\":7554:7558   */\n      dup2\n        /* \"#utility.yul\":7550:7565   */\n      add\n        /* \"#utility.yul\":7542:7565   */\n      swap1\n      pop\n        /* \"#utility.yul\":7264:7572   */\n      swap2\n      swap1\n      pop\n      jump\t// out\n        /* \"#utility.yul\":7578:7724   */\n    tag_188:\n        /* \"#utility.yul\":7675:7681   */\n      dup3\n        /* \"#utility.yul\":7670:7673   */\n      dup2\n        /* \"#utility.yul\":7665:7668   */\n      dup4\n        /* \"#utility.yul\":7652:7682   */\n      calldatacopy\n        /* \"#utility.yul\":7716:7717   */\n      0x00\n        /* \"#utility.yul\":7707:7713   */\n      dup4\n        /* \"#utility.yul\":7702:7705   */\n      dup4\n        /* \"#utility.yul\":7698:7714   */\n      add\n        /* \"#utility.yul\":7691:7718   */\n      mstore\n        /* \"#utility.yul\":7578:7724   */\n      pop\n      pop\n      pop\n      jump\t// out\n        /* \"#utility.yul\":7730:8155   */\n    tag_189:\n        /* \"#utility.yul\":7808:7813   */\n      0x00\n        /* \"#utility.yul\":7833:7899   */\n      tag_298\n        /* \"#utility.yul\":7849:7898   */\n      tag_299\n        /* \"#utility.yul\":7891:7897   */\n      dup5\n        /* \"#utility.yul\":7849:7898   */\n      tag_187\n      jump\t// in\n    tag_299:\n        /* \"#utility.yul\":7833:7899   */\n      tag_186\n      jump\t// in\n    tag_298:\n        /* \"#utility.yul\":7824:7899   */\n      swap1\n      pop\n        /* \"#utility.yul\":7922:7928   */\n      dup3\n        /* \"#utility.yul\":7915:7920   */\n      dup2\n        /* \"#utility.yul\":7908:7929   */\n      mstore\n        /* \"#utility.yul\":7960:7964   */\n      0x20\n        /* \"#utility.yul\":7953:7958   */\n      dup2\n        /* \"#utility.yul\":7949:7965   */\n      add\n        /* \"#utility.yul\":7998:8001   */\n      dup5\n        /* \"#utility.yul\":7989:7995   */\n      dup5\n        /* \"#utility.yul\":7984:7987   */\n      dup5\n        /* \"#utility.yul\":7980:7996   */\n      add\n        /* \"#utility.yul\":7977:8002   */\n      gt\n        /* \"#utility.yul\":7974:8086   */\n      iszero\n      tag_300\n      jumpi\n        /* \"#utility.yul\":8005:8084   */\n      tag_301\n      tag_183\n      jump\t// in\n    tag_301:\n        /* \"#utility.yul\":7974:8086   */\n    tag_300:\n        /* \"#utility.yul\":8095:8149   */\n      tag_302\n        /* \"#utility.yul\":8142:8148   */\n      dup5\n        /* \"#utility.yul\":8137:8140   */\n      dup3\n        /* \"#utility.yul\":8132:8135   */\n      dup6\n        /* \"#utility.yul\":8095:8149   */\n      tag_188\n      jump\t// in\n    tag_302:\n        /* \"#utility.yul\":7814:8155   */\n      pop\n        /* \"#utility.yul\":7730:8155   */\n      swap4\n      swap3\n      pop\n      pop\n      pop\n      jump\t// out\n        /* \"#utility.yul\":8175:8515   */\n    tag_190:\n        /* \"#utility.yul\":8231:8236   */\n      0x00\n        /* \"#utility.yul\":8280:8283   */\n      dup3\n        /* \"#utility.yul\":8273:8277   */\n      0x1f\n        /* \"#utility.yul\":8265:8271   */\n      dup4\n        /* \"#utility.yul\":8261:8278   */\n      add\n        /* \"#utility.yul\":8257:8284   */\n      slt\n        /* \"#utility.yul\":8247:8369   */\n      tag_304\n      jumpi\n        /* \"#utility.yul\":8288:8367   */\n      tag_305\n      tag_182\n      jump\t// in\n    tag_305:\n        /* \"#utility.yul\":8247:8369   */\n    tag_304:\n        /* \"#utility.yul\":8405:8411   */\n      dup2\n        /* \"#utility.yul\":8392:8412   */\n      calldataload\n        /* \"#utility.yul\":8430:8509   */\n      tag_306\n        /* \"#utility.yul\":8505:8508   */\n      dup5\n        /* \"#utility.yul\":8497:8503   */\n      dup3\n        /* \"#utility.yul\":8490:8494   */\n      0x20\n        /* \"#utility.yul\":8482:8488   */\n      dup7\n        /* \"#utility.yul\":8478:8495   */\n      add\n        /* \"#utility.yul\":8430:8509   */\n      tag_189\n      jump\t// in\n    tag_306:\n        /* \"#utility.yul\":8421:8509   */\n      swap2\n      pop\n        /* \"#utility.yul\":8237:8515   */\n      pop\n        /* \"#utility.yul\":8175:8515   */\n      swap3\n      swap2\n      pop\n      pop\n      jump\t// out\n        /* \"#utility.yul\":8521:9500   */\n    tag_47:\n        /* \"#utility.yul\":8618:8624   */\n      0x00\n        /* \"#utility.yul\":8626:8632   */\n      dup1\n        /* \"#utility.yul\":8634:8640   */\n      0x00\n        /* \"#utility.yul\":8683:8685   */\n      0x60\n        /* \"#utility.yul\":8671:8680   */\n      dup5\n        /* \"#utility.yul\":8662:8669   */\n      dup7\n        /* \"#utility.yul\":8658:8681   */\n      sub\n        /* \"#utility.yul\":8654:8686   */\n      slt\n        /* \"#utility.yul\":8651:8770   */\n      iszero\n      tag_308\n      jumpi\n        /* \"#utility.yul\":8689:8768   */\n      tag_309\n      tag_166\n      jump\t// in\n    tag_309:\n        /* \"#utility.yul\":8651:8770   */\n    tag_308:\n        /* \"#utility.yul\":8837:8838   */\n      0x00\n        /* \"#utility.yul\":8826:8835   */\n      dup5\n        /* \"#utility.yul\":8822:8839   */\n      add\n        /* \"#utility.yul\":8809:8840   */\n      calldataload\n        /* \"#utility.yul\":8867:8885   */\n      0xffffffffffffffff\n        /* \"#utility.yul\":8859:8865   */\n      dup2\n        /* \"#utility.yul\":8856:8886   */\n      gt\n        /* \"#utility.yul\":8853:8970   */\n      iszero\n      tag_310\n      jumpi\n        /* \"#utility.yul\":8889:8968   */\n      tag_311\n      tag_167\n      jump\t// in\n    tag_311:\n        /* \"#utility.yul\":8853:8970   */\n    tag_310:\n        /* \"#utility.yul\":8994:9057   */\n      tag_312\n        /* \"#utility.yul\":9049:9056   */\n      dup7\n        /* \"#utility.yul\":9040:9046   */\n      dup3\n        /* \"#utility.yul\":9029:9038   */\n      dup8\n        /* \"#utility.yul\":9025:9047   */\n      add\n        /* \"#utility.yul\":8994:9057   */\n      tag_190\n      jump\t// in\n    tag_312:\n        /* \"#utility.yul\":8984:9057   */\n      swap4\n      pop\n        /* \"#utility.yul\":8780:9067   */\n      pop\n        /* \"#utility.yul\":9134:9136   */\n      0x20\n        /* \"#utility.yul\":9123:9132   */\n      dup5\n        /* \"#utility.yul\":9119:9137   */\n      add\n        /* \"#utility.yul\":9106:9138   */\n      calldataload\n        /* \"#utility.yul\":9165:9183   */\n      0xffffffffffffffff\n        /* \"#utility.yul\":9157:9163   */\n      dup2\n        /* \"#utility.yul\":9154:9184   */\n      gt\n        /* \"#utility.yul\":9151:9268   */\n      iszero\n      tag_313\n      jumpi\n        /* \"#utility.yul\":9187:9266   */\n      tag_314\n      tag_167\n      jump\t// in\n    tag_314:\n        /* \"#utility.yul\":9151:9268   */\n    tag_313:\n        /* \"#utility.yul\":9292:9355   */\n      tag_315\n        /* \"#utility.yul\":9347:9354   */\n      dup7\n        /* \"#utility.yul\":9338:9344   */\n      dup3\n        /* \"#utility.yul\":9327:9336   */\n      dup8\n        /* \"#utility.yul\":9323:9345   */\n      add\n        /* \"#utility.yul\":9292:9355   */\n      tag_190\n      jump\t// in\n    tag_315:\n        /* \"#utility.yul\":9282:9355   */\n      swap3\n      pop\n        /* \"#utility.yul\":9077:9365   */\n      pop\n        /* \"#utility.yul\":9404:9406   */\n      0x40\n        /* \"#utility.yul\":9430:9483   */\n      tag_316\n        /* \"#utility.yul\":9475:9482   */\n      dup7\n        /* \"#utility.yul\":9466:9472   */\n      dup3\n        /* \"#utility.yul\":9455:9464   */\n      dup8\n        /* \"#utility.yul\":9451:9473   */\n      add\n        /* \"#utility.yul\":9430:9483   */\n      tag_170\n      jump\t// in\n    tag_316:\n        /* \"#utility.yul\":9420:9483   */\n      swap2\n      pop\n        /* \"#utility.yul\":9375:9493   */\n      pop\n        /* \"#utility.yul\":8521:9500   */\n      swap3\n      pop\n      swap3\n      pop\n      swap3\n      jump\t// out\n        /* \"#utility.yul\":9506:10665   */\n    tag_55:\n        /* \"#utility.yul\":9613:9619   */\n      0x00\n        /* \"#utility.yul\":9621:9627   */\n      dup1\n        /* \"#utility.yul\":9629:9635   */\n      0x00\n        /* \"#utility.yul\":9678:9680   */\n      0x60\n        /* \"#utility.yul\":9666:9675   */\n      dup5\n        /* \"#utility.yul\":9657:9664   */\n      dup7\n        /* \"#utility.yul\":9653:9676   */\n      sub\n        /* \"#utility.yul\":9649:9681   */\n      slt\n        /* \"#utility.yul\":9646:9765   */\n      iszero\n      tag_318\n      jumpi\n        /* \"#utility.yul\":9684:9763   */\n      tag_319\n      tag_166\n      jump\t// in\n    tag_319:\n        /* \"#utility.yul\":9646:9765   */\n    tag_318:\n        /* \"#utility.yul\":9832:9833   */\n      0x00\n        /* \"#utility.yul\":9821:9830   */\n      dup5\n        /* \"#utility.yul\":9817:9834   */\n      add\n        /* \"#utility.yul\":9804:9835   */\n      calldataload\n        /* \"#utility.yul\":9862:9880   */\n      0xffffffffffffffff\n        /* \"#utility.yul\":9854:9860   */\n      dup2\n        /* \"#utility.yul\":9851:9881   */\n      gt\n        /* \"#utility.yul\":9848:9965   */\n      iszero\n      tag_320\n      jumpi\n        /* \"#utility.yul\":9884:9963   */\n      tag_321\n      tag_167\n      jump\t// in\n    tag_321:\n        /* \"#utility.yul\":9848:9965   */\n    tag_320:\n        /* \"#utility.yul\":9989:10052   */\n      tag_322\n        /* \"#utility.yul\":10044:10051   */\n      dup7\n        /* \"#utility.yul\":10035:10041   */\n      dup3\n        /* \"#utility.yul\":10024:10033   */\n      dup8\n        /* \"#utility.yul\":10020:10042   */\n      add\n        /* \"#utility.yul\":9989:10052   */\n      tag_190\n      jump\t// in\n    tag_322:\n        /* \"#utility.yul\":9979:10052   */\n      swap4\n      pop\n        /* \"#utility.yul\":9775:10062   */\n      pop\n        /* \"#utility.yul\":10129:10131   */\n      0x20\n        /* \"#utility.yul\":10118:10127   */\n      dup5\n        /* \"#utility.yul\":10114:10132   */\n      add\n        /* \"#utility.yul\":10101:10133   */\n      calldataload\n        /* \"#utility.yul\":10160:10178   */\n      0xffffffffffffffff\n        /* \"#utility.yul\":10152:10158   */\n      dup2\n        /* \"#utility.yul\":10149:10179   */\n      gt\n        /* \"#utility.yul\":10146:10263   */\n      iszero\n      tag_323\n      jumpi\n        /* \"#utility.yul\":10182:10261   */\n      tag_324\n      tag_167\n      jump\t// in\n    tag_324:\n        /* \"#utility.yul\":10146:10263   */\n    tag_323:\n        /* \"#utility.yul\":10287:10350   */\n      tag_325\n        /* \"#utility.yul\":10342:10349   */\n      dup7\n        /* \"#utility.yul\":10333:10339   */\n      dup3\n        /* \"#utility.yul\":10322:10331   */\n      dup8\n        /* \"#utility.yul\":10318:10340   */\n      add\n        /* \"#utility.yul\":10287:10350   */\n      tag_190\n      jump\t// in\n    tag_325:\n        /* \"#utility.yul\":10277:10350   */\n      swap3\n      pop\n        /* \"#utility.yul\":10072:10360   */\n      pop\n        /* \"#utility.yul\":10427:10429   */\n      0x40\n        /* \"#utility.yul\":10416:10425   */\n      dup5\n        /* \"#utility.yul\":10412:10430   */\n      add\n        /* \"#utility.yul\":10399:10431   */\n      calldataload\n        /* \"#utility.yul\":10458:10476   */\n      0xffffffffffffffff\n        /* \"#utility.yul\":10450:10456   */\n      dup2\n        /* \"#utility.yul\":10447:10477   */\n      gt\n        /* \"#utility.yul\":10444:10561   */\n      iszero\n      tag_326\n      jumpi\n        /* \"#utility.yul\":10480:10559   */\n      tag_327\n      tag_167\n      jump\t// in\n    tag_327:\n        /* \"#utility.yul\":10444:10561   */\n    tag_326:\n        /* \"#utility.yul\":10585:10648   */\n      tag_328\n        /* \"#utility.yul\":10640:10647   */\n      dup7\n        /* \"#utility.yul\":10631:10637   */\n      dup3\n        /* \"#utility.yul\":10620:10629   */\n      dup8\n        /* \"#utility.yul\":10616:10638   */\n      add\n        /* \"#utility.yul\":10585:10648   */\n      tag_190\n      jump\t// in\n    tag_328:\n        /* \"#utility.yul\":10575:10648   */\n      swap2\n      pop\n        /* \"#utility.yul\":10370:10658   */\n      pop\n        /* \"#utility.yul\":9506:10665   */\n      swap3\n      pop\n      swap3\n      pop\n      swap3\n      jump\t// out\n        /* \"#utility.yul\":10671:11386   */\n    tag_61:\n        /* \"#utility.yul\":10880:10884   */\n      0x00\n        /* \"#utility.yul\":10918:10920   */\n      0x60\n        /* \"#utility.yul\":10907:10916   */\n      dup3\n        /* \"#utility.yul\":10903:10921   */\n      add\n        /* \"#utility.yul\":10895:10921   */\n      swap1\n      pop\n        /* \"#utility.yul\":10967:10976   */\n      dup2\n        /* \"#utility.yul\":10961:10965   */\n      dup2\n        /* \"#utility.yul\":10957:10977   */\n      sub\n        /* \"#utility.yul\":10953:10954   */\n      0x00\n        /* \"#utility.yul\":10942:10951   */\n      dup4\n        /* \"#utility.yul\":10938:10955   */\n      add\n        /* \"#utility.yul\":10931:10978   */\n      mstore\n        /* \"#utility.yul\":10995:11073   */\n      tag_330\n        /* \"#utility.yul\":11068:11072   */\n      dup2\n        /* \"#utility.yul\":11059:11065   */\n      dup7\n        /* \"#utility.yul\":10995:11073   */\n      tag_176\n      jump\t// in\n    tag_330:\n        /* \"#utility.yul\":10987:11073   */\n      swap1\n      pop\n        /* \"#utility.yul\":11120:11129   */\n      dup2\n        /* \"#utility.yul\":11114:11118   */\n      dup2\n        /* \"#utility.yul\":11110:11130   */\n      sub\n        /* \"#utility.yul\":11105:11107   */\n      0x20\n        /* \"#utility.yul\":11094:11103   */\n      dup4\n        /* \"#utility.yul\":11090:11108   */\n      add\n        /* \"#utility.yul\":11083:11131   */\n      mstore\n        /* \"#utility.yul\":11148:11226   */\n      tag_331\n        /* \"#utility.yul\":11221:11225   */\n      dup2\n        /* \"#utility.yul\":11212:11218   */\n      dup6\n        /* \"#utility.yul\":11148:11226   */\n      tag_176\n      jump\t// in\n    tag_331:\n        /* \"#utility.yul\":11140:11226   */\n      swap1\n      pop\n        /* \"#utility.yul\":11273:11282   */\n      dup2\n        /* \"#utility.yul\":11267:11271   */\n      dup2\n        /* \"#utility.yul\":11263:11283   */\n      sub\n        /* \"#utility.yul\":11258:11260   */\n      0x40\n        /* \"#utility.yul\":11247:11256   */\n      dup4\n        /* \"#utility.yul\":11243:11261   */\n      add\n        /* \"#utility.yul\":11236:11284   */\n      mstore\n        /* \"#utility.yul\":11301:11379   */\n      tag_332\n        /* \"#utility.yul\":11374:11378   */\n      dup2\n        /* \"#utility.yul\":11365:11371   */\n      dup5\n        /* \"#utility.yul\":11301:11379   */\n      tag_176\n      jump\t// in\n    tag_332:\n        /* \"#utility.yul\":11293:11379   */\n      swap1\n      pop\n        /* \"#utility.yul\":10671:11386   */\n      swap5\n      swap4\n      pop\n      pop\n      pop\n      pop\n      jump\t// out\n        /* \"#utility.yul\":11392:11705   */\n    tag_66:\n        /* \"#utility.yul\":11505:11509   */\n      0x00\n        /* \"#utility.yul\":11543:11545   */\n      0x20\n        /* \"#utility.yul\":11532:11541   */\n      dup3\n        /* \"#utility.yul\":11528:11546   */\n      add\n        /* \"#utility.yul\":11520:11546   */\n      swap1\n      pop\n        /* \"#utility.yul\":11592:11601   */\n      dup2\n        /* \"#utility.yul\":11586:11590   */\n      dup2\n        /* \"#utility.yul\":11582:11602   */\n      sub\n        /* \"#utility.yul\":11578:11579   */\n      0x00\n        /* \"#utility.yul\":11567:11576   */\n      dup4\n        /* \"#utility.yul\":11563:11580   */\n      add\n        /* \"#utility.yul\":11556:11603   */\n      mstore\n        /* \"#utility.yul\":11620:11698   */\n      tag_334\n        /* \"#utility.yul\":11693:11697   */\n      dup2\n        /* \"#utility.yul\":11684:11690   */\n      dup5\n        /* \"#utility.yul\":11620:11698   */\n      tag_176\n      jump\t// in\n    tag_334:\n        /* \"#utility.yul\":11612:11698   */\n      swap1\n      pop\n        /* \"#utility.yul\":11392:11705   */\n      swap3\n      swap2\n      pop\n      pop\n      jump\t// out\n        /* \"#utility.yul\":11711:11891   */\n    tag_191:\n        /* \"#utility.yul\":11759:11836   */\n      0x4e487b7100000000000000000000000000000000000000000000000000000000\n        /* \"#utility.yul\":11756:11757   */\n      0x00\n        /* \"#utility.yul\":11749:11837   */\n      mstore\n        /* \"#utility.yul\":11856:11860   */\n      0x22\n        /* \"#utility.yul\":11853:11854   */\n      0x04\n        /* \"#utility.yul\":11846:11861   */\n      mstore\n        /* \"#utility.yul\":11880:11884   */\n      0x24\n        /* \"#utility.yul\":11877:11878   */\n      0x00\n        /* \"#utility.yul\":11870:11885   */\n      revert\n        /* \"#utility.yul\":11897:12217   */\n    tag_71:\n        /* \"#utility.yul\":11941:11947   */\n      0x00\n        /* \"#utility.yul\":11978:11979   */\n      0x02\n        /* \"#utility.yul\":11972:11976   */\n      dup3\n        /* \"#utility.yul\":11968:11980   */\n      div\n        /* \"#utility.yul\":11958:11980   */\n      swap1\n      pop\n        /* \"#utility.yul\":12025:12026   */\n      0x01\n        /* \"#utility.yul\":12019:12023   */\n      dup3\n        /* \"#utility.yul\":12015:12027   */\n      and\n        /* \"#utility.yul\":12046:12064   */\n      dup1\n        /* \"#utility.yul\":12036:12117   */\n      tag_337\n      jumpi\n        /* \"#utility.yul\":12102:12106   */\n      0x7f\n        /* \"#utility.yul\":12094:12100   */\n      dup3\n        /* \"#utility.yul\":12090:12107   */\n      and\n        /* \"#utility.yul\":12080:12107   */\n      swap2\n      pop\n        /* \"#utility.yul\":12036:12117   */\n    tag_337:\n        /* \"#utility.yul\":12164:12166   */\n      0x20\n        /* \"#utility.yul\":12156:12162   */\n      dup3\n        /* \"#utility.yul\":12153:12167   */\n      lt\n        /* \"#utility.yul\":12133:12151   */\n      dup2\n        /* \"#utility.yul\":12130:12168   */\n      sub\n        /* \"#utility.yul\":12127:12211   */\n      tag_338\n      jumpi\n        /* \"#utility.yul\":12183:12201   */\n      tag_339\n      tag_191\n      jump\t// in\n    tag_339:\n        /* \"#utility.yul\":12127:12211   */\n    tag_338:\n        /* \"#utility.yul\":11948:12217   */\n      pop\n        /* \"#utility.yul\":11897:12217   */\n      swap2\n      swap1\n      pop\n      jump\t// out\n        /* \"#utility.yul\":12223:12398   */\n    tag_192:\n        /* \"#utility.yul\":12363:12390   */\n      0x4170706c6963616e7420646f6573206e6f742065786973742e00000000000000\n        /* \"#utility.yul\":12359:12360   */\n      0x00\n        /* \"#utility.yul\":12351:12357   */\n      dup3\n        /* \"#utility.yul\":12347:12361   */\n      add\n        /* \"#utility.yul\":12340:12391   */\n      mstore\n        /* \"#utility.yul\":12223:12398   */\n      pop\n      jump\t// out\n        /* \"#utility.yul\":12404:12770   */\n    tag_193:\n        /* \"#utility.yul\":12546:12549   */\n      0x00\n        /* \"#utility.yul\":12567:12634   */\n      tag_342\n        /* \"#utility.yul\":12631:12633   */\n      0x19\n        /* \"#utility.yul\":12626:12629   */\n      dup4\n        /* \"#utility.yul\":12567:12634   */\n      tag_173\n      jump\t// in\n    tag_342:\n        /* \"#utility.yul\":12560:12634   */\n      swap2\n      pop\n        /* \"#utility.yul\":12643:12736   */\n      tag_343\n        /* \"#utility.yul\":12732:12735   */\n      dup3\n        /* \"#utility.yul\":12643:12736   */\n      tag_192\n      jump\t// in\n    tag_343:\n        /* \"#utility.yul\":12761:12763   */\n      0x20\n        /* \"#utility.yul\":12756:12759   */\n      dup3\n        /* \"#utility.yul\":12752:12764   */\n      add\n        /* \"#utility.yul\":12745:12764   */\n      swap1\n      pop\n        /* \"#utility.yul\":12404:12770   */\n      swap2\n      swap1\n      pop\n      jump\t// out\n        /* \"#utility.yul\":12776:13195   */\n    tag_84:\n        /* \"#utility.yul\":12942:12946   */\n      0x00\n        /* \"#utility.yul\":12980:12982   */\n      0x20\n        /* \"#utility.yul\":12969:12978   */\n      dup3\n        /* \"#utility.yul\":12965:12983   */\n      add\n        /* \"#utility.yul\":12957:12983   */\n      swap1\n      pop\n        /* \"#utility.yul\":13029:13038   */\n      dup2\n        /* \"#utility.yul\":13023:13027   */\n      dup2\n        /* \"#utility.yul\":13019:13039   */\n      sub\n        /* \"#utility.yul\":13015:13016   */\n      0x00\n        /* \"#utility.yul\":13004:13013   */\n      dup4\n        /* \"#utility.yul\":13000:13017   */\n      add\n        /* \"#utility.yul\":12993:13040   */\n      mstore\n        /* \"#utility.yul\":13057:13188   */\n      tag_345\n        /* \"#utility.yul\":13183:13187   */\n      dup2\n        /* \"#utility.yul\":13057:13188   */\n      tag_193\n      jump\t// in\n    tag_345:\n        /* \"#utility.yul\":13049:13188   */\n      swap1\n      pop\n        /* \"#utility.yul\":12776:13195   */\n      swap2\n      swap1\n      pop\n      jump\t// out\n        /* \"#utility.yul\":13201:13425   */\n    tag_194:\n        /* \"#utility.yul\":13341:13375   */\n      0x526174696e672076616c7565206d757374206265206265747765656e20302061\n        /* \"#utility.yul\":13337:13338   */\n      0x00\n        /* \"#utility.yul\":13329:13335   */\n      dup3\n        /* \"#utility.yul\":13325:13339   */\n      add\n        /* \"#utility.yul\":13318:13376   */\n      mstore\n        /* \"#utility.yul\":13410:13417   */\n      0x6e6420352e000000000000000000000000000000000000000000000000000000\n        /* \"#utility.yul\":13405:13407   */\n      0x20\n        /* \"#utility.yul\":13397:13403   */\n      dup3\n        /* \"#utility.yul\":13393:13408   */\n      add\n        /* \"#utility.yul\":13386:13418   */\n      mstore\n        /* \"#utility.yul\":13201:13425   */\n      pop\n      jump\t// out\n        /* \"#utility.yul\":13431:13797   */\n    tag_195:\n        /* \"#utility.yul\":13573:13576   */\n      0x00\n        /* \"#utility.yul\":13594:13661   */\n      tag_348\n        /* \"#utility.yul\":13658:13660   */\n      0x25\n        /* \"#utility.yul\":13653:13656   */\n      dup4\n        /* \"#utility.yul\":13594:13661   */\n      tag_173\n      jump\t// in\n    tag_348:\n        /* \"#utility.yul\":13587:13661   */\n      swap2\n      pop\n        /* \"#utility.yul\":13670:13763   */\n      tag_349\n        /* \"#utility.yul\":13759:13762   */\n      dup3\n        /* \"#utility.yul\":13670:13763   */\n      tag_194\n      jump\t// in\n    tag_349:\n        /* \"#utility.yul\":13788:13790   */\n      0x40\n        /* \"#utility.yul\":13783:13786   */\n      dup3\n        /* \"#utility.yul\":13779:13791   */\n      add\n        /* \"#utility.yul\":13772:13791   */\n      swap1\n      pop\n        /* \"#utility.yul\":13431:13797   */\n      swap2\n      swap1\n      pop\n      jump\t// out\n        /* \"#utility.yul\":13803:14222   */\n    tag_88:\n        /* \"#utility.yul\":13969:13973   */\n      0x00\n        /* \"#utility.yul\":14007:14009   */\n      0x20\n        /* \"#utility.yul\":13996:14005   */\n      dup3\n        /* \"#utility.yul\":13992:14010   */\n      add\n        /* \"#utility.yul\":13984:14010   */\n      swap1\n      pop\n        /* \"#utility.yul\":14056:14065   */\n      dup2\n        /* \"#utility.yul\":14050:14054   */\n      dup2\n        /* \"#utility.yul\":14046:14066   */\n      sub\n        /* \"#utility.yul\":14042:14043   */\n      0x00\n        /* \"#utility.yul\":14031:14040   */\n      dup4\n        /* \"#utility.yul\":14027:14044   */\n      add\n        /* \"#utility.yul\":14020:14067   */\n      mstore\n        /* \"#utility.yul\":14084:14215   */\n      tag_351\n        /* \"#utility.yul\":14210:14214   */\n      dup2\n        /* \"#utility.yul\":14084:14215   */\n      tag_195\n      jump\t// in\n    tag_351:\n        /* \"#utility.yul\":14076:14215   */\n      swap1\n      pop\n        /* \"#utility.yul\":13803:14222   */\n      swap2\n      swap1\n      pop\n      jump\t// out\n        /* \"#utility.yul\":14228:14408   */\n    tag_196:\n        /* \"#utility.yul\":14276:14353   */\n      0x4e487b7100000000000000000000000000000000000000000000000000000000\n        /* \"#utility.yul\":14273:14274   */\n      0x00\n        /* \"#utility.yul\":14266:14354   */\n      mstore\n        /* \"#utility.yul\":14373:14377   */\n      0x11\n        /* \"#utility.yul\":14370:14371   */\n      0x04\n        /* \"#utility.yul\":14363:14378   */\n      mstore\n        /* \"#utility.yul\":14397:14401   */\n      0x24\n        /* \"#utility.yul\":14394:14395   */\n      0x00\n        /* \"#utility.yul\":14387:14402   */\n      revert\n        /* \"#utility.yul\":14414:14605   */\n    tag_90:\n        /* \"#utility.yul\":14454:14457   */\n      0x00\n        /* \"#utility.yul\":14473:14493   */\n      tag_354\n        /* \"#utility.yul\":14491:14492   */\n      dup3\n        /* \"#utility.yul\":14473:14493   */\n      tag_168\n      jump\t// in\n    tag_354:\n        /* \"#utility.yul\":14468:14493   */\n      swap2\n      pop\n        /* \"#utility.yul\":14507:14527   */\n      tag_355\n        /* \"#utility.yul\":14525:14526   */\n      dup4\n        /* \"#utility.yul\":14507:14527   */\n      tag_168\n      jump\t// in\n    tag_355:\n        /* \"#utility.yul\":14502:14527   */\n      swap3\n      pop\n        /* \"#utility.yul\":14550:14551   */\n      dup3\n        /* \"#utility.yul\":14547:14548   */\n      dup3\n        /* \"#utility.yul\":14543:14552   */\n      add\n        /* \"#utility.yul\":14536:14552   */\n      swap1\n      pop\n        /* \"#utility.yul\":14571:14574   */\n      dup1\n        /* \"#utility.yul\":14568:14569   */\n      dup3\n        /* \"#utility.yul\":14565:14575   */\n      gt\n        /* \"#utility.yul\":14562:14598   */\n      iszero\n      tag_356\n      jumpi\n        /* \"#utility.yul\":14578:14596   */\n      tag_357\n      tag_196\n      jump\t// in\n    tag_357:\n        /* \"#utility.yul\":14562:14598   */\n    tag_356:\n        /* \"#utility.yul\":14414:14605   */\n      swap3\n      swap2\n      pop\n      pop\n      jump\t// out\n        /* \"#utility.yul\":14611:14844   */\n    tag_92:\n        /* \"#utility.yul\":14650:14653   */\n      0x00\n        /* \"#utility.yul\":14673:14697   */\n      tag_359\n        /* \"#utility.yul\":14691:14696   */\n      dup3\n        /* \"#utility.yul\":14673:14697   */\n      tag_168\n      jump\t// in\n    tag_359:\n        /* \"#utility.yul\":14664:14697   */\n      swap2\n      pop\n        /* \"#utility.yul\":14719:14785   */\n      0xffffffffffffffffffffffffffffffffffffffffffffffffffffffffffffffff\n        /* \"#utility.yul\":14712:14717   */\n      dup3\n        /* \"#utility.yul\":14709:14786   */\n      sub\n        /* \"#utility.yul\":14706:14809   */\n      tag_360\n      jumpi\n        /* \"#utility.yul\":14789:14807   */\n      tag_361\n      tag_196\n      jump\t// in\n    tag_361:\n        /* \"#utility.yul\":14706:14809   */\n    tag_360:\n        /* \"#utility.yul\":14836:14837   */\n      0x01\n        /* \"#utility.yul\":14829:14834   */\n      dup3\n        /* \"#utility.yul\":14825:14838   */\n      add\n        /* \"#utility.yul\":14818:14838   */\n      swap1\n      pop\n        /* \"#utility.yul\":14611:14844   */\n      swap2\n      swap1\n      pop\n      jump\t// out\n        /* \"#utility.yul\":14850:15018   */\n    tag_197:\n        /* \"#utility.yul\":14990:15010   */\n      0x4a6f6220646f6573206e6f742065786973740000000000000000000000000000\n        /* \"#utility.yul\":14986:14987   */\n      0x00\n        /* \"#utility.yul\":14978:14984   */\n      dup3\n        /* \"#utility.yul\":14974:14988   */\n      add\n        /* \"#utility.yul\":14967:15011   */\n      mstore\n        /* \"#utility.yul\":14850:15018   */\n      pop\n      jump\t// out\n        /* \"#utility.yul\":15024:15390   */\n    tag_198:\n        /* \"#utility.yul\":15166:15169   */\n      0x00\n        /* \"#utility.yul\":15187:15254   */\n      tag_364\n        /* \"#utility.yul\":15251:15253   */\n      0x12\n        /* \"#utility.yul\":15246:15249   */\n      dup4\n        /* \"#utility.yul\":15187:15254   */\n      tag_173\n      jump\t// in\n    tag_364:\n        /* \"#utility.yul\":15180:15254   */\n      swap2\n      pop\n        /* \"#utility.yul\":15263:15356   */\n      tag_365\n        /* \"#utility.yul\":15352:15355   */\n      dup3\n        /* \"#utility.yul\":15263:15356   */\n      tag_197\n      jump\t// in\n    tag_365:\n        /* \"#utility.yul\":15381:15383   */\n      0x20\n        /* \"#utility.yul\":15376:15379   */\n      dup3\n        /* \"#utility.yul\":15372:15384   */\n      add\n        /* \"#utility.yul\":15365:15384   */\n      swap1\n      pop\n        /* \"#utility.yul\":15024:15390   */\n      swap2\n      swap1\n      pop\n      jump\t// out\n        /* \"#utility.yul\":15396:15815   */\n    tag_97:\n        /* \"#utility.yul\":15562:15566   */\n      0x00\n        /* \"#utility.yul\":15600:15602   */\n      0x20\n        /* \"#utility.yul\":15589:15598   */\n      dup3\n        /* \"#utility.yul\":15585:15603   */\n      add\n        /* \"#utility.yul\":15577:15603   */\n      swap1\n      pop\n        /* \"#utility.yul\":15649:15658   */\n      dup2\n        /* \"#utility.yul\":15643:15647   */\n      dup2\n        /* \"#utility.yul\":15639:15659   */\n      sub\n        /* \"#utility.yul\":15635:15636   */\n      0x00\n        /* \"#utility.yul\":15624:15633   */\n      dup4\n        /* \"#utility.yul\":15620:15637   */\n      add\n        /* \"#utility.yul\":15613:15660   */\n      mstore\n        /* \"#utility.yul\":15677:15808   */\n      tag_367\n        /* \"#utility.yul\":15803:15807   */\n      dup2\n        /* \"#utility.yul\":15677:15808   */\n      tag_198\n      jump\t// in\n    tag_367:\n        /* \"#utility.yul\":15669:15808   */\n      swap1\n      pop\n        /* \"#utility.yul\":15396:15815   */\n      swap2\n      swap1\n      pop\n      jump\t// out\n        /* \"#utility.yul\":15821:15962   */\n    tag_199:\n        /* \"#utility.yul\":15870:15874   */\n      0x00\n        /* \"#utility.yul\":15893:15896   */\n      dup2\n        /* \"#utility.yul\":15885:15896   */\n      swap1\n      pop\n        /* \"#utility.yul\":15916:15919   */\n      dup2\n        /* \"#utility.yul\":15913:15914   */\n      0x00\n        /* \"#utility.yul\":15906:15920   */\n      mstore\n        /* \"#utility.yul\":15950:15954   */\n      0x20\n        /* \"#utility.yul\":15947:15948   */\n      0x00\n        /* \"#utility.yul\":15937:15955   */\n      keccak256\n        /* \"#utility.yul\":15929:15955   */\n      swap1\n      pop\n        /* \"#utility.yul\":15821:15962   */\n      swap2\n      swap1\n      pop\n      jump\t// out\n        /* \"#utility.yul\":15968:16061   */\n    tag_200:\n        /* \"#utility.yul\":16005:16011   */\n      0x00\n        /* \"#utility.yul\":16052:16054   */\n      0x20\n        /* \"#utility.yul\":16047:16049   */\n      0x1f\n        /* \"#utility.yul\":16040:16045   */\n      dup4\n        /* \"#utility.yul\":16036:16050   */\n      add\n        /* \"#utility.yul\":16032:16055   */\n      div\n        /* \"#utility.yul\":16022:16055   */\n      swap1\n      pop\n        /* \"#utility.yul\":15968:16061   */\n      swap2\n      swap1\n      pop\n      jump\t// out\n        /* \"#utility.yul\":16067:16174   */\n    tag_201:\n        /* \"#utility.yul\":16111:16119   */\n      0x00\n        /* \"#utility.yul\":16161:16166   */\n      dup3\n        /* \"#utility.yul\":16155:16159   */\n      dup3\n        /* \"#utility.yul\":16151:16167   */\n      shl\n        /* \"#utility.yul\":16130:16167   */\n      swap1\n      pop\n        /* \"#utility.yul\":16067:16174   */\n      swap3\n      swap2\n      pop\n      pop\n      jump\t// out\n        /* \"#utility.yul\":16180:16573   */\n    tag_202:\n        /* \"#utility.yul\":16249:16255   */\n      0x00\n        /* \"#utility.yul\":16299:16300   */\n      0x08\n        /* \"#utility.yul\":16287:16297   */\n      dup4\n        /* \"#utility.yul\":16283:16301   */\n      mul\n        /* \"#utility.yul\":16322:16419   */\n      tag_372\n        /* \"#utility.yul\":16352:16418   */\n      0xffffffffffffffffffffffffffffffffffffffffffffffffffffffffffffffff\n        /* \"#utility.yul\":16341:16350   */\n      dup3\n        /* \"#utility.yul\":16322:16419   */\n      tag_201\n      jump\t// in\n    tag_372:\n        /* \"#utility.yul\":16440:16479   */\n      tag_373\n        /* \"#utility.yul\":16470:16478   */\n      dup7\n        /* \"#utility.yul\":16459:16468   */\n      dup4\n        /* \"#utility.yul\":16440:16479   */\n      tag_201\n      jump\t// in\n    tag_373:\n        /* \"#utility.yul\":16428:16479   */\n      swap6\n      pop\n        /* \"#utility.yul\":16512:16516   */\n      dup1\n        /* \"#utility.yul\":16508:16517   */\n      not\n        /* \"#utility.yul\":16501:16506   */\n      dup5\n        /* \"#utility.yul\":16497:16518   */\n      and\n        /* \"#utility.yul\":16488:16518   */\n      swap4\n      pop\n        /* \"#utility.yul\":16561:16565   */\n      dup1\n        /* \"#utility.yul\":16551:16559   */\n      dup7\n        /* \"#utility.yul\":16547:16566   */\n      and\n        /* \"#utility.yul\":16540:16545   */\n      dup5\n        /* \"#utility.yul\":16537:16567   */\n      or\n        /* \"#utility.yul\":16527:16567   */\n      swap3\n      pop\n        /* \"#utility.yul\":16256:16573   */\n      pop\n      pop\n        /* \"#utility.yul\":16180:16573   */\n      swap4\n      swap3\n      pop\n      pop\n      pop\n      jump\t// out\n        /* \"#utility.yul\":16579:16639   */\n    tag_203:\n        /* \"#utility.yul\":16607:16610   */\n      0x00\n        /* \"#utility.yul\":16628:16633   */\n      dup2\n        /* \"#utility.yul\":16621:16633   */\n      swap1\n      pop\n        /* \"#utility.yul\":16579:16639   */\n      swap2\n      swap1\n      pop\n      jump\t// out\n        /* \"#utility.yul\":16645:16787   */\n    tag_204:\n        /* \"#utility.yul\":16695:16704   */\n      0x00\n        /* \"#utility.yul\":16728:16781   */\n      tag_376\n        /* \"#utility.yul\":16746:16780   */\n      tag_377\n        /* \"#utility.yul\":16755:16779   */\n      tag_378\n        /* \"#utility.yul\":16773:16778   */\n      dup5\n        /* \"#utility.yul\":16755:16779   */\n      tag_168\n      jump\t// in\n    tag_378:\n        /* \"#utility.yul\":16746:16780   */\n      tag_203\n      jump\t// in\n    tag_377:\n        /* \"#utility.yul\":16728:16781   */\n      tag_168\n      jump\t// in\n    tag_376:\n        /* \"#utility.yul\":16715:16781   */\n      swap1\n      pop\n        /* \"#utility.yul\":16645:16787   */\n      swap2\n      swap1\n      pop\n      jump\t// out\n        /* \"#utility.yul\":16793:16868   */\n    tag_205:\n        /* \"#utility.yul\":16836:16839   */\n      0x00\n        /* \"#utility.yul\":16857:16862   */\n      dup2\n        /* \"#utility.yul\":16850:16862   */\n      swap1\n      pop\n        /* \"#utility.yul\":16793:16868   */\n      swap2\n      swap1\n      pop\n      jump\t// out\n        /* \"#utility.yul\":16874:17143   */\n    tag_206:\n        /* \"#utility.yul\":16984:17023   */\n      tag_381\n        /* \"#utility.yul\":17015:17022   */\n      dup4\n        /* \"#utility.yul\":16984:17023   */\n      tag_204\n      jump\t// in\n    tag_381:\n        /* \"#utility.yul\":17045:17136   */\n      tag_382\n        /* \"#utility.yul\":17094:17135   */\n      tag_383\n        /* \"#utility.yul\":17118:17134   */\n      dup3\n        /* \"#utility.yul\":17094:17135   */\n      tag_205\n      jump\t// in\n    tag_383:\n        /* \"#utility.yul\":17086:17092   */\n      dup5\n        /* \"#utility.yul\":17079:17083   */\n      dup5\n        /* \"#utility.yul\":17073:17084   */\n      sload\n        /* \"#utility.yul\":17045:17136   */\n      tag_202\n      jump\t// in\n    tag_382:\n        /* \"#utility.yul\":17039:17043   */\n      dup3\n        /* \"#utility.yul\":17032:17137   */\n      sstore\n        /* \"#utility.yul\":16950:17143   */\n      pop\n        /* \"#utility.yul\":16874:17143   */\n      pop\n      pop\n      pop\n      jump\t// out\n        /* \"#utility.yul\":17149:17222   */\n    tag_207:\n        /* \"#utility.yul\":17194:17197   */\n      0x00\n        /* \"#utility.yul\":17149:17222   */\n      swap1\n      jump\t// out\n        /* \"#utility.yul\":17228:17417   */\n    tag_208:\n        /* \"#utility.yul\":17305:17337   */\n      tag_386\n      tag_207\n      jump\t// in\n    tag_386:\n        /* \"#utility.yul\":17346:17411   */\n      tag_387\n        /* \"#utility.yul\":17404:17410   */\n      dup2\n        /* \"#utility.yul\":17396:17402   */\n      dup5\n        /* \"#utility.yul\":17390:17394   */\n      dup5\n        /* \"#utility.yul\":17346:17411   */\n      tag_206\n      jump\t// in\n    tag_387:\n        /* \"#utility.yul\":17281:17417   */\n      pop\n        /* \"#utility.yul\":17228:17417   */\n      pop\n      pop\n      jump\t// out\n        /* \"#utility.yul\":17423:17609   */\n    tag_209:\n        /* \"#utility.yul\":17483:17603   */\n    tag_389:\n        /* \"#utility.yul\":17500:17503   */\n      dup2\n        /* \"#utility.yul\":17493:17498   */\n      dup2\n        /* \"#utility.yul\":17490:17504   */\n      lt\n        /* \"#utility.yul\":17483:17603   */\n      iszero\n      tag_391\n      jumpi\n        /* \"#utility.yul\":17554:17593   */\n      tag_392\n        /* \"#utility.yul\":17591:17592   */\n      0x00\n        /* \"#utility.yul\":17584:17589   */\n      dup3\n        /* \"#utility.yul\":17554:17593   */\n      tag_208\n      jump\t// in\n    tag_392:\n        /* \"#utility.yul\":17527:17528   */\n      0x01\n        /* \"#utility.yul\":17520:17525   */\n      dup2\n        /* \"#utility.yul\":17516:17529   */\n      add\n        /* \"#utility.yul\":17507:17529   */\n      swap1\n      pop\n        /* \"#utility.yul\":17483:17603   */\n      jump(tag_389)\n    tag_391:\n        /* \"#utility.yul\":17423:17609   */\n      pop\n      pop\n      jump\t// out\n        /* \"#utility.yul\":17615:18158   */\n    tag_210:\n        /* \"#utility.yul\":17716:17718   */\n      0x1f\n        /* \"#utility.yul\":17711:17714   */\n      dup3\n        /* \"#utility.yul\":17708:17719   */\n      gt\n        /* \"#utility.yul\":17705:18151   */\n      iszero\n      tag_394\n      jumpi\n        /* \"#utility.yul\":17750:17788   */\n      tag_395\n        /* \"#utility.yul\":17782:17787   */\n      dup2\n        /* \"#utility.yul\":17750:17788   */\n      tag_199\n      jump\t// in\n    tag_395:\n        /* \"#utility.yul\":17834:17863   */\n      tag_396\n        /* \"#utility.yul\":17852:17862   */\n      dup5\n        /* \"#utility.yul\":17834:17863   */\n      tag_200\n      jump\t// in\n    tag_396:\n        /* \"#utility.yul\":17824:17832   */\n      dup2\n        /* \"#utility.yul\":17820:17864   */\n      add\n        /* \"#utility.yul\":18017:18019   */\n      0x20\n        /* \"#utility.yul\":18005:18015   */\n      dup6\n        /* \"#utility.yul\":18002:18020   */\n      lt\n        /* \"#utility.yul\":17999:18048   */\n      iszero\n      tag_397\n      jumpi\n        /* \"#utility.yul\":18038:18046   */\n      dup2\n        /* \"#utility.yul\":18023:18046   */\n      swap1\n      pop\n        /* \"#utility.yul\":17999:18048   */\n    tag_397:\n        /* \"#utility.yul\":18061:18141   */\n      tag_398\n        /* \"#utility.yul\":18117:18139   */\n      tag_399\n        /* \"#utility.yul\":18135:18138   */\n      dup6\n        /* \"#utility.yul\":18117:18139   */\n      tag_200\n      jump\t// in\n    tag_399:\n        /* \"#utility.yul\":18107:18115   */\n      dup4\n        /* \"#utility.yul\":18103:18140   */\n      add\n        /* \"#utility.yul\":18090:18101   */\n      dup3\n        /* \"#utility.yul\":18061:18141   */\n      tag_209\n      jump\t// in\n    tag_398:\n        /* \"#utility.yul\":17720:18151   */\n      pop\n      pop\n        /* \"#utility.yul\":17705:18151   */\n    tag_394:\n        /* \"#utility.yul\":17615:18158   */\n      pop\n      pop\n      pop\n      jump\t// out\n        /* \"#utility.yul\":18164:18281   */\n    tag_211:\n        /* \"#utility.yul\":18218:18226   */\n      0x00\n        /* \"#utility.yul\":18268:18273   */\n      dup3\n        /* \"#utility.yul\":18262:18266   */\n      dup3\n        /* \"#utility.yul\":18258:18274   */\n      shr\n        /* \"#utility.yul\":18237:18274   */\n      swap1\n      pop\n        /* \"#utility.yul\":18164:18281   */\n      swap3\n      swap2\n      pop\n      pop\n      jump\t// out\n        /* \"#utility.yul\":18287:18456   */\n    tag_212:\n        /* \"#utility.yul\":18331:18337   */\n      0x00\n        /* \"#utility.yul\":18364:18415   */\n      tag_402\n        /* \"#utility.yul\":18412:18413   */\n      0x00\n        /* \"#utility.yul\":18408:18414   */\n      not\n        /* \"#utility.yul\":18400:18405   */\n      dup5\n        /* \"#utility.yul\":18397:18398   */\n      0x08\n        /* \"#utility.yul\":18393:18406   */\n      mul\n        /* \"#utility.yul\":18364:18415   */\n      tag_211\n      jump\t// in\n    tag_402:\n        /* \"#utility.yul\":18360:18416   */\n      not\n        /* \"#utility.yul\":18445:18449   */\n      dup1\n        /* \"#utility.yul\":18439:18443   */\n      dup4\n        /* \"#utility.yul\":18435:18450   */\n      and\n        /* \"#utility.yul\":18425:18450   */\n      swap2\n      pop\n        /* \"#utility.yul\":18338:18456   */\n      pop\n        /* \"#utility.yul\":18287:18456   */\n      swap3\n      swap2\n      pop\n      pop\n      jump\t// out\n        /* \"#utility.yul\":18461:18756   */\n    tag_213:\n        /* \"#utility.yul\":18537:18541   */\n      0x00\n        /* \"#utility.yul\":18683:18712   */\n      tag_404\n        /* \"#utility.yul\":18708:18711   */\n      dup4\n        /* \"#utility.yul\":18702:18706   */\n      dup4\n        /* \"#utility.yul\":18683:18712   */\n      tag_212\n      jump\t// in\n    tag_404:\n        /* \"#utility.yul\":18675:18712   */\n      swap2\n      pop\n        /* \"#utility.yul\":18745:18748   */\n      dup3\n        /* \"#utility.yul\":18742:18743   */\n      0x02\n        /* \"#utility.yul\":18738:18749   */\n      mul\n        /* \"#utility.yul\":18732:18736   */\n      dup3\n        /* \"#utility.yul\":18729:18750   */\n      or\n        /* \"#utility.yul\":18721:18750   */\n      swap1\n      pop\n        /* \"#utility.yul\":18461:18756   */\n      swap3\n      swap2\n      pop\n      pop\n      jump\t// out\n        /* \"#utility.yul\":18761:20156   */\n    tag_126:\n        /* \"#utility.yul\":18878:18915   */\n      tag_406\n        /* \"#utility.yul\":18911:18914   */\n      dup3\n        /* \"#utility.yul\":18878:18915   */\n      tag_172\n      jump\t// in\n    tag_406:\n        /* \"#utility.yul\":18980:18998   */\n      0xffffffffffffffff\n        /* \"#utility.yul\":18972:18978   */\n      dup2\n        /* \"#utility.yul\":18969:18999   */\n      gt\n        /* \"#utility.yul\":18966:19022   */\n      iszero\n      tag_407\n      jumpi\n        /* \"#utility.yul\":19002:19020   */\n      tag_408\n      tag_184\n      jump\t// in\n    tag_408:\n        /* \"#utility.yul\":18966:19022   */\n    tag_407:\n        /* \"#utility.yul\":19046:19084   */\n      tag_409\n        /* \"#utility.yul\":19078:19082   */\n      dup3\n        /* \"#utility.yul\":19072:19083   */\n      sload\n        /* \"#utility.yul\":19046:19084   */\n      tag_71\n      jump\t// in\n    tag_409:\n        /* \"#utility.yul\":19131:19198   */\n      tag_410\n        /* \"#utility.yul\":19191:19197   */\n      dup3\n        /* \"#utility.yul\":19183:19189   */\n      dup3\n        /* \"#utility.yul\":19177:19181   */\n      dup6\n        /* \"#utility.yul\":19131:19198   */\n      tag_210\n      jump\t// in\n    tag_410:\n        /* \"#utility.yul\":19225:19226   */\n      0x00\n        /* \"#utility.yul\":19249:19253   */\n      0x20\n        /* \"#utility.yul\":19236:19253   */\n      swap1\n      pop\n        /* \"#utility.yul\":19281:19283   */\n      0x1f\n        /* \"#utility.yul\":19273:19279   */\n      dup4\n        /* \"#utility.yul\":19270:19284   */\n      gt\n        /* \"#utility.yul\":19298:19299   */\n      0x01\n        /* \"#utility.yul\":19293:19911   */\n      dup2\n      eq\n      tag_412\n      jumpi\n        /* \"#utility.yul\":19955:19956   */\n      0x00\n        /* \"#utility.yul\":19972:19978   */\n      dup5\n        /* \"#utility.yul\":19969:20046   */\n      iszero\n      tag_413\n      jumpi\n        /* \"#utility.yul\":20021:20030   */\n      dup3\n        /* \"#utility.yul\":20016:20019   */\n      dup8\n        /* \"#utility.yul\":20012:20031   */\n      add\n        /* \"#utility.yul\":20006:20032   */\n      mload\n        /* \"#utility.yul\":19997:20032   */\n      swap1\n      pop\n        /* \"#utility.yul\":19969:20046   */\n    tag_413:\n        /* \"#utility.yul\":20072:20139   */\n      tag_414\n        /* \"#utility.yul\":20132:20138   */\n      dup6\n        /* \"#utility.yul\":20125:20130   */\n      dup3\n        /* \"#utility.yul\":20072:20139   */\n      tag_213\n      jump\t// in\n    tag_414:\n        /* \"#utility.yul\":20066:20070   */\n      dup7\n        /* \"#utility.yul\":20059:20140   */\n      sstore\n        /* \"#utility.yul\":19928:20150   */\n      pop\n        /* \"#utility.yul\":19263:20150   */\n      jump(tag_411)\n        /* \"#utility.yul\":19293:19911   */\n    tag_412:\n        /* \"#utility.yul\":19345:19349   */\n      0x1f\n        /* \"#utility.yul\":19341:19350   */\n      not\n        /* \"#utility.yul\":19333:19339   */\n      dup5\n        /* \"#utility.yul\":19329:19351   */\n      and\n        /* \"#utility.yul\":19379:19416   */\n      tag_415\n        /* \"#utility.yul\":19411:19415   */\n      dup7\n        /* \"#utility.yul\":19379:19416   */\n      tag_199\n      jump\t// in\n    tag_415:\n        /* \"#utility.yul\":19438:19439   */\n      0x00\n        /* \"#utility.yul\":19452:19660   */\n    tag_416:\n        /* \"#utility.yul\":19466:19473   */\n      dup3\n        /* \"#utility.yul\":19463:19464   */\n      dup2\n        /* \"#utility.yul\":19460:19474   */\n      lt\n        /* \"#utility.yul\":19452:19660   */\n      iszero\n      tag_418\n      jumpi\n        /* \"#utility.yul\":19545:19554   */\n      dup5\n        /* \"#utility.yul\":19540:19543   */\n      dup10\n        /* \"#utility.yul\":19536:19555   */\n      add\n        /* \"#utility.yul\":19530:19556   */\n      mload\n        /* \"#utility.yul\":19522:19528   */\n      dup3\n        /* \"#utility.yul\":19515:19557   */\n      sstore\n        /* \"#utility.yul\":19596:19597   */\n      0x01\n        /* \"#utility.yul\":19588:19594   */\n      dup3\n        /* \"#utility.yul\":19584:19598   */\n      add\n        /* \"#utility.yul\":19574:19598   */\n      swap2\n      pop\n        /* \"#utility.yul\":19643:19645   */\n      0x20\n        /* \"#utility.yul\":19632:19641   */\n      dup6\n        /* \"#utility.yul\":19628:19646   */\n      add\n        /* \"#utility.yul\":19615:19646   */\n      swap5\n      pop\n        /* \"#utility.yul\":19489:19493   */\n      0x20\n        /* \"#utility.yul\":19486:19487   */\n      dup2\n        /* \"#utility.yul\":19482:19494   */\n      add\n        /* \"#utility.yul\":19477:19494   */\n      swap1\n      pop\n        /* \"#utility.yul\":19452:19660   */\n      jump(tag_416)\n    tag_418:\n        /* \"#utility.yul\":19688:19694   */\n      dup7\n        /* \"#utility.yul\":19679:19686   */\n      dup4\n        /* \"#utility.yul\":19676:19695   */\n      lt\n        /* \"#utility.yul\":19673:19852   */\n      iszero\n      tag_419\n      jumpi\n        /* \"#utility.yul\":19746:19755   */\n      dup5\n        /* \"#utility.yul\":19741:19744   */\n      dup10\n        /* \"#utility.yul\":19737:19756   */\n      add\n        /* \"#utility.yul\":19731:19757   */\n      mload\n        /* \"#utility.yul\":19789:19837   */\n      tag_420\n        /* \"#utility.yul\":19831:19835   */\n      0x1f\n        /* \"#utility.yul\":19823:19829   */\n      dup10\n        /* \"#utility.yul\":19819:19836   */\n      and\n        /* \"#utility.yul\":19808:19817   */\n      dup3\n        /* \"#utility.yul\":19789:19837   */\n      tag_212\n      jump\t// in\n    tag_420:\n        /* \"#utility.yul\":19781:19787   */\n      dup4\n        /* \"#utility.yul\":19774:19838   */\n      sstore\n        /* \"#utility.yul\":19696:19852   */\n      pop\n        /* \"#utility.yul\":19673:19852   */\n    tag_419:\n        /* \"#utility.yul\":19898:19899   */\n      0x01\n        /* \"#utility.yul\":19894:19895   */\n      0x02\n        /* \"#utility.yul\":19886:19892   */\n      dup9\n        /* \"#utility.yul\":19882:19896   */\n      mul\n        /* \"#utility.yul\":19878:19900   */\n      add\n        /* \"#utility.yul\":19872:19876   */\n      dup9\n        /* \"#utility.yul\":19865:19901   */\n      sstore\n        /* \"#utility.yul\":19300:19911   */\n      pop\n      pop\n      pop\n        /* \"#utility.yul\":19263:20150   */\n    tag_411:\n      pop\n        /* \"#utility.yul\":18853:20156   */\n      pop\n      pop\n      pop\n        /* \"#utility.yul\":18761:20156   */\n      pop\n      pop\n      jump\t// out\n        /* \"#utility.yul\":20162:20585   */\n    tag_129:\n        /* \"#utility.yul\":20303:20307   */\n      0x00\n        /* \"#utility.yul\":20341:20343   */\n      0x40\n        /* \"#utility.yul\":20330:20339   */\n      dup3\n        /* \"#utility.yul\":20326:20344   */\n      add\n        /* \"#utility.yul\":20318:20344   */\n      swap1\n      pop\n        /* \"#utility.yul\":20354:20425   */\n      tag_422\n        /* \"#utility.yul\":20422:20423   */\n      0x00\n        /* \"#utility.yul\":20411:20420   */\n      dup4\n        /* \"#utility.yul\":20407:20424   */\n      add\n        /* \"#utility.yul\":20398:20404   */\n      dup6\n        /* \"#utility.yul\":20354:20425   */\n      tag_171\n      jump\t// in\n    tag_422:\n        /* \"#utility.yul\":20472:20481   */\n      dup2\n        /* \"#utility.yul\":20466:20470   */\n      dup2\n        /* \"#utility.yul\":20462:20482   */\n      sub\n        /* \"#utility.yul\":20457:20459   */\n      0x20\n        /* \"#utility.yul\":20446:20455   */\n      dup4\n        /* \"#utility.yul\":20442:20460   */\n      add\n        /* \"#utility.yul\":20435:20483   */\n      mstore\n        /* \"#utility.yul\":20500:20578   */\n      tag_423\n        /* \"#utility.yul\":20573:20577   */\n      dup2\n        /* \"#utility.yul\":20564:20570   */\n      dup5\n        /* \"#utility.yul\":20500:20578   */\n      tag_176\n      jump\t// in\n    tag_423:\n        /* \"#utility.yul\":20492:20578   */\n      swap1\n      pop\n        /* \"#utility.yul\":20162:20585   */\n      swap4\n      swap3\n      pop\n      pop\n      pop\n      jump\t// out\n        /* \"#utility.yul\":20591:20750   */\n    tag_214:\n        /* \"#utility.yul\":20731:20742   */\n      0x4e6f742076616c69640000000000000000000000000000000000000000000000\n        /* \"#utility.yul\":20727:20728   */\n      0x00\n        /* \"#utility.yul\":20719:20725   */\n      dup3\n        /* \"#utility.yul\":20715:20729   */\n      add\n        /* \"#utility.yul\":20708:20743   */\n      mstore\n        /* \"#utility.yul\":20591:20750   */\n      pop\n      jump\t// out\n        /* \"#utility.yul\":20756:21121   */\n    tag_215:\n        /* \"#utility.yul\":20898:20901   */\n      0x00\n        /* \"#utility.yul\":20919:20985   */\n      tag_426\n        /* \"#utility.yul\":20983:20984   */\n      0x09\n        /* \"#utility.yul\":20978:20981   */\n      dup4\n        /* \"#utility.yul\":20919:20985   */\n      tag_173\n      jump\t// in\n    tag_426:\n        /* \"#utility.yul\":20912:20985   */\n      swap2\n      pop\n        /* \"#utility.yul\":20994:21087   */\n      tag_427\n        /* \"#utility.yul\":21083:21086   */\n      dup3\n        /* \"#utility.yul\":20994:21087   */\n      tag_214\n      jump\t// in\n    tag_427:\n        /* \"#utility.yul\":21112:21114   */\n      0x20\n        /* \"#utility.yul\":21107:21110   */\n      dup3\n        /* \"#utility.yul\":21103:21115   */\n      add\n        /* \"#utility.yul\":21096:21115   */\n      swap1\n      pop\n        /* \"#utility.yul\":20756:21121   */\n      swap2\n      swap1\n      pop\n      jump\t// out\n        /* \"#utility.yul\":21127:21546   */\n    tag_142:\n        /* \"#utility.yul\":21293:21297   */\n      0x00\n        /* \"#utility.yul\":21331:21333   */\n      0x20\n        /* \"#utility.yul\":21320:21329   */\n      dup3\n        /* \"#utility.yul\":21316:21334   */\n      add\n        /* \"#utility.yul\":21308:21334   */\n      swap1\n      pop\n        /* \"#utility.yul\":21380:21389   */\n      dup2\n        /* \"#utility.yul\":21374:21378   */\n      dup2\n        /* \"#utility.yul\":21370:21390   */\n      sub\n        /* \"#utility.yul\":21366:21367   */\n      0x00\n        /* \"#utility.yul\":21355:21364   */\n      dup4\n        /* \"#utility.yul\":21351:21368   */\n      add\n        /* \"#utility.yul\":21344:21391   */\n      mstore\n        /* \"#utility.yul\":21408:21539   */\n      tag_429\n        /* \"#utility.yul\":21534:21538   */\n      dup2\n        /* \"#utility.yul\":21408:21539   */\n      tag_215\n      jump\t// in\n    tag_429:\n        /* \"#utility.yul\":21400:21539   */\n      swap1\n      pop\n        /* \"#utility.yul\":21127:21546   */\n      swap2\n      swap1\n      pop\n      jump\t// out\n        /* \"#utility.yul\":21552:21709   */\n    tag_216:\n        /* \"#utility.yul\":21692:21701   */\n      0x496e76616c696400000000000000000000000000000000000000000000000000\n        /* \"#utility.yul\":21688:21689   */\n      0x00\n        /* \"#utility.yul\":21680:21686   */\n      dup3\n        /* \"#utility.yul\":21676:21690   */\n      add\n        /* \"#utility.yul\":21669:21702   */\n      mstore\n        /* \"#utility.yul\":21552:21709   */\n      pop\n      jump\t// out\n        /* \"#utility.yul\":21715:22080   */\n    tag_217:\n        /* \"#utility.yul\":21857:21860   */\n      0x00\n        /* \"#utility.yul\":21878:21944   */\n      tag_432\n        /* \"#utility.yul\":21942:21943   */\n      0x07\n        /* \"#utility.yul\":21937:21940   */\n      dup4\n        /* \"#utility.yul\":21878:21944   */\n      tag_173\n      jump\t// in\n    tag_432:\n        /* \"#utility.yul\":21871:21944   */\n      swap2\n      pop\n        /* \"#utility.yul\":21953:22046   */\n      tag_433\n        /* \"#utility.yul\":22042:22045   */\n      dup3\n        /* \"#utility.yul\":21953:22046   */\n      tag_216\n      jump\t// in\n    tag_433:\n        /* \"#utility.yul\":22071:22073   */\n      0x20\n        /* \"#utility.yul\":22066:22069   */\n      dup3\n        /* \"#utility.yul\":22062:22074   */\n      add\n        /* \"#utility.yul\":22055:22074   */\n      swap1\n      pop\n        /* \"#utility.yul\":21715:22080   */\n      swap2\n      swap1\n      pop\n      jump\t// out\n        /* \"#utility.yul\":22086:22505   */\n    tag_161:\n        /* \"#utility.yul\":22252:22256   */\n      0x00\n        /* \"#utility.yul\":22290:22292   */\n      0x20\n        /* \"#utility.yul\":22279:22288   */\n      dup3\n        /* \"#utility.yul\":22275:22293   */\n      add\n        /* \"#utility.yul\":22267:22293   */\n      swap1\n      pop\n        /* \"#utility.yul\":22339:22348   */\n      dup2\n        /* \"#utility.yul\":22333:22337   */\n      dup2\n        /* \"#utility.yul\":22329:22349   */\n      sub\n        /* \"#utility.yul\":22325:22326   */\n      0x00\n        /* \"#utility.yul\":22314:22323   */\n      dup4\n        /* \"#utility.yul\":22310:22327   */\n      add\n        /* \"#utility.yul\":22303:22350   */\n      mstore\n        /* \"#utility.yul\":22367:22498   */\n      tag_435\n        /* \"#utility.yul\":22493:22497   */\n      dup2\n        /* \"#utility.yul\":22367:22498   */\n      tag_217\n      jump\t// in\n    tag_435:\n        /* \"#utility.yul\":22359:22498   */\n      swap1\n      pop\n        /* \"#utility.yul\":22086:22505   */\n      swap2\n      swap1\n      pop\n      jump\t// out\n\n    auxdata: 0xa2646970667358221220b8214f843964bdeebc5dc2c3810730dd59b21f972642c0e5d5a3e4a9010909f164736f6c63430008120033\n}\n",
				"bytecode": {
					"linkReferences": {},
					"object": "608060405234801561001057600080fd5b50611c08806100206000396000f3fe608060405234801561001057600080fd5b50600436106100b45760003560e01c8063640ed3fe11610071578063640ed3fe146101c05780636c8548ff146101dc578063725d89ba1461020d5780639df752be14610229578063d280267d1461025b578063ecb109e91461028b576100b4565b8063180aedf3146100b95780631a36520d146100ee5780634cac35c61461010a57806359f9743f1461013d5780635d30e84d1461015b57806363de53231461018c575b600080fd5b6100d360048036038101906100ce919061102c565b6102a9565b6040516100e596959493929190611154565b60405180910390f35b610108600480360381019061010391906111c3565b610422565b005b610124600480360381019061011f919061102c565b61056b565b6040516101349493929190611203565b60405180910390f35b610145610775565b6040516101529190611256565b60405180910390f35b6101756004803603810190610170919061102c565b61077b565b604051610183929190611271565b60405180910390f35b6101a660048036038101906101a1919061102c565b61079f565b6040516101b795949392919061129a565b60405180910390f35b6101da60048036038101906101d59190611437565b61097a565b005b6101f660048036038101906101f1919061102c565b610ad9565b604051610204929190611271565b60405180910390f35b610227600480360381019061022291906114c2565b610b75565b005b610243600480360381019061023e919061102c565b610c7c565b60405161025293929190611569565b60405180910390f35b6102756004803603810190610270919061102c565b610ed3565b60405161028291906115b5565b60405180910390f35b610293610fdc565b6040516102a09190611256565b60405180910390f35b60016020528060005260406000206000915090508060000154908060010180546102d290611606565b80601f01602080910402602001604051908101604052809291908181526020018280546102fe90611606565b801561034b5780601f106103205761010080835404028352916020019161034b565b820191906000526020600020905b81548152906001019060200180831161032e57829003601f168201915b50505050509080600201805461036090611606565b80601f016020809104026020016040519081016040528092919081815260200182805461038c90611606565b80156103d95780601f106103ae576101008083540402835291602001916103d9565b820191906000526020600020905b8154815290600101906020018083116103bc57829003601f168201915b5050505050908060030154908060040160009054906101000a900473ffffffffffffffffffffffffffffffffffffffff16908060040160149054906101000a900460ff16905086565b60008083815260200190815260200160002060040160009054906101000a900460ff16610484576040517f08c379a000000000000000000000000000000000000000000000000000000000815260040161047b90611683565b60405180910390fd5b60008110158015610496575060058111155b6104d5576040517f08c379a00000000000000000000000000000000000000000000000000000000081526004016104cc90611715565b60405180910390fd5b806002600084815260200190815260200160002060000160008282546104fb9190611764565b9250508190555060026000838152602001908152602001600020600101600081548092919061052990611798565b91905055507fa19c0ab39df9eafd50df675666e6603bd2f2b879f0c112d1d99c45424eaee703828260405161055f929190611271565b60405180910390a15050565b6060806000806001600086815260200190815260200160002060040160149054906101000a900460ff166105d4576040517f08c379a00000000000000000000000000000000000000000000000000000000081526004016105cb9061182c565b60405180910390fd5b600160008681526020019081526020016000206001016001600087815260200190815260200160002060020160016000888152602001908152602001600020600301546001600089815260200190815260200160002060040160009054906101000a900473ffffffffffffffffffffffffffffffffffffffff1683805461065a90611606565b80601f016020809104026020016040519081016040528092919081815260200182805461068690611606565b80156106d35780601f106106a8576101008083540402835291602001916106d3565b820191906000526020600020905b8154815290600101906020018083116106b657829003601f168201915b505050505093508280546106e690611606565b80601f016020809104026020016040519081016040528092919081815260200182805461071290611606565b801561075f5780601f106107345761010080835404028352916020019161075f565b820191906000526020600020905b81548152906001019060200180831161074257829003601f168201915b5050505050925093509350935093509193509193565b60045481565b60026020528060005260406000206000915090508060000154908060010154905082565b60006020528060005260406000206000915090508060000154908060010180546107c890611606565b80601f01602080910402602001604051908101604052809291908181526020018280546107f490611606565b80156108415780601f1061081657610100808354040283529160200191610841565b820191906000526020600020905b81548152906001019060200180831161082457829003601f168201915b50505050509080600201805461085690611606565b80601f016020809104026020016040519081016040528092919081815260200182805461088290611606565b80156108cf5780601f106108a4576101008083540402835291602001916108cf565b820191906000526020600020905b8154815290600101906020018083116108b257829003601f168201915b5050505050908060030180546108e490611606565b80601f016020809104026020016040519081016040528092919081815260200182805461091090611606565b801561095d5780601f106109325761010080835404028352916020019161095d565b820191906000526020600020905b81548152906001019060200180831161094057829003601f168201915b5050505050908060040160009054906101000a900460ff16905085565b6004600081548092919061098d90611798565b91905055506040518060c0016040528060045481526020018481526020018381526020018281526020013373ffffffffffffffffffffffffffffffffffffffff16815260200160011515815250600160006004548152602001908152602001600020600082015181600001556020820151816001019081610a0e91906119f8565b506040820151816002019081610a2491906119f8565b506060820151816003015560808201518160040160006101000a81548173ffffffffffffffffffffffffffffffffffffffff021916908373ffffffffffffffffffffffffffffffffffffffff16021790555060a08201518160040160146101000a81548160ff0219169083151502179055509050507f16741b99d9970409a70e3afc272f75c16a16fd623ccdf4a19b87637933090ac260045484604051610acc929190611aca565b60405180910390a1505050565b60008060008084815260200190815260200160002060040160009054906101000a900460ff16610b3e576040517f08c379a0000000000000000000000000000000000000000000000000000000008152600401610b3590611683565b60405180910390fd5b6002600084815260200190815260200160002060000154600260008581526020019081526020016000206001015491509150915091565b60036000815480929190610b8890611798565b91905055506040518060a001604052806003548152602001848152602001828152602001838152602001600115158152506000806003548152602001908152602001600020600082015181600001556020820151816001019081610bec91906119f8565b506040820151816002019081610c0291906119f8565b506060820151816003019081610c1891906119f8565b5060808201518160040160006101000a81548160ff0219169083151502179055509050507f207e6308a8912df945f02f3c2eda37977f9dc87a78a1bb0f49dc304be79ae50b60035484604051610c6f929190611aca565b60405180910390a1505050565b606080606060008085815260200190815260200160002060040160009054906101000a900460ff16610ce3576040517f08c379a0000000000000000000000000000000000000000000000000000000008152600401610cda90611b46565b60405180910390fd5b600080858152602001908152602001600020600101600080868152602001908152602001600020600301600080878152602001908152602001600020600201828054610d2e90611606565b80601f0160208091040260200160405190810160405280929190818152602001828054610d5a90611606565b8015610da75780601f10610d7c57610100808354040283529160200191610da7565b820191906000526020600020905b815481529060010190602001808311610d8a57829003601f168201915b50505050509250818054610dba90611606565b80601f0160208091040260200160405190810160405280929190818152602001828054610de690611606565b8015610e335780601f10610e0857610100808354040283529160200191610e33565b820191906000526020600020905b815481529060010190602001808311610e1657829003601f168201915b50505050509150808054610e4690611606565b80601f0160208091040260200160405190810160405280929190818152602001828054610e7290611606565b8015610ebf5780601f10610e9457610100808354040283529160200191610ebf565b820191906000526020600020905b815481529060010190602001808311610ea257829003601f168201915b505050505090509250925092509193909250565b606060008083815260200190815260200160002060040160009054906101000a900460ff16610f37576040517f08c379a0000000000000000000000000000000000000000000000000000000008152600401610f2e90611bb2565b60405180910390fd5b60016000808481526020019081526020016000206003018054610f5990611606565b90501115610f9e576040518060400160405280600b81526020017f457870657269656e6365640000000000000000000000000000000000000000008152509050610fd7565b6040518060400160405280600981526020017f556e736b696c6c6564000000000000000000000000000000000000000000000081525090505b919050565b60035481565b6000604051905090565b600080fd5b600080fd5b6000819050919050565b61100981610ff6565b811461101457600080fd5b50565b60008135905061102681611000565b92915050565b60006020828403121561104257611041610fec565b5b600061105084828501611017565b91505092915050565b61106281610ff6565b82525050565b600081519050919050565b600082825260208201905092915050565b60005b838110156110a2578082015181840152602081019050611087565b60008484015250505050565b6000601f19601f8301169050919050565b60006110ca82611068565b6110d48185611073565b93506110e4818560208601611084565b6110ed816110ae565b840191505092915050565b600073ffffffffffffffffffffffffffffffffffffffff82169050919050565b6000611123826110f8565b9050919050565b61113381611118565b82525050565b60008115159050919050565b61114e81611139565b82525050565b600060c0820190506111696000830189611059565b818103602083015261117b81886110bf565b9050818103604083015261118f81876110bf565b905061119e6060830186611059565b6111ab608083018561112a565b6111b860a0830184611145565b979650505050505050565b600080604083850312156111da576111d9610fec565b5b60006111e885828601611017565b92505060206111f985828601611017565b9150509250929050565b6000608082019050818103600083015261121d81876110bf565b9050818103602083015261123181866110bf565b90506112406040830185611059565b61124d606083018461112a565b95945050505050565b600060208201905061126b6000830184611059565b92915050565b60006040820190506112866000830185611059565b6112936020830184611059565b9392505050565b600060a0820190506112af6000830188611059565b81810360208301526112c181876110bf565b905081810360408301526112d581866110bf565b905081810360608301526112e981856110bf565b90506112f86080830184611145565b9695505050505050565b600080fd5b600080fd5b7f4e487b7100000000000000000000000000000000000000000000000000000000600052604160045260246000fd5b611344826110ae565b810181811067ffffffffffffffff821117156113635761136261130c565b5b80604052505050565b6000611376610fe2565b9050611382828261133b565b919050565b600067ffffffffffffffff8211156113a2576113a161130c565b5b6113ab826110ae565b9050602081019050919050565b82818337600083830152505050565b60006113da6113d584611387565b61136c565b9050828152602081018484840111156113f6576113f5611307565b5b6114018482856113b8565b509392505050565b600082601f83011261141e5761141d611302565b5b813561142e8482602086016113c7565b91505092915050565b6000806000606084860312156114505761144f610fec565b5b600084013567ffffffffffffffff81111561146e5761146d610ff1565b5b61147a86828701611409565b935050602084013567ffffffffffffffff81111561149b5761149a610ff1565b5b6114a786828701611409565b92505060406114b886828701611017565b9150509250925092565b6000806000606084860312156114db576114da610fec565b5b600084013567ffffffffffffffff8111156114f9576114f8610ff1565b5b61150586828701611409565b935050602084013567ffffffffffffffff81111561152657611525610ff1565b5b61153286828701611409565b925050604084013567ffffffffffffffff81111561155357611552610ff1565b5b61155f86828701611409565b9150509250925092565b6000606082019050818103600083015261158381866110bf565b9050818103602083015261159781856110bf565b905081810360408301526115ab81846110bf565b9050949350505050565b600060208201905081810360008301526115cf81846110bf565b905092915050565b7f4e487b7100000000000000000000000000000000000000000000000000000000600052602260045260246000fd5b6000600282049050600182168061161e57607f821691505b602082108103611631576116306115d7565b5b50919050565b7f4170706c6963616e7420646f6573206e6f742065786973742e00000000000000600082015250565b600061166d601983611073565b915061167882611637565b602082019050919050565b6000602082019050818103600083015261169c81611660565b9050919050565b7f526174696e672076616c7565206d757374206265206265747765656e2030206160008201527f6e6420352e000000000000000000000000000000000000000000000000000000602082015250565b60006116ff602583611073565b915061170a826116a3565b604082019050919050565b6000602082019050818103600083015261172e816116f2565b9050919050565b7f4e487b7100000000000000000000000000000000000000000000000000000000600052601160045260246000fd5b600061176f82610ff6565b915061177a83610ff6565b925082820190508082111561179257611791611735565b5b92915050565b60006117a382610ff6565b91507fffffffffffffffffffffffffffffffffffffffffffffffffffffffffffffffff82036117d5576117d4611735565b5b600182019050919050565b7f4a6f6220646f6573206e6f742065786973740000000000000000000000000000600082015250565b6000611816601283611073565b9150611821826117e0565b602082019050919050565b6000602082019050818103600083015261184581611809565b9050919050565b60008190508160005260206000209050919050565b60006020601f8301049050919050565b600082821b905092915050565b6000600883026118ae7fffffffffffffffffffffffffffffffffffffffffffffffffffffffffffffffff82611871565b6118b88683611871565b95508019841693508086168417925050509392505050565b6000819050919050565b60006118f56118f06118eb84610ff6565b6118d0565b610ff6565b9050919050565b6000819050919050565b61190f836118da565b61192361191b826118fc565b84845461187e565b825550505050565b600090565b61193861192b565b611943818484611906565b505050565b5b818110156119675761195c600082611930565b600181019050611949565b5050565b601f8211156119ac5761197d8161184c565b61198684611861565b81016020851015611995578190505b6119a96119a185611861565b830182611948565b50505b505050565b600082821c905092915050565b60006119cf600019846008026119b1565b1980831691505092915050565b60006119e883836119be565b9150826002028217905092915050565b611a0182611068565b67ffffffffffffffff811115611a1a57611a1961130c565b5b611a248254611606565b611a2f82828561196b565b600060209050601f831160018114611a625760008415611a50578287015190505b611a5a85826119dc565b865550611ac2565b601f198416611a708661184c565b60005b82811015611a9857848901518255600182019150602085019450602081019050611a73565b86831015611ab55784890151611ab1601f8916826119be565b8355505b6001600288020188555050505b505050505050565b6000604082019050611adf6000830185611059565b8181036020830152611af181846110bf565b90509392505050565b7f4e6f742076616c69640000000000000000000000000000000000000000000000600082015250565b6000611b30600983611073565b9150611b3b82611afa565b602082019050919050565b60006020820190508181036000830152611b5f81611b23565b9050919050565b7f496e76616c696400000000000000000000000000000000000000000000000000600082015250565b6000611b9c600783611073565b9150611ba782611b66565b602082019050919050565b60006020820190508181036000830152611bcb81611b8f565b905091905056fea2646970667358221220b8214f843964bdeebc5dc2c3810730dd59b21f972642c0e5d5a3e4a9010909f164736f6c63430008120033",
					"opcodes": "PUSH1 0x80 PUSH1 0x40 MSTORE CALLVALUE DUP1 ISZERO PUSH2 0x10 JUMPI PUSH1 0x0 DUP1 REVERT JUMPDEST POP PUSH2 0x1C08 DUP1 PUSH2 0x20 PUSH1 0x0 CODECOPY PUSH1 0x0 RETURN INVALID PUSH1 0x80 PUSH1 0x40 MSTORE CALLVALUE DUP1 ISZERO PUSH2 0x10 JUMPI PUSH1 0x0 DUP1 REVERT JUMPDEST POP PUSH1 0x4 CALLDATASIZE LT PUSH2 0xB4 JUMPI PUSH1 0x0 CALLDATALOAD PUSH1 0xE0 SHR DUP1 PUSH4 0x640ED3FE GT PUSH2 0x71 JUMPI DUP1 PUSH4 0x640ED3FE EQ PUSH2 0x1C0 JUMPI DUP1 PUSH4 0x6C8548FF EQ PUSH2 0x1DC JUMPI DUP1 PUSH4 0x725D89BA EQ PUSH2 0x20D JUMPI DUP1 PUSH4 0x9DF752BE EQ PUSH2 0x229 JUMPI DUP1 PUSH4 0xD280267D EQ PUSH2 0x25B JUMPI DUP1 PUSH4 0xECB109E9 EQ PUSH2 0x28B JUMPI PUSH2 0xB4 JUMP JUMPDEST DUP1 PUSH4 0x180AEDF3 EQ PUSH2 0xB9 JUMPI DUP1 PUSH4 0x1A36520D EQ PUSH2 0xEE JUMPI DUP1 PUSH4 0x4CAC35C6 EQ PUSH2 0x10A JUMPI DUP1 PUSH4 0x59F9743F EQ PUSH2 0x13D JUMPI DUP1 PUSH4 0x5D30E84D EQ PUSH2 0x15B JUMPI DUP1 PUSH4 0x63DE5323 EQ PUSH2 0x18C JUMPI JUMPDEST PUSH1 0x0 DUP1 REVERT JUMPDEST PUSH2 0xD3 PUSH1 0x4 DUP1 CALLDATASIZE SUB DUP2 ADD SWAP1 PUSH2 0xCE SWAP2 SWAP1 PUSH2 0x102C JUMP JUMPDEST PUSH2 0x2A9 JUMP JUMPDEST PUSH1 0x40 MLOAD PUSH2 0xE5 SWAP7 SWAP6 SWAP5 SWAP4 SWAP3 SWAP2 SWAP1 PUSH2 0x1154 JUMP JUMPDEST PUSH1 0x40 MLOAD DUP1 SWAP2 SUB SWAP1 RETURN JUMPDEST PUSH2 0x108 PUSH1 0x4 DUP1 CALLDATASIZE SUB DUP2 ADD SWAP1 PUSH2 0x103 SWAP2 SWAP1 PUSH2 0x11C3 JUMP JUMPDEST PUSH2 0x422 JUMP JUMPDEST STOP JUMPDEST PUSH2 0x124 PUSH1 0x4 DUP1 CALLDATASIZE SUB DUP2 ADD SWAP1 PUSH2 0x11F SWAP2 SWAP1 PUSH2 0x102C JUMP JUMPDEST PUSH2 0x56B JUMP JUMPDEST PUSH1 0x40 MLOAD PUSH2 0x134 SWAP5 SWAP4 SWAP3 SWAP2 SWAP1 PUSH2 0x1203 JUMP JUMPDEST PUSH1 0x40 MLOAD DUP1 SWAP2 SUB SWAP1 RETURN JUMPDEST PUSH2 0x145 PUSH2 0x775 JUMP JUMPDEST PUSH1 0x40 MLOAD PUSH2 0x152 SWAP2 SWAP1 PUSH2 0x1256 JUMP JUMPDEST PUSH1 0x40 MLOAD DUP1 SWAP2 SUB SWAP1 RETURN JUMPDEST PUSH2 0x175 PUSH1 0x4 DUP1 CALLDATASIZE SUB DUP2 ADD SWAP1 PUSH2 0x170 SWAP2 SWAP1 PUSH2 0x102C JUMP JUMPDEST PUSH2 0x77B JUMP JUMPDEST PUSH1 0x40 MLOAD PUSH2 0x183 SWAP3 SWAP2 SWAP1 PUSH2 0x1271 JUMP JUMPDEST PUSH1 0x40 MLOAD DUP1 SWAP2 SUB SWAP1 RETURN JUMPDEST PUSH2 0x1A6 PUSH1 0x4 DUP1 CALLDATASIZE SUB DUP2 ADD SWAP1 PUSH2 0x1A1 SWAP2 SWAP1 PUSH2 0x102C JUMP JUMPDEST PUSH2 0x79F JUMP JUMPDEST PUSH1 0x40 MLOAD PUSH2 0x1B7 SWAP6 SWAP5 SWAP4 SWAP3 SWAP2 SWAP1 PUSH2 0x129A JUMP JUMPDEST PUSH1 0x40 MLOAD DUP1 SWAP2 SUB SWAP1 RETURN JUMPDEST PUSH2 0x1DA PUSH1 0x4 DUP1 CALLDATASIZE SUB DUP2 ADD SWAP1 PUSH2 0x1D5 SWAP2 SWAP1 PUSH2 0x1437 JUMP JUMPDEST PUSH2 0x97A JUMP JUMPDEST STOP JUMPDEST PUSH2 0x1F6 PUSH1 0x4 DUP1 CALLDATASIZE SUB DUP2 ADD SWAP1 PUSH2 0x1F1 SWAP2 SWAP1 PUSH2 0x102C JUMP JUMPDEST PUSH2 0xAD9 JUMP JUMPDEST PUSH1 0x40 MLOAD PUSH2 0x204 SWAP3 SWAP2 SWAP1 PUSH2 0x1271 JUMP JUMPDEST PUSH1 0x40 MLOAD DUP1 SWAP2 SUB SWAP1 RETURN JUMPDEST PUSH2 0x227 PUSH1 0x4 DUP1 CALLDATASIZE SUB DUP2 ADD SWAP1 PUSH2 0x222 SWAP2 SWAP1 PUSH2 0x14C2 JUMP JUMPDEST PUSH2 0xB75 JUMP JUMPDEST STOP JUMPDEST PUSH2 0x243 PUSH1 0x4 DUP1 CALLDATASIZE SUB DUP2 ADD SWAP1 PUSH2 0x23E SWAP2 SWAP1 PUSH2 0x102C JUMP JUMPDEST PUSH2 0xC7C JUMP JUMPDEST PUSH1 0x40 MLOAD PUSH2 0x252 SWAP4 SWAP3 SWAP2 SWAP1 PUSH2 0x1569 JUMP JUMPDEST PUSH1 0x40 MLOAD DUP1 SWAP2 SUB SWAP1 RETURN JUMPDEST PUSH2 0x275 PUSH1 0x4 DUP1 CALLDATASIZE SUB DUP2 ADD SWAP1 PUSH2 0x270 SWAP2 SWAP1 PUSH2 0x102C JUMP JUMPDEST PUSH2 0xED3 JUMP JUMPDEST PUSH1 0x40 MLOAD PUSH2 0x282 SWAP2 SWAP1 PUSH2 0x15B5 JUMP JUMPDEST PUSH1 0x40 MLOAD DUP1 SWAP2 SUB SWAP1 RETURN JUMPDEST PUSH2 0x293 PUSH2 0xFDC JUMP JUMPDEST PUSH1 0x40 MLOAD PUSH2 0x2A0 SWAP2 SWAP1 PUSH2 0x1256 JUMP JUMPDEST PUSH1 0x40 MLOAD DUP1 SWAP2 SUB SWAP1 RETURN JUMPDEST PUSH1 0x1 PUSH1 0x20 MSTORE DUP1 PUSH1 0x0 MSTORE PUSH1 0x40 PUSH1 0x0 KECCAK256 PUSH1 0x0 SWAP2 POP SWAP1 POP DUP1 PUSH1 0x0 ADD SLOAD SWAP1 DUP1 PUSH1 0x1 ADD DUP1 SLOAD PUSH2 0x2D2 SWAP1 PUSH2 0x1606 JUMP JUMPDEST DUP1 PUSH1 0x1F ADD PUSH1 0x20 DUP1 SWAP2 DIV MUL PUSH1 0x20 ADD PUSH1 0x40 MLOAD SWAP1 DUP2 ADD PUSH1 0x40 MSTORE DUP1 SWAP3 SWAP2 SWAP1 DUP2 DUP2 MSTORE PUSH1 0x20 ADD DUP3 DUP1 SLOAD PUSH2 0x2FE SWAP1 PUSH2 0x1606 JUMP JUMPDEST DUP1 ISZERO PUSH2 0x34B JUMPI DUP1 PUSH1 0x1F LT PUSH2 0x320 JUMPI PUSH2 0x100 DUP1 DUP4 SLOAD DIV MUL DUP4 MSTORE SWAP2 PUSH1 0x20 ADD SWAP2 PUSH2 0x34B JUMP JUMPDEST DUP3 ADD SWAP2 SWAP1 PUSH1 0x0 MSTORE PUSH1 0x20 PUSH1 0x0 KECCAK256 SWAP1 JUMPDEST DUP2 SLOAD DUP2 MSTORE SWAP1 PUSH1 0x1 ADD SWAP1 PUSH1 0x20 ADD DUP1 DUP4 GT PUSH2 0x32E JUMPI DUP3 SWAP1 SUB PUSH1 0x1F AND DUP3 ADD SWAP2 JUMPDEST POP POP POP POP POP SWAP1 DUP1 PUSH1 0x2 ADD DUP1 SLOAD PUSH2 0x360 SWAP1 PUSH2 0x1606 JUMP JUMPDEST DUP1 PUSH1 0x1F ADD PUSH1 0x20 DUP1 SWAP2 DIV MUL PUSH1 0x20 ADD PUSH1 0x40 MLOAD SWAP1 DUP2 ADD PUSH1 0x40 MSTORE DUP1 SWAP3 SWAP2 SWAP1 DUP2 DUP2 MSTORE PUSH1 0x20 ADD DUP3 DUP1 SLOAD PUSH2 0x38C SWAP1 PUSH2 0x1606 JUMP JUMPDEST DUP1 ISZERO PUSH2 0x3D9 JUMPI DUP1 PUSH1 0x1F LT PUSH2 0x3AE JUMPI PUSH2 0x100 DUP1 DUP4 SLOAD DIV MUL DUP4 MSTORE SWAP2 PUSH1 0x20 ADD SWAP2 PUSH2 0x3D9 JUMP JUMPDEST DUP3 ADD SWAP2 SWAP1 PUSH1 0x0 MSTORE PUSH1 0x20 PUSH1 0x0 KECCAK256 SWAP1 JUMPDEST DUP2 SLOAD DUP2 MSTORE SWAP1 PUSH1 0x1 ADD SWAP1 PUSH1 0x20 ADD DUP1 DUP4 GT PUSH2 0x3BC JUMPI DUP3 SWAP1 SUB PUSH1 0x1F AND DUP3 ADD SWAP2 JUMPDEST POP POP POP POP POP SWAP1 DUP1 PUSH1 0x3 ADD SLOAD SWAP1 DUP1 PUSH1 0x4 ADD PUSH1 0x0 SWAP1 SLOAD SWAP1 PUSH2 0x100 EXP SWAP1 DIV PUSH20 0xFFFFFFFFFFFFFFFFFFFFFFFFFFFFFFFFFFFFFFFF AND SWAP1 DUP1 PUSH1 0x4 ADD PUSH1 0x14 SWAP1 SLOAD SWAP1 PUSH2 0x100 EXP SWAP1 DIV PUSH1 0xFF AND SWAP1 POP DUP7 JUMP JUMPDEST PUSH1 0x0 DUP1 DUP4 DUP2 MSTORE PUSH1 0x20 ADD SWAP1 DUP2 MSTORE PUSH1 0x20 ADD PUSH1 0x0 KECCAK256 PUSH1 0x4 ADD PUSH1 0x0 SWAP1 SLOAD SWAP1 PUSH2 0x100 EXP SWAP1 DIV PUSH1 0xFF AND PUSH2 0x484 JUMPI PUSH1 0x40 MLOAD PUSH32 0x8C379A000000000000000000000000000000000000000000000000000000000 DUP2 MSTORE PUSH1 0x4 ADD PUSH2 0x47B SWAP1 PUSH2 0x1683 JUMP JUMPDEST PUSH1 0x40 MLOAD DUP1 SWAP2 SUB SWAP1 REVERT JUMPDEST PUSH1 0x0 DUP2 LT ISZERO DUP1 ISZERO PUSH2 0x496 JUMPI POP PUSH1 0x5 DUP2 GT ISZERO JUMPDEST PUSH2 0x4D5 JUMPI PUSH1 0x40 MLOAD PUSH32 0x8C379A000000000000000000000000000000000000000000000000000000000 DUP2 MSTORE PUSH1 0x4 ADD PUSH2 0x4CC SWAP1 PUSH2 0x1715 JUMP JUMPDEST PUSH1 0x40 MLOAD DUP1 SWAP2 SUB SWAP1 REVERT JUMPDEST DUP1 PUSH1 0x2 PUSH1 0x0 DUP5 DUP2 MSTORE PUSH1 0x20 ADD SWAP1 DUP2 MSTORE PUSH1 0x20 ADD PUSH1 0x0 KECCAK256 PUSH1 0x0 ADD PUSH1 0x0 DUP3 DUP3 SLOAD PUSH2 0x4FB SWAP2 SWAP1 PUSH2 0x1764 JUMP JUMPDEST SWAP3 POP POP DUP2 SWAP1 SSTORE POP PUSH1 0x2 PUSH1 0x0 DUP4 DUP2 MSTORE PUSH1 0x20 ADD SWAP1 DUP2 MSTORE PUSH1 0x20 ADD PUSH1 0x0 KECCAK256 PUSH1 0x1 ADD PUSH1 0x0 DUP2 SLOAD DUP1 SWAP3 SWAP2 SWAP1 PUSH2 0x529 SWAP1 PUSH2 0x1798 JUMP JUMPDEST SWAP2 SWAP1 POP SSTORE POP PUSH32 0xA19C0AB39DF9EAFD50DF675666E6603BD2F2B879F0C112D1D99C45424EAEE703 DUP3 DUP3 PUSH1 0x40 MLOAD PUSH2 0x55F SWAP3 SWAP2 SWAP1 PUSH2 0x1271 JUMP JUMPDEST PUSH1 0x40 MLOAD DUP1 SWAP2 SUB SWAP1 LOG1 POP POP JUMP JUMPDEST PUSH1 0x60 DUP1 PUSH1 0x0 DUP1 PUSH1 0x1 PUSH1 0x0 DUP7 DUP2 MSTORE PUSH1 0x20 ADD SWAP1 DUP2 MSTORE PUSH1 0x20 ADD PUSH1 0x0 KECCAK256 PUSH1 0x4 ADD PUSH1 0x14 SWAP1 SLOAD SWAP1 PUSH2 0x100 EXP SWAP1 DIV PUSH1 0xFF AND PUSH2 0x5D4 JUMPI PUSH1 0x40 MLOAD PUSH32 0x8C379A000000000000000000000000000000000000000000000000000000000 DUP2 MSTORE PUSH1 0x4 ADD PUSH2 0x5CB SWAP1 PUSH2 0x182C JUMP JUMPDEST PUSH1 0x40 MLOAD DUP1 SWAP2 SUB SWAP1 REVERT JUMPDEST PUSH1 0x1 PUSH1 0x0 DUP7 DUP2 MSTORE PUSH1 0x20 ADD SWAP1 DUP2 MSTORE PUSH1 0x20 ADD PUSH1 0x0 KECCAK256 PUSH1 0x1 ADD PUSH1 0x1 PUSH1 0x0 DUP8 DUP2 MSTORE PUSH1 0x20 ADD SWAP1 DUP2 MSTORE PUSH1 0x20 ADD PUSH1 0x0 KECCAK256 PUSH1 0x2 ADD PUSH1 0x1 PUSH1 0x0 DUP9 DUP2 MSTORE PUSH1 0x20 ADD SWAP1 DUP2 MSTORE PUSH1 0x20 ADD PUSH1 0x0 KECCAK256 PUSH1 0x3 ADD SLOAD PUSH1 0x1 PUSH1 0x0 DUP10 DUP2 MSTORE PUSH1 0x20 ADD SWAP1 DUP2 MSTORE PUSH1 0x20 ADD PUSH1 0x0 KECCAK256 PUSH1 0x4 ADD PUSH1 0x0 SWAP1 SLOAD SWAP1 PUSH2 0x100 EXP SWAP1 DIV PUSH20 0xFFFFFFFFFFFFFFFFFFFFFFFFFFFFFFFFFFFFFFFF AND DUP4 DUP1 SLOAD PUSH2 0x65A SWAP1 PUSH2 0x1606 JUMP JUMPDEST DUP1 PUSH1 0x1F ADD PUSH1 0x20 DUP1 SWAP2 DIV MUL PUSH1 0x20 ADD PUSH1 0x40 MLOAD SWAP1 DUP2 ADD PUSH1 0x40 MSTORE DUP1 SWAP3 SWAP2 SWAP1 DUP2 DUP2 MSTORE PUSH1 0x20 ADD DUP3 DUP1 SLOAD PUSH2 0x686 SWAP1 PUSH2 0x1606 JUMP JUMPDEST DUP1 ISZERO PUSH2 0x6D3 JUMPI DUP1 PUSH1 0x1F LT PUSH2 0x6A8 JUMPI PUSH2 0x100 DUP1 DUP4 SLOAD DIV MUL DUP4 MSTORE SWAP2 PUSH1 0x20 ADD SWAP2 PUSH2 0x6D3 JUMP JUMPDEST DUP3 ADD SWAP2 SWAP1 PUSH1 0x0 MSTORE PUSH1 0x20 PUSH1 0x0 KECCAK256 SWAP1 JUMPDEST DUP2 SLOAD DUP2 MSTORE SWAP1 PUSH1 0x1 ADD SWAP1 PUSH1 0x20 ADD DUP1 DUP4 GT PUSH2 0x6B6 JUMPI DUP3 SWAP1 SUB PUSH1 0x1F AND DUP3 ADD SWAP2 JUMPDEST POP POP POP POP POP SWAP4 POP DUP3 DUP1 SLOAD PUSH2 0x6E6 SWAP1 PUSH2 0x1606 JUMP JUMPDEST DUP1 PUSH1 0x1F ADD PUSH1 0x20 DUP1 SWAP2 DIV MUL PUSH1 0x20 ADD PUSH1 0x40 MLOAD SWAP1 DUP2 ADD PUSH1 0x40 MSTORE DUP1 SWAP3 SWAP2 SWAP1 DUP2 DUP2 MSTORE PUSH1 0x20 ADD DUP3 DUP1 SLOAD PUSH2 0x712 SWAP1 PUSH2 0x1606 JUMP JUMPDEST DUP1 ISZERO PUSH2 0x75F JUMPI DUP1 PUSH1 0x1F LT PUSH2 0x734 JUMPI PUSH2 0x100 DUP1 DUP4 SLOAD DIV MUL DUP4 MSTORE SWAP2 PUSH1 0x20 ADD SWAP2 PUSH2 0x75F JUMP JUMPDEST DUP3 ADD SWAP2 SWAP1 PUSH1 0x0 MSTORE PUSH1 0x20 PUSH1 0x0 KECCAK256 SWAP1 JUMPDEST DUP2 SLOAD DUP2 MSTORE SWAP1 PUSH1 0x1 ADD SWAP1 PUSH1 0x20 ADD DUP1 DUP4 GT PUSH2 0x742 JUMPI DUP3 SWAP1 SUB PUSH1 0x1F AND DUP3 ADD SWAP2 JUMPDEST POP POP POP POP POP SWAP3 POP SWAP4 POP SWAP4 POP SWAP4 POP SWAP4 POP SWAP2 SWAP4 POP SWAP2 SWAP4 JUMP JUMPDEST PUSH1 0x4 SLOAD DUP2 JUMP JUMPDEST PUSH1 0x2 PUSH1 0x20 MSTORE DUP1 PUSH1 0x0 MSTORE PUSH1 0x40 PUSH1 0x0 KECCAK256 PUSH1 0x0 SWAP2 POP SWAP1 POP DUP1 PUSH1 0x0 ADD SLOAD SWAP1 DUP1 PUSH1 0x1 ADD SLOAD SWAP1 POP DUP3 JUMP JUMPDEST PUSH1 0x0 PUSH1 0x20 MSTORE DUP1 PUSH1 0x0 MSTORE PUSH1 0x40 PUSH1 0x0 KECCAK256 PUSH1 0x0 SWAP2 POP SWAP1 POP DUP1 PUSH1 0x0 ADD SLOAD SWAP1 DUP1 PUSH1 0x1 ADD DUP1 SLOAD PUSH2 0x7C8 SWAP1 PUSH2 0x1606 JUMP JUMPDEST DUP1 PUSH1 0x1F ADD PUSH1 0x20 DUP1 SWAP2 DIV MUL PUSH1 0x20 ADD PUSH1 0x40 MLOAD SWAP1 DUP2 ADD PUSH1 0x40 MSTORE DUP1 SWAP3 SWAP2 SWAP1 DUP2 DUP2 MSTORE PUSH1 0x20 ADD DUP3 DUP1 SLOAD PUSH2 0x7F4 SWAP1 PUSH2 0x1606 JUMP JUMPDEST DUP1 ISZERO PUSH2 0x841 JUMPI DUP1 PUSH1 0x1F LT PUSH2 0x816 JUMPI PUSH2 0x100 DUP1 DUP4 SLOAD DIV MUL DUP4 MSTORE SWAP2 PUSH1 0x20 ADD SWAP2 PUSH2 0x841 JUMP JUMPDEST DUP3 ADD SWAP2 SWAP1 PUSH1 0x0 MSTORE PUSH1 0x20 PUSH1 0x0 KECCAK256 SWAP1 JUMPDEST DUP2 SLOAD DUP2 MSTORE SWAP1 PUSH1 0x1 ADD SWAP1 PUSH1 0x20 ADD DUP1 DUP4 GT PUSH2 0x824 JUMPI DUP3 SWAP1 SUB PUSH1 0x1F AND DUP3 ADD SWAP2 JUMPDEST POP POP POP POP POP SWAP1 DUP1 PUSH1 0x2 ADD DUP1 SLOAD PUSH2 0x856 SWAP1 PUSH2 0x1606 JUMP JUMPDEST DUP1 PUSH1 0x1F ADD PUSH1 0x20 DUP1 SWAP2 DIV MUL PUSH1 0x20 ADD PUSH1 0x40 MLOAD SWAP1 DUP2 ADD PUSH1 0x40 MSTORE DUP1 SWAP3 SWAP2 SWAP1 DUP2 DUP2 MSTORE PUSH1 0x20 ADD DUP3 DUP1 SLOAD PUSH2 0x882 SWAP1 PUSH2 0x1606 JUMP JUMPDEST DUP1 ISZERO PUSH2 0x8CF JUMPI DUP1 PUSH1 0x1F LT PUSH2 0x8A4 JUMPI PUSH2 0x100 DUP1 DUP4 SLOAD DIV MUL DUP4 MSTORE SWAP2 PUSH1 0x20 ADD SWAP2 PUSH2 0x8CF JUMP JUMPDEST DUP3 ADD SWAP2 SWAP1 PUSH1 0x0 MSTORE PUSH1 0x20 PUSH1 0x0 KECCAK256 SWAP1 JUMPDEST DUP2 SLOAD DUP2 MSTORE SWAP1 PUSH1 0x1 ADD SWAP1 PUSH1 0x20 ADD DUP1 DUP4 GT PUSH2 0x8B2 JUMPI DUP3 SWAP1 SUB PUSH1 0x1F AND DUP3 ADD SWAP2 JUMPDEST POP POP POP POP POP SWAP1 DUP1 PUSH1 0x3 ADD DUP1 SLOAD PUSH2 0x8E4 SWAP1 PUSH2 0x1606 JUMP JUMPDEST DUP1 PUSH1 0x1F ADD PUSH1 0x20 DUP1 SWAP2 DIV MUL PUSH1 0x20 ADD PUSH1 0x40 MLOAD SWAP1 DUP2 ADD PUSH1 0x40 MSTORE DUP1 SWAP3 SWAP2 SWAP1 DUP2 DUP2 MSTORE PUSH1 0x20 ADD DUP3 DUP1 SLOAD PUSH2 0x910 SWAP1 PUSH2 0x1606 JUMP JUMPDEST DUP1 ISZERO PUSH2 0x95D JUMPI DUP1 PUSH1 0x1F LT PUSH2 0x932 JUMPI PUSH2 0x100 DUP1 DUP4 SLOAD DIV MUL DUP4 MSTORE SWAP2 PUSH1 0x20 ADD SWAP2 PUSH2 0x95D JUMP JUMPDEST DUP3 ADD SWAP2 SWAP1 PUSH1 0x0 MSTORE PUSH1 0x20 PUSH1 0x0 KECCAK256 SWAP1 JUMPDEST DUP2 SLOAD DUP2 MSTORE SWAP1 PUSH1 0x1 ADD SWAP1 PUSH1 0x20 ADD DUP1 DUP4 GT PUSH2 0x940 JUMPI DUP3 SWAP1 SUB PUSH1 0x1F AND DUP3 ADD SWAP2 JUMPDEST POP POP POP POP POP SWAP1 DUP1 PUSH1 0x4 ADD PUSH1 0x0 SWAP1 SLOAD SWAP1 PUSH2 0x100 EXP SWAP1 DIV PUSH1 0xFF AND SWAP1 POP DUP6 JUMP JUMPDEST PUSH1 0x4 PUSH1 0x0 DUP2 SLOAD DUP1 SWAP3 SWAP2 SWAP1 PUSH2 0x98D SWAP1 PUSH2 0x1798 JUMP JUMPDEST SWAP2 SWAP1 POP SSTORE POP PUSH1 0x40 MLOAD DUP1 PUSH1 0xC0 ADD PUSH1 0x40 MSTORE DUP1 PUSH1 0x4 SLOAD DUP2 MSTORE PUSH1 0x20 ADD DUP5 DUP2 MSTORE PUSH1 0x20 ADD DUP4 DUP2 MSTORE PUSH1 0x20 ADD DUP3 DUP2 MSTORE PUSH1 0x20 ADD CALLER PUSH20 0xFFFFFFFFFFFFFFFFFFFFFFFFFFFFFFFFFFFFFFFF AND DUP2 MSTORE PUSH1 0x20 ADD PUSH1 0x1 ISZERO ISZERO DUP2 MSTORE POP PUSH1 0x1 PUSH1 0x0 PUSH1 0x4 SLOAD DUP2 MSTORE PUSH1 0x20 ADD SWAP1 DUP2 MSTORE PUSH1 0x20 ADD PUSH1 0x0 KECCAK256 PUSH1 0x0 DUP3 ADD MLOAD DUP2 PUSH1 0x0 ADD SSTORE PUSH1 0x20 DUP3 ADD MLOAD DUP2 PUSH1 0x1 ADD SWAP1 DUP2 PUSH2 0xA0E SWAP2 SWAP1 PUSH2 0x19F8 JUMP JUMPDEST POP PUSH1 0x40 DUP3 ADD MLOAD DUP2 PUSH1 0x2 ADD SWAP1 DUP2 PUSH2 0xA24 SWAP2 SWAP1 PUSH2 0x19F8 JUMP JUMPDEST POP PUSH1 0x60 DUP3 ADD MLOAD DUP2 PUSH1 0x3 ADD SSTORE PUSH1 0x80 DUP3 ADD MLOAD DUP2 PUSH1 0x4 ADD PUSH1 0x0 PUSH2 0x100 EXP DUP2 SLOAD DUP2 PUSH20 0xFFFFFFFFFFFFFFFFFFFFFFFFFFFFFFFFFFFFFFFF MUL NOT AND SWAP1 DUP4 PUSH20 0xFFFFFFFFFFFFFFFFFFFFFFFFFFFFFFFFFFFFFFFF AND MUL OR SWAP1 SSTORE POP PUSH1 0xA0 DUP3 ADD MLOAD DUP2 PUSH1 0x4 ADD PUSH1 0x14 PUSH2 0x100 EXP DUP2 SLOAD DUP2 PUSH1 0xFF MUL NOT AND SWAP1 DUP4 ISZERO ISZERO MUL OR SWAP1 SSTORE POP SWAP1 POP POP PUSH32 0x16741B99D9970409A70E3AFC272F75C16A16FD623CCDF4A19B87637933090AC2 PUSH1 0x4 SLOAD DUP5 PUSH1 0x40 MLOAD PUSH2 0xACC SWAP3 SWAP2 SWAP1 PUSH2 0x1ACA JUMP JUMPDEST PUSH1 0x40 MLOAD DUP1 SWAP2 SUB SWAP1 LOG1 POP POP POP JUMP JUMPDEST PUSH1 0x0 DUP1 PUSH1 0x0 DUP1 DUP5 DUP2 MSTORE PUSH1 0x20 ADD SWAP1 DUP2 MSTORE PUSH1 0x20 ADD PUSH1 0x0 KECCAK256 PUSH1 0x4 ADD PUSH1 0x0 SWAP1 SLOAD SWAP1 PUSH2 0x100 EXP SWAP1 DIV PUSH1 0xFF AND PUSH2 0xB3E JUMPI PUSH1 0x40 MLOAD PUSH32 0x8C379A000000000000000000000000000000000000000000000000000000000 DUP2 MSTORE PUSH1 0x4 ADD PUSH2 0xB35 SWAP1 PUSH2 0x1683 JUMP JUMPDEST PUSH1 0x40 MLOAD DUP1 SWAP2 SUB SWAP1 REVERT JUMPDEST PUSH1 0x2 PUSH1 0x0 DUP5 DUP2 MSTORE PUSH1 0x20 ADD SWAP1 DUP2 MSTORE PUSH1 0x20 ADD PUSH1 0x0 KECCAK256 PUSH1 0x0 ADD SLOAD PUSH1 0x2 PUSH1 0x0 DUP6 DUP2 MSTORE PUSH1 0x20 ADD SWAP1 DUP2 MSTORE PUSH1 0x20 ADD PUSH1 0x0 KECCAK256 PUSH1 0x1 ADD SLOAD SWAP2 POP SWAP2 POP SWAP2 POP SWAP2 JUMP JUMPDEST PUSH1 0x3 PUSH1 0x0 DUP2 SLOAD DUP1 SWAP3 SWAP2 SWAP1 PUSH2 0xB88 SWAP1 PUSH2 0x1798 JUMP JUMPDEST SWAP2 SWAP1 POP SSTORE POP PUSH1 0x40 MLOAD DUP1 PUSH1 0xA0 ADD PUSH1 0x40 MSTORE DUP1 PUSH1 0x3 SLOAD DUP2 MSTORE PUSH1 0x20 ADD DUP5 DUP2 MSTORE PUSH1 0x20 ADD DUP3 DUP2 MSTORE PUSH1 0x20 ADD DUP4 DUP2 MSTORE PUSH1 0x20 ADD PUSH1 0x1 ISZERO ISZERO DUP2 MSTORE POP PUSH1 0x0 DUP1 PUSH1 0x3 SLOAD DUP2 MSTORE PUSH1 0x20 ADD SWAP1 DUP2 MSTORE PUSH1 0x20 ADD PUSH1 0x0 KECCAK256 PUSH1 0x0 DUP3 ADD MLOAD DUP2 PUSH1 0x0 ADD SSTORE PUSH1 0x20 DUP3 ADD MLOAD DUP2 PUSH1 0x1 ADD SWAP1 DUP2 PUSH2 0xBEC SWAP2 SWAP1 PUSH2 0x19F8 JUMP JUMPDEST POP PUSH1 0x40 DUP3 ADD MLOAD DUP2 PUSH1 0x2 ADD SWAP1 DUP2 PUSH2 0xC02 SWAP2 SWAP1 PUSH2 0x19F8 JUMP JUMPDEST POP PUSH1 0x60 DUP3 ADD MLOAD DUP2 PUSH1 0x3 ADD SWAP1 DUP2 PUSH2 0xC18 SWAP2 SWAP1 PUSH2 0x19F8 JUMP JUMPDEST POP PUSH1 0x80 DUP3 ADD MLOAD DUP2 PUSH1 0x4 ADD PUSH1 0x0 PUSH2 0x100 EXP DUP2 SLOAD DUP2 PUSH1 0xFF MUL NOT AND SWAP1 DUP4 ISZERO ISZERO MUL OR SWAP1 SSTORE POP SWAP1 POP POP PUSH32 0x207E6308A8912DF945F02F3C2EDA37977F9DC87A78A1BB0F49DC304BE79AE50B PUSH1 0x3 SLOAD DUP5 PUSH1 0x40 MLOAD PUSH2 0xC6F SWAP3 SWAP2 SWAP1 PUSH2 0x1ACA JUMP JUMPDEST PUSH1 0x40 MLOAD DUP1 SWAP2 SUB SWAP1 LOG1 POP POP POP JUMP JUMPDEST PUSH1 0x60 DUP1 PUSH1 0x60 PUSH1 0x0 DUP1 DUP6 DUP2 MSTORE PUSH1 0x20 ADD SWAP1 DUP2 MSTORE PUSH1 0x20 ADD PUSH1 0x0 KECCAK256 PUSH1 0x4 ADD PUSH1 0x0 SWAP1 SLOAD SWAP1 PUSH2 0x100 EXP SWAP1 DIV PUSH1 0xFF AND PUSH2 0xCE3 JUMPI PUSH1 0x40 MLOAD PUSH32 0x8C379A000000000000000000000000000000000000000000000000000000000 DUP2 MSTORE PUSH1 0x4 ADD PUSH2 0xCDA SWAP1 PUSH2 0x1B46 JUMP JUMPDEST PUSH1 0x40 MLOAD DUP1 SWAP2 SUB SWAP1 REVERT JUMPDEST PUSH1 0x0 DUP1 DUP6 DUP2 MSTORE PUSH1 0x20 ADD SWAP1 DUP2 MSTORE PUSH1 0x20 ADD PUSH1 0x0 KECCAK256 PUSH1 0x1 ADD PUSH1 0x0 DUP1 DUP7 DUP2 MSTORE PUSH1 0x20 ADD SWAP1 DUP2 MSTORE PUSH1 0x20 ADD PUSH1 0x0 KECCAK256 PUSH1 0x3 ADD PUSH1 0x0 DUP1 DUP8 DUP2 MSTORE PUSH1 0x20 ADD SWAP1 DUP2 MSTORE PUSH1 0x20 ADD PUSH1 0x0 KECCAK256 PUSH1 0x2 ADD DUP3 DUP1 SLOAD PUSH2 0xD2E SWAP1 PUSH2 0x1606 JUMP JUMPDEST DUP1 PUSH1 0x1F ADD PUSH1 0x20 DUP1 SWAP2 DIV MUL PUSH1 0x20 ADD PUSH1 0x40 MLOAD SWAP1 DUP2 ADD PUSH1 0x40 MSTORE DUP1 SWAP3 SWAP2 SWAP1 DUP2 DUP2 MSTORE PUSH1 0x20 ADD DUP3 DUP1 SLOAD PUSH2 0xD5A SWAP1 PUSH2 0x1606 JUMP JUMPDEST DUP1 ISZERO PUSH2 0xDA7 JUMPI DUP1 PUSH1 0x1F LT PUSH2 0xD7C JUMPI PUSH2 0x100 DUP1 DUP4 SLOAD DIV MUL DUP4 MSTORE SWAP2 PUSH1 0x20 ADD SWAP2 PUSH2 0xDA7 JUMP JUMPDEST DUP3 ADD SWAP2 SWAP1 PUSH1 0x0 MSTORE PUSH1 0x20 PUSH1 0x0 KECCAK256 SWAP1 JUMPDEST DUP2 SLOAD DUP2 MSTORE SWAP1 PUSH1 0x1 ADD SWAP1 PUSH1 0x20 ADD DUP1 DUP4 GT PUSH2 0xD8A JUMPI DUP3 SWAP1 SUB PUSH1 0x1F AND DUP3 ADD SWAP2 JUMPDEST POP POP POP POP POP SWAP3 POP DUP2 DUP1 SLOAD PUSH2 0xDBA SWAP1 PUSH2 0x1606 JUMP JUMPDEST DUP1 PUSH1 0x1F ADD PUSH1 0x20 DUP1 SWAP2 DIV MUL PUSH1 0x20 ADD PUSH1 0x40 MLOAD SWAP1 DUP2 ADD PUSH1 0x40 MSTORE DUP1 SWAP3 SWAP2 SWAP1 DUP2 DUP2 MSTORE PUSH1 0x20 ADD DUP3 DUP1 SLOAD PUSH2 0xDE6 SWAP1 PUSH2 0x1606 JUMP JUMPDEST DUP1 ISZERO PUSH2 0xE33 JUMPI DUP1 PUSH1 0x1F LT PUSH2 0xE08 JUMPI PUSH2 0x100 DUP1 DUP4 SLOAD DIV MUL DUP4 MSTORE SWAP2 PUSH1 0x20 ADD SWAP2 PUSH2 0xE33 JUMP JUMPDEST DUP3 ADD SWAP2 SWAP1 PUSH1 0x0 MSTORE PUSH1 0x20 PUSH1 0x0 KECCAK256 SWAP1 JUMPDEST DUP2 SLOAD DUP2 MSTORE SWAP1 PUSH1 0x1 ADD SWAP1 PUSH1 0x20 ADD DUP1 DUP4 GT PUSH2 0xE16 JUMPI DUP3 SWAP1 SUB PUSH1 0x1F AND DUP3 ADD SWAP2 JUMPDEST POP POP POP POP POP SWAP2 POP DUP1 DUP1 SLOAD PUSH2 0xE46 SWAP1 PUSH2 0x1606 JUMP JUMPDEST DUP1 PUSH1 0x1F ADD PUSH1 0x20 DUP1 SWAP2 DIV MUL PUSH1 0x20 ADD PUSH1 0x40 MLOAD SWAP1 DUP2 ADD PUSH1 0x40 MSTORE DUP1 SWAP3 SWAP2 SWAP1 DUP2 DUP2 MSTORE PUSH1 0x20 ADD DUP3 DUP1 SLOAD PUSH2 0xE72 SWAP1 PUSH2 0x1606 JUMP JUMPDEST DUP1 ISZERO PUSH2 0xEBF JUMPI DUP1 PUSH1 0x1F LT PUSH2 0xE94 JUMPI PUSH2 0x100 DUP1 DUP4 SLOAD DIV MUL DUP4 MSTORE SWAP2 PUSH1 0x20 ADD SWAP2 PUSH2 0xEBF JUMP JUMPDEST DUP3 ADD SWAP2 SWAP1 PUSH1 0x0 MSTORE PUSH1 0x20 PUSH1 0x0 KECCAK256 SWAP1 JUMPDEST DUP2 SLOAD DUP2 MSTORE SWAP1 PUSH1 0x1 ADD SWAP1 PUSH1 0x20 ADD DUP1 DUP4 GT PUSH2 0xEA2 JUMPI DUP3 SWAP1 SUB PUSH1 0x1F AND DUP3 ADD SWAP2 JUMPDEST POP POP POP POP POP SWAP1 POP SWAP3 POP SWAP3 POP SWAP3 POP SWAP2 SWAP4 SWAP1 SWAP3 POP JUMP JUMPDEST PUSH1 0x60 PUSH1 0x0 DUP1 DUP4 DUP2 MSTORE PUSH1 0x20 ADD SWAP1 DUP2 MSTORE PUSH1 0x20 ADD PUSH1 0x0 KECCAK256 PUSH1 0x4 ADD PUSH1 0x0 SWAP1 SLOAD SWAP1 PUSH2 0x100 EXP SWAP1 DIV PUSH1 0xFF AND PUSH2 0xF37 JUMPI PUSH1 0x40 MLOAD PUSH32 0x8C379A000000000000000000000000000000000000000000000000000000000 DUP2 MSTORE PUSH1 0x4 ADD PUSH2 0xF2E SWAP1 PUSH2 0x1BB2 JUMP JUMPDEST PUSH1 0x40 MLOAD DUP1 SWAP2 SUB SWAP1 REVERT JUMPDEST PUSH1 0x1 PUSH1 0x0 DUP1 DUP5 DUP2 MSTORE PUSH1 0x20 ADD SWAP1 DUP2 MSTORE PUSH1 0x20 ADD PUSH1 0x0 KECCAK256 PUSH1 0x3 ADD DUP1 SLOAD PUSH2 0xF59 SWAP1 PUSH2 0x1606 JUMP JUMPDEST SWAP1 POP GT ISZERO PUSH2 0xF9E JUMPI PUSH1 0x40 MLOAD DUP1 PUSH1 0x40 ADD PUSH1 0x40 MSTORE DUP1 PUSH1 0xB DUP2 MSTORE PUSH1 0x20 ADD PUSH32 0x457870657269656E636564000000000000000000000000000000000000000000 DUP2 MSTORE POP SWAP1 POP PUSH2 0xFD7 JUMP JUMPDEST PUSH1 0x40 MLOAD DUP1 PUSH1 0x40 ADD PUSH1 0x40 MSTORE DUP1 PUSH1 0x9 DUP2 MSTORE PUSH1 0x20 ADD PUSH32 0x556E736B696C6C65640000000000000000000000000000000000000000000000 DUP2 MSTORE POP SWAP1 POP JUMPDEST SWAP2 SWAP1 POP JUMP JUMPDEST PUSH1 0x3 SLOAD DUP2 JUMP JUMPDEST PUSH1 0x0 PUSH1 0x40 MLOAD SWAP1 POP SWAP1 JUMP JUMPDEST PUSH1 0x0 DUP1 REVERT JUMPDEST PUSH1 0x0 DUP1 REVERT JUMPDEST PUSH1 0x0 DUP2 SWAP1 POP SWAP2 SWAP1 POP JUMP JUMPDEST PUSH2 0x1009 DUP2 PUSH2 0xFF6 JUMP JUMPDEST DUP2 EQ PUSH2 0x1014 JUMPI PUSH1 0x0 DUP1 REVERT JUMPDEST POP JUMP JUMPDEST PUSH1 0x0 DUP2 CALLDATALOAD SWAP1 POP PUSH2 0x1026 DUP2 PUSH2 0x1000 JUMP JUMPDEST SWAP3 SWAP2 POP POP JUMP JUMPDEST PUSH1 0x0 PUSH1 0x20 DUP3 DUP5 SUB SLT ISZERO PUSH2 0x1042 JUMPI PUSH2 0x1041 PUSH2 0xFEC JUMP JUMPDEST JUMPDEST PUSH1 0x0 PUSH2 0x1050 DUP5 DUP3 DUP6 ADD PUSH2 0x1017 JUMP JUMPDEST SWAP2 POP POP SWAP3 SWAP2 POP POP JUMP JUMPDEST PUSH2 0x1062 DUP2 PUSH2 0xFF6 JUMP JUMPDEST DUP3 MSTORE POP POP JUMP JUMPDEST PUSH1 0x0 DUP2 MLOAD SWAP1 POP SWAP2 SWAP1 POP JUMP JUMPDEST PUSH1 0x0 DUP3 DUP3 MSTORE PUSH1 0x20 DUP3 ADD SWAP1 POP SWAP3 SWAP2 POP POP JUMP JUMPDEST PUSH1 0x0 JUMPDEST DUP4 DUP2 LT ISZERO PUSH2 0x10A2 JUMPI DUP1 DUP3 ADD MLOAD DUP2 DUP5 ADD MSTORE PUSH1 0x20 DUP2 ADD SWAP1 POP PUSH2 0x1087 JUMP JUMPDEST PUSH1 0x0 DUP5 DUP5 ADD MSTORE POP POP POP POP JUMP JUMPDEST PUSH1 0x0 PUSH1 0x1F NOT PUSH1 0x1F DUP4 ADD AND SWAP1 POP SWAP2 SWAP1 POP JUMP JUMPDEST PUSH1 0x0 PUSH2 0x10CA DUP3 PUSH2 0x1068 JUMP JUMPDEST PUSH2 0x10D4 DUP2 DUP6 PUSH2 0x1073 JUMP JUMPDEST SWAP4 POP PUSH2 0x10E4 DUP2 DUP6 PUSH1 0x20 DUP7 ADD PUSH2 0x1084 JUMP JUMPDEST PUSH2 0x10ED DUP2 PUSH2 0x10AE JUMP JUMPDEST DUP5 ADD SWAP2 POP POP SWAP3 SWAP2 POP POP JUMP JUMPDEST PUSH1 0x0 PUSH20 0xFFFFFFFFFFFFFFFFFFFFFFFFFFFFFFFFFFFFFFFF DUP3 AND SWAP1 POP SWAP2 SWAP1 POP JUMP JUMPDEST PUSH1 0x0 PUSH2 0x1123 DUP3 PUSH2 0x10F8 JUMP JUMPDEST SWAP1 POP SWAP2 SWAP1 POP JUMP JUMPDEST PUSH2 0x1133 DUP2 PUSH2 0x1118 JUMP JUMPDEST DUP3 MSTORE POP POP JUMP JUMPDEST PUSH1 0x0 DUP2 ISZERO ISZERO SWAP1 POP SWAP2 SWAP1 POP JUMP JUMPDEST PUSH2 0x114E DUP2 PUSH2 0x1139 JUMP JUMPDEST DUP3 MSTORE POP POP JUMP JUMPDEST PUSH1 0x0 PUSH1 0xC0 DUP3 ADD SWAP1 POP PUSH2 0x1169 PUSH1 0x0 DUP4 ADD DUP10 PUSH2 0x1059 JUMP JUMPDEST DUP2 DUP2 SUB PUSH1 0x20 DUP4 ADD MSTORE PUSH2 0x117B DUP2 DUP9 PUSH2 0x10BF JUMP JUMPDEST SWAP1 POP DUP2 DUP2 SUB PUSH1 0x40 DUP4 ADD MSTORE PUSH2 0x118F DUP2 DUP8 PUSH2 0x10BF JUMP JUMPDEST SWAP1 POP PUSH2 0x119E PUSH1 0x60 DUP4 ADD DUP7 PUSH2 0x1059 JUMP JUMPDEST PUSH2 0x11AB PUSH1 0x80 DUP4 ADD DUP6 PUSH2 0x112A JUMP JUMPDEST PUSH2 0x11B8 PUSH1 0xA0 DUP4 ADD DUP5 PUSH2 0x1145 JUMP JUMPDEST SWAP8 SWAP7 POP POP POP POP POP POP POP JUMP JUMPDEST PUSH1 0x0 DUP1 PUSH1 0x40 DUP4 DUP6 SUB SLT ISZERO PUSH2 0x11DA JUMPI PUSH2 0x11D9 PUSH2 0xFEC JUMP JUMPDEST JUMPDEST PUSH1 0x0 PUSH2 0x11E8 DUP6 DUP3 DUP7 ADD PUSH2 0x1017 JUMP JUMPDEST SWAP3 POP POP PUSH1 0x20 PUSH2 0x11F9 DUP6 DUP3 DUP7 ADD PUSH2 0x1017 JUMP JUMPDEST SWAP2 POP POP SWAP3 POP SWAP3 SWAP1 POP JUMP JUMPDEST PUSH1 0x0 PUSH1 0x80 DUP3 ADD SWAP1 POP DUP2 DUP2 SUB PUSH1 0x0 DUP4 ADD MSTORE PUSH2 0x121D DUP2 DUP8 PUSH2 0x10BF JUMP JUMPDEST SWAP1 POP DUP2 DUP2 SUB PUSH1 0x20 DUP4 ADD MSTORE PUSH2 0x1231 DUP2 DUP7 PUSH2 0x10BF JUMP JUMPDEST SWAP1 POP PUSH2 0x1240 PUSH1 0x40 DUP4 ADD DUP6 PUSH2 0x1059 JUMP JUMPDEST PUSH2 0x124D PUSH1 0x60 DUP4 ADD DUP5 PUSH2 0x112A JUMP JUMPDEST SWAP6 SWAP5 POP POP POP POP POP JUMP JUMPDEST PUSH1 0x0 PUSH1 0x20 DUP3 ADD SWAP1 POP PUSH2 0x126B PUSH1 0x0 DUP4 ADD DUP5 PUSH2 0x1059 JUMP JUMPDEST SWAP3 SWAP2 POP POP JUMP JUMPDEST PUSH1 0x0 PUSH1 0x40 DUP3 ADD SWAP1 POP PUSH2 0x1286 PUSH1 0x0 DUP4 ADD DUP6 PUSH2 0x1059 JUMP JUMPDEST PUSH2 0x1293 PUSH1 0x20 DUP4 ADD DUP5 PUSH2 0x1059 JUMP JUMPDEST SWAP4 SWAP3 POP POP POP JUMP JUMPDEST PUSH1 0x0 PUSH1 0xA0 DUP3 ADD SWAP1 POP PUSH2 0x12AF PUSH1 0x0 DUP4 ADD DUP9 PUSH2 0x1059 JUMP JUMPDEST DUP2 DUP2 SUB PUSH1 0x20 DUP4 ADD MSTORE PUSH2 0x12C1 DUP2 DUP8 PUSH2 0x10BF JUMP JUMPDEST SWAP1 POP DUP2 DUP2 SUB PUSH1 0x40 DUP4 ADD MSTORE PUSH2 0x12D5 DUP2 DUP7 PUSH2 0x10BF JUMP JUMPDEST SWAP1 POP DUP2 DUP2 SUB PUSH1 0x60 DUP4 ADD MSTORE PUSH2 0x12E9 DUP2 DUP6 PUSH2 0x10BF JUMP JUMPDEST SWAP1 POP PUSH2 0x12F8 PUSH1 0x80 DUP4 ADD DUP5 PUSH2 0x1145 JUMP JUMPDEST SWAP7 SWAP6 POP POP POP POP POP POP JUMP JUMPDEST PUSH1 0x0 DUP1 REVERT JUMPDEST PUSH1 0x0 DUP1 REVERT JUMPDEST PUSH32 0x4E487B7100000000000000000000000000000000000000000000000000000000 PUSH1 0x0 MSTORE PUSH1 0x41 PUSH1 0x4 MSTORE PUSH1 0x24 PUSH1 0x0 REVERT JUMPDEST PUSH2 0x1344 DUP3 PUSH2 0x10AE JUMP JUMPDEST DUP2 ADD DUP2 DUP2 LT PUSH8 0xFFFFFFFFFFFFFFFF DUP3 GT OR ISZERO PUSH2 0x1363 JUMPI PUSH2 0x1362 PUSH2 0x130C JUMP JUMPDEST JUMPDEST DUP1 PUSH1 0x40 MSTORE POP POP POP JUMP JUMPDEST PUSH1 0x0 PUSH2 0x1376 PUSH2 0xFE2 JUMP JUMPDEST SWAP1 POP PUSH2 0x1382 DUP3 DUP3 PUSH2 0x133B JUMP JUMPDEST SWAP2 SWAP1 POP JUMP JUMPDEST PUSH1 0x0 PUSH8 0xFFFFFFFFFFFFFFFF DUP3 GT ISZERO PUSH2 0x13A2 JUMPI PUSH2 0x13A1 PUSH2 0x130C JUMP JUMPDEST JUMPDEST PUSH2 0x13AB DUP3 PUSH2 0x10AE JUMP JUMPDEST SWAP1 POP PUSH1 0x20 DUP2 ADD SWAP1 POP SWAP2 SWAP1 POP JUMP JUMPDEST DUP3 DUP2 DUP4 CALLDATACOPY PUSH1 0x0 DUP4 DUP4 ADD MSTORE POP POP POP JUMP JUMPDEST PUSH1 0x0 PUSH2 0x13DA PUSH2 0x13D5 DUP5 PUSH2 0x1387 JUMP JUMPDEST PUSH2 0x136C JUMP JUMPDEST SWAP1 POP DUP3 DUP2 MSTORE PUSH1 0x20 DUP2 ADD DUP5 DUP5 DUP5 ADD GT ISZERO PUSH2 0x13F6 JUMPI PUSH2 0x13F5 PUSH2 0x1307 JUMP JUMPDEST JUMPDEST PUSH2 0x1401 DUP5 DUP3 DUP6 PUSH2 0x13B8 JUMP JUMPDEST POP SWAP4 SWAP3 POP POP POP JUMP JUMPDEST PUSH1 0x0 DUP3 PUSH1 0x1F DUP4 ADD SLT PUSH2 0x141E JUMPI PUSH2 0x141D PUSH2 0x1302 JUMP JUMPDEST JUMPDEST DUP2 CALLDATALOAD PUSH2 0x142E DUP5 DUP3 PUSH1 0x20 DUP7 ADD PUSH2 0x13C7 JUMP JUMPDEST SWAP2 POP POP SWAP3 SWAP2 POP POP JUMP JUMPDEST PUSH1 0x0 DUP1 PUSH1 0x0 PUSH1 0x60 DUP5 DUP7 SUB SLT ISZERO PUSH2 0x1450 JUMPI PUSH2 0x144F PUSH2 0xFEC JUMP JUMPDEST JUMPDEST PUSH1 0x0 DUP5 ADD CALLDATALOAD PUSH8 0xFFFFFFFFFFFFFFFF DUP2 GT ISZERO PUSH2 0x146E JUMPI PUSH2 0x146D PUSH2 0xFF1 JUMP JUMPDEST JUMPDEST PUSH2 0x147A DUP7 DUP3 DUP8 ADD PUSH2 0x1409 JUMP JUMPDEST SWAP4 POP POP PUSH1 0x20 DUP5 ADD CALLDATALOAD PUSH8 0xFFFFFFFFFFFFFFFF DUP2 GT ISZERO PUSH2 0x149B JUMPI PUSH2 0x149A PUSH2 0xFF1 JUMP JUMPDEST JUMPDEST PUSH2 0x14A7 DUP7 DUP3 DUP8 ADD PUSH2 0x1409 JUMP JUMPDEST SWAP3 POP POP PUSH1 0x40 PUSH2 0x14B8 DUP7 DUP3 DUP8 ADD PUSH2 0x1017 JUMP JUMPDEST SWAP2 POP POP SWAP3 POP SWAP3 POP SWAP3 JUMP JUMPDEST PUSH1 0x0 DUP1 PUSH1 0x0 PUSH1 0x60 DUP5 DUP7 SUB SLT ISZERO PUSH2 0x14DB JUMPI PUSH2 0x14DA PUSH2 0xFEC JUMP JUMPDEST JUMPDEST PUSH1 0x0 DUP5 ADD CALLDATALOAD PUSH8 0xFFFFFFFFFFFFFFFF DUP2 GT ISZERO PUSH2 0x14F9 JUMPI PUSH2 0x14F8 PUSH2 0xFF1 JUMP JUMPDEST JUMPDEST PUSH2 0x1505 DUP7 DUP3 DUP8 ADD PUSH2 0x1409 JUMP JUMPDEST SWAP4 POP POP PUSH1 0x20 DUP5 ADD CALLDATALOAD PUSH8 0xFFFFFFFFFFFFFFFF DUP2 GT ISZERO PUSH2 0x1526 JUMPI PUSH2 0x1525 PUSH2 0xFF1 JUMP JUMPDEST JUMPDEST PUSH2 0x1532 DUP7 DUP3 DUP8 ADD PUSH2 0x1409 JUMP JUMPDEST SWAP3 POP POP PUSH1 0x40 DUP5 ADD CALLDATALOAD PUSH8 0xFFFFFFFFFFFFFFFF DUP2 GT ISZERO PUSH2 0x1553 JUMPI PUSH2 0x1552 PUSH2 0xFF1 JUMP JUMPDEST JUMPDEST PUSH2 0x155F DUP7 DUP3 DUP8 ADD PUSH2 0x1409 JUMP JUMPDEST SWAP2 POP POP SWAP3 POP SWAP3 POP SWAP3 JUMP JUMPDEST PUSH1 0x0 PUSH1 0x60 DUP3 ADD SWAP1 POP DUP2 DUP2 SUB PUSH1 0x0 DUP4 ADD MSTORE PUSH2 0x1583 DUP2 DUP7 PUSH2 0x10BF JUMP JUMPDEST SWAP1 POP DUP2 DUP2 SUB PUSH1 0x20 DUP4 ADD MSTORE PUSH2 0x1597 DUP2 DUP6 PUSH2 0x10BF JUMP JUMPDEST SWAP1 POP DUP2 DUP2 SUB PUSH1 0x40 DUP4 ADD MSTORE PUSH2 0x15AB DUP2 DUP5 PUSH2 0x10BF JUMP JUMPDEST SWAP1 POP SWAP5 SWAP4 POP POP POP POP JUMP JUMPDEST PUSH1 0x0 PUSH1 0x20 DUP3 ADD SWAP1 POP DUP2 DUP2 SUB PUSH1 0x0 DUP4 ADD MSTORE PUSH2 0x15CF DUP2 DUP5 PUSH2 0x10BF JUMP JUMPDEST SWAP1 POP SWAP3 SWAP2 POP POP JUMP JUMPDEST PUSH32 0x4E487B7100000000000000000000000000000000000000000000000000000000 PUSH1 0x0 MSTORE PUSH1 0x22 PUSH1 0x4 MSTORE PUSH1 0x24 PUSH1 0x0 REVERT JUMPDEST PUSH1 0x0 PUSH1 0x2 DUP3 DIV SWAP1 POP PUSH1 0x1 DUP3 AND DUP1 PUSH2 0x161E JUMPI PUSH1 0x7F DUP3 AND SWAP2 POP JUMPDEST PUSH1 0x20 DUP3 LT DUP2 SUB PUSH2 0x1631 JUMPI PUSH2 0x1630 PUSH2 0x15D7 JUMP JUMPDEST JUMPDEST POP SWAP2 SWAP1 POP JUMP JUMPDEST PUSH32 0x4170706C6963616E7420646F6573206E6F742065786973742E00000000000000 PUSH1 0x0 DUP3 ADD MSTORE POP JUMP JUMPDEST PUSH1 0x0 PUSH2 0x166D PUSH1 0x19 DUP4 PUSH2 0x1073 JUMP JUMPDEST SWAP2 POP PUSH2 0x1678 DUP3 PUSH2 0x1637 JUMP JUMPDEST PUSH1 0x20 DUP3 ADD SWAP1 POP SWAP2 SWAP1 POP JUMP JUMPDEST PUSH1 0x0 PUSH1 0x20 DUP3 ADD SWAP1 POP DUP2 DUP2 SUB PUSH1 0x0 DUP4 ADD MSTORE PUSH2 0x169C DUP2 PUSH2 0x1660 JUMP JUMPDEST SWAP1 POP SWAP2 SWAP1 POP JUMP JUMPDEST PUSH32 0x526174696E672076616C7565206D757374206265206265747765656E20302061 PUSH1 0x0 DUP3 ADD MSTORE PUSH32 0x6E6420352E000000000000000000000000000000000000000000000000000000 PUSH1 0x20 DUP3 ADD MSTORE POP JUMP JUMPDEST PUSH1 0x0 PUSH2 0x16FF PUSH1 0x25 DUP4 PUSH2 0x1073 JUMP JUMPDEST SWAP2 POP PUSH2 0x170A DUP3 PUSH2 0x16A3 JUMP JUMPDEST PUSH1 0x40 DUP3 ADD SWAP1 POP SWAP2 SWAP1 POP JUMP JUMPDEST PUSH1 0x0 PUSH1 0x20 DUP3 ADD SWAP1 POP DUP2 DUP2 SUB PUSH1 0x0 DUP4 ADD MSTORE PUSH2 0x172E DUP2 PUSH2 0x16F2 JUMP JUMPDEST SWAP1 POP SWAP2 SWAP1 POP JUMP JUMPDEST PUSH32 0x4E487B7100000000000000000000000000000000000000000000000000000000 PUSH1 0x0 MSTORE PUSH1 0x11 PUSH1 0x4 MSTORE PUSH1 0x24 PUSH1 0x0 REVERT JUMPDEST PUSH1 0x0 PUSH2 0x176F DUP3 PUSH2 0xFF6 JUMP JUMPDEST SWAP2 POP PUSH2 0x177A DUP4 PUSH2 0xFF6 JUMP JUMPDEST SWAP3 POP DUP3 DUP3 ADD SWAP1 POP DUP1 DUP3 GT ISZERO PUSH2 0x1792 JUMPI PUSH2 0x1791 PUSH2 0x1735 JUMP JUMPDEST JUMPDEST SWAP3 SWAP2 POP POP JUMP JUMPDEST PUSH1 0x0 PUSH2 0x17A3 DUP3 PUSH2 0xFF6 JUMP JUMPDEST SWAP2 POP PUSH32 0xFFFFFFFFFFFFFFFFFFFFFFFFFFFFFFFFFFFFFFFFFFFFFFFFFFFFFFFFFFFFFFFF DUP3 SUB PUSH2 0x17D5 JUMPI PUSH2 0x17D4 PUSH2 0x1735 JUMP JUMPDEST JUMPDEST PUSH1 0x1 DUP3 ADD SWAP1 POP SWAP2 SWAP1 POP JUMP JUMPDEST PUSH32 0x4A6F6220646F6573206E6F742065786973740000000000000000000000000000 PUSH1 0x0 DUP3 ADD MSTORE POP JUMP JUMPDEST PUSH1 0x0 PUSH2 0x1816 PUSH1 0x12 DUP4 PUSH2 0x1073 JUMP JUMPDEST SWAP2 POP PUSH2 0x1821 DUP3 PUSH2 0x17E0 JUMP JUMPDEST PUSH1 0x20 DUP3 ADD SWAP1 POP SWAP2 SWAP1 POP JUMP JUMPDEST PUSH1 0x0 PUSH1 0x20 DUP3 ADD SWAP1 POP DUP2 DUP2 SUB PUSH1 0x0 DUP4 ADD MSTORE PUSH2 0x1845 DUP2 PUSH2 0x1809 JUMP JUMPDEST SWAP1 POP SWAP2 SWAP1 POP JUMP JUMPDEST PUSH1 0x0 DUP2 SWAP1 POP DUP2 PUSH1 0x0 MSTORE PUSH1 0x20 PUSH1 0x0 KECCAK256 SWAP1 POP SWAP2 SWAP1 POP JUMP JUMPDEST PUSH1 0x0 PUSH1 0x20 PUSH1 0x1F DUP4 ADD DIV SWAP1 POP SWAP2 SWAP1 POP JUMP JUMPDEST PUSH1 0x0 DUP3 DUP3 SHL SWAP1 POP SWAP3 SWAP2 POP POP JUMP JUMPDEST PUSH1 0x0 PUSH1 0x8 DUP4 MUL PUSH2 0x18AE PUSH32 0xFFFFFFFFFFFFFFFFFFFFFFFFFFFFFFFFFFFFFFFFFFFFFFFFFFFFFFFFFFFFFFFF DUP3 PUSH2 0x1871 JUMP JUMPDEST PUSH2 0x18B8 DUP7 DUP4 PUSH2 0x1871 JUMP JUMPDEST SWAP6 POP DUP1 NOT DUP5 AND SWAP4 POP DUP1 DUP7 AND DUP5 OR SWAP3 POP POP POP SWAP4 SWAP3 POP POP POP JUMP JUMPDEST PUSH1 0x0 DUP2 SWAP1 POP SWAP2 SWAP1 POP JUMP JUMPDEST PUSH1 0x0 PUSH2 0x18F5 PUSH2 0x18F0 PUSH2 0x18EB DUP5 PUSH2 0xFF6 JUMP JUMPDEST PUSH2 0x18D0 JUMP JUMPDEST PUSH2 0xFF6 JUMP JUMPDEST SWAP1 POP SWAP2 SWAP1 POP JUMP JUMPDEST PUSH1 0x0 DUP2 SWAP1 POP SWAP2 SWAP1 POP JUMP JUMPDEST PUSH2 0x190F DUP4 PUSH2 0x18DA JUMP JUMPDEST PUSH2 0x1923 PUSH2 0x191B DUP3 PUSH2 0x18FC JUMP JUMPDEST DUP5 DUP5 SLOAD PUSH2 0x187E JUMP JUMPDEST DUP3 SSTORE POP POP POP POP JUMP JUMPDEST PUSH1 0x0 SWAP1 JUMP JUMPDEST PUSH2 0x1938 PUSH2 0x192B JUMP JUMPDEST PUSH2 0x1943 DUP2 DUP5 DUP5 PUSH2 0x1906 JUMP JUMPDEST POP POP POP JUMP JUMPDEST JUMPDEST DUP2 DUP2 LT ISZERO PUSH2 0x1967 JUMPI PUSH2 0x195C PUSH1 0x0 DUP3 PUSH2 0x1930 JUMP JUMPDEST PUSH1 0x1 DUP2 ADD SWAP1 POP PUSH2 0x1949 JUMP JUMPDEST POP POP JUMP JUMPDEST PUSH1 0x1F DUP3 GT ISZERO PUSH2 0x19AC JUMPI PUSH2 0x197D DUP2 PUSH2 0x184C JUMP JUMPDEST PUSH2 0x1986 DUP5 PUSH2 0x1861 JUMP JUMPDEST DUP2 ADD PUSH1 0x20 DUP6 LT ISZERO PUSH2 0x1995 JUMPI DUP2 SWAP1 POP JUMPDEST PUSH2 0x19A9 PUSH2 0x19A1 DUP6 PUSH2 0x1861 JUMP JUMPDEST DUP4 ADD DUP3 PUSH2 0x1948 JUMP JUMPDEST POP POP JUMPDEST POP POP POP JUMP JUMPDEST PUSH1 0x0 DUP3 DUP3 SHR SWAP1 POP SWAP3 SWAP2 POP POP JUMP JUMPDEST PUSH1 0x0 PUSH2 0x19CF PUSH1 0x0 NOT DUP5 PUSH1 0x8 MUL PUSH2 0x19B1 JUMP JUMPDEST NOT DUP1 DUP4 AND SWAP2 POP POP SWAP3 SWAP2 POP POP JUMP JUMPDEST PUSH1 0x0 PUSH2 0x19E8 DUP4 DUP4 PUSH2 0x19BE JUMP JUMPDEST SWAP2 POP DUP3 PUSH1 0x2 MUL DUP3 OR SWAP1 POP SWAP3 SWAP2 POP POP JUMP JUMPDEST PUSH2 0x1A01 DUP3 PUSH2 0x1068 JUMP JUMPDEST PUSH8 0xFFFFFFFFFFFFFFFF DUP2 GT ISZERO PUSH2 0x1A1A JUMPI PUSH2 0x1A19 PUSH2 0x130C JUMP JUMPDEST JUMPDEST PUSH2 0x1A24 DUP3 SLOAD PUSH2 0x1606 JUMP JUMPDEST PUSH2 0x1A2F DUP3 DUP3 DUP6 PUSH2 0x196B JUMP JUMPDEST PUSH1 0x0 PUSH1 0x20 SWAP1 POP PUSH1 0x1F DUP4 GT PUSH1 0x1 DUP2 EQ PUSH2 0x1A62 JUMPI PUSH1 0x0 DUP5 ISZERO PUSH2 0x1A50 JUMPI DUP3 DUP8 ADD MLOAD SWAP1 POP JUMPDEST PUSH2 0x1A5A DUP6 DUP3 PUSH2 0x19DC JUMP JUMPDEST DUP7 SSTORE POP PUSH2 0x1AC2 JUMP JUMPDEST PUSH1 0x1F NOT DUP5 AND PUSH2 0x1A70 DUP7 PUSH2 0x184C JUMP JUMPDEST PUSH1 0x0 JUMPDEST DUP3 DUP2 LT ISZERO PUSH2 0x1A98 JUMPI DUP5 DUP10 ADD MLOAD DUP3 SSTORE PUSH1 0x1 DUP3 ADD SWAP2 POP PUSH1 0x20 DUP6 ADD SWAP5 POP PUSH1 0x20 DUP2 ADD SWAP1 POP PUSH2 0x1A73 JUMP JUMPDEST DUP7 DUP4 LT ISZERO PUSH2 0x1AB5 JUMPI DUP5 DUP10 ADD MLOAD PUSH2 0x1AB1 PUSH1 0x1F DUP10 AND DUP3 PUSH2 0x19BE JUMP JUMPDEST DUP4 SSTORE POP JUMPDEST PUSH1 0x1 PUSH1 0x2 DUP9 MUL ADD DUP9 SSTORE POP POP POP JUMPDEST POP POP POP POP POP POP JUMP JUMPDEST PUSH1 0x0 PUSH1 0x40 DUP3 ADD SWAP1 POP PUSH2 0x1ADF PUSH1 0x0 DUP4 ADD DUP6 PUSH2 0x1059 JUMP JUMPDEST DUP2 DUP2 SUB PUSH1 0x20 DUP4 ADD MSTORE PUSH2 0x1AF1 DUP2 DUP5 PUSH2 0x10BF JUMP JUMPDEST SWAP1 POP SWAP4 SWAP3 POP POP POP JUMP JUMPDEST PUSH32 0x4E6F742076616C69640000000000000000000000000000000000000000000000 PUSH1 0x0 DUP3 ADD MSTORE POP JUMP JUMPDEST PUSH1 0x0 PUSH2 0x1B30 PUSH1 0x9 DUP4 PUSH2 0x1073 JUMP JUMPDEST SWAP2 POP PUSH2 0x1B3B DUP3 PUSH2 0x1AFA JUMP JUMPDEST PUSH1 0x20 DUP3 ADD SWAP1 POP SWAP2 SWAP1 POP JUMP JUMPDEST PUSH1 0x0 PUSH1 0x20 DUP3 ADD SWAP1 POP DUP2 DUP2 SUB PUSH1 0x0 DUP4 ADD MSTORE PUSH2 0x1B5F DUP2 PUSH2 0x1B23 JUMP JUMPDEST SWAP1 POP SWAP2 SWAP1 POP JUMP JUMPDEST PUSH32 0x496E76616C696400000000000000000000000000000000000000000000000000 PUSH1 0x0 DUP3 ADD MSTORE POP JUMP JUMPDEST PUSH1 0x0 PUSH2 0x1B9C PUSH1 0x7 DUP4 PUSH2 0x1073 JUMP JUMPDEST SWAP2 POP PUSH2 0x1BA7 DUP3 PUSH2 0x1B66 JUMP JUMPDEST PUSH1 0x20 DUP3 ADD SWAP1 POP SWAP2 SWAP1 POP JUMP JUMPDEST PUSH1 0x0 PUSH1 0x20 DUP3 ADD SWAP1 POP DUP2 DUP2 SUB PUSH1 0x0 DUP4 ADD MSTORE PUSH2 0x1BCB DUP2 PUSH2 0x1B8F JUMP JUMPDEST SWAP1 POP SWAP2 SWAP1 POP JUMP INVALID LOG2 PUSH5 0x6970667358 0x22 SLT KECCAK256 0xB8 0x21 0x4F DUP5 CODECOPY PUSH5 0xBDEEBC5DC2 0xC3 DUP2 SMOD ADDRESS 0xDD MSIZE 0xB2 0x1F SWAP8 0x26 TIMESTAMP 0xC0 0xE5 0xD5 LOG3 0xE4 0xA9 ADD MULMOD MULMOD CALL PUSH5 0x736F6C6343 STOP ADDMOD SLT STOP CALLER "
				},
				"gasEstimates": {
					"creation": {
						"codeDepositCost": "1435200",
						"executionCost": "1499",
						"totalCost": "1436699"
					},
					"external": {
						"acount()": "2539",
						"addNewApplicant(string,string,string)": "infinite",
						"addNewJob(string,string,uint256)": "infinite",
						"applicants(uint256)": "infinite",
						"fetchApplicantRating(uint256)": "infinite",
						"getApplicantType(uint256)": "infinite",
						"getApplicantValues(uint256)": "infinite",
						"getJobDetails(uint256)": "infinite",
						"giveRating(uint256,uint256)": "infinite",
						"jcount()": "2496",
						"jobs(uint256)": "infinite",
						"ratings(uint256)": "infinite"
					}
				},
				"methodIdentifiers": {
					"acount()": "ecb109e9",
					"addNewApplicant(string,string,string)": "725d89ba",
					"addNewJob(string,string,uint256)": "640ed3fe",
					"applicants(uint256)": "63de5323",
					"fetchApplicantRating(uint256)": "6c8548ff",
					"getApplicantType(uint256)": "d280267d",
					"getApplicantValues(uint256)": "9df752be",
					"getJobDetails(uint256)": "4cac35c6",
					"giveRating(uint256,uint256)": "1a36520d",
					"jcount()": "59f9743f",
					"jobs(uint256)": "180aedf3",
					"ratings(uint256)": "5d30e84d"
				}
			},
			"storageLayout": {
				"storage": [
					{
						"astId": 35,
						"contract": "contracts/newproject.sol:Dapp",
						"label": "applicants",
						"offset": 0,
						"slot": "0",
						"type": "t_mapping(t_uint256,t_struct(Applicant)12_storage)"
					},
					{
						"astId": 40,
						"contract": "contracts/newproject.sol:Dapp",
						"label": "jobs",
						"offset": 0,
						"slot": "1",
						"type": "t_mapping(t_uint256,t_struct(Job)25_storage)"
					},
					{
						"astId": 45,
						"contract": "contracts/newproject.sol:Dapp",
						"label": "ratings",
						"offset": 0,
						"slot": "2",
						"type": "t_mapping(t_uint256,t_struct(Rating)30_storage)"
					},
					{
						"astId": 47,
						"contract": "contracts/newproject.sol:Dapp",
						"label": "acount",
						"offset": 0,
						"slot": "3",
						"type": "t_uint256"
					},
					{
						"astId": 49,
						"contract": "contracts/newproject.sol:Dapp",
						"label": "jcount",
						"offset": 0,
						"slot": "4",
						"type": "t_uint256"
					}
				],
				"types": {
					"t_address": {
						"encoding": "inplace",
						"label": "address",
						"numberOfBytes": "20"
					},
					"t_bool": {
						"encoding": "inplace",
						"label": "bool",
						"numberOfBytes": "1"
					},
					"t_mapping(t_uint256,t_struct(Applicant)12_storage)": {
						"encoding": "mapping",
						"key": "t_uint256",
						"label": "mapping(uint256 => struct Dapp.Applicant)",
						"numberOfBytes": "32",
						"value": "t_struct(Applicant)12_storage"
					},
					"t_mapping(t_uint256,t_struct(Job)25_storage)": {
						"encoding": "mapping",
						"key": "t_uint256",
						"label": "mapping(uint256 => struct Dapp.Job)",
						"numberOfBytes": "32",
						"value": "t_struct(Job)25_storage"
					},
					"t_mapping(t_uint256,t_struct(Rating)30_storage)": {
						"encoding": "mapping",
						"key": "t_uint256",
						"label": "mapping(uint256 => struct Dapp.Rating)",
						"numberOfBytes": "32",
						"value": "t_struct(Rating)30_storage"
					},
					"t_string_storage": {
						"encoding": "bytes",
						"label": "string",
						"numberOfBytes": "32"
					},
					"t_struct(Applicant)12_storage": {
						"encoding": "inplace",
						"label": "struct Dapp.Applicant",
						"members": [
							{
								"astId": 3,
								"contract": "contracts/newproject.sol:Dapp",
								"label": "id",
								"offset": 0,
								"slot": "0",
								"type": "t_uint256"
							},
							{
								"astId": 5,
								"contract": "contracts/newproject.sol:Dapp",
								"label": "name",
								"offset": 0,
								"slot": "1",
								"type": "t_string_storage"
							},
							{
								"astId": 7,
								"contract": "contracts/newproject.sol:Dapp",
								"label": "skills",
								"offset": 0,
								"slot": "2",
								"type": "t_string_storage"
							},
							{
								"astId": 9,
								"contract": "contracts/newproject.sol:Dapp",
								"label": "experience",
								"offset": 0,
								"slot": "3",
								"type": "t_string_storage"
							},
							{
								"astId": 11,
								"contract": "contracts/newproject.sol:Dapp",
								"label": "registered",
								"offset": 0,
								"slot": "4",
								"type": "t_bool"
							}
						],
						"numberOfBytes": "160"
					},
					"t_struct(Job)25_storage": {
						"encoding": "inplace",
						"label": "struct Dapp.Job",
						"members": [
							{
								"astId": 14,
								"contract": "contracts/newproject.sol:Dapp",
								"label": "id",
								"offset": 0,
								"slot": "0",
								"type": "t_uint256"
							},
							{
								"astId": 16,
								"contract": "contracts/newproject.sol:Dapp",
								"label": "title",
								"offset": 0,
								"slot": "1",
								"type": "t_string_storage"
							},
							{
								"astId": 18,
								"contract": "contracts/newproject.sol:Dapp",
								"label": "skillsrequired",
								"offset": 0,
								"slot": "2",
								"type": "t_string_storage"
							},
							{
								"astId": 20,
								"contract": "contracts/newproject.sol:Dapp",
								"label": "salary",
								"offset": 0,
								"slot": "3",
								"type": "t_uint256"
							},
							{
								"astId": 22,
								"contract": "contracts/newproject.sol:Dapp",
								"label": "provider",
								"offset": 0,
								"slot": "4",
								"type": "t_address"
							},
							{
								"astId": 24,
								"contract": "contracts/newproject.sol:Dapp",
								"label": "available",
								"offset": 20,
								"slot": "4",
								"type": "t_bool"
							}
						],
						"numberOfBytes": "160"
					},
					"t_struct(Rating)30_storage": {
						"encoding": "inplace",
						"label": "struct Dapp.Rating",
						"members": [
							{
								"astId": 27,
								"contract": "contracts/newproject.sol:Dapp",
								"label": "rating",
								"offset": 0,
								"slot": "0",
								"type": "t_uint256"
							},
							{
								"astId": 29,
								"contract": "contracts/newproject.sol:Dapp",
								"label": "overallrating",
								"offset": 0,
								"slot": "1",
								"type": "t_uint256"
							}
						],
						"numberOfBytes": "64"
					},
					"t_uint256": {
						"encoding": "inplace",
						"label": "uint256",
						"numberOfBytes": "32"
					}
				}
			},
			"userdoc": {
				"kind": "user",
				"methods": {},
				"version": 1
			}
		}
	}
}