{
	"contracts/newproject2.sol": {
		"FarmProduct": {
			"abi": [
				{
					"anonymous": false,
					"inputs": [
						{
							"indexed": false,
							"internalType": "uint256",
							"name": "productId",
							"type": "uint256"
						}
					],
					"name": "ProductAdded",
					"type": "event"
				},
				{
					"inputs": [
						{
							"internalType": "uint256",
							"name": "_productId",
							"type": "uint256"
						},
						{
							"internalType": "string",
							"name": "_productDescription",
							"type": "string"
						},
						{
							"internalType": "string",
							"name": "_producerName",
							"type": "string"
						},
						{
							"internalType": "string",
							"name": "_producerAddress",
							"type": "string"
						},
						{
							"internalType": "uint256",
							"name": "_harvestDate",
							"type": "uint256"
						}
					],
					"name": "addProduct",
					"outputs": [],
					"stateMutability": "nonpayable",
					"type": "function"
				},
				{
					"inputs": [],
					"name": "productCount",
					"outputs": [
						{
							"internalType": "uint256",
							"name": "",
							"type": "uint256"
						}
					],
					"stateMutability": "view",
					"type": "function"
				},
				{
					"inputs": [
						{
							"internalType": "uint256",
							"name": "",
							"type": "uint256"
						}
					],
					"name": "products",
					"outputs": [
						{
							"internalType": "uint256",
							"name": "productId",
							"type": "uint256"
						},
						{
							"internalType": "string",
							"name": "productDescription",
							"type": "string"
						},
						{
							"internalType": "string",
							"name": "producerName",
							"type": "string"
						},
						{
							"internalType": "string",
							"name": "producerAddress",
							"type": "string"
						},
						{
							"internalType": "uint256",
							"name": "harvestDate",
							"type": "uint256"
						},
						{
							"internalType": "string",
							"name": "distributorName",
							"type": "string"
						},
						{
							"internalType": "string",
							"name": "distributorAddress",
							"type": "string"
						},
						{
							"internalType": "uint256",
							"name": "prodToDistDate",
							"type": "uint256"
						},
						{
							"internalType": "string",
							"name": "retailerName",
							"type": "string"
						},
						{
							"internalType": "string",
							"name": "retailerAddress",
							"type": "string"
						},
						{
							"internalType": "uint256",
							"name": "distToRetaDate",
							"type": "uint256"
						}
					],
					"stateMutability": "view",
					"type": "function"
				},
				{
					"inputs": [
						{
							"internalType": "uint256",
							"name": "_productId",
							"type": "uint256"
						},
						{
							"internalType": "string",
							"name": "_distributorName",
							"type": "string"
						},
						{
							"internalType": "string",
							"name": "_distributorAddress",
							"type": "string"
						},
						{
							"internalType": "uint256",
							"name": "_transferDate",
							"type": "uint256"
						}
					],
					"name": "transferToDistributor",
					"outputs": [],
					"stateMutability": "nonpayable",
					"type": "function"
				},
				{
					"inputs": [
						{
							"internalType": "uint256",
							"name": "_productId",
							"type": "uint256"
						},
						{
							"internalType": "string",
							"name": "_retailerName",
							"type": "string"
						},
						{
							"internalType": "string",
							"name": "_retailerAddress",
							"type": "string"
						},
						{
							"internalType": "uint256",
							"name": "_transferDate",
							"type": "uint256"
						}
					],
					"name": "transferToRetailer",
					"outputs": [],
					"stateMutability": "nonpayable",
					"type": "function"
				},
				{
					"inputs": [
						{
							"internalType": "uint256",
							"name": "_productId",
							"type": "uint256"
						}
					],
					"name": "viewAssetDetails",
					"outputs": [
						{
							"components": [
								{
									"internalType": "uint256",
									"name": "productId",
									"type": "uint256"
								},
								{
									"internalType": "string",
									"name": "productDescription",
									"type": "string"
								},
								{
									"internalType": "string",
									"name": "producerName",
									"type": "string"
								},
								{
									"internalType": "string",
									"name": "producerAddress",
									"type": "string"
								},
								{
									"internalType": "uint256",
									"name": "harvestDate",
									"type": "uint256"
								},
								{
									"internalType": "string",
									"name": "distributorName",
									"type": "string"
								},
								{
									"internalType": "string",
									"name": "distributorAddress",
									"type": "string"
								},
								{
									"internalType": "uint256",
									"name": "prodToDistDate",
									"type": "uint256"
								},
								{
									"internalType": "string",
									"name": "retailerName",
									"type": "string"
								},
								{
									"internalType": "string",
									"name": "retailerAddress",
									"type": "string"
								},
								{
									"internalType": "uint256",
									"name": "distToRetaDate",
									"type": "uint256"
								}
							],
							"internalType": "struct FarmProduct.Product",
							"name": "",
							"type": "tuple"
						}
					],
					"stateMutability": "view",
					"type": "function"
				}
			],
			"devdoc": {
				"kind": "dev",
				"methods": {},
				"version": 1
			},
			"evm": {
				"assembly": "    /* \"contracts/newproject2.sol\":60:2616  contract FarmProduct {... */\n  mstore(0x40, 0x80)\n  callvalue\n  dup1\n  iszero\n  tag_1\n  jumpi\n  0x00\n  dup1\n  revert\ntag_1:\n  pop\n  dataSize(sub_0)\n  dup1\n  dataOffset(sub_0)\n  0x00\n  codecopy\n  0x00\n  return\nstop\n\nsub_0: assembly {\n        /* \"contracts/newproject2.sol\":60:2616  contract FarmProduct {... */\n      mstore(0x40, 0x80)\n      callvalue\n      dup1\n      iszero\n      tag_1\n      jumpi\n      0x00\n      dup1\n      revert\n    tag_1:\n      pop\n      jumpi(tag_2, lt(calldatasize, 0x04))\n      shr(0xe0, calldataload(0x00))\n      dup1\n      0x56f2fc09\n      eq\n      tag_3\n      jumpi\n      dup1\n      0x7acc0b20\n      eq\n      tag_4\n      jumpi\n      dup1\n      0xc67b3d1d\n      eq\n      tag_5\n      jumpi\n      dup1\n      0xda4cbe5a\n      eq\n      tag_6\n      jumpi\n      dup1\n      0xe0f6ef87\n      eq\n      tag_7\n      jumpi\n      dup1\n      0xfcb6e31d\n      eq\n      tag_8\n      jumpi\n    tag_2:\n      0x00\n      dup1\n      revert\n        /* \"contracts/newproject2.sol\":1348:1869  function transferToDistributor(... */\n    tag_3:\n      tag_9\n      0x04\n      dup1\n      calldatasize\n      sub\n      dup2\n      add\n      swap1\n      tag_10\n      swap2\n      swap1\n      tag_11\n      jump\t// in\n    tag_10:\n      tag_12\n      jump\t// in\n    tag_9:\n      stop\n        /* \"contracts/newproject2.sol\":474:517  mapping(uint256 => Product) public products */\n    tag_4:\n      tag_13\n      0x04\n      dup1\n      calldatasize\n      sub\n      dup2\n      add\n      swap1\n      tag_14\n      swap2\n      swap1\n      tag_15\n      jump\t// in\n    tag_14:\n      tag_16\n      jump\t// in\n    tag_13:\n      mload(0x40)\n      tag_17\n      swap12\n      swap11\n      swap10\n      swap9\n      swap8\n      swap7\n      swap6\n      swap5\n      swap4\n      swap3\n      swap2\n      swap1\n      tag_18\n      jump\t// in\n    tag_17:\n      mload(0x40)\n      dup1\n      swap2\n      sub\n      swap1\n      return\n        /* \"contracts/newproject2.sol\":612:1336  function addProduct(... */\n    tag_5:\n      tag_19\n      0x04\n      dup1\n      calldatasize\n      sub\n      dup2\n      add\n      swap1\n      tag_20\n      swap2\n      swap1\n      tag_21\n      jump\t// in\n    tag_20:\n      tag_22\n      jump\t// in\n    tag_19:\n      stop\n        /* \"contracts/newproject2.sol\":1877:2377  function transferToRetailer(... */\n    tag_6:\n      tag_23\n      0x04\n      dup1\n      calldatasize\n      sub\n      dup2\n      add\n      swap1\n      tag_24\n      swap2\n      swap1\n      tag_11\n      jump\t// in\n    tag_24:\n      tag_25\n      jump\t// in\n    tag_23:\n      stop\n        /* \"contracts/newproject2.sol\":524:551  uint256 public productCount */\n    tag_7:\n      tag_26\n      tag_27\n      jump\t// in\n    tag_26:\n      mload(0x40)\n      tag_28\n      swap2\n      swap1\n      tag_29\n      jump\t// in\n    tag_28:\n      mload(0x40)\n      dup1\n      swap2\n      sub\n      swap1\n      return\n        /* \"contracts/newproject2.sol\":2390:2613  function viewAssetDetails(uint256 _productId) public view returns (Product memory) {... */\n    tag_8:\n      tag_30\n      0x04\n      dup1\n      calldatasize\n      sub\n      dup2\n      add\n      swap1\n      tag_31\n      swap2\n      swap1\n      tag_15\n      jump\t// in\n    tag_31:\n      tag_32\n      jump\t// in\n    tag_30:\n      mload(0x40)\n      tag_33\n      swap2\n      swap1\n      tag_34\n      jump\t// in\n    tag_33:\n      mload(0x40)\n      dup1\n      swap2\n      sub\n      swap1\n      return\n        /* \"contracts/newproject2.sol\":1348:1869  function transferToDistributor(... */\n    tag_12:\n        /* \"contracts/newproject2.sol\":1592:1593  0 */\n      0x00\n        /* \"contracts/newproject2.sol\":1558:1566  products */\n      dup1\n        /* \"contracts/newproject2.sol\":1558:1578  products[_productId] */\n      0x00\n        /* \"contracts/newproject2.sol\":1567:1577  _productId */\n      dup7\n        /* \"contracts/newproject2.sol\":1558:1578  products[_productId] */\n      dup2\n      mstore\n      0x20\n      add\n      swap1\n      dup2\n      mstore\n      0x20\n      add\n      0x00\n      keccak256\n        /* \"contracts/newproject2.sol\":1558:1588  products[_productId].productId */\n      0x00\n      add\n      sload\n        /* \"contracts/newproject2.sol\":1558:1593  products[_productId].productId != 0 */\n      sub\n        /* \"contracts/newproject2.sol\":1550:1633  require(products[_productId].productId != 0, \"Product with this ID does not exist\") */\n      tag_36\n      jumpi\n      mload(0x40)\n      0x08c379a000000000000000000000000000000000000000000000000000000000\n      dup2\n      mstore\n      0x04\n      add\n      tag_37\n      swap1\n      tag_38\n      jump\t// in\n    tag_37:\n      mload(0x40)\n      dup1\n      swap2\n      sub\n      swap1\n      revert\n    tag_36:\n        /* \"contracts/newproject2.sol\":1654:1677  Product storage product */\n      0x00\n        /* \"contracts/newproject2.sol\":1680:1688  products */\n      dup1\n        /* \"contracts/newproject2.sol\":1680:1700  products[_productId] */\n      0x00\n        /* \"contracts/newproject2.sol\":1689:1699  _productId */\n      dup7\n        /* \"contracts/newproject2.sol\":1680:1700  products[_productId] */\n      dup2\n      mstore\n      0x20\n      add\n      swap1\n      dup2\n      mstore\n      0x20\n      add\n      0x00\n      keccak256\n        /* \"contracts/newproject2.sol\":1654:1700  Product storage product = products[_productId] */\n      swap1\n      pop\n        /* \"contracts/newproject2.sol\":1737:1753  _distributorName */\n      dup4\n        /* \"contracts/newproject2.sol\":1711:1718  product */\n      dup2\n        /* \"contracts/newproject2.sol\":1711:1734  product.distributorName */\n      0x05\n      add\n        /* \"contracts/newproject2.sol\":1711:1753  product.distributorName = _distributorName */\n      swap1\n      dup2\n      tag_39\n      swap2\n      swap1\n      tag_40\n      jump\t// in\n    tag_39:\n      pop\n        /* \"contracts/newproject2.sol\":1793:1812  _distributorAddress */\n      dup3\n        /* \"contracts/newproject2.sol\":1764:1771  product */\n      dup2\n        /* \"contracts/newproject2.sol\":1764:1790  product.distributorAddress */\n      0x06\n      add\n        /* \"contracts/newproject2.sol\":1764:1812  product.distributorAddress = _distributorAddress */\n      swap1\n      dup2\n      tag_41\n      swap2\n      swap1\n      tag_40\n      jump\t// in\n    tag_41:\n      pop\n        /* \"contracts/newproject2.sol\":1848:1861  _transferDate */\n      dup2\n        /* \"contracts/newproject2.sol\":1823:1830  product */\n      dup2\n        /* \"contracts/newproject2.sol\":1823:1845  product.prodToDistDate */\n      0x07\n      add\n        /* \"contracts/newproject2.sol\":1823:1861  product.prodToDistDate = _transferDate */\n      dup2\n      swap1\n      sstore\n      pop\n        /* \"contracts/newproject2.sol\":1539:1869  {... */\n      pop\n        /* \"contracts/newproject2.sol\":1348:1869  function transferToDistributor(... */\n      pop\n      pop\n      pop\n      pop\n      jump\t// out\n        /* \"contracts/newproject2.sol\":474:517  mapping(uint256 => Product) public products */\n    tag_16:\n      mstore(0x20, 0x00)\n      dup1\n      0x00\n      mstore\n      keccak256(0x00, 0x40)\n      0x00\n      swap2\n      pop\n      swap1\n      pop\n      dup1\n      0x00\n      add\n      sload\n      swap1\n      dup1\n      0x01\n      add\n      dup1\n      sload\n      tag_42\n      swap1\n      tag_43\n      jump\t// in\n    tag_42:\n      dup1\n      0x1f\n      add\n      0x20\n      dup1\n      swap2\n      div\n      mul\n      0x20\n      add\n      mload(0x40)\n      swap1\n      dup2\n      add\n      0x40\n      mstore\n      dup1\n      swap3\n      swap2\n      swap1\n      dup2\n      dup2\n      mstore\n      0x20\n      add\n      dup3\n      dup1\n      sload\n      tag_44\n      swap1\n      tag_43\n      jump\t// in\n    tag_44:\n      dup1\n      iszero\n      tag_45\n      jumpi\n      dup1\n      0x1f\n      lt\n      tag_46\n      jumpi\n      0x0100\n      dup1\n      dup4\n      sload\n      div\n      mul\n      dup4\n      mstore\n      swap2\n      0x20\n      add\n      swap2\n      jump(tag_45)\n    tag_46:\n      dup3\n      add\n      swap2\n      swap1\n      0x00\n      mstore\n      keccak256(0x00, 0x20)\n      swap1\n    tag_47:\n      dup2\n      sload\n      dup2\n      mstore\n      swap1\n      0x01\n      add\n      swap1\n      0x20\n      add\n      dup1\n      dup4\n      gt\n      tag_47\n      jumpi\n      dup3\n      swap1\n      sub\n      0x1f\n      and\n      dup3\n      add\n      swap2\n    tag_45:\n      pop\n      pop\n      pop\n      pop\n      pop\n      swap1\n      dup1\n      0x02\n      add\n      dup1\n      sload\n      tag_48\n      swap1\n      tag_43\n      jump\t// in\n    tag_48:\n      dup1\n      0x1f\n      add\n      0x20\n      dup1\n      swap2\n      div\n      mul\n      0x20\n      add\n      mload(0x40)\n      swap1\n      dup2\n      add\n      0x40\n      mstore\n      dup1\n      swap3\n      swap2\n      swap1\n      dup2\n      dup2\n      mstore\n      0x20\n      add\n      dup3\n      dup1\n      sload\n      tag_49\n      swap1\n      tag_43\n      jump\t// in\n    tag_49:\n      dup1\n      iszero\n      tag_50\n      jumpi\n      dup1\n      0x1f\n      lt\n      tag_51\n      jumpi\n      0x0100\n      dup1\n      dup4\n      sload\n      div\n      mul\n      dup4\n      mstore\n      swap2\n      0x20\n      add\n      swap2\n      jump(tag_50)\n    tag_51:\n      dup3\n      add\n      swap2\n      swap1\n      0x00\n      mstore\n      keccak256(0x00, 0x20)\n      swap1\n    tag_52:\n      dup2\n      sload\n      dup2\n      mstore\n      swap1\n      0x01\n      add\n      swap1\n      0x20\n      add\n      dup1\n      dup4\n      gt\n      tag_52\n      jumpi\n      dup3\n      swap1\n      sub\n      0x1f\n      and\n      dup3\n      add\n      swap2\n    tag_50:\n      pop\n      pop\n      pop\n      pop\n      pop\n      swap1\n      dup1\n      0x03\n      add\n      dup1\n      sload\n      tag_53\n      swap1\n      tag_43\n      jump\t// in\n    tag_53:\n      dup1\n      0x1f\n      add\n      0x20\n      dup1\n      swap2\n      div\n      mul\n      0x20\n      add\n      mload(0x40)\n      swap1\n      dup2\n      add\n      0x40\n      mstore\n      dup1\n      swap3\n      swap2\n      swap1\n      dup2\n      dup2\n      mstore\n      0x20\n      add\n      dup3\n      dup1\n      sload\n      tag_54\n      swap1\n      tag_43\n      jump\t// in\n    tag_54:\n      dup1\n      iszero\n      tag_55\n      jumpi\n      dup1\n      0x1f\n      lt\n      tag_56\n      jumpi\n      0x0100\n      dup1\n      dup4\n      sload\n      div\n      mul\n      dup4\n      mstore\n      swap2\n      0x20\n      add\n      swap2\n      jump(tag_55)\n    tag_56:\n      dup3\n      add\n      swap2\n      swap1\n      0x00\n      mstore\n      keccak256(0x00, 0x20)\n      swap1\n    tag_57:\n      dup2\n      sload\n      dup2\n      mstore\n      swap1\n      0x01\n      add\n      swap1\n      0x20\n      add\n      dup1\n      dup4\n      gt\n      tag_57\n      jumpi\n      dup3\n      swap1\n      sub\n      0x1f\n      and\n      dup3\n      add\n      swap2\n    tag_55:\n      pop\n      pop\n      pop\n      pop\n      pop\n      swap1\n      dup1\n      0x04\n      add\n      sload\n      swap1\n      dup1\n      0x05\n      add\n      dup1\n      sload\n      tag_58\n      swap1\n      tag_43\n      jump\t// in\n    tag_58:\n      dup1\n      0x1f\n      add\n      0x20\n      dup1\n      swap2\n      div\n      mul\n      0x20\n      add\n      mload(0x40)\n      swap1\n      dup2\n      add\n      0x40\n      mstore\n      dup1\n      swap3\n      swap2\n      swap1\n      dup2\n      dup2\n      mstore\n      0x20\n      add\n      dup3\n      dup1\n      sload\n      tag_59\n      swap1\n      tag_43\n      jump\t// in\n    tag_59:\n      dup1\n      iszero\n      tag_60\n      jumpi\n      dup1\n      0x1f\n      lt\n      tag_61\n      jumpi\n      0x0100\n      dup1\n      dup4\n      sload\n      div\n      mul\n      dup4\n      mstore\n      swap2\n      0x20\n      add\n      swap2\n      jump(tag_60)\n    tag_61:\n      dup3\n      add\n      swap2\n      swap1\n      0x00\n      mstore\n      keccak256(0x00, 0x20)\n      swap1\n    tag_62:\n      dup2\n      sload\n      dup2\n      mstore\n      swap1\n      0x01\n      add\n      swap1\n      0x20\n      add\n      dup1\n      dup4\n      gt\n      tag_62\n      jumpi\n      dup3\n      swap1\n      sub\n      0x1f\n      and\n      dup3\n      add\n      swap2\n    tag_60:\n      pop\n      pop\n      pop\n      pop\n      pop\n      swap1\n      dup1\n      0x06\n      add\n      dup1\n      sload\n      tag_63\n      swap1\n      tag_43\n      jump\t// in\n    tag_63:\n      dup1\n      0x1f\n      add\n      0x20\n      dup1\n      swap2\n      div\n      mul\n      0x20\n      add\n      mload(0x40)\n      swap1\n      dup2\n      add\n      0x40\n      mstore\n      dup1\n      swap3\n      swap2\n      swap1\n      dup2\n      dup2\n      mstore\n      0x20\n      add\n      dup3\n      dup1\n      sload\n      tag_64\n      swap1\n      tag_43\n      jump\t// in\n    tag_64:\n      dup1\n      iszero\n      tag_65\n      jumpi\n      dup1\n      0x1f\n      lt\n      tag_66\n      jumpi\n      0x0100\n      dup1\n      dup4\n      sload\n      div\n      mul\n      dup4\n      mstore\n      swap2\n      0x20\n      add\n      swap2\n      jump(tag_65)\n    tag_66:\n      dup3\n      add\n      swap2\n      swap1\n      0x00\n      mstore\n      keccak256(0x00, 0x20)\n      swap1\n    tag_67:\n      dup2\n      sload\n      dup2\n      mstore\n      swap1\n      0x01\n      add\n      swap1\n      0x20\n      add\n      dup1\n      dup4\n      gt\n      tag_67\n      jumpi\n      dup3\n      swap1\n      sub\n      0x1f\n      and\n      dup3\n      add\n      swap2\n    tag_65:\n      pop\n      pop\n      pop\n      pop\n      pop\n      swap1\n      dup1\n      0x07\n      add\n      sload\n      swap1\n      dup1\n      0x08\n      add\n      dup1\n      sload\n      tag_68\n      swap1\n      tag_43\n      jump\t// in\n    tag_68:\n      dup1\n      0x1f\n      add\n      0x20\n      dup1\n      swap2\n      div\n      mul\n      0x20\n      add\n      mload(0x40)\n      swap1\n      dup2\n      add\n      0x40\n      mstore\n      dup1\n      swap3\n      swap2\n      swap1\n      dup2\n      dup2\n      mstore\n      0x20\n      add\n      dup3\n      dup1\n      sload\n      tag_69\n      swap1\n      tag_43\n      jump\t// in\n    tag_69:\n      dup1\n      iszero\n      tag_70\n      jumpi\n      dup1\n      0x1f\n      lt\n      tag_71\n      jumpi\n      0x0100\n      dup1\n      dup4\n      sload\n      div\n      mul\n      dup4\n      mstore\n      swap2\n      0x20\n      add\n      swap2\n      jump(tag_70)\n    tag_71:\n      dup3\n      add\n      swap2\n      swap1\n      0x00\n      mstore\n      keccak256(0x00, 0x20)\n      swap1\n    tag_72:\n      dup2\n      sload\n      dup2\n      mstore\n      swap1\n      0x01\n      add\n      swap1\n      0x20\n      add\n      dup1\n      dup4\n      gt\n      tag_72\n      jumpi\n      dup3\n      swap1\n      sub\n      0x1f\n      and\n      dup3\n      add\n      swap2\n    tag_70:\n      pop\n      pop\n      pop\n      pop\n      pop\n      swap1\n      dup1\n      0x09\n      add\n      dup1\n      sload\n      tag_73\n      swap1\n      tag_43\n      jump\t// in\n    tag_73:\n      dup1\n      0x1f\n      add\n      0x20\n      dup1\n      swap2\n      div\n      mul\n      0x20\n      add\n      mload(0x40)\n      swap1\n      dup2\n      add\n      0x40\n      mstore\n      dup1\n      swap3\n      swap2\n      swap1\n      dup2\n      dup2\n      mstore\n      0x20\n      add\n      dup3\n      dup1\n      sload\n      tag_74\n      swap1\n      tag_43\n      jump\t// in\n    tag_74:\n      dup1\n      iszero\n      tag_75\n      jumpi\n      dup1\n      0x1f\n      lt\n      tag_76\n      jumpi\n      0x0100\n      dup1\n      dup4\n      sload\n      div\n      mul\n      dup4\n      mstore\n      swap2\n      0x20\n      add\n      swap2\n      jump(tag_75)\n    tag_76:\n      dup3\n      add\n      swap2\n      swap1\n      0x00\n      mstore\n      keccak256(0x00, 0x20)\n      swap1\n    tag_77:\n      dup2\n      sload\n      dup2\n      mstore\n      swap1\n      0x01\n      add\n      swap1\n      0x20\n      add\n      dup1\n      dup4\n      gt\n      tag_77\n      jumpi\n      dup3\n      swap1\n      sub\n      0x1f\n      and\n      dup3\n      add\n      swap2\n    tag_75:\n      pop\n      pop\n      pop\n      pop\n      pop\n      swap1\n      dup1\n      0x0a\n      add\n      sload\n      swap1\n      pop\n      dup12\n      jump\t// out\n        /* \"contracts/newproject2.sol\":612:1336  function addProduct(... */\n    tag_22:\n        /* \"contracts/newproject2.sol\":882:883  0 */\n      0x00\n        /* \"contracts/newproject2.sol\":848:856  products */\n      dup1\n        /* \"contracts/newproject2.sol\":848:868  products[_productId] */\n      0x00\n        /* \"contracts/newproject2.sol\":857:867  _productId */\n      dup8\n        /* \"contracts/newproject2.sol\":848:868  products[_productId] */\n      dup2\n      mstore\n      0x20\n      add\n      swap1\n      dup2\n      mstore\n      0x20\n      add\n      0x00\n      keccak256\n        /* \"contracts/newproject2.sol\":848:878  products[_productId].productId */\n      0x00\n      add\n      sload\n        /* \"contracts/newproject2.sol\":848:883  products[_productId].productId == 0 */\n      eq\n        /* \"contracts/newproject2.sol\":840:923  require(products[_productId].productId == 0, \"Product with this ID already exists\") */\n      tag_79\n      jumpi\n      mload(0x40)\n      0x08c379a000000000000000000000000000000000000000000000000000000000\n      dup2\n      mstore\n      0x04\n      add\n      tag_80\n      swap1\n      tag_81\n      jump\t// in\n    tag_80:\n      mload(0x40)\n      dup1\n      swap2\n      sub\n      swap1\n      revert\n    tag_79:\n        /* \"contracts/newproject2.sol\":944:970  Product storage newProduct */\n      0x00\n        /* \"contracts/newproject2.sol\":973:981  products */\n      dup1\n        /* \"contracts/newproject2.sol\":973:993  products[_productId] */\n      0x00\n        /* \"contracts/newproject2.sol\":982:992  _productId */\n      dup8\n        /* \"contracts/newproject2.sol\":973:993  products[_productId] */\n      dup2\n      mstore\n      0x20\n      add\n      swap1\n      dup2\n      mstore\n      0x20\n      add\n      0x00\n      keccak256\n        /* \"contracts/newproject2.sol\":944:993  Product storage newProduct = products[_productId] */\n      swap1\n      pop\n        /* \"contracts/newproject2.sol\":1027:1037  _productId */\n      dup6\n        /* \"contracts/newproject2.sol\":1004:1014  newProduct */\n      dup2\n        /* \"contracts/newproject2.sol\":1004:1024  newProduct.productId */\n      0x00\n      add\n        /* \"contracts/newproject2.sol\":1004:1037  newProduct.productId = _productId */\n      dup2\n      swap1\n      sstore\n      pop\n        /* \"contracts/newproject2.sol\":1080:1099  _productDescription */\n      dup5\n        /* \"contracts/newproject2.sol\":1048:1058  newProduct */\n      dup2\n        /* \"contracts/newproject2.sol\":1048:1077  newProduct.productDescription */\n      0x01\n      add\n        /* \"contracts/newproject2.sol\":1048:1099  newProduct.productDescription = _productDescription */\n      swap1\n      dup2\n      tag_82\n      swap2\n      swap1\n      tag_40\n      jump\t// in\n    tag_82:\n      pop\n        /* \"contracts/newproject2.sol\":1136:1149  _producerName */\n      dup4\n        /* \"contracts/newproject2.sol\":1110:1120  newProduct */\n      dup2\n        /* \"contracts/newproject2.sol\":1110:1133  newProduct.producerName */\n      0x02\n      add\n        /* \"contracts/newproject2.sol\":1110:1149  newProduct.producerName = _producerName */\n      swap1\n      dup2\n      tag_83\n      swap2\n      swap1\n      tag_40\n      jump\t// in\n    tag_83:\n      pop\n        /* \"contracts/newproject2.sol\":1189:1205  _producerAddress */\n      dup3\n        /* \"contracts/newproject2.sol\":1160:1170  newProduct */\n      dup2\n        /* \"contracts/newproject2.sol\":1160:1186  newProduct.producerAddress */\n      0x03\n      add\n        /* \"contracts/newproject2.sol\":1160:1205  newProduct.producerAddress = _producerAddress */\n      swap1\n      dup2\n      tag_84\n      swap2\n      swap1\n      tag_40\n      jump\t// in\n    tag_84:\n      pop\n        /* \"contracts/newproject2.sol\":1241:1253  _harvestDate */\n      dup2\n        /* \"contracts/newproject2.sol\":1216:1226  newProduct */\n      dup2\n        /* \"contracts/newproject2.sol\":1216:1238  newProduct.harvestDate */\n      0x04\n      add\n        /* \"contracts/newproject2.sol\":1216:1253  newProduct.harvestDate = _harvestDate */\n      dup2\n      swap1\n      sstore\n      pop\n        /* \"contracts/newproject2.sol\":1274:1286  productCount */\n      0x01\n      0x00\n        /* \"contracts/newproject2.sol\":1274:1288  productCount++ */\n      dup2\n      sload\n      dup1\n      swap3\n      swap2\n      swap1\n      tag_85\n      swap1\n      tag_86\n      jump\t// in\n    tag_85:\n      swap2\n      swap1\n      pop\n      sstore\n      pop\n        /* \"contracts/newproject2.sol\":1304:1328  ProductAdded(_productId) */\n      0x4fc9d5acc453e78e01b205af5788a1c62f195c4b5cdc8eb8f1c670863b7e736a\n        /* \"contracts/newproject2.sol\":1317:1327  _productId */\n      dup7\n        /* \"contracts/newproject2.sol\":1304:1328  ProductAdded(_productId) */\n      mload(0x40)\n      tag_87\n      swap2\n      swap1\n      tag_29\n      jump\t// in\n    tag_87:\n      mload(0x40)\n      dup1\n      swap2\n      sub\n      swap1\n      log1\n        /* \"contracts/newproject2.sol\":829:1336  {... */\n      pop\n        /* \"contracts/newproject2.sol\":612:1336  function addProduct(... */\n      pop\n      pop\n      pop\n      pop\n      pop\n      jump\t// out\n        /* \"contracts/newproject2.sol\":1877:2377  function transferToRetailer(... */\n    tag_25:\n        /* \"contracts/newproject2.sol\":2112:2113  0 */\n      0x00\n        /* \"contracts/newproject2.sol\":2078:2086  products */\n      dup1\n        /* \"contracts/newproject2.sol\":2078:2098  products[_productId] */\n      0x00\n        /* \"contracts/newproject2.sol\":2087:2097  _productId */\n      dup7\n        /* \"contracts/newproject2.sol\":2078:2098  products[_productId] */\n      dup2\n      mstore\n      0x20\n      add\n      swap1\n      dup2\n      mstore\n      0x20\n      add\n      0x00\n      keccak256\n        /* \"contracts/newproject2.sol\":2078:2108  products[_productId].productId */\n      0x00\n      add\n      sload\n        /* \"contracts/newproject2.sol\":2078:2113  products[_productId].productId != 0 */\n      sub\n        /* \"contracts/newproject2.sol\":2070:2153  require(products[_productId].productId != 0, \"Product with this ID does not exist\") */\n      tag_89\n      jumpi\n      mload(0x40)\n      0x08c379a000000000000000000000000000000000000000000000000000000000\n      dup2\n      mstore\n      0x04\n      add\n      tag_90\n      swap1\n      tag_38\n      jump\t// in\n    tag_90:\n      mload(0x40)\n      dup1\n      swap2\n      sub\n      swap1\n      revert\n    tag_89:\n        /* \"contracts/newproject2.sol\":2174:2197  Product storage product */\n      0x00\n        /* \"contracts/newproject2.sol\":2200:2208  products */\n      dup1\n        /* \"contracts/newproject2.sol\":2200:2220  products[_productId] */\n      0x00\n        /* \"contracts/newproject2.sol\":2209:2219  _productId */\n      dup7\n        /* \"contracts/newproject2.sol\":2200:2220  products[_productId] */\n      dup2\n      mstore\n      0x20\n      add\n      swap1\n      dup2\n      mstore\n      0x20\n      add\n      0x00\n      keccak256\n        /* \"contracts/newproject2.sol\":2174:2220  Product storage product = products[_productId] */\n      swap1\n      pop\n        /* \"contracts/newproject2.sol\":2254:2267  _retailerName */\n      dup4\n        /* \"contracts/newproject2.sol\":2231:2238  product */\n      dup2\n        /* \"contracts/newproject2.sol\":2231:2251  product.retailerName */\n      0x08\n      add\n        /* \"contracts/newproject2.sol\":2231:2267  product.retailerName = _retailerName */\n      swap1\n      dup2\n      tag_91\n      swap2\n      swap1\n      tag_40\n      jump\t// in\n    tag_91:\n      pop\n        /* \"contracts/newproject2.sol\":2304:2320  _retailerAddress */\n      dup3\n        /* \"contracts/newproject2.sol\":2278:2285  product */\n      dup2\n        /* \"contracts/newproject2.sol\":2278:2301  product.retailerAddress */\n      0x09\n      add\n        /* \"contracts/newproject2.sol\":2278:2320  product.retailerAddress = _retailerAddress */\n      swap1\n      dup2\n      tag_92\n      swap2\n      swap1\n      tag_40\n      jump\t// in\n    tag_92:\n      pop\n        /* \"contracts/newproject2.sol\":2356:2369  _transferDate */\n      dup2\n        /* \"contracts/newproject2.sol\":2331:2338  product */\n      dup2\n        /* \"contracts/newproject2.sol\":2331:2353  product.distToRetaDate */\n      0x0a\n      add\n        /* \"contracts/newproject2.sol\":2331:2369  product.distToRetaDate = _transferDate */\n      dup2\n      swap1\n      sstore\n      pop\n        /* \"contracts/newproject2.sol\":2059:2377  {... */\n      pop\n        /* \"contracts/newproject2.sol\":1877:2377  function transferToRetailer(... */\n      pop\n      pop\n      pop\n      pop\n      jump\t// out\n        /* \"contracts/newproject2.sol\":524:551  uint256 public productCount */\n    tag_27:\n      sload(0x01)\n      dup2\n      jump\t// out\n        /* \"contracts/newproject2.sol\":2390:2613  function viewAssetDetails(uint256 _productId) public view returns (Product memory) {... */\n    tag_32:\n        /* \"contracts/newproject2.sol\":2457:2471  Product memory */\n      tag_93\n      tag_94\n      jump\t// in\n    tag_93:\n        /* \"contracts/newproject2.sol\":2526:2527  0 */\n      0x00\n        /* \"contracts/newproject2.sol\":2492:2500  products */\n      dup1\n        /* \"contracts/newproject2.sol\":2492:2512  products[_productId] */\n      0x00\n        /* \"contracts/newproject2.sol\":2501:2511  _productId */\n      dup5\n        /* \"contracts/newproject2.sol\":2492:2512  products[_productId] */\n      dup2\n      mstore\n      0x20\n      add\n      swap1\n      dup2\n      mstore\n      0x20\n      add\n      0x00\n      keccak256\n        /* \"contracts/newproject2.sol\":2492:2522  products[_productId].productId */\n      0x00\n      add\n      sload\n        /* \"contracts/newproject2.sol\":2492:2527  products[_productId].productId != 0 */\n      sub\n        /* \"contracts/newproject2.sol\":2484:2567  require(products[_productId].productId != 0, \"Product with this ID does not exist\") */\n      tag_96\n      jumpi\n      mload(0x40)\n      0x08c379a000000000000000000000000000000000000000000000000000000000\n      dup2\n      mstore\n      0x04\n      add\n      tag_97\n      swap1\n      tag_38\n      jump\t// in\n    tag_97:\n      mload(0x40)\n      dup1\n      swap2\n      sub\n      swap1\n      revert\n    tag_96:\n        /* \"contracts/newproject2.sol\":2585:2593  products */\n      0x00\n        /* \"contracts/newproject2.sol\":2585:2605  products[_productId] */\n      dup1\n        /* \"contracts/newproject2.sol\":2594:2604  _productId */\n      dup4\n        /* \"contracts/newproject2.sol\":2585:2605  products[_productId] */\n      dup2\n      mstore\n      0x20\n      add\n      swap1\n      dup2\n      mstore\n      0x20\n      add\n      0x00\n      keccak256\n        /* \"contracts/newproject2.sol\":2578:2605  return products[_productId] */\n      mload(0x40)\n      dup1\n      0x0160\n      add\n      0x40\n      mstore\n      swap1\n      dup2\n      0x00\n      dup3\n      add\n      sload\n      dup2\n      mstore\n      0x20\n      add\n      0x01\n      dup3\n      add\n      dup1\n      sload\n      tag_98\n      swap1\n      tag_43\n      jump\t// in\n    tag_98:\n      dup1\n      0x1f\n      add\n      0x20\n      dup1\n      swap2\n      div\n      mul\n      0x20\n      add\n      mload(0x40)\n      swap1\n      dup2\n      add\n      0x40\n      mstore\n      dup1\n      swap3\n      swap2\n      swap1\n      dup2\n      dup2\n      mstore\n      0x20\n      add\n      dup3\n      dup1\n      sload\n      tag_99\n      swap1\n      tag_43\n      jump\t// in\n    tag_99:\n      dup1\n      iszero\n      tag_100\n      jumpi\n      dup1\n      0x1f\n      lt\n      tag_101\n      jumpi\n      0x0100\n      dup1\n      dup4\n      sload\n      div\n      mul\n      dup4\n      mstore\n      swap2\n      0x20\n      add\n      swap2\n      jump(tag_100)\n    tag_101:\n      dup3\n      add\n      swap2\n      swap1\n      0x00\n      mstore\n      keccak256(0x00, 0x20)\n      swap1\n    tag_102:\n      dup2\n      sload\n      dup2\n      mstore\n      swap1\n      0x01\n      add\n      swap1\n      0x20\n      add\n      dup1\n      dup4\n      gt\n      tag_102\n      jumpi\n      dup3\n      swap1\n      sub\n      0x1f\n      and\n      dup3\n      add\n      swap2\n    tag_100:\n      pop\n      pop\n      pop\n      pop\n      pop\n      dup2\n      mstore\n      0x20\n      add\n      0x02\n      dup3\n      add\n      dup1\n      sload\n      tag_103\n      swap1\n      tag_43\n      jump\t// in\n    tag_103:\n      dup1\n      0x1f\n      add\n      0x20\n      dup1\n      swap2\n      div\n      mul\n      0x20\n      add\n      mload(0x40)\n      swap1\n      dup2\n      add\n      0x40\n      mstore\n      dup1\n      swap3\n      swap2\n      swap1\n      dup2\n      dup2\n      mstore\n      0x20\n      add\n      dup3\n      dup1\n      sload\n      tag_104\n      swap1\n      tag_43\n      jump\t// in\n    tag_104:\n      dup1\n      iszero\n      tag_105\n      jumpi\n      dup1\n      0x1f\n      lt\n      tag_106\n      jumpi\n      0x0100\n      dup1\n      dup4\n      sload\n      div\n      mul\n      dup4\n      mstore\n      swap2\n      0x20\n      add\n      swap2\n      jump(tag_105)\n    tag_106:\n      dup3\n      add\n      swap2\n      swap1\n      0x00\n      mstore\n      keccak256(0x00, 0x20)\n      swap1\n    tag_107:\n      dup2\n      sload\n      dup2\n      mstore\n      swap1\n      0x01\n      add\n      swap1\n      0x20\n      add\n      dup1\n      dup4\n      gt\n      tag_107\n      jumpi\n      dup3\n      swap1\n      sub\n      0x1f\n      and\n      dup3\n      add\n      swap2\n    tag_105:\n      pop\n      pop\n      pop\n      pop\n      pop\n      dup2\n      mstore\n      0x20\n      add\n      0x03\n      dup3\n      add\n      dup1\n      sload\n      tag_108\n      swap1\n      tag_43\n      jump\t// in\n    tag_108:\n      dup1\n      0x1f\n      add\n      0x20\n      dup1\n      swap2\n      div\n      mul\n      0x20\n      add\n      mload(0x40)\n      swap1\n      dup2\n      add\n      0x40\n      mstore\n      dup1\n      swap3\n      swap2\n      swap1\n      dup2\n      dup2\n      mstore\n      0x20\n      add\n      dup3\n      dup1\n      sload\n      tag_109\n      swap1\n      tag_43\n      jump\t// in\n    tag_109:\n      dup1\n      iszero\n      tag_110\n      jumpi\n      dup1\n      0x1f\n      lt\n      tag_111\n      jumpi\n      0x0100\n      dup1\n      dup4\n      sload\n      div\n      mul\n      dup4\n      mstore\n      swap2\n      0x20\n      add\n      swap2\n      jump(tag_110)\n    tag_111:\n      dup3\n      add\n      swap2\n      swap1\n      0x00\n      mstore\n      keccak256(0x00, 0x20)\n      swap1\n    tag_112:\n      dup2\n      sload\n      dup2\n      mstore\n      swap1\n      0x01\n      add\n      swap1\n      0x20\n      add\n      dup1\n      dup4\n      gt\n      tag_112\n      jumpi\n      dup3\n      swap1\n      sub\n      0x1f\n      and\n      dup3\n      add\n      swap2\n    tag_110:\n      pop\n      pop\n      pop\n      pop\n      pop\n      dup2\n      mstore\n      0x20\n      add\n      0x04\n      dup3\n      add\n      sload\n      dup2\n      mstore\n      0x20\n      add\n      0x05\n      dup3\n      add\n      dup1\n      sload\n      tag_113\n      swap1\n      tag_43\n      jump\t// in\n    tag_113:\n      dup1\n      0x1f\n      add\n      0x20\n      dup1\n      swap2\n      div\n      mul\n      0x20\n      add\n      mload(0x40)\n      swap1\n      dup2\n      add\n      0x40\n      mstore\n      dup1\n      swap3\n      swap2\n      swap1\n      dup2\n      dup2\n      mstore\n      0x20\n      add\n      dup3\n      dup1\n      sload\n      tag_114\n      swap1\n      tag_43\n      jump\t// in\n    tag_114:\n      dup1\n      iszero\n      tag_115\n      jumpi\n      dup1\n      0x1f\n      lt\n      tag_116\n      jumpi\n      0x0100\n      dup1\n      dup4\n      sload\n      div\n      mul\n      dup4\n      mstore\n      swap2\n      0x20\n      add\n      swap2\n      jump(tag_115)\n    tag_116:\n      dup3\n      add\n      swap2\n      swap1\n      0x00\n      mstore\n      keccak256(0x00, 0x20)\n      swap1\n    tag_117:\n      dup2\n      sload\n      dup2\n      mstore\n      swap1\n      0x01\n      add\n      swap1\n      0x20\n      add\n      dup1\n      dup4\n      gt\n      tag_117\n      jumpi\n      dup3\n      swap1\n      sub\n      0x1f\n      and\n      dup3\n      add\n      swap2\n    tag_115:\n      pop\n      pop\n      pop\n      pop\n      pop\n      dup2\n      mstore\n      0x20\n      add\n      0x06\n      dup3\n      add\n      dup1\n      sload\n      tag_118\n      swap1\n      tag_43\n      jump\t// in\n    tag_118:\n      dup1\n      0x1f\n      add\n      0x20\n      dup1\n      swap2\n      div\n      mul\n      0x20\n      add\n      mload(0x40)\n      swap1\n      dup2\n      add\n      0x40\n      mstore\n      dup1\n      swap3\n      swap2\n      swap1\n      dup2\n      dup2\n      mstore\n      0x20\n      add\n      dup3\n      dup1\n      sload\n      tag_119\n      swap1\n      tag_43\n      jump\t// in\n    tag_119:\n      dup1\n      iszero\n      tag_120\n      jumpi\n      dup1\n      0x1f\n      lt\n      tag_121\n      jumpi\n      0x0100\n      dup1\n      dup4\n      sload\n      div\n      mul\n      dup4\n      mstore\n      swap2\n      0x20\n      add\n      swap2\n      jump(tag_120)\n    tag_121:\n      dup3\n      add\n      swap2\n      swap1\n      0x00\n      mstore\n      keccak256(0x00, 0x20)\n      swap1\n    tag_122:\n      dup2\n      sload\n      dup2\n      mstore\n      swap1\n      0x01\n      add\n      swap1\n      0x20\n      add\n      dup1\n      dup4\n      gt\n      tag_122\n      jumpi\n      dup3\n      swap1\n      sub\n      0x1f\n      and\n      dup3\n      add\n      swap2\n    tag_120:\n      pop\n      pop\n      pop\n      pop\n      pop\n      dup2\n      mstore\n      0x20\n      add\n      0x07\n      dup3\n      add\n      sload\n      dup2\n      mstore\n      0x20\n      add\n      0x08\n      dup3\n      add\n      dup1\n      sload\n      tag_123\n      swap1\n      tag_43\n      jump\t// in\n    tag_123:\n      dup1\n      0x1f\n      add\n      0x20\n      dup1\n      swap2\n      div\n      mul\n      0x20\n      add\n      mload(0x40)\n      swap1\n      dup2\n      add\n      0x40\n      mstore\n      dup1\n      swap3\n      swap2\n      swap1\n      dup2\n      dup2\n      mstore\n      0x20\n      add\n      dup3\n      dup1\n      sload\n      tag_124\n      swap1\n      tag_43\n      jump\t// in\n    tag_124:\n      dup1\n      iszero\n      tag_125\n      jumpi\n      dup1\n      0x1f\n      lt\n      tag_126\n      jumpi\n      0x0100\n      dup1\n      dup4\n      sload\n      div\n      mul\n      dup4\n      mstore\n      swap2\n      0x20\n      add\n      swap2\n      jump(tag_125)\n    tag_126:\n      dup3\n      add\n      swap2\n      swap1\n      0x00\n      mstore\n      keccak256(0x00, 0x20)\n      swap1\n    tag_127:\n      dup2\n      sload\n      dup2\n      mstore\n      swap1\n      0x01\n      add\n      swap1\n      0x20\n      add\n      dup1\n      dup4\n      gt\n      tag_127\n      jumpi\n      dup3\n      swap1\n      sub\n      0x1f\n      and\n      dup3\n      add\n      swap2\n    tag_125:\n      pop\n      pop\n      pop\n      pop\n      pop\n      dup2\n      mstore\n      0x20\n      add\n      0x09\n      dup3\n      add\n      dup1\n      sload\n      tag_128\n      swap1\n      tag_43\n      jump\t// in\n    tag_128:\n      dup1\n      0x1f\n      add\n      0x20\n      dup1\n      swap2\n      div\n      mul\n      0x20\n      add\n      mload(0x40)\n      swap1\n      dup2\n      add\n      0x40\n      mstore\n      dup1\n      swap3\n      swap2\n      swap1\n      dup2\n      dup2\n      mstore\n      0x20\n      add\n      dup3\n      dup1\n      sload\n      tag_129\n      swap1\n      tag_43\n      jump\t// in\n    tag_129:\n      dup1\n      iszero\n      tag_130\n      jumpi\n      dup1\n      0x1f\n      lt\n      tag_131\n      jumpi\n      0x0100\n      dup1\n      dup4\n      sload\n      div\n      mul\n      dup4\n      mstore\n      swap2\n      0x20\n      add\n      swap2\n      jump(tag_130)\n    tag_131:\n      dup3\n      add\n      swap2\n      swap1\n      0x00\n      mstore\n      keccak256(0x00, 0x20)\n      swap1\n    tag_132:\n      dup2\n      sload\n      dup2\n      mstore\n      swap1\n      0x01\n      add\n      swap1\n      0x20\n      add\n      dup1\n      dup4\n      gt\n      tag_132\n      jumpi\n      dup3\n      swap1\n      sub\n      0x1f\n      and\n      dup3\n      add\n      swap2\n    tag_130:\n      pop\n      pop\n      pop\n      pop\n      pop\n      dup2\n      mstore\n      0x20\n      add\n      0x0a\n      dup3\n      add\n      sload\n      dup2\n      mstore\n      pop\n      pop\n      swap1\n      pop\n        /* \"contracts/newproject2.sol\":2390:2613  function viewAssetDetails(uint256 _productId) public view returns (Product memory) {... */\n      swap2\n      swap1\n      pop\n      jump\t// out\n    tag_94:\n      mload(0x40)\n      dup1\n      0x0160\n      add\n      0x40\n      mstore\n      dup1\n      0x00\n      dup2\n      mstore\n      0x20\n      add\n      0x60\n      dup2\n      mstore\n      0x20\n      add\n      0x60\n      dup2\n      mstore\n      0x20\n      add\n      0x60\n      dup2\n      mstore\n      0x20\n      add\n      0x00\n      dup2\n      mstore\n      0x20\n      add\n      0x60\n      dup2\n      mstore\n      0x20\n      add\n      0x60\n      dup2\n      mstore\n      0x20\n      add\n      0x00\n      dup2\n      mstore\n      0x20\n      add\n      0x60\n      dup2\n      mstore\n      0x20\n      add\n      0x60\n      dup2\n      mstore\n      0x20\n      add\n      0x00\n      dup2\n      mstore\n      pop\n      swap1\n      jump\t// out\n        /* \"#utility.yul\":7:82   */\n    tag_133:\n        /* \"#utility.yul\":40:46   */\n      0x00\n        /* \"#utility.yul\":73:75   */\n      0x40\n        /* \"#utility.yul\":67:76   */\n      mload\n        /* \"#utility.yul\":57:76   */\n      swap1\n      pop\n        /* \"#utility.yul\":7:82   */\n      swap1\n      jump\t// out\n        /* \"#utility.yul\":88:205   */\n    tag_134:\n        /* \"#utility.yul\":197:198   */\n      0x00\n        /* \"#utility.yul\":194:195   */\n      dup1\n        /* \"#utility.yul\":187:199   */\n      revert\n        /* \"#utility.yul\":211:328   */\n    tag_135:\n        /* \"#utility.yul\":320:321   */\n      0x00\n        /* \"#utility.yul\":317:318   */\n      dup1\n        /* \"#utility.yul\":310:322   */\n      revert\n        /* \"#utility.yul\":334:411   */\n    tag_136:\n        /* \"#utility.yul\":371:378   */\n      0x00\n        /* \"#utility.yul\":400:405   */\n      dup2\n        /* \"#utility.yul\":389:405   */\n      swap1\n      pop\n        /* \"#utility.yul\":334:411   */\n      swap2\n      swap1\n      pop\n      jump\t// out\n        /* \"#utility.yul\":417:539   */\n    tag_137:\n        /* \"#utility.yul\":490:514   */\n      tag_185\n        /* \"#utility.yul\":508:513   */\n      dup2\n        /* \"#utility.yul\":490:514   */\n      tag_136\n      jump\t// in\n    tag_185:\n        /* \"#utility.yul\":483:488   */\n      dup2\n        /* \"#utility.yul\":480:515   */\n      eq\n        /* \"#utility.yul\":470:533   */\n      tag_186\n      jumpi\n        /* \"#utility.yul\":529:530   */\n      0x00\n        /* \"#utility.yul\":526:527   */\n      dup1\n        /* \"#utility.yul\":519:531   */\n      revert\n        /* \"#utility.yul\":470:533   */\n    tag_186:\n        /* \"#utility.yul\":417:539   */\n      pop\n      jump\t// out\n        /* \"#utility.yul\":545:684   */\n    tag_138:\n        /* \"#utility.yul\":591:596   */\n      0x00\n        /* \"#utility.yul\":629:635   */\n      dup2\n        /* \"#utility.yul\":616:636   */\n      calldataload\n        /* \"#utility.yul\":607:636   */\n      swap1\n      pop\n        /* \"#utility.yul\":645:678   */\n      tag_188\n        /* \"#utility.yul\":672:677   */\n      dup2\n        /* \"#utility.yul\":645:678   */\n      tag_137\n      jump\t// in\n    tag_188:\n        /* \"#utility.yul\":545:684   */\n      swap3\n      swap2\n      pop\n      pop\n      jump\t// out\n        /* \"#utility.yul\":690:807   */\n    tag_139:\n        /* \"#utility.yul\":799:800   */\n      0x00\n        /* \"#utility.yul\":796:797   */\n      dup1\n        /* \"#utility.yul\":789:801   */\n      revert\n        /* \"#utility.yul\":813:930   */\n    tag_140:\n        /* \"#utility.yul\":922:923   */\n      0x00\n        /* \"#utility.yul\":919:920   */\n      dup1\n        /* \"#utility.yul\":912:924   */\n      revert\n        /* \"#utility.yul\":936:1038   */\n    tag_141:\n        /* \"#utility.yul\":977:983   */\n      0x00\n        /* \"#utility.yul\":1028:1030   */\n      0x1f\n        /* \"#utility.yul\":1024:1031   */\n      not\n        /* \"#utility.yul\":1019:1021   */\n      0x1f\n        /* \"#utility.yul\":1012:1017   */\n      dup4\n        /* \"#utility.yul\":1008:1022   */\n      add\n        /* \"#utility.yul\":1004:1032   */\n      and\n        /* \"#utility.yul\":994:1032   */\n      swap1\n      pop\n        /* \"#utility.yul\":936:1038   */\n      swap2\n      swap1\n      pop\n      jump\t// out\n        /* \"#utility.yul\":1044:1224   */\n    tag_142:\n        /* \"#utility.yul\":1092:1169   */\n      0x4e487b7100000000000000000000000000000000000000000000000000000000\n        /* \"#utility.yul\":1089:1090   */\n      0x00\n        /* \"#utility.yul\":1082:1170   */\n      mstore\n        /* \"#utility.yul\":1189:1193   */\n      0x41\n        /* \"#utility.yul\":1186:1187   */\n      0x04\n        /* \"#utility.yul\":1179:1194   */\n      mstore\n        /* \"#utility.yul\":1213:1217   */\n      0x24\n        /* \"#utility.yul\":1210:1211   */\n      0x00\n        /* \"#utility.yul\":1203:1218   */\n      revert\n        /* \"#utility.yul\":1230:1511   */\n    tag_143:\n        /* \"#utility.yul\":1313:1340   */\n      tag_194\n        /* \"#utility.yul\":1335:1339   */\n      dup3\n        /* \"#utility.yul\":1313:1340   */\n      tag_141\n      jump\t// in\n    tag_194:\n        /* \"#utility.yul\":1305:1311   */\n      dup2\n        /* \"#utility.yul\":1301:1341   */\n      add\n        /* \"#utility.yul\":1443:1449   */\n      dup2\n        /* \"#utility.yul\":1431:1441   */\n      dup2\n        /* \"#utility.yul\":1428:1450   */\n      lt\n        /* \"#utility.yul\":1407:1425   */\n      0xffffffffffffffff\n        /* \"#utility.yul\":1395:1405   */\n      dup3\n        /* \"#utility.yul\":1392:1426   */\n      gt\n        /* \"#utility.yul\":1389:1451   */\n      or\n        /* \"#utility.yul\":1386:1474   */\n      iszero\n      tag_195\n      jumpi\n        /* \"#utility.yul\":1454:1472   */\n      tag_196\n      tag_142\n      jump\t// in\n    tag_196:\n        /* \"#utility.yul\":1386:1474   */\n    tag_195:\n        /* \"#utility.yul\":1494:1504   */\n      dup1\n        /* \"#utility.yul\":1490:1492   */\n      0x40\n        /* \"#utility.yul\":1483:1505   */\n      mstore\n        /* \"#utility.yul\":1273:1511   */\n      pop\n        /* \"#utility.yul\":1230:1511   */\n      pop\n      pop\n      jump\t// out\n        /* \"#utility.yul\":1517:1646   */\n    tag_144:\n        /* \"#utility.yul\":1551:1557   */\n      0x00\n        /* \"#utility.yul\":1578:1598   */\n      tag_198\n      tag_133\n      jump\t// in\n    tag_198:\n        /* \"#utility.yul\":1568:1598   */\n      swap1\n      pop\n        /* \"#utility.yul\":1607:1640   */\n      tag_199\n        /* \"#utility.yul\":1635:1639   */\n      dup3\n        /* \"#utility.yul\":1627:1633   */\n      dup3\n        /* \"#utility.yul\":1607:1640   */\n      tag_143\n      jump\t// in\n    tag_199:\n        /* \"#utility.yul\":1517:1646   */\n      swap2\n      swap1\n      pop\n      jump\t// out\n        /* \"#utility.yul\":1652:1960   */\n    tag_145:\n        /* \"#utility.yul\":1714:1718   */\n      0x00\n        /* \"#utility.yul\":1804:1822   */\n      0xffffffffffffffff\n        /* \"#utility.yul\":1796:1802   */\n      dup3\n        /* \"#utility.yul\":1793:1823   */\n      gt\n        /* \"#utility.yul\":1790:1846   */\n      iszero\n      tag_201\n      jumpi\n        /* \"#utility.yul\":1826:1844   */\n      tag_202\n      tag_142\n      jump\t// in\n    tag_202:\n        /* \"#utility.yul\":1790:1846   */\n    tag_201:\n        /* \"#utility.yul\":1864:1893   */\n      tag_203\n        /* \"#utility.yul\":1886:1892   */\n      dup3\n        /* \"#utility.yul\":1864:1893   */\n      tag_141\n      jump\t// in\n    tag_203:\n        /* \"#utility.yul\":1856:1893   */\n      swap1\n      pop\n        /* \"#utility.yul\":1948:1952   */\n      0x20\n        /* \"#utility.yul\":1942:1946   */\n      dup2\n        /* \"#utility.yul\":1938:1953   */\n      add\n        /* \"#utility.yul\":1930:1953   */\n      swap1\n      pop\n        /* \"#utility.yul\":1652:1960   */\n      swap2\n      swap1\n      pop\n      jump\t// out\n        /* \"#utility.yul\":1966:2112   */\n    tag_146:\n        /* \"#utility.yul\":2063:2069   */\n      dup3\n        /* \"#utility.yul\":2058:2061   */\n      dup2\n        /* \"#utility.yul\":2053:2056   */\n      dup4\n        /* \"#utility.yul\":2040:2070   */\n      calldatacopy\n        /* \"#utility.yul\":2104:2105   */\n      0x00\n        /* \"#utility.yul\":2095:2101   */\n      dup4\n        /* \"#utility.yul\":2090:2093   */\n      dup4\n        /* \"#utility.yul\":2086:2102   */\n      add\n        /* \"#utility.yul\":2079:2106   */\n      mstore\n        /* \"#utility.yul\":1966:2112   */\n      pop\n      pop\n      pop\n      jump\t// out\n        /* \"#utility.yul\":2118:2543   */\n    tag_147:\n        /* \"#utility.yul\":2196:2201   */\n      0x00\n        /* \"#utility.yul\":2221:2287   */\n      tag_206\n        /* \"#utility.yul\":2237:2286   */\n      tag_207\n        /* \"#utility.yul\":2279:2285   */\n      dup5\n        /* \"#utility.yul\":2237:2286   */\n      tag_145\n      jump\t// in\n    tag_207:\n        /* \"#utility.yul\":2221:2287   */\n      tag_144\n      jump\t// in\n    tag_206:\n        /* \"#utility.yul\":2212:2287   */\n      swap1\n      pop\n        /* \"#utility.yul\":2310:2316   */\n      dup3\n        /* \"#utility.yul\":2303:2308   */\n      dup2\n        /* \"#utility.yul\":2296:2317   */\n      mstore\n        /* \"#utility.yul\":2348:2352   */\n      0x20\n        /* \"#utility.yul\":2341:2346   */\n      dup2\n        /* \"#utility.yul\":2337:2353   */\n      add\n        /* \"#utility.yul\":2386:2389   */\n      dup5\n        /* \"#utility.yul\":2377:2383   */\n      dup5\n        /* \"#utility.yul\":2372:2375   */\n      dup5\n        /* \"#utility.yul\":2368:2384   */\n      add\n        /* \"#utility.yul\":2365:2390   */\n      gt\n        /* \"#utility.yul\":2362:2474   */\n      iszero\n      tag_208\n      jumpi\n        /* \"#utility.yul\":2393:2472   */\n      tag_209\n      tag_140\n      jump\t// in\n    tag_209:\n        /* \"#utility.yul\":2362:2474   */\n    tag_208:\n        /* \"#utility.yul\":2483:2537   */\n      tag_210\n        /* \"#utility.yul\":2530:2536   */\n      dup5\n        /* \"#utility.yul\":2525:2528   */\n      dup3\n        /* \"#utility.yul\":2520:2523   */\n      dup6\n        /* \"#utility.yul\":2483:2537   */\n      tag_146\n      jump\t// in\n    tag_210:\n        /* \"#utility.yul\":2202:2543   */\n      pop\n        /* \"#utility.yul\":2118:2543   */\n      swap4\n      swap3\n      pop\n      pop\n      pop\n      jump\t// out\n        /* \"#utility.yul\":2563:2903   */\n    tag_148:\n        /* \"#utility.yul\":2619:2624   */\n      0x00\n        /* \"#utility.yul\":2668:2671   */\n      dup3\n        /* \"#utility.yul\":2661:2665   */\n      0x1f\n        /* \"#utility.yul\":2653:2659   */\n      dup4\n        /* \"#utility.yul\":2649:2666   */\n      add\n        /* \"#utility.yul\":2645:2672   */\n      slt\n        /* \"#utility.yul\":2635:2757   */\n      tag_212\n      jumpi\n        /* \"#utility.yul\":2676:2755   */\n      tag_213\n      tag_139\n      jump\t// in\n    tag_213:\n        /* \"#utility.yul\":2635:2757   */\n    tag_212:\n        /* \"#utility.yul\":2793:2799   */\n      dup2\n        /* \"#utility.yul\":2780:2800   */\n      calldataload\n        /* \"#utility.yul\":2818:2897   */\n      tag_214\n        /* \"#utility.yul\":2893:2896   */\n      dup5\n        /* \"#utility.yul\":2885:2891   */\n      dup3\n        /* \"#utility.yul\":2878:2882   */\n      0x20\n        /* \"#utility.yul\":2870:2876   */\n      dup7\n        /* \"#utility.yul\":2866:2883   */\n      add\n        /* \"#utility.yul\":2818:2897   */\n      tag_147\n      jump\t// in\n    tag_214:\n        /* \"#utility.yul\":2809:2897   */\n      swap2\n      pop\n        /* \"#utility.yul\":2625:2903   */\n      pop\n        /* \"#utility.yul\":2563:2903   */\n      swap3\n      swap2\n      pop\n      pop\n      jump\t// out\n        /* \"#utility.yul\":2909:4034   */\n    tag_11:\n        /* \"#utility.yul\":3015:3021   */\n      0x00\n        /* \"#utility.yul\":3023:3029   */\n      dup1\n        /* \"#utility.yul\":3031:3037   */\n      0x00\n        /* \"#utility.yul\":3039:3045   */\n      dup1\n        /* \"#utility.yul\":3088:3091   */\n      0x80\n        /* \"#utility.yul\":3076:3085   */\n      dup6\n        /* \"#utility.yul\":3067:3074   */\n      dup8\n        /* \"#utility.yul\":3063:3086   */\n      sub\n        /* \"#utility.yul\":3059:3092   */\n      slt\n        /* \"#utility.yul\":3056:3176   */\n      iszero\n      tag_216\n      jumpi\n        /* \"#utility.yul\":3095:3174   */\n      tag_217\n      tag_134\n      jump\t// in\n    tag_217:\n        /* \"#utility.yul\":3056:3176   */\n    tag_216:\n        /* \"#utility.yul\":3215:3216   */\n      0x00\n        /* \"#utility.yul\":3240:3293   */\n      tag_218\n        /* \"#utility.yul\":3285:3292   */\n      dup8\n        /* \"#utility.yul\":3276:3282   */\n      dup3\n        /* \"#utility.yul\":3265:3274   */\n      dup9\n        /* \"#utility.yul\":3261:3283   */\n      add\n        /* \"#utility.yul\":3240:3293   */\n      tag_138\n      jump\t// in\n    tag_218:\n        /* \"#utility.yul\":3230:3293   */\n      swap5\n      pop\n        /* \"#utility.yul\":3186:3303   */\n      pop\n        /* \"#utility.yul\":3370:3372   */\n      0x20\n        /* \"#utility.yul\":3359:3368   */\n      dup6\n        /* \"#utility.yul\":3355:3373   */\n      add\n        /* \"#utility.yul\":3342:3374   */\n      calldataload\n        /* \"#utility.yul\":3401:3419   */\n      0xffffffffffffffff\n        /* \"#utility.yul\":3393:3399   */\n      dup2\n        /* \"#utility.yul\":3390:3420   */\n      gt\n        /* \"#utility.yul\":3387:3504   */\n      iszero\n      tag_219\n      jumpi\n        /* \"#utility.yul\":3423:3502   */\n      tag_220\n      tag_135\n      jump\t// in\n    tag_220:\n        /* \"#utility.yul\":3387:3504   */\n    tag_219:\n        /* \"#utility.yul\":3528:3591   */\n      tag_221\n        /* \"#utility.yul\":3583:3590   */\n      dup8\n        /* \"#utility.yul\":3574:3580   */\n      dup3\n        /* \"#utility.yul\":3563:3572   */\n      dup9\n        /* \"#utility.yul\":3559:3581   */\n      add\n        /* \"#utility.yul\":3528:3591   */\n      tag_148\n      jump\t// in\n    tag_221:\n        /* \"#utility.yul\":3518:3591   */\n      swap4\n      pop\n        /* \"#utility.yul\":3313:3601   */\n      pop\n        /* \"#utility.yul\":3668:3670   */\n      0x40\n        /* \"#utility.yul\":3657:3666   */\n      dup6\n        /* \"#utility.yul\":3653:3671   */\n      add\n        /* \"#utility.yul\":3640:3672   */\n      calldataload\n        /* \"#utility.yul\":3699:3717   */\n      0xffffffffffffffff\n        /* \"#utility.yul\":3691:3697   */\n      dup2\n        /* \"#utility.yul\":3688:3718   */\n      gt\n        /* \"#utility.yul\":3685:3802   */\n      iszero\n      tag_222\n      jumpi\n        /* \"#utility.yul\":3721:3800   */\n      tag_223\n      tag_135\n      jump\t// in\n    tag_223:\n        /* \"#utility.yul\":3685:3802   */\n    tag_222:\n        /* \"#utility.yul\":3826:3889   */\n      tag_224\n        /* \"#utility.yul\":3881:3888   */\n      dup8\n        /* \"#utility.yul\":3872:3878   */\n      dup3\n        /* \"#utility.yul\":3861:3870   */\n      dup9\n        /* \"#utility.yul\":3857:3879   */\n      add\n        /* \"#utility.yul\":3826:3889   */\n      tag_148\n      jump\t// in\n    tag_224:\n        /* \"#utility.yul\":3816:3889   */\n      swap3\n      pop\n        /* \"#utility.yul\":3611:3899   */\n      pop\n        /* \"#utility.yul\":3938:3940   */\n      0x60\n        /* \"#utility.yul\":3964:4017   */\n      tag_225\n        /* \"#utility.yul\":4009:4016   */\n      dup8\n        /* \"#utility.yul\":4000:4006   */\n      dup3\n        /* \"#utility.yul\":3989:3998   */\n      dup9\n        /* \"#utility.yul\":3985:4007   */\n      add\n        /* \"#utility.yul\":3964:4017   */\n      tag_138\n      jump\t// in\n    tag_225:\n        /* \"#utility.yul\":3954:4017   */\n      swap2\n      pop\n        /* \"#utility.yul\":3909:4027   */\n      pop\n        /* \"#utility.yul\":2909:4034   */\n      swap3\n      swap6\n      swap2\n      swap5\n      pop\n      swap3\n      pop\n      jump\t// out\n        /* \"#utility.yul\":4040:4369   */\n    tag_15:\n        /* \"#utility.yul\":4099:4105   */\n      0x00\n        /* \"#utility.yul\":4148:4150   */\n      0x20\n        /* \"#utility.yul\":4136:4145   */\n      dup3\n        /* \"#utility.yul\":4127:4134   */\n      dup5\n        /* \"#utility.yul\":4123:4146   */\n      sub\n        /* \"#utility.yul\":4119:4151   */\n      slt\n        /* \"#utility.yul\":4116:4235   */\n      iszero\n      tag_227\n      jumpi\n        /* \"#utility.yul\":4154:4233   */\n      tag_228\n      tag_134\n      jump\t// in\n    tag_228:\n        /* \"#utility.yul\":4116:4235   */\n    tag_227:\n        /* \"#utility.yul\":4274:4275   */\n      0x00\n        /* \"#utility.yul\":4299:4352   */\n      tag_229\n        /* \"#utility.yul\":4344:4351   */\n      dup5\n        /* \"#utility.yul\":4335:4341   */\n      dup3\n        /* \"#utility.yul\":4324:4333   */\n      dup6\n        /* \"#utility.yul\":4320:4342   */\n      add\n        /* \"#utility.yul\":4299:4352   */\n      tag_138\n      jump\t// in\n    tag_229:\n        /* \"#utility.yul\":4289:4352   */\n      swap2\n      pop\n        /* \"#utility.yul\":4245:4362   */\n      pop\n        /* \"#utility.yul\":4040:4369   */\n      swap3\n      swap2\n      pop\n      pop\n      jump\t// out\n        /* \"#utility.yul\":4375:4493   */\n    tag_149:\n        /* \"#utility.yul\":4462:4486   */\n      tag_231\n        /* \"#utility.yul\":4480:4485   */\n      dup2\n        /* \"#utility.yul\":4462:4486   */\n      tag_136\n      jump\t// in\n    tag_231:\n        /* \"#utility.yul\":4457:4460   */\n      dup3\n        /* \"#utility.yul\":4450:4487   */\n      mstore\n        /* \"#utility.yul\":4375:4493   */\n      pop\n      pop\n      jump\t// out\n        /* \"#utility.yul\":4499:4598   */\n    tag_150:\n        /* \"#utility.yul\":4551:4557   */\n      0x00\n        /* \"#utility.yul\":4585:4590   */\n      dup2\n        /* \"#utility.yul\":4579:4591   */\n      mload\n        /* \"#utility.yul\":4569:4591   */\n      swap1\n      pop\n        /* \"#utility.yul\":4499:4598   */\n      swap2\n      swap1\n      pop\n      jump\t// out\n        /* \"#utility.yul\":4604:4773   */\n    tag_151:\n        /* \"#utility.yul\":4688:4699   */\n      0x00\n        /* \"#utility.yul\":4722:4728   */\n      dup3\n        /* \"#utility.yul\":4717:4720   */\n      dup3\n        /* \"#utility.yul\":4710:4729   */\n      mstore\n        /* \"#utility.yul\":4762:4766   */\n      0x20\n        /* \"#utility.yul\":4757:4760   */\n      dup3\n        /* \"#utility.yul\":4753:4767   */\n      add\n        /* \"#utility.yul\":4738:4767   */\n      swap1\n      pop\n        /* \"#utility.yul\":4604:4773   */\n      swap3\n      swap2\n      pop\n      pop\n      jump\t// out\n        /* \"#utility.yul\":4779:5025   */\n    tag_152:\n        /* \"#utility.yul\":4860:4861   */\n      0x00\n        /* \"#utility.yul\":4870:4983   */\n    tag_235:\n        /* \"#utility.yul\":4884:4890   */\n      dup4\n        /* \"#utility.yul\":4881:4882   */\n      dup2\n        /* \"#utility.yul\":4878:4891   */\n      lt\n        /* \"#utility.yul\":4870:4983   */\n      iszero\n      tag_237\n      jumpi\n        /* \"#utility.yul\":4969:4970   */\n      dup1\n        /* \"#utility.yul\":4964:4967   */\n      dup3\n        /* \"#utility.yul\":4960:4971   */\n      add\n        /* \"#utility.yul\":4954:4972   */\n      mload\n        /* \"#utility.yul\":4950:4951   */\n      dup2\n        /* \"#utility.yul\":4945:4948   */\n      dup5\n        /* \"#utility.yul\":4941:4952   */\n      add\n        /* \"#utility.yul\":4934:4973   */\n      mstore\n        /* \"#utility.yul\":4906:4908   */\n      0x20\n        /* \"#utility.yul\":4903:4904   */\n      dup2\n        /* \"#utility.yul\":4899:4909   */\n      add\n        /* \"#utility.yul\":4894:4909   */\n      swap1\n      pop\n        /* \"#utility.yul\":4870:4983   */\n      jump(tag_235)\n    tag_237:\n        /* \"#utility.yul\":5017:5018   */\n      0x00\n        /* \"#utility.yul\":5008:5014   */\n      dup5\n        /* \"#utility.yul\":5003:5006   */\n      dup5\n        /* \"#utility.yul\":4999:5015   */\n      add\n        /* \"#utility.yul\":4992:5019   */\n      mstore\n        /* \"#utility.yul\":4841:5025   */\n      pop\n        /* \"#utility.yul\":4779:5025   */\n      pop\n      pop\n      pop\n      jump\t// out\n        /* \"#utility.yul\":5031:5408   */\n    tag_153:\n        /* \"#utility.yul\":5119:5122   */\n      0x00\n        /* \"#utility.yul\":5147:5186   */\n      tag_239\n        /* \"#utility.yul\":5180:5185   */\n      dup3\n        /* \"#utility.yul\":5147:5186   */\n      tag_150\n      jump\t// in\n    tag_239:\n        /* \"#utility.yul\":5202:5273   */\n      tag_240\n        /* \"#utility.yul\":5266:5272   */\n      dup2\n        /* \"#utility.yul\":5261:5264   */\n      dup6\n        /* \"#utility.yul\":5202:5273   */\n      tag_151\n      jump\t// in\n    tag_240:\n        /* \"#utility.yul\":5195:5273   */\n      swap4\n      pop\n        /* \"#utility.yul\":5282:5347   */\n      tag_241\n        /* \"#utility.yul\":5340:5346   */\n      dup2\n        /* \"#utility.yul\":5335:5338   */\n      dup6\n        /* \"#utility.yul\":5328:5332   */\n      0x20\n        /* \"#utility.yul\":5321:5326   */\n      dup7\n        /* \"#utility.yul\":5317:5333   */\n      add\n        /* \"#utility.yul\":5282:5347   */\n      tag_152\n      jump\t// in\n    tag_241:\n        /* \"#utility.yul\":5372:5401   */\n      tag_242\n        /* \"#utility.yul\":5394:5400   */\n      dup2\n        /* \"#utility.yul\":5372:5401   */\n      tag_141\n      jump\t// in\n    tag_242:\n        /* \"#utility.yul\":5367:5370   */\n      dup5\n        /* \"#utility.yul\":5363:5402   */\n      add\n        /* \"#utility.yul\":5356:5402   */\n      swap2\n      pop\n        /* \"#utility.yul\":5123:5408   */\n      pop\n        /* \"#utility.yul\":5031:5408   */\n      swap3\n      swap2\n      pop\n      pop\n      jump\t// out\n        /* \"#utility.yul\":5414:7383   */\n    tag_18:\n        /* \"#utility.yul\":5928:5932   */\n      0x00\n        /* \"#utility.yul\":5966:5969   */\n      0x0160\n        /* \"#utility.yul\":5955:5964   */\n      dup3\n        /* \"#utility.yul\":5951:5970   */\n      add\n        /* \"#utility.yul\":5943:5970   */\n      swap1\n      pop\n        /* \"#utility.yul\":5980:6051   */\n      tag_244\n        /* \"#utility.yul\":6048:6049   */\n      0x00\n        /* \"#utility.yul\":6037:6046   */\n      dup4\n        /* \"#utility.yul\":6033:6050   */\n      add\n        /* \"#utility.yul\":6024:6030   */\n      dup15\n        /* \"#utility.yul\":5980:6051   */\n      tag_149\n      jump\t// in\n    tag_244:\n        /* \"#utility.yul\":6098:6107   */\n      dup2\n        /* \"#utility.yul\":6092:6096   */\n      dup2\n        /* \"#utility.yul\":6088:6108   */\n      sub\n        /* \"#utility.yul\":6083:6085   */\n      0x20\n        /* \"#utility.yul\":6072:6081   */\n      dup4\n        /* \"#utility.yul\":6068:6086   */\n      add\n        /* \"#utility.yul\":6061:6109   */\n      mstore\n        /* \"#utility.yul\":6126:6204   */\n      tag_245\n        /* \"#utility.yul\":6199:6203   */\n      dup2\n        /* \"#utility.yul\":6190:6196   */\n      dup14\n        /* \"#utility.yul\":6126:6204   */\n      tag_153\n      jump\t// in\n    tag_245:\n        /* \"#utility.yul\":6118:6204   */\n      swap1\n      pop\n        /* \"#utility.yul\":6251:6260   */\n      dup2\n        /* \"#utility.yul\":6245:6249   */\n      dup2\n        /* \"#utility.yul\":6241:6261   */\n      sub\n        /* \"#utility.yul\":6236:6238   */\n      0x40\n        /* \"#utility.yul\":6225:6234   */\n      dup4\n        /* \"#utility.yul\":6221:6239   */\n      add\n        /* \"#utility.yul\":6214:6262   */\n      mstore\n        /* \"#utility.yul\":6279:6357   */\n      tag_246\n        /* \"#utility.yul\":6352:6356   */\n      dup2\n        /* \"#utility.yul\":6343:6349   */\n      dup13\n        /* \"#utility.yul\":6279:6357   */\n      tag_153\n      jump\t// in\n    tag_246:\n        /* \"#utility.yul\":6271:6357   */\n      swap1\n      pop\n        /* \"#utility.yul\":6404:6413   */\n      dup2\n        /* \"#utility.yul\":6398:6402   */\n      dup2\n        /* \"#utility.yul\":6394:6414   */\n      sub\n        /* \"#utility.yul\":6389:6391   */\n      0x60\n        /* \"#utility.yul\":6378:6387   */\n      dup4\n        /* \"#utility.yul\":6374:6392   */\n      add\n        /* \"#utility.yul\":6367:6415   */\n      mstore\n        /* \"#utility.yul\":6432:6510   */\n      tag_247\n        /* \"#utility.yul\":6505:6509   */\n      dup2\n        /* \"#utility.yul\":6496:6502   */\n      dup12\n        /* \"#utility.yul\":6432:6510   */\n      tag_153\n      jump\t// in\n    tag_247:\n        /* \"#utility.yul\":6424:6510   */\n      swap1\n      pop\n        /* \"#utility.yul\":6520:6593   */\n      tag_248\n        /* \"#utility.yul\":6588:6591   */\n      0x80\n        /* \"#utility.yul\":6577:6586   */\n      dup4\n        /* \"#utility.yul\":6573:6592   */\n      add\n        /* \"#utility.yul\":6564:6570   */\n      dup11\n        /* \"#utility.yul\":6520:6593   */\n      tag_149\n      jump\t// in\n    tag_248:\n        /* \"#utility.yul\":6641:6650   */\n      dup2\n        /* \"#utility.yul\":6635:6639   */\n      dup2\n        /* \"#utility.yul\":6631:6651   */\n      sub\n        /* \"#utility.yul\":6625:6628   */\n      0xa0\n        /* \"#utility.yul\":6614:6623   */\n      dup4\n        /* \"#utility.yul\":6610:6629   */\n      add\n        /* \"#utility.yul\":6603:6652   */\n      mstore\n        /* \"#utility.yul\":6669:6747   */\n      tag_249\n        /* \"#utility.yul\":6742:6746   */\n      dup2\n        /* \"#utility.yul\":6733:6739   */\n      dup10\n        /* \"#utility.yul\":6669:6747   */\n      tag_153\n      jump\t// in\n    tag_249:\n        /* \"#utility.yul\":6661:6747   */\n      swap1\n      pop\n        /* \"#utility.yul\":6795:6804   */\n      dup2\n        /* \"#utility.yul\":6789:6793   */\n      dup2\n        /* \"#utility.yul\":6785:6805   */\n      sub\n        /* \"#utility.yul\":6779:6782   */\n      0xc0\n        /* \"#utility.yul\":6768:6777   */\n      dup4\n        /* \"#utility.yul\":6764:6783   */\n      add\n        /* \"#utility.yul\":6757:6806   */\n      mstore\n        /* \"#utility.yul\":6823:6901   */\n      tag_250\n        /* \"#utility.yul\":6896:6900   */\n      dup2\n        /* \"#utility.yul\":6887:6893   */\n      dup9\n        /* \"#utility.yul\":6823:6901   */\n      tag_153\n      jump\t// in\n    tag_250:\n        /* \"#utility.yul\":6815:6901   */\n      swap1\n      pop\n        /* \"#utility.yul\":6911:6984   */\n      tag_251\n        /* \"#utility.yul\":6979:6982   */\n      0xe0\n        /* \"#utility.yul\":6968:6977   */\n      dup4\n        /* \"#utility.yul\":6964:6983   */\n      add\n        /* \"#utility.yul\":6955:6961   */\n      dup8\n        /* \"#utility.yul\":6911:6984   */\n      tag_149\n      jump\t// in\n    tag_251:\n        /* \"#utility.yul\":7032:7041   */\n      dup2\n        /* \"#utility.yul\":7026:7030   */\n      dup2\n        /* \"#utility.yul\":7022:7042   */\n      sub\n        /* \"#utility.yul\":7016:7019   */\n      0x0100\n        /* \"#utility.yul\":7005:7014   */\n      dup4\n        /* \"#utility.yul\":7001:7020   */\n      add\n        /* \"#utility.yul\":6994:7043   */\n      mstore\n        /* \"#utility.yul\":7060:7138   */\n      tag_252\n        /* \"#utility.yul\":7133:7137   */\n      dup2\n        /* \"#utility.yul\":7124:7130   */\n      dup7\n        /* \"#utility.yul\":7060:7138   */\n      tag_153\n      jump\t// in\n    tag_252:\n        /* \"#utility.yul\":7052:7138   */\n      swap1\n      pop\n        /* \"#utility.yul\":7186:7195   */\n      dup2\n        /* \"#utility.yul\":7180:7184   */\n      dup2\n        /* \"#utility.yul\":7176:7196   */\n      sub\n        /* \"#utility.yul\":7170:7173   */\n      0x0120\n        /* \"#utility.yul\":7159:7168   */\n      dup4\n        /* \"#utility.yul\":7155:7174   */\n      add\n        /* \"#utility.yul\":7148:7197   */\n      mstore\n        /* \"#utility.yul\":7214:7292   */\n      tag_253\n        /* \"#utility.yul\":7287:7291   */\n      dup2\n        /* \"#utility.yul\":7278:7284   */\n      dup6\n        /* \"#utility.yul\":7214:7292   */\n      tag_153\n      jump\t// in\n    tag_253:\n        /* \"#utility.yul\":7206:7292   */\n      swap1\n      pop\n        /* \"#utility.yul\":7302:7376   */\n      tag_254\n        /* \"#utility.yul\":7371:7374   */\n      0x0140\n        /* \"#utility.yul\":7360:7369   */\n      dup4\n        /* \"#utility.yul\":7356:7375   */\n      add\n        /* \"#utility.yul\":7346:7353   */\n      dup5\n        /* \"#utility.yul\":7302:7376   */\n      tag_149\n      jump\t// in\n    tag_254:\n        /* \"#utility.yul\":5414:7383   */\n      swap13\n      swap12\n      pop\n      pop\n      pop\n      pop\n      pop\n      pop\n      pop\n      pop\n      pop\n      pop\n      pop\n      pop\n      jump\t// out\n        /* \"#utility.yul\":7389:8840   */\n    tag_21:\n        /* \"#utility.yul\":7514:7520   */\n      0x00\n        /* \"#utility.yul\":7522:7528   */\n      dup1\n        /* \"#utility.yul\":7530:7536   */\n      0x00\n        /* \"#utility.yul\":7538:7544   */\n      dup1\n        /* \"#utility.yul\":7546:7552   */\n      0x00\n        /* \"#utility.yul\":7595:7598   */\n      0xa0\n        /* \"#utility.yul\":7583:7592   */\n      dup7\n        /* \"#utility.yul\":7574:7581   */\n      dup9\n        /* \"#utility.yul\":7570:7593   */\n      sub\n        /* \"#utility.yul\":7566:7599   */\n      slt\n        /* \"#utility.yul\":7563:7683   */\n      iszero\n      tag_256\n      jumpi\n        /* \"#utility.yul\":7602:7681   */\n      tag_257\n      tag_134\n      jump\t// in\n    tag_257:\n        /* \"#utility.yul\":7563:7683   */\n    tag_256:\n        /* \"#utility.yul\":7722:7723   */\n      0x00\n        /* \"#utility.yul\":7747:7800   */\n      tag_258\n        /* \"#utility.yul\":7792:7799   */\n      dup9\n        /* \"#utility.yul\":7783:7789   */\n      dup3\n        /* \"#utility.yul\":7772:7781   */\n      dup10\n        /* \"#utility.yul\":7768:7790   */\n      add\n        /* \"#utility.yul\":7747:7800   */\n      tag_138\n      jump\t// in\n    tag_258:\n        /* \"#utility.yul\":7737:7800   */\n      swap6\n      pop\n        /* \"#utility.yul\":7693:7810   */\n      pop\n        /* \"#utility.yul\":7877:7879   */\n      0x20\n        /* \"#utility.yul\":7866:7875   */\n      dup7\n        /* \"#utility.yul\":7862:7880   */\n      add\n        /* \"#utility.yul\":7849:7881   */\n      calldataload\n        /* \"#utility.yul\":7908:7926   */\n      0xffffffffffffffff\n        /* \"#utility.yul\":7900:7906   */\n      dup2\n        /* \"#utility.yul\":7897:7927   */\n      gt\n        /* \"#utility.yul\":7894:8011   */\n      iszero\n      tag_259\n      jumpi\n        /* \"#utility.yul\":7930:8009   */\n      tag_260\n      tag_135\n      jump\t// in\n    tag_260:\n        /* \"#utility.yul\":7894:8011   */\n    tag_259:\n        /* \"#utility.yul\":8035:8098   */\n      tag_261\n        /* \"#utility.yul\":8090:8097   */\n      dup9\n        /* \"#utility.yul\":8081:8087   */\n      dup3\n        /* \"#utility.yul\":8070:8079   */\n      dup10\n        /* \"#utility.yul\":8066:8088   */\n      add\n        /* \"#utility.yul\":8035:8098   */\n      tag_148\n      jump\t// in\n    tag_261:\n        /* \"#utility.yul\":8025:8098   */\n      swap5\n      pop\n        /* \"#utility.yul\":7820:8108   */\n      pop\n        /* \"#utility.yul\":8175:8177   */\n      0x40\n        /* \"#utility.yul\":8164:8173   */\n      dup7\n        /* \"#utility.yul\":8160:8178   */\n      add\n        /* \"#utility.yul\":8147:8179   */\n      calldataload\n        /* \"#utility.yul\":8206:8224   */\n      0xffffffffffffffff\n        /* \"#utility.yul\":8198:8204   */\n      dup2\n        /* \"#utility.yul\":8195:8225   */\n      gt\n        /* \"#utility.yul\":8192:8309   */\n      iszero\n      tag_262\n      jumpi\n        /* \"#utility.yul\":8228:8307   */\n      tag_263\n      tag_135\n      jump\t// in\n    tag_263:\n        /* \"#utility.yul\":8192:8309   */\n    tag_262:\n        /* \"#utility.yul\":8333:8396   */\n      tag_264\n        /* \"#utility.yul\":8388:8395   */\n      dup9\n        /* \"#utility.yul\":8379:8385   */\n      dup3\n        /* \"#utility.yul\":8368:8377   */\n      dup10\n        /* \"#utility.yul\":8364:8386   */\n      add\n        /* \"#utility.yul\":8333:8396   */\n      tag_148\n      jump\t// in\n    tag_264:\n        /* \"#utility.yul\":8323:8396   */\n      swap4\n      pop\n        /* \"#utility.yul\":8118:8406   */\n      pop\n        /* \"#utility.yul\":8473:8475   */\n      0x60\n        /* \"#utility.yul\":8462:8471   */\n      dup7\n        /* \"#utility.yul\":8458:8476   */\n      add\n        /* \"#utility.yul\":8445:8477   */\n      calldataload\n        /* \"#utility.yul\":8504:8522   */\n      0xffffffffffffffff\n        /* \"#utility.yul\":8496:8502   */\n      dup2\n        /* \"#utility.yul\":8493:8523   */\n      gt\n        /* \"#utility.yul\":8490:8607   */\n      iszero\n      tag_265\n      jumpi\n        /* \"#utility.yul\":8526:8605   */\n      tag_266\n      tag_135\n      jump\t// in\n    tag_266:\n        /* \"#utility.yul\":8490:8607   */\n    tag_265:\n        /* \"#utility.yul\":8631:8694   */\n      tag_267\n        /* \"#utility.yul\":8686:8693   */\n      dup9\n        /* \"#utility.yul\":8677:8683   */\n      dup3\n        /* \"#utility.yul\":8666:8675   */\n      dup10\n        /* \"#utility.yul\":8662:8684   */\n      add\n        /* \"#utility.yul\":8631:8694   */\n      tag_148\n      jump\t// in\n    tag_267:\n        /* \"#utility.yul\":8621:8694   */\n      swap3\n      pop\n        /* \"#utility.yul\":8416:8704   */\n      pop\n        /* \"#utility.yul\":8743:8746   */\n      0x80\n        /* \"#utility.yul\":8770:8823   */\n      tag_268\n        /* \"#utility.yul\":8815:8822   */\n      dup9\n        /* \"#utility.yul\":8806:8812   */\n      dup3\n        /* \"#utility.yul\":8795:8804   */\n      dup10\n        /* \"#utility.yul\":8791:8813   */\n      add\n        /* \"#utility.yul\":8770:8823   */\n      tag_138\n      jump\t// in\n    tag_268:\n        /* \"#utility.yul\":8760:8823   */\n      swap2\n      pop\n        /* \"#utility.yul\":8714:8833   */\n      pop\n        /* \"#utility.yul\":7389:8840   */\n      swap3\n      swap6\n      pop\n      swap3\n      swap6\n      swap1\n      swap4\n      pop\n      jump\t// out\n        /* \"#utility.yul\":8846:9068   */\n    tag_29:\n        /* \"#utility.yul\":8939:8943   */\n      0x00\n        /* \"#utility.yul\":8977:8979   */\n      0x20\n        /* \"#utility.yul\":8966:8975   */\n      dup3\n        /* \"#utility.yul\":8962:8980   */\n      add\n        /* \"#utility.yul\":8954:8980   */\n      swap1\n      pop\n        /* \"#utility.yul\":8990:9061   */\n      tag_270\n        /* \"#utility.yul\":9058:9059   */\n      0x00\n        /* \"#utility.yul\":9047:9056   */\n      dup4\n        /* \"#utility.yul\":9043:9060   */\n      add\n        /* \"#utility.yul\":9034:9040   */\n      dup5\n        /* \"#utility.yul\":8990:9061   */\n      tag_149\n      jump\t// in\n    tag_270:\n        /* \"#utility.yul\":8846:9068   */\n      swap3\n      swap2\n      pop\n      pop\n      jump\t// out\n        /* \"#utility.yul\":9074:9182   */\n    tag_154:\n        /* \"#utility.yul\":9151:9175   */\n      tag_272\n        /* \"#utility.yul\":9169:9174   */\n      dup2\n        /* \"#utility.yul\":9151:9175   */\n      tag_136\n      jump\t// in\n    tag_272:\n        /* \"#utility.yul\":9146:9149   */\n      dup3\n        /* \"#utility.yul\":9139:9176   */\n      mstore\n        /* \"#utility.yul\":9074:9182   */\n      pop\n      pop\n      jump\t// out\n        /* \"#utility.yul\":9188:9347   */\n    tag_155:\n        /* \"#utility.yul\":9262:9273   */\n      0x00\n        /* \"#utility.yul\":9296:9302   */\n      dup3\n        /* \"#utility.yul\":9291:9294   */\n      dup3\n        /* \"#utility.yul\":9284:9303   */\n      mstore\n        /* \"#utility.yul\":9336:9340   */\n      0x20\n        /* \"#utility.yul\":9331:9334   */\n      dup3\n        /* \"#utility.yul\":9327:9341   */\n      add\n        /* \"#utility.yul\":9312:9341   */\n      swap1\n      pop\n        /* \"#utility.yul\":9188:9347   */\n      swap3\n      swap2\n      pop\n      pop\n      jump\t// out\n        /* \"#utility.yul\":9353:9710   */\n    tag_156:\n        /* \"#utility.yul\":9431:9434   */\n      0x00\n        /* \"#utility.yul\":9459:9498   */\n      tag_275\n        /* \"#utility.yul\":9492:9497   */\n      dup3\n        /* \"#utility.yul\":9459:9498   */\n      tag_150\n      jump\t// in\n    tag_275:\n        /* \"#utility.yul\":9514:9575   */\n      tag_276\n        /* \"#utility.yul\":9568:9574   */\n      dup2\n        /* \"#utility.yul\":9563:9566   */\n      dup6\n        /* \"#utility.yul\":9514:9575   */\n      tag_155\n      jump\t// in\n    tag_276:\n        /* \"#utility.yul\":9507:9575   */\n      swap4\n      pop\n        /* \"#utility.yul\":9584:9649   */\n      tag_277\n        /* \"#utility.yul\":9642:9648   */\n      dup2\n        /* \"#utility.yul\":9637:9640   */\n      dup6\n        /* \"#utility.yul\":9630:9634   */\n      0x20\n        /* \"#utility.yul\":9623:9628   */\n      dup7\n        /* \"#utility.yul\":9619:9635   */\n      add\n        /* \"#utility.yul\":9584:9649   */\n      tag_152\n      jump\t// in\n    tag_277:\n        /* \"#utility.yul\":9674:9703   */\n      tag_278\n        /* \"#utility.yul\":9696:9702   */\n      dup2\n        /* \"#utility.yul\":9674:9703   */\n      tag_141\n      jump\t// in\n    tag_278:\n        /* \"#utility.yul\":9669:9672   */\n      dup5\n        /* \"#utility.yul\":9665:9704   */\n      add\n        /* \"#utility.yul\":9658:9704   */\n      swap2\n      pop\n        /* \"#utility.yul\":9435:9710   */\n      pop\n        /* \"#utility.yul\":9353:9710   */\n      swap3\n      swap2\n      pop\n      pop\n      jump\t// out\n        /* \"#utility.yul\":9780:12497   */\n    tag_157:\n        /* \"#utility.yul\":9895:9898   */\n      0x00\n        /* \"#utility.yul\":9931:9937   */\n      0x0160\n        /* \"#utility.yul\":9926:9929   */\n      dup4\n        /* \"#utility.yul\":9922:9938   */\n      add\n        /* \"#utility.yul\":10025:10029   */\n      0x00\n        /* \"#utility.yul\":10018:10023   */\n      dup4\n        /* \"#utility.yul\":10014:10030   */\n      add\n        /* \"#utility.yul\":10008:10031   */\n      mload\n        /* \"#utility.yul\":10044:10107   */\n      tag_280\n        /* \"#utility.yul\":10101:10105   */\n      0x00\n        /* \"#utility.yul\":10096:10099   */\n      dup7\n        /* \"#utility.yul\":10092:10106   */\n      add\n        /* \"#utility.yul\":10078:10090   */\n      dup3\n        /* \"#utility.yul\":10044:10107   */\n      tag_154\n      jump\t// in\n    tag_280:\n        /* \"#utility.yul\":9948:10117   */\n      pop\n        /* \"#utility.yul\":10213:10217   */\n      0x20\n        /* \"#utility.yul\":10206:10211   */\n      dup4\n        /* \"#utility.yul\":10202:10218   */\n      add\n        /* \"#utility.yul\":10196:10219   */\n      mload\n        /* \"#utility.yul\":10266:10269   */\n      dup5\n        /* \"#utility.yul\":10260:10264   */\n      dup3\n        /* \"#utility.yul\":10256:10270   */\n      sub\n        /* \"#utility.yul\":10249:10253   */\n      0x20\n        /* \"#utility.yul\":10244:10247   */\n      dup7\n        /* \"#utility.yul\":10240:10254   */\n      add\n        /* \"#utility.yul\":10233:10271   */\n      mstore\n        /* \"#utility.yul\":10292:10365   */\n      tag_281\n        /* \"#utility.yul\":10360:10364   */\n      dup3\n        /* \"#utility.yul\":10346:10358   */\n      dup3\n        /* \"#utility.yul\":10292:10365   */\n      tag_156\n      jump\t// in\n    tag_281:\n        /* \"#utility.yul\":10284:10365   */\n      swap2\n      pop\n        /* \"#utility.yul\":10127:10376   */\n      pop\n        /* \"#utility.yul\":10466:10470   */\n      0x40\n        /* \"#utility.yul\":10459:10464   */\n      dup4\n        /* \"#utility.yul\":10455:10471   */\n      add\n        /* \"#utility.yul\":10449:10472   */\n      mload\n        /* \"#utility.yul\":10519:10522   */\n      dup5\n        /* \"#utility.yul\":10513:10517   */\n      dup3\n        /* \"#utility.yul\":10509:10523   */\n      sub\n        /* \"#utility.yul\":10502:10506   */\n      0x40\n        /* \"#utility.yul\":10497:10500   */\n      dup7\n        /* \"#utility.yul\":10493:10507   */\n      add\n        /* \"#utility.yul\":10486:10524   */\n      mstore\n        /* \"#utility.yul\":10545:10618   */\n      tag_282\n        /* \"#utility.yul\":10613:10617   */\n      dup3\n        /* \"#utility.yul\":10599:10611   */\n      dup3\n        /* \"#utility.yul\":10545:10618   */\n      tag_156\n      jump\t// in\n    tag_282:\n        /* \"#utility.yul\":10537:10618   */\n      swap2\n      pop\n        /* \"#utility.yul\":10386:10629   */\n      pop\n        /* \"#utility.yul\":10722:10726   */\n      0x60\n        /* \"#utility.yul\":10715:10720   */\n      dup4\n        /* \"#utility.yul\":10711:10727   */\n      add\n        /* \"#utility.yul\":10705:10728   */\n      mload\n        /* \"#utility.yul\":10775:10778   */\n      dup5\n        /* \"#utility.yul\":10769:10773   */\n      dup3\n        /* \"#utility.yul\":10765:10779   */\n      sub\n        /* \"#utility.yul\":10758:10762   */\n      0x60\n        /* \"#utility.yul\":10753:10756   */\n      dup7\n        /* \"#utility.yul\":10749:10763   */\n      add\n        /* \"#utility.yul\":10742:10780   */\n      mstore\n        /* \"#utility.yul\":10801:10874   */\n      tag_283\n        /* \"#utility.yul\":10869:10873   */\n      dup3\n        /* \"#utility.yul\":10855:10867   */\n      dup3\n        /* \"#utility.yul\":10801:10874   */\n      tag_156\n      jump\t// in\n    tag_283:\n        /* \"#utility.yul\":10793:10874   */\n      swap2\n      pop\n        /* \"#utility.yul\":10639:10885   */\n      pop\n        /* \"#utility.yul\":10974:10978   */\n      0x80\n        /* \"#utility.yul\":10967:10972   */\n      dup4\n        /* \"#utility.yul\":10963:10979   */\n      add\n        /* \"#utility.yul\":10957:10980   */\n      mload\n        /* \"#utility.yul\":10993:11056   */\n      tag_284\n        /* \"#utility.yul\":11050:11054   */\n      0x80\n        /* \"#utility.yul\":11045:11048   */\n      dup7\n        /* \"#utility.yul\":11041:11055   */\n      add\n        /* \"#utility.yul\":11027:11039   */\n      dup3\n        /* \"#utility.yul\":10993:11056   */\n      tag_154\n      jump\t// in\n    tag_284:\n        /* \"#utility.yul\":10895:11066   */\n      pop\n        /* \"#utility.yul\":11159:11163   */\n      0xa0\n        /* \"#utility.yul\":11152:11157   */\n      dup4\n        /* \"#utility.yul\":11148:11164   */\n      add\n        /* \"#utility.yul\":11142:11165   */\n      mload\n        /* \"#utility.yul\":11212:11215   */\n      dup5\n        /* \"#utility.yul\":11206:11210   */\n      dup3\n        /* \"#utility.yul\":11202:11216   */\n      sub\n        /* \"#utility.yul\":11195:11199   */\n      0xa0\n        /* \"#utility.yul\":11190:11193   */\n      dup7\n        /* \"#utility.yul\":11186:11200   */\n      add\n        /* \"#utility.yul\":11179:11217   */\n      mstore\n        /* \"#utility.yul\":11238:11311   */\n      tag_285\n        /* \"#utility.yul\":11306:11310   */\n      dup3\n        /* \"#utility.yul\":11292:11304   */\n      dup3\n        /* \"#utility.yul\":11238:11311   */\n      tag_156\n      jump\t// in\n    tag_285:\n        /* \"#utility.yul\":11230:11311   */\n      swap2\n      pop\n        /* \"#utility.yul\":11076:11322   */\n      pop\n        /* \"#utility.yul\":11418:11422   */\n      0xc0\n        /* \"#utility.yul\":11411:11416   */\n      dup4\n        /* \"#utility.yul\":11407:11423   */\n      add\n        /* \"#utility.yul\":11401:11424   */\n      mload\n        /* \"#utility.yul\":11471:11474   */\n      dup5\n        /* \"#utility.yul\":11465:11469   */\n      dup3\n        /* \"#utility.yul\":11461:11475   */\n      sub\n        /* \"#utility.yul\":11454:11458   */\n      0xc0\n        /* \"#utility.yul\":11449:11452   */\n      dup7\n        /* \"#utility.yul\":11445:11459   */\n      add\n        /* \"#utility.yul\":11438:11476   */\n      mstore\n        /* \"#utility.yul\":11497:11570   */\n      tag_286\n        /* \"#utility.yul\":11565:11569   */\n      dup3\n        /* \"#utility.yul\":11551:11563   */\n      dup3\n        /* \"#utility.yul\":11497:11570   */\n      tag_156\n      jump\t// in\n    tag_286:\n        /* \"#utility.yul\":11489:11570   */\n      swap2\n      pop\n        /* \"#utility.yul\":11332:11581   */\n      pop\n        /* \"#utility.yul\":11673:11677   */\n      0xe0\n        /* \"#utility.yul\":11666:11671   */\n      dup4\n        /* \"#utility.yul\":11662:11678   */\n      add\n        /* \"#utility.yul\":11656:11679   */\n      mload\n        /* \"#utility.yul\":11692:11755   */\n      tag_287\n        /* \"#utility.yul\":11749:11753   */\n      0xe0\n        /* \"#utility.yul\":11744:11747   */\n      dup7\n        /* \"#utility.yul\":11740:11754   */\n      add\n        /* \"#utility.yul\":11726:11738   */\n      dup3\n        /* \"#utility.yul\":11692:11755   */\n      tag_154\n      jump\t// in\n    tag_287:\n        /* \"#utility.yul\":11591:11765   */\n      pop\n        /* \"#utility.yul\":11855:11861   */\n      0x0100\n        /* \"#utility.yul\":11848:11853   */\n      dup4\n        /* \"#utility.yul\":11844:11862   */\n      add\n        /* \"#utility.yul\":11838:11863   */\n      mload\n        /* \"#utility.yul\":11912:11915   */\n      dup5\n        /* \"#utility.yul\":11906:11910   */\n      dup3\n        /* \"#utility.yul\":11902:11916   */\n      sub\n        /* \"#utility.yul\":11893:11899   */\n      0x0100\n        /* \"#utility.yul\":11888:11891   */\n      dup7\n        /* \"#utility.yul\":11884:11900   */\n      add\n        /* \"#utility.yul\":11877:11917   */\n      mstore\n        /* \"#utility.yul\":11938:12011   */\n      tag_288\n        /* \"#utility.yul\":12006:12010   */\n      dup3\n        /* \"#utility.yul\":11992:12004   */\n      dup3\n        /* \"#utility.yul\":11938:12011   */\n      tag_156\n      jump\t// in\n    tag_288:\n        /* \"#utility.yul\":11930:12011   */\n      swap2\n      pop\n        /* \"#utility.yul\":11775:12022   */\n      pop\n        /* \"#utility.yul\":12115:12121   */\n      0x0120\n        /* \"#utility.yul\":12108:12113   */\n      dup4\n        /* \"#utility.yul\":12104:12122   */\n      add\n        /* \"#utility.yul\":12098:12123   */\n      mload\n        /* \"#utility.yul\":12172:12175   */\n      dup5\n        /* \"#utility.yul\":12166:12170   */\n      dup3\n        /* \"#utility.yul\":12162:12176   */\n      sub\n        /* \"#utility.yul\":12153:12159   */\n      0x0120\n        /* \"#utility.yul\":12148:12151   */\n      dup7\n        /* \"#utility.yul\":12144:12160   */\n      add\n        /* \"#utility.yul\":12137:12177   */\n      mstore\n        /* \"#utility.yul\":12198:12271   */\n      tag_289\n        /* \"#utility.yul\":12266:12270   */\n      dup3\n        /* \"#utility.yul\":12252:12264   */\n      dup3\n        /* \"#utility.yul\":12198:12271   */\n      tag_156\n      jump\t// in\n    tag_289:\n        /* \"#utility.yul\":12190:12271   */\n      swap2\n      pop\n        /* \"#utility.yul\":12032:12282   */\n      pop\n        /* \"#utility.yul\":12374:12380   */\n      0x0140\n        /* \"#utility.yul\":12367:12372   */\n      dup4\n        /* \"#utility.yul\":12363:12381   */\n      add\n        /* \"#utility.yul\":12357:12382   */\n      mload\n        /* \"#utility.yul\":12395:12460   */\n      tag_290\n        /* \"#utility.yul\":12452:12458   */\n      0x0140\n        /* \"#utility.yul\":12447:12450   */\n      dup7\n        /* \"#utility.yul\":12443:12459   */\n      add\n        /* \"#utility.yul\":12429:12441   */\n      dup3\n        /* \"#utility.yul\":12395:12460   */\n      tag_154\n      jump\t// in\n    tag_290:\n        /* \"#utility.yul\":12292:12470   */\n      pop\n        /* \"#utility.yul\":12487:12491   */\n      dup1\n        /* \"#utility.yul\":12480:12491   */\n      swap2\n      pop\n        /* \"#utility.yul\":9900:12497   */\n      pop\n        /* \"#utility.yul\":9780:12497   */\n      swap3\n      swap2\n      pop\n      pop\n      jump\t// out\n        /* \"#utility.yul\":12503:12868   */\n    tag_34:\n        /* \"#utility.yul\":12642:12646   */\n      0x00\n        /* \"#utility.yul\":12680:12682   */\n      0x20\n        /* \"#utility.yul\":12669:12678   */\n      dup3\n        /* \"#utility.yul\":12665:12683   */\n      add\n        /* \"#utility.yul\":12657:12683   */\n      swap1\n      pop\n        /* \"#utility.yul\":12729:12738   */\n      dup2\n        /* \"#utility.yul\":12723:12727   */\n      dup2\n        /* \"#utility.yul\":12719:12739   */\n      sub\n        /* \"#utility.yul\":12715:12716   */\n      0x00\n        /* \"#utility.yul\":12704:12713   */\n      dup4\n        /* \"#utility.yul\":12700:12717   */\n      add\n        /* \"#utility.yul\":12693:12740   */\n      mstore\n        /* \"#utility.yul\":12757:12861   */\n      tag_292\n        /* \"#utility.yul\":12856:12860   */\n      dup2\n        /* \"#utility.yul\":12847:12853   */\n      dup5\n        /* \"#utility.yul\":12757:12861   */\n      tag_157\n      jump\t// in\n    tag_292:\n        /* \"#utility.yul\":12749:12861   */\n      swap1\n      pop\n        /* \"#utility.yul\":12503:12868   */\n      swap3\n      swap2\n      pop\n      pop\n      jump\t// out\n        /* \"#utility.yul\":12874:13096   */\n    tag_158:\n        /* \"#utility.yul\":13014:13048   */\n      0x50726f647563742077697468207468697320494420646f6573206e6f74206578\n        /* \"#utility.yul\":13010:13011   */\n      0x00\n        /* \"#utility.yul\":13002:13008   */\n      dup3\n        /* \"#utility.yul\":12998:13012   */\n      add\n        /* \"#utility.yul\":12991:13049   */\n      mstore\n        /* \"#utility.yul\":13083:13088   */\n      0x6973740000000000000000000000000000000000000000000000000000000000\n        /* \"#utility.yul\":13078:13080   */\n      0x20\n        /* \"#utility.yul\":13070:13076   */\n      dup3\n        /* \"#utility.yul\":13066:13081   */\n      add\n        /* \"#utility.yul\":13059:13089   */\n      mstore\n        /* \"#utility.yul\":12874:13096   */\n      pop\n      jump\t// out\n        /* \"#utility.yul\":13102:13468   */\n    tag_159:\n        /* \"#utility.yul\":13244:13247   */\n      0x00\n        /* \"#utility.yul\":13265:13332   */\n      tag_295\n        /* \"#utility.yul\":13329:13331   */\n      0x23\n        /* \"#utility.yul\":13324:13327   */\n      dup4\n        /* \"#utility.yul\":13265:13332   */\n      tag_151\n      jump\t// in\n    tag_295:\n        /* \"#utility.yul\":13258:13332   */\n      swap2\n      pop\n        /* \"#utility.yul\":13341:13434   */\n      tag_296\n        /* \"#utility.yul\":13430:13433   */\n      dup3\n        /* \"#utility.yul\":13341:13434   */\n      tag_158\n      jump\t// in\n    tag_296:\n        /* \"#utility.yul\":13459:13461   */\n      0x40\n        /* \"#utility.yul\":13454:13457   */\n      dup3\n        /* \"#utility.yul\":13450:13462   */\n      add\n        /* \"#utility.yul\":13443:13462   */\n      swap1\n      pop\n        /* \"#utility.yul\":13102:13468   */\n      swap2\n      swap1\n      pop\n      jump\t// out\n        /* \"#utility.yul\":13474:13893   */\n    tag_38:\n        /* \"#utility.yul\":13640:13644   */\n      0x00\n        /* \"#utility.yul\":13678:13680   */\n      0x20\n        /* \"#utility.yul\":13667:13676   */\n      dup3\n        /* \"#utility.yul\":13663:13681   */\n      add\n        /* \"#utility.yul\":13655:13681   */\n      swap1\n      pop\n        /* \"#utility.yul\":13727:13736   */\n      dup2\n        /* \"#utility.yul\":13721:13725   */\n      dup2\n        /* \"#utility.yul\":13717:13737   */\n      sub\n        /* \"#utility.yul\":13713:13714   */\n      0x00\n        /* \"#utility.yul\":13702:13711   */\n      dup4\n        /* \"#utility.yul\":13698:13715   */\n      add\n        /* \"#utility.yul\":13691:13738   */\n      mstore\n        /* \"#utility.yul\":13755:13886   */\n      tag_298\n        /* \"#utility.yul\":13881:13885   */\n      dup2\n        /* \"#utility.yul\":13755:13886   */\n      tag_159\n      jump\t// in\n    tag_298:\n        /* \"#utility.yul\":13747:13886   */\n      swap1\n      pop\n        /* \"#utility.yul\":13474:13893   */\n      swap2\n      swap1\n      pop\n      jump\t// out\n        /* \"#utility.yul\":13899:14079   */\n    tag_160:\n        /* \"#utility.yul\":13947:14024   */\n      0x4e487b7100000000000000000000000000000000000000000000000000000000\n        /* \"#utility.yul\":13944:13945   */\n      0x00\n        /* \"#utility.yul\":13937:14025   */\n      mstore\n        /* \"#utility.yul\":14044:14048   */\n      0x22\n        /* \"#utility.yul\":14041:14042   */\n      0x04\n        /* \"#utility.yul\":14034:14049   */\n      mstore\n        /* \"#utility.yul\":14068:14072   */\n      0x24\n        /* \"#utility.yul\":14065:14066   */\n      0x00\n        /* \"#utility.yul\":14058:14073   */\n      revert\n        /* \"#utility.yul\":14085:14405   */\n    tag_43:\n        /* \"#utility.yul\":14129:14135   */\n      0x00\n        /* \"#utility.yul\":14166:14167   */\n      0x02\n        /* \"#utility.yul\":14160:14164   */\n      dup3\n        /* \"#utility.yul\":14156:14168   */\n      div\n        /* \"#utility.yul\":14146:14168   */\n      swap1\n      pop\n        /* \"#utility.yul\":14213:14214   */\n      0x01\n        /* \"#utility.yul\":14207:14211   */\n      dup3\n        /* \"#utility.yul\":14203:14215   */\n      and\n        /* \"#utility.yul\":14234:14252   */\n      dup1\n        /* \"#utility.yul\":14224:14305   */\n      tag_301\n      jumpi\n        /* \"#utility.yul\":14290:14294   */\n      0x7f\n        /* \"#utility.yul\":14282:14288   */\n      dup3\n        /* \"#utility.yul\":14278:14295   */\n      and\n        /* \"#utility.yul\":14268:14295   */\n      swap2\n      pop\n        /* \"#utility.yul\":14224:14305   */\n    tag_301:\n        /* \"#utility.yul\":14352:14354   */\n      0x20\n        /* \"#utility.yul\":14344:14350   */\n      dup3\n        /* \"#utility.yul\":14341:14355   */\n      lt\n        /* \"#utility.yul\":14321:14339   */\n      dup2\n        /* \"#utility.yul\":14318:14356   */\n      sub\n        /* \"#utility.yul\":14315:14399   */\n      tag_302\n      jumpi\n        /* \"#utility.yul\":14371:14389   */\n      tag_303\n      tag_160\n      jump\t// in\n    tag_303:\n        /* \"#utility.yul\":14315:14399   */\n    tag_302:\n        /* \"#utility.yul\":14136:14405   */\n      pop\n        /* \"#utility.yul\":14085:14405   */\n      swap2\n      swap1\n      pop\n      jump\t// out\n        /* \"#utility.yul\":14411:14552   */\n    tag_161:\n        /* \"#utility.yul\":14460:14464   */\n      0x00\n        /* \"#utility.yul\":14483:14486   */\n      dup2\n        /* \"#utility.yul\":14475:14486   */\n      swap1\n      pop\n        /* \"#utility.yul\":14506:14509   */\n      dup2\n        /* \"#utility.yul\":14503:14504   */\n      0x00\n        /* \"#utility.yul\":14496:14510   */\n      mstore\n        /* \"#utility.yul\":14540:14544   */\n      0x20\n        /* \"#utility.yul\":14537:14538   */\n      0x00\n        /* \"#utility.yul\":14527:14545   */\n      keccak256\n        /* \"#utility.yul\":14519:14545   */\n      swap1\n      pop\n        /* \"#utility.yul\":14411:14552   */\n      swap2\n      swap1\n      pop\n      jump\t// out\n        /* \"#utility.yul\":14558:14651   */\n    tag_162:\n        /* \"#utility.yul\":14595:14601   */\n      0x00\n        /* \"#utility.yul\":14642:14644   */\n      0x20\n        /* \"#utility.yul\":14637:14639   */\n      0x1f\n        /* \"#utility.yul\":14630:14635   */\n      dup4\n        /* \"#utility.yul\":14626:14640   */\n      add\n        /* \"#utility.yul\":14622:14645   */\n      div\n        /* \"#utility.yul\":14612:14645   */\n      swap1\n      pop\n        /* \"#utility.yul\":14558:14651   */\n      swap2\n      swap1\n      pop\n      jump\t// out\n        /* \"#utility.yul\":14657:14764   */\n    tag_163:\n        /* \"#utility.yul\":14701:14709   */\n      0x00\n        /* \"#utility.yul\":14751:14756   */\n      dup3\n        /* \"#utility.yul\":14745:14749   */\n      dup3\n        /* \"#utility.yul\":14741:14757   */\n      shl\n        /* \"#utility.yul\":14720:14757   */\n      swap1\n      pop\n        /* \"#utility.yul\":14657:14764   */\n      swap3\n      swap2\n      pop\n      pop\n      jump\t// out\n        /* \"#utility.yul\":14770:15163   */\n    tag_164:\n        /* \"#utility.yul\":14839:14845   */\n      0x00\n        /* \"#utility.yul\":14889:14890   */\n      0x08\n        /* \"#utility.yul\":14877:14887   */\n      dup4\n        /* \"#utility.yul\":14873:14891   */\n      mul\n        /* \"#utility.yul\":14912:15009   */\n      tag_308\n        /* \"#utility.yul\":14942:15008   */\n      0xffffffffffffffffffffffffffffffffffffffffffffffffffffffffffffffff\n        /* \"#utility.yul\":14931:14940   */\n      dup3\n        /* \"#utility.yul\":14912:15009   */\n      tag_163\n      jump\t// in\n    tag_308:\n        /* \"#utility.yul\":15030:15069   */\n      tag_309\n        /* \"#utility.yul\":15060:15068   */\n      dup7\n        /* \"#utility.yul\":15049:15058   */\n      dup4\n        /* \"#utility.yul\":15030:15069   */\n      tag_163\n      jump\t// in\n    tag_309:\n        /* \"#utility.yul\":15018:15069   */\n      swap6\n      pop\n        /* \"#utility.yul\":15102:15106   */\n      dup1\n        /* \"#utility.yul\":15098:15107   */\n      not\n        /* \"#utility.yul\":15091:15096   */\n      dup5\n        /* \"#utility.yul\":15087:15108   */\n      and\n        /* \"#utility.yul\":15078:15108   */\n      swap4\n      pop\n        /* \"#utility.yul\":15151:15155   */\n      dup1\n        /* \"#utility.yul\":15141:15149   */\n      dup7\n        /* \"#utility.yul\":15137:15156   */\n      and\n        /* \"#utility.yul\":15130:15135   */\n      dup5\n        /* \"#utility.yul\":15127:15157   */\n      or\n        /* \"#utility.yul\":15117:15157   */\n      swap3\n      pop\n        /* \"#utility.yul\":14846:15163   */\n      pop\n      pop\n        /* \"#utility.yul\":14770:15163   */\n      swap4\n      swap3\n      pop\n      pop\n      pop\n      jump\t// out\n        /* \"#utility.yul\":15169:15229   */\n    tag_165:\n        /* \"#utility.yul\":15197:15200   */\n      0x00\n        /* \"#utility.yul\":15218:15223   */\n      dup2\n        /* \"#utility.yul\":15211:15223   */\n      swap1\n      pop\n        /* \"#utility.yul\":15169:15229   */\n      swap2\n      swap1\n      pop\n      jump\t// out\n        /* \"#utility.yul\":15235:15377   */\n    tag_166:\n        /* \"#utility.yul\":15285:15294   */\n      0x00\n        /* \"#utility.yul\":15318:15371   */\n      tag_312\n        /* \"#utility.yul\":15336:15370   */\n      tag_313\n        /* \"#utility.yul\":15345:15369   */\n      tag_314\n        /* \"#utility.yul\":15363:15368   */\n      dup5\n        /* \"#utility.yul\":15345:15369   */\n      tag_136\n      jump\t// in\n    tag_314:\n        /* \"#utility.yul\":15336:15370   */\n      tag_165\n      jump\t// in\n    tag_313:\n        /* \"#utility.yul\":15318:15371   */\n      tag_136\n      jump\t// in\n    tag_312:\n        /* \"#utility.yul\":15305:15371   */\n      swap1\n      pop\n        /* \"#utility.yul\":15235:15377   */\n      swap2\n      swap1\n      pop\n      jump\t// out\n        /* \"#utility.yul\":15383:15458   */\n    tag_167:\n        /* \"#utility.yul\":15426:15429   */\n      0x00\n        /* \"#utility.yul\":15447:15452   */\n      dup2\n        /* \"#utility.yul\":15440:15452   */\n      swap1\n      pop\n        /* \"#utility.yul\":15383:15458   */\n      swap2\n      swap1\n      pop\n      jump\t// out\n        /* \"#utility.yul\":15464:15733   */\n    tag_168:\n        /* \"#utility.yul\":15574:15613   */\n      tag_317\n        /* \"#utility.yul\":15605:15612   */\n      dup4\n        /* \"#utility.yul\":15574:15613   */\n      tag_166\n      jump\t// in\n    tag_317:\n        /* \"#utility.yul\":15635:15726   */\n      tag_318\n        /* \"#utility.yul\":15684:15725   */\n      tag_319\n        /* \"#utility.yul\":15708:15724   */\n      dup3\n        /* \"#utility.yul\":15684:15725   */\n      tag_167\n      jump\t// in\n    tag_319:\n        /* \"#utility.yul\":15676:15682   */\n      dup5\n        /* \"#utility.yul\":15669:15673   */\n      dup5\n        /* \"#utility.yul\":15663:15674   */\n      sload\n        /* \"#utility.yul\":15635:15726   */\n      tag_164\n      jump\t// in\n    tag_318:\n        /* \"#utility.yul\":15629:15633   */\n      dup3\n        /* \"#utility.yul\":15622:15727   */\n      sstore\n        /* \"#utility.yul\":15540:15733   */\n      pop\n        /* \"#utility.yul\":15464:15733   */\n      pop\n      pop\n      pop\n      jump\t// out\n        /* \"#utility.yul\":15739:15812   */\n    tag_169:\n        /* \"#utility.yul\":15784:15787   */\n      0x00\n        /* \"#utility.yul\":15739:15812   */\n      swap1\n      jump\t// out\n        /* \"#utility.yul\":15818:16007   */\n    tag_170:\n        /* \"#utility.yul\":15895:15927   */\n      tag_322\n      tag_169\n      jump\t// in\n    tag_322:\n        /* \"#utility.yul\":15936:16001   */\n      tag_323\n        /* \"#utility.yul\":15994:16000   */\n      dup2\n        /* \"#utility.yul\":15986:15992   */\n      dup5\n        /* \"#utility.yul\":15980:15984   */\n      dup5\n        /* \"#utility.yul\":15936:16001   */\n      tag_168\n      jump\t// in\n    tag_323:\n        /* \"#utility.yul\":15871:16007   */\n      pop\n        /* \"#utility.yul\":15818:16007   */\n      pop\n      pop\n      jump\t// out\n        /* \"#utility.yul\":16013:16199   */\n    tag_171:\n        /* \"#utility.yul\":16073:16193   */\n    tag_325:\n        /* \"#utility.yul\":16090:16093   */\n      dup2\n        /* \"#utility.yul\":16083:16088   */\n      dup2\n        /* \"#utility.yul\":16080:16094   */\n      lt\n        /* \"#utility.yul\":16073:16193   */\n      iszero\n      tag_327\n      jumpi\n        /* \"#utility.yul\":16144:16183   */\n      tag_328\n        /* \"#utility.yul\":16181:16182   */\n      0x00\n        /* \"#utility.yul\":16174:16179   */\n      dup3\n        /* \"#utility.yul\":16144:16183   */\n      tag_170\n      jump\t// in\n    tag_328:\n        /* \"#utility.yul\":16117:16118   */\n      0x01\n        /* \"#utility.yul\":16110:16115   */\n      dup2\n        /* \"#utility.yul\":16106:16119   */\n      add\n        /* \"#utility.yul\":16097:16119   */\n      swap1\n      pop\n        /* \"#utility.yul\":16073:16193   */\n      jump(tag_325)\n    tag_327:\n        /* \"#utility.yul\":16013:16199   */\n      pop\n      pop\n      jump\t// out\n        /* \"#utility.yul\":16205:16748   */\n    tag_172:\n        /* \"#utility.yul\":16306:16308   */\n      0x1f\n        /* \"#utility.yul\":16301:16304   */\n      dup3\n        /* \"#utility.yul\":16298:16309   */\n      gt\n        /* \"#utility.yul\":16295:16741   */\n      iszero\n      tag_330\n      jumpi\n        /* \"#utility.yul\":16340:16378   */\n      tag_331\n        /* \"#utility.yul\":16372:16377   */\n      dup2\n        /* \"#utility.yul\":16340:16378   */\n      tag_161\n      jump\t// in\n    tag_331:\n        /* \"#utility.yul\":16424:16453   */\n      tag_332\n        /* \"#utility.yul\":16442:16452   */\n      dup5\n        /* \"#utility.yul\":16424:16453   */\n      tag_162\n      jump\t// in\n    tag_332:\n        /* \"#utility.yul\":16414:16422   */\n      dup2\n        /* \"#utility.yul\":16410:16454   */\n      add\n        /* \"#utility.yul\":16607:16609   */\n      0x20\n        /* \"#utility.yul\":16595:16605   */\n      dup6\n        /* \"#utility.yul\":16592:16610   */\n      lt\n        /* \"#utility.yul\":16589:16638   */\n      iszero\n      tag_333\n      jumpi\n        /* \"#utility.yul\":16628:16636   */\n      dup2\n        /* \"#utility.yul\":16613:16636   */\n      swap1\n      pop\n        /* \"#utility.yul\":16589:16638   */\n    tag_333:\n        /* \"#utility.yul\":16651:16731   */\n      tag_334\n        /* \"#utility.yul\":16707:16729   */\n      tag_335\n        /* \"#utility.yul\":16725:16728   */\n      dup6\n        /* \"#utility.yul\":16707:16729   */\n      tag_162\n      jump\t// in\n    tag_335:\n        /* \"#utility.yul\":16697:16705   */\n      dup4\n        /* \"#utility.yul\":16693:16730   */\n      add\n        /* \"#utility.yul\":16680:16691   */\n      dup3\n        /* \"#utility.yul\":16651:16731   */\n      tag_171\n      jump\t// in\n    tag_334:\n        /* \"#utility.yul\":16310:16741   */\n      pop\n      pop\n        /* \"#utility.yul\":16295:16741   */\n    tag_330:\n        /* \"#utility.yul\":16205:16748   */\n      pop\n      pop\n      pop\n      jump\t// out\n        /* \"#utility.yul\":16754:16871   */\n    tag_173:\n        /* \"#utility.yul\":16808:16816   */\n      0x00\n        /* \"#utility.yul\":16858:16863   */\n      dup3\n        /* \"#utility.yul\":16852:16856   */\n      dup3\n        /* \"#utility.yul\":16848:16864   */\n      shr\n        /* \"#utility.yul\":16827:16864   */\n      swap1\n      pop\n        /* \"#utility.yul\":16754:16871   */\n      swap3\n      swap2\n      pop\n      pop\n      jump\t// out\n        /* \"#utility.yul\":16877:17046   */\n    tag_174:\n        /* \"#utility.yul\":16921:16927   */\n      0x00\n        /* \"#utility.yul\":16954:17005   */\n      tag_338\n        /* \"#utility.yul\":17002:17003   */\n      0x00\n        /* \"#utility.yul\":16998:17004   */\n      not\n        /* \"#utility.yul\":16990:16995   */\n      dup5\n        /* \"#utility.yul\":16987:16988   */\n      0x08\n        /* \"#utility.yul\":16983:16996   */\n      mul\n        /* \"#utility.yul\":16954:17005   */\n      tag_173\n      jump\t// in\n    tag_338:\n        /* \"#utility.yul\":16950:17006   */\n      not\n        /* \"#utility.yul\":17035:17039   */\n      dup1\n        /* \"#utility.yul\":17029:17033   */\n      dup4\n        /* \"#utility.yul\":17025:17040   */\n      and\n        /* \"#utility.yul\":17015:17040   */\n      swap2\n      pop\n        /* \"#utility.yul\":16928:17046   */\n      pop\n        /* \"#utility.yul\":16877:17046   */\n      swap3\n      swap2\n      pop\n      pop\n      jump\t// out\n        /* \"#utility.yul\":17051:17346   */\n    tag_175:\n        /* \"#utility.yul\":17127:17131   */\n      0x00\n        /* \"#utility.yul\":17273:17302   */\n      tag_340\n        /* \"#utility.yul\":17298:17301   */\n      dup4\n        /* \"#utility.yul\":17292:17296   */\n      dup4\n        /* \"#utility.yul\":17273:17302   */\n      tag_174\n      jump\t// in\n    tag_340:\n        /* \"#utility.yul\":17265:17302   */\n      swap2\n      pop\n        /* \"#utility.yul\":17335:17338   */\n      dup3\n        /* \"#utility.yul\":17332:17333   */\n      0x02\n        /* \"#utility.yul\":17328:17339   */\n      mul\n        /* \"#utility.yul\":17322:17326   */\n      dup3\n        /* \"#utility.yul\":17319:17340   */\n      or\n        /* \"#utility.yul\":17311:17340   */\n      swap1\n      pop\n        /* \"#utility.yul\":17051:17346   */\n      swap3\n      swap2\n      pop\n      pop\n      jump\t// out\n        /* \"#utility.yul\":17351:18746   */\n    tag_40:\n        /* \"#utility.yul\":17468:17505   */\n      tag_342\n        /* \"#utility.yul\":17501:17504   */\n      dup3\n        /* \"#utility.yul\":17468:17505   */\n      tag_150\n      jump\t// in\n    tag_342:\n        /* \"#utility.yul\":17570:17588   */\n      0xffffffffffffffff\n        /* \"#utility.yul\":17562:17568   */\n      dup2\n        /* \"#utility.yul\":17559:17589   */\n      gt\n        /* \"#utility.yul\":17556:17612   */\n      iszero\n      tag_343\n      jumpi\n        /* \"#utility.yul\":17592:17610   */\n      tag_344\n      tag_142\n      jump\t// in\n    tag_344:\n        /* \"#utility.yul\":17556:17612   */\n    tag_343:\n        /* \"#utility.yul\":17636:17674   */\n      tag_345\n        /* \"#utility.yul\":17668:17672   */\n      dup3\n        /* \"#utility.yul\":17662:17673   */\n      sload\n        /* \"#utility.yul\":17636:17674   */\n      tag_43\n      jump\t// in\n    tag_345:\n        /* \"#utility.yul\":17721:17788   */\n      tag_346\n        /* \"#utility.yul\":17781:17787   */\n      dup3\n        /* \"#utility.yul\":17773:17779   */\n      dup3\n        /* \"#utility.yul\":17767:17771   */\n      dup6\n        /* \"#utility.yul\":17721:17788   */\n      tag_172\n      jump\t// in\n    tag_346:\n        /* \"#utility.yul\":17815:17816   */\n      0x00\n        /* \"#utility.yul\":17839:17843   */\n      0x20\n        /* \"#utility.yul\":17826:17843   */\n      swap1\n      pop\n        /* \"#utility.yul\":17871:17873   */\n      0x1f\n        /* \"#utility.yul\":17863:17869   */\n      dup4\n        /* \"#utility.yul\":17860:17874   */\n      gt\n        /* \"#utility.yul\":17888:17889   */\n      0x01\n        /* \"#utility.yul\":17883:18501   */\n      dup2\n      eq\n      tag_348\n      jumpi\n        /* \"#utility.yul\":18545:18546   */\n      0x00\n        /* \"#utility.yul\":18562:18568   */\n      dup5\n        /* \"#utility.yul\":18559:18636   */\n      iszero\n      tag_349\n      jumpi\n        /* \"#utility.yul\":18611:18620   */\n      dup3\n        /* \"#utility.yul\":18606:18609   */\n      dup8\n        /* \"#utility.yul\":18602:18621   */\n      add\n        /* \"#utility.yul\":18596:18622   */\n      mload\n        /* \"#utility.yul\":18587:18622   */\n      swap1\n      pop\n        /* \"#utility.yul\":18559:18636   */\n    tag_349:\n        /* \"#utility.yul\":18662:18729   */\n      tag_350\n        /* \"#utility.yul\":18722:18728   */\n      dup6\n        /* \"#utility.yul\":18715:18720   */\n      dup3\n        /* \"#utility.yul\":18662:18729   */\n      tag_175\n      jump\t// in\n    tag_350:\n        /* \"#utility.yul\":18656:18660   */\n      dup7\n        /* \"#utility.yul\":18649:18730   */\n      sstore\n        /* \"#utility.yul\":18518:18740   */\n      pop\n        /* \"#utility.yul\":17853:18740   */\n      jump(tag_347)\n        /* \"#utility.yul\":17883:18501   */\n    tag_348:\n        /* \"#utility.yul\":17935:17939   */\n      0x1f\n        /* \"#utility.yul\":17931:17940   */\n      not\n        /* \"#utility.yul\":17923:17929   */\n      dup5\n        /* \"#utility.yul\":17919:17941   */\n      and\n        /* \"#utility.yul\":17969:18006   */\n      tag_351\n        /* \"#utility.yul\":18001:18005   */\n      dup7\n        /* \"#utility.yul\":17969:18006   */\n      tag_161\n      jump\t// in\n    tag_351:\n        /* \"#utility.yul\":18028:18029   */\n      0x00\n        /* \"#utility.yul\":18042:18250   */\n    tag_352:\n        /* \"#utility.yul\":18056:18063   */\n      dup3\n        /* \"#utility.yul\":18053:18054   */\n      dup2\n        /* \"#utility.yul\":18050:18064   */\n      lt\n        /* \"#utility.yul\":18042:18250   */\n      iszero\n      tag_354\n      jumpi\n        /* \"#utility.yul\":18135:18144   */\n      dup5\n        /* \"#utility.yul\":18130:18133   */\n      dup10\n        /* \"#utility.yul\":18126:18145   */\n      add\n        /* \"#utility.yul\":18120:18146   */\n      mload\n        /* \"#utility.yul\":18112:18118   */\n      dup3\n        /* \"#utility.yul\":18105:18147   */\n      sstore\n        /* \"#utility.yul\":18186:18187   */\n      0x01\n        /* \"#utility.yul\":18178:18184   */\n      dup3\n        /* \"#utility.yul\":18174:18188   */\n      add\n        /* \"#utility.yul\":18164:18188   */\n      swap2\n      pop\n        /* \"#utility.yul\":18233:18235   */\n      0x20\n        /* \"#utility.yul\":18222:18231   */\n      dup6\n        /* \"#utility.yul\":18218:18236   */\n      add\n        /* \"#utility.yul\":18205:18236   */\n      swap5\n      pop\n        /* \"#utility.yul\":18079:18083   */\n      0x20\n        /* \"#utility.yul\":18076:18077   */\n      dup2\n        /* \"#utility.yul\":18072:18084   */\n      add\n        /* \"#utility.yul\":18067:18084   */\n      swap1\n      pop\n        /* \"#utility.yul\":18042:18250   */\n      jump(tag_352)\n    tag_354:\n        /* \"#utility.yul\":18278:18284   */\n      dup7\n        /* \"#utility.yul\":18269:18276   */\n      dup4\n        /* \"#utility.yul\":18266:18285   */\n      lt\n        /* \"#utility.yul\":18263:18442   */\n      iszero\n      tag_355\n      jumpi\n        /* \"#utility.yul\":18336:18345   */\n      dup5\n        /* \"#utility.yul\":18331:18334   */\n      dup10\n        /* \"#utility.yul\":18327:18346   */\n      add\n        /* \"#utility.yul\":18321:18347   */\n      mload\n        /* \"#utility.yul\":18379:18427   */\n      tag_356\n        /* \"#utility.yul\":18421:18425   */\n      0x1f\n        /* \"#utility.yul\":18413:18419   */\n      dup10\n        /* \"#utility.yul\":18409:18426   */\n      and\n        /* \"#utility.yul\":18398:18407   */\n      dup3\n        /* \"#utility.yul\":18379:18427   */\n      tag_174\n      jump\t// in\n    tag_356:\n        /* \"#utility.yul\":18371:18377   */\n      dup4\n        /* \"#utility.yul\":18364:18428   */\n      sstore\n        /* \"#utility.yul\":18286:18442   */\n      pop\n        /* \"#utility.yul\":18263:18442   */\n    tag_355:\n        /* \"#utility.yul\":18488:18489   */\n      0x01\n        /* \"#utility.yul\":18484:18485   */\n      0x02\n        /* \"#utility.yul\":18476:18482   */\n      dup9\n        /* \"#utility.yul\":18472:18486   */\n      mul\n        /* \"#utility.yul\":18468:18490   */\n      add\n        /* \"#utility.yul\":18462:18466   */\n      dup9\n        /* \"#utility.yul\":18455:18491   */\n      sstore\n        /* \"#utility.yul\":17890:18501   */\n      pop\n      pop\n      pop\n        /* \"#utility.yul\":17853:18740   */\n    tag_347:\n      pop\n        /* \"#utility.yul\":17443:18746   */\n      pop\n      pop\n      pop\n        /* \"#utility.yul\":17351:18746   */\n      pop\n      pop\n      jump\t// out\n        /* \"#utility.yul\":18752:18974   */\n    tag_176:\n        /* \"#utility.yul\":18892:18926   */\n      0x50726f647563742077697468207468697320494420616c726561647920657869\n        /* \"#utility.yul\":18888:18889   */\n      0x00\n        /* \"#utility.yul\":18880:18886   */\n      dup3\n        /* \"#utility.yul\":18876:18890   */\n      add\n        /* \"#utility.yul\":18869:18927   */\n      mstore\n        /* \"#utility.yul\":18961:18966   */\n      0x7374730000000000000000000000000000000000000000000000000000000000\n        /* \"#utility.yul\":18956:18958   */\n      0x20\n        /* \"#utility.yul\":18948:18954   */\n      dup3\n        /* \"#utility.yul\":18944:18959   */\n      add\n        /* \"#utility.yul\":18937:18967   */\n      mstore\n        /* \"#utility.yul\":18752:18974   */\n      pop\n      jump\t// out\n        /* \"#utility.yul\":18980:19346   */\n    tag_177:\n        /* \"#utility.yul\":19122:19125   */\n      0x00\n        /* \"#utility.yul\":19143:19210   */\n      tag_359\n        /* \"#utility.yul\":19207:19209   */\n      0x23\n        /* \"#utility.yul\":19202:19205   */\n      dup4\n        /* \"#utility.yul\":19143:19210   */\n      tag_151\n      jump\t// in\n    tag_359:\n        /* \"#utility.yul\":19136:19210   */\n      swap2\n      pop\n        /* \"#utility.yul\":19219:19312   */\n      tag_360\n        /* \"#utility.yul\":19308:19311   */\n      dup3\n        /* \"#utility.yul\":19219:19312   */\n      tag_176\n      jump\t// in\n    tag_360:\n        /* \"#utility.yul\":19337:19339   */\n      0x40\n        /* \"#utility.yul\":19332:19335   */\n      dup3\n        /* \"#utility.yul\":19328:19340   */\n      add\n        /* \"#utility.yul\":19321:19340   */\n      swap1\n      pop\n        /* \"#utility.yul\":18980:19346   */\n      swap2\n      swap1\n      pop\n      jump\t// out\n        /* \"#utility.yul\":19352:19771   */\n    tag_81:\n        /* \"#utility.yul\":19518:19522   */\n      0x00\n        /* \"#utility.yul\":19556:19558   */\n      0x20\n        /* \"#utility.yul\":19545:19554   */\n      dup3\n        /* \"#utility.yul\":19541:19559   */\n      add\n        /* \"#utility.yul\":19533:19559   */\n      swap1\n      pop\n        /* \"#utility.yul\":19605:19614   */\n      dup2\n        /* \"#utility.yul\":19599:19603   */\n      dup2\n        /* \"#utility.yul\":19595:19615   */\n      sub\n        /* \"#utility.yul\":19591:19592   */\n      0x00\n        /* \"#utility.yul\":19580:19589   */\n      dup4\n        /* \"#utility.yul\":19576:19593   */\n      add\n        /* \"#utility.yul\":19569:19616   */\n      mstore\n        /* \"#utility.yul\":19633:19764   */\n      tag_362\n        /* \"#utility.yul\":19759:19763   */\n      dup2\n        /* \"#utility.yul\":19633:19764   */\n      tag_177\n      jump\t// in\n    tag_362:\n        /* \"#utility.yul\":19625:19764   */\n      swap1\n      pop\n        /* \"#utility.yul\":19352:19771   */\n      swap2\n      swap1\n      pop\n      jump\t// out\n        /* \"#utility.yul\":19777:19957   */\n    tag_178:\n        /* \"#utility.yul\":19825:19902   */\n      0x4e487b7100000000000000000000000000000000000000000000000000000000\n        /* \"#utility.yul\":19822:19823   */\n      0x00\n        /* \"#utility.yul\":19815:19903   */\n      mstore\n        /* \"#utility.yul\":19922:19926   */\n      0x11\n        /* \"#utility.yul\":19919:19920   */\n      0x04\n        /* \"#utility.yul\":19912:19927   */\n      mstore\n        /* \"#utility.yul\":19946:19950   */\n      0x24\n        /* \"#utility.yul\":19943:19944   */\n      0x00\n        /* \"#utility.yul\":19936:19951   */\n      revert\n        /* \"#utility.yul\":19963:20196   */\n    tag_86:\n        /* \"#utility.yul\":20002:20005   */\n      0x00\n        /* \"#utility.yul\":20025:20049   */\n      tag_365\n        /* \"#utility.yul\":20043:20048   */\n      dup3\n        /* \"#utility.yul\":20025:20049   */\n      tag_136\n      jump\t// in\n    tag_365:\n        /* \"#utility.yul\":20016:20049   */\n      swap2\n      pop\n        /* \"#utility.yul\":20071:20137   */\n      0xffffffffffffffffffffffffffffffffffffffffffffffffffffffffffffffff\n        /* \"#utility.yul\":20064:20069   */\n      dup3\n        /* \"#utility.yul\":20061:20138   */\n      sub\n        /* \"#utility.yul\":20058:20161   */\n      tag_366\n      jumpi\n        /* \"#utility.yul\":20141:20159   */\n      tag_367\n      tag_178\n      jump\t// in\n    tag_367:\n        /* \"#utility.yul\":20058:20161   */\n    tag_366:\n        /* \"#utility.yul\":20188:20189   */\n      0x01\n        /* \"#utility.yul\":20181:20186   */\n      dup3\n        /* \"#utility.yul\":20177:20190   */\n      add\n        /* \"#utility.yul\":20170:20190   */\n      swap1\n      pop\n        /* \"#utility.yul\":19963:20196   */\n      swap2\n      swap1\n      pop\n      jump\t// out\n\n    auxdata: 0xa264697066735822122086e30d902386c65d633ebd27c01f8679dc3ffce29153b0289eaf54e787f820ec64736f6c63430008120033\n}\n",
				"bytecode": {
					"linkReferences": {},
					"object": "608060405234801561001057600080fd5b506117a4806100206000396000f3fe608060405234801561001057600080fd5b50600436106100625760003560e01c806356f2fc09146100675780637acc0b2014610083578063c67b3d1d146100bd578063da4cbe5a146100d9578063e0f6ef87146100f5578063fcb6e31d14610113575b600080fd5b610081600480360381019061007c9190610e41565b610143565b005b61009d60048036038101906100989190610ee0565b6101e5565b6040516100b49b9a99989796959493929190610f9b565b60405180910390f35b6100d760048036038101906100d29190611077565b6105f7565b005b6100f360048036038101906100ee9190610e41565b610704565b005b6100fd6107a6565b60405161010a9190611146565b60405180910390f35b61012d60048036038101906101289190610ee0565b6107ac565b60405161013a91906112d3565b60405180910390f35b6000806000868152602001908152602001600020600001540361019b576040517f08c379a000000000000000000000000000000000000000000000000000000000815260040161019290611367565b60405180910390fd5b60008060008681526020019081526020016000209050838160050190816101c29190611593565b50828160060190816101d49190611593565b508181600701819055505050505050565b600060205280600052604060002060009150905080600001549080600101805461020e906113b6565b80601f016020809104026020016040519081016040528092919081815260200182805461023a906113b6565b80156102875780601f1061025c57610100808354040283529160200191610287565b820191906000526020600020905b81548152906001019060200180831161026a57829003601f168201915b50505050509080600201805461029c906113b6565b80601f01602080910402602001604051908101604052809291908181526020018280546102c8906113b6565b80156103155780601f106102ea57610100808354040283529160200191610315565b820191906000526020600020905b8154815290600101906020018083116102f857829003601f168201915b50505050509080600301805461032a906113b6565b80601f0160208091040260200160405190810160405280929190818152602001828054610356906113b6565b80156103a35780601f10610378576101008083540402835291602001916103a3565b820191906000526020600020905b81548152906001019060200180831161038657829003601f168201915b5050505050908060040154908060050180546103be906113b6565b80601f01602080910402602001604051908101604052809291908181526020018280546103ea906113b6565b80156104375780601f1061040c57610100808354040283529160200191610437565b820191906000526020600020905b81548152906001019060200180831161041a57829003601f168201915b50505050509080600601805461044c906113b6565b80601f0160208091040260200160405190810160405280929190818152602001828054610478906113b6565b80156104c55780601f1061049a576101008083540402835291602001916104c5565b820191906000526020600020905b8154815290600101906020018083116104a857829003601f168201915b5050505050908060070154908060080180546104e0906113b6565b80601f016020809104026020016040519081016040528092919081815260200182805461050c906113b6565b80156105595780601f1061052e57610100808354040283529160200191610559565b820191906000526020600020905b81548152906001019060200180831161053c57829003601f168201915b50505050509080600901805461056e906113b6565b80601f016020809104026020016040519081016040528092919081815260200182805461059a906113b6565b80156105e75780601f106105bc576101008083540402835291602001916105e7565b820191906000526020600020905b8154815290600101906020018083116105ca57829003601f168201915b50505050509080600a015490508b565b6000806000878152602001908152602001600020600001541461064f576040517f08c379a0000000000000000000000000000000000000000000000000000000008152600401610646906116d7565b60405180910390fd5b600080600087815260200190815260200160002090508581600001819055508481600101908161067f9190611593565b50838160020190816106919190611593565b50828160030190816106a39190611593565b50818160040181905550600160008154809291906106c090611726565b91905055507f4fc9d5acc453e78e01b205af5788a1c62f195c4b5cdc8eb8f1c670863b7e736a866040516106f49190611146565b60405180910390a1505050505050565b6000806000868152602001908152602001600020600001540361075c576040517f08c379a000000000000000000000000000000000000000000000000000000000815260040161075390611367565b60405180910390fd5b60008060008681526020019081526020016000209050838160080190816107839190611593565b50828160090190816107959190611593565b508181600a01819055505050505050565b60015481565b6107b4610c57565b6000806000848152602001908152602001600020600001540361080c576040517f08c379a000000000000000000000000000000000000000000000000000000000815260040161080390611367565b60405180910390fd5b6000808381526020019081526020016000206040518061016001604052908160008201548152602001600182018054610844906113b6565b80601f0160208091040260200160405190810160405280929190818152602001828054610870906113b6565b80156108bd5780601f10610892576101008083540402835291602001916108bd565b820191906000526020600020905b8154815290600101906020018083116108a057829003601f168201915b505050505081526020016002820180546108d6906113b6565b80601f0160208091040260200160405190810160405280929190818152602001828054610902906113b6565b801561094f5780601f106109245761010080835404028352916020019161094f565b820191906000526020600020905b81548152906001019060200180831161093257829003601f168201915b50505050508152602001600382018054610968906113b6565b80601f0160208091040260200160405190810160405280929190818152602001828054610994906113b6565b80156109e15780601f106109b6576101008083540402835291602001916109e1565b820191906000526020600020905b8154815290600101906020018083116109c457829003601f168201915b5050505050815260200160048201548152602001600582018054610a04906113b6565b80601f0160208091040260200160405190810160405280929190818152602001828054610a30906113b6565b8015610a7d5780601f10610a5257610100808354040283529160200191610a7d565b820191906000526020600020905b815481529060010190602001808311610a6057829003601f168201915b50505050508152602001600682018054610a96906113b6565b80601f0160208091040260200160405190810160405280929190818152602001828054610ac2906113b6565b8015610b0f5780601f10610ae457610100808354040283529160200191610b0f565b820191906000526020600020905b815481529060010190602001808311610af257829003601f168201915b5050505050815260200160078201548152602001600882018054610b32906113b6565b80601f0160208091040260200160405190810160405280929190818152602001828054610b5e906113b6565b8015610bab5780601f10610b8057610100808354040283529160200191610bab565b820191906000526020600020905b815481529060010190602001808311610b8e57829003601f168201915b50505050508152602001600982018054610bc4906113b6565b80601f0160208091040260200160405190810160405280929190818152602001828054610bf0906113b6565b8015610c3d5780601f10610c1257610100808354040283529160200191610c3d565b820191906000526020600020905b815481529060010190602001808311610c2057829003601f168201915b50505050508152602001600a820154815250509050919050565b60405180610160016040528060008152602001606081526020016060815260200160608152602001600081526020016060815260200160608152602001600081526020016060815260200160608152602001600081525090565b6000604051905090565b600080fd5b600080fd5b6000819050919050565b610cd881610cc5565b8114610ce357600080fd5b50565b600081359050610cf581610ccf565b92915050565b600080fd5b600080fd5b6000601f19601f8301169050919050565b7f4e487b7100000000000000000000000000000000000000000000000000000000600052604160045260246000fd5b610d4e82610d05565b810181811067ffffffffffffffff82111715610d6d57610d6c610d16565b5b80604052505050565b6000610d80610cb1565b9050610d8c8282610d45565b919050565b600067ffffffffffffffff821115610dac57610dab610d16565b5b610db582610d05565b9050602081019050919050565b82818337600083830152505050565b6000610de4610ddf84610d91565b610d76565b905082815260208101848484011115610e0057610dff610d00565b5b610e0b848285610dc2565b509392505050565b600082601f830112610e2857610e27610cfb565b5b8135610e38848260208601610dd1565b91505092915050565b60008060008060808587031215610e5b57610e5a610cbb565b5b6000610e6987828801610ce6565b945050602085013567ffffffffffffffff811115610e8a57610e89610cc0565b5b610e9687828801610e13565b935050604085013567ffffffffffffffff811115610eb757610eb6610cc0565b5b610ec387828801610e13565b9250506060610ed487828801610ce6565b91505092959194509250565b600060208284031215610ef657610ef5610cbb565b5b6000610f0484828501610ce6565b91505092915050565b610f1681610cc5565b82525050565b600081519050919050565b600082825260208201905092915050565b60005b83811015610f56578082015181840152602081019050610f3b565b60008484015250505050565b6000610f6d82610f1c565b610f778185610f27565b9350610f87818560208601610f38565b610f9081610d05565b840191505092915050565b600061016082019050610fb1600083018e610f0d565b8181036020830152610fc3818d610f62565b90508181036040830152610fd7818c610f62565b90508181036060830152610feb818b610f62565b9050610ffa608083018a610f0d565b81810360a083015261100c8189610f62565b905081810360c08301526110208188610f62565b905061102f60e0830187610f0d565b8181036101008301526110428186610f62565b90508181036101208301526110578185610f62565b9050611067610140830184610f0d565b9c9b505050505050505050505050565b600080600080600060a0868803121561109357611092610cbb565b5b60006110a188828901610ce6565b955050602086013567ffffffffffffffff8111156110c2576110c1610cc0565b5b6110ce88828901610e13565b945050604086013567ffffffffffffffff8111156110ef576110ee610cc0565b5b6110fb88828901610e13565b935050606086013567ffffffffffffffff81111561111c5761111b610cc0565b5b61112888828901610e13565b925050608061113988828901610ce6565b9150509295509295909350565b600060208201905061115b6000830184610f0d565b92915050565b61116a81610cc5565b82525050565b600082825260208201905092915050565b600061118c82610f1c565b6111968185611170565b93506111a6818560208601610f38565b6111af81610d05565b840191505092915050565b6000610160830160008301516111d36000860182611161565b50602083015184820360208601526111eb8282611181565b915050604083015184820360408601526112058282611181565b9150506060830151848203606086015261121f8282611181565b91505060808301516112346080860182611161565b5060a083015184820360a086015261124c8282611181565b91505060c083015184820360c08601526112668282611181565b91505060e083015161127b60e0860182611161565b506101008301518482036101008601526112958282611181565b9150506101208301518482036101208601526112b18282611181565b9150506101408301516112c8610140860182611161565b508091505092915050565b600060208201905081810360008301526112ed81846111ba565b905092915050565b7f50726f647563742077697468207468697320494420646f6573206e6f7420657860008201527f6973740000000000000000000000000000000000000000000000000000000000602082015250565b6000611351602383610f27565b915061135c826112f5565b604082019050919050565b6000602082019050818103600083015261138081611344565b9050919050565b7f4e487b7100000000000000000000000000000000000000000000000000000000600052602260045260246000fd5b600060028204905060018216806113ce57607f821691505b6020821081036113e1576113e0611387565b5b50919050565b60008190508160005260206000209050919050565b60006020601f8301049050919050565b600082821b905092915050565b6000600883026114497fffffffffffffffffffffffffffffffffffffffffffffffffffffffffffffffff8261140c565b611453868361140c565b95508019841693508086168417925050509392505050565b6000819050919050565b600061149061148b61148684610cc5565b61146b565b610cc5565b9050919050565b6000819050919050565b6114aa83611475565b6114be6114b682611497565b848454611419565b825550505050565b600090565b6114d36114c6565b6114de8184846114a1565b505050565b5b81811015611502576114f76000826114cb565b6001810190506114e4565b5050565b601f82111561154757611518816113e7565b611521846113fc565b81016020851015611530578190505b61154461153c856113fc565b8301826114e3565b50505b505050565b600082821c905092915050565b600061156a6000198460080261154c565b1980831691505092915050565b60006115838383611559565b9150826002028217905092915050565b61159c82610f1c565b67ffffffffffffffff8111156115b5576115b4610d16565b5b6115bf82546113b6565b6115ca828285611506565b600060209050601f8311600181146115fd57600084156115eb578287015190505b6115f58582611577565b86555061165d565b601f19841661160b866113e7565b60005b828110156116335784890151825560018201915060208501945060208101905061160e565b86831015611650578489015161164c601f891682611559565b8355505b6001600288020188555050505b505050505050565b7f50726f647563742077697468207468697320494420616c72656164792065786960008201527f7374730000000000000000000000000000000000000000000000000000000000602082015250565b60006116c1602383610f27565b91506116cc82611665565b604082019050919050565b600060208201905081810360008301526116f0816116b4565b9050919050565b7f4e487b7100000000000000000000000000000000000000000000000000000000600052601160045260246000fd5b600061173182610cc5565b91507fffffffffffffffffffffffffffffffffffffffffffffffffffffffffffffffff8203611763576117626116f7565b5b60018201905091905056fea264697066735822122086e30d902386c65d633ebd27c01f8679dc3ffce29153b0289eaf54e787f820ec64736f6c63430008120033",
					"opcodes": "PUSH1 0x80 PUSH1 0x40 MSTORE CALLVALUE DUP1 ISZERO PUSH2 0x10 JUMPI PUSH1 0x0 DUP1 REVERT JUMPDEST POP PUSH2 0x17A4 DUP1 PUSH2 0x20 PUSH1 0x0 CODECOPY PUSH1 0x0 RETURN INVALID PUSH1 0x80 PUSH1 0x40 MSTORE CALLVALUE DUP1 ISZERO PUSH2 0x10 JUMPI PUSH1 0x0 DUP1 REVERT JUMPDEST POP PUSH1 0x4 CALLDATASIZE LT PUSH2 0x62 JUMPI PUSH1 0x0 CALLDATALOAD PUSH1 0xE0 SHR DUP1 PUSH4 0x56F2FC09 EQ PUSH2 0x67 JUMPI DUP1 PUSH4 0x7ACC0B20 EQ PUSH2 0x83 JUMPI DUP1 PUSH4 0xC67B3D1D EQ PUSH2 0xBD JUMPI DUP1 PUSH4 0xDA4CBE5A EQ PUSH2 0xD9 JUMPI DUP1 PUSH4 0xE0F6EF87 EQ PUSH2 0xF5 JUMPI DUP1 PUSH4 0xFCB6E31D EQ PUSH2 0x113 JUMPI JUMPDEST PUSH1 0x0 DUP1 REVERT JUMPDEST PUSH2 0x81 PUSH1 0x4 DUP1 CALLDATASIZE SUB DUP2 ADD SWAP1 PUSH2 0x7C SWAP2 SWAP1 PUSH2 0xE41 JUMP JUMPDEST PUSH2 0x143 JUMP JUMPDEST STOP JUMPDEST PUSH2 0x9D PUSH1 0x4 DUP1 CALLDATASIZE SUB DUP2 ADD SWAP1 PUSH2 0x98 SWAP2 SWAP1 PUSH2 0xEE0 JUMP JUMPDEST PUSH2 0x1E5 JUMP JUMPDEST PUSH1 0x40 MLOAD PUSH2 0xB4 SWAP12 SWAP11 SWAP10 SWAP9 SWAP8 SWAP7 SWAP6 SWAP5 SWAP4 SWAP3 SWAP2 SWAP1 PUSH2 0xF9B JUMP JUMPDEST PUSH1 0x40 MLOAD DUP1 SWAP2 SUB SWAP1 RETURN JUMPDEST PUSH2 0xD7 PUSH1 0x4 DUP1 CALLDATASIZE SUB DUP2 ADD SWAP1 PUSH2 0xD2 SWAP2 SWAP1 PUSH2 0x1077 JUMP JUMPDEST PUSH2 0x5F7 JUMP JUMPDEST STOP JUMPDEST PUSH2 0xF3 PUSH1 0x4 DUP1 CALLDATASIZE SUB DUP2 ADD SWAP1 PUSH2 0xEE SWAP2 SWAP1 PUSH2 0xE41 JUMP JUMPDEST PUSH2 0x704 JUMP JUMPDEST STOP JUMPDEST PUSH2 0xFD PUSH2 0x7A6 JUMP JUMPDEST PUSH1 0x40 MLOAD PUSH2 0x10A SWAP2 SWAP1 PUSH2 0x1146 JUMP JUMPDEST PUSH1 0x40 MLOAD DUP1 SWAP2 SUB SWAP1 RETURN JUMPDEST PUSH2 0x12D PUSH1 0x4 DUP1 CALLDATASIZE SUB DUP2 ADD SWAP1 PUSH2 0x128 SWAP2 SWAP1 PUSH2 0xEE0 JUMP JUMPDEST PUSH2 0x7AC JUMP JUMPDEST PUSH1 0x40 MLOAD PUSH2 0x13A SWAP2 SWAP1 PUSH2 0x12D3 JUMP JUMPDEST PUSH1 0x40 MLOAD DUP1 SWAP2 SUB SWAP1 RETURN JUMPDEST PUSH1 0x0 DUP1 PUSH1 0x0 DUP7 DUP2 MSTORE PUSH1 0x20 ADD SWAP1 DUP2 MSTORE PUSH1 0x20 ADD PUSH1 0x0 KECCAK256 PUSH1 0x0 ADD SLOAD SUB PUSH2 0x19B JUMPI PUSH1 0x40 MLOAD PUSH32 0x8C379A000000000000000000000000000000000000000000000000000000000 DUP2 MSTORE PUSH1 0x4 ADD PUSH2 0x192 SWAP1 PUSH2 0x1367 JUMP JUMPDEST PUSH1 0x40 MLOAD DUP1 SWAP2 SUB SWAP1 REVERT JUMPDEST PUSH1 0x0 DUP1 PUSH1 0x0 DUP7 DUP2 MSTORE PUSH1 0x20 ADD SWAP1 DUP2 MSTORE PUSH1 0x20 ADD PUSH1 0x0 KECCAK256 SWAP1 POP DUP4 DUP2 PUSH1 0x5 ADD SWAP1 DUP2 PUSH2 0x1C2 SWAP2 SWAP1 PUSH2 0x1593 JUMP JUMPDEST POP DUP3 DUP2 PUSH1 0x6 ADD SWAP1 DUP2 PUSH2 0x1D4 SWAP2 SWAP1 PUSH2 0x1593 JUMP JUMPDEST POP DUP2 DUP2 PUSH1 0x7 ADD DUP2 SWAP1 SSTORE POP POP POP POP POP POP JUMP JUMPDEST PUSH1 0x0 PUSH1 0x20 MSTORE DUP1 PUSH1 0x0 MSTORE PUSH1 0x40 PUSH1 0x0 KECCAK256 PUSH1 0x0 SWAP2 POP SWAP1 POP DUP1 PUSH1 0x0 ADD SLOAD SWAP1 DUP1 PUSH1 0x1 ADD DUP1 SLOAD PUSH2 0x20E SWAP1 PUSH2 0x13B6 JUMP JUMPDEST DUP1 PUSH1 0x1F ADD PUSH1 0x20 DUP1 SWAP2 DIV MUL PUSH1 0x20 ADD PUSH1 0x40 MLOAD SWAP1 DUP2 ADD PUSH1 0x40 MSTORE DUP1 SWAP3 SWAP2 SWAP1 DUP2 DUP2 MSTORE PUSH1 0x20 ADD DUP3 DUP1 SLOAD PUSH2 0x23A SWAP1 PUSH2 0x13B6 JUMP JUMPDEST DUP1 ISZERO PUSH2 0x287 JUMPI DUP1 PUSH1 0x1F LT PUSH2 0x25C JUMPI PUSH2 0x100 DUP1 DUP4 SLOAD DIV MUL DUP4 MSTORE SWAP2 PUSH1 0x20 ADD SWAP2 PUSH2 0x287 JUMP JUMPDEST DUP3 ADD SWAP2 SWAP1 PUSH1 0x0 MSTORE PUSH1 0x20 PUSH1 0x0 KECCAK256 SWAP1 JUMPDEST DUP2 SLOAD DUP2 MSTORE SWAP1 PUSH1 0x1 ADD SWAP1 PUSH1 0x20 ADD DUP1 DUP4 GT PUSH2 0x26A JUMPI DUP3 SWAP1 SUB PUSH1 0x1F AND DUP3 ADD SWAP2 JUMPDEST POP POP POP POP POP SWAP1 DUP1 PUSH1 0x2 ADD DUP1 SLOAD PUSH2 0x29C SWAP1 PUSH2 0x13B6 JUMP JUMPDEST DUP1 PUSH1 0x1F ADD PUSH1 0x20 DUP1 SWAP2 DIV MUL PUSH1 0x20 ADD PUSH1 0x40 MLOAD SWAP1 DUP2 ADD PUSH1 0x40 MSTORE DUP1 SWAP3 SWAP2 SWAP1 DUP2 DUP2 MSTORE PUSH1 0x20 ADD DUP3 DUP1 SLOAD PUSH2 0x2C8 SWAP1 PUSH2 0x13B6 JUMP JUMPDEST DUP1 ISZERO PUSH2 0x315 JUMPI DUP1 PUSH1 0x1F LT PUSH2 0x2EA JUMPI PUSH2 0x100 DUP1 DUP4 SLOAD DIV MUL DUP4 MSTORE SWAP2 PUSH1 0x20 ADD SWAP2 PUSH2 0x315 JUMP JUMPDEST DUP3 ADD SWAP2 SWAP1 PUSH1 0x0 MSTORE PUSH1 0x20 PUSH1 0x0 KECCAK256 SWAP1 JUMPDEST DUP2 SLOAD DUP2 MSTORE SWAP1 PUSH1 0x1 ADD SWAP1 PUSH1 0x20 ADD DUP1 DUP4 GT PUSH2 0x2F8 JUMPI DUP3 SWAP1 SUB PUSH1 0x1F AND DUP3 ADD SWAP2 JUMPDEST POP POP POP POP POP SWAP1 DUP1 PUSH1 0x3 ADD DUP1 SLOAD PUSH2 0x32A SWAP1 PUSH2 0x13B6 JUMP JUMPDEST DUP1 PUSH1 0x1F ADD PUSH1 0x20 DUP1 SWAP2 DIV MUL PUSH1 0x20 ADD PUSH1 0x40 MLOAD SWAP1 DUP2 ADD PUSH1 0x40 MSTORE DUP1 SWAP3 SWAP2 SWAP1 DUP2 DUP2 MSTORE PUSH1 0x20 ADD DUP3 DUP1 SLOAD PUSH2 0x356 SWAP1 PUSH2 0x13B6 JUMP JUMPDEST DUP1 ISZERO PUSH2 0x3A3 JUMPI DUP1 PUSH1 0x1F LT PUSH2 0x378 JUMPI PUSH2 0x100 DUP1 DUP4 SLOAD DIV MUL DUP4 MSTORE SWAP2 PUSH1 0x20 ADD SWAP2 PUSH2 0x3A3 JUMP JUMPDEST DUP3 ADD SWAP2 SWAP1 PUSH1 0x0 MSTORE PUSH1 0x20 PUSH1 0x0 KECCAK256 SWAP1 JUMPDEST DUP2 SLOAD DUP2 MSTORE SWAP1 PUSH1 0x1 ADD SWAP1 PUSH1 0x20 ADD DUP1 DUP4 GT PUSH2 0x386 JUMPI DUP3 SWAP1 SUB PUSH1 0x1F AND DUP3 ADD SWAP2 JUMPDEST POP POP POP POP POP SWAP1 DUP1 PUSH1 0x4 ADD SLOAD SWAP1 DUP1 PUSH1 0x5 ADD DUP1 SLOAD PUSH2 0x3BE SWAP1 PUSH2 0x13B6 JUMP JUMPDEST DUP1 PUSH1 0x1F ADD PUSH1 0x20 DUP1 SWAP2 DIV MUL PUSH1 0x20 ADD PUSH1 0x40 MLOAD SWAP1 DUP2 ADD PUSH1 0x40 MSTORE DUP1 SWAP3 SWAP2 SWAP1 DUP2 DUP2 MSTORE PUSH1 0x20 ADD DUP3 DUP1 SLOAD PUSH2 0x3EA SWAP1 PUSH2 0x13B6 JUMP JUMPDEST DUP1 ISZERO PUSH2 0x437 JUMPI DUP1 PUSH1 0x1F LT PUSH2 0x40C JUMPI PUSH2 0x100 DUP1 DUP4 SLOAD DIV MUL DUP4 MSTORE SWAP2 PUSH1 0x20 ADD SWAP2 PUSH2 0x437 JUMP JUMPDEST DUP3 ADD SWAP2 SWAP1 PUSH1 0x0 MSTORE PUSH1 0x20 PUSH1 0x0 KECCAK256 SWAP1 JUMPDEST DUP2 SLOAD DUP2 MSTORE SWAP1 PUSH1 0x1 ADD SWAP1 PUSH1 0x20 ADD DUP1 DUP4 GT PUSH2 0x41A JUMPI DUP3 SWAP1 SUB PUSH1 0x1F AND DUP3 ADD SWAP2 JUMPDEST POP POP POP POP POP SWAP1 DUP1 PUSH1 0x6 ADD DUP1 SLOAD PUSH2 0x44C SWAP1 PUSH2 0x13B6 JUMP JUMPDEST DUP1 PUSH1 0x1F ADD PUSH1 0x20 DUP1 SWAP2 DIV MUL PUSH1 0x20 ADD PUSH1 0x40 MLOAD SWAP1 DUP2 ADD PUSH1 0x40 MSTORE DUP1 SWAP3 SWAP2 SWAP1 DUP2 DUP2 MSTORE PUSH1 0x20 ADD DUP3 DUP1 SLOAD PUSH2 0x478 SWAP1 PUSH2 0x13B6 JUMP JUMPDEST DUP1 ISZERO PUSH2 0x4C5 JUMPI DUP1 PUSH1 0x1F LT PUSH2 0x49A JUMPI PUSH2 0x100 DUP1 DUP4 SLOAD DIV MUL DUP4 MSTORE SWAP2 PUSH1 0x20 ADD SWAP2 PUSH2 0x4C5 JUMP JUMPDEST DUP3 ADD SWAP2 SWAP1 PUSH1 0x0 MSTORE PUSH1 0x20 PUSH1 0x0 KECCAK256 SWAP1 JUMPDEST DUP2 SLOAD DUP2 MSTORE SWAP1 PUSH1 0x1 ADD SWAP1 PUSH1 0x20 ADD DUP1 DUP4 GT PUSH2 0x4A8 JUMPI DUP3 SWAP1 SUB PUSH1 0x1F AND DUP3 ADD SWAP2 JUMPDEST POP POP POP POP POP SWAP1 DUP1 PUSH1 0x7 ADD SLOAD SWAP1 DUP1 PUSH1 0x8 ADD DUP1 SLOAD PUSH2 0x4E0 SWAP1 PUSH2 0x13B6 JUMP JUMPDEST DUP1 PUSH1 0x1F ADD PUSH1 0x20 DUP1 SWAP2 DIV MUL PUSH1 0x20 ADD PUSH1 0x40 MLOAD SWAP1 DUP2 ADD PUSH1 0x40 MSTORE DUP1 SWAP3 SWAP2 SWAP1 DUP2 DUP2 MSTORE PUSH1 0x20 ADD DUP3 DUP1 SLOAD PUSH2 0x50C SWAP1 PUSH2 0x13B6 JUMP JUMPDEST DUP1 ISZERO PUSH2 0x559 JUMPI DUP1 PUSH1 0x1F LT PUSH2 0x52E JUMPI PUSH2 0x100 DUP1 DUP4 SLOAD DIV MUL DUP4 MSTORE SWAP2 PUSH1 0x20 ADD SWAP2 PUSH2 0x559 JUMP JUMPDEST DUP3 ADD SWAP2 SWAP1 PUSH1 0x0 MSTORE PUSH1 0x20 PUSH1 0x0 KECCAK256 SWAP1 JUMPDEST DUP2 SLOAD DUP2 MSTORE SWAP1 PUSH1 0x1 ADD SWAP1 PUSH1 0x20 ADD DUP1 DUP4 GT PUSH2 0x53C JUMPI DUP3 SWAP1 SUB PUSH1 0x1F AND DUP3 ADD SWAP2 JUMPDEST POP POP POP POP POP SWAP1 DUP1 PUSH1 0x9 ADD DUP1 SLOAD PUSH2 0x56E SWAP1 PUSH2 0x13B6 JUMP JUMPDEST DUP1 PUSH1 0x1F ADD PUSH1 0x20 DUP1 SWAP2 DIV MUL PUSH1 0x20 ADD PUSH1 0x40 MLOAD SWAP1 DUP2 ADD PUSH1 0x40 MSTORE DUP1 SWAP3 SWAP2 SWAP1 DUP2 DUP2 MSTORE PUSH1 0x20 ADD DUP3 DUP1 SLOAD PUSH2 0x59A SWAP1 PUSH2 0x13B6 JUMP JUMPDEST DUP1 ISZERO PUSH2 0x5E7 JUMPI DUP1 PUSH1 0x1F LT PUSH2 0x5BC JUMPI PUSH2 0x100 DUP1 DUP4 SLOAD DIV MUL DUP4 MSTORE SWAP2 PUSH1 0x20 ADD SWAP2 PUSH2 0x5E7 JUMP JUMPDEST DUP3 ADD SWAP2 SWAP1 PUSH1 0x0 MSTORE PUSH1 0x20 PUSH1 0x0 KECCAK256 SWAP1 JUMPDEST DUP2 SLOAD DUP2 MSTORE SWAP1 PUSH1 0x1 ADD SWAP1 PUSH1 0x20 ADD DUP1 DUP4 GT PUSH2 0x5CA JUMPI DUP3 SWAP1 SUB PUSH1 0x1F AND DUP3 ADD SWAP2 JUMPDEST POP POP POP POP POP SWAP1 DUP1 PUSH1 0xA ADD SLOAD SWAP1 POP DUP12 JUMP JUMPDEST PUSH1 0x0 DUP1 PUSH1 0x0 DUP8 DUP2 MSTORE PUSH1 0x20 ADD SWAP1 DUP2 MSTORE PUSH1 0x20 ADD PUSH1 0x0 KECCAK256 PUSH1 0x0 ADD SLOAD EQ PUSH2 0x64F JUMPI PUSH1 0x40 MLOAD PUSH32 0x8C379A000000000000000000000000000000000000000000000000000000000 DUP2 MSTORE PUSH1 0x4 ADD PUSH2 0x646 SWAP1 PUSH2 0x16D7 JUMP JUMPDEST PUSH1 0x40 MLOAD DUP1 SWAP2 SUB SWAP1 REVERT JUMPDEST PUSH1 0x0 DUP1 PUSH1 0x0 DUP8 DUP2 MSTORE PUSH1 0x20 ADD SWAP1 DUP2 MSTORE PUSH1 0x20 ADD PUSH1 0x0 KECCAK256 SWAP1 POP DUP6 DUP2 PUSH1 0x0 ADD DUP2 SWAP1 SSTORE POP DUP5 DUP2 PUSH1 0x1 ADD SWAP1 DUP2 PUSH2 0x67F SWAP2 SWAP1 PUSH2 0x1593 JUMP JUMPDEST POP DUP4 DUP2 PUSH1 0x2 ADD SWAP1 DUP2 PUSH2 0x691 SWAP2 SWAP1 PUSH2 0x1593 JUMP JUMPDEST POP DUP3 DUP2 PUSH1 0x3 ADD SWAP1 DUP2 PUSH2 0x6A3 SWAP2 SWAP1 PUSH2 0x1593 JUMP JUMPDEST POP DUP2 DUP2 PUSH1 0x4 ADD DUP2 SWAP1 SSTORE POP PUSH1 0x1 PUSH1 0x0 DUP2 SLOAD DUP1 SWAP3 SWAP2 SWAP1 PUSH2 0x6C0 SWAP1 PUSH2 0x1726 JUMP JUMPDEST SWAP2 SWAP1 POP SSTORE POP PUSH32 0x4FC9D5ACC453E78E01B205AF5788A1C62F195C4B5CDC8EB8F1C670863B7E736A DUP7 PUSH1 0x40 MLOAD PUSH2 0x6F4 SWAP2 SWAP1 PUSH2 0x1146 JUMP JUMPDEST PUSH1 0x40 MLOAD DUP1 SWAP2 SUB SWAP1 LOG1 POP POP POP POP POP POP JUMP JUMPDEST PUSH1 0x0 DUP1 PUSH1 0x0 DUP7 DUP2 MSTORE PUSH1 0x20 ADD SWAP1 DUP2 MSTORE PUSH1 0x20 ADD PUSH1 0x0 KECCAK256 PUSH1 0x0 ADD SLOAD SUB PUSH2 0x75C JUMPI PUSH1 0x40 MLOAD PUSH32 0x8C379A000000000000000000000000000000000000000000000000000000000 DUP2 MSTORE PUSH1 0x4 ADD PUSH2 0x753 SWAP1 PUSH2 0x1367 JUMP JUMPDEST PUSH1 0x40 MLOAD DUP1 SWAP2 SUB SWAP1 REVERT JUMPDEST PUSH1 0x0 DUP1 PUSH1 0x0 DUP7 DUP2 MSTORE PUSH1 0x20 ADD SWAP1 DUP2 MSTORE PUSH1 0x20 ADD PUSH1 0x0 KECCAK256 SWAP1 POP DUP4 DUP2 PUSH1 0x8 ADD SWAP1 DUP2 PUSH2 0x783 SWAP2 SWAP1 PUSH2 0x1593 JUMP JUMPDEST POP DUP3 DUP2 PUSH1 0x9 ADD SWAP1 DUP2 PUSH2 0x795 SWAP2 SWAP1 PUSH2 0x1593 JUMP JUMPDEST POP DUP2 DUP2 PUSH1 0xA ADD DUP2 SWAP1 SSTORE POP POP POP POP POP POP JUMP JUMPDEST PUSH1 0x1 SLOAD DUP2 JUMP JUMPDEST PUSH2 0x7B4 PUSH2 0xC57 JUMP JUMPDEST PUSH1 0x0 DUP1 PUSH1 0x0 DUP5 DUP2 MSTORE PUSH1 0x20 ADD SWAP1 DUP2 MSTORE PUSH1 0x20 ADD PUSH1 0x0 KECCAK256 PUSH1 0x0 ADD SLOAD SUB PUSH2 0x80C JUMPI PUSH1 0x40 MLOAD PUSH32 0x8C379A000000000000000000000000000000000000000000000000000000000 DUP2 MSTORE PUSH1 0x4 ADD PUSH2 0x803 SWAP1 PUSH2 0x1367 JUMP JUMPDEST PUSH1 0x40 MLOAD DUP1 SWAP2 SUB SWAP1 REVERT JUMPDEST PUSH1 0x0 DUP1 DUP4 DUP2 MSTORE PUSH1 0x20 ADD SWAP1 DUP2 MSTORE PUSH1 0x20 ADD PUSH1 0x0 KECCAK256 PUSH1 0x40 MLOAD DUP1 PUSH2 0x160 ADD PUSH1 0x40 MSTORE SWAP1 DUP2 PUSH1 0x0 DUP3 ADD SLOAD DUP2 MSTORE PUSH1 0x20 ADD PUSH1 0x1 DUP3 ADD DUP1 SLOAD PUSH2 0x844 SWAP1 PUSH2 0x13B6 JUMP JUMPDEST DUP1 PUSH1 0x1F ADD PUSH1 0x20 DUP1 SWAP2 DIV MUL PUSH1 0x20 ADD PUSH1 0x40 MLOAD SWAP1 DUP2 ADD PUSH1 0x40 MSTORE DUP1 SWAP3 SWAP2 SWAP1 DUP2 DUP2 MSTORE PUSH1 0x20 ADD DUP3 DUP1 SLOAD PUSH2 0x870 SWAP1 PUSH2 0x13B6 JUMP JUMPDEST DUP1 ISZERO PUSH2 0x8BD JUMPI DUP1 PUSH1 0x1F LT PUSH2 0x892 JUMPI PUSH2 0x100 DUP1 DUP4 SLOAD DIV MUL DUP4 MSTORE SWAP2 PUSH1 0x20 ADD SWAP2 PUSH2 0x8BD JUMP JUMPDEST DUP3 ADD SWAP2 SWAP1 PUSH1 0x0 MSTORE PUSH1 0x20 PUSH1 0x0 KECCAK256 SWAP1 JUMPDEST DUP2 SLOAD DUP2 MSTORE SWAP1 PUSH1 0x1 ADD SWAP1 PUSH1 0x20 ADD DUP1 DUP4 GT PUSH2 0x8A0 JUMPI DUP3 SWAP1 SUB PUSH1 0x1F AND DUP3 ADD SWAP2 JUMPDEST POP POP POP POP POP DUP2 MSTORE PUSH1 0x20 ADD PUSH1 0x2 DUP3 ADD DUP1 SLOAD PUSH2 0x8D6 SWAP1 PUSH2 0x13B6 JUMP JUMPDEST DUP1 PUSH1 0x1F ADD PUSH1 0x20 DUP1 SWAP2 DIV MUL PUSH1 0x20 ADD PUSH1 0x40 MLOAD SWAP1 DUP2 ADD PUSH1 0x40 MSTORE DUP1 SWAP3 SWAP2 SWAP1 DUP2 DUP2 MSTORE PUSH1 0x20 ADD DUP3 DUP1 SLOAD PUSH2 0x902 SWAP1 PUSH2 0x13B6 JUMP JUMPDEST DUP1 ISZERO PUSH2 0x94F JUMPI DUP1 PUSH1 0x1F LT PUSH2 0x924 JUMPI PUSH2 0x100 DUP1 DUP4 SLOAD DIV MUL DUP4 MSTORE SWAP2 PUSH1 0x20 ADD SWAP2 PUSH2 0x94F JUMP JUMPDEST DUP3 ADD SWAP2 SWAP1 PUSH1 0x0 MSTORE PUSH1 0x20 PUSH1 0x0 KECCAK256 SWAP1 JUMPDEST DUP2 SLOAD DUP2 MSTORE SWAP1 PUSH1 0x1 ADD SWAP1 PUSH1 0x20 ADD DUP1 DUP4 GT PUSH2 0x932 JUMPI DUP3 SWAP1 SUB PUSH1 0x1F AND DUP3 ADD SWAP2 JUMPDEST POP POP POP POP POP DUP2 MSTORE PUSH1 0x20 ADD PUSH1 0x3 DUP3 ADD DUP1 SLOAD PUSH2 0x968 SWAP1 PUSH2 0x13B6 JUMP JUMPDEST DUP1 PUSH1 0x1F ADD PUSH1 0x20 DUP1 SWAP2 DIV MUL PUSH1 0x20 ADD PUSH1 0x40 MLOAD SWAP1 DUP2 ADD PUSH1 0x40 MSTORE DUP1 SWAP3 SWAP2 SWAP1 DUP2 DUP2 MSTORE PUSH1 0x20 ADD DUP3 DUP1 SLOAD PUSH2 0x994 SWAP1 PUSH2 0x13B6 JUMP JUMPDEST DUP1 ISZERO PUSH2 0x9E1 JUMPI DUP1 PUSH1 0x1F LT PUSH2 0x9B6 JUMPI PUSH2 0x100 DUP1 DUP4 SLOAD DIV MUL DUP4 MSTORE SWAP2 PUSH1 0x20 ADD SWAP2 PUSH2 0x9E1 JUMP JUMPDEST DUP3 ADD SWAP2 SWAP1 PUSH1 0x0 MSTORE PUSH1 0x20 PUSH1 0x0 KECCAK256 SWAP1 JUMPDEST DUP2 SLOAD DUP2 MSTORE SWAP1 PUSH1 0x1 ADD SWAP1 PUSH1 0x20 ADD DUP1 DUP4 GT PUSH2 0x9C4 JUMPI DUP3 SWAP1 SUB PUSH1 0x1F AND DUP3 ADD SWAP2 JUMPDEST POP POP POP POP POP DUP2 MSTORE PUSH1 0x20 ADD PUSH1 0x4 DUP3 ADD SLOAD DUP2 MSTORE PUSH1 0x20 ADD PUSH1 0x5 DUP3 ADD DUP1 SLOAD PUSH2 0xA04 SWAP1 PUSH2 0x13B6 JUMP JUMPDEST DUP1 PUSH1 0x1F ADD PUSH1 0x20 DUP1 SWAP2 DIV MUL PUSH1 0x20 ADD PUSH1 0x40 MLOAD SWAP1 DUP2 ADD PUSH1 0x40 MSTORE DUP1 SWAP3 SWAP2 SWAP1 DUP2 DUP2 MSTORE PUSH1 0x20 ADD DUP3 DUP1 SLOAD PUSH2 0xA30 SWAP1 PUSH2 0x13B6 JUMP JUMPDEST DUP1 ISZERO PUSH2 0xA7D JUMPI DUP1 PUSH1 0x1F LT PUSH2 0xA52 JUMPI PUSH2 0x100 DUP1 DUP4 SLOAD DIV MUL DUP4 MSTORE SWAP2 PUSH1 0x20 ADD SWAP2 PUSH2 0xA7D JUMP JUMPDEST DUP3 ADD SWAP2 SWAP1 PUSH1 0x0 MSTORE PUSH1 0x20 PUSH1 0x0 KECCAK256 SWAP1 JUMPDEST DUP2 SLOAD DUP2 MSTORE SWAP1 PUSH1 0x1 ADD SWAP1 PUSH1 0x20 ADD DUP1 DUP4 GT PUSH2 0xA60 JUMPI DUP3 SWAP1 SUB PUSH1 0x1F AND DUP3 ADD SWAP2 JUMPDEST POP POP POP POP POP DUP2 MSTORE PUSH1 0x20 ADD PUSH1 0x6 DUP3 ADD DUP1 SLOAD PUSH2 0xA96 SWAP1 PUSH2 0x13B6 JUMP JUMPDEST DUP1 PUSH1 0x1F ADD PUSH1 0x20 DUP1 SWAP2 DIV MUL PUSH1 0x20 ADD PUSH1 0x40 MLOAD SWAP1 DUP2 ADD PUSH1 0x40 MSTORE DUP1 SWAP3 SWAP2 SWAP1 DUP2 DUP2 MSTORE PUSH1 0x20 ADD DUP3 DUP1 SLOAD PUSH2 0xAC2 SWAP1 PUSH2 0x13B6 JUMP JUMPDEST DUP1 ISZERO PUSH2 0xB0F JUMPI DUP1 PUSH1 0x1F LT PUSH2 0xAE4 JUMPI PUSH2 0x100 DUP1 DUP4 SLOAD DIV MUL DUP4 MSTORE SWAP2 PUSH1 0x20 ADD SWAP2 PUSH2 0xB0F JUMP JUMPDEST DUP3 ADD SWAP2 SWAP1 PUSH1 0x0 MSTORE PUSH1 0x20 PUSH1 0x0 KECCAK256 SWAP1 JUMPDEST DUP2 SLOAD DUP2 MSTORE SWAP1 PUSH1 0x1 ADD SWAP1 PUSH1 0x20 ADD DUP1 DUP4 GT PUSH2 0xAF2 JUMPI DUP3 SWAP1 SUB PUSH1 0x1F AND DUP3 ADD SWAP2 JUMPDEST POP POP POP POP POP DUP2 MSTORE PUSH1 0x20 ADD PUSH1 0x7 DUP3 ADD SLOAD DUP2 MSTORE PUSH1 0x20 ADD PUSH1 0x8 DUP3 ADD DUP1 SLOAD PUSH2 0xB32 SWAP1 PUSH2 0x13B6 JUMP JUMPDEST DUP1 PUSH1 0x1F ADD PUSH1 0x20 DUP1 SWAP2 DIV MUL PUSH1 0x20 ADD PUSH1 0x40 MLOAD SWAP1 DUP2 ADD PUSH1 0x40 MSTORE DUP1 SWAP3 SWAP2 SWAP1 DUP2 DUP2 MSTORE PUSH1 0x20 ADD DUP3 DUP1 SLOAD PUSH2 0xB5E SWAP1 PUSH2 0x13B6 JUMP JUMPDEST DUP1 ISZERO PUSH2 0xBAB JUMPI DUP1 PUSH1 0x1F LT PUSH2 0xB80 JUMPI PUSH2 0x100 DUP1 DUP4 SLOAD DIV MUL DUP4 MSTORE SWAP2 PUSH1 0x20 ADD SWAP2 PUSH2 0xBAB JUMP JUMPDEST DUP3 ADD SWAP2 SWAP1 PUSH1 0x0 MSTORE PUSH1 0x20 PUSH1 0x0 KECCAK256 SWAP1 JUMPDEST DUP2 SLOAD DUP2 MSTORE SWAP1 PUSH1 0x1 ADD SWAP1 PUSH1 0x20 ADD DUP1 DUP4 GT PUSH2 0xB8E JUMPI DUP3 SWAP1 SUB PUSH1 0x1F AND DUP3 ADD SWAP2 JUMPDEST POP POP POP POP POP DUP2 MSTORE PUSH1 0x20 ADD PUSH1 0x9 DUP3 ADD DUP1 SLOAD PUSH2 0xBC4 SWAP1 PUSH2 0x13B6 JUMP JUMPDEST DUP1 PUSH1 0x1F ADD PUSH1 0x20 DUP1 SWAP2 DIV MUL PUSH1 0x20 ADD PUSH1 0x40 MLOAD SWAP1 DUP2 ADD PUSH1 0x40 MSTORE DUP1 SWAP3 SWAP2 SWAP1 DUP2 DUP2 MSTORE PUSH1 0x20 ADD DUP3 DUP1 SLOAD PUSH2 0xBF0 SWAP1 PUSH2 0x13B6 JUMP JUMPDEST DUP1 ISZERO PUSH2 0xC3D JUMPI DUP1 PUSH1 0x1F LT PUSH2 0xC12 JUMPI PUSH2 0x100 DUP1 DUP4 SLOAD DIV MUL DUP4 MSTORE SWAP2 PUSH1 0x20 ADD SWAP2 PUSH2 0xC3D JUMP JUMPDEST DUP3 ADD SWAP2 SWAP1 PUSH1 0x0 MSTORE PUSH1 0x20 PUSH1 0x0 KECCAK256 SWAP1 JUMPDEST DUP2 SLOAD DUP2 MSTORE SWAP1 PUSH1 0x1 ADD SWAP1 PUSH1 0x20 ADD DUP1 DUP4 GT PUSH2 0xC20 JUMPI DUP3 SWAP1 SUB PUSH1 0x1F AND DUP3 ADD SWAP2 JUMPDEST POP POP POP POP POP DUP2 MSTORE PUSH1 0x20 ADD PUSH1 0xA DUP3 ADD SLOAD DUP2 MSTORE POP POP SWAP1 POP SWAP2 SWAP1 POP JUMP JUMPDEST PUSH1 0x40 MLOAD DUP1 PUSH2 0x160 ADD PUSH1 0x40 MSTORE DUP1 PUSH1 0x0 DUP2 MSTORE PUSH1 0x20 ADD PUSH1 0x60 DUP2 MSTORE PUSH1 0x20 ADD PUSH1 0x60 DUP2 MSTORE PUSH1 0x20 ADD PUSH1 0x60 DUP2 MSTORE PUSH1 0x20 ADD PUSH1 0x0 DUP2 MSTORE PUSH1 0x20 ADD PUSH1 0x60 DUP2 MSTORE PUSH1 0x20 ADD PUSH1 0x60 DUP2 MSTORE PUSH1 0x20 ADD PUSH1 0x0 DUP2 MSTORE PUSH1 0x20 ADD PUSH1 0x60 DUP2 MSTORE PUSH1 0x20 ADD PUSH1 0x60 DUP2 MSTORE PUSH1 0x20 ADD PUSH1 0x0 DUP2 MSTORE POP SWAP1 JUMP JUMPDEST PUSH1 0x0 PUSH1 0x40 MLOAD SWAP1 POP SWAP1 JUMP JUMPDEST PUSH1 0x0 DUP1 REVERT JUMPDEST PUSH1 0x0 DUP1 REVERT JUMPDEST PUSH1 0x0 DUP2 SWAP1 POP SWAP2 SWAP1 POP JUMP JUMPDEST PUSH2 0xCD8 DUP2 PUSH2 0xCC5 JUMP JUMPDEST DUP2 EQ PUSH2 0xCE3 JUMPI PUSH1 0x0 DUP1 REVERT JUMPDEST POP JUMP JUMPDEST PUSH1 0x0 DUP2 CALLDATALOAD SWAP1 POP PUSH2 0xCF5 DUP2 PUSH2 0xCCF JUMP JUMPDEST SWAP3 SWAP2 POP POP JUMP JUMPDEST PUSH1 0x0 DUP1 REVERT JUMPDEST PUSH1 0x0 DUP1 REVERT JUMPDEST PUSH1 0x0 PUSH1 0x1F NOT PUSH1 0x1F DUP4 ADD AND SWAP1 POP SWAP2 SWAP1 POP JUMP JUMPDEST PUSH32 0x4E487B7100000000000000000000000000000000000000000000000000000000 PUSH1 0x0 MSTORE PUSH1 0x41 PUSH1 0x4 MSTORE PUSH1 0x24 PUSH1 0x0 REVERT JUMPDEST PUSH2 0xD4E DUP3 PUSH2 0xD05 JUMP JUMPDEST DUP2 ADD DUP2 DUP2 LT PUSH8 0xFFFFFFFFFFFFFFFF DUP3 GT OR ISZERO PUSH2 0xD6D JUMPI PUSH2 0xD6C PUSH2 0xD16 JUMP JUMPDEST JUMPDEST DUP1 PUSH1 0x40 MSTORE POP POP POP JUMP JUMPDEST PUSH1 0x0 PUSH2 0xD80 PUSH2 0xCB1 JUMP JUMPDEST SWAP1 POP PUSH2 0xD8C DUP3 DUP3 PUSH2 0xD45 JUMP JUMPDEST SWAP2 SWAP1 POP JUMP JUMPDEST PUSH1 0x0 PUSH8 0xFFFFFFFFFFFFFFFF DUP3 GT ISZERO PUSH2 0xDAC JUMPI PUSH2 0xDAB PUSH2 0xD16 JUMP JUMPDEST JUMPDEST PUSH2 0xDB5 DUP3 PUSH2 0xD05 JUMP JUMPDEST SWAP1 POP PUSH1 0x20 DUP2 ADD SWAP1 POP SWAP2 SWAP1 POP JUMP JUMPDEST DUP3 DUP2 DUP4 CALLDATACOPY PUSH1 0x0 DUP4 DUP4 ADD MSTORE POP POP POP JUMP JUMPDEST PUSH1 0x0 PUSH2 0xDE4 PUSH2 0xDDF DUP5 PUSH2 0xD91 JUMP JUMPDEST PUSH2 0xD76 JUMP JUMPDEST SWAP1 POP DUP3 DUP2 MSTORE PUSH1 0x20 DUP2 ADD DUP5 DUP5 DUP5 ADD GT ISZERO PUSH2 0xE00 JUMPI PUSH2 0xDFF PUSH2 0xD00 JUMP JUMPDEST JUMPDEST PUSH2 0xE0B DUP5 DUP3 DUP6 PUSH2 0xDC2 JUMP JUMPDEST POP SWAP4 SWAP3 POP POP POP JUMP JUMPDEST PUSH1 0x0 DUP3 PUSH1 0x1F DUP4 ADD SLT PUSH2 0xE28 JUMPI PUSH2 0xE27 PUSH2 0xCFB JUMP JUMPDEST JUMPDEST DUP2 CALLDATALOAD PUSH2 0xE38 DUP5 DUP3 PUSH1 0x20 DUP7 ADD PUSH2 0xDD1 JUMP JUMPDEST SWAP2 POP POP SWAP3 SWAP2 POP POP JUMP JUMPDEST PUSH1 0x0 DUP1 PUSH1 0x0 DUP1 PUSH1 0x80 DUP6 DUP8 SUB SLT ISZERO PUSH2 0xE5B JUMPI PUSH2 0xE5A PUSH2 0xCBB JUMP JUMPDEST JUMPDEST PUSH1 0x0 PUSH2 0xE69 DUP8 DUP3 DUP9 ADD PUSH2 0xCE6 JUMP JUMPDEST SWAP5 POP POP PUSH1 0x20 DUP6 ADD CALLDATALOAD PUSH8 0xFFFFFFFFFFFFFFFF DUP2 GT ISZERO PUSH2 0xE8A JUMPI PUSH2 0xE89 PUSH2 0xCC0 JUMP JUMPDEST JUMPDEST PUSH2 0xE96 DUP8 DUP3 DUP9 ADD PUSH2 0xE13 JUMP JUMPDEST SWAP4 POP POP PUSH1 0x40 DUP6 ADD CALLDATALOAD PUSH8 0xFFFFFFFFFFFFFFFF DUP2 GT ISZERO PUSH2 0xEB7 JUMPI PUSH2 0xEB6 PUSH2 0xCC0 JUMP JUMPDEST JUMPDEST PUSH2 0xEC3 DUP8 DUP3 DUP9 ADD PUSH2 0xE13 JUMP JUMPDEST SWAP3 POP POP PUSH1 0x60 PUSH2 0xED4 DUP8 DUP3 DUP9 ADD PUSH2 0xCE6 JUMP JUMPDEST SWAP2 POP POP SWAP3 SWAP6 SWAP2 SWAP5 POP SWAP3 POP JUMP JUMPDEST PUSH1 0x0 PUSH1 0x20 DUP3 DUP5 SUB SLT ISZERO PUSH2 0xEF6 JUMPI PUSH2 0xEF5 PUSH2 0xCBB JUMP JUMPDEST JUMPDEST PUSH1 0x0 PUSH2 0xF04 DUP5 DUP3 DUP6 ADD PUSH2 0xCE6 JUMP JUMPDEST SWAP2 POP POP SWAP3 SWAP2 POP POP JUMP JUMPDEST PUSH2 0xF16 DUP2 PUSH2 0xCC5 JUMP JUMPDEST DUP3 MSTORE POP POP JUMP JUMPDEST PUSH1 0x0 DUP2 MLOAD SWAP1 POP SWAP2 SWAP1 POP JUMP JUMPDEST PUSH1 0x0 DUP3 DUP3 MSTORE PUSH1 0x20 DUP3 ADD SWAP1 POP SWAP3 SWAP2 POP POP JUMP JUMPDEST PUSH1 0x0 JUMPDEST DUP4 DUP2 LT ISZERO PUSH2 0xF56 JUMPI DUP1 DUP3 ADD MLOAD DUP2 DUP5 ADD MSTORE PUSH1 0x20 DUP2 ADD SWAP1 POP PUSH2 0xF3B JUMP JUMPDEST PUSH1 0x0 DUP5 DUP5 ADD MSTORE POP POP POP POP JUMP JUMPDEST PUSH1 0x0 PUSH2 0xF6D DUP3 PUSH2 0xF1C JUMP JUMPDEST PUSH2 0xF77 DUP2 DUP6 PUSH2 0xF27 JUMP JUMPDEST SWAP4 POP PUSH2 0xF87 DUP2 DUP6 PUSH1 0x20 DUP7 ADD PUSH2 0xF38 JUMP JUMPDEST PUSH2 0xF90 DUP2 PUSH2 0xD05 JUMP JUMPDEST DUP5 ADD SWAP2 POP POP SWAP3 SWAP2 POP POP JUMP JUMPDEST PUSH1 0x0 PUSH2 0x160 DUP3 ADD SWAP1 POP PUSH2 0xFB1 PUSH1 0x0 DUP4 ADD DUP15 PUSH2 0xF0D JUMP JUMPDEST DUP2 DUP2 SUB PUSH1 0x20 DUP4 ADD MSTORE PUSH2 0xFC3 DUP2 DUP14 PUSH2 0xF62 JUMP JUMPDEST SWAP1 POP DUP2 DUP2 SUB PUSH1 0x40 DUP4 ADD MSTORE PUSH2 0xFD7 DUP2 DUP13 PUSH2 0xF62 JUMP JUMPDEST SWAP1 POP DUP2 DUP2 SUB PUSH1 0x60 DUP4 ADD MSTORE PUSH2 0xFEB DUP2 DUP12 PUSH2 0xF62 JUMP JUMPDEST SWAP1 POP PUSH2 0xFFA PUSH1 0x80 DUP4 ADD DUP11 PUSH2 0xF0D JUMP JUMPDEST DUP2 DUP2 SUB PUSH1 0xA0 DUP4 ADD MSTORE PUSH2 0x100C DUP2 DUP10 PUSH2 0xF62 JUMP JUMPDEST SWAP1 POP DUP2 DUP2 SUB PUSH1 0xC0 DUP4 ADD MSTORE PUSH2 0x1020 DUP2 DUP9 PUSH2 0xF62 JUMP JUMPDEST SWAP1 POP PUSH2 0x102F PUSH1 0xE0 DUP4 ADD DUP8 PUSH2 0xF0D JUMP JUMPDEST DUP2 DUP2 SUB PUSH2 0x100 DUP4 ADD MSTORE PUSH2 0x1042 DUP2 DUP7 PUSH2 0xF62 JUMP JUMPDEST SWAP1 POP DUP2 DUP2 SUB PUSH2 0x120 DUP4 ADD MSTORE PUSH2 0x1057 DUP2 DUP6 PUSH2 0xF62 JUMP JUMPDEST SWAP1 POP PUSH2 0x1067 PUSH2 0x140 DUP4 ADD DUP5 PUSH2 0xF0D JUMP JUMPDEST SWAP13 SWAP12 POP POP POP POP POP POP POP POP POP POP POP POP JUMP JUMPDEST PUSH1 0x0 DUP1 PUSH1 0x0 DUP1 PUSH1 0x0 PUSH1 0xA0 DUP7 DUP9 SUB SLT ISZERO PUSH2 0x1093 JUMPI PUSH2 0x1092 PUSH2 0xCBB JUMP JUMPDEST JUMPDEST PUSH1 0x0 PUSH2 0x10A1 DUP9 DUP3 DUP10 ADD PUSH2 0xCE6 JUMP JUMPDEST SWAP6 POP POP PUSH1 0x20 DUP7 ADD CALLDATALOAD PUSH8 0xFFFFFFFFFFFFFFFF DUP2 GT ISZERO PUSH2 0x10C2 JUMPI PUSH2 0x10C1 PUSH2 0xCC0 JUMP JUMPDEST JUMPDEST PUSH2 0x10CE DUP9 DUP3 DUP10 ADD PUSH2 0xE13 JUMP JUMPDEST SWAP5 POP POP PUSH1 0x40 DUP7 ADD CALLDATALOAD PUSH8 0xFFFFFFFFFFFFFFFF DUP2 GT ISZERO PUSH2 0x10EF JUMPI PUSH2 0x10EE PUSH2 0xCC0 JUMP JUMPDEST JUMPDEST PUSH2 0x10FB DUP9 DUP3 DUP10 ADD PUSH2 0xE13 JUMP JUMPDEST SWAP4 POP POP PUSH1 0x60 DUP7 ADD CALLDATALOAD PUSH8 0xFFFFFFFFFFFFFFFF DUP2 GT ISZERO PUSH2 0x111C JUMPI PUSH2 0x111B PUSH2 0xCC0 JUMP JUMPDEST JUMPDEST PUSH2 0x1128 DUP9 DUP3 DUP10 ADD PUSH2 0xE13 JUMP JUMPDEST SWAP3 POP POP PUSH1 0x80 PUSH2 0x1139 DUP9 DUP3 DUP10 ADD PUSH2 0xCE6 JUMP JUMPDEST SWAP2 POP POP SWAP3 SWAP6 POP SWAP3 SWAP6 SWAP1 SWAP4 POP JUMP JUMPDEST PUSH1 0x0 PUSH1 0x20 DUP3 ADD SWAP1 POP PUSH2 0x115B PUSH1 0x0 DUP4 ADD DUP5 PUSH2 0xF0D JUMP JUMPDEST SWAP3 SWAP2 POP POP JUMP JUMPDEST PUSH2 0x116A DUP2 PUSH2 0xCC5 JUMP JUMPDEST DUP3 MSTORE POP POP JUMP JUMPDEST PUSH1 0x0 DUP3 DUP3 MSTORE PUSH1 0x20 DUP3 ADD SWAP1 POP SWAP3 SWAP2 POP POP JUMP JUMPDEST PUSH1 0x0 PUSH2 0x118C DUP3 PUSH2 0xF1C JUMP JUMPDEST PUSH2 0x1196 DUP2 DUP6 PUSH2 0x1170 JUMP JUMPDEST SWAP4 POP PUSH2 0x11A6 DUP2 DUP6 PUSH1 0x20 DUP7 ADD PUSH2 0xF38 JUMP JUMPDEST PUSH2 0x11AF DUP2 PUSH2 0xD05 JUMP JUMPDEST DUP5 ADD SWAP2 POP POP SWAP3 SWAP2 POP POP JUMP JUMPDEST PUSH1 0x0 PUSH2 0x160 DUP4 ADD PUSH1 0x0 DUP4 ADD MLOAD PUSH2 0x11D3 PUSH1 0x0 DUP7 ADD DUP3 PUSH2 0x1161 JUMP JUMPDEST POP PUSH1 0x20 DUP4 ADD MLOAD DUP5 DUP3 SUB PUSH1 0x20 DUP7 ADD MSTORE PUSH2 0x11EB DUP3 DUP3 PUSH2 0x1181 JUMP JUMPDEST SWAP2 POP POP PUSH1 0x40 DUP4 ADD MLOAD DUP5 DUP3 SUB PUSH1 0x40 DUP7 ADD MSTORE PUSH2 0x1205 DUP3 DUP3 PUSH2 0x1181 JUMP JUMPDEST SWAP2 POP POP PUSH1 0x60 DUP4 ADD MLOAD DUP5 DUP3 SUB PUSH1 0x60 DUP7 ADD MSTORE PUSH2 0x121F DUP3 DUP3 PUSH2 0x1181 JUMP JUMPDEST SWAP2 POP POP PUSH1 0x80 DUP4 ADD MLOAD PUSH2 0x1234 PUSH1 0x80 DUP7 ADD DUP3 PUSH2 0x1161 JUMP JUMPDEST POP PUSH1 0xA0 DUP4 ADD MLOAD DUP5 DUP3 SUB PUSH1 0xA0 DUP7 ADD MSTORE PUSH2 0x124C DUP3 DUP3 PUSH2 0x1181 JUMP JUMPDEST SWAP2 POP POP PUSH1 0xC0 DUP4 ADD MLOAD DUP5 DUP3 SUB PUSH1 0xC0 DUP7 ADD MSTORE PUSH2 0x1266 DUP3 DUP3 PUSH2 0x1181 JUMP JUMPDEST SWAP2 POP POP PUSH1 0xE0 DUP4 ADD MLOAD PUSH2 0x127B PUSH1 0xE0 DUP7 ADD DUP3 PUSH2 0x1161 JUMP JUMPDEST POP PUSH2 0x100 DUP4 ADD MLOAD DUP5 DUP3 SUB PUSH2 0x100 DUP7 ADD MSTORE PUSH2 0x1295 DUP3 DUP3 PUSH2 0x1181 JUMP JUMPDEST SWAP2 POP POP PUSH2 0x120 DUP4 ADD MLOAD DUP5 DUP3 SUB PUSH2 0x120 DUP7 ADD MSTORE PUSH2 0x12B1 DUP3 DUP3 PUSH2 0x1181 JUMP JUMPDEST SWAP2 POP POP PUSH2 0x140 DUP4 ADD MLOAD PUSH2 0x12C8 PUSH2 0x140 DUP7 ADD DUP3 PUSH2 0x1161 JUMP JUMPDEST POP DUP1 SWAP2 POP POP SWAP3 SWAP2 POP POP JUMP JUMPDEST PUSH1 0x0 PUSH1 0x20 DUP3 ADD SWAP1 POP DUP2 DUP2 SUB PUSH1 0x0 DUP4 ADD MSTORE PUSH2 0x12ED DUP2 DUP5 PUSH2 0x11BA JUMP JUMPDEST SWAP1 POP SWAP3 SWAP2 POP POP JUMP JUMPDEST PUSH32 0x50726F647563742077697468207468697320494420646F6573206E6F74206578 PUSH1 0x0 DUP3 ADD MSTORE PUSH32 0x6973740000000000000000000000000000000000000000000000000000000000 PUSH1 0x20 DUP3 ADD MSTORE POP JUMP JUMPDEST PUSH1 0x0 PUSH2 0x1351 PUSH1 0x23 DUP4 PUSH2 0xF27 JUMP JUMPDEST SWAP2 POP PUSH2 0x135C DUP3 PUSH2 0x12F5 JUMP JUMPDEST PUSH1 0x40 DUP3 ADD SWAP1 POP SWAP2 SWAP1 POP JUMP JUMPDEST PUSH1 0x0 PUSH1 0x20 DUP3 ADD SWAP1 POP DUP2 DUP2 SUB PUSH1 0x0 DUP4 ADD MSTORE PUSH2 0x1380 DUP2 PUSH2 0x1344 JUMP JUMPDEST SWAP1 POP SWAP2 SWAP1 POP JUMP JUMPDEST PUSH32 0x4E487B7100000000000000000000000000000000000000000000000000000000 PUSH1 0x0 MSTORE PUSH1 0x22 PUSH1 0x4 MSTORE PUSH1 0x24 PUSH1 0x0 REVERT JUMPDEST PUSH1 0x0 PUSH1 0x2 DUP3 DIV SWAP1 POP PUSH1 0x1 DUP3 AND DUP1 PUSH2 0x13CE JUMPI PUSH1 0x7F DUP3 AND SWAP2 POP JUMPDEST PUSH1 0x20 DUP3 LT DUP2 SUB PUSH2 0x13E1 JUMPI PUSH2 0x13E0 PUSH2 0x1387 JUMP JUMPDEST JUMPDEST POP SWAP2 SWAP1 POP JUMP JUMPDEST PUSH1 0x0 DUP2 SWAP1 POP DUP2 PUSH1 0x0 MSTORE PUSH1 0x20 PUSH1 0x0 KECCAK256 SWAP1 POP SWAP2 SWAP1 POP JUMP JUMPDEST PUSH1 0x0 PUSH1 0x20 PUSH1 0x1F DUP4 ADD DIV SWAP1 POP SWAP2 SWAP1 POP JUMP JUMPDEST PUSH1 0x0 DUP3 DUP3 SHL SWAP1 POP SWAP3 SWAP2 POP POP JUMP JUMPDEST PUSH1 0x0 PUSH1 0x8 DUP4 MUL PUSH2 0x1449 PUSH32 0xFFFFFFFFFFFFFFFFFFFFFFFFFFFFFFFFFFFFFFFFFFFFFFFFFFFFFFFFFFFFFFFF DUP3 PUSH2 0x140C JUMP JUMPDEST PUSH2 0x1453 DUP7 DUP4 PUSH2 0x140C JUMP JUMPDEST SWAP6 POP DUP1 NOT DUP5 AND SWAP4 POP DUP1 DUP7 AND DUP5 OR SWAP3 POP POP POP SWAP4 SWAP3 POP POP POP JUMP JUMPDEST PUSH1 0x0 DUP2 SWAP1 POP SWAP2 SWAP1 POP JUMP JUMPDEST PUSH1 0x0 PUSH2 0x1490 PUSH2 0x148B PUSH2 0x1486 DUP5 PUSH2 0xCC5 JUMP JUMPDEST PUSH2 0x146B JUMP JUMPDEST PUSH2 0xCC5 JUMP JUMPDEST SWAP1 POP SWAP2 SWAP1 POP JUMP JUMPDEST PUSH1 0x0 DUP2 SWAP1 POP SWAP2 SWAP1 POP JUMP JUMPDEST PUSH2 0x14AA DUP4 PUSH2 0x1475 JUMP JUMPDEST PUSH2 0x14BE PUSH2 0x14B6 DUP3 PUSH2 0x1497 JUMP JUMPDEST DUP5 DUP5 SLOAD PUSH2 0x1419 JUMP JUMPDEST DUP3 SSTORE POP POP POP POP JUMP JUMPDEST PUSH1 0x0 SWAP1 JUMP JUMPDEST PUSH2 0x14D3 PUSH2 0x14C6 JUMP JUMPDEST PUSH2 0x14DE DUP2 DUP5 DUP5 PUSH2 0x14A1 JUMP JUMPDEST POP POP POP JUMP JUMPDEST JUMPDEST DUP2 DUP2 LT ISZERO PUSH2 0x1502 JUMPI PUSH2 0x14F7 PUSH1 0x0 DUP3 PUSH2 0x14CB JUMP JUMPDEST PUSH1 0x1 DUP2 ADD SWAP1 POP PUSH2 0x14E4 JUMP JUMPDEST POP POP JUMP JUMPDEST PUSH1 0x1F DUP3 GT ISZERO PUSH2 0x1547 JUMPI PUSH2 0x1518 DUP2 PUSH2 0x13E7 JUMP JUMPDEST PUSH2 0x1521 DUP5 PUSH2 0x13FC JUMP JUMPDEST DUP2 ADD PUSH1 0x20 DUP6 LT ISZERO PUSH2 0x1530 JUMPI DUP2 SWAP1 POP JUMPDEST PUSH2 0x1544 PUSH2 0x153C DUP6 PUSH2 0x13FC JUMP JUMPDEST DUP4 ADD DUP3 PUSH2 0x14E3 JUMP JUMPDEST POP POP JUMPDEST POP POP POP JUMP JUMPDEST PUSH1 0x0 DUP3 DUP3 SHR SWAP1 POP SWAP3 SWAP2 POP POP JUMP JUMPDEST PUSH1 0x0 PUSH2 0x156A PUSH1 0x0 NOT DUP5 PUSH1 0x8 MUL PUSH2 0x154C JUMP JUMPDEST NOT DUP1 DUP4 AND SWAP2 POP POP SWAP3 SWAP2 POP POP JUMP JUMPDEST PUSH1 0x0 PUSH2 0x1583 DUP4 DUP4 PUSH2 0x1559 JUMP JUMPDEST SWAP2 POP DUP3 PUSH1 0x2 MUL DUP3 OR SWAP1 POP SWAP3 SWAP2 POP POP JUMP JUMPDEST PUSH2 0x159C DUP3 PUSH2 0xF1C JUMP JUMPDEST PUSH8 0xFFFFFFFFFFFFFFFF DUP2 GT ISZERO PUSH2 0x15B5 JUMPI PUSH2 0x15B4 PUSH2 0xD16 JUMP JUMPDEST JUMPDEST PUSH2 0x15BF DUP3 SLOAD PUSH2 0x13B6 JUMP JUMPDEST PUSH2 0x15CA DUP3 DUP3 DUP6 PUSH2 0x1506 JUMP JUMPDEST PUSH1 0x0 PUSH1 0x20 SWAP1 POP PUSH1 0x1F DUP4 GT PUSH1 0x1 DUP2 EQ PUSH2 0x15FD JUMPI PUSH1 0x0 DUP5 ISZERO PUSH2 0x15EB JUMPI DUP3 DUP8 ADD MLOAD SWAP1 POP JUMPDEST PUSH2 0x15F5 DUP6 DUP3 PUSH2 0x1577 JUMP JUMPDEST DUP7 SSTORE POP PUSH2 0x165D JUMP JUMPDEST PUSH1 0x1F NOT DUP5 AND PUSH2 0x160B DUP7 PUSH2 0x13E7 JUMP JUMPDEST PUSH1 0x0 JUMPDEST DUP3 DUP2 LT ISZERO PUSH2 0x1633 JUMPI DUP5 DUP10 ADD MLOAD DUP3 SSTORE PUSH1 0x1 DUP3 ADD SWAP2 POP PUSH1 0x20 DUP6 ADD SWAP5 POP PUSH1 0x20 DUP2 ADD SWAP1 POP PUSH2 0x160E JUMP JUMPDEST DUP7 DUP4 LT ISZERO PUSH2 0x1650 JUMPI DUP5 DUP10 ADD MLOAD PUSH2 0x164C PUSH1 0x1F DUP10 AND DUP3 PUSH2 0x1559 JUMP JUMPDEST DUP4 SSTORE POP JUMPDEST PUSH1 0x1 PUSH1 0x2 DUP9 MUL ADD DUP9 SSTORE POP POP POP JUMPDEST POP POP POP POP POP POP JUMP JUMPDEST PUSH32 0x50726F647563742077697468207468697320494420616C726561647920657869 PUSH1 0x0 DUP3 ADD MSTORE PUSH32 0x7374730000000000000000000000000000000000000000000000000000000000 PUSH1 0x20 DUP3 ADD MSTORE POP JUMP JUMPDEST PUSH1 0x0 PUSH2 0x16C1 PUSH1 0x23 DUP4 PUSH2 0xF27 JUMP JUMPDEST SWAP2 POP PUSH2 0x16CC DUP3 PUSH2 0x1665 JUMP JUMPDEST PUSH1 0x40 DUP3 ADD SWAP1 POP SWAP2 SWAP1 POP JUMP JUMPDEST PUSH1 0x0 PUSH1 0x20 DUP3 ADD SWAP1 POP DUP2 DUP2 SUB PUSH1 0x0 DUP4 ADD MSTORE PUSH2 0x16F0 DUP2 PUSH2 0x16B4 JUMP JUMPDEST SWAP1 POP SWAP2 SWAP1 POP JUMP JUMPDEST PUSH32 0x4E487B7100000000000000000000000000000000000000000000000000000000 PUSH1 0x0 MSTORE PUSH1 0x11 PUSH1 0x4 MSTORE PUSH1 0x24 PUSH1 0x0 REVERT JUMPDEST PUSH1 0x0 PUSH2 0x1731 DUP3 PUSH2 0xCC5 JUMP JUMPDEST SWAP2 POP PUSH32 0xFFFFFFFFFFFFFFFFFFFFFFFFFFFFFFFFFFFFFFFFFFFFFFFFFFFFFFFFFFFFFFFF DUP3 SUB PUSH2 0x1763 JUMPI PUSH2 0x1762 PUSH2 0x16F7 JUMP JUMPDEST JUMPDEST PUSH1 0x1 DUP3 ADD SWAP1 POP SWAP2 SWAP1 POP JUMP INVALID LOG2 PUSH5 0x6970667358 0x22 SLT KECCAK256 DUP7 0xE3 0xD SWAP1 0x23 DUP7 0xC6 0x5D PUSH4 0x3EBD27C0 0x1F DUP7 PUSH26 0xDC3FFCE29153B0289EAF54E787F820EC64736F6C634300081200 CALLER "
				},
				"gasEstimates": {
					"creation": {
						"codeDepositCost": "1210400",
						"executionCost": "1261",
						"totalCost": "1211661"
					},
					"external": {
						"addProduct(uint256,string,string,string,uint256)": "infinite",
						"productCount()": "2495",
						"products(uint256)": "infinite",
						"transferToDistributor(uint256,string,string,uint256)": "infinite",
						"transferToRetailer(uint256,string,string,uint256)": "infinite",
						"viewAssetDetails(uint256)": "infinite"
					}
				},
				"methodIdentifiers": {
					"addProduct(uint256,string,string,string,uint256)": "c67b3d1d",
					"productCount()": "e0f6ef87",
					"products(uint256)": "7acc0b20",
					"transferToDistributor(uint256,string,string,uint256)": "56f2fc09",
					"transferToRetailer(uint256,string,string,uint256)": "da4cbe5a",
					"viewAssetDetails(uint256)": "fcb6e31d"
				}
			},
			"storageLayout": {
				"storage": [
					{
						"astId": 29,
						"contract": "contracts/newproject2.sol:FarmProduct",
						"label": "products",
						"offset": 0,
						"slot": "0",
						"type": "t_mapping(t_uint256,t_struct(Product)24_storage)"
					},
					{
						"astId": 31,
						"contract": "contracts/newproject2.sol:FarmProduct",
						"label": "productCount",
						"offset": 0,
						"slot": "1",
						"type": "t_uint256"
					}
				],
				"types": {
					"t_mapping(t_uint256,t_struct(Product)24_storage)": {
						"encoding": "mapping",
						"key": "t_uint256",
						"label": "mapping(uint256 => struct FarmProduct.Product)",
						"numberOfBytes": "32",
						"value": "t_struct(Product)24_storage"
					},
					"t_string_storage": {
						"encoding": "bytes",
						"label": "string",
						"numberOfBytes": "32"
					},
					"t_struct(Product)24_storage": {
						"encoding": "inplace",
						"label": "struct FarmProduct.Product",
						"members": [
							{
								"astId": 3,
								"contract": "contracts/newproject2.sol:FarmProduct",
								"label": "productId",
								"offset": 0,
								"slot": "0",
								"type": "t_uint256"
							},
							{
								"astId": 5,
								"contract": "contracts/newproject2.sol:FarmProduct",
								"label": "productDescription",
								"offset": 0,
								"slot": "1",
								"type": "t_string_storage"
							},
							{
								"astId": 7,
								"contract": "contracts/newproject2.sol:FarmProduct",
								"label": "producerName",
								"offset": 0,
								"slot": "2",
								"type": "t_string_storage"
							},
							{
								"astId": 9,
								"contract": "contracts/newproject2.sol:FarmProduct",
								"label": "producerAddress",
								"offset": 0,
								"slot": "3",
								"type": "t_string_storage"
							},
							{
								"astId": 11,
								"contract": "contracts/newproject2.sol:FarmProduct",
								"label": "harvestDate",
								"offset": 0,
								"slot": "4",
								"type": "t_uint256"
							},
							{
								"astId": 13,
								"contract": "contracts/newproject2.sol:FarmProduct",
								"label": "distributorName",
								"offset": 0,
								"slot": "5",
								"type": "t_string_storage"
							},
							{
								"astId": 15,
								"contract": "contracts/newproject2.sol:FarmProduct",
								"label": "distributorAddress",
								"offset": 0,
								"slot": "6",
								"type": "t_string_storage"
							},
							{
								"astId": 17,
								"contract": "contracts/newproject2.sol:FarmProduct",
								"label": "prodToDistDate",
								"offset": 0,
								"slot": "7",
								"type": "t_uint256"
							},
							{
								"astId": 19,
								"contract": "contracts/newproject2.sol:FarmProduct",
								"label": "retailerName",
								"offset": 0,
								"slot": "8",
								"type": "t_string_storage"
							},
							{
								"astId": 21,
								"contract": "contracts/newproject2.sol:FarmProduct",
								"label": "retailerAddress",
								"offset": 0,
								"slot": "9",
								"type": "t_string_storage"
							},
							{
								"astId": 23,
								"contract": "contracts/newproject2.sol:FarmProduct",
								"label": "distToRetaDate",
								"offset": 0,
								"slot": "10",
								"type": "t_uint256"
							}
						],
						"numberOfBytes": "352"
					},
					"t_uint256": {
						"encoding": "inplace",
						"label": "uint256",
						"numberOfBytes": "32"
					}
				}
			},
			"userdoc": {
				"kind": "user",
				"methods": {},
				"version": 1
			}
		}
	}
}