{
	"contracts/med.sol": {
		"MedicalRecords": {
			"abi": [
				{
					"inputs": [
						{
							"internalType": "string",
							"name": "_disease",
							"type": "string"
						}
					],
					"name": "addDisease",
					"outputs": [],
					"stateMutability": "nonpayable",
					"type": "function"
				},
				{
					"inputs": [
						{
							"internalType": "uint256",
							"name": "_id",
							"type": "uint256"
						},
						{
							"internalType": "string",
							"name": "_name",
							"type": "string"
						},
						{
							"internalType": "uint256",
							"name": "_expiryDate",
							"type": "uint256"
						},
						{
							"internalType": "uint256",
							"name": "_dose",
							"type": "uint256"
						},
						{
							"internalType": "uint256",
							"name": "_price",
							"type": "uint256"
						}
					],
					"name": "addMedicine",
					"outputs": [],
					"stateMutability": "nonpayable",
					"type": "function"
				},
				{
					"inputs": [],
					"name": "doctorCount",
					"outputs": [
						{
							"internalType": "uint256",
							"name": "",
							"type": "uint256"
						}
					],
					"stateMutability": "view",
					"type": "function"
				},
				{
					"inputs": [
						{
							"internalType": "address",
							"name": "",
							"type": "address"
						}
					],
					"name": "doctors",
					"outputs": [
						{
							"internalType": "uint256",
							"name": "id",
							"type": "uint256"
						},
						{
							"internalType": "string",
							"name": "name",
							"type": "string"
						},
						{
							"internalType": "string",
							"name": "qualification",
							"type": "string"
						},
						{
							"internalType": "string",
							"name": "workPlace",
							"type": "string"
						}
					],
					"stateMutability": "view",
					"type": "function"
				},
				{
					"inputs": [],
					"name": "medicineCount",
					"outputs": [
						{
							"internalType": "uint256",
							"name": "",
							"type": "uint256"
						}
					],
					"stateMutability": "view",
					"type": "function"
				},
				{
					"inputs": [
						{
							"internalType": "uint256",
							"name": "",
							"type": "uint256"
						}
					],
					"name": "medicines",
					"outputs": [
						{
							"internalType": "uint256",
							"name": "id",
							"type": "uint256"
						},
						{
							"internalType": "string",
							"name": "name",
							"type": "string"
						},
						{
							"internalType": "uint256",
							"name": "expiryDate",
							"type": "uint256"
						},
						{
							"internalType": "uint256",
							"name": "dose",
							"type": "uint256"
						},
						{
							"internalType": "uint256",
							"name": "price",
							"type": "uint256"
						}
					],
					"stateMutability": "view",
					"type": "function"
				},
				{
					"inputs": [],
					"name": "patientCount",
					"outputs": [
						{
							"internalType": "uint256",
							"name": "",
							"type": "uint256"
						}
					],
					"stateMutability": "view",
					"type": "function"
				},
				{
					"inputs": [
						{
							"internalType": "address",
							"name": "",
							"type": "address"
						},
						{
							"internalType": "uint256",
							"name": "",
							"type": "uint256"
						}
					],
					"name": "patientMedicines",
					"outputs": [
						{
							"internalType": "uint256",
							"name": "",
							"type": "uint256"
						}
					],
					"stateMutability": "view",
					"type": "function"
				},
				{
					"inputs": [
						{
							"internalType": "address",
							"name": "",
							"type": "address"
						}
					],
					"name": "patients",
					"outputs": [
						{
							"internalType": "uint256",
							"name": "id",
							"type": "uint256"
						},
						{
							"internalType": "string",
							"name": "name",
							"type": "string"
						},
						{
							"internalType": "uint256",
							"name": "age",
							"type": "uint256"
						}
					],
					"stateMutability": "view",
					"type": "function"
				},
				{
					"inputs": [
						{
							"internalType": "uint256",
							"name": "_id",
							"type": "uint256"
						},
						{
							"internalType": "address",
							"name": "_patient",
							"type": "address"
						}
					],
					"name": "prescribeMedicine",
					"outputs": [],
					"stateMutability": "nonpayable",
					"type": "function"
				},
				{
					"inputs": [
						{
							"internalType": "string",
							"name": "_name",
							"type": "string"
						},
						{
							"internalType": "string",
							"name": "_qualification",
							"type": "string"
						},
						{
							"internalType": "string",
							"name": "_workPlace",
							"type": "string"
						}
					],
					"name": "registerDoctor",
					"outputs": [],
					"stateMutability": "nonpayable",
					"type": "function"
				},
				{
					"inputs": [
						{
							"internalType": "string",
							"name": "_name",
							"type": "string"
						},
						{
							"internalType": "uint256",
							"name": "_age",
							"type": "uint256"
						}
					],
					"name": "registerPatient",
					"outputs": [],
					"stateMutability": "nonpayable",
					"type": "function"
				},
				{
					"inputs": [
						{
							"internalType": "uint256",
							"name": "_age",
							"type": "uint256"
						}
					],
					"name": "updatePatientAge",
					"outputs": [],
					"stateMutability": "nonpayable",
					"type": "function"
				},
				{
					"inputs": [
						{
							"internalType": "address",
							"name": "_doctor",
							"type": "address"
						}
					],
					"name": "viewDoctorDetails",
					"outputs": [
						{
							"internalType": "uint256",
							"name": "",
							"type": "uint256"
						},
						{
							"internalType": "string",
							"name": "",
							"type": "string"
						},
						{
							"internalType": "string",
							"name": "",
							"type": "string"
						},
						{
							"internalType": "string",
							"name": "",
							"type": "string"
						}
					],
					"stateMutability": "view",
					"type": "function"
				},
				{
					"inputs": [
						{
							"internalType": "uint256",
							"name": "_id",
							"type": "uint256"
						}
					],
					"name": "viewMedicineDetails",
					"outputs": [
						{
							"internalType": "string",
							"name": "",
							"type": "string"
						},
						{
							"internalType": "uint256",
							"name": "",
							"type": "uint256"
						},
						{
							"internalType": "uint256",
							"name": "",
							"type": "uint256"
						},
						{
							"internalType": "uint256",
							"name": "",
							"type": "uint256"
						}
					],
					"stateMutability": "view",
					"type": "function"
				},
				{
					"inputs": [
						{
							"internalType": "address",
							"name": "_patient",
							"type": "address"
						}
					],
					"name": "viewPatientData",
					"outputs": [
						{
							"internalType": "uint256",
							"name": "",
							"type": "uint256"
						},
						{
							"internalType": "string",
							"name": "",
							"type": "string"
						},
						{
							"internalType": "uint256",
							"name": "",
							"type": "uint256"
						},
						{
							"internalType": "string[]",
							"name": "",
							"type": "string[]"
						},
						{
							"internalType": "uint256[]",
							"name": "",
							"type": "uint256[]"
						}
					],
					"stateMutability": "view",
					"type": "function"
				}
			],
			"devdoc": {
				"kind": "dev",
				"methods": {},
				"version": 1
			},
			"evm": {
				"assembly": "    /* \"contracts/med.sol\":60:2765  contract MedicalRecords {... */\n  mstore(0x40, 0x80)\n  callvalue\n  dup1\n  iszero\n  tag_1\n  jumpi\n  0x00\n  dup1\n  revert\ntag_1:\n  pop\n  dataSize(sub_0)\n  dup1\n  dataOffset(sub_0)\n  0x00\n  codecopy\n  0x00\n  return\nstop\n\nsub_0: assembly {\n        /* \"contracts/med.sol\":60:2765  contract MedicalRecords {... */\n      mstore(0x40, 0x80)\n      callvalue\n      dup1\n      iszero\n      tag_1\n      jumpi\n      0x00\n      dup1\n      revert\n    tag_1:\n      pop\n      jumpi(tag_2, lt(calldatasize, 0x04))\n      shr(0xe0, calldataload(0x00))\n      dup1\n      0xa9583c22\n      gt\n      tag_19\n      jumpi\n      dup1\n      0xcc7fa220\n      gt\n      tag_20\n      jumpi\n      dup1\n      0xcc7fa220\n      eq\n      tag_15\n      jumpi\n      dup1\n      0xd47c029c\n      eq\n      tag_16\n      jumpi\n      dup1\n      0xdcd0c2b2\n      eq\n      tag_17\n      jumpi\n      dup1\n      0xe98ee2f0\n      eq\n      tag_18\n      jumpi\n      jump(tag_2)\n    tag_20:\n      dup1\n      0xa9583c22\n      eq\n      tag_11\n      jumpi\n      dup1\n      0xbd8247bf\n      eq\n      tag_12\n      jumpi\n      dup1\n      0xc140261c\n      eq\n      tag_13\n      jumpi\n      dup1\n      0xc85e766d\n      eq\n      tag_14\n      jumpi\n      jump(tag_2)\n    tag_19:\n      dup1\n      0x62ed105e\n      gt\n      tag_21\n      jumpi\n      dup1\n      0x62ed105e\n      eq\n      tag_7\n      jumpi\n      dup1\n      0x77b4fb94\n      eq\n      tag_8\n      jumpi\n      dup1\n      0x78522bc4\n      eq\n      tag_9\n      jumpi\n      dup1\n      0xa0303c41\n      eq\n      tag_10\n      jumpi\n      jump(tag_2)\n    tag_21:\n      dup1\n      0x0869cfbc\n      eq\n      tag_3\n      jumpi\n      dup1\n      0x2de304ed\n      eq\n      tag_4\n      jumpi\n      dup1\n      0x4dafd490\n      eq\n      tag_5\n      jumpi\n      dup1\n      0x50c7a912\n      eq\n      tag_6\n      jumpi\n    tag_2:\n      0x00\n      dup1\n      revert\n        /* \"contracts/med.sol\":524:567  mapping(address => Patient) public patients */\n    tag_3:\n      tag_22\n      0x04\n      dup1\n      calldatasize\n      sub\n      dup2\n      add\n      swap1\n      tag_23\n      swap2\n      swap1\n      tag_24\n      jump\t// in\n    tag_23:\n      tag_25\n      jump\t// in\n    tag_22:\n      mload(0x40)\n      tag_26\n      swap4\n      swap3\n      swap2\n      swap1\n      tag_27\n      jump\t// in\n    tag_26:\n      mload(0x40)\n      dup1\n      swap2\n      sub\n      swap1\n      return\n        /* \"contracts/med.sol\":1012:1194  function registerPatient(string memory _name, uint _age) public {... */\n    tag_4:\n      tag_28\n      0x04\n      dup1\n      calldatasize\n      sub\n      dup2\n      add\n      swap1\n      tag_29\n      swap2\n      swap1\n      tag_30\n      jump\t// in\n    tag_29:\n      tag_31\n      jump\t// in\n    tag_28:\n      stop\n        /* \"contracts/med.sol\":743:768  uint public medicineCount */\n    tag_5:\n      tag_32\n      tag_33\n      jump\t// in\n    tag_32:\n      mload(0x40)\n      tag_34\n      swap2\n      swap1\n      tag_35\n      jump\t// in\n    tag_34:\n      mload(0x40)\n      dup1\n      swap2\n      sub\n      swap1\n      return\n        /* \"contracts/med.sol\":777:1004  function registerDoctor(string memory _name, string memory _qualification, string memory _workPlace) public {... */\n    tag_6:\n      tag_36\n      0x04\n      dup1\n      calldatasize\n      sub\n      dup2\n      add\n      swap1\n      tag_37\n      swap2\n      swap1\n      tag_38\n      jump\t// in\n    tag_37:\n      tag_39\n      jump\t// in\n    tag_36:\n      stop\n        /* \"contracts/med.sol\":1197:1409  function addMedicine(uint _id, string memory _name, uint _expiryDate, uint _dose, uint _price) public {... */\n    tag_7:\n      tag_40\n      0x04\n      dup1\n      calldatasize\n      sub\n      dup2\n      add\n      swap1\n      tag_41\n      swap2\n      swap1\n      tag_42\n      jump\t// in\n    tag_41:\n      tag_43\n      jump\t// in\n    tag_40:\n      stop\n        /* \"contracts/med.sol\":623:673  mapping(address => uint[]) public patientMedicines */\n    tag_8:\n      tag_44\n      0x04\n      dup1\n      calldatasize\n      sub\n      dup2\n      add\n      swap1\n      tag_45\n      swap2\n      swap1\n      tag_46\n      jump\t// in\n    tag_45:\n      tag_47\n      jump\t// in\n    tag_44:\n      mload(0x40)\n      tag_48\n      swap2\n      swap1\n      tag_35\n      jump\t// in\n    tag_48:\n      mload(0x40)\n      dup1\n      swap2\n      sub\n      swap1\n      return\n        /* \"contracts/med.sol\":682:705  uint public doctorCount */\n    tag_9:\n      tag_49\n      tag_50\n      jump\t// in\n    tag_49:\n      mload(0x40)\n      tag_51\n      swap2\n      swap1\n      tag_35\n      jump\t// in\n    tag_51:\n      mload(0x40)\n      dup1\n      swap2\n      sub\n      swap1\n      return\n        /* \"contracts/med.sol\":712:736  uint public patientCount */\n    tag_10:\n      tag_52\n      tag_53\n      jump\t// in\n    tag_52:\n      mload(0x40)\n      tag_54\n      swap2\n      swap1\n      tag_35\n      jump\t// in\n    tag_54:\n      mload(0x40)\n      dup1\n      swap2\n      sub\n      swap1\n      return\n        /* \"contracts/med.sol\":476:517  mapping(address => Doctor) public doctors */\n    tag_11:\n      tag_55\n      0x04\n      dup1\n      calldatasize\n      sub\n      dup2\n      add\n      swap1\n      tag_56\n      swap2\n      swap1\n      tag_24\n      jump\t// in\n    tag_56:\n      tag_57\n      jump\t// in\n    tag_55:\n      mload(0x40)\n      tag_58\n      swap5\n      swap4\n      swap3\n      swap2\n      swap1\n      tag_59\n      jump\t// in\n    tag_58:\n      mload(0x40)\n      dup1\n      swap2\n      sub\n      swap1\n      return\n        /* \"contracts/med.sol\":1772:2126  function viewPatientData(address _patient) public view returns (uint, string memory, uint, string[] memory, uint[] memory) {... */\n    tag_12:\n      tag_60\n      0x04\n      dup1\n      calldatasize\n      sub\n      dup2\n      add\n      swap1\n      tag_61\n      swap2\n      swap1\n      tag_24\n      jump\t// in\n    tag_61:\n      tag_62\n      jump\t// in\n    tag_60:\n      mload(0x40)\n      tag_63\n      swap6\n      swap5\n      swap4\n      swap3\n      swap2\n      swap1\n      tag_64\n      jump\t// in\n    tag_63:\n      mload(0x40)\n      dup1\n      swap2\n      sub\n      swap1\n      return\n        /* \"contracts/med.sol\":2443:2762  function viewDoctorDetails(address _doctor) public view returns (uint, string memory, string memory, string memory) {... */\n    tag_13:\n      tag_65\n      0x04\n      dup1\n      calldatasize\n      sub\n      dup2\n      add\n      swap1\n      tag_66\n      swap2\n      swap1\n      tag_24\n      jump\t// in\n    tag_66:\n      tag_67\n      jump\t// in\n    tag_65:\n      mload(0x40)\n      tag_68\n      swap5\n      swap4\n      swap3\n      swap2\n      swap1\n      tag_59\n      jump\t// in\n    tag_68:\n      mload(0x40)\n      dup1\n      swap2\n      sub\n      swap1\n      return\n        /* \"contracts/med.sol\":574:616  mapping(uint => Medicine) public medicines */\n    tag_14:\n      tag_69\n      0x04\n      dup1\n      calldatasize\n      sub\n      dup2\n      add\n      swap1\n      tag_70\n      swap2\n      swap1\n      tag_71\n      jump\t// in\n    tag_70:\n      tag_72\n      jump\t// in\n    tag_69:\n      mload(0x40)\n      tag_73\n      swap6\n      swap5\n      swap4\n      swap3\n      swap2\n      swap1\n      tag_74\n      jump\t// in\n    tag_73:\n      mload(0x40)\n      dup1\n      swap2\n      sub\n      swap1\n      return\n        /* \"contracts/med.sol\":2134:2435  function viewMedicineDetails(uint _id) public view returns (string memory, uint, uint, uint) {... */\n    tag_15:\n      tag_75\n      0x04\n      dup1\n      calldatasize\n      sub\n      dup2\n      add\n      swap1\n      tag_76\n      swap2\n      swap1\n      tag_71\n      jump\t// in\n    tag_76:\n      tag_77\n      jump\t// in\n    tag_75:\n      mload(0x40)\n      tag_78\n      swap5\n      swap4\n      swap3\n      swap2\n      swap1\n      tag_79\n      jump\t// in\n    tag_78:\n      mload(0x40)\n      dup1\n      swap2\n      sub\n      swap1\n      return\n        /* \"contracts/med.sol\":1415:1529  function addDisease(string memory _disease) public {... */\n    tag_16:\n      tag_80\n      0x04\n      dup1\n      calldatasize\n      sub\n      dup2\n      add\n      swap1\n      tag_81\n      swap2\n      swap1\n      tag_82\n      jump\t// in\n    tag_81:\n      tag_83\n      jump\t// in\n    tag_80:\n      stop\n        /* \"contracts/med.sol\":1545:1662  function prescribeMedicine(uint _id, address _patient) public {... */\n    tag_17:\n      tag_84\n      0x04\n      dup1\n      calldatasize\n      sub\n      dup2\n      add\n      swap1\n      tag_85\n      swap2\n      swap1\n      tag_86\n      jump\t// in\n    tag_85:\n      tag_87\n      jump\t// in\n    tag_84:\n      stop\n        /* \"contracts/med.sol\":1670:1764  function updatePatientAge(uint _age) public {... */\n    tag_18:\n      tag_88\n      0x04\n      dup1\n      calldatasize\n      sub\n      dup2\n      add\n      swap1\n      tag_89\n      swap2\n      swap1\n      tag_71\n      jump\t// in\n    tag_89:\n      tag_90\n      jump\t// in\n    tag_88:\n      stop\n        /* \"contracts/med.sol\":524:567  mapping(address => Patient) public patients */\n    tag_25:\n      mstore(0x20, 0x01)\n      dup1\n      0x00\n      mstore\n      keccak256(0x00, 0x40)\n      0x00\n      swap2\n      pop\n      swap1\n      pop\n      dup1\n      0x00\n      add\n      sload\n      swap1\n      dup1\n      0x01\n      add\n      dup1\n      sload\n      tag_91\n      swap1\n      tag_92\n      jump\t// in\n    tag_91:\n      dup1\n      0x1f\n      add\n      0x20\n      dup1\n      swap2\n      div\n      mul\n      0x20\n      add\n      mload(0x40)\n      swap1\n      dup2\n      add\n      0x40\n      mstore\n      dup1\n      swap3\n      swap2\n      swap1\n      dup2\n      dup2\n      mstore\n      0x20\n      add\n      dup3\n      dup1\n      sload\n      tag_93\n      swap1\n      tag_92\n      jump\t// in\n    tag_93:\n      dup1\n      iszero\n      tag_94\n      jumpi\n      dup1\n      0x1f\n      lt\n      tag_95\n      jumpi\n      0x0100\n      dup1\n      dup4\n      sload\n      div\n      mul\n      dup4\n      mstore\n      swap2\n      0x20\n      add\n      swap2\n      jump(tag_94)\n    tag_95:\n      dup3\n      add\n      swap2\n      swap1\n      0x00\n      mstore\n      keccak256(0x00, 0x20)\n      swap1\n    tag_96:\n      dup2\n      sload\n      dup2\n      mstore\n      swap1\n      0x01\n      add\n      swap1\n      0x20\n      add\n      dup1\n      dup4\n      gt\n      tag_96\n      jumpi\n      dup3\n      swap1\n      sub\n      0x1f\n      and\n      dup3\n      add\n      swap2\n    tag_94:\n      pop\n      pop\n      pop\n      pop\n      pop\n      swap1\n      dup1\n      0x02\n      add\n      sload\n      swap1\n      pop\n      dup4\n      jump\t// out\n        /* \"contracts/med.sol\":1012:1194  function registerPatient(string memory _name, uint _age) public {... */\n    tag_31:\n        /* \"contracts/med.sol\":1110:1161  Patient(patientCount, _name, _age, new string[](0)) */\n      mload(0x40)\n      dup1\n      0x80\n      add\n      0x40\n      mstore\n      dup1\n        /* \"contracts/med.sol\":1118:1130  patientCount */\n      sload(0x05)\n        /* \"contracts/med.sol\":1110:1161  Patient(patientCount, _name, _age, new string[](0)) */\n      dup2\n      mstore\n      0x20\n      add\n        /* \"contracts/med.sol\":1132:1137  _name */\n      dup4\n        /* \"contracts/med.sol\":1110:1161  Patient(patientCount, _name, _age, new string[](0)) */\n      dup2\n      mstore\n      0x20\n      add\n        /* \"contracts/med.sol\":1139:1143  _age */\n      dup3\n        /* \"contracts/med.sol\":1110:1161  Patient(patientCount, _name, _age, new string[](0)) */\n      dup2\n      mstore\n      0x20\n      add\n        /* \"contracts/med.sol\":1158:1159  0 */\n      0x00\n        /* \"contracts/med.sol\":1145:1160  new string[](0) */\n      0xffffffffffffffff\n      dup2\n      gt\n      iszero\n      tag_98\n      jumpi\n      tag_99\n      tag_100\n      jump\t// in\n    tag_99:\n    tag_98:\n      mload(0x40)\n      swap1\n      dup1\n      dup3\n      mstore\n      dup1\n      0x20\n      mul\n      0x20\n      add\n      dup3\n      add\n      0x40\n      mstore\n      dup1\n      iszero\n      tag_101\n      jumpi\n      dup2\n      0x20\n      add\n    tag_102:\n      0x60\n      dup2\n      mstore\n      0x20\n      add\n      swap1\n      0x01\n      swap1\n      sub\n      swap1\n      dup2\n      tag_102\n      jumpi\n      swap1\n      pop\n    tag_101:\n      pop\n        /* \"contracts/med.sol\":1110:1161  Patient(patientCount, _name, _age, new string[](0)) */\n      dup2\n      mstore\n      pop\n        /* \"contracts/med.sol\":1087:1095  patients */\n      0x01\n        /* \"contracts/med.sol\":1087:1107  patients[msg.sender] */\n      0x00\n        /* \"contracts/med.sol\":1096:1106  msg.sender */\n      caller\n        /* \"contracts/med.sol\":1087:1107  patients[msg.sender] */\n      0xffffffffffffffffffffffffffffffffffffffff\n      and\n      0xffffffffffffffffffffffffffffffffffffffff\n      and\n      dup2\n      mstore\n      0x20\n      add\n      swap1\n      dup2\n      mstore\n      0x20\n      add\n      0x00\n      keccak256\n        /* \"contracts/med.sol\":1087:1161  patients[msg.sender] = Patient(patientCount, _name, _age, new string[](0)) */\n      0x00\n      dup3\n      add\n      mload\n      dup2\n      0x00\n      add\n      sstore\n      0x20\n      dup3\n      add\n      mload\n      dup2\n      0x01\n      add\n      swap1\n      dup2\n      tag_103\n      swap2\n      swap1\n      tag_104\n      jump\t// in\n    tag_103:\n      pop\n      0x40\n      dup3\n      add\n      mload\n      dup2\n      0x02\n      add\n      sstore\n      0x60\n      dup3\n      add\n      mload\n      dup2\n      0x03\n      add\n      swap1\n      dup1\n      mload\n      swap1\n      0x20\n      add\n      swap1\n      tag_105\n      swap3\n      swap2\n      swap1\n      tag_106\n      jump\t// in\n    tag_105:\n      pop\n      swap1\n      pop\n      pop\n        /* \"contracts/med.sol\":1172:1184  patientCount */\n      0x05\n      0x00\n        /* \"contracts/med.sol\":1172:1186  patientCount++ */\n      dup2\n      sload\n      dup1\n      swap3\n      swap2\n      swap1\n      tag_107\n      swap1\n      tag_108\n      jump\t// in\n    tag_107:\n      swap2\n      swap1\n      pop\n      sstore\n      pop\n        /* \"contracts/med.sol\":1012:1194  function registerPatient(string memory _name, uint _age) public {... */\n      pop\n      pop\n      jump\t// out\n        /* \"contracts/med.sol\":743:768  uint public medicineCount */\n    tag_33:\n      sload(0x06)\n      dup2\n      jump\t// out\n        /* \"contracts/med.sol\":777:1004  function registerDoctor(string memory _name, string memory _qualification, string memory _workPlace) public {... */\n    tag_39:\n        /* \"contracts/med.sol\":918:972  Doctor(doctorCount, _name, _qualification, _workPlace) */\n      mload(0x40)\n      dup1\n      0x80\n      add\n      0x40\n      mstore\n      dup1\n        /* \"contracts/med.sol\":925:936  doctorCount */\n      sload(0x04)\n        /* \"contracts/med.sol\":918:972  Doctor(doctorCount, _name, _qualification, _workPlace) */\n      dup2\n      mstore\n      0x20\n      add\n        /* \"contracts/med.sol\":938:943  _name */\n      dup5\n        /* \"contracts/med.sol\":918:972  Doctor(doctorCount, _name, _qualification, _workPlace) */\n      dup2\n      mstore\n      0x20\n      add\n        /* \"contracts/med.sol\":945:959  _qualification */\n      dup4\n        /* \"contracts/med.sol\":918:972  Doctor(doctorCount, _name, _qualification, _workPlace) */\n      dup2\n      mstore\n      0x20\n      add\n        /* \"contracts/med.sol\":961:971  _workPlace */\n      dup3\n        /* \"contracts/med.sol\":918:972  Doctor(doctorCount, _name, _qualification, _workPlace) */\n      dup2\n      mstore\n      pop\n        /* \"contracts/med.sol\":896:903  doctors */\n      0x00\n        /* \"contracts/med.sol\":896:915  doctors[msg.sender] */\n      dup1\n        /* \"contracts/med.sol\":904:914  msg.sender */\n      caller\n        /* \"contracts/med.sol\":896:915  doctors[msg.sender] */\n      0xffffffffffffffffffffffffffffffffffffffff\n      and\n      0xffffffffffffffffffffffffffffffffffffffff\n      and\n      dup2\n      mstore\n      0x20\n      add\n      swap1\n      dup2\n      mstore\n      0x20\n      add\n      0x00\n      keccak256\n        /* \"contracts/med.sol\":896:972  doctors[msg.sender] = Doctor(doctorCount, _name, _qualification, _workPlace) */\n      0x00\n      dup3\n      add\n      mload\n      dup2\n      0x00\n      add\n      sstore\n      0x20\n      dup3\n      add\n      mload\n      dup2\n      0x01\n      add\n      swap1\n      dup2\n      tag_110\n      swap2\n      swap1\n      tag_104\n      jump\t// in\n    tag_110:\n      pop\n      0x40\n      dup3\n      add\n      mload\n      dup2\n      0x02\n      add\n      swap1\n      dup2\n      tag_111\n      swap2\n      swap1\n      tag_104\n      jump\t// in\n    tag_111:\n      pop\n      0x60\n      dup3\n      add\n      mload\n      dup2\n      0x03\n      add\n      swap1\n      dup2\n      tag_112\n      swap2\n      swap1\n      tag_104\n      jump\t// in\n    tag_112:\n      pop\n      swap1\n      pop\n      pop\n        /* \"contracts/med.sol\":983:994  doctorCount */\n      0x04\n      0x00\n        /* \"contracts/med.sol\":983:996  doctorCount++ */\n      dup2\n      sload\n      dup1\n      swap3\n      swap2\n      swap1\n      tag_113\n      swap1\n      tag_108\n      jump\t// in\n    tag_113:\n      swap2\n      swap1\n      pop\n      sstore\n      pop\n        /* \"contracts/med.sol\":777:1004  function registerDoctor(string memory _name, string memory _qualification, string memory _workPlace) public {... */\n      pop\n      pop\n      pop\n      jump\t// out\n        /* \"contracts/med.sol\":1197:1409  function addMedicine(uint _id, string memory _name, uint _expiryDate, uint _dose, uint _price) public {... */\n    tag_43:\n        /* \"contracts/med.sol\":1327:1375  Medicine(_id, _name, _expiryDate, _dose, _price) */\n      mload(0x40)\n      dup1\n      0xa0\n      add\n      0x40\n      mstore\n      dup1\n        /* \"contracts/med.sol\":1336:1339  _id */\n      dup7\n        /* \"contracts/med.sol\":1327:1375  Medicine(_id, _name, _expiryDate, _dose, _price) */\n      dup2\n      mstore\n      0x20\n      add\n        /* \"contracts/med.sol\":1341:1346  _name */\n      dup6\n        /* \"contracts/med.sol\":1327:1375  Medicine(_id, _name, _expiryDate, _dose, _price) */\n      dup2\n      mstore\n      0x20\n      add\n        /* \"contracts/med.sol\":1348:1359  _expiryDate */\n      dup5\n        /* \"contracts/med.sol\":1327:1375  Medicine(_id, _name, _expiryDate, _dose, _price) */\n      dup2\n      mstore\n      0x20\n      add\n        /* \"contracts/med.sol\":1361:1366  _dose */\n      dup4\n        /* \"contracts/med.sol\":1327:1375  Medicine(_id, _name, _expiryDate, _dose, _price) */\n      dup2\n      mstore\n      0x20\n      add\n        /* \"contracts/med.sol\":1368:1374  _price */\n      dup3\n        /* \"contracts/med.sol\":1327:1375  Medicine(_id, _name, _expiryDate, _dose, _price) */\n      dup2\n      mstore\n      pop\n        /* \"contracts/med.sol\":1310:1319  medicines */\n      0x02\n        /* \"contracts/med.sol\":1310:1324  medicines[_id] */\n      0x00\n        /* \"contracts/med.sol\":1320:1323  _id */\n      dup8\n        /* \"contracts/med.sol\":1310:1324  medicines[_id] */\n      dup2\n      mstore\n      0x20\n      add\n      swap1\n      dup2\n      mstore\n      0x20\n      add\n      0x00\n      keccak256\n        /* \"contracts/med.sol\":1310:1375  medicines[_id] = Medicine(_id, _name, _expiryDate, _dose, _price) */\n      0x00\n      dup3\n      add\n      mload\n      dup2\n      0x00\n      add\n      sstore\n      0x20\n      dup3\n      add\n      mload\n      dup2\n      0x01\n      add\n      swap1\n      dup2\n      tag_115\n      swap2\n      swap1\n      tag_104\n      jump\t// in\n    tag_115:\n      pop\n      0x40\n      dup3\n      add\n      mload\n      dup2\n      0x02\n      add\n      sstore\n      0x60\n      dup3\n      add\n      mload\n      dup2\n      0x03\n      add\n      sstore\n      0x80\n      dup3\n      add\n      mload\n      dup2\n      0x04\n      add\n      sstore\n      swap1\n      pop\n      pop\n        /* \"contracts/med.sol\":1386:1399  medicineCount */\n      0x06\n      0x00\n        /* \"contracts/med.sol\":1386:1401  medicineCount++ */\n      dup2\n      sload\n      dup1\n      swap3\n      swap2\n      swap1\n      tag_116\n      swap1\n      tag_108\n      jump\t// in\n    tag_116:\n      swap2\n      swap1\n      pop\n      sstore\n      pop\n        /* \"contracts/med.sol\":1197:1409  function addMedicine(uint _id, string memory _name, uint _expiryDate, uint _dose, uint _price) public {... */\n      pop\n      pop\n      pop\n      pop\n      pop\n      jump\t// out\n        /* \"contracts/med.sol\":623:673  mapping(address => uint[]) public patientMedicines */\n    tag_47:\n      mstore(0x20, 0x03)\n      dup2\n      0x00\n      mstore\n      keccak256(0x00, 0x40)\n      dup2\n      dup2\n      sload\n      dup2\n      lt\n      tag_117\n      jumpi\n      0x00\n      dup1\n      revert\n    tag_117:\n      swap1\n      0x00\n      mstore\n      keccak256(0x00, 0x20)\n      add\n      0x00\n      swap2\n      pop\n      swap2\n      pop\n      pop\n      sload\n      dup2\n      jump\t// out\n        /* \"contracts/med.sol\":682:705  uint public doctorCount */\n    tag_50:\n      sload(0x04)\n      dup2\n      jump\t// out\n        /* \"contracts/med.sol\":712:736  uint public patientCount */\n    tag_53:\n      sload(0x05)\n      dup2\n      jump\t// out\n        /* \"contracts/med.sol\":476:517  mapping(address => Doctor) public doctors */\n    tag_57:\n      mstore(0x20, 0x00)\n      dup1\n      0x00\n      mstore\n      keccak256(0x00, 0x40)\n      0x00\n      swap2\n      pop\n      swap1\n      pop\n      dup1\n      0x00\n      add\n      sload\n      swap1\n      dup1\n      0x01\n      add\n      dup1\n      sload\n      tag_119\n      swap1\n      tag_92\n      jump\t// in\n    tag_119:\n      dup1\n      0x1f\n      add\n      0x20\n      dup1\n      swap2\n      div\n      mul\n      0x20\n      add\n      mload(0x40)\n      swap1\n      dup2\n      add\n      0x40\n      mstore\n      dup1\n      swap3\n      swap2\n      swap1\n      dup2\n      dup2\n      mstore\n      0x20\n      add\n      dup3\n      dup1\n      sload\n      tag_120\n      swap1\n      tag_92\n      jump\t// in\n    tag_120:\n      dup1\n      iszero\n      tag_121\n      jumpi\n      dup1\n      0x1f\n      lt\n      tag_122\n      jumpi\n      0x0100\n      dup1\n      dup4\n      sload\n      div\n      mul\n      dup4\n      mstore\n      swap2\n      0x20\n      add\n      swap2\n      jump(tag_121)\n    tag_122:\n      dup3\n      add\n      swap2\n      swap1\n      0x00\n      mstore\n      keccak256(0x00, 0x20)\n      swap1\n    tag_123:\n      dup2\n      sload\n      dup2\n      mstore\n      swap1\n      0x01\n      add\n      swap1\n      0x20\n      add\n      dup1\n      dup4\n      gt\n      tag_123\n      jumpi\n      dup3\n      swap1\n      sub\n      0x1f\n      and\n      dup3\n      add\n      swap2\n    tag_121:\n      pop\n      pop\n      pop\n      pop\n      pop\n      swap1\n      dup1\n      0x02\n      add\n      dup1\n      sload\n      tag_124\n      swap1\n      tag_92\n      jump\t// in\n    tag_124:\n      dup1\n      0x1f\n      add\n      0x20\n      dup1\n      swap2\n      div\n      mul\n      0x20\n      add\n      mload(0x40)\n      swap1\n      dup2\n      add\n      0x40\n      mstore\n      dup1\n      swap3\n      swap2\n      swap1\n      dup2\n      dup2\n      mstore\n      0x20\n      add\n      dup3\n      dup1\n      sload\n      tag_125\n      swap1\n      tag_92\n      jump\t// in\n    tag_125:\n      dup1\n      iszero\n      tag_126\n      jumpi\n      dup1\n      0x1f\n      lt\n      tag_127\n      jumpi\n      0x0100\n      dup1\n      dup4\n      sload\n      div\n      mul\n      dup4\n      mstore\n      swap2\n      0x20\n      add\n      swap2\n      jump(tag_126)\n    tag_127:\n      dup3\n      add\n      swap2\n      swap1\n      0x00\n      mstore\n      keccak256(0x00, 0x20)\n      swap1\n    tag_128:\n      dup2\n      sload\n      dup2\n      mstore\n      swap1\n      0x01\n      add\n      swap1\n      0x20\n      add\n      dup1\n      dup4\n      gt\n      tag_128\n      jumpi\n      dup3\n      swap1\n      sub\n      0x1f\n      and\n      dup3\n      add\n      swap2\n    tag_126:\n      pop\n      pop\n      pop\n      pop\n      pop\n      swap1\n      dup1\n      0x03\n      add\n      dup1\n      sload\n      tag_129\n      swap1\n      tag_92\n      jump\t// in\n    tag_129:\n      dup1\n      0x1f\n      add\n      0x20\n      dup1\n      swap2\n      div\n      mul\n      0x20\n      add\n      mload(0x40)\n      swap1\n      dup2\n      add\n      0x40\n      mstore\n      dup1\n      swap3\n      swap2\n      swap1\n      dup2\n      dup2\n      mstore\n      0x20\n      add\n      dup3\n      dup1\n      sload\n      tag_130\n      swap1\n      tag_92\n      jump\t// in\n    tag_130:\n      dup1\n      iszero\n      tag_131\n      jumpi\n      dup1\n      0x1f\n      lt\n      tag_132\n      jumpi\n      0x0100\n      dup1\n      dup4\n      sload\n      div\n      mul\n      dup4\n      mstore\n      swap2\n      0x20\n      add\n      swap2\n      jump(tag_131)\n    tag_132:\n      dup3\n      add\n      swap2\n      swap1\n      0x00\n      mstore\n      keccak256(0x00, 0x20)\n      swap1\n    tag_133:\n      dup2\n      sload\n      dup2\n      mstore\n      swap1\n      0x01\n      add\n      swap1\n      0x20\n      add\n      dup1\n      dup4\n      gt\n      tag_133\n      jumpi\n      dup3\n      swap1\n      sub\n      0x1f\n      and\n      dup3\n      add\n      swap2\n    tag_131:\n      pop\n      pop\n      pop\n      pop\n      pop\n      swap1\n      pop\n      dup5\n      jump\t// out\n        /* \"contracts/med.sol\":1772:2126  function viewPatientData(address _patient) public view returns (uint, string memory, uint, string[] memory, uint[] memory) {... */\n    tag_62:\n        /* \"contracts/med.sol\":1836:1840  uint */\n      0x00\n        /* \"contracts/med.sol\":1842:1855  string memory */\n      0x60\n        /* \"contracts/med.sol\":1857:1861  uint */\n      0x00\n        /* \"contracts/med.sol\":1863:1878  string[] memory */\n      0x60\n        /* \"contracts/med.sol\":1880:1893  uint[] memory */\n      dup1\n        /* \"contracts/med.sol\":1928:1936  patients */\n      0x01\n        /* \"contracts/med.sol\":1928:1946  patients[_patient] */\n      0x00\n        /* \"contracts/med.sol\":1937:1945  _patient */\n      dup8\n        /* \"contracts/med.sol\":1928:1946  patients[_patient] */\n      0xffffffffffffffffffffffffffffffffffffffff\n      and\n      0xffffffffffffffffffffffffffffffffffffffff\n      and\n      dup2\n      mstore\n      0x20\n      add\n      swap1\n      dup2\n      mstore\n      0x20\n      add\n      0x00\n      keccak256\n        /* \"contracts/med.sol\":1928:1949  patients[_patient].id */\n      0x00\n      add\n      sload\n        /* \"contracts/med.sol\":1964:1972  patients */\n      0x01\n        /* \"contracts/med.sol\":1964:1982  patients[_patient] */\n      0x00\n        /* \"contracts/med.sol\":1973:1981  _patient */\n      dup9\n        /* \"contracts/med.sol\":1964:1982  patients[_patient] */\n      0xffffffffffffffffffffffffffffffffffffffff\n      and\n      0xffffffffffffffffffffffffffffffffffffffff\n      and\n      dup2\n      mstore\n      0x20\n      add\n      swap1\n      dup2\n      mstore\n      0x20\n      add\n      0x00\n      keccak256\n        /* \"contracts/med.sol\":1964:1987  patients[_patient].name */\n      0x01\n      add\n        /* \"contracts/med.sol\":2002:2010  patients */\n      0x01\n        /* \"contracts/med.sol\":2002:2020  patients[_patient] */\n      0x00\n        /* \"contracts/med.sol\":2011:2019  _patient */\n      dup10\n        /* \"contracts/med.sol\":2002:2020  patients[_patient] */\n      0xffffffffffffffffffffffffffffffffffffffff\n      and\n      0xffffffffffffffffffffffffffffffffffffffff\n      and\n      dup2\n      mstore\n      0x20\n      add\n      swap1\n      dup2\n      mstore\n      0x20\n      add\n      0x00\n      keccak256\n        /* \"contracts/med.sol\":2002:2024  patients[_patient].age */\n      0x02\n      add\n      sload\n        /* \"contracts/med.sol\":2039:2047  patients */\n      0x01\n        /* \"contracts/med.sol\":2039:2057  patients[_patient] */\n      0x00\n        /* \"contracts/med.sol\":2048:2056  _patient */\n      dup11\n        /* \"contracts/med.sol\":2039:2057  patients[_patient] */\n      0xffffffffffffffffffffffffffffffffffffffff\n      and\n      0xffffffffffffffffffffffffffffffffffffffff\n      and\n      dup2\n      mstore\n      0x20\n      add\n      swap1\n      dup2\n      mstore\n      0x20\n      add\n      0x00\n      keccak256\n        /* \"contracts/med.sol\":2039:2066  patients[_patient].diseases */\n      0x03\n      add\n        /* \"contracts/med.sol\":2081:2097  patientMedicines */\n      0x03\n        /* \"contracts/med.sol\":2081:2107  patientMedicines[_patient] */\n      0x00\n        /* \"contracts/med.sol\":2098:2106  _patient */\n      dup12\n        /* \"contracts/med.sol\":2081:2107  patientMedicines[_patient] */\n      0xffffffffffffffffffffffffffffffffffffffff\n      and\n      0xffffffffffffffffffffffffffffffffffffffff\n      and\n      dup2\n      mstore\n      0x20\n      add\n      swap1\n      dup2\n      mstore\n      0x20\n      add\n      0x00\n      keccak256\n        /* \"contracts/med.sol\":1906:2118  return (... */\n      dup4\n      dup1\n      sload\n      tag_135\n      swap1\n      tag_92\n      jump\t// in\n    tag_135:\n      dup1\n      0x1f\n      add\n      0x20\n      dup1\n      swap2\n      div\n      mul\n      0x20\n      add\n      mload(0x40)\n      swap1\n      dup2\n      add\n      0x40\n      mstore\n      dup1\n      swap3\n      swap2\n      swap1\n      dup2\n      dup2\n      mstore\n      0x20\n      add\n      dup3\n      dup1\n      sload\n      tag_136\n      swap1\n      tag_92\n      jump\t// in\n    tag_136:\n      dup1\n      iszero\n      tag_137\n      jumpi\n      dup1\n      0x1f\n      lt\n      tag_138\n      jumpi\n      0x0100\n      dup1\n      dup4\n      sload\n      div\n      mul\n      dup4\n      mstore\n      swap2\n      0x20\n      add\n      swap2\n      jump(tag_137)\n    tag_138:\n      dup3\n      add\n      swap2\n      swap1\n      0x00\n      mstore\n      keccak256(0x00, 0x20)\n      swap1\n    tag_139:\n      dup2\n      sload\n      dup2\n      mstore\n      swap1\n      0x01\n      add\n      swap1\n      0x20\n      add\n      dup1\n      dup4\n      gt\n      tag_139\n      jumpi\n      dup3\n      swap1\n      sub\n      0x1f\n      and\n      dup3\n      add\n      swap2\n    tag_137:\n      pop\n      pop\n      pop\n      pop\n      pop\n      swap4\n      pop\n      dup2\n      dup1\n      sload\n      dup1\n      0x20\n      mul\n      0x20\n      add\n      mload(0x40)\n      swap1\n      dup2\n      add\n      0x40\n      mstore\n      dup1\n      swap3\n      swap2\n      swap1\n      dup2\n      dup2\n      mstore\n      0x20\n      add\n      0x00\n      swap1\n    tag_140:\n      dup3\n      dup3\n      lt\n      iszero\n      tag_141\n      jumpi\n      dup4\n      dup3\n      swap1\n      0x00\n      mstore\n      keccak256(0x00, 0x20)\n      add\n      dup1\n      sload\n      tag_143\n      swap1\n      tag_92\n      jump\t// in\n    tag_143:\n      dup1\n      0x1f\n      add\n      0x20\n      dup1\n      swap2\n      div\n      mul\n      0x20\n      add\n      mload(0x40)\n      swap1\n      dup2\n      add\n      0x40\n      mstore\n      dup1\n      swap3\n      swap2\n      swap1\n      dup2\n      dup2\n      mstore\n      0x20\n      add\n      dup3\n      dup1\n      sload\n      tag_144\n      swap1\n      tag_92\n      jump\t// in\n    tag_144:\n      dup1\n      iszero\n      tag_145\n      jumpi\n      dup1\n      0x1f\n      lt\n      tag_146\n      jumpi\n      0x0100\n      dup1\n      dup4\n      sload\n      div\n      mul\n      dup4\n      mstore\n      swap2\n      0x20\n      add\n      swap2\n      jump(tag_145)\n    tag_146:\n      dup3\n      add\n      swap2\n      swap1\n      0x00\n      mstore\n      keccak256(0x00, 0x20)\n      swap1\n    tag_147:\n      dup2\n      sload\n      dup2\n      mstore\n      swap1\n      0x01\n      add\n      swap1\n      0x20\n      add\n      dup1\n      dup4\n      gt\n      tag_147\n      jumpi\n      dup3\n      swap1\n      sub\n      0x1f\n      and\n      dup3\n      add\n      swap2\n    tag_145:\n      pop\n      pop\n      pop\n      pop\n      pop\n      dup2\n      mstore\n      0x20\n      add\n      swap1\n      0x01\n      add\n      swap1\n      jump(tag_140)\n    tag_141:\n      pop\n      pop\n      pop\n      pop\n      swap2\n      pop\n      dup1\n      dup1\n      sload\n      dup1\n      0x20\n      mul\n      0x20\n      add\n      mload(0x40)\n      swap1\n      dup2\n      add\n      0x40\n      mstore\n      dup1\n      swap3\n      swap2\n      swap1\n      dup2\n      dup2\n      mstore\n      0x20\n      add\n      dup3\n      dup1\n      sload\n      dup1\n      iszero\n      tag_148\n      jumpi\n      0x20\n      mul\n      dup3\n      add\n      swap2\n      swap1\n      0x00\n      mstore\n      keccak256(0x00, 0x20)\n      swap1\n    tag_149:\n      dup2\n      sload\n      dup2\n      mstore\n      0x20\n      add\n      swap1\n      0x01\n      add\n      swap1\n      dup1\n      dup4\n      gt\n      tag_149\n      jumpi\n    tag_148:\n      pop\n      pop\n      pop\n      pop\n      pop\n      swap1\n      pop\n      swap5\n      pop\n      swap5\n      pop\n      swap5\n      pop\n      swap5\n      pop\n      swap5\n      pop\n        /* \"contracts/med.sol\":1772:2126  function viewPatientData(address _patient) public view returns (uint, string memory, uint, string[] memory, uint[] memory) {... */\n      swap2\n      swap4\n      swap6\n      swap1\n      swap3\n      swap5\n      pop\n      jump\t// out\n        /* \"contracts/med.sol\":2443:2762  function viewDoctorDetails(address _doctor) public view returns (uint, string memory, string memory, string memory) {... */\n    tag_67:\n        /* \"contracts/med.sol\":2508:2512  uint */\n      0x00\n        /* \"contracts/med.sol\":2514:2527  string memory */\n      0x60\n        /* \"contracts/med.sol\":2529:2542  string memory */\n      dup1\n        /* \"contracts/med.sol\":2544:2557  string memory */\n      0x60\n        /* \"contracts/med.sol\":2570:2590  Doctor memory doctor */\n      0x00\n        /* \"contracts/med.sol\":2593:2600  doctors */\n      dup1\n        /* \"contracts/med.sol\":2593:2609  doctors[_doctor] */\n      0x00\n        /* \"contracts/med.sol\":2601:2608  _doctor */\n      dup8\n        /* \"contracts/med.sol\":2593:2609  doctors[_doctor] */\n      0xffffffffffffffffffffffffffffffffffffffff\n      and\n      0xffffffffffffffffffffffffffffffffffffffff\n      and\n      dup2\n      mstore\n      0x20\n      add\n      swap1\n      dup2\n      mstore\n      0x20\n      add\n      0x00\n      keccak256\n        /* \"contracts/med.sol\":2570:2609  Doctor memory doctor = doctors[_doctor] */\n      mload(0x40)\n      dup1\n      0x80\n      add\n      0x40\n      mstore\n      swap1\n      dup2\n      0x00\n      dup3\n      add\n      sload\n      dup2\n      mstore\n      0x20\n      add\n      0x01\n      dup3\n      add\n      dup1\n      sload\n      tag_151\n      swap1\n      tag_92\n      jump\t// in\n    tag_151:\n      dup1\n      0x1f\n      add\n      0x20\n      dup1\n      swap2\n      div\n      mul\n      0x20\n      add\n      mload(0x40)\n      swap1\n      dup2\n      add\n      0x40\n      mstore\n      dup1\n      swap3\n      swap2\n      swap1\n      dup2\n      dup2\n      mstore\n      0x20\n      add\n      dup3\n      dup1\n      sload\n      tag_152\n      swap1\n      tag_92\n      jump\t// in\n    tag_152:\n      dup1\n      iszero\n      tag_153\n      jumpi\n      dup1\n      0x1f\n      lt\n      tag_154\n      jumpi\n      0x0100\n      dup1\n      dup4\n      sload\n      div\n      mul\n      dup4\n      mstore\n      swap2\n      0x20\n      add\n      swap2\n      jump(tag_153)\n    tag_154:\n      dup3\n      add\n      swap2\n      swap1\n      0x00\n      mstore\n      keccak256(0x00, 0x20)\n      swap1\n    tag_155:\n      dup2\n      sload\n      dup2\n      mstore\n      swap1\n      0x01\n      add\n      swap1\n      0x20\n      add\n      dup1\n      dup4\n      gt\n      tag_155\n      jumpi\n      dup3\n      swap1\n      sub\n      0x1f\n      and\n      dup3\n      add\n      swap2\n    tag_153:\n      pop\n      pop\n      pop\n      pop\n      pop\n      dup2\n      mstore\n      0x20\n      add\n      0x02\n      dup3\n      add\n      dup1\n      sload\n      tag_156\n      swap1\n      tag_92\n      jump\t// in\n    tag_156:\n      dup1\n      0x1f\n      add\n      0x20\n      dup1\n      swap2\n      div\n      mul\n      0x20\n      add\n      mload(0x40)\n      swap1\n      dup2\n      add\n      0x40\n      mstore\n      dup1\n      swap3\n      swap2\n      swap1\n      dup2\n      dup2\n      mstore\n      0x20\n      add\n      dup3\n      dup1\n      sload\n      tag_157\n      swap1\n      tag_92\n      jump\t// in\n    tag_157:\n      dup1\n      iszero\n      tag_158\n      jumpi\n      dup1\n      0x1f\n      lt\n      tag_159\n      jumpi\n      0x0100\n      dup1\n      dup4\n      sload\n      div\n      mul\n      dup4\n      mstore\n      swap2\n      0x20\n      add\n      swap2\n      jump(tag_158)\n    tag_159:\n      dup3\n      add\n      swap2\n      swap1\n      0x00\n      mstore\n      keccak256(0x00, 0x20)\n      swap1\n    tag_160:\n      dup2\n      sload\n      dup2\n      mstore\n      swap1\n      0x01\n      add\n      swap1\n      0x20\n      add\n      dup1\n      dup4\n      gt\n      tag_160\n      jumpi\n      dup3\n      swap1\n      sub\n      0x1f\n      and\n      dup3\n      add\n      swap2\n    tag_158:\n      pop\n      pop\n      pop\n      pop\n      pop\n      dup2\n      mstore\n      0x20\n      add\n      0x03\n      dup3\n      add\n      dup1\n      sload\n      tag_161\n      swap1\n      tag_92\n      jump\t// in\n    tag_161:\n      dup1\n      0x1f\n      add\n      0x20\n      dup1\n      swap2\n      div\n      mul\n      0x20\n      add\n      mload(0x40)\n      swap1\n      dup2\n      add\n      0x40\n      mstore\n      dup1\n      swap3\n      swap2\n      swap1\n      dup2\n      dup2\n      mstore\n      0x20\n      add\n      dup3\n      dup1\n      sload\n      tag_162\n      swap1\n      tag_92\n      jump\t// in\n    tag_162:\n      dup1\n      iszero\n      tag_163\n      jumpi\n      dup1\n      0x1f\n      lt\n      tag_164\n      jumpi\n      0x0100\n      dup1\n      dup4\n      sload\n      div\n      mul\n      dup4\n      mstore\n      swap2\n      0x20\n      add\n      swap2\n      jump(tag_163)\n    tag_164:\n      dup3\n      add\n      swap2\n      swap1\n      0x00\n      mstore\n      keccak256(0x00, 0x20)\n      swap1\n    tag_165:\n      dup2\n      sload\n      dup2\n      mstore\n      swap1\n      0x01\n      add\n      swap1\n      0x20\n      add\n      dup1\n      dup4\n      gt\n      tag_165\n      jumpi\n      dup3\n      swap1\n      sub\n      0x1f\n      and\n      dup3\n      add\n      swap2\n    tag_163:\n      pop\n      pop\n      pop\n      pop\n      pop\n      dup2\n      mstore\n      pop\n      pop\n      swap1\n      pop\n        /* \"contracts/med.sol\":2642:2648  doctor */\n      dup1\n        /* \"contracts/med.sol\":2642:2651  doctor.id */\n      0x00\n      add\n      mload\n        /* \"contracts/med.sol\":2666:2672  doctor */\n      dup2\n        /* \"contracts/med.sol\":2666:2677  doctor.name */\n      0x20\n      add\n      mload\n        /* \"contracts/med.sol\":2692:2698  doctor */\n      dup3\n        /* \"contracts/med.sol\":2692:2712  doctor.qualification */\n      0x40\n      add\n      mload\n        /* \"contracts/med.sol\":2727:2733  doctor */\n      dup4\n        /* \"contracts/med.sol\":2727:2743  doctor.workPlace */\n      0x60\n      add\n      mload\n        /* \"contracts/med.sol\":2620:2754  return (... */\n      swap5\n      pop\n      swap5\n      pop\n      swap5\n      pop\n      swap5\n      pop\n      pop\n        /* \"contracts/med.sol\":2443:2762  function viewDoctorDetails(address _doctor) public view returns (uint, string memory, string memory, string memory) {... */\n      swap2\n      swap4\n      pop\n      swap2\n      swap4\n      jump\t// out\n        /* \"contracts/med.sol\":574:616  mapping(uint => Medicine) public medicines */\n    tag_72:\n      mstore(0x20, 0x02)\n      dup1\n      0x00\n      mstore\n      keccak256(0x00, 0x40)\n      0x00\n      swap2\n      pop\n      swap1\n      pop\n      dup1\n      0x00\n      add\n      sload\n      swap1\n      dup1\n      0x01\n      add\n      dup1\n      sload\n      tag_166\n      swap1\n      tag_92\n      jump\t// in\n    tag_166:\n      dup1\n      0x1f\n      add\n      0x20\n      dup1\n      swap2\n      div\n      mul\n      0x20\n      add\n      mload(0x40)\n      swap1\n      dup2\n      add\n      0x40\n      mstore\n      dup1\n      swap3\n      swap2\n      swap1\n      dup2\n      dup2\n      mstore\n      0x20\n      add\n      dup3\n      dup1\n      sload\n      tag_167\n      swap1\n      tag_92\n      jump\t// in\n    tag_167:\n      dup1\n      iszero\n      tag_168\n      jumpi\n      dup1\n      0x1f\n      lt\n      tag_169\n      jumpi\n      0x0100\n      dup1\n      dup4\n      sload\n      div\n      mul\n      dup4\n      mstore\n      swap2\n      0x20\n      add\n      swap2\n      jump(tag_168)\n    tag_169:\n      dup3\n      add\n      swap2\n      swap1\n      0x00\n      mstore\n      keccak256(0x00, 0x20)\n      swap1\n    tag_170:\n      dup2\n      sload\n      dup2\n      mstore\n      swap1\n      0x01\n      add\n      swap1\n      0x20\n      add\n      dup1\n      dup4\n      gt\n      tag_170\n      jumpi\n      dup3\n      swap1\n      sub\n      0x1f\n      and\n      dup3\n      add\n      swap2\n    tag_168:\n      pop\n      pop\n      pop\n      pop\n      pop\n      swap1\n      dup1\n      0x02\n      add\n      sload\n      swap1\n      dup1\n      0x03\n      add\n      sload\n      swap1\n      dup1\n      0x04\n      add\n      sload\n      swap1\n      pop\n      dup6\n      jump\t// out\n        /* \"contracts/med.sol\":2134:2435  function viewMedicineDetails(uint _id) public view returns (string memory, uint, uint, uint) {... */\n    tag_77:\n        /* \"contracts/med.sol\":2194:2207  string memory */\n      0x60\n        /* \"contracts/med.sol\":2209:2213  uint */\n      0x00\n        /* \"contracts/med.sol\":2215:2219  uint */\n      dup1\n        /* \"contracts/med.sol\":2221:2225  uint */\n      0x00\n        /* \"contracts/med.sol\":2238:2262  Medicine memory medicine */\n      dup1\n        /* \"contracts/med.sol\":2265:2274  medicines */\n      0x02\n        /* \"contracts/med.sol\":2265:2279  medicines[_id] */\n      0x00\n        /* \"contracts/med.sol\":2275:2278  _id */\n      dup8\n        /* \"contracts/med.sol\":2265:2279  medicines[_id] */\n      dup2\n      mstore\n      0x20\n      add\n      swap1\n      dup2\n      mstore\n      0x20\n      add\n      0x00\n      keccak256\n        /* \"contracts/med.sol\":2238:2279  Medicine memory medicine = medicines[_id] */\n      mload(0x40)\n      dup1\n      0xa0\n      add\n      0x40\n      mstore\n      swap1\n      dup2\n      0x00\n      dup3\n      add\n      sload\n      dup2\n      mstore\n      0x20\n      add\n      0x01\n      dup3\n      add\n      dup1\n      sload\n      tag_172\n      swap1\n      tag_92\n      jump\t// in\n    tag_172:\n      dup1\n      0x1f\n      add\n      0x20\n      dup1\n      swap2\n      div\n      mul\n      0x20\n      add\n      mload(0x40)\n      swap1\n      dup2\n      add\n      0x40\n      mstore\n      dup1\n      swap3\n      swap2\n      swap1\n      dup2\n      dup2\n      mstore\n      0x20\n      add\n      dup3\n      dup1\n      sload\n      tag_173\n      swap1\n      tag_92\n      jump\t// in\n    tag_173:\n      dup1\n      iszero\n      tag_174\n      jumpi\n      dup1\n      0x1f\n      lt\n      tag_175\n      jumpi\n      0x0100\n      dup1\n      dup4\n      sload\n      div\n      mul\n      dup4\n      mstore\n      swap2\n      0x20\n      add\n      swap2\n      jump(tag_174)\n    tag_175:\n      dup3\n      add\n      swap2\n      swap1\n      0x00\n      mstore\n      keccak256(0x00, 0x20)\n      swap1\n    tag_176:\n      dup2\n      sload\n      dup2\n      mstore\n      swap1\n      0x01\n      add\n      swap1\n      0x20\n      add\n      dup1\n      dup4\n      gt\n      tag_176\n      jumpi\n      dup3\n      swap1\n      sub\n      0x1f\n      and\n      dup3\n      add\n      swap2\n    tag_174:\n      pop\n      pop\n      pop\n      pop\n      pop\n      dup2\n      mstore\n      0x20\n      add\n      0x02\n      dup3\n      add\n      sload\n      dup2\n      mstore\n      0x20\n      add\n      0x03\n      dup3\n      add\n      sload\n      dup2\n      mstore\n      0x20\n      add\n      0x04\n      dup3\n      add\n      sload\n      dup2\n      mstore\n      pop\n      pop\n      swap1\n      pop\n        /* \"contracts/med.sol\":2312:2320  medicine */\n      dup1\n        /* \"contracts/med.sol\":2312:2325  medicine.name */\n      0x20\n      add\n      mload\n        /* \"contracts/med.sol\":2340:2348  medicine */\n      dup2\n        /* \"contracts/med.sol\":2340:2359  medicine.expiryDate */\n      0x40\n      add\n      mload\n        /* \"contracts/med.sol\":2374:2382  medicine */\n      dup3\n        /* \"contracts/med.sol\":2374:2387  medicine.dose */\n      0x60\n      add\n      mload\n        /* \"contracts/med.sol\":2402:2410  medicine */\n      dup4\n        /* \"contracts/med.sol\":2402:2416  medicine.price */\n      0x80\n      add\n      mload\n        /* \"contracts/med.sol\":2290:2427  return (... */\n      swap5\n      pop\n      swap5\n      pop\n      swap5\n      pop\n      swap5\n      pop\n      pop\n        /* \"contracts/med.sol\":2134:2435  function viewMedicineDetails(uint _id) public view returns (string memory, uint, uint, uint) {... */\n      swap2\n      swap4\n      pop\n      swap2\n      swap4\n      jump\t// out\n        /* \"contracts/med.sol\":1415:1529  function addDisease(string memory _disease) public {... */\n    tag_83:\n        /* \"contracts/med.sol\":1477:1485  patients */\n      0x01\n        /* \"contracts/med.sol\":1477:1497  patients[msg.sender] */\n      0x00\n        /* \"contracts/med.sol\":1486:1496  msg.sender */\n      caller\n        /* \"contracts/med.sol\":1477:1497  patients[msg.sender] */\n      0xffffffffffffffffffffffffffffffffffffffff\n      and\n      0xffffffffffffffffffffffffffffffffffffffff\n      and\n      dup2\n      mstore\n      0x20\n      add\n      swap1\n      dup2\n      mstore\n      0x20\n      add\n      0x00\n      keccak256\n        /* \"contracts/med.sol\":1477:1506  patients[msg.sender].diseases */\n      0x03\n      add\n        /* \"contracts/med.sol\":1512:1520  _disease */\n      dup2\n        /* \"contracts/med.sol\":1477:1521  patients[msg.sender].diseases.push(_disease) */\n      swap1\n      dup1\n      0x01\n      dup2\n      sload\n      add\n      dup1\n      dup3\n      sstore\n      dup1\n      swap2\n      pop\n      pop\n      0x01\n      swap1\n      sub\n      swap1\n      0x00\n      mstore\n      keccak256(0x00, 0x20)\n      add\n      0x00\n      swap1\n      swap2\n      swap1\n      swap2\n      swap1\n      swap2\n      pop\n      swap1\n      dup2\n      tag_179\n      swap2\n      swap1\n      tag_104\n      jump\t// in\n    tag_179:\n      pop\n        /* \"contracts/med.sol\":1415:1529  function addDisease(string memory _disease) public {... */\n      pop\n      jump\t// out\n        /* \"contracts/med.sol\":1545:1662  function prescribeMedicine(uint _id, address _patient) public {... */\n    tag_87:\n        /* \"contracts/med.sol\":1618:1634  patientMedicines */\n      0x03\n        /* \"contracts/med.sol\":1618:1644  patientMedicines[_patient] */\n      0x00\n        /* \"contracts/med.sol\":1635:1643  _patient */\n      dup3\n        /* \"contracts/med.sol\":1618:1644  patientMedicines[_patient] */\n      0xffffffffffffffffffffffffffffffffffffffff\n      and\n      0xffffffffffffffffffffffffffffffffffffffff\n      and\n      dup2\n      mstore\n      0x20\n      add\n      swap1\n      dup2\n      mstore\n      0x20\n      add\n      0x00\n      keccak256\n        /* \"contracts/med.sol\":1650:1653  _id */\n      dup3\n        /* \"contracts/med.sol\":1618:1654  patientMedicines[_patient].push(_id) */\n      swap1\n      dup1\n      0x01\n      dup2\n      sload\n      add\n      dup1\n      dup3\n      sstore\n      dup1\n      swap2\n      pop\n      pop\n      0x01\n      swap1\n      sub\n      swap1\n      0x00\n      mstore\n      keccak256(0x00, 0x20)\n      add\n      0x00\n      swap1\n      swap2\n      swap1\n      swap2\n      swap1\n      swap2\n      pop\n      sstore\n        /* \"contracts/med.sol\":1545:1662  function prescribeMedicine(uint _id, address _patient) public {... */\n      pop\n      pop\n      jump\t// out\n        /* \"contracts/med.sol\":1670:1764  function updatePatientAge(uint _age) public {... */\n    tag_90:\n        /* \"contracts/med.sol\":1752:1756  _age */\n      dup1\n        /* \"contracts/med.sol\":1725:1733  patients */\n      0x01\n        /* \"contracts/med.sol\":1725:1745  patients[msg.sender] */\n      0x00\n        /* \"contracts/med.sol\":1734:1744  msg.sender */\n      caller\n        /* \"contracts/med.sol\":1725:1745  patients[msg.sender] */\n      0xffffffffffffffffffffffffffffffffffffffff\n      and\n      0xffffffffffffffffffffffffffffffffffffffff\n      and\n      dup2\n      mstore\n      0x20\n      add\n      swap1\n      dup2\n      mstore\n      0x20\n      add\n      0x00\n      keccak256\n        /* \"contracts/med.sol\":1725:1749  patients[msg.sender].age */\n      0x02\n      add\n        /* \"contracts/med.sol\":1725:1756  patients[msg.sender].age = _age */\n      dup2\n      swap1\n      sstore\n      pop\n        /* \"contracts/med.sol\":1670:1764  function updatePatientAge(uint _age) public {... */\n      pop\n      jump\t// out\n    tag_106:\n      dup3\n      dup1\n      sload\n      dup3\n      dup3\n      sstore\n      swap1\n      0x00\n      mstore\n      keccak256(0x00, 0x20)\n      swap1\n      dup2\n      add\n      swap3\n      dup3\n      iszero\n      tag_183\n      jumpi\n      swap2\n      0x20\n      mul\n      dup3\n      add\n    tag_184:\n      dup3\n      dup2\n      gt\n      iszero\n      tag_185\n      jumpi\n      dup3\n      mload\n      dup3\n      swap1\n      dup2\n      tag_186\n      swap2\n      swap1\n      tag_104\n      jump\t// in\n    tag_186:\n      pop\n      swap2\n      0x20\n      add\n      swap2\n      swap1\n      0x01\n      add\n      swap1\n      jump(tag_184)\n    tag_185:\n    tag_183:\n      pop\n      swap1\n      pop\n      tag_187\n      swap2\n      swap1\n      tag_188\n      jump\t// in\n    tag_187:\n      pop\n      swap1\n      jump\t// out\n    tag_188:\n    tag_189:\n      dup1\n      dup3\n      gt\n      iszero\n      tag_190\n      jumpi\n      0x00\n      dup2\n      dup2\n      tag_191\n      swap2\n      swap1\n      tag_192\n      jump\t// in\n    tag_191:\n      pop\n      0x01\n      add\n      jump(tag_189)\n    tag_190:\n      pop\n      swap1\n      jump\t// out\n    tag_192:\n      pop\n      dup1\n      sload\n      tag_193\n      swap1\n      tag_92\n      jump\t// in\n    tag_193:\n      0x00\n      dup3\n      sstore\n      dup1\n      0x1f\n      lt\n      tag_195\n      jumpi\n      pop\n      jump(tag_194)\n    tag_195:\n      0x1f\n      add\n      0x20\n      swap1\n      div\n      swap1\n      0x00\n      mstore\n      keccak256(0x00, 0x20)\n      swap1\n      dup2\n      add\n      swap1\n      tag_196\n      swap2\n      swap1\n      tag_197\n      jump\t// in\n    tag_196:\n    tag_194:\n      pop\n      jump\t// out\n    tag_197:\n    tag_198:\n      dup1\n      dup3\n      gt\n      iszero\n      tag_199\n      jumpi\n      0x00\n      dup2\n      0x00\n      swap1\n      sstore\n      pop\n      0x01\n      add\n      jump(tag_198)\n    tag_199:\n      pop\n      swap1\n      jump\t// out\n        /* \"#utility.yul\":7:82   */\n    tag_200:\n        /* \"#utility.yul\":40:46   */\n      0x00\n        /* \"#utility.yul\":73:75   */\n      0x40\n        /* \"#utility.yul\":67:76   */\n      mload\n        /* \"#utility.yul\":57:76   */\n      swap1\n      pop\n        /* \"#utility.yul\":7:82   */\n      swap1\n      jump\t// out\n        /* \"#utility.yul\":88:205   */\n    tag_201:\n        /* \"#utility.yul\":197:198   */\n      0x00\n        /* \"#utility.yul\":194:195   */\n      dup1\n        /* \"#utility.yul\":187:199   */\n      revert\n        /* \"#utility.yul\":211:328   */\n    tag_202:\n        /* \"#utility.yul\":320:321   */\n      0x00\n        /* \"#utility.yul\":317:318   */\n      dup1\n        /* \"#utility.yul\":310:322   */\n      revert\n        /* \"#utility.yul\":334:460   */\n    tag_203:\n        /* \"#utility.yul\":371:378   */\n      0x00\n        /* \"#utility.yul\":411:453   */\n      0xffffffffffffffffffffffffffffffffffffffff\n        /* \"#utility.yul\":404:409   */\n      dup3\n        /* \"#utility.yul\":400:454   */\n      and\n        /* \"#utility.yul\":389:454   */\n      swap1\n      pop\n        /* \"#utility.yul\":334:460   */\n      swap2\n      swap1\n      pop\n      jump\t// out\n        /* \"#utility.yul\":466:562   */\n    tag_204:\n        /* \"#utility.yul\":503:510   */\n      0x00\n        /* \"#utility.yul\":532:556   */\n      tag_262\n        /* \"#utility.yul\":550:555   */\n      dup3\n        /* \"#utility.yul\":532:556   */\n      tag_203\n      jump\t// in\n    tag_262:\n        /* \"#utility.yul\":521:556   */\n      swap1\n      pop\n        /* \"#utility.yul\":466:562   */\n      swap2\n      swap1\n      pop\n      jump\t// out\n        /* \"#utility.yul\":568:690   */\n    tag_205:\n        /* \"#utility.yul\":641:665   */\n      tag_264\n        /* \"#utility.yul\":659:664   */\n      dup2\n        /* \"#utility.yul\":641:665   */\n      tag_204\n      jump\t// in\n    tag_264:\n        /* \"#utility.yul\":634:639   */\n      dup2\n        /* \"#utility.yul\":631:666   */\n      eq\n        /* \"#utility.yul\":621:684   */\n      tag_265\n      jumpi\n        /* \"#utility.yul\":680:681   */\n      0x00\n        /* \"#utility.yul\":677:678   */\n      dup1\n        /* \"#utility.yul\":670:682   */\n      revert\n        /* \"#utility.yul\":621:684   */\n    tag_265:\n        /* \"#utility.yul\":568:690   */\n      pop\n      jump\t// out\n        /* \"#utility.yul\":696:835   */\n    tag_206:\n        /* \"#utility.yul\":742:747   */\n      0x00\n        /* \"#utility.yul\":780:786   */\n      dup2\n        /* \"#utility.yul\":767:787   */\n      calldataload\n        /* \"#utility.yul\":758:787   */\n      swap1\n      pop\n        /* \"#utility.yul\":796:829   */\n      tag_267\n        /* \"#utility.yul\":823:828   */\n      dup2\n        /* \"#utility.yul\":796:829   */\n      tag_205\n      jump\t// in\n    tag_267:\n        /* \"#utility.yul\":696:835   */\n      swap3\n      swap2\n      pop\n      pop\n      jump\t// out\n        /* \"#utility.yul\":841:1170   */\n    tag_24:\n        /* \"#utility.yul\":900:906   */\n      0x00\n        /* \"#utility.yul\":949:951   */\n      0x20\n        /* \"#utility.yul\":937:946   */\n      dup3\n        /* \"#utility.yul\":928:935   */\n      dup5\n        /* \"#utility.yul\":924:947   */\n      sub\n        /* \"#utility.yul\":920:952   */\n      slt\n        /* \"#utility.yul\":917:1036   */\n      iszero\n      tag_269\n      jumpi\n        /* \"#utility.yul\":955:1034   */\n      tag_270\n      tag_201\n      jump\t// in\n    tag_270:\n        /* \"#utility.yul\":917:1036   */\n    tag_269:\n        /* \"#utility.yul\":1075:1076   */\n      0x00\n        /* \"#utility.yul\":1100:1153   */\n      tag_271\n        /* \"#utility.yul\":1145:1152   */\n      dup5\n        /* \"#utility.yul\":1136:1142   */\n      dup3\n        /* \"#utility.yul\":1125:1134   */\n      dup6\n        /* \"#utility.yul\":1121:1143   */\n      add\n        /* \"#utility.yul\":1100:1153   */\n      tag_206\n      jump\t// in\n    tag_271:\n        /* \"#utility.yul\":1090:1153   */\n      swap2\n      pop\n        /* \"#utility.yul\":1046:1163   */\n      pop\n        /* \"#utility.yul\":841:1170   */\n      swap3\n      swap2\n      pop\n      pop\n      jump\t// out\n        /* \"#utility.yul\":1176:1253   */\n    tag_207:\n        /* \"#utility.yul\":1213:1220   */\n      0x00\n        /* \"#utility.yul\":1242:1247   */\n      dup2\n        /* \"#utility.yul\":1231:1247   */\n      swap1\n      pop\n        /* \"#utility.yul\":1176:1253   */\n      swap2\n      swap1\n      pop\n      jump\t// out\n        /* \"#utility.yul\":1259:1377   */\n    tag_208:\n        /* \"#utility.yul\":1346:1370   */\n      tag_274\n        /* \"#utility.yul\":1364:1369   */\n      dup2\n        /* \"#utility.yul\":1346:1370   */\n      tag_207\n      jump\t// in\n    tag_274:\n        /* \"#utility.yul\":1341:1344   */\n      dup3\n        /* \"#utility.yul\":1334:1371   */\n      mstore\n        /* \"#utility.yul\":1259:1377   */\n      pop\n      pop\n      jump\t// out\n        /* \"#utility.yul\":1383:1482   */\n    tag_209:\n        /* \"#utility.yul\":1435:1441   */\n      0x00\n        /* \"#utility.yul\":1469:1474   */\n      dup2\n        /* \"#utility.yul\":1463:1475   */\n      mload\n        /* \"#utility.yul\":1453:1475   */\n      swap1\n      pop\n        /* \"#utility.yul\":1383:1482   */\n      swap2\n      swap1\n      pop\n      jump\t// out\n        /* \"#utility.yul\":1488:1657   */\n    tag_210:\n        /* \"#utility.yul\":1572:1583   */\n      0x00\n        /* \"#utility.yul\":1606:1612   */\n      dup3\n        /* \"#utility.yul\":1601:1604   */\n      dup3\n        /* \"#utility.yul\":1594:1613   */\n      mstore\n        /* \"#utility.yul\":1646:1650   */\n      0x20\n        /* \"#utility.yul\":1641:1644   */\n      dup3\n        /* \"#utility.yul\":1637:1651   */\n      add\n        /* \"#utility.yul\":1622:1651   */\n      swap1\n      pop\n        /* \"#utility.yul\":1488:1657   */\n      swap3\n      swap2\n      pop\n      pop\n      jump\t// out\n        /* \"#utility.yul\":1663:1909   */\n    tag_211:\n        /* \"#utility.yul\":1744:1745   */\n      0x00\n        /* \"#utility.yul\":1754:1867   */\n    tag_278:\n        /* \"#utility.yul\":1768:1774   */\n      dup4\n        /* \"#utility.yul\":1765:1766   */\n      dup2\n        /* \"#utility.yul\":1762:1775   */\n      lt\n        /* \"#utility.yul\":1754:1867   */\n      iszero\n      tag_280\n      jumpi\n        /* \"#utility.yul\":1853:1854   */\n      dup1\n        /* \"#utility.yul\":1848:1851   */\n      dup3\n        /* \"#utility.yul\":1844:1855   */\n      add\n        /* \"#utility.yul\":1838:1856   */\n      mload\n        /* \"#utility.yul\":1834:1835   */\n      dup2\n        /* \"#utility.yul\":1829:1832   */\n      dup5\n        /* \"#utility.yul\":1825:1836   */\n      add\n        /* \"#utility.yul\":1818:1857   */\n      mstore\n        /* \"#utility.yul\":1790:1792   */\n      0x20\n        /* \"#utility.yul\":1787:1788   */\n      dup2\n        /* \"#utility.yul\":1783:1793   */\n      add\n        /* \"#utility.yul\":1778:1793   */\n      swap1\n      pop\n        /* \"#utility.yul\":1754:1867   */\n      jump(tag_278)\n    tag_280:\n        /* \"#utility.yul\":1901:1902   */\n      0x00\n        /* \"#utility.yul\":1892:1898   */\n      dup5\n        /* \"#utility.yul\":1887:1890   */\n      dup5\n        /* \"#utility.yul\":1883:1899   */\n      add\n        /* \"#utility.yul\":1876:1903   */\n      mstore\n        /* \"#utility.yul\":1725:1909   */\n      pop\n        /* \"#utility.yul\":1663:1909   */\n      pop\n      pop\n      pop\n      jump\t// out\n        /* \"#utility.yul\":1915:2017   */\n    tag_212:\n        /* \"#utility.yul\":1956:1962   */\n      0x00\n        /* \"#utility.yul\":2007:2009   */\n      0x1f\n        /* \"#utility.yul\":2003:2010   */\n      not\n        /* \"#utility.yul\":1998:2000   */\n      0x1f\n        /* \"#utility.yul\":1991:1996   */\n      dup4\n        /* \"#utility.yul\":1987:2001   */\n      add\n        /* \"#utility.yul\":1983:2011   */\n      and\n        /* \"#utility.yul\":1973:2011   */\n      swap1\n      pop\n        /* \"#utility.yul\":1915:2017   */\n      swap2\n      swap1\n      pop\n      jump\t// out\n        /* \"#utility.yul\":2023:2400   */\n    tag_213:\n        /* \"#utility.yul\":2111:2114   */\n      0x00\n        /* \"#utility.yul\":2139:2178   */\n      tag_283\n        /* \"#utility.yul\":2172:2177   */\n      dup3\n        /* \"#utility.yul\":2139:2178   */\n      tag_209\n      jump\t// in\n    tag_283:\n        /* \"#utility.yul\":2194:2265   */\n      tag_284\n        /* \"#utility.yul\":2258:2264   */\n      dup2\n        /* \"#utility.yul\":2253:2256   */\n      dup6\n        /* \"#utility.yul\":2194:2265   */\n      tag_210\n      jump\t// in\n    tag_284:\n        /* \"#utility.yul\":2187:2265   */\n      swap4\n      pop\n        /* \"#utility.yul\":2274:2339   */\n      tag_285\n        /* \"#utility.yul\":2332:2338   */\n      dup2\n        /* \"#utility.yul\":2327:2330   */\n      dup6\n        /* \"#utility.yul\":2320:2324   */\n      0x20\n        /* \"#utility.yul\":2313:2318   */\n      dup7\n        /* \"#utility.yul\":2309:2325   */\n      add\n        /* \"#utility.yul\":2274:2339   */\n      tag_211\n      jump\t// in\n    tag_285:\n        /* \"#utility.yul\":2364:2393   */\n      tag_286\n        /* \"#utility.yul\":2386:2392   */\n      dup2\n        /* \"#utility.yul\":2364:2393   */\n      tag_212\n      jump\t// in\n    tag_286:\n        /* \"#utility.yul\":2359:2362   */\n      dup5\n        /* \"#utility.yul\":2355:2394   */\n      add\n        /* \"#utility.yul\":2348:2394   */\n      swap2\n      pop\n        /* \"#utility.yul\":2115:2400   */\n      pop\n        /* \"#utility.yul\":2023:2400   */\n      swap3\n      swap2\n      pop\n      pop\n      jump\t// out\n        /* \"#utility.yul\":2406:2939   */\n    tag_27:\n        /* \"#utility.yul\":2575:2579   */\n      0x00\n        /* \"#utility.yul\":2613:2615   */\n      0x60\n        /* \"#utility.yul\":2602:2611   */\n      dup3\n        /* \"#utility.yul\":2598:2616   */\n      add\n        /* \"#utility.yul\":2590:2616   */\n      swap1\n      pop\n        /* \"#utility.yul\":2626:2697   */\n      tag_288\n        /* \"#utility.yul\":2694:2695   */\n      0x00\n        /* \"#utility.yul\":2683:2692   */\n      dup4\n        /* \"#utility.yul\":2679:2696   */\n      add\n        /* \"#utility.yul\":2670:2676   */\n      dup7\n        /* \"#utility.yul\":2626:2697   */\n      tag_208\n      jump\t// in\n    tag_288:\n        /* \"#utility.yul\":2744:2753   */\n      dup2\n        /* \"#utility.yul\":2738:2742   */\n      dup2\n        /* \"#utility.yul\":2734:2754   */\n      sub\n        /* \"#utility.yul\":2729:2731   */\n      0x20\n        /* \"#utility.yul\":2718:2727   */\n      dup4\n        /* \"#utility.yul\":2714:2732   */\n      add\n        /* \"#utility.yul\":2707:2755   */\n      mstore\n        /* \"#utility.yul\":2772:2850   */\n      tag_289\n        /* \"#utility.yul\":2845:2849   */\n      dup2\n        /* \"#utility.yul\":2836:2842   */\n      dup6\n        /* \"#utility.yul\":2772:2850   */\n      tag_213\n      jump\t// in\n    tag_289:\n        /* \"#utility.yul\":2764:2850   */\n      swap1\n      pop\n        /* \"#utility.yul\":2860:2932   */\n      tag_290\n        /* \"#utility.yul\":2928:2930   */\n      0x40\n        /* \"#utility.yul\":2917:2926   */\n      dup4\n        /* \"#utility.yul\":2913:2931   */\n      add\n        /* \"#utility.yul\":2904:2910   */\n      dup5\n        /* \"#utility.yul\":2860:2932   */\n      tag_208\n      jump\t// in\n    tag_290:\n        /* \"#utility.yul\":2406:2939   */\n      swap5\n      swap4\n      pop\n      pop\n      pop\n      pop\n      jump\t// out\n        /* \"#utility.yul\":2945:3062   */\n    tag_214:\n        /* \"#utility.yul\":3054:3055   */\n      0x00\n        /* \"#utility.yul\":3051:3052   */\n      dup1\n        /* \"#utility.yul\":3044:3056   */\n      revert\n        /* \"#utility.yul\":3068:3185   */\n    tag_215:\n        /* \"#utility.yul\":3177:3178   */\n      0x00\n        /* \"#utility.yul\":3174:3175   */\n      dup1\n        /* \"#utility.yul\":3167:3179   */\n      revert\n        /* \"#utility.yul\":3191:3371   */\n    tag_100:\n        /* \"#utility.yul\":3239:3316   */\n      0x4e487b7100000000000000000000000000000000000000000000000000000000\n        /* \"#utility.yul\":3236:3237   */\n      0x00\n        /* \"#utility.yul\":3229:3317   */\n      mstore\n        /* \"#utility.yul\":3336:3340   */\n      0x41\n        /* \"#utility.yul\":3333:3334   */\n      0x04\n        /* \"#utility.yul\":3326:3341   */\n      mstore\n        /* \"#utility.yul\":3360:3364   */\n      0x24\n        /* \"#utility.yul\":3357:3358   */\n      0x00\n        /* \"#utility.yul\":3350:3365   */\n      revert\n        /* \"#utility.yul\":3377:3658   */\n    tag_216:\n        /* \"#utility.yul\":3460:3487   */\n      tag_295\n        /* \"#utility.yul\":3482:3486   */\n      dup3\n        /* \"#utility.yul\":3460:3487   */\n      tag_212\n      jump\t// in\n    tag_295:\n        /* \"#utility.yul\":3452:3458   */\n      dup2\n        /* \"#utility.yul\":3448:3488   */\n      add\n        /* \"#utility.yul\":3590:3596   */\n      dup2\n        /* \"#utility.yul\":3578:3588   */\n      dup2\n        /* \"#utility.yul\":3575:3597   */\n      lt\n        /* \"#utility.yul\":3554:3572   */\n      0xffffffffffffffff\n        /* \"#utility.yul\":3542:3552   */\n      dup3\n        /* \"#utility.yul\":3539:3573   */\n      gt\n        /* \"#utility.yul\":3536:3598   */\n      or\n        /* \"#utility.yul\":3533:3621   */\n      iszero\n      tag_296\n      jumpi\n        /* \"#utility.yul\":3601:3619   */\n      tag_297\n      tag_100\n      jump\t// in\n    tag_297:\n        /* \"#utility.yul\":3533:3621   */\n    tag_296:\n        /* \"#utility.yul\":3641:3651   */\n      dup1\n        /* \"#utility.yul\":3637:3639   */\n      0x40\n        /* \"#utility.yul\":3630:3652   */\n      mstore\n        /* \"#utility.yul\":3420:3658   */\n      pop\n        /* \"#utility.yul\":3377:3658   */\n      pop\n      pop\n      jump\t// out\n        /* \"#utility.yul\":3664:3793   */\n    tag_217:\n        /* \"#utility.yul\":3698:3704   */\n      0x00\n        /* \"#utility.yul\":3725:3745   */\n      tag_299\n      tag_200\n      jump\t// in\n    tag_299:\n        /* \"#utility.yul\":3715:3745   */\n      swap1\n      pop\n        /* \"#utility.yul\":3754:3787   */\n      tag_300\n        /* \"#utility.yul\":3782:3786   */\n      dup3\n        /* \"#utility.yul\":3774:3780   */\n      dup3\n        /* \"#utility.yul\":3754:3787   */\n      tag_216\n      jump\t// in\n    tag_300:\n        /* \"#utility.yul\":3664:3793   */\n      swap2\n      swap1\n      pop\n      jump\t// out\n        /* \"#utility.yul\":3799:4107   */\n    tag_218:\n        /* \"#utility.yul\":3861:3865   */\n      0x00\n        /* \"#utility.yul\":3951:3969   */\n      0xffffffffffffffff\n        /* \"#utility.yul\":3943:3949   */\n      dup3\n        /* \"#utility.yul\":3940:3970   */\n      gt\n        /* \"#utility.yul\":3937:3993   */\n      iszero\n      tag_302\n      jumpi\n        /* \"#utility.yul\":3973:3991   */\n      tag_303\n      tag_100\n      jump\t// in\n    tag_303:\n        /* \"#utility.yul\":3937:3993   */\n    tag_302:\n        /* \"#utility.yul\":4011:4040   */\n      tag_304\n        /* \"#utility.yul\":4033:4039   */\n      dup3\n        /* \"#utility.yul\":4011:4040   */\n      tag_212\n      jump\t// in\n    tag_304:\n        /* \"#utility.yul\":4003:4040   */\n      swap1\n      pop\n        /* \"#utility.yul\":4095:4099   */\n      0x20\n        /* \"#utility.yul\":4089:4093   */\n      dup2\n        /* \"#utility.yul\":4085:4100   */\n      add\n        /* \"#utility.yul\":4077:4100   */\n      swap1\n      pop\n        /* \"#utility.yul\":3799:4107   */\n      swap2\n      swap1\n      pop\n      jump\t// out\n        /* \"#utility.yul\":4113:4259   */\n    tag_219:\n        /* \"#utility.yul\":4210:4216   */\n      dup3\n        /* \"#utility.yul\":4205:4208   */\n      dup2\n        /* \"#utility.yul\":4200:4203   */\n      dup4\n        /* \"#utility.yul\":4187:4217   */\n      calldatacopy\n        /* \"#utility.yul\":4251:4252   */\n      0x00\n        /* \"#utility.yul\":4242:4248   */\n      dup4\n        /* \"#utility.yul\":4237:4240   */\n      dup4\n        /* \"#utility.yul\":4233:4249   */\n      add\n        /* \"#utility.yul\":4226:4253   */\n      mstore\n        /* \"#utility.yul\":4113:4259   */\n      pop\n      pop\n      pop\n      jump\t// out\n        /* \"#utility.yul\":4265:4690   */\n    tag_220:\n        /* \"#utility.yul\":4343:4348   */\n      0x00\n        /* \"#utility.yul\":4368:4434   */\n      tag_307\n        /* \"#utility.yul\":4384:4433   */\n      tag_308\n        /* \"#utility.yul\":4426:4432   */\n      dup5\n        /* \"#utility.yul\":4384:4433   */\n      tag_218\n      jump\t// in\n    tag_308:\n        /* \"#utility.yul\":4368:4434   */\n      tag_217\n      jump\t// in\n    tag_307:\n        /* \"#utility.yul\":4359:4434   */\n      swap1\n      pop\n        /* \"#utility.yul\":4457:4463   */\n      dup3\n        /* \"#utility.yul\":4450:4455   */\n      dup2\n        /* \"#utility.yul\":4443:4464   */\n      mstore\n        /* \"#utility.yul\":4495:4499   */\n      0x20\n        /* \"#utility.yul\":4488:4493   */\n      dup2\n        /* \"#utility.yul\":4484:4500   */\n      add\n        /* \"#utility.yul\":4533:4536   */\n      dup5\n        /* \"#utility.yul\":4524:4530   */\n      dup5\n        /* \"#utility.yul\":4519:4522   */\n      dup5\n        /* \"#utility.yul\":4515:4531   */\n      add\n        /* \"#utility.yul\":4512:4537   */\n      gt\n        /* \"#utility.yul\":4509:4621   */\n      iszero\n      tag_309\n      jumpi\n        /* \"#utility.yul\":4540:4619   */\n      tag_310\n      tag_215\n      jump\t// in\n    tag_310:\n        /* \"#utility.yul\":4509:4621   */\n    tag_309:\n        /* \"#utility.yul\":4630:4684   */\n      tag_311\n        /* \"#utility.yul\":4677:4683   */\n      dup5\n        /* \"#utility.yul\":4672:4675   */\n      dup3\n        /* \"#utility.yul\":4667:4670   */\n      dup6\n        /* \"#utility.yul\":4630:4684   */\n      tag_219\n      jump\t// in\n    tag_311:\n        /* \"#utility.yul\":4349:4690   */\n      pop\n        /* \"#utility.yul\":4265:4690   */\n      swap4\n      swap3\n      pop\n      pop\n      pop\n      jump\t// out\n        /* \"#utility.yul\":4710:5050   */\n    tag_221:\n        /* \"#utility.yul\":4766:4771   */\n      0x00\n        /* \"#utility.yul\":4815:4818   */\n      dup3\n        /* \"#utility.yul\":4808:4812   */\n      0x1f\n        /* \"#utility.yul\":4800:4806   */\n      dup4\n        /* \"#utility.yul\":4796:4813   */\n      add\n        /* \"#utility.yul\":4792:4819   */\n      slt\n        /* \"#utility.yul\":4782:4904   */\n      tag_313\n      jumpi\n        /* \"#utility.yul\":4823:4902   */\n      tag_314\n      tag_214\n      jump\t// in\n    tag_314:\n        /* \"#utility.yul\":4782:4904   */\n    tag_313:\n        /* \"#utility.yul\":4940:4946   */\n      dup2\n        /* \"#utility.yul\":4927:4947   */\n      calldataload\n        /* \"#utility.yul\":4965:5044   */\n      tag_315\n        /* \"#utility.yul\":5040:5043   */\n      dup5\n        /* \"#utility.yul\":5032:5038   */\n      dup3\n        /* \"#utility.yul\":5025:5029   */\n      0x20\n        /* \"#utility.yul\":5017:5023   */\n      dup7\n        /* \"#utility.yul\":5013:5030   */\n      add\n        /* \"#utility.yul\":4965:5044   */\n      tag_220\n      jump\t// in\n    tag_315:\n        /* \"#utility.yul\":4956:5044   */\n      swap2\n      pop\n        /* \"#utility.yul\":4772:5050   */\n      pop\n        /* \"#utility.yul\":4710:5050   */\n      swap3\n      swap2\n      pop\n      pop\n      jump\t// out\n        /* \"#utility.yul\":5056:5178   */\n    tag_222:\n        /* \"#utility.yul\":5129:5153   */\n      tag_317\n        /* \"#utility.yul\":5147:5152   */\n      dup2\n        /* \"#utility.yul\":5129:5153   */\n      tag_207\n      jump\t// in\n    tag_317:\n        /* \"#utility.yul\":5122:5127   */\n      dup2\n        /* \"#utility.yul\":5119:5154   */\n      eq\n        /* \"#utility.yul\":5109:5172   */\n      tag_318\n      jumpi\n        /* \"#utility.yul\":5168:5169   */\n      0x00\n        /* \"#utility.yul\":5165:5166   */\n      dup1\n        /* \"#utility.yul\":5158:5170   */\n      revert\n        /* \"#utility.yul\":5109:5172   */\n    tag_318:\n        /* \"#utility.yul\":5056:5178   */\n      pop\n      jump\t// out\n        /* \"#utility.yul\":5184:5323   */\n    tag_223:\n        /* \"#utility.yul\":5230:5235   */\n      0x00\n        /* \"#utility.yul\":5268:5274   */\n      dup2\n        /* \"#utility.yul\":5255:5275   */\n      calldataload\n        /* \"#utility.yul\":5246:5275   */\n      swap1\n      pop\n        /* \"#utility.yul\":5284:5317   */\n      tag_320\n        /* \"#utility.yul\":5311:5316   */\n      dup2\n        /* \"#utility.yul\":5284:5317   */\n      tag_222\n      jump\t// in\n    tag_320:\n        /* \"#utility.yul\":5184:5323   */\n      swap3\n      swap2\n      pop\n      pop\n      jump\t// out\n        /* \"#utility.yul\":5329:5983   */\n    tag_30:\n        /* \"#utility.yul\":5407:5413   */\n      0x00\n        /* \"#utility.yul\":5415:5421   */\n      dup1\n        /* \"#utility.yul\":5464:5466   */\n      0x40\n        /* \"#utility.yul\":5452:5461   */\n      dup4\n        /* \"#utility.yul\":5443:5450   */\n      dup6\n        /* \"#utility.yul\":5439:5462   */\n      sub\n        /* \"#utility.yul\":5435:5467   */\n      slt\n        /* \"#utility.yul\":5432:5551   */\n      iszero\n      tag_322\n      jumpi\n        /* \"#utility.yul\":5470:5549   */\n      tag_323\n      tag_201\n      jump\t// in\n    tag_323:\n        /* \"#utility.yul\":5432:5551   */\n    tag_322:\n        /* \"#utility.yul\":5618:5619   */\n      0x00\n        /* \"#utility.yul\":5607:5616   */\n      dup4\n        /* \"#utility.yul\":5603:5620   */\n      add\n        /* \"#utility.yul\":5590:5621   */\n      calldataload\n        /* \"#utility.yul\":5648:5666   */\n      0xffffffffffffffff\n        /* \"#utility.yul\":5640:5646   */\n      dup2\n        /* \"#utility.yul\":5637:5667   */\n      gt\n        /* \"#utility.yul\":5634:5751   */\n      iszero\n      tag_324\n      jumpi\n        /* \"#utility.yul\":5670:5749   */\n      tag_325\n      tag_202\n      jump\t// in\n    tag_325:\n        /* \"#utility.yul\":5634:5751   */\n    tag_324:\n        /* \"#utility.yul\":5775:5838   */\n      tag_326\n        /* \"#utility.yul\":5830:5837   */\n      dup6\n        /* \"#utility.yul\":5821:5827   */\n      dup3\n        /* \"#utility.yul\":5810:5819   */\n      dup7\n        /* \"#utility.yul\":5806:5828   */\n      add\n        /* \"#utility.yul\":5775:5838   */\n      tag_221\n      jump\t// in\n    tag_326:\n        /* \"#utility.yul\":5765:5838   */\n      swap3\n      pop\n        /* \"#utility.yul\":5561:5848   */\n      pop\n        /* \"#utility.yul\":5887:5889   */\n      0x20\n        /* \"#utility.yul\":5913:5966   */\n      tag_327\n        /* \"#utility.yul\":5958:5965   */\n      dup6\n        /* \"#utility.yul\":5949:5955   */\n      dup3\n        /* \"#utility.yul\":5938:5947   */\n      dup7\n        /* \"#utility.yul\":5934:5956   */\n      add\n        /* \"#utility.yul\":5913:5966   */\n      tag_223\n      jump\t// in\n    tag_327:\n        /* \"#utility.yul\":5903:5966   */\n      swap2\n      pop\n        /* \"#utility.yul\":5858:5976   */\n      pop\n        /* \"#utility.yul\":5329:5983   */\n      swap3\n      pop\n      swap3\n      swap1\n      pop\n      jump\t// out\n        /* \"#utility.yul\":5989:6211   */\n    tag_35:\n        /* \"#utility.yul\":6082:6086   */\n      0x00\n        /* \"#utility.yul\":6120:6122   */\n      0x20\n        /* \"#utility.yul\":6109:6118   */\n      dup3\n        /* \"#utility.yul\":6105:6123   */\n      add\n        /* \"#utility.yul\":6097:6123   */\n      swap1\n      pop\n        /* \"#utility.yul\":6133:6204   */\n      tag_329\n        /* \"#utility.yul\":6201:6202   */\n      0x00\n        /* \"#utility.yul\":6190:6199   */\n      dup4\n        /* \"#utility.yul\":6186:6203   */\n      add\n        /* \"#utility.yul\":6177:6183   */\n      dup5\n        /* \"#utility.yul\":6133:6204   */\n      tag_208\n      jump\t// in\n    tag_329:\n        /* \"#utility.yul\":5989:6211   */\n      swap3\n      swap2\n      pop\n      pop\n      jump\t// out\n        /* \"#utility.yul\":6217:7376   */\n    tag_38:\n        /* \"#utility.yul\":6324:6330   */\n      0x00\n        /* \"#utility.yul\":6332:6338   */\n      dup1\n        /* \"#utility.yul\":6340:6346   */\n      0x00\n        /* \"#utility.yul\":6389:6391   */\n      0x60\n        /* \"#utility.yul\":6377:6386   */\n      dup5\n        /* \"#utility.yul\":6368:6375   */\n      dup7\n        /* \"#utility.yul\":6364:6387   */\n      sub\n        /* \"#utility.yul\":6360:6392   */\n      slt\n        /* \"#utility.yul\":6357:6476   */\n      iszero\n      tag_331\n      jumpi\n        /* \"#utility.yul\":6395:6474   */\n      tag_332\n      tag_201\n      jump\t// in\n    tag_332:\n        /* \"#utility.yul\":6357:6476   */\n    tag_331:\n        /* \"#utility.yul\":6543:6544   */\n      0x00\n        /* \"#utility.yul\":6532:6541   */\n      dup5\n        /* \"#utility.yul\":6528:6545   */\n      add\n        /* \"#utility.yul\":6515:6546   */\n      calldataload\n        /* \"#utility.yul\":6573:6591   */\n      0xffffffffffffffff\n        /* \"#utility.yul\":6565:6571   */\n      dup2\n        /* \"#utility.yul\":6562:6592   */\n      gt\n        /* \"#utility.yul\":6559:6676   */\n      iszero\n      tag_333\n      jumpi\n        /* \"#utility.yul\":6595:6674   */\n      tag_334\n      tag_202\n      jump\t// in\n    tag_334:\n        /* \"#utility.yul\":6559:6676   */\n    tag_333:\n        /* \"#utility.yul\":6700:6763   */\n      tag_335\n        /* \"#utility.yul\":6755:6762   */\n      dup7\n        /* \"#utility.yul\":6746:6752   */\n      dup3\n        /* \"#utility.yul\":6735:6744   */\n      dup8\n        /* \"#utility.yul\":6731:6753   */\n      add\n        /* \"#utility.yul\":6700:6763   */\n      tag_221\n      jump\t// in\n    tag_335:\n        /* \"#utility.yul\":6690:6763   */\n      swap4\n      pop\n        /* \"#utility.yul\":6486:6773   */\n      pop\n        /* \"#utility.yul\":6840:6842   */\n      0x20\n        /* \"#utility.yul\":6829:6838   */\n      dup5\n        /* \"#utility.yul\":6825:6843   */\n      add\n        /* \"#utility.yul\":6812:6844   */\n      calldataload\n        /* \"#utility.yul\":6871:6889   */\n      0xffffffffffffffff\n        /* \"#utility.yul\":6863:6869   */\n      dup2\n        /* \"#utility.yul\":6860:6890   */\n      gt\n        /* \"#utility.yul\":6857:6974   */\n      iszero\n      tag_336\n      jumpi\n        /* \"#utility.yul\":6893:6972   */\n      tag_337\n      tag_202\n      jump\t// in\n    tag_337:\n        /* \"#utility.yul\":6857:6974   */\n    tag_336:\n        /* \"#utility.yul\":6998:7061   */\n      tag_338\n        /* \"#utility.yul\":7053:7060   */\n      dup7\n        /* \"#utility.yul\":7044:7050   */\n      dup3\n        /* \"#utility.yul\":7033:7042   */\n      dup8\n        /* \"#utility.yul\":7029:7051   */\n      add\n        /* \"#utility.yul\":6998:7061   */\n      tag_221\n      jump\t// in\n    tag_338:\n        /* \"#utility.yul\":6988:7061   */\n      swap3\n      pop\n        /* \"#utility.yul\":6783:7071   */\n      pop\n        /* \"#utility.yul\":7138:7140   */\n      0x40\n        /* \"#utility.yul\":7127:7136   */\n      dup5\n        /* \"#utility.yul\":7123:7141   */\n      add\n        /* \"#utility.yul\":7110:7142   */\n      calldataload\n        /* \"#utility.yul\":7169:7187   */\n      0xffffffffffffffff\n        /* \"#utility.yul\":7161:7167   */\n      dup2\n        /* \"#utility.yul\":7158:7188   */\n      gt\n        /* \"#utility.yul\":7155:7272   */\n      iszero\n      tag_339\n      jumpi\n        /* \"#utility.yul\":7191:7270   */\n      tag_340\n      tag_202\n      jump\t// in\n    tag_340:\n        /* \"#utility.yul\":7155:7272   */\n    tag_339:\n        /* \"#utility.yul\":7296:7359   */\n      tag_341\n        /* \"#utility.yul\":7351:7358   */\n      dup7\n        /* \"#utility.yul\":7342:7348   */\n      dup3\n        /* \"#utility.yul\":7331:7340   */\n      dup8\n        /* \"#utility.yul\":7327:7349   */\n      add\n        /* \"#utility.yul\":7296:7359   */\n      tag_221\n      jump\t// in\n    tag_341:\n        /* \"#utility.yul\":7286:7359   */\n      swap2\n      pop\n        /* \"#utility.yul\":7081:7369   */\n      pop\n        /* \"#utility.yul\":6217:7376   */\n      swap3\n      pop\n      swap3\n      pop\n      swap3\n      jump\t// out\n        /* \"#utility.yul\":7382:8473   */\n    tag_42:\n        /* \"#utility.yul\":7487:7493   */\n      0x00\n        /* \"#utility.yul\":7495:7501   */\n      dup1\n        /* \"#utility.yul\":7503:7509   */\n      0x00\n        /* \"#utility.yul\":7511:7517   */\n      dup1\n        /* \"#utility.yul\":7519:7525   */\n      0x00\n        /* \"#utility.yul\":7568:7571   */\n      0xa0\n        /* \"#utility.yul\":7556:7565   */\n      dup7\n        /* \"#utility.yul\":7547:7554   */\n      dup9\n        /* \"#utility.yul\":7543:7566   */\n      sub\n        /* \"#utility.yul\":7539:7572   */\n      slt\n        /* \"#utility.yul\":7536:7656   */\n      iszero\n      tag_343\n      jumpi\n        /* \"#utility.yul\":7575:7654   */\n      tag_344\n      tag_201\n      jump\t// in\n    tag_344:\n        /* \"#utility.yul\":7536:7656   */\n    tag_343:\n        /* \"#utility.yul\":7695:7696   */\n      0x00\n        /* \"#utility.yul\":7720:7773   */\n      tag_345\n        /* \"#utility.yul\":7765:7772   */\n      dup9\n        /* \"#utility.yul\":7756:7762   */\n      dup3\n        /* \"#utility.yul\":7745:7754   */\n      dup10\n        /* \"#utility.yul\":7741:7763   */\n      add\n        /* \"#utility.yul\":7720:7773   */\n      tag_223\n      jump\t// in\n    tag_345:\n        /* \"#utility.yul\":7710:7773   */\n      swap6\n      pop\n        /* \"#utility.yul\":7666:7783   */\n      pop\n        /* \"#utility.yul\":7850:7852   */\n      0x20\n        /* \"#utility.yul\":7839:7848   */\n      dup7\n        /* \"#utility.yul\":7835:7853   */\n      add\n        /* \"#utility.yul\":7822:7854   */\n      calldataload\n        /* \"#utility.yul\":7881:7899   */\n      0xffffffffffffffff\n        /* \"#utility.yul\":7873:7879   */\n      dup2\n        /* \"#utility.yul\":7870:7900   */\n      gt\n        /* \"#utility.yul\":7867:7984   */\n      iszero\n      tag_346\n      jumpi\n        /* \"#utility.yul\":7903:7982   */\n      tag_347\n      tag_202\n      jump\t// in\n    tag_347:\n        /* \"#utility.yul\":7867:7984   */\n    tag_346:\n        /* \"#utility.yul\":8008:8071   */\n      tag_348\n        /* \"#utility.yul\":8063:8070   */\n      dup9\n        /* \"#utility.yul\":8054:8060   */\n      dup3\n        /* \"#utility.yul\":8043:8052   */\n      dup10\n        /* \"#utility.yul\":8039:8061   */\n      add\n        /* \"#utility.yul\":8008:8071   */\n      tag_221\n      jump\t// in\n    tag_348:\n        /* \"#utility.yul\":7998:8071   */\n      swap5\n      pop\n        /* \"#utility.yul\":7793:8081   */\n      pop\n        /* \"#utility.yul\":8120:8122   */\n      0x40\n        /* \"#utility.yul\":8146:8199   */\n      tag_349\n        /* \"#utility.yul\":8191:8198   */\n      dup9\n        /* \"#utility.yul\":8182:8188   */\n      dup3\n        /* \"#utility.yul\":8171:8180   */\n      dup10\n        /* \"#utility.yul\":8167:8189   */\n      add\n        /* \"#utility.yul\":8146:8199   */\n      tag_223\n      jump\t// in\n    tag_349:\n        /* \"#utility.yul\":8136:8199   */\n      swap4\n      pop\n        /* \"#utility.yul\":8091:8209   */\n      pop\n        /* \"#utility.yul\":8248:8250   */\n      0x60\n        /* \"#utility.yul\":8274:8327   */\n      tag_350\n        /* \"#utility.yul\":8319:8326   */\n      dup9\n        /* \"#utility.yul\":8310:8316   */\n      dup3\n        /* \"#utility.yul\":8299:8308   */\n      dup10\n        /* \"#utility.yul\":8295:8317   */\n      add\n        /* \"#utility.yul\":8274:8327   */\n      tag_223\n      jump\t// in\n    tag_350:\n        /* \"#utility.yul\":8264:8327   */\n      swap3\n      pop\n        /* \"#utility.yul\":8219:8337   */\n      pop\n        /* \"#utility.yul\":8376:8379   */\n      0x80\n        /* \"#utility.yul\":8403:8456   */\n      tag_351\n        /* \"#utility.yul\":8448:8455   */\n      dup9\n        /* \"#utility.yul\":8439:8445   */\n      dup3\n        /* \"#utility.yul\":8428:8437   */\n      dup10\n        /* \"#utility.yul\":8424:8446   */\n      add\n        /* \"#utility.yul\":8403:8456   */\n      tag_223\n      jump\t// in\n    tag_351:\n        /* \"#utility.yul\":8393:8456   */\n      swap2\n      pop\n        /* \"#utility.yul\":8347:8466   */\n      pop\n        /* \"#utility.yul\":7382:8473   */\n      swap3\n      swap6\n      pop\n      swap3\n      swap6\n      swap1\n      swap4\n      pop\n      jump\t// out\n        /* \"#utility.yul\":8479:8953   */\n    tag_46:\n        /* \"#utility.yul\":8547:8553   */\n      0x00\n        /* \"#utility.yul\":8555:8561   */\n      dup1\n        /* \"#utility.yul\":8604:8606   */\n      0x40\n        /* \"#utility.yul\":8592:8601   */\n      dup4\n        /* \"#utility.yul\":8583:8590   */\n      dup6\n        /* \"#utility.yul\":8579:8602   */\n      sub\n        /* \"#utility.yul\":8575:8607   */\n      slt\n        /* \"#utility.yul\":8572:8691   */\n      iszero\n      tag_353\n      jumpi\n        /* \"#utility.yul\":8610:8689   */\n      tag_354\n      tag_201\n      jump\t// in\n    tag_354:\n        /* \"#utility.yul\":8572:8691   */\n    tag_353:\n        /* \"#utility.yul\":8730:8731   */\n      0x00\n        /* \"#utility.yul\":8755:8808   */\n      tag_355\n        /* \"#utility.yul\":8800:8807   */\n      dup6\n        /* \"#utility.yul\":8791:8797   */\n      dup3\n        /* \"#utility.yul\":8780:8789   */\n      dup7\n        /* \"#utility.yul\":8776:8798   */\n      add\n        /* \"#utility.yul\":8755:8808   */\n      tag_206\n      jump\t// in\n    tag_355:\n        /* \"#utility.yul\":8745:8808   */\n      swap3\n      pop\n        /* \"#utility.yul\":8701:8818   */\n      pop\n        /* \"#utility.yul\":8857:8859   */\n      0x20\n        /* \"#utility.yul\":8883:8936   */\n      tag_356\n        /* \"#utility.yul\":8928:8935   */\n      dup6\n        /* \"#utility.yul\":8919:8925   */\n      dup3\n        /* \"#utility.yul\":8908:8917   */\n      dup7\n        /* \"#utility.yul\":8904:8926   */\n      add\n        /* \"#utility.yul\":8883:8936   */\n      tag_223\n      jump\t// in\n    tag_356:\n        /* \"#utility.yul\":8873:8936   */\n      swap2\n      pop\n        /* \"#utility.yul\":8828:8946   */\n      pop\n        /* \"#utility.yul\":8479:8953   */\n      swap3\n      pop\n      swap3\n      swap1\n      pop\n      jump\t// out\n        /* \"#utility.yul\":8959:9785   */\n    tag_59:\n        /* \"#utility.yul\":9196:9200   */\n      0x00\n        /* \"#utility.yul\":9234:9237   */\n      0x80\n        /* \"#utility.yul\":9223:9232   */\n      dup3\n        /* \"#utility.yul\":9219:9238   */\n      add\n        /* \"#utility.yul\":9211:9238   */\n      swap1\n      pop\n        /* \"#utility.yul\":9248:9319   */\n      tag_358\n        /* \"#utility.yul\":9316:9317   */\n      0x00\n        /* \"#utility.yul\":9305:9314   */\n      dup4\n        /* \"#utility.yul\":9301:9318   */\n      add\n        /* \"#utility.yul\":9292:9298   */\n      dup8\n        /* \"#utility.yul\":9248:9319   */\n      tag_208\n      jump\t// in\n    tag_358:\n        /* \"#utility.yul\":9366:9375   */\n      dup2\n        /* \"#utility.yul\":9360:9364   */\n      dup2\n        /* \"#utility.yul\":9356:9376   */\n      sub\n        /* \"#utility.yul\":9351:9353   */\n      0x20\n        /* \"#utility.yul\":9340:9349   */\n      dup4\n        /* \"#utility.yul\":9336:9354   */\n      add\n        /* \"#utility.yul\":9329:9377   */\n      mstore\n        /* \"#utility.yul\":9394:9472   */\n      tag_359\n        /* \"#utility.yul\":9467:9471   */\n      dup2\n        /* \"#utility.yul\":9458:9464   */\n      dup7\n        /* \"#utility.yul\":9394:9472   */\n      tag_213\n      jump\t// in\n    tag_359:\n        /* \"#utility.yul\":9386:9472   */\n      swap1\n      pop\n        /* \"#utility.yul\":9519:9528   */\n      dup2\n        /* \"#utility.yul\":9513:9517   */\n      dup2\n        /* \"#utility.yul\":9509:9529   */\n      sub\n        /* \"#utility.yul\":9504:9506   */\n      0x40\n        /* \"#utility.yul\":9493:9502   */\n      dup4\n        /* \"#utility.yul\":9489:9507   */\n      add\n        /* \"#utility.yul\":9482:9530   */\n      mstore\n        /* \"#utility.yul\":9547:9625   */\n      tag_360\n        /* \"#utility.yul\":9620:9624   */\n      dup2\n        /* \"#utility.yul\":9611:9617   */\n      dup6\n        /* \"#utility.yul\":9547:9625   */\n      tag_213\n      jump\t// in\n    tag_360:\n        /* \"#utility.yul\":9539:9625   */\n      swap1\n      pop\n        /* \"#utility.yul\":9672:9681   */\n      dup2\n        /* \"#utility.yul\":9666:9670   */\n      dup2\n        /* \"#utility.yul\":9662:9682   */\n      sub\n        /* \"#utility.yul\":9657:9659   */\n      0x60\n        /* \"#utility.yul\":9646:9655   */\n      dup4\n        /* \"#utility.yul\":9642:9660   */\n      add\n        /* \"#utility.yul\":9635:9683   */\n      mstore\n        /* \"#utility.yul\":9700:9778   */\n      tag_361\n        /* \"#utility.yul\":9773:9777   */\n      dup2\n        /* \"#utility.yul\":9764:9770   */\n      dup5\n        /* \"#utility.yul\":9700:9778   */\n      tag_213\n      jump\t// in\n    tag_361:\n        /* \"#utility.yul\":9692:9778   */\n      swap1\n      pop\n        /* \"#utility.yul\":8959:9785   */\n      swap6\n      swap5\n      pop\n      pop\n      pop\n      pop\n      pop\n      jump\t// out\n        /* \"#utility.yul\":9791:9915   */\n    tag_224:\n        /* \"#utility.yul\":9868:9874   */\n      0x00\n        /* \"#utility.yul\":9902:9907   */\n      dup2\n        /* \"#utility.yul\":9896:9908   */\n      mload\n        /* \"#utility.yul\":9886:9908   */\n      swap1\n      pop\n        /* \"#utility.yul\":9791:9915   */\n      swap2\n      swap1\n      pop\n      jump\t// out\n        /* \"#utility.yul\":9921:10115   */\n    tag_225:\n        /* \"#utility.yul\":10030:10041   */\n      0x00\n        /* \"#utility.yul\":10064:10070   */\n      dup3\n        /* \"#utility.yul\":10059:10062   */\n      dup3\n        /* \"#utility.yul\":10052:10071   */\n      mstore\n        /* \"#utility.yul\":10104:10108   */\n      0x20\n        /* \"#utility.yul\":10099:10102   */\n      dup3\n        /* \"#utility.yul\":10095:10109   */\n      add\n        /* \"#utility.yul\":10080:10109   */\n      swap1\n      pop\n        /* \"#utility.yul\":9921:10115   */\n      swap3\n      swap2\n      pop\n      pop\n      jump\t// out\n        /* \"#utility.yul\":10121:10263   */\n    tag_226:\n        /* \"#utility.yul\":10198:10202   */\n      0x00\n        /* \"#utility.yul\":10221:10224   */\n      dup2\n        /* \"#utility.yul\":10213:10224   */\n      swap1\n      pop\n        /* \"#utility.yul\":10251:10255   */\n      0x20\n        /* \"#utility.yul\":10246:10249   */\n      dup3\n        /* \"#utility.yul\":10242:10256   */\n      add\n        /* \"#utility.yul\":10234:10256   */\n      swap1\n      pop\n        /* \"#utility.yul\":10121:10263   */\n      swap2\n      swap1\n      pop\n      jump\t// out\n        /* \"#utility.yul\":10269:10428   */\n    tag_227:\n        /* \"#utility.yul\":10343:10354   */\n      0x00\n        /* \"#utility.yul\":10377:10383   */\n      dup3\n        /* \"#utility.yul\":10372:10375   */\n      dup3\n        /* \"#utility.yul\":10365:10384   */\n      mstore\n        /* \"#utility.yul\":10417:10421   */\n      0x20\n        /* \"#utility.yul\":10412:10415   */\n      dup3\n        /* \"#utility.yul\":10408:10422   */\n      add\n        /* \"#utility.yul\":10393:10422   */\n      swap1\n      pop\n        /* \"#utility.yul\":10269:10428   */\n      swap3\n      swap2\n      pop\n      pop\n      jump\t// out\n        /* \"#utility.yul\":10434:10791   */\n    tag_228:\n        /* \"#utility.yul\":10512:10515   */\n      0x00\n        /* \"#utility.yul\":10540:10579   */\n      tag_367\n        /* \"#utility.yul\":10573:10578   */\n      dup3\n        /* \"#utility.yul\":10540:10579   */\n      tag_209\n      jump\t// in\n    tag_367:\n        /* \"#utility.yul\":10595:10656   */\n      tag_368\n        /* \"#utility.yul\":10649:10655   */\n      dup2\n        /* \"#utility.yul\":10644:10647   */\n      dup6\n        /* \"#utility.yul\":10595:10656   */\n      tag_227\n      jump\t// in\n    tag_368:\n        /* \"#utility.yul\":10588:10656   */\n      swap4\n      pop\n        /* \"#utility.yul\":10665:10730   */\n      tag_369\n        /* \"#utility.yul\":10723:10729   */\n      dup2\n        /* \"#utility.yul\":10718:10721   */\n      dup6\n        /* \"#utility.yul\":10711:10715   */\n      0x20\n        /* \"#utility.yul\":10704:10709   */\n      dup7\n        /* \"#utility.yul\":10700:10716   */\n      add\n        /* \"#utility.yul\":10665:10730   */\n      tag_211\n      jump\t// in\n    tag_369:\n        /* \"#utility.yul\":10755:10784   */\n      tag_370\n        /* \"#utility.yul\":10777:10783   */\n      dup2\n        /* \"#utility.yul\":10755:10784   */\n      tag_212\n      jump\t// in\n    tag_370:\n        /* \"#utility.yul\":10750:10753   */\n      dup5\n        /* \"#utility.yul\":10746:10785   */\n      add\n        /* \"#utility.yul\":10739:10785   */\n      swap2\n      pop\n        /* \"#utility.yul\":10516:10791   */\n      pop\n        /* \"#utility.yul\":10434:10791   */\n      swap3\n      swap2\n      pop\n      pop\n      jump\t// out\n        /* \"#utility.yul\":10797:10993   */\n    tag_229:\n        /* \"#utility.yul\":10886:10896   */\n      0x00\n        /* \"#utility.yul\":10921:10987   */\n      tag_372\n        /* \"#utility.yul\":10983:10986   */\n      dup4\n        /* \"#utility.yul\":10975:10981   */\n      dup4\n        /* \"#utility.yul\":10921:10987   */\n      tag_228\n      jump\t// in\n    tag_372:\n        /* \"#utility.yul\":10907:10987   */\n      swap1\n      pop\n        /* \"#utility.yul\":10797:10993   */\n      swap3\n      swap2\n      pop\n      pop\n      jump\t// out\n        /* \"#utility.yul\":10999:11122   */\n    tag_230:\n        /* \"#utility.yul\":11079:11083   */\n      0x00\n        /* \"#utility.yul\":11111:11115   */\n      0x20\n        /* \"#utility.yul\":11106:11109   */\n      dup3\n        /* \"#utility.yul\":11102:11116   */\n      add\n        /* \"#utility.yul\":11094:11116   */\n      swap1\n      pop\n        /* \"#utility.yul\":10999:11122   */\n      swap2\n      swap1\n      pop\n      jump\t// out\n        /* \"#utility.yul\":11156:12147   */\n    tag_231:\n        /* \"#utility.yul\":11295:11298   */\n      0x00\n        /* \"#utility.yul\":11324:11388   */\n      tag_375\n        /* \"#utility.yul\":11382:11387   */\n      dup3\n        /* \"#utility.yul\":11324:11388   */\n      tag_224\n      jump\t// in\n    tag_375:\n        /* \"#utility.yul\":11404:11500   */\n      tag_376\n        /* \"#utility.yul\":11493:11499   */\n      dup2\n        /* \"#utility.yul\":11488:11491   */\n      dup6\n        /* \"#utility.yul\":11404:11500   */\n      tag_225\n      jump\t// in\n    tag_376:\n        /* \"#utility.yul\":11397:11500   */\n      swap4\n      pop\n        /* \"#utility.yul\":11526:11529   */\n      dup4\n        /* \"#utility.yul\":11571:11575   */\n      0x20\n        /* \"#utility.yul\":11563:11569   */\n      dup3\n        /* \"#utility.yul\":11559:11576   */\n      mul\n        /* \"#utility.yul\":11554:11557   */\n      dup6\n        /* \"#utility.yul\":11550:11577   */\n      add\n        /* \"#utility.yul\":11601:11667   */\n      tag_377\n        /* \"#utility.yul\":11661:11666   */\n      dup6\n        /* \"#utility.yul\":11601:11667   */\n      tag_226\n      jump\t// in\n    tag_377:\n        /* \"#utility.yul\":11690:11697   */\n      dup1\n        /* \"#utility.yul\":11721:11722   */\n      0x00\n        /* \"#utility.yul\":11706:12102   */\n    tag_378:\n        /* \"#utility.yul\":11731:11737   */\n      dup6\n        /* \"#utility.yul\":11728:11729   */\n      dup2\n        /* \"#utility.yul\":11725:11738   */\n      lt\n        /* \"#utility.yul\":11706:12102   */\n      iszero\n      tag_380\n      jumpi\n        /* \"#utility.yul\":11802:11811   */\n      dup5\n        /* \"#utility.yul\":11796:11800   */\n      dup5\n        /* \"#utility.yul\":11792:11812   */\n      sub\n        /* \"#utility.yul\":11787:11790   */\n      dup10\n        /* \"#utility.yul\":11780:11813   */\n      mstore\n        /* \"#utility.yul\":11853:11859   */\n      dup2\n        /* \"#utility.yul\":11847:11860   */\n      mload\n        /* \"#utility.yul\":11881:11965   */\n      tag_381\n        /* \"#utility.yul\":11960:11964   */\n      dup6\n        /* \"#utility.yul\":11945:11958   */\n      dup3\n        /* \"#utility.yul\":11881:11965   */\n      tag_229\n      jump\t// in\n    tag_381:\n        /* \"#utility.yul\":11873:11965   */\n      swap5\n      pop\n        /* \"#utility.yul\":11988:12058   */\n      tag_382\n        /* \"#utility.yul\":12051:12057   */\n      dup4\n        /* \"#utility.yul\":11988:12058   */\n      tag_230\n      jump\t// in\n    tag_382:\n        /* \"#utility.yul\":11978:12058   */\n      swap3\n      pop\n        /* \"#utility.yul\":12087:12091   */\n      0x20\n        /* \"#utility.yul\":12082:12085   */\n      dup11\n        /* \"#utility.yul\":12078:12092   */\n      add\n        /* \"#utility.yul\":12071:12092   */\n      swap10\n      pop\n        /* \"#utility.yul\":11766:12102   */\n      pop\n        /* \"#utility.yul\":11753:11754   */\n      0x01\n        /* \"#utility.yul\":11750:11751   */\n      dup2\n        /* \"#utility.yul\":11746:11755   */\n      add\n        /* \"#utility.yul\":11741:11755   */\n      swap1\n      pop\n        /* \"#utility.yul\":11706:12102   */\n      jump(tag_378)\n    tag_380:\n        /* \"#utility.yul\":11710:11724   */\n      pop\n        /* \"#utility.yul\":12118:12122   */\n      dup3\n        /* \"#utility.yul\":12111:12122   */\n      swap8\n      pop\n        /* \"#utility.yul\":12138:12141   */\n      dup8\n        /* \"#utility.yul\":12131:12141   */\n      swap6\n      pop\n        /* \"#utility.yul\":11300:12147   */\n      pop\n      pop\n      pop\n      pop\n      pop\n        /* \"#utility.yul\":11156:12147   */\n      swap3\n      swap2\n      pop\n      pop\n      jump\t// out\n        /* \"#utility.yul\":12153:12267   */\n    tag_232:\n        /* \"#utility.yul\":12220:12226   */\n      0x00\n        /* \"#utility.yul\":12254:12259   */\n      dup2\n        /* \"#utility.yul\":12248:12260   */\n      mload\n        /* \"#utility.yul\":12238:12260   */\n      swap1\n      pop\n        /* \"#utility.yul\":12153:12267   */\n      swap2\n      swap1\n      pop\n      jump\t// out\n        /* \"#utility.yul\":12273:12457   */\n    tag_233:\n        /* \"#utility.yul\":12372:12383   */\n      0x00\n        /* \"#utility.yul\":12406:12412   */\n      dup3\n        /* \"#utility.yul\":12401:12404   */\n      dup3\n        /* \"#utility.yul\":12394:12413   */\n      mstore\n        /* \"#utility.yul\":12446:12450   */\n      0x20\n        /* \"#utility.yul\":12441:12444   */\n      dup3\n        /* \"#utility.yul\":12437:12451   */\n      add\n        /* \"#utility.yul\":12422:12451   */\n      swap1\n      pop\n        /* \"#utility.yul\":12273:12457   */\n      swap3\n      swap2\n      pop\n      pop\n      jump\t// out\n        /* \"#utility.yul\":12463:12595   */\n    tag_234:\n        /* \"#utility.yul\":12530:12534   */\n      0x00\n        /* \"#utility.yul\":12553:12556   */\n      dup2\n        /* \"#utility.yul\":12545:12556   */\n      swap1\n      pop\n        /* \"#utility.yul\":12583:12587   */\n      0x20\n        /* \"#utility.yul\":12578:12581   */\n      dup3\n        /* \"#utility.yul\":12574:12588   */\n      add\n        /* \"#utility.yul\":12566:12588   */\n      swap1\n      pop\n        /* \"#utility.yul\":12463:12595   */\n      swap2\n      swap1\n      pop\n      jump\t// out\n        /* \"#utility.yul\":12601:12709   */\n    tag_235:\n        /* \"#utility.yul\":12678:12702   */\n      tag_387\n        /* \"#utility.yul\":12696:12701   */\n      dup2\n        /* \"#utility.yul\":12678:12702   */\n      tag_207\n      jump\t// in\n    tag_387:\n        /* \"#utility.yul\":12673:12676   */\n      dup3\n        /* \"#utility.yul\":12666:12703   */\n      mstore\n        /* \"#utility.yul\":12601:12709   */\n      pop\n      pop\n      jump\t// out\n        /* \"#utility.yul\":12715:12894   */\n    tag_236:\n        /* \"#utility.yul\":12784:12794   */\n      0x00\n        /* \"#utility.yul\":12805:12851   */\n      tag_389\n        /* \"#utility.yul\":12847:12850   */\n      dup4\n        /* \"#utility.yul\":12839:12845   */\n      dup4\n        /* \"#utility.yul\":12805:12851   */\n      tag_235\n      jump\t// in\n    tag_389:\n        /* \"#utility.yul\":12883:12887   */\n      0x20\n        /* \"#utility.yul\":12878:12881   */\n      dup4\n        /* \"#utility.yul\":12874:12888   */\n      add\n        /* \"#utility.yul\":12860:12888   */\n      swap1\n      pop\n        /* \"#utility.yul\":12715:12894   */\n      swap3\n      swap2\n      pop\n      pop\n      jump\t// out\n        /* \"#utility.yul\":12900:13013   */\n    tag_237:\n        /* \"#utility.yul\":12970:12974   */\n      0x00\n        /* \"#utility.yul\":13002:13006   */\n      0x20\n        /* \"#utility.yul\":12997:13000   */\n      dup3\n        /* \"#utility.yul\":12993:13007   */\n      add\n        /* \"#utility.yul\":12985:13007   */\n      swap1\n      pop\n        /* \"#utility.yul\":12900:13013   */\n      swap2\n      swap1\n      pop\n      jump\t// out\n        /* \"#utility.yul\":13049:13781   */\n    tag_238:\n        /* \"#utility.yul\":13168:13171   */\n      0x00\n        /* \"#utility.yul\":13197:13251   */\n      tag_392\n        /* \"#utility.yul\":13245:13250   */\n      dup3\n        /* \"#utility.yul\":13197:13251   */\n      tag_232\n      jump\t// in\n    tag_392:\n        /* \"#utility.yul\":13267:13353   */\n      tag_393\n        /* \"#utility.yul\":13346:13352   */\n      dup2\n        /* \"#utility.yul\":13341:13344   */\n      dup6\n        /* \"#utility.yul\":13267:13353   */\n      tag_233\n      jump\t// in\n    tag_393:\n        /* \"#utility.yul\":13260:13353   */\n      swap4\n      pop\n        /* \"#utility.yul\":13377:13433   */\n      tag_394\n        /* \"#utility.yul\":13427:13432   */\n      dup4\n        /* \"#utility.yul\":13377:13433   */\n      tag_234\n      jump\t// in\n    tag_394:\n        /* \"#utility.yul\":13456:13463   */\n      dup1\n        /* \"#utility.yul\":13487:13488   */\n      0x00\n        /* \"#utility.yul\":13472:13756   */\n    tag_395:\n        /* \"#utility.yul\":13497:13503   */\n      dup4\n        /* \"#utility.yul\":13494:13495   */\n      dup2\n        /* \"#utility.yul\":13491:13504   */\n      lt\n        /* \"#utility.yul\":13472:13756   */\n      iszero\n      tag_397\n      jumpi\n        /* \"#utility.yul\":13573:13579   */\n      dup2\n        /* \"#utility.yul\":13567:13580   */\n      mload\n        /* \"#utility.yul\":13600:13663   */\n      tag_398\n        /* \"#utility.yul\":13659:13662   */\n      dup9\n        /* \"#utility.yul\":13644:13657   */\n      dup3\n        /* \"#utility.yul\":13600:13663   */\n      tag_236\n      jump\t// in\n    tag_398:\n        /* \"#utility.yul\":13593:13663   */\n      swap8\n      pop\n        /* \"#utility.yul\":13686:13746   */\n      tag_399\n        /* \"#utility.yul\":13739:13745   */\n      dup4\n        /* \"#utility.yul\":13686:13746   */\n      tag_237\n      jump\t// in\n    tag_399:\n        /* \"#utility.yul\":13676:13746   */\n      swap3\n      pop\n        /* \"#utility.yul\":13532:13756   */\n      pop\n        /* \"#utility.yul\":13519:13520   */\n      0x01\n        /* \"#utility.yul\":13516:13517   */\n      dup2\n        /* \"#utility.yul\":13512:13521   */\n      add\n        /* \"#utility.yul\":13507:13521   */\n      swap1\n      pop\n        /* \"#utility.yul\":13472:13756   */\n      jump(tag_395)\n    tag_397:\n        /* \"#utility.yul\":13476:13490   */\n      pop\n        /* \"#utility.yul\":13772:13775   */\n      dup6\n        /* \"#utility.yul\":13765:13775   */\n      swap4\n      pop\n        /* \"#utility.yul\":13173:13781   */\n      pop\n      pop\n      pop\n        /* \"#utility.yul\":13049:13781   */\n      swap3\n      swap2\n      pop\n      pop\n      jump\t// out\n        /* \"#utility.yul\":13787:14884   */\n    tag_64:\n        /* \"#utility.yul\":14132:14136   */\n      0x00\n        /* \"#utility.yul\":14170:14173   */\n      0xa0\n        /* \"#utility.yul\":14159:14168   */\n      dup3\n        /* \"#utility.yul\":14155:14174   */\n      add\n        /* \"#utility.yul\":14147:14174   */\n      swap1\n      pop\n        /* \"#utility.yul\":14184:14255   */\n      tag_401\n        /* \"#utility.yul\":14252:14253   */\n      0x00\n        /* \"#utility.yul\":14241:14250   */\n      dup4\n        /* \"#utility.yul\":14237:14254   */\n      add\n        /* \"#utility.yul\":14228:14234   */\n      dup9\n        /* \"#utility.yul\":14184:14255   */\n      tag_208\n      jump\t// in\n    tag_401:\n        /* \"#utility.yul\":14302:14311   */\n      dup2\n        /* \"#utility.yul\":14296:14300   */\n      dup2\n        /* \"#utility.yul\":14292:14312   */\n      sub\n        /* \"#utility.yul\":14287:14289   */\n      0x20\n        /* \"#utility.yul\":14276:14285   */\n      dup4\n        /* \"#utility.yul\":14272:14290   */\n      add\n        /* \"#utility.yul\":14265:14313   */\n      mstore\n        /* \"#utility.yul\":14330:14408   */\n      tag_402\n        /* \"#utility.yul\":14403:14407   */\n      dup2\n        /* \"#utility.yul\":14394:14400   */\n      dup8\n        /* \"#utility.yul\":14330:14408   */\n      tag_213\n      jump\t// in\n    tag_402:\n        /* \"#utility.yul\":14322:14408   */\n      swap1\n      pop\n        /* \"#utility.yul\":14418:14490   */\n      tag_403\n        /* \"#utility.yul\":14486:14488   */\n      0x40\n        /* \"#utility.yul\":14475:14484   */\n      dup4\n        /* \"#utility.yul\":14471:14489   */\n      add\n        /* \"#utility.yul\":14462:14468   */\n      dup7\n        /* \"#utility.yul\":14418:14490   */\n      tag_208\n      jump\t// in\n    tag_403:\n        /* \"#utility.yul\":14537:14546   */\n      dup2\n        /* \"#utility.yul\":14531:14535   */\n      dup2\n        /* \"#utility.yul\":14527:14547   */\n      sub\n        /* \"#utility.yul\":14522:14524   */\n      0x60\n        /* \"#utility.yul\":14511:14520   */\n      dup4\n        /* \"#utility.yul\":14507:14525   */\n      add\n        /* \"#utility.yul\":14500:14548   */\n      mstore\n        /* \"#utility.yul\":14565:14693   */\n      tag_404\n        /* \"#utility.yul\":14688:14692   */\n      dup2\n        /* \"#utility.yul\":14679:14685   */\n      dup6\n        /* \"#utility.yul\":14565:14693   */\n      tag_231\n      jump\t// in\n    tag_404:\n        /* \"#utility.yul\":14557:14693   */\n      swap1\n      pop\n        /* \"#utility.yul\":14741:14750   */\n      dup2\n        /* \"#utility.yul\":14735:14739   */\n      dup2\n        /* \"#utility.yul\":14731:14751   */\n      sub\n        /* \"#utility.yul\":14725:14728   */\n      0x80\n        /* \"#utility.yul\":14714:14723   */\n      dup4\n        /* \"#utility.yul\":14710:14729   */\n      add\n        /* \"#utility.yul\":14703:14752   */\n      mstore\n        /* \"#utility.yul\":14769:14877   */\n      tag_405\n        /* \"#utility.yul\":14872:14876   */\n      dup2\n        /* \"#utility.yul\":14863:14869   */\n      dup5\n        /* \"#utility.yul\":14769:14877   */\n      tag_238\n      jump\t// in\n    tag_405:\n        /* \"#utility.yul\":14761:14877   */\n      swap1\n      pop\n        /* \"#utility.yul\":13787:14884   */\n      swap7\n      swap6\n      pop\n      pop\n      pop\n      pop\n      pop\n      pop\n      jump\t// out\n        /* \"#utility.yul\":14890:15219   */\n    tag_71:\n        /* \"#utility.yul\":14949:14955   */\n      0x00\n        /* \"#utility.yul\":14998:15000   */\n      0x20\n        /* \"#utility.yul\":14986:14995   */\n      dup3\n        /* \"#utility.yul\":14977:14984   */\n      dup5\n        /* \"#utility.yul\":14973:14996   */\n      sub\n        /* \"#utility.yul\":14969:15001   */\n      slt\n        /* \"#utility.yul\":14966:15085   */\n      iszero\n      tag_407\n      jumpi\n        /* \"#utility.yul\":15004:15083   */\n      tag_408\n      tag_201\n      jump\t// in\n    tag_408:\n        /* \"#utility.yul\":14966:15085   */\n    tag_407:\n        /* \"#utility.yul\":15124:15125   */\n      0x00\n        /* \"#utility.yul\":15149:15202   */\n      tag_409\n        /* \"#utility.yul\":15194:15201   */\n      dup5\n        /* \"#utility.yul\":15185:15191   */\n      dup3\n        /* \"#utility.yul\":15174:15183   */\n      dup6\n        /* \"#utility.yul\":15170:15192   */\n      add\n        /* \"#utility.yul\":15149:15202   */\n      tag_223\n      jump\t// in\n    tag_409:\n        /* \"#utility.yul\":15139:15202   */\n      swap2\n      pop\n        /* \"#utility.yul\":15095:15212   */\n      pop\n        /* \"#utility.yul\":14890:15219   */\n      swap3\n      swap2\n      pop\n      pop\n      jump\t// out\n        /* \"#utility.yul\":15225:15980   */\n    tag_74:\n        /* \"#utility.yul\":15450:15454   */\n      0x00\n        /* \"#utility.yul\":15488:15491   */\n      0xa0\n        /* \"#utility.yul\":15477:15486   */\n      dup3\n        /* \"#utility.yul\":15473:15492   */\n      add\n        /* \"#utility.yul\":15465:15492   */\n      swap1\n      pop\n        /* \"#utility.yul\":15502:15573   */\n      tag_411\n        /* \"#utility.yul\":15570:15571   */\n      0x00\n        /* \"#utility.yul\":15559:15568   */\n      dup4\n        /* \"#utility.yul\":15555:15572   */\n      add\n        /* \"#utility.yul\":15546:15552   */\n      dup9\n        /* \"#utility.yul\":15502:15573   */\n      tag_208\n      jump\t// in\n    tag_411:\n        /* \"#utility.yul\":15620:15629   */\n      dup2\n        /* \"#utility.yul\":15614:15618   */\n      dup2\n        /* \"#utility.yul\":15610:15630   */\n      sub\n        /* \"#utility.yul\":15605:15607   */\n      0x20\n        /* \"#utility.yul\":15594:15603   */\n      dup4\n        /* \"#utility.yul\":15590:15608   */\n      add\n        /* \"#utility.yul\":15583:15631   */\n      mstore\n        /* \"#utility.yul\":15648:15726   */\n      tag_412\n        /* \"#utility.yul\":15721:15725   */\n      dup2\n        /* \"#utility.yul\":15712:15718   */\n      dup8\n        /* \"#utility.yul\":15648:15726   */\n      tag_213\n      jump\t// in\n    tag_412:\n        /* \"#utility.yul\":15640:15726   */\n      swap1\n      pop\n        /* \"#utility.yul\":15736:15808   */\n      tag_413\n        /* \"#utility.yul\":15804:15806   */\n      0x40\n        /* \"#utility.yul\":15793:15802   */\n      dup4\n        /* \"#utility.yul\":15789:15807   */\n      add\n        /* \"#utility.yul\":15780:15786   */\n      dup7\n        /* \"#utility.yul\":15736:15808   */\n      tag_208\n      jump\t// in\n    tag_413:\n        /* \"#utility.yul\":15818:15890   */\n      tag_414\n        /* \"#utility.yul\":15886:15888   */\n      0x60\n        /* \"#utility.yul\":15875:15884   */\n      dup4\n        /* \"#utility.yul\":15871:15889   */\n      add\n        /* \"#utility.yul\":15862:15868   */\n      dup6\n        /* \"#utility.yul\":15818:15890   */\n      tag_208\n      jump\t// in\n    tag_414:\n        /* \"#utility.yul\":15900:15973   */\n      tag_415\n        /* \"#utility.yul\":15968:15971   */\n      0x80\n        /* \"#utility.yul\":15957:15966   */\n      dup4\n        /* \"#utility.yul\":15953:15972   */\n      add\n        /* \"#utility.yul\":15944:15950   */\n      dup5\n        /* \"#utility.yul\":15900:15973   */\n      tag_208\n      jump\t// in\n    tag_415:\n        /* \"#utility.yul\":15225:15980   */\n      swap7\n      swap6\n      pop\n      pop\n      pop\n      pop\n      pop\n      pop\n      jump\t// out\n        /* \"#utility.yul\":15986:16630   */\n    tag_79:\n        /* \"#utility.yul\":16183:16187   */\n      0x00\n        /* \"#utility.yul\":16221:16224   */\n      0x80\n        /* \"#utility.yul\":16210:16219   */\n      dup3\n        /* \"#utility.yul\":16206:16225   */\n      add\n        /* \"#utility.yul\":16198:16225   */\n      swap1\n      pop\n        /* \"#utility.yul\":16271:16280   */\n      dup2\n        /* \"#utility.yul\":16265:16269   */\n      dup2\n        /* \"#utility.yul\":16261:16281   */\n      sub\n        /* \"#utility.yul\":16257:16258   */\n      0x00\n        /* \"#utility.yul\":16246:16255   */\n      dup4\n        /* \"#utility.yul\":16242:16259   */\n      add\n        /* \"#utility.yul\":16235:16282   */\n      mstore\n        /* \"#utility.yul\":16299:16377   */\n      tag_417\n        /* \"#utility.yul\":16372:16376   */\n      dup2\n        /* \"#utility.yul\":16363:16369   */\n      dup8\n        /* \"#utility.yul\":16299:16377   */\n      tag_213\n      jump\t// in\n    tag_417:\n        /* \"#utility.yul\":16291:16377   */\n      swap1\n      pop\n        /* \"#utility.yul\":16387:16459   */\n      tag_418\n        /* \"#utility.yul\":16455:16457   */\n      0x20\n        /* \"#utility.yul\":16444:16453   */\n      dup4\n        /* \"#utility.yul\":16440:16458   */\n      add\n        /* \"#utility.yul\":16431:16437   */\n      dup7\n        /* \"#utility.yul\":16387:16459   */\n      tag_208\n      jump\t// in\n    tag_418:\n        /* \"#utility.yul\":16469:16541   */\n      tag_419\n        /* \"#utility.yul\":16537:16539   */\n      0x40\n        /* \"#utility.yul\":16526:16535   */\n      dup4\n        /* \"#utility.yul\":16522:16540   */\n      add\n        /* \"#utility.yul\":16513:16519   */\n      dup6\n        /* \"#utility.yul\":16469:16541   */\n      tag_208\n      jump\t// in\n    tag_419:\n        /* \"#utility.yul\":16551:16623   */\n      tag_420\n        /* \"#utility.yul\":16619:16621   */\n      0x60\n        /* \"#utility.yul\":16608:16617   */\n      dup4\n        /* \"#utility.yul\":16604:16622   */\n      add\n        /* \"#utility.yul\":16595:16601   */\n      dup5\n        /* \"#utility.yul\":16551:16623   */\n      tag_208\n      jump\t// in\n    tag_420:\n        /* \"#utility.yul\":15986:16630   */\n      swap6\n      swap5\n      pop\n      pop\n      pop\n      pop\n      pop\n      jump\t// out\n        /* \"#utility.yul\":16636:17145   */\n    tag_82:\n        /* \"#utility.yul\":16705:16711   */\n      0x00\n        /* \"#utility.yul\":16754:16756   */\n      0x20\n        /* \"#utility.yul\":16742:16751   */\n      dup3\n        /* \"#utility.yul\":16733:16740   */\n      dup5\n        /* \"#utility.yul\":16729:16752   */\n      sub\n        /* \"#utility.yul\":16725:16757   */\n      slt\n        /* \"#utility.yul\":16722:16841   */\n      iszero\n      tag_422\n      jumpi\n        /* \"#utility.yul\":16760:16839   */\n      tag_423\n      tag_201\n      jump\t// in\n    tag_423:\n        /* \"#utility.yul\":16722:16841   */\n    tag_422:\n        /* \"#utility.yul\":16908:16909   */\n      0x00\n        /* \"#utility.yul\":16897:16906   */\n      dup3\n        /* \"#utility.yul\":16893:16910   */\n      add\n        /* \"#utility.yul\":16880:16911   */\n      calldataload\n        /* \"#utility.yul\":16938:16956   */\n      0xffffffffffffffff\n        /* \"#utility.yul\":16930:16936   */\n      dup2\n        /* \"#utility.yul\":16927:16957   */\n      gt\n        /* \"#utility.yul\":16924:17041   */\n      iszero\n      tag_424\n      jumpi\n        /* \"#utility.yul\":16960:17039   */\n      tag_425\n      tag_202\n      jump\t// in\n    tag_425:\n        /* \"#utility.yul\":16924:17041   */\n    tag_424:\n        /* \"#utility.yul\":17065:17128   */\n      tag_426\n        /* \"#utility.yul\":17120:17127   */\n      dup5\n        /* \"#utility.yul\":17111:17117   */\n      dup3\n        /* \"#utility.yul\":17100:17109   */\n      dup6\n        /* \"#utility.yul\":17096:17118   */\n      add\n        /* \"#utility.yul\":17065:17128   */\n      tag_221\n      jump\t// in\n    tag_426:\n        /* \"#utility.yul\":17055:17128   */\n      swap2\n      pop\n        /* \"#utility.yul\":16851:17138   */\n      pop\n        /* \"#utility.yul\":16636:17145   */\n      swap3\n      swap2\n      pop\n      pop\n      jump\t// out\n        /* \"#utility.yul\":17151:17625   */\n    tag_86:\n        /* \"#utility.yul\":17219:17225   */\n      0x00\n        /* \"#utility.yul\":17227:17233   */\n      dup1\n        /* \"#utility.yul\":17276:17278   */\n      0x40\n        /* \"#utility.yul\":17264:17273   */\n      dup4\n        /* \"#utility.yul\":17255:17262   */\n      dup6\n        /* \"#utility.yul\":17251:17274   */\n      sub\n        /* \"#utility.yul\":17247:17279   */\n      slt\n        /* \"#utility.yul\":17244:17363   */\n      iszero\n      tag_428\n      jumpi\n        /* \"#utility.yul\":17282:17361   */\n      tag_429\n      tag_201\n      jump\t// in\n    tag_429:\n        /* \"#utility.yul\":17244:17363   */\n    tag_428:\n        /* \"#utility.yul\":17402:17403   */\n      0x00\n        /* \"#utility.yul\":17427:17480   */\n      tag_430\n        /* \"#utility.yul\":17472:17479   */\n      dup6\n        /* \"#utility.yul\":17463:17469   */\n      dup3\n        /* \"#utility.yul\":17452:17461   */\n      dup7\n        /* \"#utility.yul\":17448:17470   */\n      add\n        /* \"#utility.yul\":17427:17480   */\n      tag_223\n      jump\t// in\n    tag_430:\n        /* \"#utility.yul\":17417:17480   */\n      swap3\n      pop\n        /* \"#utility.yul\":17373:17490   */\n      pop\n        /* \"#utility.yul\":17529:17531   */\n      0x20\n        /* \"#utility.yul\":17555:17608   */\n      tag_431\n        /* \"#utility.yul\":17600:17607   */\n      dup6\n        /* \"#utility.yul\":17591:17597   */\n      dup3\n        /* \"#utility.yul\":17580:17589   */\n      dup7\n        /* \"#utility.yul\":17576:17598   */\n      add\n        /* \"#utility.yul\":17555:17608   */\n      tag_206\n      jump\t// in\n    tag_431:\n        /* \"#utility.yul\":17545:17608   */\n      swap2\n      pop\n        /* \"#utility.yul\":17500:17618   */\n      pop\n        /* \"#utility.yul\":17151:17625   */\n      swap3\n      pop\n      swap3\n      swap1\n      pop\n      jump\t// out\n        /* \"#utility.yul\":17631:17811   */\n    tag_239:\n        /* \"#utility.yul\":17679:17756   */\n      0x4e487b7100000000000000000000000000000000000000000000000000000000\n        /* \"#utility.yul\":17676:17677   */\n      0x00\n        /* \"#utility.yul\":17669:17757   */\n      mstore\n        /* \"#utility.yul\":17776:17780   */\n      0x22\n        /* \"#utility.yul\":17773:17774   */\n      0x04\n        /* \"#utility.yul\":17766:17781   */\n      mstore\n        /* \"#utility.yul\":17800:17804   */\n      0x24\n        /* \"#utility.yul\":17797:17798   */\n      0x00\n        /* \"#utility.yul\":17790:17805   */\n      revert\n        /* \"#utility.yul\":17817:18137   */\n    tag_92:\n        /* \"#utility.yul\":17861:17867   */\n      0x00\n        /* \"#utility.yul\":17898:17899   */\n      0x02\n        /* \"#utility.yul\":17892:17896   */\n      dup3\n        /* \"#utility.yul\":17888:17900   */\n      div\n        /* \"#utility.yul\":17878:17900   */\n      swap1\n      pop\n        /* \"#utility.yul\":17945:17946   */\n      0x01\n        /* \"#utility.yul\":17939:17943   */\n      dup3\n        /* \"#utility.yul\":17935:17947   */\n      and\n        /* \"#utility.yul\":17966:17984   */\n      dup1\n        /* \"#utility.yul\":17956:18037   */\n      tag_434\n      jumpi\n        /* \"#utility.yul\":18022:18026   */\n      0x7f\n        /* \"#utility.yul\":18014:18020   */\n      dup3\n        /* \"#utility.yul\":18010:18027   */\n      and\n        /* \"#utility.yul\":18000:18027   */\n      swap2\n      pop\n        /* \"#utility.yul\":17956:18037   */\n    tag_434:\n        /* \"#utility.yul\":18084:18086   */\n      0x20\n        /* \"#utility.yul\":18076:18082   */\n      dup3\n        /* \"#utility.yul\":18073:18087   */\n      lt\n        /* \"#utility.yul\":18053:18071   */\n      dup2\n        /* \"#utility.yul\":18050:18088   */\n      sub\n        /* \"#utility.yul\":18047:18131   */\n      tag_435\n      jumpi\n        /* \"#utility.yul\":18103:18121   */\n      tag_436\n      tag_239\n      jump\t// in\n    tag_436:\n        /* \"#utility.yul\":18047:18131   */\n    tag_435:\n        /* \"#utility.yul\":17868:18137   */\n      pop\n        /* \"#utility.yul\":17817:18137   */\n      swap2\n      swap1\n      pop\n      jump\t// out\n        /* \"#utility.yul\":18143:18284   */\n    tag_240:\n        /* \"#utility.yul\":18192:18196   */\n      0x00\n        /* \"#utility.yul\":18215:18218   */\n      dup2\n        /* \"#utility.yul\":18207:18218   */\n      swap1\n      pop\n        /* \"#utility.yul\":18238:18241   */\n      dup2\n        /* \"#utility.yul\":18235:18236   */\n      0x00\n        /* \"#utility.yul\":18228:18242   */\n      mstore\n        /* \"#utility.yul\":18272:18276   */\n      0x20\n        /* \"#utility.yul\":18269:18270   */\n      0x00\n        /* \"#utility.yul\":18259:18277   */\n      keccak256\n        /* \"#utility.yul\":18251:18277   */\n      swap1\n      pop\n        /* \"#utility.yul\":18143:18284   */\n      swap2\n      swap1\n      pop\n      jump\t// out\n        /* \"#utility.yul\":18290:18383   */\n    tag_241:\n        /* \"#utility.yul\":18327:18333   */\n      0x00\n        /* \"#utility.yul\":18374:18376   */\n      0x20\n        /* \"#utility.yul\":18369:18371   */\n      0x1f\n        /* \"#utility.yul\":18362:18367   */\n      dup4\n        /* \"#utility.yul\":18358:18372   */\n      add\n        /* \"#utility.yul\":18354:18377   */\n      div\n        /* \"#utility.yul\":18344:18377   */\n      swap1\n      pop\n        /* \"#utility.yul\":18290:18383   */\n      swap2\n      swap1\n      pop\n      jump\t// out\n        /* \"#utility.yul\":18389:18496   */\n    tag_242:\n        /* \"#utility.yul\":18433:18441   */\n      0x00\n        /* \"#utility.yul\":18483:18488   */\n      dup3\n        /* \"#utility.yul\":18477:18481   */\n      dup3\n        /* \"#utility.yul\":18473:18489   */\n      shl\n        /* \"#utility.yul\":18452:18489   */\n      swap1\n      pop\n        /* \"#utility.yul\":18389:18496   */\n      swap3\n      swap2\n      pop\n      pop\n      jump\t// out\n        /* \"#utility.yul\":18502:18895   */\n    tag_243:\n        /* \"#utility.yul\":18571:18577   */\n      0x00\n        /* \"#utility.yul\":18621:18622   */\n      0x08\n        /* \"#utility.yul\":18609:18619   */\n      dup4\n        /* \"#utility.yul\":18605:18623   */\n      mul\n        /* \"#utility.yul\":18644:18741   */\n      tag_441\n        /* \"#utility.yul\":18674:18740   */\n      0xffffffffffffffffffffffffffffffffffffffffffffffffffffffffffffffff\n        /* \"#utility.yul\":18663:18672   */\n      dup3\n        /* \"#utility.yul\":18644:18741   */\n      tag_242\n      jump\t// in\n    tag_441:\n        /* \"#utility.yul\":18762:18801   */\n      tag_442\n        /* \"#utility.yul\":18792:18800   */\n      dup7\n        /* \"#utility.yul\":18781:18790   */\n      dup4\n        /* \"#utility.yul\":18762:18801   */\n      tag_242\n      jump\t// in\n    tag_442:\n        /* \"#utility.yul\":18750:18801   */\n      swap6\n      pop\n        /* \"#utility.yul\":18834:18838   */\n      dup1\n        /* \"#utility.yul\":18830:18839   */\n      not\n        /* \"#utility.yul\":18823:18828   */\n      dup5\n        /* \"#utility.yul\":18819:18840   */\n      and\n        /* \"#utility.yul\":18810:18840   */\n      swap4\n      pop\n        /* \"#utility.yul\":18883:18887   */\n      dup1\n        /* \"#utility.yul\":18873:18881   */\n      dup7\n        /* \"#utility.yul\":18869:18888   */\n      and\n        /* \"#utility.yul\":18862:18867   */\n      dup5\n        /* \"#utility.yul\":18859:18889   */\n      or\n        /* \"#utility.yul\":18849:18889   */\n      swap3\n      pop\n        /* \"#utility.yul\":18578:18895   */\n      pop\n      pop\n        /* \"#utility.yul\":18502:18895   */\n      swap4\n      swap3\n      pop\n      pop\n      pop\n      jump\t// out\n        /* \"#utility.yul\":18901:18961   */\n    tag_244:\n        /* \"#utility.yul\":18929:18932   */\n      0x00\n        /* \"#utility.yul\":18950:18955   */\n      dup2\n        /* \"#utility.yul\":18943:18955   */\n      swap1\n      pop\n        /* \"#utility.yul\":18901:18961   */\n      swap2\n      swap1\n      pop\n      jump\t// out\n        /* \"#utility.yul\":18967:19109   */\n    tag_245:\n        /* \"#utility.yul\":19017:19026   */\n      0x00\n        /* \"#utility.yul\":19050:19103   */\n      tag_445\n        /* \"#utility.yul\":19068:19102   */\n      tag_446\n        /* \"#utility.yul\":19077:19101   */\n      tag_447\n        /* \"#utility.yul\":19095:19100   */\n      dup5\n        /* \"#utility.yul\":19077:19101   */\n      tag_207\n      jump\t// in\n    tag_447:\n        /* \"#utility.yul\":19068:19102   */\n      tag_244\n      jump\t// in\n    tag_446:\n        /* \"#utility.yul\":19050:19103   */\n      tag_207\n      jump\t// in\n    tag_445:\n        /* \"#utility.yul\":19037:19103   */\n      swap1\n      pop\n        /* \"#utility.yul\":18967:19109   */\n      swap2\n      swap1\n      pop\n      jump\t// out\n        /* \"#utility.yul\":19115:19190   */\n    tag_246:\n        /* \"#utility.yul\":19158:19161   */\n      0x00\n        /* \"#utility.yul\":19179:19184   */\n      dup2\n        /* \"#utility.yul\":19172:19184   */\n      swap1\n      pop\n        /* \"#utility.yul\":19115:19190   */\n      swap2\n      swap1\n      pop\n      jump\t// out\n        /* \"#utility.yul\":19196:19465   */\n    tag_247:\n        /* \"#utility.yul\":19306:19345   */\n      tag_450\n        /* \"#utility.yul\":19337:19344   */\n      dup4\n        /* \"#utility.yul\":19306:19345   */\n      tag_245\n      jump\t// in\n    tag_450:\n        /* \"#utility.yul\":19367:19458   */\n      tag_451\n        /* \"#utility.yul\":19416:19457   */\n      tag_452\n        /* \"#utility.yul\":19440:19456   */\n      dup3\n        /* \"#utility.yul\":19416:19457   */\n      tag_246\n      jump\t// in\n    tag_452:\n        /* \"#utility.yul\":19408:19414   */\n      dup5\n        /* \"#utility.yul\":19401:19405   */\n      dup5\n        /* \"#utility.yul\":19395:19406   */\n      sload\n        /* \"#utility.yul\":19367:19458   */\n      tag_243\n      jump\t// in\n    tag_451:\n        /* \"#utility.yul\":19361:19365   */\n      dup3\n        /* \"#utility.yul\":19354:19459   */\n      sstore\n        /* \"#utility.yul\":19272:19465   */\n      pop\n        /* \"#utility.yul\":19196:19465   */\n      pop\n      pop\n      pop\n      jump\t// out\n        /* \"#utility.yul\":19471:19544   */\n    tag_248:\n        /* \"#utility.yul\":19516:19519   */\n      0x00\n        /* \"#utility.yul\":19471:19544   */\n      swap1\n      jump\t// out\n        /* \"#utility.yul\":19550:19739   */\n    tag_249:\n        /* \"#utility.yul\":19627:19659   */\n      tag_455\n      tag_248\n      jump\t// in\n    tag_455:\n        /* \"#utility.yul\":19668:19733   */\n      tag_456\n        /* \"#utility.yul\":19726:19732   */\n      dup2\n        /* \"#utility.yul\":19718:19724   */\n      dup5\n        /* \"#utility.yul\":19712:19716   */\n      dup5\n        /* \"#utility.yul\":19668:19733   */\n      tag_247\n      jump\t// in\n    tag_456:\n        /* \"#utility.yul\":19603:19739   */\n      pop\n        /* \"#utility.yul\":19550:19739   */\n      pop\n      pop\n      jump\t// out\n        /* \"#utility.yul\":19745:19931   */\n    tag_250:\n        /* \"#utility.yul\":19805:19925   */\n    tag_458:\n        /* \"#utility.yul\":19822:19825   */\n      dup2\n        /* \"#utility.yul\":19815:19820   */\n      dup2\n        /* \"#utility.yul\":19812:19826   */\n      lt\n        /* \"#utility.yul\":19805:19925   */\n      iszero\n      tag_460\n      jumpi\n        /* \"#utility.yul\":19876:19915   */\n      tag_461\n        /* \"#utility.yul\":19913:19914   */\n      0x00\n        /* \"#utility.yul\":19906:19911   */\n      dup3\n        /* \"#utility.yul\":19876:19915   */\n      tag_249\n      jump\t// in\n    tag_461:\n        /* \"#utility.yul\":19849:19850   */\n      0x01\n        /* \"#utility.yul\":19842:19847   */\n      dup2\n        /* \"#utility.yul\":19838:19851   */\n      add\n        /* \"#utility.yul\":19829:19851   */\n      swap1\n      pop\n        /* \"#utility.yul\":19805:19925   */\n      jump(tag_458)\n    tag_460:\n        /* \"#utility.yul\":19745:19931   */\n      pop\n      pop\n      jump\t// out\n        /* \"#utility.yul\":19937:20480   */\n    tag_251:\n        /* \"#utility.yul\":20038:20040   */\n      0x1f\n        /* \"#utility.yul\":20033:20036   */\n      dup3\n        /* \"#utility.yul\":20030:20041   */\n      gt\n        /* \"#utility.yul\":20027:20473   */\n      iszero\n      tag_463\n      jumpi\n        /* \"#utility.yul\":20072:20110   */\n      tag_464\n        /* \"#utility.yul\":20104:20109   */\n      dup2\n        /* \"#utility.yul\":20072:20110   */\n      tag_240\n      jump\t// in\n    tag_464:\n        /* \"#utility.yul\":20156:20185   */\n      tag_465\n        /* \"#utility.yul\":20174:20184   */\n      dup5\n        /* \"#utility.yul\":20156:20185   */\n      tag_241\n      jump\t// in\n    tag_465:\n        /* \"#utility.yul\":20146:20154   */\n      dup2\n        /* \"#utility.yul\":20142:20186   */\n      add\n        /* \"#utility.yul\":20339:20341   */\n      0x20\n        /* \"#utility.yul\":20327:20337   */\n      dup6\n        /* \"#utility.yul\":20324:20342   */\n      lt\n        /* \"#utility.yul\":20321:20370   */\n      iszero\n      tag_466\n      jumpi\n        /* \"#utility.yul\":20360:20368   */\n      dup2\n        /* \"#utility.yul\":20345:20368   */\n      swap1\n      pop\n        /* \"#utility.yul\":20321:20370   */\n    tag_466:\n        /* \"#utility.yul\":20383:20463   */\n      tag_467\n        /* \"#utility.yul\":20439:20461   */\n      tag_468\n        /* \"#utility.yul\":20457:20460   */\n      dup6\n        /* \"#utility.yul\":20439:20461   */\n      tag_241\n      jump\t// in\n    tag_468:\n        /* \"#utility.yul\":20429:20437   */\n      dup4\n        /* \"#utility.yul\":20425:20462   */\n      add\n        /* \"#utility.yul\":20412:20423   */\n      dup3\n        /* \"#utility.yul\":20383:20463   */\n      tag_250\n      jump\t// in\n    tag_467:\n        /* \"#utility.yul\":20042:20473   */\n      pop\n      pop\n        /* \"#utility.yul\":20027:20473   */\n    tag_463:\n        /* \"#utility.yul\":19937:20480   */\n      pop\n      pop\n      pop\n      jump\t// out\n        /* \"#utility.yul\":20486:20603   */\n    tag_252:\n        /* \"#utility.yul\":20540:20548   */\n      0x00\n        /* \"#utility.yul\":20590:20595   */\n      dup3\n        /* \"#utility.yul\":20584:20588   */\n      dup3\n        /* \"#utility.yul\":20580:20596   */\n      shr\n        /* \"#utility.yul\":20559:20596   */\n      swap1\n      pop\n        /* \"#utility.yul\":20486:20603   */\n      swap3\n      swap2\n      pop\n      pop\n      jump\t// out\n        /* \"#utility.yul\":20609:20778   */\n    tag_253:\n        /* \"#utility.yul\":20653:20659   */\n      0x00\n        /* \"#utility.yul\":20686:20737   */\n      tag_471\n        /* \"#utility.yul\":20734:20735   */\n      0x00\n        /* \"#utility.yul\":20730:20736   */\n      not\n        /* \"#utility.yul\":20722:20727   */\n      dup5\n        /* \"#utility.yul\":20719:20720   */\n      0x08\n        /* \"#utility.yul\":20715:20728   */\n      mul\n        /* \"#utility.yul\":20686:20737   */\n      tag_252\n      jump\t// in\n    tag_471:\n        /* \"#utility.yul\":20682:20738   */\n      not\n        /* \"#utility.yul\":20767:20771   */\n      dup1\n        /* \"#utility.yul\":20761:20765   */\n      dup4\n        /* \"#utility.yul\":20757:20772   */\n      and\n        /* \"#utility.yul\":20747:20772   */\n      swap2\n      pop\n        /* \"#utility.yul\":20660:20778   */\n      pop\n        /* \"#utility.yul\":20609:20778   */\n      swap3\n      swap2\n      pop\n      pop\n      jump\t// out\n        /* \"#utility.yul\":20783:21078   */\n    tag_254:\n        /* \"#utility.yul\":20859:20863   */\n      0x00\n        /* \"#utility.yul\":21005:21034   */\n      tag_473\n        /* \"#utility.yul\":21030:21033   */\n      dup4\n        /* \"#utility.yul\":21024:21028   */\n      dup4\n        /* \"#utility.yul\":21005:21034   */\n      tag_253\n      jump\t// in\n    tag_473:\n        /* \"#utility.yul\":20997:21034   */\n      swap2\n      pop\n        /* \"#utility.yul\":21067:21070   */\n      dup3\n        /* \"#utility.yul\":21064:21065   */\n      0x02\n        /* \"#utility.yul\":21060:21071   */\n      mul\n        /* \"#utility.yul\":21054:21058   */\n      dup3\n        /* \"#utility.yul\":21051:21072   */\n      or\n        /* \"#utility.yul\":21043:21072   */\n      swap1\n      pop\n        /* \"#utility.yul\":20783:21078   */\n      swap3\n      swap2\n      pop\n      pop\n      jump\t// out\n        /* \"#utility.yul\":21083:22478   */\n    tag_104:\n        /* \"#utility.yul\":21200:21237   */\n      tag_475\n        /* \"#utility.yul\":21233:21236   */\n      dup3\n        /* \"#utility.yul\":21200:21237   */\n      tag_209\n      jump\t// in\n    tag_475:\n        /* \"#utility.yul\":21302:21320   */\n      0xffffffffffffffff\n        /* \"#utility.yul\":21294:21300   */\n      dup2\n        /* \"#utility.yul\":21291:21321   */\n      gt\n        /* \"#utility.yul\":21288:21344   */\n      iszero\n      tag_476\n      jumpi\n        /* \"#utility.yul\":21324:21342   */\n      tag_477\n      tag_100\n      jump\t// in\n    tag_477:\n        /* \"#utility.yul\":21288:21344   */\n    tag_476:\n        /* \"#utility.yul\":21368:21406   */\n      tag_478\n        /* \"#utility.yul\":21400:21404   */\n      dup3\n        /* \"#utility.yul\":21394:21405   */\n      sload\n        /* \"#utility.yul\":21368:21406   */\n      tag_92\n      jump\t// in\n    tag_478:\n        /* \"#utility.yul\":21453:21520   */\n      tag_479\n        /* \"#utility.yul\":21513:21519   */\n      dup3\n        /* \"#utility.yul\":21505:21511   */\n      dup3\n        /* \"#utility.yul\":21499:21503   */\n      dup6\n        /* \"#utility.yul\":21453:21520   */\n      tag_251\n      jump\t// in\n    tag_479:\n        /* \"#utility.yul\":21547:21548   */\n      0x00\n        /* \"#utility.yul\":21571:21575   */\n      0x20\n        /* \"#utility.yul\":21558:21575   */\n      swap1\n      pop\n        /* \"#utility.yul\":21603:21605   */\n      0x1f\n        /* \"#utility.yul\":21595:21601   */\n      dup4\n        /* \"#utility.yul\":21592:21606   */\n      gt\n        /* \"#utility.yul\":21620:21621   */\n      0x01\n        /* \"#utility.yul\":21615:22233   */\n      dup2\n      eq\n      tag_481\n      jumpi\n        /* \"#utility.yul\":22277:22278   */\n      0x00\n        /* \"#utility.yul\":22294:22300   */\n      dup5\n        /* \"#utility.yul\":22291:22368   */\n      iszero\n      tag_482\n      jumpi\n        /* \"#utility.yul\":22343:22352   */\n      dup3\n        /* \"#utility.yul\":22338:22341   */\n      dup8\n        /* \"#utility.yul\":22334:22353   */\n      add\n        /* \"#utility.yul\":22328:22354   */\n      mload\n        /* \"#utility.yul\":22319:22354   */\n      swap1\n      pop\n        /* \"#utility.yul\":22291:22368   */\n    tag_482:\n        /* \"#utility.yul\":22394:22461   */\n      tag_483\n        /* \"#utility.yul\":22454:22460   */\n      dup6\n        /* \"#utility.yul\":22447:22452   */\n      dup3\n        /* \"#utility.yul\":22394:22461   */\n      tag_254\n      jump\t// in\n    tag_483:\n        /* \"#utility.yul\":22388:22392   */\n      dup7\n        /* \"#utility.yul\":22381:22462   */\n      sstore\n        /* \"#utility.yul\":22250:22472   */\n      pop\n        /* \"#utility.yul\":21585:22472   */\n      jump(tag_480)\n        /* \"#utility.yul\":21615:22233   */\n    tag_481:\n        /* \"#utility.yul\":21667:21671   */\n      0x1f\n        /* \"#utility.yul\":21663:21672   */\n      not\n        /* \"#utility.yul\":21655:21661   */\n      dup5\n        /* \"#utility.yul\":21651:21673   */\n      and\n        /* \"#utility.yul\":21701:21738   */\n      tag_484\n        /* \"#utility.yul\":21733:21737   */\n      dup7\n        /* \"#utility.yul\":21701:21738   */\n      tag_240\n      jump\t// in\n    tag_484:\n        /* \"#utility.yul\":21760:21761   */\n      0x00\n        /* \"#utility.yul\":21774:21982   */\n    tag_485:\n        /* \"#utility.yul\":21788:21795   */\n      dup3\n        /* \"#utility.yul\":21785:21786   */\n      dup2\n        /* \"#utility.yul\":21782:21796   */\n      lt\n        /* \"#utility.yul\":21774:21982   */\n      iszero\n      tag_487\n      jumpi\n        /* \"#utility.yul\":21867:21876   */\n      dup5\n        /* \"#utility.yul\":21862:21865   */\n      dup10\n        /* \"#utility.yul\":21858:21877   */\n      add\n        /* \"#utility.yul\":21852:21878   */\n      mload\n        /* \"#utility.yul\":21844:21850   */\n      dup3\n        /* \"#utility.yul\":21837:21879   */\n      sstore\n        /* \"#utility.yul\":21918:21919   */\n      0x01\n        /* \"#utility.yul\":21910:21916   */\n      dup3\n        /* \"#utility.yul\":21906:21920   */\n      add\n        /* \"#utility.yul\":21896:21920   */\n      swap2\n      pop\n        /* \"#utility.yul\":21965:21967   */\n      0x20\n        /* \"#utility.yul\":21954:21963   */\n      dup6\n        /* \"#utility.yul\":21950:21968   */\n      add\n        /* \"#utility.yul\":21937:21968   */\n      swap5\n      pop\n        /* \"#utility.yul\":21811:21815   */\n      0x20\n        /* \"#utility.yul\":21808:21809   */\n      dup2\n        /* \"#utility.yul\":21804:21816   */\n      add\n        /* \"#utility.yul\":21799:21816   */\n      swap1\n      pop\n        /* \"#utility.yul\":21774:21982   */\n      jump(tag_485)\n    tag_487:\n        /* \"#utility.yul\":22010:22016   */\n      dup7\n        /* \"#utility.yul\":22001:22008   */\n      dup4\n        /* \"#utility.yul\":21998:22017   */\n      lt\n        /* \"#utility.yul\":21995:22174   */\n      iszero\n      tag_488\n      jumpi\n        /* \"#utility.yul\":22068:22077   */\n      dup5\n        /* \"#utility.yul\":22063:22066   */\n      dup10\n        /* \"#utility.yul\":22059:22078   */\n      add\n        /* \"#utility.yul\":22053:22079   */\n      mload\n        /* \"#utility.yul\":22111:22159   */\n      tag_489\n        /* \"#utility.yul\":22153:22157   */\n      0x1f\n        /* \"#utility.yul\":22145:22151   */\n      dup10\n        /* \"#utility.yul\":22141:22158   */\n      and\n        /* \"#utility.yul\":22130:22139   */\n      dup3\n        /* \"#utility.yul\":22111:22159   */\n      tag_253\n      jump\t// in\n    tag_489:\n        /* \"#utility.yul\":22103:22109   */\n      dup4\n        /* \"#utility.yul\":22096:22160   */\n      sstore\n        /* \"#utility.yul\":22018:22174   */\n      pop\n        /* \"#utility.yul\":21995:22174   */\n    tag_488:\n        /* \"#utility.yul\":22220:22221   */\n      0x01\n        /* \"#utility.yul\":22216:22217   */\n      0x02\n        /* \"#utility.yul\":22208:22214   */\n      dup9\n        /* \"#utility.yul\":22204:22218   */\n      mul\n        /* \"#utility.yul\":22200:22222   */\n      add\n        /* \"#utility.yul\":22194:22198   */\n      dup9\n        /* \"#utility.yul\":22187:22223   */\n      sstore\n        /* \"#utility.yul\":21622:22233   */\n      pop\n      pop\n      pop\n        /* \"#utility.yul\":21585:22472   */\n    tag_480:\n      pop\n        /* \"#utility.yul\":21175:22478   */\n      pop\n      pop\n      pop\n        /* \"#utility.yul\":21083:22478   */\n      pop\n      pop\n      jump\t// out\n        /* \"#utility.yul\":22484:22664   */\n    tag_255:\n        /* \"#utility.yul\":22532:22609   */\n      0x4e487b7100000000000000000000000000000000000000000000000000000000\n        /* \"#utility.yul\":22529:22530   */\n      0x00\n        /* \"#utility.yul\":22522:22610   */\n      mstore\n        /* \"#utility.yul\":22629:22633   */\n      0x11\n        /* \"#utility.yul\":22626:22627   */\n      0x04\n        /* \"#utility.yul\":22619:22634   */\n      mstore\n        /* \"#utility.yul\":22653:22657   */\n      0x24\n        /* \"#utility.yul\":22650:22651   */\n      0x00\n        /* \"#utility.yul\":22643:22658   */\n      revert\n        /* \"#utility.yul\":22670:22903   */\n    tag_108:\n        /* \"#utility.yul\":22709:22712   */\n      0x00\n        /* \"#utility.yul\":22732:22756   */\n      tag_492\n        /* \"#utility.yul\":22750:22755   */\n      dup3\n        /* \"#utility.yul\":22732:22756   */\n      tag_207\n      jump\t// in\n    tag_492:\n        /* \"#utility.yul\":22723:22756   */\n      swap2\n      pop\n        /* \"#utility.yul\":22778:22844   */\n      0xffffffffffffffffffffffffffffffffffffffffffffffffffffffffffffffff\n        /* \"#utility.yul\":22771:22776   */\n      dup3\n        /* \"#utility.yul\":22768:22845   */\n      sub\n        /* \"#utility.yul\":22765:22868   */\n      tag_493\n      jumpi\n        /* \"#utility.yul\":22848:22866   */\n      tag_494\n      tag_255\n      jump\t// in\n    tag_494:\n        /* \"#utility.yul\":22765:22868   */\n    tag_493:\n        /* \"#utility.yul\":22895:22896   */\n      0x01\n        /* \"#utility.yul\":22888:22893   */\n      dup3\n        /* \"#utility.yul\":22884:22897   */\n      add\n        /* \"#utility.yul\":22877:22897   */\n      swap1\n      pop\n        /* \"#utility.yul\":22670:22903   */\n      swap2\n      swap1\n      pop\n      jump\t// out\n\n    auxdata: 0xa2646970667358221220b7a3b22ddf7961b11a7a4576233297a5df3ac9630f4489bbba111f590db997a864736f6c63430008120033\n}\n",
				"bytecode": {
					"linkReferences": {},
					"object": "608060405234801561001057600080fd5b50611e0b806100206000396000f3fe608060405234801561001057600080fd5b50600436106101005760003560e01c8063a9583c2211610097578063cc7fa22011610066578063cc7fa220146102e3578063d47c029c14610316578063dcd0c2b214610332578063e98ee2f01461034e57610100565b8063a9583c2214610215578063bd8247bf14610248578063c140261c1461027c578063c85e766d146102af57610100565b806362ed105e116100d357806362ed105e1461018d57806377b4fb94146101a957806378522bc4146101d9578063a0303c41146101f757610100565b80630869cfbc146101055780632de304ed146101375780634dafd4901461015357806350c7a91214610171575b600080fd5b61011f600480360381019061011a919061122e565b61036a565b60405161012e93929190611304565b60405180910390f35b610151600480360381019061014c91906114a3565b61041c565b005b61015b610532565b60405161016891906114ff565b60405180910390f35b61018b6004803603810190610186919061151a565b610538565b005b6101a760048036038101906101a291906115c1565b610605565b005b6101c360048036038101906101be9190611658565b61069f565b6040516101d091906114ff565b60405180910390f35b6101e16106d0565b6040516101ee91906114ff565b60405180910390f35b6101ff6106d6565b60405161020c91906114ff565b60405180910390f35b61022f600480360381019061022a919061122e565b6106dc565b60405161023f9493929190611698565b60405180910390f35b610262600480360381019061025d919061122e565b6108a4565b6040516102739594939291906118bc565b60405180910390f35b6102966004803603810190610291919061122e565b610bba565b6040516102a69493929190611698565b60405180910390f35b6102c960048036038101906102c49190611924565b610df2565b6040516102da959493929190611951565b60405180910390f35b6102fd60048036038101906102f89190611924565b610eb0565b60405161030d94939291906119ab565b60405180910390f35b610330600480360381019061032b91906119f7565b610fb6565b005b61034c60048036038101906103479190611a40565b61102e565b005b61036860048036038101906103639190611924565b611098565b005b600160205280600052604060002060009150905080600001549080600101805461039390611aaf565b80601f01602080910402602001604051908101604052809291908181526020018280546103bf90611aaf565b801561040c5780601f106103e15761010080835404028352916020019161040c565b820191906000526020600020905b8154815290600101906020018083116103ef57829003601f168201915b5050505050908060020154905083565b60405180608001604052806005548152602001838152602001828152602001600067ffffffffffffffff8111156104565761045561134c565b5b60405190808252806020026020018201604052801561048957816020015b60608152602001906001900390816104745790505b50815250600160003373ffffffffffffffffffffffffffffffffffffffff1673ffffffffffffffffffffffffffffffffffffffff1681526020019081526020016000206000820151816000015560208201518160010190816104eb9190611c8c565b506040820151816002015560608201518160030190805190602001906105129291906110e2565b509050506005600081548092919061052990611d8d565b91905055505050565b60065481565b60405180608001604052806004548152602001848152602001838152602001828152506000803373ffffffffffffffffffffffffffffffffffffffff1673ffffffffffffffffffffffffffffffffffffffff1681526020019081526020016000206000820151816000015560208201518160010190816105b89190611c8c565b5060408201518160020190816105ce9190611c8c565b5060608201518160030190816105e49190611c8c565b50905050600460008154809291906105fb90611d8d565b9190505550505050565b6040518060a00160405280868152602001858152602001848152602001838152602001828152506002600087815260200190815260200160002060008201518160000155602082015181600101908161065e9190611c8c565b506040820151816002015560608201518160030155608082015181600401559050506006600081548092919061069390611d8d565b91905055505050505050565b600360205281600052604060002081815481106106bb57600080fd5b90600052602060002001600091509150505481565b60045481565b60055481565b600060205280600052604060002060009150905080600001549080600101805461070590611aaf565b80601f016020809104026020016040519081016040528092919081815260200182805461073190611aaf565b801561077e5780601f106107535761010080835404028352916020019161077e565b820191906000526020600020905b81548152906001019060200180831161076157829003601f168201915b50505050509080600201805461079390611aaf565b80601f01602080910402602001604051908101604052809291908181526020018280546107bf90611aaf565b801561080c5780601f106107e15761010080835404028352916020019161080c565b820191906000526020600020905b8154815290600101906020018083116107ef57829003601f168201915b50505050509080600301805461082190611aaf565b80601f016020809104026020016040519081016040528092919081815260200182805461084d90611aaf565b801561089a5780601f1061086f5761010080835404028352916020019161089a565b820191906000526020600020905b81548152906001019060200180831161087d57829003601f168201915b5050505050905084565b600060606000606080600160008773ffffffffffffffffffffffffffffffffffffffff1673ffffffffffffffffffffffffffffffffffffffff16815260200190815260200160002060000154600160008873ffffffffffffffffffffffffffffffffffffffff1673ffffffffffffffffffffffffffffffffffffffff168152602001908152602001600020600101600160008973ffffffffffffffffffffffffffffffffffffffff1673ffffffffffffffffffffffffffffffffffffffff16815260200190815260200160002060020154600160008a73ffffffffffffffffffffffffffffffffffffffff1673ffffffffffffffffffffffffffffffffffffffff168152602001908152602001600020600301600360008b73ffffffffffffffffffffffffffffffffffffffff1673ffffffffffffffffffffffffffffffffffffffff168152602001908152602001600020838054610a0290611aaf565b80601f0160208091040260200160405190810160405280929190818152602001828054610a2e90611aaf565b8015610a7b5780601f10610a5057610100808354040283529160200191610a7b565b820191906000526020600020905b815481529060010190602001808311610a5e57829003601f168201915b5050505050935081805480602002602001604051908101604052809291908181526020016000905b82821015610b4f578382906000526020600020018054610ac290611aaf565b80601f0160208091040260200160405190810160405280929190818152602001828054610aee90611aaf565b8015610b3b5780601f10610b1057610100808354040283529160200191610b3b565b820191906000526020600020905b815481529060010190602001808311610b1e57829003601f168201915b505050505081526020019060010190610aa3565b50505050915080805480602002602001604051908101604052809291908181526020018280548015610ba057602002820191906000526020600020905b815481526020019060010190808311610b8c575b505050505090509450945094509450945091939590929450565b6000606080606060008060008773ffffffffffffffffffffffffffffffffffffffff1673ffffffffffffffffffffffffffffffffffffffff16815260200190815260200160002060405180608001604052908160008201548152602001600182018054610c2690611aaf565b80601f0160208091040260200160405190810160405280929190818152602001828054610c5290611aaf565b8015610c9f5780601f10610c7457610100808354040283529160200191610c9f565b820191906000526020600020905b815481529060010190602001808311610c8257829003601f168201915b50505050508152602001600282018054610cb890611aaf565b80601f0160208091040260200160405190810160405280929190818152602001828054610ce490611aaf565b8015610d315780601f10610d0657610100808354040283529160200191610d31565b820191906000526020600020905b815481529060010190602001808311610d1457829003601f168201915b50505050508152602001600382018054610d4a90611aaf565b80601f0160208091040260200160405190810160405280929190818152602001828054610d7690611aaf565b8015610dc35780601f10610d9857610100808354040283529160200191610dc3565b820191906000526020600020905b815481529060010190602001808311610da657829003601f168201915b505050505081525050905080600001518160200151826040015183606001519450945094509450509193509193565b6002602052806000526040600020600091509050806000015490806001018054610e1b90611aaf565b80601f0160208091040260200160405190810160405280929190818152602001828054610e4790611aaf565b8015610e945780601f10610e6957610100808354040283529160200191610e94565b820191906000526020600020905b815481529060010190602001808311610e7757829003601f168201915b5050505050908060020154908060030154908060040154905085565b6060600080600080600260008781526020019081526020016000206040518060a001604052908160008201548152602001600182018054610ef090611aaf565b80601f0160208091040260200160405190810160405280929190818152602001828054610f1c90611aaf565b8015610f695780601f10610f3e57610100808354040283529160200191610f69565b820191906000526020600020905b815481529060010190602001808311610f4c57829003601f168201915b505050505081526020016002820154815260200160038201548152602001600482015481525050905080602001518160400151826060015183608001519450945094509450509193509193565b600160003373ffffffffffffffffffffffffffffffffffffffff1673ffffffffffffffffffffffffffffffffffffffff1681526020019081526020016000206003018190806001815401808255809150506001900390600052602060002001600090919091909150908161102a9190611c8c565b5050565b600360008273ffffffffffffffffffffffffffffffffffffffff1673ffffffffffffffffffffffffffffffffffffffff1681526020019081526020016000208290806001815401808255809150506001900390600052602060002001600090919091909150555050565b80600160003373ffffffffffffffffffffffffffffffffffffffff1673ffffffffffffffffffffffffffffffffffffffff1681526020019081526020016000206002018190555050565b82805482825590600052602060002090810192821561112a579160200282015b828111156111295782518290816111199190611c8c565b5091602001919060010190611102565b5b509050611137919061113b565b5090565b5b8082111561115b5760008181611152919061115f565b5060010161113c565b5090565b50805461116b90611aaf565b6000825580601f1061117d575061119c565b601f01602090049060005260206000209081019061119b919061119f565b5b50565b5b808211156111b85760008160009055506001016111a0565b5090565b6000604051905090565b600080fd5b600080fd5b600073ffffffffffffffffffffffffffffffffffffffff82169050919050565b60006111fb826111d0565b9050919050565b61120b816111f0565b811461121657600080fd5b50565b60008135905061122881611202565b92915050565b600060208284031215611244576112436111c6565b5b600061125284828501611219565b91505092915050565b6000819050919050565b61126e8161125b565b82525050565b600081519050919050565b600082825260208201905092915050565b60005b838110156112ae578082015181840152602081019050611293565b60008484015250505050565b6000601f19601f8301169050919050565b60006112d682611274565b6112e0818561127f565b93506112f0818560208601611290565b6112f9816112ba565b840191505092915050565b60006060820190506113196000830186611265565b818103602083015261132b81856112cb565b905061133a6040830184611265565b949350505050565b600080fd5b600080fd5b7f4e487b7100000000000000000000000000000000000000000000000000000000600052604160045260246000fd5b611384826112ba565b810181811067ffffffffffffffff821117156113a3576113a261134c565b5b80604052505050565b60006113b66111bc565b90506113c2828261137b565b919050565b600067ffffffffffffffff8211156113e2576113e161134c565b5b6113eb826112ba565b9050602081019050919050565b82818337600083830152505050565b600061141a611415846113c7565b6113ac565b90508281526020810184848401111561143657611435611347565b5b6114418482856113f8565b509392505050565b600082601f83011261145e5761145d611342565b5b813561146e848260208601611407565b91505092915050565b6114808161125b565b811461148b57600080fd5b50565b60008135905061149d81611477565b92915050565b600080604083850312156114ba576114b96111c6565b5b600083013567ffffffffffffffff8111156114d8576114d76111cb565b5b6114e485828601611449565b92505060206114f58582860161148e565b9150509250929050565b60006020820190506115146000830184611265565b92915050565b600080600060608486031215611533576115326111c6565b5b600084013567ffffffffffffffff811115611551576115506111cb565b5b61155d86828701611449565b935050602084013567ffffffffffffffff81111561157e5761157d6111cb565b5b61158a86828701611449565b925050604084013567ffffffffffffffff8111156115ab576115aa6111cb565b5b6115b786828701611449565b9150509250925092565b600080600080600060a086880312156115dd576115dc6111c6565b5b60006115eb8882890161148e565b955050602086013567ffffffffffffffff81111561160c5761160b6111cb565b5b61161888828901611449565b94505060406116298882890161148e565b935050606061163a8882890161148e565b925050608061164b8882890161148e565b9150509295509295909350565b6000806040838503121561166f5761166e6111c6565b5b600061167d85828601611219565b925050602061168e8582860161148e565b9150509250929050565b60006080820190506116ad6000830187611265565b81810360208301526116bf81866112cb565b905081810360408301526116d381856112cb565b905081810360608301526116e781846112cb565b905095945050505050565b600081519050919050565b600082825260208201905092915050565b6000819050602082019050919050565b600082825260208201905092915050565b600061173a82611274565b611744818561171e565b9350611754818560208601611290565b61175d816112ba565b840191505092915050565b6000611774838361172f565b905092915050565b6000602082019050919050565b6000611794826116f2565b61179e81856116fd565b9350836020820285016117b08561170e565b8060005b858110156117ec57848403895281516117cd8582611768565b94506117d88361177c565b925060208a019950506001810190506117b4565b50829750879550505050505092915050565b600081519050919050565b600082825260208201905092915050565b6000819050602082019050919050565b6118338161125b565b82525050565b6000611845838361182a565b60208301905092915050565b6000602082019050919050565b6000611869826117fe565b6118738185611809565b935061187e8361181a565b8060005b838110156118af5781516118968882611839565b97506118a183611851565b925050600181019050611882565b5085935050505092915050565b600060a0820190506118d16000830188611265565b81810360208301526118e381876112cb565b90506118f26040830186611265565b81810360608301526119048185611789565b90508181036080830152611918818461185e565b90509695505050505050565b60006020828403121561193a576119396111c6565b5b60006119488482850161148e565b91505092915050565b600060a0820190506119666000830188611265565b818103602083015261197881876112cb565b90506119876040830186611265565b6119946060830185611265565b6119a16080830184611265565b9695505050505050565b600060808201905081810360008301526119c581876112cb565b90506119d46020830186611265565b6119e16040830185611265565b6119ee6060830184611265565b95945050505050565b600060208284031215611a0d57611a0c6111c6565b5b600082013567ffffffffffffffff811115611a2b57611a2a6111cb565b5b611a3784828501611449565b91505092915050565b60008060408385031215611a5757611a566111c6565b5b6000611a658582860161148e565b9250506020611a7685828601611219565b9150509250929050565b7f4e487b7100000000000000000000000000000000000000000000000000000000600052602260045260246000fd5b60006002820490506001821680611ac757607f821691505b602082108103611ada57611ad9611a80565b5b50919050565b60008190508160005260206000209050919050565b60006020601f8301049050919050565b600082821b905092915050565b600060088302611b427fffffffffffffffffffffffffffffffffffffffffffffffffffffffffffffffff82611b05565b611b4c8683611b05565b95508019841693508086168417925050509392505050565b6000819050919050565b6000611b89611b84611b7f8461125b565b611b64565b61125b565b9050919050565b6000819050919050565b611ba383611b6e565b611bb7611baf82611b90565b848454611b12565b825550505050565b600090565b611bcc611bbf565b611bd7818484611b9a565b505050565b5b81811015611bfb57611bf0600082611bc4565b600181019050611bdd565b5050565b601f821115611c4057611c1181611ae0565b611c1a84611af5565b81016020851015611c29578190505b611c3d611c3585611af5565b830182611bdc565b50505b505050565b600082821c905092915050565b6000611c6360001984600802611c45565b1980831691505092915050565b6000611c7c8383611c52565b9150826002028217905092915050565b611c9582611274565b67ffffffffffffffff811115611cae57611cad61134c565b5b611cb88254611aaf565b611cc3828285611bff565b600060209050601f831160018114611cf65760008415611ce4578287015190505b611cee8582611c70565b865550611d56565b601f198416611d0486611ae0565b60005b82811015611d2c57848901518255600182019150602085019450602081019050611d07565b86831015611d495784890151611d45601f891682611c52565b8355505b6001600288020188555050505b505050505050565b7f4e487b7100000000000000000000000000000000000000000000000000000000600052601160045260246000fd5b6000611d988261125b565b91507fffffffffffffffffffffffffffffffffffffffffffffffffffffffffffffffff8203611dca57611dc9611d5e565b5b60018201905091905056fea2646970667358221220b7a3b22ddf7961b11a7a4576233297a5df3ac9630f4489bbba111f590db997a864736f6c63430008120033",
					"opcodes": "PUSH1 0x80 PUSH1 0x40 MSTORE CALLVALUE DUP1 ISZERO PUSH2 0x10 JUMPI PUSH1 0x0 DUP1 REVERT JUMPDEST POP PUSH2 0x1E0B DUP1 PUSH2 0x20 PUSH1 0x0 CODECOPY PUSH1 0x0 RETURN INVALID PUSH1 0x80 PUSH1 0x40 MSTORE CALLVALUE DUP1 ISZERO PUSH2 0x10 JUMPI PUSH1 0x0 DUP1 REVERT JUMPDEST POP PUSH1 0x4 CALLDATASIZE LT PUSH2 0x100 JUMPI PUSH1 0x0 CALLDATALOAD PUSH1 0xE0 SHR DUP1 PUSH4 0xA9583C22 GT PUSH2 0x97 JUMPI DUP1 PUSH4 0xCC7FA220 GT PUSH2 0x66 JUMPI DUP1 PUSH4 0xCC7FA220 EQ PUSH2 0x2E3 JUMPI DUP1 PUSH4 0xD47C029C EQ PUSH2 0x316 JUMPI DUP1 PUSH4 0xDCD0C2B2 EQ PUSH2 0x332 JUMPI DUP1 PUSH4 0xE98EE2F0 EQ PUSH2 0x34E JUMPI PUSH2 0x100 JUMP JUMPDEST DUP1 PUSH4 0xA9583C22 EQ PUSH2 0x215 JUMPI DUP1 PUSH4 0xBD8247BF EQ PUSH2 0x248 JUMPI DUP1 PUSH4 0xC140261C EQ PUSH2 0x27C JUMPI DUP1 PUSH4 0xC85E766D EQ PUSH2 0x2AF JUMPI PUSH2 0x100 JUMP JUMPDEST DUP1 PUSH4 0x62ED105E GT PUSH2 0xD3 JUMPI DUP1 PUSH4 0x62ED105E EQ PUSH2 0x18D JUMPI DUP1 PUSH4 0x77B4FB94 EQ PUSH2 0x1A9 JUMPI DUP1 PUSH4 0x78522BC4 EQ PUSH2 0x1D9 JUMPI DUP1 PUSH4 0xA0303C41 EQ PUSH2 0x1F7 JUMPI PUSH2 0x100 JUMP JUMPDEST DUP1 PUSH4 0x869CFBC EQ PUSH2 0x105 JUMPI DUP1 PUSH4 0x2DE304ED EQ PUSH2 0x137 JUMPI DUP1 PUSH4 0x4DAFD490 EQ PUSH2 0x153 JUMPI DUP1 PUSH4 0x50C7A912 EQ PUSH2 0x171 JUMPI JUMPDEST PUSH1 0x0 DUP1 REVERT JUMPDEST PUSH2 0x11F PUSH1 0x4 DUP1 CALLDATASIZE SUB DUP2 ADD SWAP1 PUSH2 0x11A SWAP2 SWAP1 PUSH2 0x122E JUMP JUMPDEST PUSH2 0x36A JUMP JUMPDEST PUSH1 0x40 MLOAD PUSH2 0x12E SWAP4 SWAP3 SWAP2 SWAP1 PUSH2 0x1304 JUMP JUMPDEST PUSH1 0x40 MLOAD DUP1 SWAP2 SUB SWAP1 RETURN JUMPDEST PUSH2 0x151 PUSH1 0x4 DUP1 CALLDATASIZE SUB DUP2 ADD SWAP1 PUSH2 0x14C SWAP2 SWAP1 PUSH2 0x14A3 JUMP JUMPDEST PUSH2 0x41C JUMP JUMPDEST STOP JUMPDEST PUSH2 0x15B PUSH2 0x532 JUMP JUMPDEST PUSH1 0x40 MLOAD PUSH2 0x168 SWAP2 SWAP1 PUSH2 0x14FF JUMP JUMPDEST PUSH1 0x40 MLOAD DUP1 SWAP2 SUB SWAP1 RETURN JUMPDEST PUSH2 0x18B PUSH1 0x4 DUP1 CALLDATASIZE SUB DUP2 ADD SWAP1 PUSH2 0x186 SWAP2 SWAP1 PUSH2 0x151A JUMP JUMPDEST PUSH2 0x538 JUMP JUMPDEST STOP JUMPDEST PUSH2 0x1A7 PUSH1 0x4 DUP1 CALLDATASIZE SUB DUP2 ADD SWAP1 PUSH2 0x1A2 SWAP2 SWAP1 PUSH2 0x15C1 JUMP JUMPDEST PUSH2 0x605 JUMP JUMPDEST STOP JUMPDEST PUSH2 0x1C3 PUSH1 0x4 DUP1 CALLDATASIZE SUB DUP2 ADD SWAP1 PUSH2 0x1BE SWAP2 SWAP1 PUSH2 0x1658 JUMP JUMPDEST PUSH2 0x69F JUMP JUMPDEST PUSH1 0x40 MLOAD PUSH2 0x1D0 SWAP2 SWAP1 PUSH2 0x14FF JUMP JUMPDEST PUSH1 0x40 MLOAD DUP1 SWAP2 SUB SWAP1 RETURN JUMPDEST PUSH2 0x1E1 PUSH2 0x6D0 JUMP JUMPDEST PUSH1 0x40 MLOAD PUSH2 0x1EE SWAP2 SWAP1 PUSH2 0x14FF JUMP JUMPDEST PUSH1 0x40 MLOAD DUP1 SWAP2 SUB SWAP1 RETURN JUMPDEST PUSH2 0x1FF PUSH2 0x6D6 JUMP JUMPDEST PUSH1 0x40 MLOAD PUSH2 0x20C SWAP2 SWAP1 PUSH2 0x14FF JUMP JUMPDEST PUSH1 0x40 MLOAD DUP1 SWAP2 SUB SWAP1 RETURN JUMPDEST PUSH2 0x22F PUSH1 0x4 DUP1 CALLDATASIZE SUB DUP2 ADD SWAP1 PUSH2 0x22A SWAP2 SWAP1 PUSH2 0x122E JUMP JUMPDEST PUSH2 0x6DC JUMP JUMPDEST PUSH1 0x40 MLOAD PUSH2 0x23F SWAP5 SWAP4 SWAP3 SWAP2 SWAP1 PUSH2 0x1698 JUMP JUMPDEST PUSH1 0x40 MLOAD DUP1 SWAP2 SUB SWAP1 RETURN JUMPDEST PUSH2 0x262 PUSH1 0x4 DUP1 CALLDATASIZE SUB DUP2 ADD SWAP1 PUSH2 0x25D SWAP2 SWAP1 PUSH2 0x122E JUMP JUMPDEST PUSH2 0x8A4 JUMP JUMPDEST PUSH1 0x40 MLOAD PUSH2 0x273 SWAP6 SWAP5 SWAP4 SWAP3 SWAP2 SWAP1 PUSH2 0x18BC JUMP JUMPDEST PUSH1 0x40 MLOAD DUP1 SWAP2 SUB SWAP1 RETURN JUMPDEST PUSH2 0x296 PUSH1 0x4 DUP1 CALLDATASIZE SUB DUP2 ADD SWAP1 PUSH2 0x291 SWAP2 SWAP1 PUSH2 0x122E JUMP JUMPDEST PUSH2 0xBBA JUMP JUMPDEST PUSH1 0x40 MLOAD PUSH2 0x2A6 SWAP5 SWAP4 SWAP3 SWAP2 SWAP1 PUSH2 0x1698 JUMP JUMPDEST PUSH1 0x40 MLOAD DUP1 SWAP2 SUB SWAP1 RETURN JUMPDEST PUSH2 0x2C9 PUSH1 0x4 DUP1 CALLDATASIZE SUB DUP2 ADD SWAP1 PUSH2 0x2C4 SWAP2 SWAP1 PUSH2 0x1924 JUMP JUMPDEST PUSH2 0xDF2 JUMP JUMPDEST PUSH1 0x40 MLOAD PUSH2 0x2DA SWAP6 SWAP5 SWAP4 SWAP3 SWAP2 SWAP1 PUSH2 0x1951 JUMP JUMPDEST PUSH1 0x40 MLOAD DUP1 SWAP2 SUB SWAP1 RETURN JUMPDEST PUSH2 0x2FD PUSH1 0x4 DUP1 CALLDATASIZE SUB DUP2 ADD SWAP1 PUSH2 0x2F8 SWAP2 SWAP1 PUSH2 0x1924 JUMP JUMPDEST PUSH2 0xEB0 JUMP JUMPDEST PUSH1 0x40 MLOAD PUSH2 0x30D SWAP5 SWAP4 SWAP3 SWAP2 SWAP1 PUSH2 0x19AB JUMP JUMPDEST PUSH1 0x40 MLOAD DUP1 SWAP2 SUB SWAP1 RETURN JUMPDEST PUSH2 0x330 PUSH1 0x4 DUP1 CALLDATASIZE SUB DUP2 ADD SWAP1 PUSH2 0x32B SWAP2 SWAP1 PUSH2 0x19F7 JUMP JUMPDEST PUSH2 0xFB6 JUMP JUMPDEST STOP JUMPDEST PUSH2 0x34C PUSH1 0x4 DUP1 CALLDATASIZE SUB DUP2 ADD SWAP1 PUSH2 0x347 SWAP2 SWAP1 PUSH2 0x1A40 JUMP JUMPDEST PUSH2 0x102E JUMP JUMPDEST STOP JUMPDEST PUSH2 0x368 PUSH1 0x4 DUP1 CALLDATASIZE SUB DUP2 ADD SWAP1 PUSH2 0x363 SWAP2 SWAP1 PUSH2 0x1924 JUMP JUMPDEST PUSH2 0x1098 JUMP JUMPDEST STOP JUMPDEST PUSH1 0x1 PUSH1 0x20 MSTORE DUP1 PUSH1 0x0 MSTORE PUSH1 0x40 PUSH1 0x0 KECCAK256 PUSH1 0x0 SWAP2 POP SWAP1 POP DUP1 PUSH1 0x0 ADD SLOAD SWAP1 DUP1 PUSH1 0x1 ADD DUP1 SLOAD PUSH2 0x393 SWAP1 PUSH2 0x1AAF JUMP JUMPDEST DUP1 PUSH1 0x1F ADD PUSH1 0x20 DUP1 SWAP2 DIV MUL PUSH1 0x20 ADD PUSH1 0x40 MLOAD SWAP1 DUP2 ADD PUSH1 0x40 MSTORE DUP1 SWAP3 SWAP2 SWAP1 DUP2 DUP2 MSTORE PUSH1 0x20 ADD DUP3 DUP1 SLOAD PUSH2 0x3BF SWAP1 PUSH2 0x1AAF JUMP JUMPDEST DUP1 ISZERO PUSH2 0x40C JUMPI DUP1 PUSH1 0x1F LT PUSH2 0x3E1 JUMPI PUSH2 0x100 DUP1 DUP4 SLOAD DIV MUL DUP4 MSTORE SWAP2 PUSH1 0x20 ADD SWAP2 PUSH2 0x40C JUMP JUMPDEST DUP3 ADD SWAP2 SWAP1 PUSH1 0x0 MSTORE PUSH1 0x20 PUSH1 0x0 KECCAK256 SWAP1 JUMPDEST DUP2 SLOAD DUP2 MSTORE SWAP1 PUSH1 0x1 ADD SWAP1 PUSH1 0x20 ADD DUP1 DUP4 GT PUSH2 0x3EF JUMPI DUP3 SWAP1 SUB PUSH1 0x1F AND DUP3 ADD SWAP2 JUMPDEST POP POP POP POP POP SWAP1 DUP1 PUSH1 0x2 ADD SLOAD SWAP1 POP DUP4 JUMP JUMPDEST PUSH1 0x40 MLOAD DUP1 PUSH1 0x80 ADD PUSH1 0x40 MSTORE DUP1 PUSH1 0x5 SLOAD DUP2 MSTORE PUSH1 0x20 ADD DUP4 DUP2 MSTORE PUSH1 0x20 ADD DUP3 DUP2 MSTORE PUSH1 0x20 ADD PUSH1 0x0 PUSH8 0xFFFFFFFFFFFFFFFF DUP2 GT ISZERO PUSH2 0x456 JUMPI PUSH2 0x455 PUSH2 0x134C JUMP JUMPDEST JUMPDEST PUSH1 0x40 MLOAD SWAP1 DUP1 DUP3 MSTORE DUP1 PUSH1 0x20 MUL PUSH1 0x20 ADD DUP3 ADD PUSH1 0x40 MSTORE DUP1 ISZERO PUSH2 0x489 JUMPI DUP2 PUSH1 0x20 ADD JUMPDEST PUSH1 0x60 DUP2 MSTORE PUSH1 0x20 ADD SWAP1 PUSH1 0x1 SWAP1 SUB SWAP1 DUP2 PUSH2 0x474 JUMPI SWAP1 POP JUMPDEST POP DUP2 MSTORE POP PUSH1 0x1 PUSH1 0x0 CALLER PUSH20 0xFFFFFFFFFFFFFFFFFFFFFFFFFFFFFFFFFFFFFFFF AND PUSH20 0xFFFFFFFFFFFFFFFFFFFFFFFFFFFFFFFFFFFFFFFF AND DUP2 MSTORE PUSH1 0x20 ADD SWAP1 DUP2 MSTORE PUSH1 0x20 ADD PUSH1 0x0 KECCAK256 PUSH1 0x0 DUP3 ADD MLOAD DUP2 PUSH1 0x0 ADD SSTORE PUSH1 0x20 DUP3 ADD MLOAD DUP2 PUSH1 0x1 ADD SWAP1 DUP2 PUSH2 0x4EB SWAP2 SWAP1 PUSH2 0x1C8C JUMP JUMPDEST POP PUSH1 0x40 DUP3 ADD MLOAD DUP2 PUSH1 0x2 ADD SSTORE PUSH1 0x60 DUP3 ADD MLOAD DUP2 PUSH1 0x3 ADD SWAP1 DUP1 MLOAD SWAP1 PUSH1 0x20 ADD SWAP1 PUSH2 0x512 SWAP3 SWAP2 SWAP1 PUSH2 0x10E2 JUMP JUMPDEST POP SWAP1 POP POP PUSH1 0x5 PUSH1 0x0 DUP2 SLOAD DUP1 SWAP3 SWAP2 SWAP1 PUSH2 0x529 SWAP1 PUSH2 0x1D8D JUMP JUMPDEST SWAP2 SWAP1 POP SSTORE POP POP POP JUMP JUMPDEST PUSH1 0x6 SLOAD DUP2 JUMP JUMPDEST PUSH1 0x40 MLOAD DUP1 PUSH1 0x80 ADD PUSH1 0x40 MSTORE DUP1 PUSH1 0x4 SLOAD DUP2 MSTORE PUSH1 0x20 ADD DUP5 DUP2 MSTORE PUSH1 0x20 ADD DUP4 DUP2 MSTORE PUSH1 0x20 ADD DUP3 DUP2 MSTORE POP PUSH1 0x0 DUP1 CALLER PUSH20 0xFFFFFFFFFFFFFFFFFFFFFFFFFFFFFFFFFFFFFFFF AND PUSH20 0xFFFFFFFFFFFFFFFFFFFFFFFFFFFFFFFFFFFFFFFF AND DUP2 MSTORE PUSH1 0x20 ADD SWAP1 DUP2 MSTORE PUSH1 0x20 ADD PUSH1 0x0 KECCAK256 PUSH1 0x0 DUP3 ADD MLOAD DUP2 PUSH1 0x0 ADD SSTORE PUSH1 0x20 DUP3 ADD MLOAD DUP2 PUSH1 0x1 ADD SWAP1 DUP2 PUSH2 0x5B8 SWAP2 SWAP1 PUSH2 0x1C8C JUMP JUMPDEST POP PUSH1 0x40 DUP3 ADD MLOAD DUP2 PUSH1 0x2 ADD SWAP1 DUP2 PUSH2 0x5CE SWAP2 SWAP1 PUSH2 0x1C8C JUMP JUMPDEST POP PUSH1 0x60 DUP3 ADD MLOAD DUP2 PUSH1 0x3 ADD SWAP1 DUP2 PUSH2 0x5E4 SWAP2 SWAP1 PUSH2 0x1C8C JUMP JUMPDEST POP SWAP1 POP POP PUSH1 0x4 PUSH1 0x0 DUP2 SLOAD DUP1 SWAP3 SWAP2 SWAP1 PUSH2 0x5FB SWAP1 PUSH2 0x1D8D JUMP JUMPDEST SWAP2 SWAP1 POP SSTORE POP POP POP POP JUMP JUMPDEST PUSH1 0x40 MLOAD DUP1 PUSH1 0xA0 ADD PUSH1 0x40 MSTORE DUP1 DUP7 DUP2 MSTORE PUSH1 0x20 ADD DUP6 DUP2 MSTORE PUSH1 0x20 ADD DUP5 DUP2 MSTORE PUSH1 0x20 ADD DUP4 DUP2 MSTORE PUSH1 0x20 ADD DUP3 DUP2 MSTORE POP PUSH1 0x2 PUSH1 0x0 DUP8 DUP2 MSTORE PUSH1 0x20 ADD SWAP1 DUP2 MSTORE PUSH1 0x20 ADD PUSH1 0x0 KECCAK256 PUSH1 0x0 DUP3 ADD MLOAD DUP2 PUSH1 0x0 ADD SSTORE PUSH1 0x20 DUP3 ADD MLOAD DUP2 PUSH1 0x1 ADD SWAP1 DUP2 PUSH2 0x65E SWAP2 SWAP1 PUSH2 0x1C8C JUMP JUMPDEST POP PUSH1 0x40 DUP3 ADD MLOAD DUP2 PUSH1 0x2 ADD SSTORE PUSH1 0x60 DUP3 ADD MLOAD DUP2 PUSH1 0x3 ADD SSTORE PUSH1 0x80 DUP3 ADD MLOAD DUP2 PUSH1 0x4 ADD SSTORE SWAP1 POP POP PUSH1 0x6 PUSH1 0x0 DUP2 SLOAD DUP1 SWAP3 SWAP2 SWAP1 PUSH2 0x693 SWAP1 PUSH2 0x1D8D JUMP JUMPDEST SWAP2 SWAP1 POP SSTORE POP POP POP POP POP POP JUMP JUMPDEST PUSH1 0x3 PUSH1 0x20 MSTORE DUP2 PUSH1 0x0 MSTORE PUSH1 0x40 PUSH1 0x0 KECCAK256 DUP2 DUP2 SLOAD DUP2 LT PUSH2 0x6BB JUMPI PUSH1 0x0 DUP1 REVERT JUMPDEST SWAP1 PUSH1 0x0 MSTORE PUSH1 0x20 PUSH1 0x0 KECCAK256 ADD PUSH1 0x0 SWAP2 POP SWAP2 POP POP SLOAD DUP2 JUMP JUMPDEST PUSH1 0x4 SLOAD DUP2 JUMP JUMPDEST PUSH1 0x5 SLOAD DUP2 JUMP JUMPDEST PUSH1 0x0 PUSH1 0x20 MSTORE DUP1 PUSH1 0x0 MSTORE PUSH1 0x40 PUSH1 0x0 KECCAK256 PUSH1 0x0 SWAP2 POP SWAP1 POP DUP1 PUSH1 0x0 ADD SLOAD SWAP1 DUP1 PUSH1 0x1 ADD DUP1 SLOAD PUSH2 0x705 SWAP1 PUSH2 0x1AAF JUMP JUMPDEST DUP1 PUSH1 0x1F ADD PUSH1 0x20 DUP1 SWAP2 DIV MUL PUSH1 0x20 ADD PUSH1 0x40 MLOAD SWAP1 DUP2 ADD PUSH1 0x40 MSTORE DUP1 SWAP3 SWAP2 SWAP1 DUP2 DUP2 MSTORE PUSH1 0x20 ADD DUP3 DUP1 SLOAD PUSH2 0x731 SWAP1 PUSH2 0x1AAF JUMP JUMPDEST DUP1 ISZERO PUSH2 0x77E JUMPI DUP1 PUSH1 0x1F LT PUSH2 0x753 JUMPI PUSH2 0x100 DUP1 DUP4 SLOAD DIV MUL DUP4 MSTORE SWAP2 PUSH1 0x20 ADD SWAP2 PUSH2 0x77E JUMP JUMPDEST DUP3 ADD SWAP2 SWAP1 PUSH1 0x0 MSTORE PUSH1 0x20 PUSH1 0x0 KECCAK256 SWAP1 JUMPDEST DUP2 SLOAD DUP2 MSTORE SWAP1 PUSH1 0x1 ADD SWAP1 PUSH1 0x20 ADD DUP1 DUP4 GT PUSH2 0x761 JUMPI DUP3 SWAP1 SUB PUSH1 0x1F AND DUP3 ADD SWAP2 JUMPDEST POP POP POP POP POP SWAP1 DUP1 PUSH1 0x2 ADD DUP1 SLOAD PUSH2 0x793 SWAP1 PUSH2 0x1AAF JUMP JUMPDEST DUP1 PUSH1 0x1F ADD PUSH1 0x20 DUP1 SWAP2 DIV MUL PUSH1 0x20 ADD PUSH1 0x40 MLOAD SWAP1 DUP2 ADD PUSH1 0x40 MSTORE DUP1 SWAP3 SWAP2 SWAP1 DUP2 DUP2 MSTORE PUSH1 0x20 ADD DUP3 DUP1 SLOAD PUSH2 0x7BF SWAP1 PUSH2 0x1AAF JUMP JUMPDEST DUP1 ISZERO PUSH2 0x80C JUMPI DUP1 PUSH1 0x1F LT PUSH2 0x7E1 JUMPI PUSH2 0x100 DUP1 DUP4 SLOAD DIV MUL DUP4 MSTORE SWAP2 PUSH1 0x20 ADD SWAP2 PUSH2 0x80C JUMP JUMPDEST DUP3 ADD SWAP2 SWAP1 PUSH1 0x0 MSTORE PUSH1 0x20 PUSH1 0x0 KECCAK256 SWAP1 JUMPDEST DUP2 SLOAD DUP2 MSTORE SWAP1 PUSH1 0x1 ADD SWAP1 PUSH1 0x20 ADD DUP1 DUP4 GT PUSH2 0x7EF JUMPI DUP3 SWAP1 SUB PUSH1 0x1F AND DUP3 ADD SWAP2 JUMPDEST POP POP POP POP POP SWAP1 DUP1 PUSH1 0x3 ADD DUP1 SLOAD PUSH2 0x821 SWAP1 PUSH2 0x1AAF JUMP JUMPDEST DUP1 PUSH1 0x1F ADD PUSH1 0x20 DUP1 SWAP2 DIV MUL PUSH1 0x20 ADD PUSH1 0x40 MLOAD SWAP1 DUP2 ADD PUSH1 0x40 MSTORE DUP1 SWAP3 SWAP2 SWAP1 DUP2 DUP2 MSTORE PUSH1 0x20 ADD DUP3 DUP1 SLOAD PUSH2 0x84D SWAP1 PUSH2 0x1AAF JUMP JUMPDEST DUP1 ISZERO PUSH2 0x89A JUMPI DUP1 PUSH1 0x1F LT PUSH2 0x86F JUMPI PUSH2 0x100 DUP1 DUP4 SLOAD DIV MUL DUP4 MSTORE SWAP2 PUSH1 0x20 ADD SWAP2 PUSH2 0x89A JUMP JUMPDEST DUP3 ADD SWAP2 SWAP1 PUSH1 0x0 MSTORE PUSH1 0x20 PUSH1 0x0 KECCAK256 SWAP1 JUMPDEST DUP2 SLOAD DUP2 MSTORE SWAP1 PUSH1 0x1 ADD SWAP1 PUSH1 0x20 ADD DUP1 DUP4 GT PUSH2 0x87D JUMPI DUP3 SWAP1 SUB PUSH1 0x1F AND DUP3 ADD SWAP2 JUMPDEST POP POP POP POP POP SWAP1 POP DUP5 JUMP JUMPDEST PUSH1 0x0 PUSH1 0x60 PUSH1 0x0 PUSH1 0x60 DUP1 PUSH1 0x1 PUSH1 0x0 DUP8 PUSH20 0xFFFFFFFFFFFFFFFFFFFFFFFFFFFFFFFFFFFFFFFF AND PUSH20 0xFFFFFFFFFFFFFFFFFFFFFFFFFFFFFFFFFFFFFFFF AND DUP2 MSTORE PUSH1 0x20 ADD SWAP1 DUP2 MSTORE PUSH1 0x20 ADD PUSH1 0x0 KECCAK256 PUSH1 0x0 ADD SLOAD PUSH1 0x1 PUSH1 0x0 DUP9 PUSH20 0xFFFFFFFFFFFFFFFFFFFFFFFFFFFFFFFFFFFFFFFF AND PUSH20 0xFFFFFFFFFFFFFFFFFFFFFFFFFFFFFFFFFFFFFFFF AND DUP2 MSTORE PUSH1 0x20 ADD SWAP1 DUP2 MSTORE PUSH1 0x20 ADD PUSH1 0x0 KECCAK256 PUSH1 0x1 ADD PUSH1 0x1 PUSH1 0x0 DUP10 PUSH20 0xFFFFFFFFFFFFFFFFFFFFFFFFFFFFFFFFFFFFFFFF AND PUSH20 0xFFFFFFFFFFFFFFFFFFFFFFFFFFFFFFFFFFFFFFFF AND DUP2 MSTORE PUSH1 0x20 ADD SWAP1 DUP2 MSTORE PUSH1 0x20 ADD PUSH1 0x0 KECCAK256 PUSH1 0x2 ADD SLOAD PUSH1 0x1 PUSH1 0x0 DUP11 PUSH20 0xFFFFFFFFFFFFFFFFFFFFFFFFFFFFFFFFFFFFFFFF AND PUSH20 0xFFFFFFFFFFFFFFFFFFFFFFFFFFFFFFFFFFFFFFFF AND DUP2 MSTORE PUSH1 0x20 ADD SWAP1 DUP2 MSTORE PUSH1 0x20 ADD PUSH1 0x0 KECCAK256 PUSH1 0x3 ADD PUSH1 0x3 PUSH1 0x0 DUP12 PUSH20 0xFFFFFFFFFFFFFFFFFFFFFFFFFFFFFFFFFFFFFFFF AND PUSH20 0xFFFFFFFFFFFFFFFFFFFFFFFFFFFFFFFFFFFFFFFF AND DUP2 MSTORE PUSH1 0x20 ADD SWAP1 DUP2 MSTORE PUSH1 0x20 ADD PUSH1 0x0 KECCAK256 DUP4 DUP1 SLOAD PUSH2 0xA02 SWAP1 PUSH2 0x1AAF JUMP JUMPDEST DUP1 PUSH1 0x1F ADD PUSH1 0x20 DUP1 SWAP2 DIV MUL PUSH1 0x20 ADD PUSH1 0x40 MLOAD SWAP1 DUP2 ADD PUSH1 0x40 MSTORE DUP1 SWAP3 SWAP2 SWAP1 DUP2 DUP2 MSTORE PUSH1 0x20 ADD DUP3 DUP1 SLOAD PUSH2 0xA2E SWAP1 PUSH2 0x1AAF JUMP JUMPDEST DUP1 ISZERO PUSH2 0xA7B JUMPI DUP1 PUSH1 0x1F LT PUSH2 0xA50 JUMPI PUSH2 0x100 DUP1 DUP4 SLOAD DIV MUL DUP4 MSTORE SWAP2 PUSH1 0x20 ADD SWAP2 PUSH2 0xA7B JUMP JUMPDEST DUP3 ADD SWAP2 SWAP1 PUSH1 0x0 MSTORE PUSH1 0x20 PUSH1 0x0 KECCAK256 SWAP1 JUMPDEST DUP2 SLOAD DUP2 MSTORE SWAP1 PUSH1 0x1 ADD SWAP1 PUSH1 0x20 ADD DUP1 DUP4 GT PUSH2 0xA5E JUMPI DUP3 SWAP1 SUB PUSH1 0x1F AND DUP3 ADD SWAP2 JUMPDEST POP POP POP POP POP SWAP4 POP DUP2 DUP1 SLOAD DUP1 PUSH1 0x20 MUL PUSH1 0x20 ADD PUSH1 0x40 MLOAD SWAP1 DUP2 ADD PUSH1 0x40 MSTORE DUP1 SWAP3 SWAP2 SWAP1 DUP2 DUP2 MSTORE PUSH1 0x20 ADD PUSH1 0x0 SWAP1 JUMPDEST DUP3 DUP3 LT ISZERO PUSH2 0xB4F JUMPI DUP4 DUP3 SWAP1 PUSH1 0x0 MSTORE PUSH1 0x20 PUSH1 0x0 KECCAK256 ADD DUP1 SLOAD PUSH2 0xAC2 SWAP1 PUSH2 0x1AAF JUMP JUMPDEST DUP1 PUSH1 0x1F ADD PUSH1 0x20 DUP1 SWAP2 DIV MUL PUSH1 0x20 ADD PUSH1 0x40 MLOAD SWAP1 DUP2 ADD PUSH1 0x40 MSTORE DUP1 SWAP3 SWAP2 SWAP1 DUP2 DUP2 MSTORE PUSH1 0x20 ADD DUP3 DUP1 SLOAD PUSH2 0xAEE SWAP1 PUSH2 0x1AAF JUMP JUMPDEST DUP1 ISZERO PUSH2 0xB3B JUMPI DUP1 PUSH1 0x1F LT PUSH2 0xB10 JUMPI PUSH2 0x100 DUP1 DUP4 SLOAD DIV MUL DUP4 MSTORE SWAP2 PUSH1 0x20 ADD SWAP2 PUSH2 0xB3B JUMP JUMPDEST DUP3 ADD SWAP2 SWAP1 PUSH1 0x0 MSTORE PUSH1 0x20 PUSH1 0x0 KECCAK256 SWAP1 JUMPDEST DUP2 SLOAD DUP2 MSTORE SWAP1 PUSH1 0x1 ADD SWAP1 PUSH1 0x20 ADD DUP1 DUP4 GT PUSH2 0xB1E JUMPI DUP3 SWAP1 SUB PUSH1 0x1F AND DUP3 ADD SWAP2 JUMPDEST POP POP POP POP POP DUP2 MSTORE PUSH1 0x20 ADD SWAP1 PUSH1 0x1 ADD SWAP1 PUSH2 0xAA3 JUMP JUMPDEST POP POP POP POP SWAP2 POP DUP1 DUP1 SLOAD DUP1 PUSH1 0x20 MUL PUSH1 0x20 ADD PUSH1 0x40 MLOAD SWAP1 DUP2 ADD PUSH1 0x40 MSTORE DUP1 SWAP3 SWAP2 SWAP1 DUP2 DUP2 MSTORE PUSH1 0x20 ADD DUP3 DUP1 SLOAD DUP1 ISZERO PUSH2 0xBA0 JUMPI PUSH1 0x20 MUL DUP3 ADD SWAP2 SWAP1 PUSH1 0x0 MSTORE PUSH1 0x20 PUSH1 0x0 KECCAK256 SWAP1 JUMPDEST DUP2 SLOAD DUP2 MSTORE PUSH1 0x20 ADD SWAP1 PUSH1 0x1 ADD SWAP1 DUP1 DUP4 GT PUSH2 0xB8C JUMPI JUMPDEST POP POP POP POP POP SWAP1 POP SWAP5 POP SWAP5 POP SWAP5 POP SWAP5 POP SWAP5 POP SWAP2 SWAP4 SWAP6 SWAP1 SWAP3 SWAP5 POP JUMP JUMPDEST PUSH1 0x0 PUSH1 0x60 DUP1 PUSH1 0x60 PUSH1 0x0 DUP1 PUSH1 0x0 DUP8 PUSH20 0xFFFFFFFFFFFFFFFFFFFFFFFFFFFFFFFFFFFFFFFF AND PUSH20 0xFFFFFFFFFFFFFFFFFFFFFFFFFFFFFFFFFFFFFFFF AND DUP2 MSTORE PUSH1 0x20 ADD SWAP1 DUP2 MSTORE PUSH1 0x20 ADD PUSH1 0x0 KECCAK256 PUSH1 0x40 MLOAD DUP1 PUSH1 0x80 ADD PUSH1 0x40 MSTORE SWAP1 DUP2 PUSH1 0x0 DUP3 ADD SLOAD DUP2 MSTORE PUSH1 0x20 ADD PUSH1 0x1 DUP3 ADD DUP1 SLOAD PUSH2 0xC26 SWAP1 PUSH2 0x1AAF JUMP JUMPDEST DUP1 PUSH1 0x1F ADD PUSH1 0x20 DUP1 SWAP2 DIV MUL PUSH1 0x20 ADD PUSH1 0x40 MLOAD SWAP1 DUP2 ADD PUSH1 0x40 MSTORE DUP1 SWAP3 SWAP2 SWAP1 DUP2 DUP2 MSTORE PUSH1 0x20 ADD DUP3 DUP1 SLOAD PUSH2 0xC52 SWAP1 PUSH2 0x1AAF JUMP JUMPDEST DUP1 ISZERO PUSH2 0xC9F JUMPI DUP1 PUSH1 0x1F LT PUSH2 0xC74 JUMPI PUSH2 0x100 DUP1 DUP4 SLOAD DIV MUL DUP4 MSTORE SWAP2 PUSH1 0x20 ADD SWAP2 PUSH2 0xC9F JUMP JUMPDEST DUP3 ADD SWAP2 SWAP1 PUSH1 0x0 MSTORE PUSH1 0x20 PUSH1 0x0 KECCAK256 SWAP1 JUMPDEST DUP2 SLOAD DUP2 MSTORE SWAP1 PUSH1 0x1 ADD SWAP1 PUSH1 0x20 ADD DUP1 DUP4 GT PUSH2 0xC82 JUMPI DUP3 SWAP1 SUB PUSH1 0x1F AND DUP3 ADD SWAP2 JUMPDEST POP POP POP POP POP DUP2 MSTORE PUSH1 0x20 ADD PUSH1 0x2 DUP3 ADD DUP1 SLOAD PUSH2 0xCB8 SWAP1 PUSH2 0x1AAF JUMP JUMPDEST DUP1 PUSH1 0x1F ADD PUSH1 0x20 DUP1 SWAP2 DIV MUL PUSH1 0x20 ADD PUSH1 0x40 MLOAD SWAP1 DUP2 ADD PUSH1 0x40 MSTORE DUP1 SWAP3 SWAP2 SWAP1 DUP2 DUP2 MSTORE PUSH1 0x20 ADD DUP3 DUP1 SLOAD PUSH2 0xCE4 SWAP1 PUSH2 0x1AAF JUMP JUMPDEST DUP1 ISZERO PUSH2 0xD31 JUMPI DUP1 PUSH1 0x1F LT PUSH2 0xD06 JUMPI PUSH2 0x100 DUP1 DUP4 SLOAD DIV MUL DUP4 MSTORE SWAP2 PUSH1 0x20 ADD SWAP2 PUSH2 0xD31 JUMP JUMPDEST DUP3 ADD SWAP2 SWAP1 PUSH1 0x0 MSTORE PUSH1 0x20 PUSH1 0x0 KECCAK256 SWAP1 JUMPDEST DUP2 SLOAD DUP2 MSTORE SWAP1 PUSH1 0x1 ADD SWAP1 PUSH1 0x20 ADD DUP1 DUP4 GT PUSH2 0xD14 JUMPI DUP3 SWAP1 SUB PUSH1 0x1F AND DUP3 ADD SWAP2 JUMPDEST POP POP POP POP POP DUP2 MSTORE PUSH1 0x20 ADD PUSH1 0x3 DUP3 ADD DUP1 SLOAD PUSH2 0xD4A SWAP1 PUSH2 0x1AAF JUMP JUMPDEST DUP1 PUSH1 0x1F ADD PUSH1 0x20 DUP1 SWAP2 DIV MUL PUSH1 0x20 ADD PUSH1 0x40 MLOAD SWAP1 DUP2 ADD PUSH1 0x40 MSTORE DUP1 SWAP3 SWAP2 SWAP1 DUP2 DUP2 MSTORE PUSH1 0x20 ADD DUP3 DUP1 SLOAD PUSH2 0xD76 SWAP1 PUSH2 0x1AAF JUMP JUMPDEST DUP1 ISZERO PUSH2 0xDC3 JUMPI DUP1 PUSH1 0x1F LT PUSH2 0xD98 JUMPI PUSH2 0x100 DUP1 DUP4 SLOAD DIV MUL DUP4 MSTORE SWAP2 PUSH1 0x20 ADD SWAP2 PUSH2 0xDC3 JUMP JUMPDEST DUP3 ADD SWAP2 SWAP1 PUSH1 0x0 MSTORE PUSH1 0x20 PUSH1 0x0 KECCAK256 SWAP1 JUMPDEST DUP2 SLOAD DUP2 MSTORE SWAP1 PUSH1 0x1 ADD SWAP1 PUSH1 0x20 ADD DUP1 DUP4 GT PUSH2 0xDA6 JUMPI DUP3 SWAP1 SUB PUSH1 0x1F AND DUP3 ADD SWAP2 JUMPDEST POP POP POP POP POP DUP2 MSTORE POP POP SWAP1 POP DUP1 PUSH1 0x0 ADD MLOAD DUP2 PUSH1 0x20 ADD MLOAD DUP3 PUSH1 0x40 ADD MLOAD DUP4 PUSH1 0x60 ADD MLOAD SWAP5 POP SWAP5 POP SWAP5 POP SWAP5 POP POP SWAP2 SWAP4 POP SWAP2 SWAP4 JUMP JUMPDEST PUSH1 0x2 PUSH1 0x20 MSTORE DUP1 PUSH1 0x0 MSTORE PUSH1 0x40 PUSH1 0x0 KECCAK256 PUSH1 0x0 SWAP2 POP SWAP1 POP DUP1 PUSH1 0x0 ADD SLOAD SWAP1 DUP1 PUSH1 0x1 ADD DUP1 SLOAD PUSH2 0xE1B SWAP1 PUSH2 0x1AAF JUMP JUMPDEST DUP1 PUSH1 0x1F ADD PUSH1 0x20 DUP1 SWAP2 DIV MUL PUSH1 0x20 ADD PUSH1 0x40 MLOAD SWAP1 DUP2 ADD PUSH1 0x40 MSTORE DUP1 SWAP3 SWAP2 SWAP1 DUP2 DUP2 MSTORE PUSH1 0x20 ADD DUP3 DUP1 SLOAD PUSH2 0xE47 SWAP1 PUSH2 0x1AAF JUMP JUMPDEST DUP1 ISZERO PUSH2 0xE94 JUMPI DUP1 PUSH1 0x1F LT PUSH2 0xE69 JUMPI PUSH2 0x100 DUP1 DUP4 SLOAD DIV MUL DUP4 MSTORE SWAP2 PUSH1 0x20 ADD SWAP2 PUSH2 0xE94 JUMP JUMPDEST DUP3 ADD SWAP2 SWAP1 PUSH1 0x0 MSTORE PUSH1 0x20 PUSH1 0x0 KECCAK256 SWAP1 JUMPDEST DUP2 SLOAD DUP2 MSTORE SWAP1 PUSH1 0x1 ADD SWAP1 PUSH1 0x20 ADD DUP1 DUP4 GT PUSH2 0xE77 JUMPI DUP3 SWAP1 SUB PUSH1 0x1F AND DUP3 ADD SWAP2 JUMPDEST POP POP POP POP POP SWAP1 DUP1 PUSH1 0x2 ADD SLOAD SWAP1 DUP1 PUSH1 0x3 ADD SLOAD SWAP1 DUP1 PUSH1 0x4 ADD SLOAD SWAP1 POP DUP6 JUMP JUMPDEST PUSH1 0x60 PUSH1 0x0 DUP1 PUSH1 0x0 DUP1 PUSH1 0x2 PUSH1 0x0 DUP8 DUP2 MSTORE PUSH1 0x20 ADD SWAP1 DUP2 MSTORE PUSH1 0x20 ADD PUSH1 0x0 KECCAK256 PUSH1 0x40 MLOAD DUP1 PUSH1 0xA0 ADD PUSH1 0x40 MSTORE SWAP1 DUP2 PUSH1 0x0 DUP3 ADD SLOAD DUP2 MSTORE PUSH1 0x20 ADD PUSH1 0x1 DUP3 ADD DUP1 SLOAD PUSH2 0xEF0 SWAP1 PUSH2 0x1AAF JUMP JUMPDEST DUP1 PUSH1 0x1F ADD PUSH1 0x20 DUP1 SWAP2 DIV MUL PUSH1 0x20 ADD PUSH1 0x40 MLOAD SWAP1 DUP2 ADD PUSH1 0x40 MSTORE DUP1 SWAP3 SWAP2 SWAP1 DUP2 DUP2 MSTORE PUSH1 0x20 ADD DUP3 DUP1 SLOAD PUSH2 0xF1C SWAP1 PUSH2 0x1AAF JUMP JUMPDEST DUP1 ISZERO PUSH2 0xF69 JUMPI DUP1 PUSH1 0x1F LT PUSH2 0xF3E JUMPI PUSH2 0x100 DUP1 DUP4 SLOAD DIV MUL DUP4 MSTORE SWAP2 PUSH1 0x20 ADD SWAP2 PUSH2 0xF69 JUMP JUMPDEST DUP3 ADD SWAP2 SWAP1 PUSH1 0x0 MSTORE PUSH1 0x20 PUSH1 0x0 KECCAK256 SWAP1 JUMPDEST DUP2 SLOAD DUP2 MSTORE SWAP1 PUSH1 0x1 ADD SWAP1 PUSH1 0x20 ADD DUP1 DUP4 GT PUSH2 0xF4C JUMPI DUP3 SWAP1 SUB PUSH1 0x1F AND DUP3 ADD SWAP2 JUMPDEST POP POP POP POP POP DUP2 MSTORE PUSH1 0x20 ADD PUSH1 0x2 DUP3 ADD SLOAD DUP2 MSTORE PUSH1 0x20 ADD PUSH1 0x3 DUP3 ADD SLOAD DUP2 MSTORE PUSH1 0x20 ADD PUSH1 0x4 DUP3 ADD SLOAD DUP2 MSTORE POP POP SWAP1 POP DUP1 PUSH1 0x20 ADD MLOAD DUP2 PUSH1 0x40 ADD MLOAD DUP3 PUSH1 0x60 ADD MLOAD DUP4 PUSH1 0x80 ADD MLOAD SWAP5 POP SWAP5 POP SWAP5 POP SWAP5 POP POP SWAP2 SWAP4 POP SWAP2 SWAP4 JUMP JUMPDEST PUSH1 0x1 PUSH1 0x0 CALLER PUSH20 0xFFFFFFFFFFFFFFFFFFFFFFFFFFFFFFFFFFFFFFFF AND PUSH20 0xFFFFFFFFFFFFFFFFFFFFFFFFFFFFFFFFFFFFFFFF AND DUP2 MSTORE PUSH1 0x20 ADD SWAP1 DUP2 MSTORE PUSH1 0x20 ADD PUSH1 0x0 KECCAK256 PUSH1 0x3 ADD DUP2 SWAP1 DUP1 PUSH1 0x1 DUP2 SLOAD ADD DUP1 DUP3 SSTORE DUP1 SWAP2 POP POP PUSH1 0x1 SWAP1 SUB SWAP1 PUSH1 0x0 MSTORE PUSH1 0x20 PUSH1 0x0 KECCAK256 ADD PUSH1 0x0 SWAP1 SWAP2 SWAP1 SWAP2 SWAP1 SWAP2 POP SWAP1 DUP2 PUSH2 0x102A SWAP2 SWAP1 PUSH2 0x1C8C JUMP JUMPDEST POP POP JUMP JUMPDEST PUSH1 0x3 PUSH1 0x0 DUP3 PUSH20 0xFFFFFFFFFFFFFFFFFFFFFFFFFFFFFFFFFFFFFFFF AND PUSH20 0xFFFFFFFFFFFFFFFFFFFFFFFFFFFFFFFFFFFFFFFF AND DUP2 MSTORE PUSH1 0x20 ADD SWAP1 DUP2 MSTORE PUSH1 0x20 ADD PUSH1 0x0 KECCAK256 DUP3 SWAP1 DUP1 PUSH1 0x1 DUP2 SLOAD ADD DUP1 DUP3 SSTORE DUP1 SWAP2 POP POP PUSH1 0x1 SWAP1 SUB SWAP1 PUSH1 0x0 MSTORE PUSH1 0x20 PUSH1 0x0 KECCAK256 ADD PUSH1 0x0 SWAP1 SWAP2 SWAP1 SWAP2 SWAP1 SWAP2 POP SSTORE POP POP JUMP JUMPDEST DUP1 PUSH1 0x1 PUSH1 0x0 CALLER PUSH20 0xFFFFFFFFFFFFFFFFFFFFFFFFFFFFFFFFFFFFFFFF AND PUSH20 0xFFFFFFFFFFFFFFFFFFFFFFFFFFFFFFFFFFFFFFFF AND DUP2 MSTORE PUSH1 0x20 ADD SWAP1 DUP2 MSTORE PUSH1 0x20 ADD PUSH1 0x0 KECCAK256 PUSH1 0x2 ADD DUP2 SWAP1 SSTORE POP POP JUMP JUMPDEST DUP3 DUP1 SLOAD DUP3 DUP3 SSTORE SWAP1 PUSH1 0x0 MSTORE PUSH1 0x20 PUSH1 0x0 KECCAK256 SWAP1 DUP2 ADD SWAP3 DUP3 ISZERO PUSH2 0x112A JUMPI SWAP2 PUSH1 0x20 MUL DUP3 ADD JUMPDEST DUP3 DUP2 GT ISZERO PUSH2 0x1129 JUMPI DUP3 MLOAD DUP3 SWAP1 DUP2 PUSH2 0x1119 SWAP2 SWAP1 PUSH2 0x1C8C JUMP JUMPDEST POP SWAP2 PUSH1 0x20 ADD SWAP2 SWAP1 PUSH1 0x1 ADD SWAP1 PUSH2 0x1102 JUMP JUMPDEST JUMPDEST POP SWAP1 POP PUSH2 0x1137 SWAP2 SWAP1 PUSH2 0x113B JUMP JUMPDEST POP SWAP1 JUMP JUMPDEST JUMPDEST DUP1 DUP3 GT ISZERO PUSH2 0x115B JUMPI PUSH1 0x0 DUP2 DUP2 PUSH2 0x1152 SWAP2 SWAP1 PUSH2 0x115F JUMP JUMPDEST POP PUSH1 0x1 ADD PUSH2 0x113C JUMP JUMPDEST POP SWAP1 JUMP JUMPDEST POP DUP1 SLOAD PUSH2 0x116B SWAP1 PUSH2 0x1AAF JUMP JUMPDEST PUSH1 0x0 DUP3 SSTORE DUP1 PUSH1 0x1F LT PUSH2 0x117D JUMPI POP PUSH2 0x119C JUMP JUMPDEST PUSH1 0x1F ADD PUSH1 0x20 SWAP1 DIV SWAP1 PUSH1 0x0 MSTORE PUSH1 0x20 PUSH1 0x0 KECCAK256 SWAP1 DUP2 ADD SWAP1 PUSH2 0x119B SWAP2 SWAP1 PUSH2 0x119F JUMP JUMPDEST JUMPDEST POP JUMP JUMPDEST JUMPDEST DUP1 DUP3 GT ISZERO PUSH2 0x11B8 JUMPI PUSH1 0x0 DUP2 PUSH1 0x0 SWAP1 SSTORE POP PUSH1 0x1 ADD PUSH2 0x11A0 JUMP JUMPDEST POP SWAP1 JUMP JUMPDEST PUSH1 0x0 PUSH1 0x40 MLOAD SWAP1 POP SWAP1 JUMP JUMPDEST PUSH1 0x0 DUP1 REVERT JUMPDEST PUSH1 0x0 DUP1 REVERT JUMPDEST PUSH1 0x0 PUSH20 0xFFFFFFFFFFFFFFFFFFFFFFFFFFFFFFFFFFFFFFFF DUP3 AND SWAP1 POP SWAP2 SWAP1 POP JUMP JUMPDEST PUSH1 0x0 PUSH2 0x11FB DUP3 PUSH2 0x11D0 JUMP JUMPDEST SWAP1 POP SWAP2 SWAP1 POP JUMP JUMPDEST PUSH2 0x120B DUP2 PUSH2 0x11F0 JUMP JUMPDEST DUP2 EQ PUSH2 0x1216 JUMPI PUSH1 0x0 DUP1 REVERT JUMPDEST POP JUMP JUMPDEST PUSH1 0x0 DUP2 CALLDATALOAD SWAP1 POP PUSH2 0x1228 DUP2 PUSH2 0x1202 JUMP JUMPDEST SWAP3 SWAP2 POP POP JUMP JUMPDEST PUSH1 0x0 PUSH1 0x20 DUP3 DUP5 SUB SLT ISZERO PUSH2 0x1244 JUMPI PUSH2 0x1243 PUSH2 0x11C6 JUMP JUMPDEST JUMPDEST PUSH1 0x0 PUSH2 0x1252 DUP5 DUP3 DUP6 ADD PUSH2 0x1219 JUMP JUMPDEST SWAP2 POP POP SWAP3 SWAP2 POP POP JUMP JUMPDEST PUSH1 0x0 DUP2 SWAP1 POP SWAP2 SWAP1 POP JUMP JUMPDEST PUSH2 0x126E DUP2 PUSH2 0x125B JUMP JUMPDEST DUP3 MSTORE POP POP JUMP JUMPDEST PUSH1 0x0 DUP2 MLOAD SWAP1 POP SWAP2 SWAP1 POP JUMP JUMPDEST PUSH1 0x0 DUP3 DUP3 MSTORE PUSH1 0x20 DUP3 ADD SWAP1 POP SWAP3 SWAP2 POP POP JUMP JUMPDEST PUSH1 0x0 JUMPDEST DUP4 DUP2 LT ISZERO PUSH2 0x12AE JUMPI DUP1 DUP3 ADD MLOAD DUP2 DUP5 ADD MSTORE PUSH1 0x20 DUP2 ADD SWAP1 POP PUSH2 0x1293 JUMP JUMPDEST PUSH1 0x0 DUP5 DUP5 ADD MSTORE POP POP POP POP JUMP JUMPDEST PUSH1 0x0 PUSH1 0x1F NOT PUSH1 0x1F DUP4 ADD AND SWAP1 POP SWAP2 SWAP1 POP JUMP JUMPDEST PUSH1 0x0 PUSH2 0x12D6 DUP3 PUSH2 0x1274 JUMP JUMPDEST PUSH2 0x12E0 DUP2 DUP6 PUSH2 0x127F JUMP JUMPDEST SWAP4 POP PUSH2 0x12F0 DUP2 DUP6 PUSH1 0x20 DUP7 ADD PUSH2 0x1290 JUMP JUMPDEST PUSH2 0x12F9 DUP2 PUSH2 0x12BA JUMP JUMPDEST DUP5 ADD SWAP2 POP POP SWAP3 SWAP2 POP POP JUMP JUMPDEST PUSH1 0x0 PUSH1 0x60 DUP3 ADD SWAP1 POP PUSH2 0x1319 PUSH1 0x0 DUP4 ADD DUP7 PUSH2 0x1265 JUMP JUMPDEST DUP2 DUP2 SUB PUSH1 0x20 DUP4 ADD MSTORE PUSH2 0x132B DUP2 DUP6 PUSH2 0x12CB JUMP JUMPDEST SWAP1 POP PUSH2 0x133A PUSH1 0x40 DUP4 ADD DUP5 PUSH2 0x1265 JUMP JUMPDEST SWAP5 SWAP4 POP POP POP POP JUMP JUMPDEST PUSH1 0x0 DUP1 REVERT JUMPDEST PUSH1 0x0 DUP1 REVERT JUMPDEST PUSH32 0x4E487B7100000000000000000000000000000000000000000000000000000000 PUSH1 0x0 MSTORE PUSH1 0x41 PUSH1 0x4 MSTORE PUSH1 0x24 PUSH1 0x0 REVERT JUMPDEST PUSH2 0x1384 DUP3 PUSH2 0x12BA JUMP JUMPDEST DUP2 ADD DUP2 DUP2 LT PUSH8 0xFFFFFFFFFFFFFFFF DUP3 GT OR ISZERO PUSH2 0x13A3 JUMPI PUSH2 0x13A2 PUSH2 0x134C JUMP JUMPDEST JUMPDEST DUP1 PUSH1 0x40 MSTORE POP POP POP JUMP JUMPDEST PUSH1 0x0 PUSH2 0x13B6 PUSH2 0x11BC JUMP JUMPDEST SWAP1 POP PUSH2 0x13C2 DUP3 DUP3 PUSH2 0x137B JUMP JUMPDEST SWAP2 SWAP1 POP JUMP JUMPDEST PUSH1 0x0 PUSH8 0xFFFFFFFFFFFFFFFF DUP3 GT ISZERO PUSH2 0x13E2 JUMPI PUSH2 0x13E1 PUSH2 0x134C JUMP JUMPDEST JUMPDEST PUSH2 0x13EB DUP3 PUSH2 0x12BA JUMP JUMPDEST SWAP1 POP PUSH1 0x20 DUP2 ADD SWAP1 POP SWAP2 SWAP1 POP JUMP JUMPDEST DUP3 DUP2 DUP4 CALLDATACOPY PUSH1 0x0 DUP4 DUP4 ADD MSTORE POP POP POP JUMP JUMPDEST PUSH1 0x0 PUSH2 0x141A PUSH2 0x1415 DUP5 PUSH2 0x13C7 JUMP JUMPDEST PUSH2 0x13AC JUMP JUMPDEST SWAP1 POP DUP3 DUP2 MSTORE PUSH1 0x20 DUP2 ADD DUP5 DUP5 DUP5 ADD GT ISZERO PUSH2 0x1436 JUMPI PUSH2 0x1435 PUSH2 0x1347 JUMP JUMPDEST JUMPDEST PUSH2 0x1441 DUP5 DUP3 DUP6 PUSH2 0x13F8 JUMP JUMPDEST POP SWAP4 SWAP3 POP POP POP JUMP JUMPDEST PUSH1 0x0 DUP3 PUSH1 0x1F DUP4 ADD SLT PUSH2 0x145E JUMPI PUSH2 0x145D PUSH2 0x1342 JUMP JUMPDEST JUMPDEST DUP2 CALLDATALOAD PUSH2 0x146E DUP5 DUP3 PUSH1 0x20 DUP7 ADD PUSH2 0x1407 JUMP JUMPDEST SWAP2 POP POP SWAP3 SWAP2 POP POP JUMP JUMPDEST PUSH2 0x1480 DUP2 PUSH2 0x125B JUMP JUMPDEST DUP2 EQ PUSH2 0x148B JUMPI PUSH1 0x0 DUP1 REVERT JUMPDEST POP JUMP JUMPDEST PUSH1 0x0 DUP2 CALLDATALOAD SWAP1 POP PUSH2 0x149D DUP2 PUSH2 0x1477 JUMP JUMPDEST SWAP3 SWAP2 POP POP JUMP JUMPDEST PUSH1 0x0 DUP1 PUSH1 0x40 DUP4 DUP6 SUB SLT ISZERO PUSH2 0x14BA JUMPI PUSH2 0x14B9 PUSH2 0x11C6 JUMP JUMPDEST JUMPDEST PUSH1 0x0 DUP4 ADD CALLDATALOAD PUSH8 0xFFFFFFFFFFFFFFFF DUP2 GT ISZERO PUSH2 0x14D8 JUMPI PUSH2 0x14D7 PUSH2 0x11CB JUMP JUMPDEST JUMPDEST PUSH2 0x14E4 DUP6 DUP3 DUP7 ADD PUSH2 0x1449 JUMP JUMPDEST SWAP3 POP POP PUSH1 0x20 PUSH2 0x14F5 DUP6 DUP3 DUP7 ADD PUSH2 0x148E JUMP JUMPDEST SWAP2 POP POP SWAP3 POP SWAP3 SWAP1 POP JUMP JUMPDEST PUSH1 0x0 PUSH1 0x20 DUP3 ADD SWAP1 POP PUSH2 0x1514 PUSH1 0x0 DUP4 ADD DUP5 PUSH2 0x1265 JUMP JUMPDEST SWAP3 SWAP2 POP POP JUMP JUMPDEST PUSH1 0x0 DUP1 PUSH1 0x0 PUSH1 0x60 DUP5 DUP7 SUB SLT ISZERO PUSH2 0x1533 JUMPI PUSH2 0x1532 PUSH2 0x11C6 JUMP JUMPDEST JUMPDEST PUSH1 0x0 DUP5 ADD CALLDATALOAD PUSH8 0xFFFFFFFFFFFFFFFF DUP2 GT ISZERO PUSH2 0x1551 JUMPI PUSH2 0x1550 PUSH2 0x11CB JUMP JUMPDEST JUMPDEST PUSH2 0x155D DUP7 DUP3 DUP8 ADD PUSH2 0x1449 JUMP JUMPDEST SWAP4 POP POP PUSH1 0x20 DUP5 ADD CALLDATALOAD PUSH8 0xFFFFFFFFFFFFFFFF DUP2 GT ISZERO PUSH2 0x157E JUMPI PUSH2 0x157D PUSH2 0x11CB JUMP JUMPDEST JUMPDEST PUSH2 0x158A DUP7 DUP3 DUP8 ADD PUSH2 0x1449 JUMP JUMPDEST SWAP3 POP POP PUSH1 0x40 DUP5 ADD CALLDATALOAD PUSH8 0xFFFFFFFFFFFFFFFF DUP2 GT ISZERO PUSH2 0x15AB JUMPI PUSH2 0x15AA PUSH2 0x11CB JUMP JUMPDEST JUMPDEST PUSH2 0x15B7 DUP7 DUP3 DUP8 ADD PUSH2 0x1449 JUMP JUMPDEST SWAP2 POP POP SWAP3 POP SWAP3 POP SWAP3 JUMP JUMPDEST PUSH1 0x0 DUP1 PUSH1 0x0 DUP1 PUSH1 0x0 PUSH1 0xA0 DUP7 DUP9 SUB SLT ISZERO PUSH2 0x15DD JUMPI PUSH2 0x15DC PUSH2 0x11C6 JUMP JUMPDEST JUMPDEST PUSH1 0x0 PUSH2 0x15EB DUP9 DUP3 DUP10 ADD PUSH2 0x148E JUMP JUMPDEST SWAP6 POP POP PUSH1 0x20 DUP7 ADD CALLDATALOAD PUSH8 0xFFFFFFFFFFFFFFFF DUP2 GT ISZERO PUSH2 0x160C JUMPI PUSH2 0x160B PUSH2 0x11CB JUMP JUMPDEST JUMPDEST PUSH2 0x1618 DUP9 DUP3 DUP10 ADD PUSH2 0x1449 JUMP JUMPDEST SWAP5 POP POP PUSH1 0x40 PUSH2 0x1629 DUP9 DUP3 DUP10 ADD PUSH2 0x148E JUMP JUMPDEST SWAP4 POP POP PUSH1 0x60 PUSH2 0x163A DUP9 DUP3 DUP10 ADD PUSH2 0x148E JUMP JUMPDEST SWAP3 POP POP PUSH1 0x80 PUSH2 0x164B DUP9 DUP3 DUP10 ADD PUSH2 0x148E JUMP JUMPDEST SWAP2 POP POP SWAP3 SWAP6 POP SWAP3 SWAP6 SWAP1 SWAP4 POP JUMP JUMPDEST PUSH1 0x0 DUP1 PUSH1 0x40 DUP4 DUP6 SUB SLT ISZERO PUSH2 0x166F JUMPI PUSH2 0x166E PUSH2 0x11C6 JUMP JUMPDEST JUMPDEST PUSH1 0x0 PUSH2 0x167D DUP6 DUP3 DUP7 ADD PUSH2 0x1219 JUMP JUMPDEST SWAP3 POP POP PUSH1 0x20 PUSH2 0x168E DUP6 DUP3 DUP7 ADD PUSH2 0x148E JUMP JUMPDEST SWAP2 POP POP SWAP3 POP SWAP3 SWAP1 POP JUMP JUMPDEST PUSH1 0x0 PUSH1 0x80 DUP3 ADD SWAP1 POP PUSH2 0x16AD PUSH1 0x0 DUP4 ADD DUP8 PUSH2 0x1265 JUMP JUMPDEST DUP2 DUP2 SUB PUSH1 0x20 DUP4 ADD MSTORE PUSH2 0x16BF DUP2 DUP7 PUSH2 0x12CB JUMP JUMPDEST SWAP1 POP DUP2 DUP2 SUB PUSH1 0x40 DUP4 ADD MSTORE PUSH2 0x16D3 DUP2 DUP6 PUSH2 0x12CB JUMP JUMPDEST SWAP1 POP DUP2 DUP2 SUB PUSH1 0x60 DUP4 ADD MSTORE PUSH2 0x16E7 DUP2 DUP5 PUSH2 0x12CB JUMP JUMPDEST SWAP1 POP SWAP6 SWAP5 POP POP POP POP POP JUMP JUMPDEST PUSH1 0x0 DUP2 MLOAD SWAP1 POP SWAP2 SWAP1 POP JUMP JUMPDEST PUSH1 0x0 DUP3 DUP3 MSTORE PUSH1 0x20 DUP3 ADD SWAP1 POP SWAP3 SWAP2 POP POP JUMP JUMPDEST PUSH1 0x0 DUP2 SWAP1 POP PUSH1 0x20 DUP3 ADD SWAP1 POP SWAP2 SWAP1 POP JUMP JUMPDEST PUSH1 0x0 DUP3 DUP3 MSTORE PUSH1 0x20 DUP3 ADD SWAP1 POP SWAP3 SWAP2 POP POP JUMP JUMPDEST PUSH1 0x0 PUSH2 0x173A DUP3 PUSH2 0x1274 JUMP JUMPDEST PUSH2 0x1744 DUP2 DUP6 PUSH2 0x171E JUMP JUMPDEST SWAP4 POP PUSH2 0x1754 DUP2 DUP6 PUSH1 0x20 DUP7 ADD PUSH2 0x1290 JUMP JUMPDEST PUSH2 0x175D DUP2 PUSH2 0x12BA JUMP JUMPDEST DUP5 ADD SWAP2 POP POP SWAP3 SWAP2 POP POP JUMP JUMPDEST PUSH1 0x0 PUSH2 0x1774 DUP4 DUP4 PUSH2 0x172F JUMP JUMPDEST SWAP1 POP SWAP3 SWAP2 POP POP JUMP JUMPDEST PUSH1 0x0 PUSH1 0x20 DUP3 ADD SWAP1 POP SWAP2 SWAP1 POP JUMP JUMPDEST PUSH1 0x0 PUSH2 0x1794 DUP3 PUSH2 0x16F2 JUMP JUMPDEST PUSH2 0x179E DUP2 DUP6 PUSH2 0x16FD JUMP JUMPDEST SWAP4 POP DUP4 PUSH1 0x20 DUP3 MUL DUP6 ADD PUSH2 0x17B0 DUP6 PUSH2 0x170E JUMP JUMPDEST DUP1 PUSH1 0x0 JUMPDEST DUP6 DUP2 LT ISZERO PUSH2 0x17EC JUMPI DUP5 DUP5 SUB DUP10 MSTORE DUP2 MLOAD PUSH2 0x17CD DUP6 DUP3 PUSH2 0x1768 JUMP JUMPDEST SWAP5 POP PUSH2 0x17D8 DUP4 PUSH2 0x177C JUMP JUMPDEST SWAP3 POP PUSH1 0x20 DUP11 ADD SWAP10 POP POP PUSH1 0x1 DUP2 ADD SWAP1 POP PUSH2 0x17B4 JUMP JUMPDEST POP DUP3 SWAP8 POP DUP8 SWAP6 POP POP POP POP POP POP SWAP3 SWAP2 POP POP JUMP JUMPDEST PUSH1 0x0 DUP2 MLOAD SWAP1 POP SWAP2 SWAP1 POP JUMP JUMPDEST PUSH1 0x0 DUP3 DUP3 MSTORE PUSH1 0x20 DUP3 ADD SWAP1 POP SWAP3 SWAP2 POP POP JUMP JUMPDEST PUSH1 0x0 DUP2 SWAP1 POP PUSH1 0x20 DUP3 ADD SWAP1 POP SWAP2 SWAP1 POP JUMP JUMPDEST PUSH2 0x1833 DUP2 PUSH2 0x125B JUMP JUMPDEST DUP3 MSTORE POP POP JUMP JUMPDEST PUSH1 0x0 PUSH2 0x1845 DUP4 DUP4 PUSH2 0x182A JUMP JUMPDEST PUSH1 0x20 DUP4 ADD SWAP1 POP SWAP3 SWAP2 POP POP JUMP JUMPDEST PUSH1 0x0 PUSH1 0x20 DUP3 ADD SWAP1 POP SWAP2 SWAP1 POP JUMP JUMPDEST PUSH1 0x0 PUSH2 0x1869 DUP3 PUSH2 0x17FE JUMP JUMPDEST PUSH2 0x1873 DUP2 DUP6 PUSH2 0x1809 JUMP JUMPDEST SWAP4 POP PUSH2 0x187E DUP4 PUSH2 0x181A JUMP JUMPDEST DUP1 PUSH1 0x0 JUMPDEST DUP4 DUP2 LT ISZERO PUSH2 0x18AF JUMPI DUP2 MLOAD PUSH2 0x1896 DUP9 DUP3 PUSH2 0x1839 JUMP JUMPDEST SWAP8 POP PUSH2 0x18A1 DUP4 PUSH2 0x1851 JUMP JUMPDEST SWAP3 POP POP PUSH1 0x1 DUP2 ADD SWAP1 POP PUSH2 0x1882 JUMP JUMPDEST POP DUP6 SWAP4 POP POP POP POP SWAP3 SWAP2 POP POP JUMP JUMPDEST PUSH1 0x0 PUSH1 0xA0 DUP3 ADD SWAP1 POP PUSH2 0x18D1 PUSH1 0x0 DUP4 ADD DUP9 PUSH2 0x1265 JUMP JUMPDEST DUP2 DUP2 SUB PUSH1 0x20 DUP4 ADD MSTORE PUSH2 0x18E3 DUP2 DUP8 PUSH2 0x12CB JUMP JUMPDEST SWAP1 POP PUSH2 0x18F2 PUSH1 0x40 DUP4 ADD DUP7 PUSH2 0x1265 JUMP JUMPDEST DUP2 DUP2 SUB PUSH1 0x60 DUP4 ADD MSTORE PUSH2 0x1904 DUP2 DUP6 PUSH2 0x1789 JUMP JUMPDEST SWAP1 POP DUP2 DUP2 SUB PUSH1 0x80 DUP4 ADD MSTORE PUSH2 0x1918 DUP2 DUP5 PUSH2 0x185E JUMP JUMPDEST SWAP1 POP SWAP7 SWAP6 POP POP POP POP POP POP JUMP JUMPDEST PUSH1 0x0 PUSH1 0x20 DUP3 DUP5 SUB SLT ISZERO PUSH2 0x193A JUMPI PUSH2 0x1939 PUSH2 0x11C6 JUMP JUMPDEST JUMPDEST PUSH1 0x0 PUSH2 0x1948 DUP5 DUP3 DUP6 ADD PUSH2 0x148E JUMP JUMPDEST SWAP2 POP POP SWAP3 SWAP2 POP POP JUMP JUMPDEST PUSH1 0x0 PUSH1 0xA0 DUP3 ADD SWAP1 POP PUSH2 0x1966 PUSH1 0x0 DUP4 ADD DUP9 PUSH2 0x1265 JUMP JUMPDEST DUP2 DUP2 SUB PUSH1 0x20 DUP4 ADD MSTORE PUSH2 0x1978 DUP2 DUP8 PUSH2 0x12CB JUMP JUMPDEST SWAP1 POP PUSH2 0x1987 PUSH1 0x40 DUP4 ADD DUP7 PUSH2 0x1265 JUMP JUMPDEST PUSH2 0x1994 PUSH1 0x60 DUP4 ADD DUP6 PUSH2 0x1265 JUMP JUMPDEST PUSH2 0x19A1 PUSH1 0x80 DUP4 ADD DUP5 PUSH2 0x1265 JUMP JUMPDEST SWAP7 SWAP6 POP POP POP POP POP POP JUMP JUMPDEST PUSH1 0x0 PUSH1 0x80 DUP3 ADD SWAP1 POP DUP2 DUP2 SUB PUSH1 0x0 DUP4 ADD MSTORE PUSH2 0x19C5 DUP2 DUP8 PUSH2 0x12CB JUMP JUMPDEST SWAP1 POP PUSH2 0x19D4 PUSH1 0x20 DUP4 ADD DUP7 PUSH2 0x1265 JUMP JUMPDEST PUSH2 0x19E1 PUSH1 0x40 DUP4 ADD DUP6 PUSH2 0x1265 JUMP JUMPDEST PUSH2 0x19EE PUSH1 0x60 DUP4 ADD DUP5 PUSH2 0x1265 JUMP JUMPDEST SWAP6 SWAP5 POP POP POP POP POP JUMP JUMPDEST PUSH1 0x0 PUSH1 0x20 DUP3 DUP5 SUB SLT ISZERO PUSH2 0x1A0D JUMPI PUSH2 0x1A0C PUSH2 0x11C6 JUMP JUMPDEST JUMPDEST PUSH1 0x0 DUP3 ADD CALLDATALOAD PUSH8 0xFFFFFFFFFFFFFFFF DUP2 GT ISZERO PUSH2 0x1A2B JUMPI PUSH2 0x1A2A PUSH2 0x11CB JUMP JUMPDEST JUMPDEST PUSH2 0x1A37 DUP5 DUP3 DUP6 ADD PUSH2 0x1449 JUMP JUMPDEST SWAP2 POP POP SWAP3 SWAP2 POP POP JUMP JUMPDEST PUSH1 0x0 DUP1 PUSH1 0x40 DUP4 DUP6 SUB SLT ISZERO PUSH2 0x1A57 JUMPI PUSH2 0x1A56 PUSH2 0x11C6 JUMP JUMPDEST JUMPDEST PUSH1 0x0 PUSH2 0x1A65 DUP6 DUP3 DUP7 ADD PUSH2 0x148E JUMP JUMPDEST SWAP3 POP POP PUSH1 0x20 PUSH2 0x1A76 DUP6 DUP3 DUP7 ADD PUSH2 0x1219 JUMP JUMPDEST SWAP2 POP POP SWAP3 POP SWAP3 SWAP1 POP JUMP JUMPDEST PUSH32 0x4E487B7100000000000000000000000000000000000000000000000000000000 PUSH1 0x0 MSTORE PUSH1 0x22 PUSH1 0x4 MSTORE PUSH1 0x24 PUSH1 0x0 REVERT JUMPDEST PUSH1 0x0 PUSH1 0x2 DUP3 DIV SWAP1 POP PUSH1 0x1 DUP3 AND DUP1 PUSH2 0x1AC7 JUMPI PUSH1 0x7F DUP3 AND SWAP2 POP JUMPDEST PUSH1 0x20 DUP3 LT DUP2 SUB PUSH2 0x1ADA JUMPI PUSH2 0x1AD9 PUSH2 0x1A80 JUMP JUMPDEST JUMPDEST POP SWAP2 SWAP1 POP JUMP JUMPDEST PUSH1 0x0 DUP2 SWAP1 POP DUP2 PUSH1 0x0 MSTORE PUSH1 0x20 PUSH1 0x0 KECCAK256 SWAP1 POP SWAP2 SWAP1 POP JUMP JUMPDEST PUSH1 0x0 PUSH1 0x20 PUSH1 0x1F DUP4 ADD DIV SWAP1 POP SWAP2 SWAP1 POP JUMP JUMPDEST PUSH1 0x0 DUP3 DUP3 SHL SWAP1 POP SWAP3 SWAP2 POP POP JUMP JUMPDEST PUSH1 0x0 PUSH1 0x8 DUP4 MUL PUSH2 0x1B42 PUSH32 0xFFFFFFFFFFFFFFFFFFFFFFFFFFFFFFFFFFFFFFFFFFFFFFFFFFFFFFFFFFFFFFFF DUP3 PUSH2 0x1B05 JUMP JUMPDEST PUSH2 0x1B4C DUP7 DUP4 PUSH2 0x1B05 JUMP JUMPDEST SWAP6 POP DUP1 NOT DUP5 AND SWAP4 POP DUP1 DUP7 AND DUP5 OR SWAP3 POP POP POP SWAP4 SWAP3 POP POP POP JUMP JUMPDEST PUSH1 0x0 DUP2 SWAP1 POP SWAP2 SWAP1 POP JUMP JUMPDEST PUSH1 0x0 PUSH2 0x1B89 PUSH2 0x1B84 PUSH2 0x1B7F DUP5 PUSH2 0x125B JUMP JUMPDEST PUSH2 0x1B64 JUMP JUMPDEST PUSH2 0x125B JUMP JUMPDEST SWAP1 POP SWAP2 SWAP1 POP JUMP JUMPDEST PUSH1 0x0 DUP2 SWAP1 POP SWAP2 SWAP1 POP JUMP JUMPDEST PUSH2 0x1BA3 DUP4 PUSH2 0x1B6E JUMP JUMPDEST PUSH2 0x1BB7 PUSH2 0x1BAF DUP3 PUSH2 0x1B90 JUMP JUMPDEST DUP5 DUP5 SLOAD PUSH2 0x1B12 JUMP JUMPDEST DUP3 SSTORE POP POP POP POP JUMP JUMPDEST PUSH1 0x0 SWAP1 JUMP JUMPDEST PUSH2 0x1BCC PUSH2 0x1BBF JUMP JUMPDEST PUSH2 0x1BD7 DUP2 DUP5 DUP5 PUSH2 0x1B9A JUMP JUMPDEST POP POP POP JUMP JUMPDEST JUMPDEST DUP2 DUP2 LT ISZERO PUSH2 0x1BFB JUMPI PUSH2 0x1BF0 PUSH1 0x0 DUP3 PUSH2 0x1BC4 JUMP JUMPDEST PUSH1 0x1 DUP2 ADD SWAP1 POP PUSH2 0x1BDD JUMP JUMPDEST POP POP JUMP JUMPDEST PUSH1 0x1F DUP3 GT ISZERO PUSH2 0x1C40 JUMPI PUSH2 0x1C11 DUP2 PUSH2 0x1AE0 JUMP JUMPDEST PUSH2 0x1C1A DUP5 PUSH2 0x1AF5 JUMP JUMPDEST DUP2 ADD PUSH1 0x20 DUP6 LT ISZERO PUSH2 0x1C29 JUMPI DUP2 SWAP1 POP JUMPDEST PUSH2 0x1C3D PUSH2 0x1C35 DUP6 PUSH2 0x1AF5 JUMP JUMPDEST DUP4 ADD DUP3 PUSH2 0x1BDC JUMP JUMPDEST POP POP JUMPDEST POP POP POP JUMP JUMPDEST PUSH1 0x0 DUP3 DUP3 SHR SWAP1 POP SWAP3 SWAP2 POP POP JUMP JUMPDEST PUSH1 0x0 PUSH2 0x1C63 PUSH1 0x0 NOT DUP5 PUSH1 0x8 MUL PUSH2 0x1C45 JUMP JUMPDEST NOT DUP1 DUP4 AND SWAP2 POP POP SWAP3 SWAP2 POP POP JUMP JUMPDEST PUSH1 0x0 PUSH2 0x1C7C DUP4 DUP4 PUSH2 0x1C52 JUMP JUMPDEST SWAP2 POP DUP3 PUSH1 0x2 MUL DUP3 OR SWAP1 POP SWAP3 SWAP2 POP POP JUMP JUMPDEST PUSH2 0x1C95 DUP3 PUSH2 0x1274 JUMP JUMPDEST PUSH8 0xFFFFFFFFFFFFFFFF DUP2 GT ISZERO PUSH2 0x1CAE JUMPI PUSH2 0x1CAD PUSH2 0x134C JUMP JUMPDEST JUMPDEST PUSH2 0x1CB8 DUP3 SLOAD PUSH2 0x1AAF JUMP JUMPDEST PUSH2 0x1CC3 DUP3 DUP3 DUP6 PUSH2 0x1BFF JUMP JUMPDEST PUSH1 0x0 PUSH1 0x20 SWAP1 POP PUSH1 0x1F DUP4 GT PUSH1 0x1 DUP2 EQ PUSH2 0x1CF6 JUMPI PUSH1 0x0 DUP5 ISZERO PUSH2 0x1CE4 JUMPI DUP3 DUP8 ADD MLOAD SWAP1 POP JUMPDEST PUSH2 0x1CEE DUP6 DUP3 PUSH2 0x1C70 JUMP JUMPDEST DUP7 SSTORE POP PUSH2 0x1D56 JUMP JUMPDEST PUSH1 0x1F NOT DUP5 AND PUSH2 0x1D04 DUP7 PUSH2 0x1AE0 JUMP JUMPDEST PUSH1 0x0 JUMPDEST DUP3 DUP2 LT ISZERO PUSH2 0x1D2C JUMPI DUP5 DUP10 ADD MLOAD DUP3 SSTORE PUSH1 0x1 DUP3 ADD SWAP2 POP PUSH1 0x20 DUP6 ADD SWAP5 POP PUSH1 0x20 DUP2 ADD SWAP1 POP PUSH2 0x1D07 JUMP JUMPDEST DUP7 DUP4 LT ISZERO PUSH2 0x1D49 JUMPI DUP5 DUP10 ADD MLOAD PUSH2 0x1D45 PUSH1 0x1F DUP10 AND DUP3 PUSH2 0x1C52 JUMP JUMPDEST DUP4 SSTORE POP JUMPDEST PUSH1 0x1 PUSH1 0x2 DUP9 MUL ADD DUP9 SSTORE POP POP POP JUMPDEST POP POP POP POP POP POP JUMP JUMPDEST PUSH32 0x4E487B7100000000000000000000000000000000000000000000000000000000 PUSH1 0x0 MSTORE PUSH1 0x11 PUSH1 0x4 MSTORE PUSH1 0x24 PUSH1 0x0 REVERT JUMPDEST PUSH1 0x0 PUSH2 0x1D98 DUP3 PUSH2 0x125B JUMP JUMPDEST SWAP2 POP PUSH32 0xFFFFFFFFFFFFFFFFFFFFFFFFFFFFFFFFFFFFFFFFFFFFFFFFFFFFFFFFFFFFFFFF DUP3 SUB PUSH2 0x1DCA JUMPI PUSH2 0x1DC9 PUSH2 0x1D5E JUMP JUMPDEST JUMPDEST PUSH1 0x1 DUP3 ADD SWAP1 POP SWAP2 SWAP1 POP JUMP INVALID LOG2 PUSH5 0x6970667358 0x22 SLT KECCAK256 0xB7 LOG3 0xB2 0x2D 0xDF PUSH26 0x61B11A7A4576233297A5DF3AC9630F4489BBBA111F590DB997A8 PUSH5 0x736F6C6343 STOP ADDMOD SLT STOP CALLER "
				},
				"gasEstimates": {
					"creation": {
						"codeDepositCost": "1538200",
						"executionCost": "1610",
						"totalCost": "1539810"
					},
					"external": {
						"addDisease(string)": "infinite",
						"addMedicine(uint256,string,uint256,uint256,uint256)": "infinite",
						"doctorCount()": "2496",
						"doctors(address)": "infinite",
						"medicineCount()": "2497",
						"medicines(uint256)": "infinite",
						"patientCount()": "2518",
						"patientMedicines(address,uint256)": "infinite",
						"patients(address)": "infinite",
						"prescribeMedicine(uint256,address)": "47207",
						"registerDoctor(string,string,string)": "infinite",
						"registerPatient(string,uint256)": "infinite",
						"updatePatientAge(uint256)": "22703",
						"viewDoctorDetails(address)": "infinite",
						"viewMedicineDetails(uint256)": "infinite",
						"viewPatientData(address)": "infinite"
					}
				},
				"methodIdentifiers": {
					"addDisease(string)": "d47c029c",
					"addMedicine(uint256,string,uint256,uint256,uint256)": "62ed105e",
					"doctorCount()": "78522bc4",
					"doctors(address)": "a9583c22",
					"medicineCount()": "4dafd490",
					"medicines(uint256)": "c85e766d",
					"patientCount()": "a0303c41",
					"patientMedicines(address,uint256)": "77b4fb94",
					"patients(address)": "0869cfbc",
					"prescribeMedicine(uint256,address)": "dcd0c2b2",
					"registerDoctor(string,string,string)": "50c7a912",
					"registerPatient(string,uint256)": "2de304ed",
					"updatePatientAge(uint256)": "e98ee2f0",
					"viewDoctorDetails(address)": "c140261c",
					"viewMedicineDetails(uint256)": "cc7fa220",
					"viewPatientData(address)": "bd8247bf"
				}
			},
			"storageLayout": {
				"storage": [
					{
						"astId": 36,
						"contract": "contracts/med.sol:MedicalRecords",
						"label": "doctors",
						"offset": 0,
						"slot": "0",
						"type": "t_mapping(t_address,t_struct(Doctor)10_storage)"
					},
					{
						"astId": 41,
						"contract": "contracts/med.sol:MedicalRecords",
						"label": "patients",
						"offset": 0,
						"slot": "1",
						"type": "t_mapping(t_address,t_struct(Patient)20_storage)"
					},
					{
						"astId": 46,
						"contract": "contracts/med.sol:MedicalRecords",
						"label": "medicines",
						"offset": 0,
						"slot": "2",
						"type": "t_mapping(t_uint256,t_struct(Medicine)31_storage)"
					},
					{
						"astId": 51,
						"contract": "contracts/med.sol:MedicalRecords",
						"label": "patientMedicines",
						"offset": 0,
						"slot": "3",
						"type": "t_mapping(t_address,t_array(t_uint256)dyn_storage)"
					},
					{
						"astId": 53,
						"contract": "contracts/med.sol:MedicalRecords",
						"label": "doctorCount",
						"offset": 0,
						"slot": "4",
						"type": "t_uint256"
					},
					{
						"astId": 55,
						"contract": "contracts/med.sol:MedicalRecords",
						"label": "patientCount",
						"offset": 0,
						"slot": "5",
						"type": "t_uint256"
					},
					{
						"astId": 57,
						"contract": "contracts/med.sol:MedicalRecords",
						"label": "medicineCount",
						"offset": 0,
						"slot": "6",
						"type": "t_uint256"
					}
				],
				"types": {
					"t_address": {
						"encoding": "inplace",
						"label": "address",
						"numberOfBytes": "20"
					},
					"t_array(t_string_storage)dyn_storage": {
						"base": "t_string_storage",
						"encoding": "dynamic_array",
						"label": "string[]",
						"numberOfBytes": "32"
					},
					"t_array(t_uint256)dyn_storage": {
						"base": "t_uint256",
						"encoding": "dynamic_array",
						"label": "uint256[]",
						"numberOfBytes": "32"
					},
					"t_mapping(t_address,t_array(t_uint256)dyn_storage)": {
						"encoding": "mapping",
						"key": "t_address",
						"label": "mapping(address => uint256[])",
						"numberOfBytes": "32",
						"value": "t_array(t_uint256)dyn_storage"
					},
					"t_mapping(t_address,t_struct(Doctor)10_storage)": {
						"encoding": "mapping",
						"key": "t_address",
						"label": "mapping(address => struct MedicalRecords.Doctor)",
						"numberOfBytes": "32",
						"value": "t_struct(Doctor)10_storage"
					},
					"t_mapping(t_address,t_struct(Patient)20_storage)": {
						"encoding": "mapping",
						"key": "t_address",
						"label": "mapping(address => struct MedicalRecords.Patient)",
						"numberOfBytes": "32",
						"value": "t_struct(Patient)20_storage"
					},
					"t_mapping(t_uint256,t_struct(Medicine)31_storage)": {
						"encoding": "mapping",
						"key": "t_uint256",
						"label": "mapping(uint256 => struct MedicalRecords.Medicine)",
						"numberOfBytes": "32",
						"value": "t_struct(Medicine)31_storage"
					},
					"t_string_storage": {
						"encoding": "bytes",
						"label": "string",
						"numberOfBytes": "32"
					},
					"t_struct(Doctor)10_storage": {
						"encoding": "inplace",
						"label": "struct MedicalRecords.Doctor",
						"members": [
							{
								"astId": 3,
								"contract": "contracts/med.sol:MedicalRecords",
								"label": "id",
								"offset": 0,
								"slot": "0",
								"type": "t_uint256"
							},
							{
								"astId": 5,
								"contract": "contracts/med.sol:MedicalRecords",
								"label": "name",
								"offset": 0,
								"slot": "1",
								"type": "t_string_storage"
							},
							{
								"astId": 7,
								"contract": "contracts/med.sol:MedicalRecords",
								"label": "qualification",
								"offset": 0,
								"slot": "2",
								"type": "t_string_storage"
							},
							{
								"astId": 9,
								"contract": "contracts/med.sol:MedicalRecords",
								"label": "workPlace",
								"offset": 0,
								"slot": "3",
								"type": "t_string_storage"
							}
						],
						"numberOfBytes": "128"
					},
					"t_struct(Medicine)31_storage": {
						"encoding": "inplace",
						"label": "struct MedicalRecords.Medicine",
						"members": [
							{
								"astId": 22,
								"contract": "contracts/med.sol:MedicalRecords",
								"label": "id",
								"offset": 0,
								"slot": "0",
								"type": "t_uint256"
							},
							{
								"astId": 24,
								"contract": "contracts/med.sol:MedicalRecords",
								"label": "name",
								"offset": 0,
								"slot": "1",
								"type": "t_string_storage"
							},
							{
								"astId": 26,
								"contract": "contracts/med.sol:MedicalRecords",
								"label": "expiryDate",
								"offset": 0,
								"slot": "2",
								"type": "t_uint256"
							},
							{
								"astId": 28,
								"contract": "contracts/med.sol:MedicalRecords",
								"label": "dose",
								"offset": 0,
								"slot": "3",
								"type": "t_uint256"
							},
							{
								"astId": 30,
								"contract": "contracts/med.sol:MedicalRecords",
								"label": "price",
								"offset": 0,
								"slot": "4",
								"type": "t_uint256"
							}
						],
						"numberOfBytes": "160"
					},
					"t_struct(Patient)20_storage": {
						"encoding": "inplace",
						"label": "struct MedicalRecords.Patient",
						"members": [
							{
								"astId": 12,
								"contract": "contracts/med.sol:MedicalRecords",
								"label": "id",
								"offset": 0,
								"slot": "0",
								"type": "t_uint256"
							},
							{
								"astId": 14,
								"contract": "contracts/med.sol:MedicalRecords",
								"label": "name",
								"offset": 0,
								"slot": "1",
								"type": "t_string_storage"
							},
							{
								"astId": 16,
								"contract": "contracts/med.sol:MedicalRecords",
								"label": "age",
								"offset": 0,
								"slot": "2",
								"type": "t_uint256"
							},
							{
								"astId": 19,
								"contract": "contracts/med.sol:MedicalRecords",
								"label": "diseases",
								"offset": 0,
								"slot": "3",
								"type": "t_array(t_string_storage)dyn_storage"
							}
						],
						"numberOfBytes": "128"
					},
					"t_uint256": {
						"encoding": "inplace",
						"label": "uint256",
						"numberOfBytes": "32"
					}
				}
			},
			"userdoc": {
				"kind": "user",
				"methods": {},
				"version": 1
			}
		}
	}
}