{
	"contracts/project1.sol": {
		"MigrantWorkerDapp": {
			"abi": [
				{
					"anonymous": false,
					"inputs": [
						{
							"indexed": false,
							"internalType": "uint256",
							"name": "applicantId",
							"type": "uint256"
						},
						{
							"indexed": false,
							"internalType": "uint256",
							"name": "jobId",
							"type": "uint256"
						}
					],
					"name": "ApplicantApplied",
					"type": "event"
				},
				{
					"anonymous": false,
					"inputs": [
						{
							"indexed": false,
							"internalType": "uint256",
							"name": "id",
							"type": "uint256"
						},
						{
							"indexed": false,
							"internalType": "string",
							"name": "name",
							"type": "string"
						}
					],
					"name": "NewApplicantAdded",
					"type": "event"
				},
				{
					"anonymous": false,
					"inputs": [
						{
							"indexed": false,
							"internalType": "uint256",
							"name": "id",
							"type": "uint256"
						},
						{
							"indexed": false,
							"internalType": "string",
							"name": "title",
							"type": "string"
						}
					],
					"name": "NewJobAdded",
					"type": "event"
				},
				{
					"anonymous": false,
					"inputs": [
						{
							"indexed": false,
							"internalType": "uint256",
							"name": "applicantId",
							"type": "uint256"
						},
						{
							"indexed": false,
							"internalType": "uint256",
							"name": "ratingValue",
							"type": "uint256"
						}
					],
					"name": "RatingProvided",
					"type": "event"
				},
				{
					"inputs": [
						{
							"internalType": "string",
							"name": "_name",
							"type": "string"
						},
						{
							"internalType": "string",
							"name": "_laborHistory",
							"type": "string"
						},
						{
							"internalType": "string",
							"name": "_skills",
							"type": "string"
						}
					],
					"name": "addNewApplicant",
					"outputs": [],
					"stateMutability": "nonpayable",
					"type": "function"
				},
				{
					"inputs": [
						{
							"internalType": "string",
							"name": "_title",
							"type": "string"
						},
						{
							"internalType": "string",
							"name": "_description",
							"type": "string"
						},
						{
							"internalType": "uint256",
							"name": "_salary",
							"type": "uint256"
						}
					],
					"name": "addNewJob",
					"outputs": [],
					"stateMutability": "nonpayable",
					"type": "function"
				},
				{
					"inputs": [],
					"name": "applicantCount",
					"outputs": [
						{
							"internalType": "uint256",
							"name": "",
							"type": "uint256"
						}
					],
					"stateMutability": "view",
					"type": "function"
				},
				{
					"inputs": [
						{
							"internalType": "uint256",
							"name": "",
							"type": "uint256"
						}
					],
					"name": "applicantRatings",
					"outputs": [
						{
							"internalType": "uint256",
							"name": "ratingValue",
							"type": "uint256"
						},
						{
							"internalType": "uint256",
							"name": "totalRatings",
							"type": "uint256"
						}
					],
					"stateMutability": "view",
					"type": "function"
				},
				{
					"inputs": [
						{
							"internalType": "uint256",
							"name": "",
							"type": "uint256"
						}
					],
					"name": "applicants",
					"outputs": [
						{
							"internalType": "uint256",
							"name": "id",
							"type": "uint256"
						},
						{
							"internalType": "string",
							"name": "name",
							"type": "string"
						},
						{
							"internalType": "string",
							"name": "laborHistory",
							"type": "string"
						},
						{
							"internalType": "string",
							"name": "skills",
							"type": "string"
						},
						{
							"internalType": "bool",
							"name": "isRegistered",
							"type": "bool"
						}
					],
					"stateMutability": "view",
					"type": "function"
				},
				{
					"inputs": [
						{
							"internalType": "uint256",
							"name": "_applicantId",
							"type": "uint256"
						},
						{
							"internalType": "uint256",
							"name": "_jobId",
							"type": "uint256"
						}
					],
					"name": "applyForJob",
					"outputs": [],
					"stateMutability": "nonpayable",
					"type": "function"
				},
				{
					"inputs": [
						{
							"internalType": "uint256",
							"name": "_applicantId",
							"type": "uint256"
						}
					],
					"name": "fetchApplicantRating",
					"outputs": [
						{
							"internalType": "uint256",
							"name": "",
							"type": "uint256"
						},
						{
							"internalType": "uint256",
							"name": "",
							"type": "uint256"
						}
					],
					"stateMutability": "view",
					"type": "function"
				},
				{
					"inputs": [
						{
							"internalType": "uint256",
							"name": "_applicantId",
							"type": "uint256"
						}
					],
					"name": "getApplicantDetails",
					"outputs": [
						{
							"internalType": "string",
							"name": "",
							"type": "string"
						},
						{
							"internalType": "string",
							"name": "",
							"type": "string"
						},
						{
							"internalType": "string",
							"name": "",
							"type": "string"
						}
					],
					"stateMutability": "view",
					"type": "function"
				},
				{
					"inputs": [
						{
							"internalType": "uint256",
							"name": "_applicantId",
							"type": "uint256"
						}
					],
					"name": "getApplicantType",
					"outputs": [
						{
							"internalType": "string",
							"name": "",
							"type": "string"
						}
					],
					"stateMutability": "view",
					"type": "function"
				},
				{
					"inputs": [
						{
							"internalType": "uint256",
							"name": "_jobId",
							"type": "uint256"
						}
					],
					"name": "getJobDetails",
					"outputs": [
						{
							"internalType": "string",
							"name": "",
							"type": "string"
						},
						{
							"internalType": "string",
							"name": "",
							"type": "string"
						},
						{
							"internalType": "uint256",
							"name": "",
							"type": "uint256"
						},
						{
							"internalType": "address",
							"name": "",
							"type": "address"
						}
					],
					"stateMutability": "view",
					"type": "function"
				},
				{
					"inputs": [],
					"name": "jobCount",
					"outputs": [
						{
							"internalType": "uint256",
							"name": "",
							"type": "uint256"
						}
					],
					"stateMutability": "view",
					"type": "function"
				},
				{
					"inputs": [
						{
							"internalType": "uint256",
							"name": "",
							"type": "uint256"
						}
					],
					"name": "jobs",
					"outputs": [
						{
							"internalType": "uint256",
							"name": "id",
							"type": "uint256"
						},
						{
							"internalType": "string",
							"name": "title",
							"type": "string"
						},
						{
							"internalType": "string",
							"name": "description",
							"type": "string"
						},
						{
							"internalType": "uint256",
							"name": "salary",
							"type": "uint256"
						},
						{
							"internalType": "address",
							"name": "provider",
							"type": "address"
						},
						{
							"internalType": "bool",
							"name": "isAvailable",
							"type": "bool"
						}
					],
					"stateMutability": "view",
					"type": "function"
				},
				{
					"inputs": [
						{
							"internalType": "uint256",
							"name": "_applicantId",
							"type": "uint256"
						},
						{
							"internalType": "uint256",
							"name": "_ratingValue",
							"type": "uint256"
						}
					],
					"name": "provideRating",
					"outputs": [],
					"stateMutability": "nonpayable",
					"type": "function"
				}
			],
			"devdoc": {
				"kind": "dev",
				"methods": {},
				"version": 1
			},
			"evm": {
				"assembly": "    /* \"contracts/project1.sol\":60:3850  contract MigrantWorkerDapp {... */\n  mstore(0x40, 0x80)\n  callvalue\n  dup1\n  iszero\n  tag_1\n  jumpi\n  0x00\n  dup1\n  revert\ntag_1:\n  pop\n  dataSize(sub_0)\n  dup1\n  dataOffset(sub_0)\n  0x00\n  codecopy\n  0x00\n  return\nstop\n\nsub_0: assembly {\n        /* \"contracts/project1.sol\":60:3850  contract MigrantWorkerDapp {... */\n      mstore(0x40, 0x80)\n      callvalue\n      dup1\n      iszero\n      tag_1\n      jumpi\n      0x00\n      dup1\n      revert\n    tag_1:\n      pop\n      jumpi(tag_2, lt(calldatasize, 0x04))\n      shr(0xe0, calldataload(0x00))\n      dup1\n      0x6c8548ff\n      gt\n      tag_16\n      jumpi\n      dup1\n      0x8798a47b\n      gt\n      tag_17\n      jumpi\n      dup1\n      0x8798a47b\n      eq\n      tag_12\n      jumpi\n      dup1\n      0x89fb1352\n      eq\n      tag_13\n      jumpi\n      dup1\n      0xbfc7a66e\n      eq\n      tag_14\n      jumpi\n      dup1\n      0xd280267d\n      eq\n      tag_15\n      jumpi\n      jump(tag_2)\n    tag_17:\n      dup1\n      0x6c8548ff\n      eq\n      tag_9\n      jumpi\n      dup1\n      0x725d89ba\n      eq\n      tag_10\n      jumpi\n      dup1\n      0x79c7b008\n      eq\n      tag_11\n      jumpi\n      jump(tag_2)\n    tag_16:\n      dup1\n      0x180aedf3\n      eq\n      tag_3\n      jumpi\n      dup1\n      0x18f53993\n      eq\n      tag_4\n      jumpi\n      dup1\n      0x4c5d8a0f\n      eq\n      tag_5\n      jumpi\n      dup1\n      0x4cac35c6\n      eq\n      tag_6\n      jumpi\n      dup1\n      0x63de5323\n      eq\n      tag_7\n      jumpi\n      dup1\n      0x640ed3fe\n      eq\n      tag_8\n      jumpi\n    tag_2:\n      0x00\n      dup1\n      revert\n        /* \"contracts/project1.sol\":570:602  mapping(uint => Job) public jobs */\n    tag_3:\n      tag_18\n      0x04\n      dup1\n      calldatasize\n      sub\n      dup2\n      add\n      swap1\n      tag_19\n      swap2\n      swap1\n      tag_20\n      jump\t// in\n    tag_19:\n      tag_21\n      jump\t// in\n    tag_18:\n      mload(0x40)\n      tag_22\n      swap7\n      swap6\n      swap5\n      swap4\n      swap3\n      swap2\n      swap1\n      tag_23\n      jump\t// in\n    tag_22:\n      mload(0x40)\n      dup1\n      swap2\n      sub\n      swap1\n      return\n        /* \"contracts/project1.sol\":669:695  uint public applicantCount */\n    tag_4:\n      tag_24\n      tag_25\n      jump\t// in\n    tag_24:\n      mload(0x40)\n      tag_26\n      swap2\n      swap1\n      tag_27\n      jump\t// in\n    tag_26:\n      mload(0x40)\n      dup1\n      swap2\n      sub\n      swap1\n      return\n        /* \"contracts/project1.sol\":702:722  uint public jobCount */\n    tag_5:\n      tag_28\n      tag_29\n      jump\t// in\n    tag_28:\n      mload(0x40)\n      tag_30\n      swap2\n      swap1\n      tag_27\n      jump\t// in\n    tag_30:\n      mload(0x40)\n      dup1\n      swap2\n      sub\n      swap1\n      return\n        /* \"contracts/project1.sol\":2377:2682  function getJobDetails(uint _jobId) public view returns (string memory, string memory, uint, address) {... */\n    tag_6:\n      tag_31\n      0x04\n      dup1\n      calldatasize\n      sub\n      dup2\n      add\n      swap1\n      tag_32\n      swap2\n      swap1\n      tag_20\n      jump\t// in\n    tag_32:\n      tag_33\n      jump\t// in\n    tag_31:\n      mload(0x40)\n      tag_34\n      swap5\n      swap4\n      swap3\n      swap2\n      swap1\n      tag_35\n      jump\t// in\n    tag_34:\n      mload(0x40)\n      dup1\n      swap2\n      sub\n      swap1\n      return\n        /* \"contracts/project1.sol\":519:563  mapping(uint => Applicant) public applicants */\n    tag_7:\n      tag_36\n      0x04\n      dup1\n      calldatasize\n      sub\n      dup2\n      add\n      swap1\n      tag_37\n      swap2\n      swap1\n      tag_20\n      jump\t// in\n    tag_37:\n      tag_38\n      jump\t// in\n    tag_36:\n      mload(0x40)\n      tag_39\n      swap6\n      swap5\n      swap4\n      swap3\n      swap2\n      swap1\n      tag_40\n      jump\t// in\n    tag_39:\n      mload(0x40)\n      dup1\n      swap2\n      sub\n      swap1\n      return\n        /* \"contracts/project1.sol\":2087:2341  function addNewJob(string memory _title, string memory _description, uint _salary) public {... */\n    tag_8:\n      tag_41\n      0x04\n      dup1\n      calldatasize\n      sub\n      dup2\n      add\n      swap1\n      tag_42\n      swap2\n      swap1\n      tag_43\n      jump\t// in\n    tag_42:\n      tag_44\n      jump\t// in\n    tag_41:\n      stop\n        /* \"contracts/project1.sol\":3564:3847  function fetchApplicantRating(uint _applicantId) public view returns (uint, uint) {... */\n    tag_9:\n      tag_45\n      0x04\n      dup1\n      calldatasize\n      sub\n      dup2\n      add\n      swap1\n      tag_46\n      swap2\n      swap1\n      tag_20\n      jump\t// in\n    tag_46:\n      tag_47\n      jump\t// in\n    tag_45:\n      mload(0x40)\n      tag_48\n      swap3\n      swap2\n      swap1\n      tag_49\n      jump\t// in\n    tag_48:\n      mload(0x40)\n      dup1\n      swap2\n      sub\n      swap1\n      return\n        /* \"contracts/project1.sol\":990:1288  function addNewApplicant(string memory _name, string memory _laborHistory, string memory _skills) public {... */\n    tag_10:\n      tag_50\n      0x04\n      dup1\n      calldatasize\n      sub\n      dup2\n      add\n      swap1\n      tag_51\n      swap2\n      swap1\n      tag_52\n      jump\t// in\n    tag_51:\n      tag_53\n      jump\t// in\n    tag_50:\n      stop\n        /* \"contracts/project1.sol\":609:656  mapping(uint => Rating) public applicantRatings */\n    tag_11:\n      tag_54\n      0x04\n      dup1\n      calldatasize\n      sub\n      dup2\n      add\n      swap1\n      tag_55\n      swap2\n      swap1\n      tag_20\n      jump\t// in\n    tag_55:\n      tag_56\n      jump\t// in\n    tag_54:\n      mload(0x40)\n      tag_57\n      swap3\n      swap2\n      swap1\n      tag_49\n      jump\t// in\n    tag_57:\n      mload(0x40)\n      dup1\n      swap2\n      sub\n      swap1\n      return\n        /* \"contracts/project1.sol\":1330:1659  function getApplicantDetails(uint _applicantId) public view returns (string memory, string memory, string memory) {... */\n    tag_12:\n      tag_58\n      0x04\n      dup1\n      calldatasize\n      sub\n      dup2\n      add\n      swap1\n      tag_59\n      swap2\n      swap1\n      tag_20\n      jump\t// in\n    tag_59:\n      tag_60\n      jump\t// in\n    tag_58:\n      mload(0x40)\n      tag_61\n      swap4\n      swap3\n      swap2\n      swap1\n      tag_62\n      jump\t// in\n    tag_61:\n      mload(0x40)\n      dup1\n      swap2\n      sub\n      swap1\n      return\n        /* \"contracts/project1.sol\":3077:3521  function provideRating(uint _applicantId, uint _ratingValue) public {... */\n    tag_13:\n      tag_63\n      0x04\n      dup1\n      calldatasize\n      sub\n      dup2\n      add\n      swap1\n      tag_64\n      swap2\n      swap1\n      tag_65\n      jump\t// in\n    tag_64:\n      tag_66\n      jump\t// in\n    tag_63:\n      stop\n        /* \"contracts/project1.sol\":2729:3024  function applyForJob(uint _applicantId, uint _jobId) public {... */\n    tag_14:\n      tag_67\n      0x04\n      dup1\n      calldatasize\n      sub\n      dup2\n      add\n      swap1\n      tag_68\n      swap2\n      swap1\n      tag_65\n      jump\t// in\n    tag_68:\n      tag_69\n      jump\t// in\n    tag_67:\n      stop\n        /* \"contracts/project1.sol\":1698:2039  function getApplicantType(uint _applicantId) public view returns (string memory) {... */\n    tag_15:\n      tag_70\n      0x04\n      dup1\n      calldatasize\n      sub\n      dup2\n      add\n      swap1\n      tag_71\n      swap2\n      swap1\n      tag_20\n      jump\t// in\n    tag_71:\n      tag_72\n      jump\t// in\n    tag_70:\n      mload(0x40)\n      tag_73\n      swap2\n      swap1\n      tag_74\n      jump\t// in\n    tag_73:\n      mload(0x40)\n      dup1\n      swap2\n      sub\n      swap1\n      return\n        /* \"contracts/project1.sol\":570:602  mapping(uint => Job) public jobs */\n    tag_21:\n      mstore(0x20, 0x01)\n      dup1\n      0x00\n      mstore\n      keccak256(0x00, 0x40)\n      0x00\n      swap2\n      pop\n      swap1\n      pop\n      dup1\n      0x00\n      add\n      sload\n      swap1\n      dup1\n      0x01\n      add\n      dup1\n      sload\n      tag_75\n      swap1\n      tag_76\n      jump\t// in\n    tag_75:\n      dup1\n      0x1f\n      add\n      0x20\n      dup1\n      swap2\n      div\n      mul\n      0x20\n      add\n      mload(0x40)\n      swap1\n      dup2\n      add\n      0x40\n      mstore\n      dup1\n      swap3\n      swap2\n      swap1\n      dup2\n      dup2\n      mstore\n      0x20\n      add\n      dup3\n      dup1\n      sload\n      tag_77\n      swap1\n      tag_76\n      jump\t// in\n    tag_77:\n      dup1\n      iszero\n      tag_78\n      jumpi\n      dup1\n      0x1f\n      lt\n      tag_79\n      jumpi\n      0x0100\n      dup1\n      dup4\n      sload\n      div\n      mul\n      dup4\n      mstore\n      swap2\n      0x20\n      add\n      swap2\n      jump(tag_78)\n    tag_79:\n      dup3\n      add\n      swap2\n      swap1\n      0x00\n      mstore\n      keccak256(0x00, 0x20)\n      swap1\n    tag_80:\n      dup2\n      sload\n      dup2\n      mstore\n      swap1\n      0x01\n      add\n      swap1\n      0x20\n      add\n      dup1\n      dup4\n      gt\n      tag_80\n      jumpi\n      dup3\n      swap1\n      sub\n      0x1f\n      and\n      dup3\n      add\n      swap2\n    tag_78:\n      pop\n      pop\n      pop\n      pop\n      pop\n      swap1\n      dup1\n      0x02\n      add\n      dup1\n      sload\n      tag_81\n      swap1\n      tag_76\n      jump\t// in\n    tag_81:\n      dup1\n      0x1f\n      add\n      0x20\n      dup1\n      swap2\n      div\n      mul\n      0x20\n      add\n      mload(0x40)\n      swap1\n      dup2\n      add\n      0x40\n      mstore\n      dup1\n      swap3\n      swap2\n      swap1\n      dup2\n      dup2\n      mstore\n      0x20\n      add\n      dup3\n      dup1\n      sload\n      tag_82\n      swap1\n      tag_76\n      jump\t// in\n    tag_82:\n      dup1\n      iszero\n      tag_83\n      jumpi\n      dup1\n      0x1f\n      lt\n      tag_84\n      jumpi\n      0x0100\n      dup1\n      dup4\n      sload\n      div\n      mul\n      dup4\n      mstore\n      swap2\n      0x20\n      add\n      swap2\n      jump(tag_83)\n    tag_84:\n      dup3\n      add\n      swap2\n      swap1\n      0x00\n      mstore\n      keccak256(0x00, 0x20)\n      swap1\n    tag_85:\n      dup2\n      sload\n      dup2\n      mstore\n      swap1\n      0x01\n      add\n      swap1\n      0x20\n      add\n      dup1\n      dup4\n      gt\n      tag_85\n      jumpi\n      dup3\n      swap1\n      sub\n      0x1f\n      and\n      dup3\n      add\n      swap2\n    tag_83:\n      pop\n      pop\n      pop\n      pop\n      pop\n      swap1\n      dup1\n      0x03\n      add\n      sload\n      swap1\n      dup1\n      0x04\n      add\n      0x00\n      swap1\n      sload\n      swap1\n      0x0100\n      exp\n      swap1\n      div\n      0xffffffffffffffffffffffffffffffffffffffff\n      and\n      swap1\n      dup1\n      0x04\n      add\n      0x14\n      swap1\n      sload\n      swap1\n      0x0100\n      exp\n      swap1\n      div\n      0xff\n      and\n      swap1\n      pop\n      dup7\n      jump\t// out\n        /* \"contracts/project1.sol\":669:695  uint public applicantCount */\n    tag_25:\n      sload(0x03)\n      dup2\n      jump\t// out\n        /* \"contracts/project1.sol\":702:722  uint public jobCount */\n    tag_29:\n      sload(0x04)\n      dup2\n      jump\t// out\n        /* \"contracts/project1.sol\":2377:2682  function getJobDetails(uint _jobId) public view returns (string memory, string memory, uint, address) {... */\n    tag_33:\n        /* \"contracts/project1.sol\":2434:2447  string memory */\n      0x60\n        /* \"contracts/project1.sol\":2449:2462  string memory */\n      dup1\n        /* \"contracts/project1.sol\":2464:2468  uint */\n      0x00\n        /* \"contracts/project1.sol\":2470:2477  address */\n      dup1\n        /* \"contracts/project1.sol\":2498:2502  jobs */\n      0x01\n        /* \"contracts/project1.sol\":2498:2510  jobs[_jobId] */\n      0x00\n        /* \"contracts/project1.sol\":2503:2509  _jobId */\n      dup7\n        /* \"contracts/project1.sol\":2498:2510  jobs[_jobId] */\n      dup2\n      mstore\n      0x20\n      add\n      swap1\n      dup2\n      mstore\n      0x20\n      add\n      0x00\n      keccak256\n        /* \"contracts/project1.sol\":2498:2522  jobs[_jobId].isAvailable */\n      0x04\n      add\n      0x14\n      swap1\n      sload\n      swap1\n      0x0100\n      exp\n      swap1\n      div\n      0xff\n      and\n        /* \"contracts/project1.sol\":2490:2566  require(jobs[_jobId].isAvailable, \"Job does not exist or is not available.\") */\n      tag_87\n      jumpi\n      mload(0x40)\n      0x08c379a000000000000000000000000000000000000000000000000000000000\n      dup2\n      mstore\n      0x04\n      add\n      tag_88\n      swap1\n      tag_89\n      jump\t// in\n    tag_88:\n      mload(0x40)\n      dup1\n      swap2\n      sub\n      swap1\n      revert\n    tag_87:\n        /* \"contracts/project1.sol\":2585:2589  jobs */\n      0x01\n        /* \"contracts/project1.sol\":2585:2597  jobs[_jobId] */\n      0x00\n        /* \"contracts/project1.sol\":2590:2596  _jobId */\n      dup7\n        /* \"contracts/project1.sol\":2585:2597  jobs[_jobId] */\n      dup2\n      mstore\n      0x20\n      add\n      swap1\n      dup2\n      mstore\n      0x20\n      add\n      0x00\n      keccak256\n        /* \"contracts/project1.sol\":2585:2603  jobs[_jobId].title */\n      0x01\n      add\n        /* \"contracts/project1.sol\":2605:2609  jobs */\n      0x01\n        /* \"contracts/project1.sol\":2605:2617  jobs[_jobId] */\n      0x00\n        /* \"contracts/project1.sol\":2610:2616  _jobId */\n      dup8\n        /* \"contracts/project1.sol\":2605:2617  jobs[_jobId] */\n      dup2\n      mstore\n      0x20\n      add\n      swap1\n      dup2\n      mstore\n      0x20\n      add\n      0x00\n      keccak256\n        /* \"contracts/project1.sol\":2605:2629  jobs[_jobId].description */\n      0x02\n      add\n        /* \"contracts/project1.sol\":2631:2635  jobs */\n      0x01\n        /* \"contracts/project1.sol\":2631:2643  jobs[_jobId] */\n      0x00\n        /* \"contracts/project1.sol\":2636:2642  _jobId */\n      dup9\n        /* \"contracts/project1.sol\":2631:2643  jobs[_jobId] */\n      dup2\n      mstore\n      0x20\n      add\n      swap1\n      dup2\n      mstore\n      0x20\n      add\n      0x00\n      keccak256\n        /* \"contracts/project1.sol\":2631:2650  jobs[_jobId].salary */\n      0x03\n      add\n      sload\n        /* \"contracts/project1.sol\":2652:2656  jobs */\n      0x01\n        /* \"contracts/project1.sol\":2652:2664  jobs[_jobId] */\n      0x00\n        /* \"contracts/project1.sol\":2657:2663  _jobId */\n      dup10\n        /* \"contracts/project1.sol\":2652:2664  jobs[_jobId] */\n      dup2\n      mstore\n      0x20\n      add\n      swap1\n      dup2\n      mstore\n      0x20\n      add\n      0x00\n      keccak256\n        /* \"contracts/project1.sol\":2652:2673  jobs[_jobId].provider */\n      0x04\n      add\n      0x00\n      swap1\n      sload\n      swap1\n      0x0100\n      exp\n      swap1\n      div\n      0xffffffffffffffffffffffffffffffffffffffff\n      and\n        /* \"contracts/project1.sol\":2577:2674  return (jobs[_jobId].title, jobs[_jobId].description, jobs[_jobId].salary, jobs[_jobId].provider) */\n      dup4\n      dup1\n      sload\n      tag_90\n      swap1\n      tag_76\n      jump\t// in\n    tag_90:\n      dup1\n      0x1f\n      add\n      0x20\n      dup1\n      swap2\n      div\n      mul\n      0x20\n      add\n      mload(0x40)\n      swap1\n      dup2\n      add\n      0x40\n      mstore\n      dup1\n      swap3\n      swap2\n      swap1\n      dup2\n      dup2\n      mstore\n      0x20\n      add\n      dup3\n      dup1\n      sload\n      tag_91\n      swap1\n      tag_76\n      jump\t// in\n    tag_91:\n      dup1\n      iszero\n      tag_92\n      jumpi\n      dup1\n      0x1f\n      lt\n      tag_93\n      jumpi\n      0x0100\n      dup1\n      dup4\n      sload\n      div\n      mul\n      dup4\n      mstore\n      swap2\n      0x20\n      add\n      swap2\n      jump(tag_92)\n    tag_93:\n      dup3\n      add\n      swap2\n      swap1\n      0x00\n      mstore\n      keccak256(0x00, 0x20)\n      swap1\n    tag_94:\n      dup2\n      sload\n      dup2\n      mstore\n      swap1\n      0x01\n      add\n      swap1\n      0x20\n      add\n      dup1\n      dup4\n      gt\n      tag_94\n      jumpi\n      dup3\n      swap1\n      sub\n      0x1f\n      and\n      dup3\n      add\n      swap2\n    tag_92:\n      pop\n      pop\n      pop\n      pop\n      pop\n      swap4\n      pop\n      dup3\n      dup1\n      sload\n      tag_95\n      swap1\n      tag_76\n      jump\t// in\n    tag_95:\n      dup1\n      0x1f\n      add\n      0x20\n      dup1\n      swap2\n      div\n      mul\n      0x20\n      add\n      mload(0x40)\n      swap1\n      dup2\n      add\n      0x40\n      mstore\n      dup1\n      swap3\n      swap2\n      swap1\n      dup2\n      dup2\n      mstore\n      0x20\n      add\n      dup3\n      dup1\n      sload\n      tag_96\n      swap1\n      tag_76\n      jump\t// in\n    tag_96:\n      dup1\n      iszero\n      tag_97\n      jumpi\n      dup1\n      0x1f\n      lt\n      tag_98\n      jumpi\n      0x0100\n      dup1\n      dup4\n      sload\n      div\n      mul\n      dup4\n      mstore\n      swap2\n      0x20\n      add\n      swap2\n      jump(tag_97)\n    tag_98:\n      dup3\n      add\n      swap2\n      swap1\n      0x00\n      mstore\n      keccak256(0x00, 0x20)\n      swap1\n    tag_99:\n      dup2\n      sload\n      dup2\n      mstore\n      swap1\n      0x01\n      add\n      swap1\n      0x20\n      add\n      dup1\n      dup4\n      gt\n      tag_99\n      jumpi\n      dup3\n      swap1\n      sub\n      0x1f\n      and\n      dup3\n      add\n      swap2\n    tag_97:\n      pop\n      pop\n      pop\n      pop\n      pop\n      swap3\n      pop\n      swap4\n      pop\n      swap4\n      pop\n      swap4\n      pop\n      swap4\n      pop\n        /* \"contracts/project1.sol\":2377:2682  function getJobDetails(uint _jobId) public view returns (string memory, string memory, uint, address) {... */\n      swap2\n      swap4\n      pop\n      swap2\n      swap4\n      jump\t// out\n        /* \"contracts/project1.sol\":519:563  mapping(uint => Applicant) public applicants */\n    tag_38:\n      mstore(0x20, 0x00)\n      dup1\n      0x00\n      mstore\n      keccak256(0x00, 0x40)\n      0x00\n      swap2\n      pop\n      swap1\n      pop\n      dup1\n      0x00\n      add\n      sload\n      swap1\n      dup1\n      0x01\n      add\n      dup1\n      sload\n      tag_100\n      swap1\n      tag_76\n      jump\t// in\n    tag_100:\n      dup1\n      0x1f\n      add\n      0x20\n      dup1\n      swap2\n      div\n      mul\n      0x20\n      add\n      mload(0x40)\n      swap1\n      dup2\n      add\n      0x40\n      mstore\n      dup1\n      swap3\n      swap2\n      swap1\n      dup2\n      dup2\n      mstore\n      0x20\n      add\n      dup3\n      dup1\n      sload\n      tag_101\n      swap1\n      tag_76\n      jump\t// in\n    tag_101:\n      dup1\n      iszero\n      tag_102\n      jumpi\n      dup1\n      0x1f\n      lt\n      tag_103\n      jumpi\n      0x0100\n      dup1\n      dup4\n      sload\n      div\n      mul\n      dup4\n      mstore\n      swap2\n      0x20\n      add\n      swap2\n      jump(tag_102)\n    tag_103:\n      dup3\n      add\n      swap2\n      swap1\n      0x00\n      mstore\n      keccak256(0x00, 0x20)\n      swap1\n    tag_104:\n      dup2\n      sload\n      dup2\n      mstore\n      swap1\n      0x01\n      add\n      swap1\n      0x20\n      add\n      dup1\n      dup4\n      gt\n      tag_104\n      jumpi\n      dup3\n      swap1\n      sub\n      0x1f\n      and\n      dup3\n      add\n      swap2\n    tag_102:\n      pop\n      pop\n      pop\n      pop\n      pop\n      swap1\n      dup1\n      0x02\n      add\n      dup1\n      sload\n      tag_105\n      swap1\n      tag_76\n      jump\t// in\n    tag_105:\n      dup1\n      0x1f\n      add\n      0x20\n      dup1\n      swap2\n      div\n      mul\n      0x20\n      add\n      mload(0x40)\n      swap1\n      dup2\n      add\n      0x40\n      mstore\n      dup1\n      swap3\n      swap2\n      swap1\n      dup2\n      dup2\n      mstore\n      0x20\n      add\n      dup3\n      dup1\n      sload\n      tag_106\n      swap1\n      tag_76\n      jump\t// in\n    tag_106:\n      dup1\n      iszero\n      tag_107\n      jumpi\n      dup1\n      0x1f\n      lt\n      tag_108\n      jumpi\n      0x0100\n      dup1\n      dup4\n      sload\n      div\n      mul\n      dup4\n      mstore\n      swap2\n      0x20\n      add\n      swap2\n      jump(tag_107)\n    tag_108:\n      dup3\n      add\n      swap2\n      swap1\n      0x00\n      mstore\n      keccak256(0x00, 0x20)\n      swap1\n    tag_109:\n      dup2\n      sload\n      dup2\n      mstore\n      swap1\n      0x01\n      add\n      swap1\n      0x20\n      add\n      dup1\n      dup4\n      gt\n      tag_109\n      jumpi\n      dup3\n      swap1\n      sub\n      0x1f\n      and\n      dup3\n      add\n      swap2\n    tag_107:\n      pop\n      pop\n      pop\n      pop\n      pop\n      swap1\n      dup1\n      0x03\n      add\n      dup1\n      sload\n      tag_110\n      swap1\n      tag_76\n      jump\t// in\n    tag_110:\n      dup1\n      0x1f\n      add\n      0x20\n      dup1\n      swap2\n      div\n      mul\n      0x20\n      add\n      mload(0x40)\n      swap1\n      dup2\n      add\n      0x40\n      mstore\n      dup1\n      swap3\n      swap2\n      swap1\n      dup2\n      dup2\n      mstore\n      0x20\n      add\n      dup3\n      dup1\n      sload\n      tag_111\n      swap1\n      tag_76\n      jump\t// in\n    tag_111:\n      dup1\n      iszero\n      tag_112\n      jumpi\n      dup1\n      0x1f\n      lt\n      tag_113\n      jumpi\n      0x0100\n      dup1\n      dup4\n      sload\n      div\n      mul\n      dup4\n      mstore\n      swap2\n      0x20\n      add\n      swap2\n      jump(tag_112)\n    tag_113:\n      dup3\n      add\n      swap2\n      swap1\n      0x00\n      mstore\n      keccak256(0x00, 0x20)\n      swap1\n    tag_114:\n      dup2\n      sload\n      dup2\n      mstore\n      swap1\n      0x01\n      add\n      swap1\n      0x20\n      add\n      dup1\n      dup4\n      gt\n      tag_114\n      jumpi\n      dup3\n      swap1\n      sub\n      0x1f\n      and\n      dup3\n      add\n      swap2\n    tag_112:\n      pop\n      pop\n      pop\n      pop\n      pop\n      swap1\n      dup1\n      0x04\n      add\n      0x00\n      swap1\n      sload\n      swap1\n      0x0100\n      exp\n      swap1\n      div\n      0xff\n      and\n      swap1\n      pop\n      dup6\n      jump\t// out\n        /* \"contracts/project1.sol\":2087:2341  function addNewJob(string memory _title, string memory _description, uint _salary) public {... */\n    tag_44:\n        /* \"contracts/project1.sol\":2188:2196  jobCount */\n      0x04\n      0x00\n        /* \"contracts/project1.sol\":2188:2198  jobCount++ */\n      dup2\n      sload\n      dup1\n      swap3\n      swap2\n      swap1\n      tag_116\n      swap1\n      tag_117\n      jump\t// in\n    tag_116:\n      swap2\n      swap1\n      pop\n      sstore\n      pop\n        /* \"contracts/project1.sol\":2226:2288  Job(jobCount, _title, _description, _salary, msg.sender, true) */\n      mload(0x40)\n      dup1\n      0xc0\n      add\n      0x40\n      mstore\n      dup1\n        /* \"contracts/project1.sol\":2230:2238  jobCount */\n      sload(0x04)\n        /* \"contracts/project1.sol\":2226:2288  Job(jobCount, _title, _description, _salary, msg.sender, true) */\n      dup2\n      mstore\n      0x20\n      add\n        /* \"contracts/project1.sol\":2240:2246  _title */\n      dup5\n        /* \"contracts/project1.sol\":2226:2288  Job(jobCount, _title, _description, _salary, msg.sender, true) */\n      dup2\n      mstore\n      0x20\n      add\n        /* \"contracts/project1.sol\":2248:2260  _description */\n      dup4\n        /* \"contracts/project1.sol\":2226:2288  Job(jobCount, _title, _description, _salary, msg.sender, true) */\n      dup2\n      mstore\n      0x20\n      add\n        /* \"contracts/project1.sol\":2262:2269  _salary */\n      dup3\n        /* \"contracts/project1.sol\":2226:2288  Job(jobCount, _title, _description, _salary, msg.sender, true) */\n      dup2\n      mstore\n      0x20\n      add\n        /* \"contracts/project1.sol\":2271:2281  msg.sender */\n      caller\n        /* \"contracts/project1.sol\":2226:2288  Job(jobCount, _title, _description, _salary, msg.sender, true) */\n      0xffffffffffffffffffffffffffffffffffffffff\n      and\n      dup2\n      mstore\n      0x20\n      add\n        /* \"contracts/project1.sol\":2283:2287  true */\n      0x01\n        /* \"contracts/project1.sol\":2226:2288  Job(jobCount, _title, _description, _salary, msg.sender, true) */\n      iszero\n      iszero\n      dup2\n      mstore\n      pop\n        /* \"contracts/project1.sol\":2209:2213  jobs */\n      0x01\n        /* \"contracts/project1.sol\":2209:2223  jobs[jobCount] */\n      0x00\n        /* \"contracts/project1.sol\":2214:2222  jobCount */\n      sload(0x04)\n        /* \"contracts/project1.sol\":2209:2223  jobs[jobCount] */\n      dup2\n      mstore\n      0x20\n      add\n      swap1\n      dup2\n      mstore\n      0x20\n      add\n      0x00\n      keccak256\n        /* \"contracts/project1.sol\":2209:2288  jobs[jobCount] = Job(jobCount, _title, _description, _salary, msg.sender, true) */\n      0x00\n      dup3\n      add\n      mload\n      dup2\n      0x00\n      add\n      sstore\n      0x20\n      dup3\n      add\n      mload\n      dup2\n      0x01\n      add\n      swap1\n      dup2\n      tag_118\n      swap2\n      swap1\n      tag_119\n      jump\t// in\n    tag_118:\n      pop\n      0x40\n      dup3\n      add\n      mload\n      dup2\n      0x02\n      add\n      swap1\n      dup2\n      tag_120\n      swap2\n      swap1\n      tag_119\n      jump\t// in\n    tag_120:\n      pop\n      0x60\n      dup3\n      add\n      mload\n      dup2\n      0x03\n      add\n      sstore\n      0x80\n      dup3\n      add\n      mload\n      dup2\n      0x04\n      add\n      exp(0x0100, 0x00)\n      dup2\n      sload\n      dup2\n      0xffffffffffffffffffffffffffffffffffffffff\n      mul\n      not\n      and\n      swap1\n      dup4\n      0xffffffffffffffffffffffffffffffffffffffff\n      and\n      mul\n      or\n      swap1\n      sstore\n      pop\n      0xa0\n      dup3\n      add\n      mload\n      dup2\n      0x04\n      add\n      exp(0x0100, 0x14)\n      dup2\n      sload\n      dup2\n      0xff\n      mul\n      not\n      and\n      swap1\n      dup4\n      iszero\n      iszero\n      mul\n      or\n      swap1\n      sstore\n      pop\n      swap1\n      pop\n      pop\n        /* \"contracts/project1.sol\":2304:2333  NewJobAdded(jobCount, _title) */\n      0x58bf62408b452c84b39bd9a1ff70c36357ff6ade742311313b45d2de599ead9e\n        /* \"contracts/project1.sol\":2316:2324  jobCount */\n      sload(0x04)\n        /* \"contracts/project1.sol\":2326:2332  _title */\n      dup5\n        /* \"contracts/project1.sol\":2304:2333  NewJobAdded(jobCount, _title) */\n      mload(0x40)\n      tag_121\n      swap3\n      swap2\n      swap1\n      tag_122\n      jump\t// in\n    tag_121:\n      mload(0x40)\n      dup1\n      swap2\n      sub\n      swap1\n      log1\n        /* \"contracts/project1.sol\":2087:2341  function addNewJob(string memory _title, string memory _description, uint _salary) public {... */\n      pop\n      pop\n      pop\n      jump\t// out\n        /* \"contracts/project1.sol\":3564:3847  function fetchApplicantRating(uint _applicantId) public view returns (uint, uint) {... */\n    tag_47:\n        /* \"contracts/project1.sol\":3634:3638  uint */\n      0x00\n        /* \"contracts/project1.sol\":3640:3644  uint */\n      dup1\n        /* \"contracts/project1.sol\":3665:3675  applicants */\n      0x00\n        /* \"contracts/project1.sol\":3665:3689  applicants[_applicantId] */\n      dup1\n        /* \"contracts/project1.sol\":3676:3688  _applicantId */\n      dup5\n        /* \"contracts/project1.sol\":3665:3689  applicants[_applicantId] */\n      dup2\n      mstore\n      0x20\n      add\n      swap1\n      dup2\n      mstore\n      0x20\n      add\n      0x00\n      keccak256\n        /* \"contracts/project1.sol\":3665:3702  applicants[_applicantId].isRegistered */\n      0x04\n      add\n      0x00\n      swap1\n      sload\n      swap1\n      0x0100\n      exp\n      swap1\n      div\n      0xff\n      and\n        /* \"contracts/project1.sol\":3657:3732  require(applicants[_applicantId].isRegistered, \"Applicant does not exist.\") */\n      tag_124\n      jumpi\n      mload(0x40)\n      0x08c379a000000000000000000000000000000000000000000000000000000000\n      dup2\n      mstore\n      0x04\n      add\n      tag_125\n      swap1\n      tag_126\n      jump\t// in\n    tag_125:\n      mload(0x40)\n      dup1\n      swap2\n      sub\n      swap1\n      revert\n    tag_124:\n        /* \"contracts/project1.sol\":3751:3767  applicantRatings */\n      0x02\n        /* \"contracts/project1.sol\":3751:3781  applicantRatings[_applicantId] */\n      0x00\n        /* \"contracts/project1.sol\":3768:3780  _applicantId */\n      dup5\n        /* \"contracts/project1.sol\":3751:3781  applicantRatings[_applicantId] */\n      dup2\n      mstore\n      0x20\n      add\n      swap1\n      dup2\n      mstore\n      0x20\n      add\n      0x00\n      keccak256\n        /* \"contracts/project1.sol\":3751:3793  applicantRatings[_applicantId].ratingValue */\n      0x00\n      add\n      sload\n        /* \"contracts/project1.sol\":3795:3811  applicantRatings */\n      0x02\n        /* \"contracts/project1.sol\":3795:3825  applicantRatings[_applicantId] */\n      0x00\n        /* \"contracts/project1.sol\":3812:3824  _applicantId */\n      dup6\n        /* \"contracts/project1.sol\":3795:3825  applicantRatings[_applicantId] */\n      dup2\n      mstore\n      0x20\n      add\n      swap1\n      dup2\n      mstore\n      0x20\n      add\n      0x00\n      keccak256\n        /* \"contracts/project1.sol\":3795:3838  applicantRatings[_applicantId].totalRatings */\n      0x01\n      add\n      sload\n        /* \"contracts/project1.sol\":3743:3839  return (applicantRatings[_applicantId].ratingValue, applicantRatings[_applicantId].totalRatings) */\n      swap2\n      pop\n      swap2\n      pop\n        /* \"contracts/project1.sol\":3564:3847  function fetchApplicantRating(uint _applicantId) public view returns (uint, uint) {... */\n      swap2\n      pop\n      swap2\n      jump\t// out\n        /* \"contracts/project1.sol\":990:1288  function addNewApplicant(string memory _name, string memory _laborHistory, string memory _skills) public {... */\n    tag_53:\n        /* \"contracts/project1.sol\":1106:1120  applicantCount */\n      0x03\n      0x00\n        /* \"contracts/project1.sol\":1106:1122  applicantCount++ */\n      dup2\n      sload\n      dup1\n      swap3\n      swap2\n      swap1\n      tag_128\n      swap1\n      tag_117\n      jump\t// in\n    tag_128:\n      swap2\n      swap1\n      pop\n      sstore\n      pop\n        /* \"contracts/project1.sol\":1162:1224  Applicant(applicantCount, _name, _laborHistory, _skills, true) */\n      mload(0x40)\n      dup1\n      0xa0\n      add\n      0x40\n      mstore\n      dup1\n        /* \"contracts/project1.sol\":1172:1186  applicantCount */\n      sload(0x03)\n        /* \"contracts/project1.sol\":1162:1224  Applicant(applicantCount, _name, _laborHistory, _skills, true) */\n      dup2\n      mstore\n      0x20\n      add\n        /* \"contracts/project1.sol\":1188:1193  _name */\n      dup5\n        /* \"contracts/project1.sol\":1162:1224  Applicant(applicantCount, _name, _laborHistory, _skills, true) */\n      dup2\n      mstore\n      0x20\n      add\n        /* \"contracts/project1.sol\":1195:1208  _laborHistory */\n      dup4\n        /* \"contracts/project1.sol\":1162:1224  Applicant(applicantCount, _name, _laborHistory, _skills, true) */\n      dup2\n      mstore\n      0x20\n      add\n        /* \"contracts/project1.sol\":1210:1217  _skills */\n      dup3\n        /* \"contracts/project1.sol\":1162:1224  Applicant(applicantCount, _name, _laborHistory, _skills, true) */\n      dup2\n      mstore\n      0x20\n      add\n        /* \"contracts/project1.sol\":1219:1223  true */\n      0x01\n        /* \"contracts/project1.sol\":1162:1224  Applicant(applicantCount, _name, _laborHistory, _skills, true) */\n      iszero\n      iszero\n      dup2\n      mstore\n      pop\n        /* \"contracts/project1.sol\":1133:1143  applicants */\n      0x00\n        /* \"contracts/project1.sol\":1133:1159  applicants[applicantCount] */\n      dup1\n        /* \"contracts/project1.sol\":1144:1158  applicantCount */\n      sload(0x03)\n        /* \"contracts/project1.sol\":1133:1159  applicants[applicantCount] */\n      dup2\n      mstore\n      0x20\n      add\n      swap1\n      dup2\n      mstore\n      0x20\n      add\n      0x00\n      keccak256\n        /* \"contracts/project1.sol\":1133:1224  applicants[applicantCount] = Applicant(applicantCount, _name, _laborHistory, _skills, true) */\n      0x00\n      dup3\n      add\n      mload\n      dup2\n      0x00\n      add\n      sstore\n      0x20\n      dup3\n      add\n      mload\n      dup2\n      0x01\n      add\n      swap1\n      dup2\n      tag_129\n      swap2\n      swap1\n      tag_119\n      jump\t// in\n    tag_129:\n      pop\n      0x40\n      dup3\n      add\n      mload\n      dup2\n      0x02\n      add\n      swap1\n      dup2\n      tag_130\n      swap2\n      swap1\n      tag_119\n      jump\t// in\n    tag_130:\n      pop\n      0x60\n      dup3\n      add\n      mload\n      dup2\n      0x03\n      add\n      swap1\n      dup2\n      tag_131\n      swap2\n      swap1\n      tag_119\n      jump\t// in\n    tag_131:\n      pop\n      0x80\n      dup3\n      add\n      mload\n      dup2\n      0x04\n      add\n      exp(0x0100, 0x00)\n      dup2\n      sload\n      dup2\n      0xff\n      mul\n      not\n      and\n      swap1\n      dup4\n      iszero\n      iszero\n      mul\n      or\n      swap1\n      sstore\n      pop\n      swap1\n      pop\n      pop\n        /* \"contracts/project1.sol\":1240:1280  NewApplicantAdded(applicantCount, _name) */\n      0x6e0c3fd9bc1ab99067a873cf9a5aadcaca37815fcd7c43d17201ce6bbf29ce6d\n        /* \"contracts/project1.sol\":1258:1272  applicantCount */\n      sload(0x03)\n        /* \"contracts/project1.sol\":1274:1279  _name */\n      dup5\n        /* \"contracts/project1.sol\":1240:1280  NewApplicantAdded(applicantCount, _name) */\n      mload(0x40)\n      tag_132\n      swap3\n      swap2\n      swap1\n      tag_122\n      jump\t// in\n    tag_132:\n      mload(0x40)\n      dup1\n      swap2\n      sub\n      swap1\n      log1\n        /* \"contracts/project1.sol\":990:1288  function addNewApplicant(string memory _name, string memory _laborHistory, string memory _skills) public {... */\n      pop\n      pop\n      pop\n      jump\t// out\n        /* \"contracts/project1.sol\":609:656  mapping(uint => Rating) public applicantRatings */\n    tag_56:\n      mstore(0x20, 0x02)\n      dup1\n      0x00\n      mstore\n      keccak256(0x00, 0x40)\n      0x00\n      swap2\n      pop\n      swap1\n      pop\n      dup1\n      0x00\n      add\n      sload\n      swap1\n      dup1\n      0x01\n      add\n      sload\n      swap1\n      pop\n      dup3\n      jump\t// out\n        /* \"contracts/project1.sol\":1330:1659  function getApplicantDetails(uint _applicantId) public view returns (string memory, string memory, string memory) {... */\n    tag_60:\n        /* \"contracts/project1.sol\":1399:1412  string memory */\n      0x60\n        /* \"contracts/project1.sol\":1414:1427  string memory */\n      dup1\n        /* \"contracts/project1.sol\":1429:1442  string memory */\n      0x60\n        /* \"contracts/project1.sol\":1463:1473  applicants */\n      0x00\n        /* \"contracts/project1.sol\":1463:1487  applicants[_applicantId] */\n      dup1\n        /* \"contracts/project1.sol\":1474:1486  _applicantId */\n      dup6\n        /* \"contracts/project1.sol\":1463:1487  applicants[_applicantId] */\n      dup2\n      mstore\n      0x20\n      add\n      swap1\n      dup2\n      mstore\n      0x20\n      add\n      0x00\n      keccak256\n        /* \"contracts/project1.sol\":1463:1500  applicants[_applicantId].isRegistered */\n      0x04\n      add\n      0x00\n      swap1\n      sload\n      swap1\n      0x0100\n      exp\n      swap1\n      div\n      0xff\n      and\n        /* \"contracts/project1.sol\":1455:1530  require(applicants[_applicantId].isRegistered, \"Applicant does not exist.\") */\n      tag_134\n      jumpi\n      mload(0x40)\n      0x08c379a000000000000000000000000000000000000000000000000000000000\n      dup2\n      mstore\n      0x04\n      add\n      tag_135\n      swap1\n      tag_126\n      jump\t// in\n    tag_135:\n      mload(0x40)\n      dup1\n      swap2\n      sub\n      swap1\n      revert\n    tag_134:\n        /* \"contracts/project1.sol\":1549:1559  applicants */\n      0x00\n        /* \"contracts/project1.sol\":1549:1573  applicants[_applicantId] */\n      dup1\n        /* \"contracts/project1.sol\":1560:1572  _applicantId */\n      dup6\n        /* \"contracts/project1.sol\":1549:1573  applicants[_applicantId] */\n      dup2\n      mstore\n      0x20\n      add\n      swap1\n      dup2\n      mstore\n      0x20\n      add\n      0x00\n      keccak256\n        /* \"contracts/project1.sol\":1549:1578  applicants[_applicantId].name */\n      0x01\n      add\n        /* \"contracts/project1.sol\":1580:1590  applicants */\n      0x00\n        /* \"contracts/project1.sol\":1580:1604  applicants[_applicantId] */\n      dup1\n        /* \"contracts/project1.sol\":1591:1603  _applicantId */\n      dup7\n        /* \"contracts/project1.sol\":1580:1604  applicants[_applicantId] */\n      dup2\n      mstore\n      0x20\n      add\n      swap1\n      dup2\n      mstore\n      0x20\n      add\n      0x00\n      keccak256\n        /* \"contracts/project1.sol\":1580:1617  applicants[_applicantId].laborHistory */\n      0x02\n      add\n        /* \"contracts/project1.sol\":1619:1629  applicants */\n      0x00\n        /* \"contracts/project1.sol\":1619:1643  applicants[_applicantId] */\n      dup1\n        /* \"contracts/project1.sol\":1630:1642  _applicantId */\n      dup8\n        /* \"contracts/project1.sol\":1619:1643  applicants[_applicantId] */\n      dup2\n      mstore\n      0x20\n      add\n      swap1\n      dup2\n      mstore\n      0x20\n      add\n      0x00\n      keccak256\n        /* \"contracts/project1.sol\":1619:1650  applicants[_applicantId].skills */\n      0x03\n      add\n        /* \"contracts/project1.sol\":1541:1651  return (applicants[_applicantId].name, applicants[_applicantId].laborHistory, applicants[_applicantId].skills) */\n      dup3\n      dup1\n      sload\n      tag_136\n      swap1\n      tag_76\n      jump\t// in\n    tag_136:\n      dup1\n      0x1f\n      add\n      0x20\n      dup1\n      swap2\n      div\n      mul\n      0x20\n      add\n      mload(0x40)\n      swap1\n      dup2\n      add\n      0x40\n      mstore\n      dup1\n      swap3\n      swap2\n      swap1\n      dup2\n      dup2\n      mstore\n      0x20\n      add\n      dup3\n      dup1\n      sload\n      tag_137\n      swap1\n      tag_76\n      jump\t// in\n    tag_137:\n      dup1\n      iszero\n      tag_138\n      jumpi\n      dup1\n      0x1f\n      lt\n      tag_139\n      jumpi\n      0x0100\n      dup1\n      dup4\n      sload\n      div\n      mul\n      dup4\n      mstore\n      swap2\n      0x20\n      add\n      swap2\n      jump(tag_138)\n    tag_139:\n      dup3\n      add\n      swap2\n      swap1\n      0x00\n      mstore\n      keccak256(0x00, 0x20)\n      swap1\n    tag_140:\n      dup2\n      sload\n      dup2\n      mstore\n      swap1\n      0x01\n      add\n      swap1\n      0x20\n      add\n      dup1\n      dup4\n      gt\n      tag_140\n      jumpi\n      dup3\n      swap1\n      sub\n      0x1f\n      and\n      dup3\n      add\n      swap2\n    tag_138:\n      pop\n      pop\n      pop\n      pop\n      pop\n      swap3\n      pop\n      dup2\n      dup1\n      sload\n      tag_141\n      swap1\n      tag_76\n      jump\t// in\n    tag_141:\n      dup1\n      0x1f\n      add\n      0x20\n      dup1\n      swap2\n      div\n      mul\n      0x20\n      add\n      mload(0x40)\n      swap1\n      dup2\n      add\n      0x40\n      mstore\n      dup1\n      swap3\n      swap2\n      swap1\n      dup2\n      dup2\n      mstore\n      0x20\n      add\n      dup3\n      dup1\n      sload\n      tag_142\n      swap1\n      tag_76\n      jump\t// in\n    tag_142:\n      dup1\n      iszero\n      tag_143\n      jumpi\n      dup1\n      0x1f\n      lt\n      tag_144\n      jumpi\n      0x0100\n      dup1\n      dup4\n      sload\n      div\n      mul\n      dup4\n      mstore\n      swap2\n      0x20\n      add\n      swap2\n      jump(tag_143)\n    tag_144:\n      dup3\n      add\n      swap2\n      swap1\n      0x00\n      mstore\n      keccak256(0x00, 0x20)\n      swap1\n    tag_145:\n      dup2\n      sload\n      dup2\n      mstore\n      swap1\n      0x01\n      add\n      swap1\n      0x20\n      add\n      dup1\n      dup4\n      gt\n      tag_145\n      jumpi\n      dup3\n      swap1\n      sub\n      0x1f\n      and\n      dup3\n      add\n      swap2\n    tag_143:\n      pop\n      pop\n      pop\n      pop\n      pop\n      swap2\n      pop\n      dup1\n      dup1\n      sload\n      tag_146\n      swap1\n      tag_76\n      jump\t// in\n    tag_146:\n      dup1\n      0x1f\n      add\n      0x20\n      dup1\n      swap2\n      div\n      mul\n      0x20\n      add\n      mload(0x40)\n      swap1\n      dup2\n      add\n      0x40\n      mstore\n      dup1\n      swap3\n      swap2\n      swap1\n      dup2\n      dup2\n      mstore\n      0x20\n      add\n      dup3\n      dup1\n      sload\n      tag_147\n      swap1\n      tag_76\n      jump\t// in\n    tag_147:\n      dup1\n      iszero\n      tag_148\n      jumpi\n      dup1\n      0x1f\n      lt\n      tag_149\n      jumpi\n      0x0100\n      dup1\n      dup4\n      sload\n      div\n      mul\n      dup4\n      mstore\n      swap2\n      0x20\n      add\n      swap2\n      jump(tag_148)\n    tag_149:\n      dup3\n      add\n      swap2\n      swap1\n      0x00\n      mstore\n      keccak256(0x00, 0x20)\n      swap1\n    tag_150:\n      dup2\n      sload\n      dup2\n      mstore\n      swap1\n      0x01\n      add\n      swap1\n      0x20\n      add\n      dup1\n      dup4\n      gt\n      tag_150\n      jumpi\n      dup3\n      swap1\n      sub\n      0x1f\n      and\n      dup3\n      add\n      swap2\n    tag_148:\n      pop\n      pop\n      pop\n      pop\n      pop\n      swap1\n      pop\n      swap3\n      pop\n      swap3\n      pop\n      swap3\n      pop\n        /* \"contracts/project1.sol\":1330:1659  function getApplicantDetails(uint _applicantId) public view returns (string memory, string memory, string memory) {... */\n      swap2\n      swap4\n      swap1\n      swap3\n      pop\n      jump\t// out\n        /* \"contracts/project1.sol\":3077:3521  function provideRating(uint _applicantId, uint _ratingValue) public {... */\n    tag_66:\n        /* \"contracts/project1.sol\":3164:3174  applicants */\n      0x00\n        /* \"contracts/project1.sol\":3164:3188  applicants[_applicantId] */\n      dup1\n        /* \"contracts/project1.sol\":3175:3187  _applicantId */\n      dup4\n        /* \"contracts/project1.sol\":3164:3188  applicants[_applicantId] */\n      dup2\n      mstore\n      0x20\n      add\n      swap1\n      dup2\n      mstore\n      0x20\n      add\n      0x00\n      keccak256\n        /* \"contracts/project1.sol\":3164:3201  applicants[_applicantId].isRegistered */\n      0x04\n      add\n      0x00\n      swap1\n      sload\n      swap1\n      0x0100\n      exp\n      swap1\n      div\n      0xff\n      and\n        /* \"contracts/project1.sol\":3156:3231  require(applicants[_applicantId].isRegistered, \"Applicant does not exist.\") */\n      tag_152\n      jumpi\n      mload(0x40)\n      0x08c379a000000000000000000000000000000000000000000000000000000000\n      dup2\n      mstore\n      0x04\n      add\n      tag_153\n      swap1\n      tag_126\n      jump\t// in\n    tag_153:\n      mload(0x40)\n      dup1\n      swap2\n      sub\n      swap1\n      revert\n    tag_152:\n        /* \"contracts/project1.sol\":3266:3267  0 */\n      0x00\n        /* \"contracts/project1.sol\":3250:3262  _ratingValue */\n      dup2\n        /* \"contracts/project1.sol\":3250:3267  _ratingValue >= 0 */\n      lt\n      iszero\n        /* \"contracts/project1.sol\":3250:3288  _ratingValue >= 0 && _ratingValue <= 5 */\n      dup1\n      iszero\n      tag_154\n      jumpi\n      pop\n        /* \"contracts/project1.sol\":3287:3288  5 */\n      0x05\n        /* \"contracts/project1.sol\":3271:3283  _ratingValue */\n      dup2\n        /* \"contracts/project1.sol\":3271:3288  _ratingValue <= 5 */\n      gt\n      iszero\n        /* \"contracts/project1.sol\":3250:3288  _ratingValue >= 0 && _ratingValue <= 5 */\n    tag_154:\n        /* \"contracts/project1.sol\":3242:3330  require(_ratingValue >= 0 && _ratingValue <= 5, \"Rating value must be between 0 and 5.\") */\n      tag_155\n      jumpi\n      mload(0x40)\n      0x08c379a000000000000000000000000000000000000000000000000000000000\n      dup2\n      mstore\n      0x04\n      add\n      tag_156\n      swap1\n      tag_157\n      jump\t// in\n    tag_156:\n      mload(0x40)\n      dup1\n      swap2\n      sub\n      swap1\n      revert\n    tag_155:\n        /* \"contracts/project1.sol\":3387:3399  _ratingValue */\n      dup1\n        /* \"contracts/project1.sol\":3341:3357  applicantRatings */\n      0x02\n        /* \"contracts/project1.sol\":3341:3371  applicantRatings[_applicantId] */\n      0x00\n        /* \"contracts/project1.sol\":3358:3370  _applicantId */\n      dup5\n        /* \"contracts/project1.sol\":3341:3371  applicantRatings[_applicantId] */\n      dup2\n      mstore\n      0x20\n      add\n      swap1\n      dup2\n      mstore\n      0x20\n      add\n      0x00\n      keccak256\n        /* \"contracts/project1.sol\":3341:3383  applicantRatings[_applicantId].ratingValue */\n      0x00\n      add\n      0x00\n        /* \"contracts/project1.sol\":3341:3399  applicantRatings[_applicantId].ratingValue += _ratingValue */\n      dup3\n      dup3\n      sload\n      tag_158\n      swap2\n      swap1\n      tag_159\n      jump\t// in\n    tag_158:\n      swap3\n      pop\n      pop\n      dup2\n      swap1\n      sstore\n      pop\n        /* \"contracts/project1.sol\":3410:3426  applicantRatings */\n      0x02\n        /* \"contracts/project1.sol\":3410:3440  applicantRatings[_applicantId] */\n      0x00\n        /* \"contracts/project1.sol\":3427:3439  _applicantId */\n      dup4\n        /* \"contracts/project1.sol\":3410:3440  applicantRatings[_applicantId] */\n      dup2\n      mstore\n      0x20\n      add\n      swap1\n      dup2\n      mstore\n      0x20\n      add\n      0x00\n      keccak256\n        /* \"contracts/project1.sol\":3410:3453  applicantRatings[_applicantId].totalRatings */\n      0x01\n      add\n      0x00\n        /* \"contracts/project1.sol\":3410:3455  applicantRatings[_applicantId].totalRatings++ */\n      dup2\n      sload\n      dup1\n      swap3\n      swap2\n      swap1\n      tag_160\n      swap1\n      tag_117\n      jump\t// in\n    tag_160:\n      swap2\n      swap1\n      pop\n      sstore\n      pop\n        /* \"contracts/project1.sol\":3471:3513  RatingProvided(_applicantId, _ratingValue) */\n      0xcb40c02246867b173747c15db9c37313ed612b373c8ea1710541c4fa65ff4a15\n        /* \"contracts/project1.sol\":3486:3498  _applicantId */\n      dup3\n        /* \"contracts/project1.sol\":3500:3512  _ratingValue */\n      dup3\n        /* \"contracts/project1.sol\":3471:3513  RatingProvided(_applicantId, _ratingValue) */\n      mload(0x40)\n      tag_161\n      swap3\n      swap2\n      swap1\n      tag_49\n      jump\t// in\n    tag_161:\n      mload(0x40)\n      dup1\n      swap2\n      sub\n      swap1\n      log1\n        /* \"contracts/project1.sol\":3077:3521  function provideRating(uint _applicantId, uint _ratingValue) public {... */\n      pop\n      pop\n      jump\t// out\n        /* \"contracts/project1.sol\":2729:3024  function applyForJob(uint _applicantId, uint _jobId) public {... */\n    tag_69:\n        /* \"contracts/project1.sol\":2808:2818  applicants */\n      0x00\n        /* \"contracts/project1.sol\":2808:2832  applicants[_applicantId] */\n      dup1\n        /* \"contracts/project1.sol\":2819:2831  _applicantId */\n      dup4\n        /* \"contracts/project1.sol\":2808:2832  applicants[_applicantId] */\n      dup2\n      mstore\n      0x20\n      add\n      swap1\n      dup2\n      mstore\n      0x20\n      add\n      0x00\n      keccak256\n        /* \"contracts/project1.sol\":2808:2845  applicants[_applicantId].isRegistered */\n      0x04\n      add\n      0x00\n      swap1\n      sload\n      swap1\n      0x0100\n      exp\n      swap1\n      div\n      0xff\n      and\n        /* \"contracts/project1.sol\":2800:2875  require(applicants[_applicantId].isRegistered, \"Applicant does not exist.\") */\n      tag_163\n      jumpi\n      mload(0x40)\n      0x08c379a000000000000000000000000000000000000000000000000000000000\n      dup2\n      mstore\n      0x04\n      add\n      tag_164\n      swap1\n      tag_126\n      jump\t// in\n    tag_164:\n      mload(0x40)\n      dup1\n      swap2\n      sub\n      swap1\n      revert\n    tag_163:\n        /* \"contracts/project1.sol\":2894:2898  jobs */\n      0x01\n        /* \"contracts/project1.sol\":2894:2906  jobs[_jobId] */\n      0x00\n        /* \"contracts/project1.sol\":2899:2905  _jobId */\n      dup3\n        /* \"contracts/project1.sol\":2894:2906  jobs[_jobId] */\n      dup2\n      mstore\n      0x20\n      add\n      swap1\n      dup2\n      mstore\n      0x20\n      add\n      0x00\n      keccak256\n        /* \"contracts/project1.sol\":2894:2918  jobs[_jobId].isAvailable */\n      0x04\n      add\n      0x14\n      swap1\n      sload\n      swap1\n      0x0100\n      exp\n      swap1\n      div\n      0xff\n      and\n        /* \"contracts/project1.sol\":2886:2962  require(jobs[_jobId].isAvailable, \"Job does not exist or is not available.\") */\n      tag_165\n      jumpi\n      mload(0x40)\n      0x08c379a000000000000000000000000000000000000000000000000000000000\n      dup2\n      mstore\n      0x04\n      add\n      tag_166\n      swap1\n      tag_89\n      jump\t// in\n    tag_166:\n      mload(0x40)\n      dup1\n      swap2\n      sub\n      swap1\n      revert\n    tag_165:\n        /* \"contracts/project1.sol\":2978:3016  ApplicantApplied(_applicantId, _jobId) */\n      0x2b29c80621ce60165161e9d1f4d4333d5619d77a9f5c6d0c24281d48e7f88d24\n        /* \"contracts/project1.sol\":2995:3007  _applicantId */\n      dup3\n        /* \"contracts/project1.sol\":3009:3015  _jobId */\n      dup3\n        /* \"contracts/project1.sol\":2978:3016  ApplicantApplied(_applicantId, _jobId) */\n      mload(0x40)\n      tag_167\n      swap3\n      swap2\n      swap1\n      tag_49\n      jump\t// in\n    tag_167:\n      mload(0x40)\n      dup1\n      swap2\n      sub\n      swap1\n      log1\n        /* \"contracts/project1.sol\":2729:3024  function applyForJob(uint _applicantId, uint _jobId) public {... */\n      pop\n      pop\n      jump\t// out\n        /* \"contracts/project1.sol\":1698:2039  function getApplicantType(uint _applicantId) public view returns (string memory) {... */\n    tag_72:\n        /* \"contracts/project1.sol\":1764:1777  string memory */\n      0x60\n        /* \"contracts/project1.sol\":1798:1808  applicants */\n      0x00\n        /* \"contracts/project1.sol\":1798:1822  applicants[_applicantId] */\n      dup1\n        /* \"contracts/project1.sol\":1809:1821  _applicantId */\n      dup4\n        /* \"contracts/project1.sol\":1798:1822  applicants[_applicantId] */\n      dup2\n      mstore\n      0x20\n      add\n      swap1\n      dup2\n      mstore\n      0x20\n      add\n      0x00\n      keccak256\n        /* \"contracts/project1.sol\":1798:1835  applicants[_applicantId].isRegistered */\n      0x04\n      add\n      0x00\n      swap1\n      sload\n      swap1\n      0x0100\n      exp\n      swap1\n      div\n      0xff\n      and\n        /* \"contracts/project1.sol\":1790:1865  require(applicants[_applicantId].isRegistered, \"Applicant does not exist.\") */\n      tag_169\n      jumpi\n      mload(0x40)\n      0x08c379a000000000000000000000000000000000000000000000000000000000\n      dup2\n      mstore\n      0x04\n      add\n      tag_170\n      swap1\n      tag_126\n      jump\t// in\n    tag_170:\n      mload(0x40)\n      dup1\n      swap2\n      sub\n      swap1\n      revert\n    tag_169:\n        /* \"contracts/project1.sol\":1934:1935  0 */\n      0x00\n        /* \"contracts/project1.sol\":1886:1896  applicants */\n      dup1\n        /* \"contracts/project1.sol\":1886:1910  applicants[_applicantId] */\n      0x00\n        /* \"contracts/project1.sol\":1897:1909  _applicantId */\n      dup5\n        /* \"contracts/project1.sol\":1886:1910  applicants[_applicantId] */\n      dup2\n      mstore\n      0x20\n      add\n      swap1\n      dup2\n      mstore\n      0x20\n      add\n      0x00\n      keccak256\n        /* \"contracts/project1.sol\":1886:1923  applicants[_applicantId].laborHistory */\n      0x02\n      add\n        /* \"contracts/project1.sol\":1880:1931  bytes(applicants[_applicantId].laborHistory).length */\n      dup1\n      sload\n      tag_171\n      swap1\n      tag_76\n      jump\t// in\n    tag_171:\n      swap1\n      pop\n        /* \"contracts/project1.sol\":1880:1935  bytes(applicants[_applicantId].laborHistory).length > 0 */\n      gt\n        /* \"contracts/project1.sol\":1876:2032  if (bytes(applicants[_applicantId].laborHistory).length > 0) {... */\n      iszero\n      tag_172\n      jumpi\n        /* \"contracts/project1.sol\":1952:1972  return \"Experienced\" */\n      mload(0x40)\n      dup1\n      0x40\n      add\n      0x40\n      mstore\n      dup1\n      0x0b\n      dup2\n      mstore\n      0x20\n      add\n      0x457870657269656e636564000000000000000000000000000000000000000000\n      dup2\n      mstore\n      pop\n      swap1\n      pop\n      jump(tag_168)\n        /* \"contracts/project1.sol\":1876:2032  if (bytes(applicants[_applicantId].laborHistory).length > 0) {... */\n    tag_172:\n        /* \"contracts/project1.sol\":2005:2020  return \"Newbie\" */\n      mload(0x40)\n      dup1\n      0x40\n      add\n      0x40\n      mstore\n      dup1\n      0x06\n      dup2\n      mstore\n      0x20\n      add\n      0x4e65776269650000000000000000000000000000000000000000000000000000\n      dup2\n      mstore\n      pop\n      swap1\n      pop\n        /* \"contracts/project1.sol\":1698:2039  function getApplicantType(uint _applicantId) public view returns (string memory) {... */\n    tag_168:\n      swap2\n      swap1\n      pop\n      jump\t// out\n        /* \"#utility.yul\":7:82   */\n    tag_174:\n        /* \"#utility.yul\":40:46   */\n      0x00\n        /* \"#utility.yul\":73:75   */\n      0x40\n        /* \"#utility.yul\":67:76   */\n      mload\n        /* \"#utility.yul\":57:76   */\n      swap1\n      pop\n        /* \"#utility.yul\":7:82   */\n      swap1\n      jump\t// out\n        /* \"#utility.yul\":88:205   */\n    tag_175:\n        /* \"#utility.yul\":197:198   */\n      0x00\n        /* \"#utility.yul\":194:195   */\n      dup1\n        /* \"#utility.yul\":187:199   */\n      revert\n        /* \"#utility.yul\":211:328   */\n    tag_176:\n        /* \"#utility.yul\":320:321   */\n      0x00\n        /* \"#utility.yul\":317:318   */\n      dup1\n        /* \"#utility.yul\":310:322   */\n      revert\n        /* \"#utility.yul\":334:411   */\n    tag_177:\n        /* \"#utility.yul\":371:378   */\n      0x00\n        /* \"#utility.yul\":400:405   */\n      dup2\n        /* \"#utility.yul\":389:405   */\n      swap1\n      pop\n        /* \"#utility.yul\":334:411   */\n      swap2\n      swap1\n      pop\n      jump\t// out\n        /* \"#utility.yul\":417:539   */\n    tag_178:\n        /* \"#utility.yul\":490:514   */\n      tag_229\n        /* \"#utility.yul\":508:513   */\n      dup2\n        /* \"#utility.yul\":490:514   */\n      tag_177\n      jump\t// in\n    tag_229:\n        /* \"#utility.yul\":483:488   */\n      dup2\n        /* \"#utility.yul\":480:515   */\n      eq\n        /* \"#utility.yul\":470:533   */\n      tag_230\n      jumpi\n        /* \"#utility.yul\":529:530   */\n      0x00\n        /* \"#utility.yul\":526:527   */\n      dup1\n        /* \"#utility.yul\":519:531   */\n      revert\n        /* \"#utility.yul\":470:533   */\n    tag_230:\n        /* \"#utility.yul\":417:539   */\n      pop\n      jump\t// out\n        /* \"#utility.yul\":545:684   */\n    tag_179:\n        /* \"#utility.yul\":591:596   */\n      0x00\n        /* \"#utility.yul\":629:635   */\n      dup2\n        /* \"#utility.yul\":616:636   */\n      calldataload\n        /* \"#utility.yul\":607:636   */\n      swap1\n      pop\n        /* \"#utility.yul\":645:678   */\n      tag_232\n        /* \"#utility.yul\":672:677   */\n      dup2\n        /* \"#utility.yul\":645:678   */\n      tag_178\n      jump\t// in\n    tag_232:\n        /* \"#utility.yul\":545:684   */\n      swap3\n      swap2\n      pop\n      pop\n      jump\t// out\n        /* \"#utility.yul\":690:1019   */\n    tag_20:\n        /* \"#utility.yul\":749:755   */\n      0x00\n        /* \"#utility.yul\":798:800   */\n      0x20\n        /* \"#utility.yul\":786:795   */\n      dup3\n        /* \"#utility.yul\":777:784   */\n      dup5\n        /* \"#utility.yul\":773:796   */\n      sub\n        /* \"#utility.yul\":769:801   */\n      slt\n        /* \"#utility.yul\":766:885   */\n      iszero\n      tag_234\n      jumpi\n        /* \"#utility.yul\":804:883   */\n      tag_235\n      tag_175\n      jump\t// in\n    tag_235:\n        /* \"#utility.yul\":766:885   */\n    tag_234:\n        /* \"#utility.yul\":924:925   */\n      0x00\n        /* \"#utility.yul\":949:1002   */\n      tag_236\n        /* \"#utility.yul\":994:1001   */\n      dup5\n        /* \"#utility.yul\":985:991   */\n      dup3\n        /* \"#utility.yul\":974:983   */\n      dup6\n        /* \"#utility.yul\":970:992   */\n      add\n        /* \"#utility.yul\":949:1002   */\n      tag_179\n      jump\t// in\n    tag_236:\n        /* \"#utility.yul\":939:1002   */\n      swap2\n      pop\n        /* \"#utility.yul\":895:1012   */\n      pop\n        /* \"#utility.yul\":690:1019   */\n      swap3\n      swap2\n      pop\n      pop\n      jump\t// out\n        /* \"#utility.yul\":1025:1143   */\n    tag_180:\n        /* \"#utility.yul\":1112:1136   */\n      tag_238\n        /* \"#utility.yul\":1130:1135   */\n      dup2\n        /* \"#utility.yul\":1112:1136   */\n      tag_177\n      jump\t// in\n    tag_238:\n        /* \"#utility.yul\":1107:1110   */\n      dup3\n        /* \"#utility.yul\":1100:1137   */\n      mstore\n        /* \"#utility.yul\":1025:1143   */\n      pop\n      pop\n      jump\t// out\n        /* \"#utility.yul\":1149:1248   */\n    tag_181:\n        /* \"#utility.yul\":1201:1207   */\n      0x00\n        /* \"#utility.yul\":1235:1240   */\n      dup2\n        /* \"#utility.yul\":1229:1241   */\n      mload\n        /* \"#utility.yul\":1219:1241   */\n      swap1\n      pop\n        /* \"#utility.yul\":1149:1248   */\n      swap2\n      swap1\n      pop\n      jump\t// out\n        /* \"#utility.yul\":1254:1423   */\n    tag_182:\n        /* \"#utility.yul\":1338:1349   */\n      0x00\n        /* \"#utility.yul\":1372:1378   */\n      dup3\n        /* \"#utility.yul\":1367:1370   */\n      dup3\n        /* \"#utility.yul\":1360:1379   */\n      mstore\n        /* \"#utility.yul\":1412:1416   */\n      0x20\n        /* \"#utility.yul\":1407:1410   */\n      dup3\n        /* \"#utility.yul\":1403:1417   */\n      add\n        /* \"#utility.yul\":1388:1417   */\n      swap1\n      pop\n        /* \"#utility.yul\":1254:1423   */\n      swap3\n      swap2\n      pop\n      pop\n      jump\t// out\n        /* \"#utility.yul\":1429:1675   */\n    tag_183:\n        /* \"#utility.yul\":1510:1511   */\n      0x00\n        /* \"#utility.yul\":1520:1633   */\n    tag_242:\n        /* \"#utility.yul\":1534:1540   */\n      dup4\n        /* \"#utility.yul\":1531:1532   */\n      dup2\n        /* \"#utility.yul\":1528:1541   */\n      lt\n        /* \"#utility.yul\":1520:1633   */\n      iszero\n      tag_244\n      jumpi\n        /* \"#utility.yul\":1619:1620   */\n      dup1\n        /* \"#utility.yul\":1614:1617   */\n      dup3\n        /* \"#utility.yul\":1610:1621   */\n      add\n        /* \"#utility.yul\":1604:1622   */\n      mload\n        /* \"#utility.yul\":1600:1601   */\n      dup2\n        /* \"#utility.yul\":1595:1598   */\n      dup5\n        /* \"#utility.yul\":1591:1602   */\n      add\n        /* \"#utility.yul\":1584:1623   */\n      mstore\n        /* \"#utility.yul\":1556:1558   */\n      0x20\n        /* \"#utility.yul\":1553:1554   */\n      dup2\n        /* \"#utility.yul\":1549:1559   */\n      add\n        /* \"#utility.yul\":1544:1559   */\n      swap1\n      pop\n        /* \"#utility.yul\":1520:1633   */\n      jump(tag_242)\n    tag_244:\n        /* \"#utility.yul\":1667:1668   */\n      0x00\n        /* \"#utility.yul\":1658:1664   */\n      dup5\n        /* \"#utility.yul\":1653:1656   */\n      dup5\n        /* \"#utility.yul\":1649:1665   */\n      add\n        /* \"#utility.yul\":1642:1669   */\n      mstore\n        /* \"#utility.yul\":1491:1675   */\n      pop\n        /* \"#utility.yul\":1429:1675   */\n      pop\n      pop\n      pop\n      jump\t// out\n        /* \"#utility.yul\":1681:1783   */\n    tag_184:\n        /* \"#utility.yul\":1722:1728   */\n      0x00\n        /* \"#utility.yul\":1773:1775   */\n      0x1f\n        /* \"#utility.yul\":1769:1776   */\n      not\n        /* \"#utility.yul\":1764:1766   */\n      0x1f\n        /* \"#utility.yul\":1757:1762   */\n      dup4\n        /* \"#utility.yul\":1753:1767   */\n      add\n        /* \"#utility.yul\":1749:1777   */\n      and\n        /* \"#utility.yul\":1739:1777   */\n      swap1\n      pop\n        /* \"#utility.yul\":1681:1783   */\n      swap2\n      swap1\n      pop\n      jump\t// out\n        /* \"#utility.yul\":1789:2166   */\n    tag_185:\n        /* \"#utility.yul\":1877:1880   */\n      0x00\n        /* \"#utility.yul\":1905:1944   */\n      tag_247\n        /* \"#utility.yul\":1938:1943   */\n      dup3\n        /* \"#utility.yul\":1905:1944   */\n      tag_181\n      jump\t// in\n    tag_247:\n        /* \"#utility.yul\":1960:2031   */\n      tag_248\n        /* \"#utility.yul\":2024:2030   */\n      dup2\n        /* \"#utility.yul\":2019:2022   */\n      dup6\n        /* \"#utility.yul\":1960:2031   */\n      tag_182\n      jump\t// in\n    tag_248:\n        /* \"#utility.yul\":1953:2031   */\n      swap4\n      pop\n        /* \"#utility.yul\":2040:2105   */\n      tag_249\n        /* \"#utility.yul\":2098:2104   */\n      dup2\n        /* \"#utility.yul\":2093:2096   */\n      dup6\n        /* \"#utility.yul\":2086:2090   */\n      0x20\n        /* \"#utility.yul\":2079:2084   */\n      dup7\n        /* \"#utility.yul\":2075:2091   */\n      add\n        /* \"#utility.yul\":2040:2105   */\n      tag_183\n      jump\t// in\n    tag_249:\n        /* \"#utility.yul\":2130:2159   */\n      tag_250\n        /* \"#utility.yul\":2152:2158   */\n      dup2\n        /* \"#utility.yul\":2130:2159   */\n      tag_184\n      jump\t// in\n    tag_250:\n        /* \"#utility.yul\":2125:2128   */\n      dup5\n        /* \"#utility.yul\":2121:2160   */\n      add\n        /* \"#utility.yul\":2114:2160   */\n      swap2\n      pop\n        /* \"#utility.yul\":1881:2166   */\n      pop\n        /* \"#utility.yul\":1789:2166   */\n      swap3\n      swap2\n      pop\n      pop\n      jump\t// out\n        /* \"#utility.yul\":2172:2298   */\n    tag_186:\n        /* \"#utility.yul\":2209:2216   */\n      0x00\n        /* \"#utility.yul\":2249:2291   */\n      0xffffffffffffffffffffffffffffffffffffffff\n        /* \"#utility.yul\":2242:2247   */\n      dup3\n        /* \"#utility.yul\":2238:2292   */\n      and\n        /* \"#utility.yul\":2227:2292   */\n      swap1\n      pop\n        /* \"#utility.yul\":2172:2298   */\n      swap2\n      swap1\n      pop\n      jump\t// out\n        /* \"#utility.yul\":2304:2400   */\n    tag_187:\n        /* \"#utility.yul\":2341:2348   */\n      0x00\n        /* \"#utility.yul\":2370:2394   */\n      tag_253\n        /* \"#utility.yul\":2388:2393   */\n      dup3\n        /* \"#utility.yul\":2370:2394   */\n      tag_186\n      jump\t// in\n    tag_253:\n        /* \"#utility.yul\":2359:2394   */\n      swap1\n      pop\n        /* \"#utility.yul\":2304:2400   */\n      swap2\n      swap1\n      pop\n      jump\t// out\n        /* \"#utility.yul\":2406:2524   */\n    tag_188:\n        /* \"#utility.yul\":2493:2517   */\n      tag_255\n        /* \"#utility.yul\":2511:2516   */\n      dup2\n        /* \"#utility.yul\":2493:2517   */\n      tag_187\n      jump\t// in\n    tag_255:\n        /* \"#utility.yul\":2488:2491   */\n      dup3\n        /* \"#utility.yul\":2481:2518   */\n      mstore\n        /* \"#utility.yul\":2406:2524   */\n      pop\n      pop\n      jump\t// out\n        /* \"#utility.yul\":2530:2620   */\n    tag_189:\n        /* \"#utility.yul\":2564:2571   */\n      0x00\n        /* \"#utility.yul\":2607:2612   */\n      dup2\n        /* \"#utility.yul\":2600:2613   */\n      iszero\n        /* \"#utility.yul\":2593:2614   */\n      iszero\n        /* \"#utility.yul\":2582:2614   */\n      swap1\n      pop\n        /* \"#utility.yul\":2530:2620   */\n      swap2\n      swap1\n      pop\n      jump\t// out\n        /* \"#utility.yul\":2626:2735   */\n    tag_190:\n        /* \"#utility.yul\":2707:2728   */\n      tag_258\n        /* \"#utility.yul\":2722:2727   */\n      dup2\n        /* \"#utility.yul\":2707:2728   */\n      tag_189\n      jump\t// in\n    tag_258:\n        /* \"#utility.yul\":2702:2705   */\n      dup3\n        /* \"#utility.yul\":2695:2729   */\n      mstore\n        /* \"#utility.yul\":2626:2735   */\n      pop\n      pop\n      jump\t// out\n        /* \"#utility.yul\":2741:3686   */\n    tag_23:\n        /* \"#utility.yul\":3008:3012   */\n      0x00\n        /* \"#utility.yul\":3046:3049   */\n      0xc0\n        /* \"#utility.yul\":3035:3044   */\n      dup3\n        /* \"#utility.yul\":3031:3050   */\n      add\n        /* \"#utility.yul\":3023:3050   */\n      swap1\n      pop\n        /* \"#utility.yul\":3060:3131   */\n      tag_260\n        /* \"#utility.yul\":3128:3129   */\n      0x00\n        /* \"#utility.yul\":3117:3126   */\n      dup4\n        /* \"#utility.yul\":3113:3130   */\n      add\n        /* \"#utility.yul\":3104:3110   */\n      dup10\n        /* \"#utility.yul\":3060:3131   */\n      tag_180\n      jump\t// in\n    tag_260:\n        /* \"#utility.yul\":3178:3187   */\n      dup2\n        /* \"#utility.yul\":3172:3176   */\n      dup2\n        /* \"#utility.yul\":3168:3188   */\n      sub\n        /* \"#utility.yul\":3163:3165   */\n      0x20\n        /* \"#utility.yul\":3152:3161   */\n      dup4\n        /* \"#utility.yul\":3148:3166   */\n      add\n        /* \"#utility.yul\":3141:3189   */\n      mstore\n        /* \"#utility.yul\":3206:3284   */\n      tag_261\n        /* \"#utility.yul\":3279:3283   */\n      dup2\n        /* \"#utility.yul\":3270:3276   */\n      dup9\n        /* \"#utility.yul\":3206:3284   */\n      tag_185\n      jump\t// in\n    tag_261:\n        /* \"#utility.yul\":3198:3284   */\n      swap1\n      pop\n        /* \"#utility.yul\":3331:3340   */\n      dup2\n        /* \"#utility.yul\":3325:3329   */\n      dup2\n        /* \"#utility.yul\":3321:3341   */\n      sub\n        /* \"#utility.yul\":3316:3318   */\n      0x40\n        /* \"#utility.yul\":3305:3314   */\n      dup4\n        /* \"#utility.yul\":3301:3319   */\n      add\n        /* \"#utility.yul\":3294:3342   */\n      mstore\n        /* \"#utility.yul\":3359:3437   */\n      tag_262\n        /* \"#utility.yul\":3432:3436   */\n      dup2\n        /* \"#utility.yul\":3423:3429   */\n      dup8\n        /* \"#utility.yul\":3359:3437   */\n      tag_185\n      jump\t// in\n    tag_262:\n        /* \"#utility.yul\":3351:3437   */\n      swap1\n      pop\n        /* \"#utility.yul\":3447:3519   */\n      tag_263\n        /* \"#utility.yul\":3515:3517   */\n      0x60\n        /* \"#utility.yul\":3504:3513   */\n      dup4\n        /* \"#utility.yul\":3500:3518   */\n      add\n        /* \"#utility.yul\":3491:3497   */\n      dup7\n        /* \"#utility.yul\":3447:3519   */\n      tag_180\n      jump\t// in\n    tag_263:\n        /* \"#utility.yul\":3529:3602   */\n      tag_264\n        /* \"#utility.yul\":3597:3600   */\n      0x80\n        /* \"#utility.yul\":3586:3595   */\n      dup4\n        /* \"#utility.yul\":3582:3601   */\n      add\n        /* \"#utility.yul\":3573:3579   */\n      dup6\n        /* \"#utility.yul\":3529:3602   */\n      tag_188\n      jump\t// in\n    tag_264:\n        /* \"#utility.yul\":3612:3679   */\n      tag_265\n        /* \"#utility.yul\":3674:3677   */\n      0xa0\n        /* \"#utility.yul\":3663:3672   */\n      dup4\n        /* \"#utility.yul\":3659:3678   */\n      add\n        /* \"#utility.yul\":3650:3656   */\n      dup5\n        /* \"#utility.yul\":3612:3679   */\n      tag_190\n      jump\t// in\n    tag_265:\n        /* \"#utility.yul\":2741:3686   */\n      swap8\n      swap7\n      pop\n      pop\n      pop\n      pop\n      pop\n      pop\n      pop\n      jump\t// out\n        /* \"#utility.yul\":3692:3914   */\n    tag_27:\n        /* \"#utility.yul\":3785:3789   */\n      0x00\n        /* \"#utility.yul\":3823:3825   */\n      0x20\n        /* \"#utility.yul\":3812:3821   */\n      dup3\n        /* \"#utility.yul\":3808:3826   */\n      add\n        /* \"#utility.yul\":3800:3826   */\n      swap1\n      pop\n        /* \"#utility.yul\":3836:3907   */\n      tag_267\n        /* \"#utility.yul\":3904:3905   */\n      0x00\n        /* \"#utility.yul\":3893:3902   */\n      dup4\n        /* \"#utility.yul\":3889:3906   */\n      add\n        /* \"#utility.yul\":3880:3886   */\n      dup5\n        /* \"#utility.yul\":3836:3907   */\n      tag_180\n      jump\t// in\n    tag_267:\n        /* \"#utility.yul\":3692:3914   */\n      swap3\n      swap2\n      pop\n      pop\n      jump\t// out\n        /* \"#utility.yul\":3920:4655   */\n    tag_35:\n        /* \"#utility.yul\":4137:4141   */\n      0x00\n        /* \"#utility.yul\":4175:4178   */\n      0x80\n        /* \"#utility.yul\":4164:4173   */\n      dup3\n        /* \"#utility.yul\":4160:4179   */\n      add\n        /* \"#utility.yul\":4152:4179   */\n      swap1\n      pop\n        /* \"#utility.yul\":4225:4234   */\n      dup2\n        /* \"#utility.yul\":4219:4223   */\n      dup2\n        /* \"#utility.yul\":4215:4235   */\n      sub\n        /* \"#utility.yul\":4211:4212   */\n      0x00\n        /* \"#utility.yul\":4200:4209   */\n      dup4\n        /* \"#utility.yul\":4196:4213   */\n      add\n        /* \"#utility.yul\":4189:4236   */\n      mstore\n        /* \"#utility.yul\":4253:4331   */\n      tag_269\n        /* \"#utility.yul\":4326:4330   */\n      dup2\n        /* \"#utility.yul\":4317:4323   */\n      dup8\n        /* \"#utility.yul\":4253:4331   */\n      tag_185\n      jump\t// in\n    tag_269:\n        /* \"#utility.yul\":4245:4331   */\n      swap1\n      pop\n        /* \"#utility.yul\":4378:4387   */\n      dup2\n        /* \"#utility.yul\":4372:4376   */\n      dup2\n        /* \"#utility.yul\":4368:4388   */\n      sub\n        /* \"#utility.yul\":4363:4365   */\n      0x20\n        /* \"#utility.yul\":4352:4361   */\n      dup4\n        /* \"#utility.yul\":4348:4366   */\n      add\n        /* \"#utility.yul\":4341:4389   */\n      mstore\n        /* \"#utility.yul\":4406:4484   */\n      tag_270\n        /* \"#utility.yul\":4479:4483   */\n      dup2\n        /* \"#utility.yul\":4470:4476   */\n      dup7\n        /* \"#utility.yul\":4406:4484   */\n      tag_185\n      jump\t// in\n    tag_270:\n        /* \"#utility.yul\":4398:4484   */\n      swap1\n      pop\n        /* \"#utility.yul\":4494:4566   */\n      tag_271\n        /* \"#utility.yul\":4562:4564   */\n      0x40\n        /* \"#utility.yul\":4551:4560   */\n      dup4\n        /* \"#utility.yul\":4547:4565   */\n      add\n        /* \"#utility.yul\":4538:4544   */\n      dup6\n        /* \"#utility.yul\":4494:4566   */\n      tag_180\n      jump\t// in\n    tag_271:\n        /* \"#utility.yul\":4576:4648   */\n      tag_272\n        /* \"#utility.yul\":4644:4646   */\n      0x60\n        /* \"#utility.yul\":4633:4642   */\n      dup4\n        /* \"#utility.yul\":4629:4647   */\n      add\n        /* \"#utility.yul\":4620:4626   */\n      dup5\n        /* \"#utility.yul\":4576:4648   */\n      tag_188\n      jump\t// in\n    tag_272:\n        /* \"#utility.yul\":3920:4655   */\n      swap6\n      swap5\n      pop\n      pop\n      pop\n      pop\n      pop\n      jump\t// out\n        /* \"#utility.yul\":4661:5586   */\n    tag_40:\n        /* \"#utility.yul\":4920:4924   */\n      0x00\n        /* \"#utility.yul\":4958:4961   */\n      0xa0\n        /* \"#utility.yul\":4947:4956   */\n      dup3\n        /* \"#utility.yul\":4943:4962   */\n      add\n        /* \"#utility.yul\":4935:4962   */\n      swap1\n      pop\n        /* \"#utility.yul\":4972:5043   */\n      tag_274\n        /* \"#utility.yul\":5040:5041   */\n      0x00\n        /* \"#utility.yul\":5029:5038   */\n      dup4\n        /* \"#utility.yul\":5025:5042   */\n      add\n        /* \"#utility.yul\":5016:5022   */\n      dup9\n        /* \"#utility.yul\":4972:5043   */\n      tag_180\n      jump\t// in\n    tag_274:\n        /* \"#utility.yul\":5090:5099   */\n      dup2\n        /* \"#utility.yul\":5084:5088   */\n      dup2\n        /* \"#utility.yul\":5080:5100   */\n      sub\n        /* \"#utility.yul\":5075:5077   */\n      0x20\n        /* \"#utility.yul\":5064:5073   */\n      dup4\n        /* \"#utility.yul\":5060:5078   */\n      add\n        /* \"#utility.yul\":5053:5101   */\n      mstore\n        /* \"#utility.yul\":5118:5196   */\n      tag_275\n        /* \"#utility.yul\":5191:5195   */\n      dup2\n        /* \"#utility.yul\":5182:5188   */\n      dup8\n        /* \"#utility.yul\":5118:5196   */\n      tag_185\n      jump\t// in\n    tag_275:\n        /* \"#utility.yul\":5110:5196   */\n      swap1\n      pop\n        /* \"#utility.yul\":5243:5252   */\n      dup2\n        /* \"#utility.yul\":5237:5241   */\n      dup2\n        /* \"#utility.yul\":5233:5253   */\n      sub\n        /* \"#utility.yul\":5228:5230   */\n      0x40\n        /* \"#utility.yul\":5217:5226   */\n      dup4\n        /* \"#utility.yul\":5213:5231   */\n      add\n        /* \"#utility.yul\":5206:5254   */\n      mstore\n        /* \"#utility.yul\":5271:5349   */\n      tag_276\n        /* \"#utility.yul\":5344:5348   */\n      dup2\n        /* \"#utility.yul\":5335:5341   */\n      dup7\n        /* \"#utility.yul\":5271:5349   */\n      tag_185\n      jump\t// in\n    tag_276:\n        /* \"#utility.yul\":5263:5349   */\n      swap1\n      pop\n        /* \"#utility.yul\":5396:5405   */\n      dup2\n        /* \"#utility.yul\":5390:5394   */\n      dup2\n        /* \"#utility.yul\":5386:5406   */\n      sub\n        /* \"#utility.yul\":5381:5383   */\n      0x60\n        /* \"#utility.yul\":5370:5379   */\n      dup4\n        /* \"#utility.yul\":5366:5384   */\n      add\n        /* \"#utility.yul\":5359:5407   */\n      mstore\n        /* \"#utility.yul\":5424:5502   */\n      tag_277\n        /* \"#utility.yul\":5497:5501   */\n      dup2\n        /* \"#utility.yul\":5488:5494   */\n      dup6\n        /* \"#utility.yul\":5424:5502   */\n      tag_185\n      jump\t// in\n    tag_277:\n        /* \"#utility.yul\":5416:5502   */\n      swap1\n      pop\n        /* \"#utility.yul\":5512:5579   */\n      tag_278\n        /* \"#utility.yul\":5574:5577   */\n      0x80\n        /* \"#utility.yul\":5563:5572   */\n      dup4\n        /* \"#utility.yul\":5559:5578   */\n      add\n        /* \"#utility.yul\":5550:5556   */\n      dup5\n        /* \"#utility.yul\":5512:5579   */\n      tag_190\n      jump\t// in\n    tag_278:\n        /* \"#utility.yul\":4661:5586   */\n      swap7\n      swap6\n      pop\n      pop\n      pop\n      pop\n      pop\n      pop\n      jump\t// out\n        /* \"#utility.yul\":5592:5709   */\n    tag_191:\n        /* \"#utility.yul\":5701:5702   */\n      0x00\n        /* \"#utility.yul\":5698:5699   */\n      dup1\n        /* \"#utility.yul\":5691:5703   */\n      revert\n        /* \"#utility.yul\":5715:5832   */\n    tag_192:\n        /* \"#utility.yul\":5824:5825   */\n      0x00\n        /* \"#utility.yul\":5821:5822   */\n      dup1\n        /* \"#utility.yul\":5814:5826   */\n      revert\n        /* \"#utility.yul\":5838:6018   */\n    tag_193:\n        /* \"#utility.yul\":5886:5963   */\n      0x4e487b7100000000000000000000000000000000000000000000000000000000\n        /* \"#utility.yul\":5883:5884   */\n      0x00\n        /* \"#utility.yul\":5876:5964   */\n      mstore\n        /* \"#utility.yul\":5983:5987   */\n      0x41\n        /* \"#utility.yul\":5980:5981   */\n      0x04\n        /* \"#utility.yul\":5973:5988   */\n      mstore\n        /* \"#utility.yul\":6007:6011   */\n      0x24\n        /* \"#utility.yul\":6004:6005   */\n      0x00\n        /* \"#utility.yul\":5997:6012   */\n      revert\n        /* \"#utility.yul\":6024:6305   */\n    tag_194:\n        /* \"#utility.yul\":6107:6134   */\n      tag_283\n        /* \"#utility.yul\":6129:6133   */\n      dup3\n        /* \"#utility.yul\":6107:6134   */\n      tag_184\n      jump\t// in\n    tag_283:\n        /* \"#utility.yul\":6099:6105   */\n      dup2\n        /* \"#utility.yul\":6095:6135   */\n      add\n        /* \"#utility.yul\":6237:6243   */\n      dup2\n        /* \"#utility.yul\":6225:6235   */\n      dup2\n        /* \"#utility.yul\":6222:6244   */\n      lt\n        /* \"#utility.yul\":6201:6219   */\n      0xffffffffffffffff\n        /* \"#utility.yul\":6189:6199   */\n      dup3\n        /* \"#utility.yul\":6186:6220   */\n      gt\n        /* \"#utility.yul\":6183:6245   */\n      or\n        /* \"#utility.yul\":6180:6268   */\n      iszero\n      tag_284\n      jumpi\n        /* \"#utility.yul\":6248:6266   */\n      tag_285\n      tag_193\n      jump\t// in\n    tag_285:\n        /* \"#utility.yul\":6180:6268   */\n    tag_284:\n        /* \"#utility.yul\":6288:6298   */\n      dup1\n        /* \"#utility.yul\":6284:6286   */\n      0x40\n        /* \"#utility.yul\":6277:6299   */\n      mstore\n        /* \"#utility.yul\":6067:6305   */\n      pop\n        /* \"#utility.yul\":6024:6305   */\n      pop\n      pop\n      jump\t// out\n        /* \"#utility.yul\":6311:6440   */\n    tag_195:\n        /* \"#utility.yul\":6345:6351   */\n      0x00\n        /* \"#utility.yul\":6372:6392   */\n      tag_287\n      tag_174\n      jump\t// in\n    tag_287:\n        /* \"#utility.yul\":6362:6392   */\n      swap1\n      pop\n        /* \"#utility.yul\":6401:6434   */\n      tag_288\n        /* \"#utility.yul\":6429:6433   */\n      dup3\n        /* \"#utility.yul\":6421:6427   */\n      dup3\n        /* \"#utility.yul\":6401:6434   */\n      tag_194\n      jump\t// in\n    tag_288:\n        /* \"#utility.yul\":6311:6440   */\n      swap2\n      swap1\n      pop\n      jump\t// out\n        /* \"#utility.yul\":6446:6754   */\n    tag_196:\n        /* \"#utility.yul\":6508:6512   */\n      0x00\n        /* \"#utility.yul\":6598:6616   */\n      0xffffffffffffffff\n        /* \"#utility.yul\":6590:6596   */\n      dup3\n        /* \"#utility.yul\":6587:6617   */\n      gt\n        /* \"#utility.yul\":6584:6640   */\n      iszero\n      tag_290\n      jumpi\n        /* \"#utility.yul\":6620:6638   */\n      tag_291\n      tag_193\n      jump\t// in\n    tag_291:\n        /* \"#utility.yul\":6584:6640   */\n    tag_290:\n        /* \"#utility.yul\":6658:6687   */\n      tag_292\n        /* \"#utility.yul\":6680:6686   */\n      dup3\n        /* \"#utility.yul\":6658:6687   */\n      tag_184\n      jump\t// in\n    tag_292:\n        /* \"#utility.yul\":6650:6687   */\n      swap1\n      pop\n        /* \"#utility.yul\":6742:6746   */\n      0x20\n        /* \"#utility.yul\":6736:6740   */\n      dup2\n        /* \"#utility.yul\":6732:6747   */\n      add\n        /* \"#utility.yul\":6724:6747   */\n      swap1\n      pop\n        /* \"#utility.yul\":6446:6754   */\n      swap2\n      swap1\n      pop\n      jump\t// out\n        /* \"#utility.yul\":6760:6906   */\n    tag_197:\n        /* \"#utility.yul\":6857:6863   */\n      dup3\n        /* \"#utility.yul\":6852:6855   */\n      dup2\n        /* \"#utility.yul\":6847:6850   */\n      dup4\n        /* \"#utility.yul\":6834:6864   */\n      calldatacopy\n        /* \"#utility.yul\":6898:6899   */\n      0x00\n        /* \"#utility.yul\":6889:6895   */\n      dup4\n        /* \"#utility.yul\":6884:6887   */\n      dup4\n        /* \"#utility.yul\":6880:6896   */\n      add\n        /* \"#utility.yul\":6873:6900   */\n      mstore\n        /* \"#utility.yul\":6760:6906   */\n      pop\n      pop\n      pop\n      jump\t// out\n        /* \"#utility.yul\":6912:7337   */\n    tag_198:\n        /* \"#utility.yul\":6990:6995   */\n      0x00\n        /* \"#utility.yul\":7015:7081   */\n      tag_295\n        /* \"#utility.yul\":7031:7080   */\n      tag_296\n        /* \"#utility.yul\":7073:7079   */\n      dup5\n        /* \"#utility.yul\":7031:7080   */\n      tag_196\n      jump\t// in\n    tag_296:\n        /* \"#utility.yul\":7015:7081   */\n      tag_195\n      jump\t// in\n    tag_295:\n        /* \"#utility.yul\":7006:7081   */\n      swap1\n      pop\n        /* \"#utility.yul\":7104:7110   */\n      dup3\n        /* \"#utility.yul\":7097:7102   */\n      dup2\n        /* \"#utility.yul\":7090:7111   */\n      mstore\n        /* \"#utility.yul\":7142:7146   */\n      0x20\n        /* \"#utility.yul\":7135:7140   */\n      dup2\n        /* \"#utility.yul\":7131:7147   */\n      add\n        /* \"#utility.yul\":7180:7183   */\n      dup5\n        /* \"#utility.yul\":7171:7177   */\n      dup5\n        /* \"#utility.yul\":7166:7169   */\n      dup5\n        /* \"#utility.yul\":7162:7178   */\n      add\n        /* \"#utility.yul\":7159:7184   */\n      gt\n        /* \"#utility.yul\":7156:7268   */\n      iszero\n      tag_297\n      jumpi\n        /* \"#utility.yul\":7187:7266   */\n      tag_298\n      tag_192\n      jump\t// in\n    tag_298:\n        /* \"#utility.yul\":7156:7268   */\n    tag_297:\n        /* \"#utility.yul\":7277:7331   */\n      tag_299\n        /* \"#utility.yul\":7324:7330   */\n      dup5\n        /* \"#utility.yul\":7319:7322   */\n      dup3\n        /* \"#utility.yul\":7314:7317   */\n      dup6\n        /* \"#utility.yul\":7277:7331   */\n      tag_197\n      jump\t// in\n    tag_299:\n        /* \"#utility.yul\":6996:7337   */\n      pop\n        /* \"#utility.yul\":6912:7337   */\n      swap4\n      swap3\n      pop\n      pop\n      pop\n      jump\t// out\n        /* \"#utility.yul\":7357:7697   */\n    tag_199:\n        /* \"#utility.yul\":7413:7418   */\n      0x00\n        /* \"#utility.yul\":7462:7465   */\n      dup3\n        /* \"#utility.yul\":7455:7459   */\n      0x1f\n        /* \"#utility.yul\":7447:7453   */\n      dup4\n        /* \"#utility.yul\":7443:7460   */\n      add\n        /* \"#utility.yul\":7439:7466   */\n      slt\n        /* \"#utility.yul\":7429:7551   */\n      tag_301\n      jumpi\n        /* \"#utility.yul\":7470:7549   */\n      tag_302\n      tag_191\n      jump\t// in\n    tag_302:\n        /* \"#utility.yul\":7429:7551   */\n    tag_301:\n        /* \"#utility.yul\":7587:7593   */\n      dup2\n        /* \"#utility.yul\":7574:7594   */\n      calldataload\n        /* \"#utility.yul\":7612:7691   */\n      tag_303\n        /* \"#utility.yul\":7687:7690   */\n      dup5\n        /* \"#utility.yul\":7679:7685   */\n      dup3\n        /* \"#utility.yul\":7672:7676   */\n      0x20\n        /* \"#utility.yul\":7664:7670   */\n      dup7\n        /* \"#utility.yul\":7660:7677   */\n      add\n        /* \"#utility.yul\":7612:7691   */\n      tag_198\n      jump\t// in\n    tag_303:\n        /* \"#utility.yul\":7603:7691   */\n      swap2\n      pop\n        /* \"#utility.yul\":7419:7697   */\n      pop\n        /* \"#utility.yul\":7357:7697   */\n      swap3\n      swap2\n      pop\n      pop\n      jump\t// out\n        /* \"#utility.yul\":7703:8682   */\n    tag_43:\n        /* \"#utility.yul\":7800:7806   */\n      0x00\n        /* \"#utility.yul\":7808:7814   */\n      dup1\n        /* \"#utility.yul\":7816:7822   */\n      0x00\n        /* \"#utility.yul\":7865:7867   */\n      0x60\n        /* \"#utility.yul\":7853:7862   */\n      dup5\n        /* \"#utility.yul\":7844:7851   */\n      dup7\n        /* \"#utility.yul\":7840:7863   */\n      sub\n        /* \"#utility.yul\":7836:7868   */\n      slt\n        /* \"#utility.yul\":7833:7952   */\n      iszero\n      tag_305\n      jumpi\n        /* \"#utility.yul\":7871:7950   */\n      tag_306\n      tag_175\n      jump\t// in\n    tag_306:\n        /* \"#utility.yul\":7833:7952   */\n    tag_305:\n        /* \"#utility.yul\":8019:8020   */\n      0x00\n        /* \"#utility.yul\":8008:8017   */\n      dup5\n        /* \"#utility.yul\":8004:8021   */\n      add\n        /* \"#utility.yul\":7991:8022   */\n      calldataload\n        /* \"#utility.yul\":8049:8067   */\n      0xffffffffffffffff\n        /* \"#utility.yul\":8041:8047   */\n      dup2\n        /* \"#utility.yul\":8038:8068   */\n      gt\n        /* \"#utility.yul\":8035:8152   */\n      iszero\n      tag_307\n      jumpi\n        /* \"#utility.yul\":8071:8150   */\n      tag_308\n      tag_176\n      jump\t// in\n    tag_308:\n        /* \"#utility.yul\":8035:8152   */\n    tag_307:\n        /* \"#utility.yul\":8176:8239   */\n      tag_309\n        /* \"#utility.yul\":8231:8238   */\n      dup7\n        /* \"#utility.yul\":8222:8228   */\n      dup3\n        /* \"#utility.yul\":8211:8220   */\n      dup8\n        /* \"#utility.yul\":8207:8229   */\n      add\n        /* \"#utility.yul\":8176:8239   */\n      tag_199\n      jump\t// in\n    tag_309:\n        /* \"#utility.yul\":8166:8239   */\n      swap4\n      pop\n        /* \"#utility.yul\":7962:8249   */\n      pop\n        /* \"#utility.yul\":8316:8318   */\n      0x20\n        /* \"#utility.yul\":8305:8314   */\n      dup5\n        /* \"#utility.yul\":8301:8319   */\n      add\n        /* \"#utility.yul\":8288:8320   */\n      calldataload\n        /* \"#utility.yul\":8347:8365   */\n      0xffffffffffffffff\n        /* \"#utility.yul\":8339:8345   */\n      dup2\n        /* \"#utility.yul\":8336:8366   */\n      gt\n        /* \"#utility.yul\":8333:8450   */\n      iszero\n      tag_310\n      jumpi\n        /* \"#utility.yul\":8369:8448   */\n      tag_311\n      tag_176\n      jump\t// in\n    tag_311:\n        /* \"#utility.yul\":8333:8450   */\n    tag_310:\n        /* \"#utility.yul\":8474:8537   */\n      tag_312\n        /* \"#utility.yul\":8529:8536   */\n      dup7\n        /* \"#utility.yul\":8520:8526   */\n      dup3\n        /* \"#utility.yul\":8509:8518   */\n      dup8\n        /* \"#utility.yul\":8505:8527   */\n      add\n        /* \"#utility.yul\":8474:8537   */\n      tag_199\n      jump\t// in\n    tag_312:\n        /* \"#utility.yul\":8464:8537   */\n      swap3\n      pop\n        /* \"#utility.yul\":8259:8547   */\n      pop\n        /* \"#utility.yul\":8586:8588   */\n      0x40\n        /* \"#utility.yul\":8612:8665   */\n      tag_313\n        /* \"#utility.yul\":8657:8664   */\n      dup7\n        /* \"#utility.yul\":8648:8654   */\n      dup3\n        /* \"#utility.yul\":8637:8646   */\n      dup8\n        /* \"#utility.yul\":8633:8655   */\n      add\n        /* \"#utility.yul\":8612:8665   */\n      tag_179\n      jump\t// in\n    tag_313:\n        /* \"#utility.yul\":8602:8665   */\n      swap2\n      pop\n        /* \"#utility.yul\":8557:8675   */\n      pop\n        /* \"#utility.yul\":7703:8682   */\n      swap3\n      pop\n      swap3\n      pop\n      swap3\n      jump\t// out\n        /* \"#utility.yul\":8688:9020   */\n    tag_49:\n        /* \"#utility.yul\":8809:8813   */\n      0x00\n        /* \"#utility.yul\":8847:8849   */\n      0x40\n        /* \"#utility.yul\":8836:8845   */\n      dup3\n        /* \"#utility.yul\":8832:8850   */\n      add\n        /* \"#utility.yul\":8824:8850   */\n      swap1\n      pop\n        /* \"#utility.yul\":8860:8931   */\n      tag_315\n        /* \"#utility.yul\":8928:8929   */\n      0x00\n        /* \"#utility.yul\":8917:8926   */\n      dup4\n        /* \"#utility.yul\":8913:8930   */\n      add\n        /* \"#utility.yul\":8904:8910   */\n      dup6\n        /* \"#utility.yul\":8860:8931   */\n      tag_180\n      jump\t// in\n    tag_315:\n        /* \"#utility.yul\":8941:9013   */\n      tag_316\n        /* \"#utility.yul\":9009:9011   */\n      0x20\n        /* \"#utility.yul\":8998:9007   */\n      dup4\n        /* \"#utility.yul\":8994:9012   */\n      add\n        /* \"#utility.yul\":8985:8991   */\n      dup5\n        /* \"#utility.yul\":8941:9013   */\n      tag_180\n      jump\t// in\n    tag_316:\n        /* \"#utility.yul\":8688:9020   */\n      swap4\n      swap3\n      pop\n      pop\n      pop\n      jump\t// out\n        /* \"#utility.yul\":9026:10185   */\n    tag_52:\n        /* \"#utility.yul\":9133:9139   */\n      0x00\n        /* \"#utility.yul\":9141:9147   */\n      dup1\n        /* \"#utility.yul\":9149:9155   */\n      0x00\n        /* \"#utility.yul\":9198:9200   */\n      0x60\n        /* \"#utility.yul\":9186:9195   */\n      dup5\n        /* \"#utility.yul\":9177:9184   */\n      dup7\n        /* \"#utility.yul\":9173:9196   */\n      sub\n        /* \"#utility.yul\":9169:9201   */\n      slt\n        /* \"#utility.yul\":9166:9285   */\n      iszero\n      tag_318\n      jumpi\n        /* \"#utility.yul\":9204:9283   */\n      tag_319\n      tag_175\n      jump\t// in\n    tag_319:\n        /* \"#utility.yul\":9166:9285   */\n    tag_318:\n        /* \"#utility.yul\":9352:9353   */\n      0x00\n        /* \"#utility.yul\":9341:9350   */\n      dup5\n        /* \"#utility.yul\":9337:9354   */\n      add\n        /* \"#utility.yul\":9324:9355   */\n      calldataload\n        /* \"#utility.yul\":9382:9400   */\n      0xffffffffffffffff\n        /* \"#utility.yul\":9374:9380   */\n      dup2\n        /* \"#utility.yul\":9371:9401   */\n      gt\n        /* \"#utility.yul\":9368:9485   */\n      iszero\n      tag_320\n      jumpi\n        /* \"#utility.yul\":9404:9483   */\n      tag_321\n      tag_176\n      jump\t// in\n    tag_321:\n        /* \"#utility.yul\":9368:9485   */\n    tag_320:\n        /* \"#utility.yul\":9509:9572   */\n      tag_322\n        /* \"#utility.yul\":9564:9571   */\n      dup7\n        /* \"#utility.yul\":9555:9561   */\n      dup3\n        /* \"#utility.yul\":9544:9553   */\n      dup8\n        /* \"#utility.yul\":9540:9562   */\n      add\n        /* \"#utility.yul\":9509:9572   */\n      tag_199\n      jump\t// in\n    tag_322:\n        /* \"#utility.yul\":9499:9572   */\n      swap4\n      pop\n        /* \"#utility.yul\":9295:9582   */\n      pop\n        /* \"#utility.yul\":9649:9651   */\n      0x20\n        /* \"#utility.yul\":9638:9647   */\n      dup5\n        /* \"#utility.yul\":9634:9652   */\n      add\n        /* \"#utility.yul\":9621:9653   */\n      calldataload\n        /* \"#utility.yul\":9680:9698   */\n      0xffffffffffffffff\n        /* \"#utility.yul\":9672:9678   */\n      dup2\n        /* \"#utility.yul\":9669:9699   */\n      gt\n        /* \"#utility.yul\":9666:9783   */\n      iszero\n      tag_323\n      jumpi\n        /* \"#utility.yul\":9702:9781   */\n      tag_324\n      tag_176\n      jump\t// in\n    tag_324:\n        /* \"#utility.yul\":9666:9783   */\n    tag_323:\n        /* \"#utility.yul\":9807:9870   */\n      tag_325\n        /* \"#utility.yul\":9862:9869   */\n      dup7\n        /* \"#utility.yul\":9853:9859   */\n      dup3\n        /* \"#utility.yul\":9842:9851   */\n      dup8\n        /* \"#utility.yul\":9838:9860   */\n      add\n        /* \"#utility.yul\":9807:9870   */\n      tag_199\n      jump\t// in\n    tag_325:\n        /* \"#utility.yul\":9797:9870   */\n      swap3\n      pop\n        /* \"#utility.yul\":9592:9880   */\n      pop\n        /* \"#utility.yul\":9947:9949   */\n      0x40\n        /* \"#utility.yul\":9936:9945   */\n      dup5\n        /* \"#utility.yul\":9932:9950   */\n      add\n        /* \"#utility.yul\":9919:9951   */\n      calldataload\n        /* \"#utility.yul\":9978:9996   */\n      0xffffffffffffffff\n        /* \"#utility.yul\":9970:9976   */\n      dup2\n        /* \"#utility.yul\":9967:9997   */\n      gt\n        /* \"#utility.yul\":9964:10081   */\n      iszero\n      tag_326\n      jumpi\n        /* \"#utility.yul\":10000:10079   */\n      tag_327\n      tag_176\n      jump\t// in\n    tag_327:\n        /* \"#utility.yul\":9964:10081   */\n    tag_326:\n        /* \"#utility.yul\":10105:10168   */\n      tag_328\n        /* \"#utility.yul\":10160:10167   */\n      dup7\n        /* \"#utility.yul\":10151:10157   */\n      dup3\n        /* \"#utility.yul\":10140:10149   */\n      dup8\n        /* \"#utility.yul\":10136:10158   */\n      add\n        /* \"#utility.yul\":10105:10168   */\n      tag_199\n      jump\t// in\n    tag_328:\n        /* \"#utility.yul\":10095:10168   */\n      swap2\n      pop\n        /* \"#utility.yul\":9890:10178   */\n      pop\n        /* \"#utility.yul\":9026:10185   */\n      swap3\n      pop\n      swap3\n      pop\n      swap3\n      jump\t// out\n        /* \"#utility.yul\":10191:10906   */\n    tag_62:\n        /* \"#utility.yul\":10400:10404   */\n      0x00\n        /* \"#utility.yul\":10438:10440   */\n      0x60\n        /* \"#utility.yul\":10427:10436   */\n      dup3\n        /* \"#utility.yul\":10423:10441   */\n      add\n        /* \"#utility.yul\":10415:10441   */\n      swap1\n      pop\n        /* \"#utility.yul\":10487:10496   */\n      dup2\n        /* \"#utility.yul\":10481:10485   */\n      dup2\n        /* \"#utility.yul\":10477:10497   */\n      sub\n        /* \"#utility.yul\":10473:10474   */\n      0x00\n        /* \"#utility.yul\":10462:10471   */\n      dup4\n        /* \"#utility.yul\":10458:10475   */\n      add\n        /* \"#utility.yul\":10451:10498   */\n      mstore\n        /* \"#utility.yul\":10515:10593   */\n      tag_330\n        /* \"#utility.yul\":10588:10592   */\n      dup2\n        /* \"#utility.yul\":10579:10585   */\n      dup7\n        /* \"#utility.yul\":10515:10593   */\n      tag_185\n      jump\t// in\n    tag_330:\n        /* \"#utility.yul\":10507:10593   */\n      swap1\n      pop\n        /* \"#utility.yul\":10640:10649   */\n      dup2\n        /* \"#utility.yul\":10634:10638   */\n      dup2\n        /* \"#utility.yul\":10630:10650   */\n      sub\n        /* \"#utility.yul\":10625:10627   */\n      0x20\n        /* \"#utility.yul\":10614:10623   */\n      dup4\n        /* \"#utility.yul\":10610:10628   */\n      add\n        /* \"#utility.yul\":10603:10651   */\n      mstore\n        /* \"#utility.yul\":10668:10746   */\n      tag_331\n        /* \"#utility.yul\":10741:10745   */\n      dup2\n        /* \"#utility.yul\":10732:10738   */\n      dup6\n        /* \"#utility.yul\":10668:10746   */\n      tag_185\n      jump\t// in\n    tag_331:\n        /* \"#utility.yul\":10660:10746   */\n      swap1\n      pop\n        /* \"#utility.yul\":10793:10802   */\n      dup2\n        /* \"#utility.yul\":10787:10791   */\n      dup2\n        /* \"#utility.yul\":10783:10803   */\n      sub\n        /* \"#utility.yul\":10778:10780   */\n      0x40\n        /* \"#utility.yul\":10767:10776   */\n      dup4\n        /* \"#utility.yul\":10763:10781   */\n      add\n        /* \"#utility.yul\":10756:10804   */\n      mstore\n        /* \"#utility.yul\":10821:10899   */\n      tag_332\n        /* \"#utility.yul\":10894:10898   */\n      dup2\n        /* \"#utility.yul\":10885:10891   */\n      dup5\n        /* \"#utility.yul\":10821:10899   */\n      tag_185\n      jump\t// in\n    tag_332:\n        /* \"#utility.yul\":10813:10899   */\n      swap1\n      pop\n        /* \"#utility.yul\":10191:10906   */\n      swap5\n      swap4\n      pop\n      pop\n      pop\n      pop\n      jump\t// out\n        /* \"#utility.yul\":10912:11386   */\n    tag_65:\n        /* \"#utility.yul\":10980:10986   */\n      0x00\n        /* \"#utility.yul\":10988:10994   */\n      dup1\n        /* \"#utility.yul\":11037:11039   */\n      0x40\n        /* \"#utility.yul\":11025:11034   */\n      dup4\n        /* \"#utility.yul\":11016:11023   */\n      dup6\n        /* \"#utility.yul\":11012:11035   */\n      sub\n        /* \"#utility.yul\":11008:11040   */\n      slt\n        /* \"#utility.yul\":11005:11124   */\n      iszero\n      tag_334\n      jumpi\n        /* \"#utility.yul\":11043:11122   */\n      tag_335\n      tag_175\n      jump\t// in\n    tag_335:\n        /* \"#utility.yul\":11005:11124   */\n    tag_334:\n        /* \"#utility.yul\":11163:11164   */\n      0x00\n        /* \"#utility.yul\":11188:11241   */\n      tag_336\n        /* \"#utility.yul\":11233:11240   */\n      dup6\n        /* \"#utility.yul\":11224:11230   */\n      dup3\n        /* \"#utility.yul\":11213:11222   */\n      dup7\n        /* \"#utility.yul\":11209:11231   */\n      add\n        /* \"#utility.yul\":11188:11241   */\n      tag_179\n      jump\t// in\n    tag_336:\n        /* \"#utility.yul\":11178:11241   */\n      swap3\n      pop\n        /* \"#utility.yul\":11134:11251   */\n      pop\n        /* \"#utility.yul\":11290:11292   */\n      0x20\n        /* \"#utility.yul\":11316:11369   */\n      tag_337\n        /* \"#utility.yul\":11361:11368   */\n      dup6\n        /* \"#utility.yul\":11352:11358   */\n      dup3\n        /* \"#utility.yul\":11341:11350   */\n      dup7\n        /* \"#utility.yul\":11337:11359   */\n      add\n        /* \"#utility.yul\":11316:11369   */\n      tag_179\n      jump\t// in\n    tag_337:\n        /* \"#utility.yul\":11306:11369   */\n      swap2\n      pop\n        /* \"#utility.yul\":11261:11379   */\n      pop\n        /* \"#utility.yul\":10912:11386   */\n      swap3\n      pop\n      swap3\n      swap1\n      pop\n      jump\t// out\n        /* \"#utility.yul\":11392:11705   */\n    tag_74:\n        /* \"#utility.yul\":11505:11509   */\n      0x00\n        /* \"#utility.yul\":11543:11545   */\n      0x20\n        /* \"#utility.yul\":11532:11541   */\n      dup3\n        /* \"#utility.yul\":11528:11546   */\n      add\n        /* \"#utility.yul\":11520:11546   */\n      swap1\n      pop\n        /* \"#utility.yul\":11592:11601   */\n      dup2\n        /* \"#utility.yul\":11586:11590   */\n      dup2\n        /* \"#utility.yul\":11582:11602   */\n      sub\n        /* \"#utility.yul\":11578:11579   */\n      0x00\n        /* \"#utility.yul\":11567:11576   */\n      dup4\n        /* \"#utility.yul\":11563:11580   */\n      add\n        /* \"#utility.yul\":11556:11603   */\n      mstore\n        /* \"#utility.yul\":11620:11698   */\n      tag_339\n        /* \"#utility.yul\":11693:11697   */\n      dup2\n        /* \"#utility.yul\":11684:11690   */\n      dup5\n        /* \"#utility.yul\":11620:11698   */\n      tag_185\n      jump\t// in\n    tag_339:\n        /* \"#utility.yul\":11612:11698   */\n      swap1\n      pop\n        /* \"#utility.yul\":11392:11705   */\n      swap3\n      swap2\n      pop\n      pop\n      jump\t// out\n        /* \"#utility.yul\":11711:11891   */\n    tag_200:\n        /* \"#utility.yul\":11759:11836   */\n      0x4e487b7100000000000000000000000000000000000000000000000000000000\n        /* \"#utility.yul\":11756:11757   */\n      0x00\n        /* \"#utility.yul\":11749:11837   */\n      mstore\n        /* \"#utility.yul\":11856:11860   */\n      0x22\n        /* \"#utility.yul\":11853:11854   */\n      0x04\n        /* \"#utility.yul\":11846:11861   */\n      mstore\n        /* \"#utility.yul\":11880:11884   */\n      0x24\n        /* \"#utility.yul\":11877:11878   */\n      0x00\n        /* \"#utility.yul\":11870:11885   */\n      revert\n        /* \"#utility.yul\":11897:12217   */\n    tag_76:\n        /* \"#utility.yul\":11941:11947   */\n      0x00\n        /* \"#utility.yul\":11978:11979   */\n      0x02\n        /* \"#utility.yul\":11972:11976   */\n      dup3\n        /* \"#utility.yul\":11968:11980   */\n      div\n        /* \"#utility.yul\":11958:11980   */\n      swap1\n      pop\n        /* \"#utility.yul\":12025:12026   */\n      0x01\n        /* \"#utility.yul\":12019:12023   */\n      dup3\n        /* \"#utility.yul\":12015:12027   */\n      and\n        /* \"#utility.yul\":12046:12064   */\n      dup1\n        /* \"#utility.yul\":12036:12117   */\n      tag_342\n      jumpi\n        /* \"#utility.yul\":12102:12106   */\n      0x7f\n        /* \"#utility.yul\":12094:12100   */\n      dup3\n        /* \"#utility.yul\":12090:12107   */\n      and\n        /* \"#utility.yul\":12080:12107   */\n      swap2\n      pop\n        /* \"#utility.yul\":12036:12117   */\n    tag_342:\n        /* \"#utility.yul\":12164:12166   */\n      0x20\n        /* \"#utility.yul\":12156:12162   */\n      dup3\n        /* \"#utility.yul\":12153:12167   */\n      lt\n        /* \"#utility.yul\":12133:12151   */\n      dup2\n        /* \"#utility.yul\":12130:12168   */\n      sub\n        /* \"#utility.yul\":12127:12211   */\n      tag_343\n      jumpi\n        /* \"#utility.yul\":12183:12201   */\n      tag_344\n      tag_200\n      jump\t// in\n    tag_344:\n        /* \"#utility.yul\":12127:12211   */\n    tag_343:\n        /* \"#utility.yul\":11948:12217   */\n      pop\n        /* \"#utility.yul\":11897:12217   */\n      swap2\n      swap1\n      pop\n      jump\t// out\n        /* \"#utility.yul\":12223:12449   */\n    tag_201:\n        /* \"#utility.yul\":12363:12397   */\n      0x4a6f6220646f6573206e6f74206578697374206f72206973206e6f7420617661\n        /* \"#utility.yul\":12359:12360   */\n      0x00\n        /* \"#utility.yul\":12351:12357   */\n      dup3\n        /* \"#utility.yul\":12347:12361   */\n      add\n        /* \"#utility.yul\":12340:12398   */\n      mstore\n        /* \"#utility.yul\":12432:12441   */\n      0x696c61626c652e00000000000000000000000000000000000000000000000000\n        /* \"#utility.yul\":12427:12429   */\n      0x20\n        /* \"#utility.yul\":12419:12425   */\n      dup3\n        /* \"#utility.yul\":12415:12430   */\n      add\n        /* \"#utility.yul\":12408:12442   */\n      mstore\n        /* \"#utility.yul\":12223:12449   */\n      pop\n      jump\t// out\n        /* \"#utility.yul\":12455:12821   */\n    tag_202:\n        /* \"#utility.yul\":12597:12600   */\n      0x00\n        /* \"#utility.yul\":12618:12685   */\n      tag_347\n        /* \"#utility.yul\":12682:12684   */\n      0x27\n        /* \"#utility.yul\":12677:12680   */\n      dup4\n        /* \"#utility.yul\":12618:12685   */\n      tag_182\n      jump\t// in\n    tag_347:\n        /* \"#utility.yul\":12611:12685   */\n      swap2\n      pop\n        /* \"#utility.yul\":12694:12787   */\n      tag_348\n        /* \"#utility.yul\":12783:12786   */\n      dup3\n        /* \"#utility.yul\":12694:12787   */\n      tag_201\n      jump\t// in\n    tag_348:\n        /* \"#utility.yul\":12812:12814   */\n      0x40\n        /* \"#utility.yul\":12807:12810   */\n      dup3\n        /* \"#utility.yul\":12803:12815   */\n      add\n        /* \"#utility.yul\":12796:12815   */\n      swap1\n      pop\n        /* \"#utility.yul\":12455:12821   */\n      swap2\n      swap1\n      pop\n      jump\t// out\n        /* \"#utility.yul\":12827:13246   */\n    tag_89:\n        /* \"#utility.yul\":12993:12997   */\n      0x00\n        /* \"#utility.yul\":13031:13033   */\n      0x20\n        /* \"#utility.yul\":13020:13029   */\n      dup3\n        /* \"#utility.yul\":13016:13034   */\n      add\n        /* \"#utility.yul\":13008:13034   */\n      swap1\n      pop\n        /* \"#utility.yul\":13080:13089   */\n      dup2\n        /* \"#utility.yul\":13074:13078   */\n      dup2\n        /* \"#utility.yul\":13070:13090   */\n      sub\n        /* \"#utility.yul\":13066:13067   */\n      0x00\n        /* \"#utility.yul\":13055:13064   */\n      dup4\n        /* \"#utility.yul\":13051:13068   */\n      add\n        /* \"#utility.yul\":13044:13091   */\n      mstore\n        /* \"#utility.yul\":13108:13239   */\n      tag_350\n        /* \"#utility.yul\":13234:13238   */\n      dup2\n        /* \"#utility.yul\":13108:13239   */\n      tag_202\n      jump\t// in\n    tag_350:\n        /* \"#utility.yul\":13100:13239   */\n      swap1\n      pop\n        /* \"#utility.yul\":12827:13246   */\n      swap2\n      swap1\n      pop\n      jump\t// out\n        /* \"#utility.yul\":13252:13432   */\n    tag_203:\n        /* \"#utility.yul\":13300:13377   */\n      0x4e487b7100000000000000000000000000000000000000000000000000000000\n        /* \"#utility.yul\":13297:13298   */\n      0x00\n        /* \"#utility.yul\":13290:13378   */\n      mstore\n        /* \"#utility.yul\":13397:13401   */\n      0x11\n        /* \"#utility.yul\":13394:13395   */\n      0x04\n        /* \"#utility.yul\":13387:13402   */\n      mstore\n        /* \"#utility.yul\":13421:13425   */\n      0x24\n        /* \"#utility.yul\":13418:13419   */\n      0x00\n        /* \"#utility.yul\":13411:13426   */\n      revert\n        /* \"#utility.yul\":13438:13671   */\n    tag_117:\n        /* \"#utility.yul\":13477:13480   */\n      0x00\n        /* \"#utility.yul\":13500:13524   */\n      tag_353\n        /* \"#utility.yul\":13518:13523   */\n      dup3\n        /* \"#utility.yul\":13500:13524   */\n      tag_177\n      jump\t// in\n    tag_353:\n        /* \"#utility.yul\":13491:13524   */\n      swap2\n      pop\n        /* \"#utility.yul\":13546:13612   */\n      0xffffffffffffffffffffffffffffffffffffffffffffffffffffffffffffffff\n        /* \"#utility.yul\":13539:13544   */\n      dup3\n        /* \"#utility.yul\":13536:13613   */\n      sub\n        /* \"#utility.yul\":13533:13636   */\n      tag_354\n      jumpi\n        /* \"#utility.yul\":13616:13634   */\n      tag_355\n      tag_203\n      jump\t// in\n    tag_355:\n        /* \"#utility.yul\":13533:13636   */\n    tag_354:\n        /* \"#utility.yul\":13663:13664   */\n      0x01\n        /* \"#utility.yul\":13656:13661   */\n      dup3\n        /* \"#utility.yul\":13652:13665   */\n      add\n        /* \"#utility.yul\":13645:13665   */\n      swap1\n      pop\n        /* \"#utility.yul\":13438:13671   */\n      swap2\n      swap1\n      pop\n      jump\t// out\n        /* \"#utility.yul\":13677:13818   */\n    tag_204:\n        /* \"#utility.yul\":13726:13730   */\n      0x00\n        /* \"#utility.yul\":13749:13752   */\n      dup2\n        /* \"#utility.yul\":13741:13752   */\n      swap1\n      pop\n        /* \"#utility.yul\":13772:13775   */\n      dup2\n        /* \"#utility.yul\":13769:13770   */\n      0x00\n        /* \"#utility.yul\":13762:13776   */\n      mstore\n        /* \"#utility.yul\":13806:13810   */\n      0x20\n        /* \"#utility.yul\":13803:13804   */\n      0x00\n        /* \"#utility.yul\":13793:13811   */\n      keccak256\n        /* \"#utility.yul\":13785:13811   */\n      swap1\n      pop\n        /* \"#utility.yul\":13677:13818   */\n      swap2\n      swap1\n      pop\n      jump\t// out\n        /* \"#utility.yul\":13824:13917   */\n    tag_205:\n        /* \"#utility.yul\":13861:13867   */\n      0x00\n        /* \"#utility.yul\":13908:13910   */\n      0x20\n        /* \"#utility.yul\":13903:13905   */\n      0x1f\n        /* \"#utility.yul\":13896:13901   */\n      dup4\n        /* \"#utility.yul\":13892:13906   */\n      add\n        /* \"#utility.yul\":13888:13911   */\n      div\n        /* \"#utility.yul\":13878:13911   */\n      swap1\n      pop\n        /* \"#utility.yul\":13824:13917   */\n      swap2\n      swap1\n      pop\n      jump\t// out\n        /* \"#utility.yul\":13923:14030   */\n    tag_206:\n        /* \"#utility.yul\":13967:13975   */\n      0x00\n        /* \"#utility.yul\":14017:14022   */\n      dup3\n        /* \"#utility.yul\":14011:14015   */\n      dup3\n        /* \"#utility.yul\":14007:14023   */\n      shl\n        /* \"#utility.yul\":13986:14023   */\n      swap1\n      pop\n        /* \"#utility.yul\":13923:14030   */\n      swap3\n      swap2\n      pop\n      pop\n      jump\t// out\n        /* \"#utility.yul\":14036:14429   */\n    tag_207:\n        /* \"#utility.yul\":14105:14111   */\n      0x00\n        /* \"#utility.yul\":14155:14156   */\n      0x08\n        /* \"#utility.yul\":14143:14153   */\n      dup4\n        /* \"#utility.yul\":14139:14157   */\n      mul\n        /* \"#utility.yul\":14178:14275   */\n      tag_360\n        /* \"#utility.yul\":14208:14274   */\n      0xffffffffffffffffffffffffffffffffffffffffffffffffffffffffffffffff\n        /* \"#utility.yul\":14197:14206   */\n      dup3\n        /* \"#utility.yul\":14178:14275   */\n      tag_206\n      jump\t// in\n    tag_360:\n        /* \"#utility.yul\":14296:14335   */\n      tag_361\n        /* \"#utility.yul\":14326:14334   */\n      dup7\n        /* \"#utility.yul\":14315:14324   */\n      dup4\n        /* \"#utility.yul\":14296:14335   */\n      tag_206\n      jump\t// in\n    tag_361:\n        /* \"#utility.yul\":14284:14335   */\n      swap6\n      pop\n        /* \"#utility.yul\":14368:14372   */\n      dup1\n        /* \"#utility.yul\":14364:14373   */\n      not\n        /* \"#utility.yul\":14357:14362   */\n      dup5\n        /* \"#utility.yul\":14353:14374   */\n      and\n        /* \"#utility.yul\":14344:14374   */\n      swap4\n      pop\n        /* \"#utility.yul\":14417:14421   */\n      dup1\n        /* \"#utility.yul\":14407:14415   */\n      dup7\n        /* \"#utility.yul\":14403:14422   */\n      and\n        /* \"#utility.yul\":14396:14401   */\n      dup5\n        /* \"#utility.yul\":14393:14423   */\n      or\n        /* \"#utility.yul\":14383:14423   */\n      swap3\n      pop\n        /* \"#utility.yul\":14112:14429   */\n      pop\n      pop\n        /* \"#utility.yul\":14036:14429   */\n      swap4\n      swap3\n      pop\n      pop\n      pop\n      jump\t// out\n        /* \"#utility.yul\":14435:14495   */\n    tag_208:\n        /* \"#utility.yul\":14463:14466   */\n      0x00\n        /* \"#utility.yul\":14484:14489   */\n      dup2\n        /* \"#utility.yul\":14477:14489   */\n      swap1\n      pop\n        /* \"#utility.yul\":14435:14495   */\n      swap2\n      swap1\n      pop\n      jump\t// out\n        /* \"#utility.yul\":14501:14643   */\n    tag_209:\n        /* \"#utility.yul\":14551:14560   */\n      0x00\n        /* \"#utility.yul\":14584:14637   */\n      tag_364\n        /* \"#utility.yul\":14602:14636   */\n      tag_365\n        /* \"#utility.yul\":14611:14635   */\n      tag_366\n        /* \"#utility.yul\":14629:14634   */\n      dup5\n        /* \"#utility.yul\":14611:14635   */\n      tag_177\n      jump\t// in\n    tag_366:\n        /* \"#utility.yul\":14602:14636   */\n      tag_208\n      jump\t// in\n    tag_365:\n        /* \"#utility.yul\":14584:14637   */\n      tag_177\n      jump\t// in\n    tag_364:\n        /* \"#utility.yul\":14571:14637   */\n      swap1\n      pop\n        /* \"#utility.yul\":14501:14643   */\n      swap2\n      swap1\n      pop\n      jump\t// out\n        /* \"#utility.yul\":14649:14724   */\n    tag_210:\n        /* \"#utility.yul\":14692:14695   */\n      0x00\n        /* \"#utility.yul\":14713:14718   */\n      dup2\n        /* \"#utility.yul\":14706:14718   */\n      swap1\n      pop\n        /* \"#utility.yul\":14649:14724   */\n      swap2\n      swap1\n      pop\n      jump\t// out\n        /* \"#utility.yul\":14730:14999   */\n    tag_211:\n        /* \"#utility.yul\":14840:14879   */\n      tag_369\n        /* \"#utility.yul\":14871:14878   */\n      dup4\n        /* \"#utility.yul\":14840:14879   */\n      tag_209\n      jump\t// in\n    tag_369:\n        /* \"#utility.yul\":14901:14992   */\n      tag_370\n        /* \"#utility.yul\":14950:14991   */\n      tag_371\n        /* \"#utility.yul\":14974:14990   */\n      dup3\n        /* \"#utility.yul\":14950:14991   */\n      tag_210\n      jump\t// in\n    tag_371:\n        /* \"#utility.yul\":14942:14948   */\n      dup5\n        /* \"#utility.yul\":14935:14939   */\n      dup5\n        /* \"#utility.yul\":14929:14940   */\n      sload\n        /* \"#utility.yul\":14901:14992   */\n      tag_207\n      jump\t// in\n    tag_370:\n        /* \"#utility.yul\":14895:14899   */\n      dup3\n        /* \"#utility.yul\":14888:14993   */\n      sstore\n        /* \"#utility.yul\":14806:14999   */\n      pop\n        /* \"#utility.yul\":14730:14999   */\n      pop\n      pop\n      pop\n      jump\t// out\n        /* \"#utility.yul\":15005:15078   */\n    tag_212:\n        /* \"#utility.yul\":15050:15053   */\n      0x00\n        /* \"#utility.yul\":15005:15078   */\n      swap1\n      jump\t// out\n        /* \"#utility.yul\":15084:15273   */\n    tag_213:\n        /* \"#utility.yul\":15161:15193   */\n      tag_374\n      tag_212\n      jump\t// in\n    tag_374:\n        /* \"#utility.yul\":15202:15267   */\n      tag_375\n        /* \"#utility.yul\":15260:15266   */\n      dup2\n        /* \"#utility.yul\":15252:15258   */\n      dup5\n        /* \"#utility.yul\":15246:15250   */\n      dup5\n        /* \"#utility.yul\":15202:15267   */\n      tag_211\n      jump\t// in\n    tag_375:\n        /* \"#utility.yul\":15137:15273   */\n      pop\n        /* \"#utility.yul\":15084:15273   */\n      pop\n      pop\n      jump\t// out\n        /* \"#utility.yul\":15279:15465   */\n    tag_214:\n        /* \"#utility.yul\":15339:15459   */\n    tag_377:\n        /* \"#utility.yul\":15356:15359   */\n      dup2\n        /* \"#utility.yul\":15349:15354   */\n      dup2\n        /* \"#utility.yul\":15346:15360   */\n      lt\n        /* \"#utility.yul\":15339:15459   */\n      iszero\n      tag_379\n      jumpi\n        /* \"#utility.yul\":15410:15449   */\n      tag_380\n        /* \"#utility.yul\":15447:15448   */\n      0x00\n        /* \"#utility.yul\":15440:15445   */\n      dup3\n        /* \"#utility.yul\":15410:15449   */\n      tag_213\n      jump\t// in\n    tag_380:\n        /* \"#utility.yul\":15383:15384   */\n      0x01\n        /* \"#utility.yul\":15376:15381   */\n      dup2\n        /* \"#utility.yul\":15372:15385   */\n      add\n        /* \"#utility.yul\":15363:15385   */\n      swap1\n      pop\n        /* \"#utility.yul\":15339:15459   */\n      jump(tag_377)\n    tag_379:\n        /* \"#utility.yul\":15279:15465   */\n      pop\n      pop\n      jump\t// out\n        /* \"#utility.yul\":15471:16014   */\n    tag_215:\n        /* \"#utility.yul\":15572:15574   */\n      0x1f\n        /* \"#utility.yul\":15567:15570   */\n      dup3\n        /* \"#utility.yul\":15564:15575   */\n      gt\n        /* \"#utility.yul\":15561:16007   */\n      iszero\n      tag_382\n      jumpi\n        /* \"#utility.yul\":15606:15644   */\n      tag_383\n        /* \"#utility.yul\":15638:15643   */\n      dup2\n        /* \"#utility.yul\":15606:15644   */\n      tag_204\n      jump\t// in\n    tag_383:\n        /* \"#utility.yul\":15690:15719   */\n      tag_384\n        /* \"#utility.yul\":15708:15718   */\n      dup5\n        /* \"#utility.yul\":15690:15719   */\n      tag_205\n      jump\t// in\n    tag_384:\n        /* \"#utility.yul\":15680:15688   */\n      dup2\n        /* \"#utility.yul\":15676:15720   */\n      add\n        /* \"#utility.yul\":15873:15875   */\n      0x20\n        /* \"#utility.yul\":15861:15871   */\n      dup6\n        /* \"#utility.yul\":15858:15876   */\n      lt\n        /* \"#utility.yul\":15855:15904   */\n      iszero\n      tag_385\n      jumpi\n        /* \"#utility.yul\":15894:15902   */\n      dup2\n        /* \"#utility.yul\":15879:15902   */\n      swap1\n      pop\n        /* \"#utility.yul\":15855:15904   */\n    tag_385:\n        /* \"#utility.yul\":15917:15997   */\n      tag_386\n        /* \"#utility.yul\":15973:15995   */\n      tag_387\n        /* \"#utility.yul\":15991:15994   */\n      dup6\n        /* \"#utility.yul\":15973:15995   */\n      tag_205\n      jump\t// in\n    tag_387:\n        /* \"#utility.yul\":15963:15971   */\n      dup4\n        /* \"#utility.yul\":15959:15996   */\n      add\n        /* \"#utility.yul\":15946:15957   */\n      dup3\n        /* \"#utility.yul\":15917:15997   */\n      tag_214\n      jump\t// in\n    tag_386:\n        /* \"#utility.yul\":15576:16007   */\n      pop\n      pop\n        /* \"#utility.yul\":15561:16007   */\n    tag_382:\n        /* \"#utility.yul\":15471:16014   */\n      pop\n      pop\n      pop\n      jump\t// out\n        /* \"#utility.yul\":16020:16137   */\n    tag_216:\n        /* \"#utility.yul\":16074:16082   */\n      0x00\n        /* \"#utility.yul\":16124:16129   */\n      dup3\n        /* \"#utility.yul\":16118:16122   */\n      dup3\n        /* \"#utility.yul\":16114:16130   */\n      shr\n        /* \"#utility.yul\":16093:16130   */\n      swap1\n      pop\n        /* \"#utility.yul\":16020:16137   */\n      swap3\n      swap2\n      pop\n      pop\n      jump\t// out\n        /* \"#utility.yul\":16143:16312   */\n    tag_217:\n        /* \"#utility.yul\":16187:16193   */\n      0x00\n        /* \"#utility.yul\":16220:16271   */\n      tag_390\n        /* \"#utility.yul\":16268:16269   */\n      0x00\n        /* \"#utility.yul\":16264:16270   */\n      not\n        /* \"#utility.yul\":16256:16261   */\n      dup5\n        /* \"#utility.yul\":16253:16254   */\n      0x08\n        /* \"#utility.yul\":16249:16262   */\n      mul\n        /* \"#utility.yul\":16220:16271   */\n      tag_216\n      jump\t// in\n    tag_390:\n        /* \"#utility.yul\":16216:16272   */\n      not\n        /* \"#utility.yul\":16301:16305   */\n      dup1\n        /* \"#utility.yul\":16295:16299   */\n      dup4\n        /* \"#utility.yul\":16291:16306   */\n      and\n        /* \"#utility.yul\":16281:16306   */\n      swap2\n      pop\n        /* \"#utility.yul\":16194:16312   */\n      pop\n        /* \"#utility.yul\":16143:16312   */\n      swap3\n      swap2\n      pop\n      pop\n      jump\t// out\n        /* \"#utility.yul\":16317:16612   */\n    tag_218:\n        /* \"#utility.yul\":16393:16397   */\n      0x00\n        /* \"#utility.yul\":16539:16568   */\n      tag_392\n        /* \"#utility.yul\":16564:16567   */\n      dup4\n        /* \"#utility.yul\":16558:16562   */\n      dup4\n        /* \"#utility.yul\":16539:16568   */\n      tag_217\n      jump\t// in\n    tag_392:\n        /* \"#utility.yul\":16531:16568   */\n      swap2\n      pop\n        /* \"#utility.yul\":16601:16604   */\n      dup3\n        /* \"#utility.yul\":16598:16599   */\n      0x02\n        /* \"#utility.yul\":16594:16605   */\n      mul\n        /* \"#utility.yul\":16588:16592   */\n      dup3\n        /* \"#utility.yul\":16585:16606   */\n      or\n        /* \"#utility.yul\":16577:16606   */\n      swap1\n      pop\n        /* \"#utility.yul\":16317:16612   */\n      swap3\n      swap2\n      pop\n      pop\n      jump\t// out\n        /* \"#utility.yul\":16617:18012   */\n    tag_119:\n        /* \"#utility.yul\":16734:16771   */\n      tag_394\n        /* \"#utility.yul\":16767:16770   */\n      dup3\n        /* \"#utility.yul\":16734:16771   */\n      tag_181\n      jump\t// in\n    tag_394:\n        /* \"#utility.yul\":16836:16854   */\n      0xffffffffffffffff\n        /* \"#utility.yul\":16828:16834   */\n      dup2\n        /* \"#utility.yul\":16825:16855   */\n      gt\n        /* \"#utility.yul\":16822:16878   */\n      iszero\n      tag_395\n      jumpi\n        /* \"#utility.yul\":16858:16876   */\n      tag_396\n      tag_193\n      jump\t// in\n    tag_396:\n        /* \"#utility.yul\":16822:16878   */\n    tag_395:\n        /* \"#utility.yul\":16902:16940   */\n      tag_397\n        /* \"#utility.yul\":16934:16938   */\n      dup3\n        /* \"#utility.yul\":16928:16939   */\n      sload\n        /* \"#utility.yul\":16902:16940   */\n      tag_76\n      jump\t// in\n    tag_397:\n        /* \"#utility.yul\":16987:17054   */\n      tag_398\n        /* \"#utility.yul\":17047:17053   */\n      dup3\n        /* \"#utility.yul\":17039:17045   */\n      dup3\n        /* \"#utility.yul\":17033:17037   */\n      dup6\n        /* \"#utility.yul\":16987:17054   */\n      tag_215\n      jump\t// in\n    tag_398:\n        /* \"#utility.yul\":17081:17082   */\n      0x00\n        /* \"#utility.yul\":17105:17109   */\n      0x20\n        /* \"#utility.yul\":17092:17109   */\n      swap1\n      pop\n        /* \"#utility.yul\":17137:17139   */\n      0x1f\n        /* \"#utility.yul\":17129:17135   */\n      dup4\n        /* \"#utility.yul\":17126:17140   */\n      gt\n        /* \"#utility.yul\":17154:17155   */\n      0x01\n        /* \"#utility.yul\":17149:17767   */\n      dup2\n      eq\n      tag_400\n      jumpi\n        /* \"#utility.yul\":17811:17812   */\n      0x00\n        /* \"#utility.yul\":17828:17834   */\n      dup5\n        /* \"#utility.yul\":17825:17902   */\n      iszero\n      tag_401\n      jumpi\n        /* \"#utility.yul\":17877:17886   */\n      dup3\n        /* \"#utility.yul\":17872:17875   */\n      dup8\n        /* \"#utility.yul\":17868:17887   */\n      add\n        /* \"#utility.yul\":17862:17888   */\n      mload\n        /* \"#utility.yul\":17853:17888   */\n      swap1\n      pop\n        /* \"#utility.yul\":17825:17902   */\n    tag_401:\n        /* \"#utility.yul\":17928:17995   */\n      tag_402\n        /* \"#utility.yul\":17988:17994   */\n      dup6\n        /* \"#utility.yul\":17981:17986   */\n      dup3\n        /* \"#utility.yul\":17928:17995   */\n      tag_218\n      jump\t// in\n    tag_402:\n        /* \"#utility.yul\":17922:17926   */\n      dup7\n        /* \"#utility.yul\":17915:17996   */\n      sstore\n        /* \"#utility.yul\":17784:18006   */\n      pop\n        /* \"#utility.yul\":17119:18006   */\n      jump(tag_399)\n        /* \"#utility.yul\":17149:17767   */\n    tag_400:\n        /* \"#utility.yul\":17201:17205   */\n      0x1f\n        /* \"#utility.yul\":17197:17206   */\n      not\n        /* \"#utility.yul\":17189:17195   */\n      dup5\n        /* \"#utility.yul\":17185:17207   */\n      and\n        /* \"#utility.yul\":17235:17272   */\n      tag_403\n        /* \"#utility.yul\":17267:17271   */\n      dup7\n        /* \"#utility.yul\":17235:17272   */\n      tag_204\n      jump\t// in\n    tag_403:\n        /* \"#utility.yul\":17294:17295   */\n      0x00\n        /* \"#utility.yul\":17308:17516   */\n    tag_404:\n        /* \"#utility.yul\":17322:17329   */\n      dup3\n        /* \"#utility.yul\":17319:17320   */\n      dup2\n        /* \"#utility.yul\":17316:17330   */\n      lt\n        /* \"#utility.yul\":17308:17516   */\n      iszero\n      tag_406\n      jumpi\n        /* \"#utility.yul\":17401:17410   */\n      dup5\n        /* \"#utility.yul\":17396:17399   */\n      dup10\n        /* \"#utility.yul\":17392:17411   */\n      add\n        /* \"#utility.yul\":17386:17412   */\n      mload\n        /* \"#utility.yul\":17378:17384   */\n      dup3\n        /* \"#utility.yul\":17371:17413   */\n      sstore\n        /* \"#utility.yul\":17452:17453   */\n      0x01\n        /* \"#utility.yul\":17444:17450   */\n      dup3\n        /* \"#utility.yul\":17440:17454   */\n      add\n        /* \"#utility.yul\":17430:17454   */\n      swap2\n      pop\n        /* \"#utility.yul\":17499:17501   */\n      0x20\n        /* \"#utility.yul\":17488:17497   */\n      dup6\n        /* \"#utility.yul\":17484:17502   */\n      add\n        /* \"#utility.yul\":17471:17502   */\n      swap5\n      pop\n        /* \"#utility.yul\":17345:17349   */\n      0x20\n        /* \"#utility.yul\":17342:17343   */\n      dup2\n        /* \"#utility.yul\":17338:17350   */\n      add\n        /* \"#utility.yul\":17333:17350   */\n      swap1\n      pop\n        /* \"#utility.yul\":17308:17516   */\n      jump(tag_404)\n    tag_406:\n        /* \"#utility.yul\":17544:17550   */\n      dup7\n        /* \"#utility.yul\":17535:17542   */\n      dup4\n        /* \"#utility.yul\":17532:17551   */\n      lt\n        /* \"#utility.yul\":17529:17708   */\n      iszero\n      tag_407\n      jumpi\n        /* \"#utility.yul\":17602:17611   */\n      dup5\n        /* \"#utility.yul\":17597:17600   */\n      dup10\n        /* \"#utility.yul\":17593:17612   */\n      add\n        /* \"#utility.yul\":17587:17613   */\n      mload\n        /* \"#utility.yul\":17645:17693   */\n      tag_408\n        /* \"#utility.yul\":17687:17691   */\n      0x1f\n        /* \"#utility.yul\":17679:17685   */\n      dup10\n        /* \"#utility.yul\":17675:17692   */\n      and\n        /* \"#utility.yul\":17664:17673   */\n      dup3\n        /* \"#utility.yul\":17645:17693   */\n      tag_217\n      jump\t// in\n    tag_408:\n        /* \"#utility.yul\":17637:17643   */\n      dup4\n        /* \"#utility.yul\":17630:17694   */\n      sstore\n        /* \"#utility.yul\":17552:17708   */\n      pop\n        /* \"#utility.yul\":17529:17708   */\n    tag_407:\n        /* \"#utility.yul\":17754:17755   */\n      0x01\n        /* \"#utility.yul\":17750:17751   */\n      0x02\n        /* \"#utility.yul\":17742:17748   */\n      dup9\n        /* \"#utility.yul\":17738:17752   */\n      mul\n        /* \"#utility.yul\":17734:17756   */\n      add\n        /* \"#utility.yul\":17728:17732   */\n      dup9\n        /* \"#utility.yul\":17721:17757   */\n      sstore\n        /* \"#utility.yul\":17156:17767   */\n      pop\n      pop\n      pop\n        /* \"#utility.yul\":17119:18006   */\n    tag_399:\n      pop\n        /* \"#utility.yul\":16709:18012   */\n      pop\n      pop\n      pop\n        /* \"#utility.yul\":16617:18012   */\n      pop\n      pop\n      jump\t// out\n        /* \"#utility.yul\":18018:18441   */\n    tag_122:\n        /* \"#utility.yul\":18159:18163   */\n      0x00\n        /* \"#utility.yul\":18197:18199   */\n      0x40\n        /* \"#utility.yul\":18186:18195   */\n      dup3\n        /* \"#utility.yul\":18182:18200   */\n      add\n        /* \"#utility.yul\":18174:18200   */\n      swap1\n      pop\n        /* \"#utility.yul\":18210:18281   */\n      tag_410\n        /* \"#utility.yul\":18278:18279   */\n      0x00\n        /* \"#utility.yul\":18267:18276   */\n      dup4\n        /* \"#utility.yul\":18263:18280   */\n      add\n        /* \"#utility.yul\":18254:18260   */\n      dup6\n        /* \"#utility.yul\":18210:18281   */\n      tag_180\n      jump\t// in\n    tag_410:\n        /* \"#utility.yul\":18328:18337   */\n      dup2\n        /* \"#utility.yul\":18322:18326   */\n      dup2\n        /* \"#utility.yul\":18318:18338   */\n      sub\n        /* \"#utility.yul\":18313:18315   */\n      0x20\n        /* \"#utility.yul\":18302:18311   */\n      dup4\n        /* \"#utility.yul\":18298:18316   */\n      add\n        /* \"#utility.yul\":18291:18339   */\n      mstore\n        /* \"#utility.yul\":18356:18434   */\n      tag_411\n        /* \"#utility.yul\":18429:18433   */\n      dup2\n        /* \"#utility.yul\":18420:18426   */\n      dup5\n        /* \"#utility.yul\":18356:18434   */\n      tag_185\n      jump\t// in\n    tag_411:\n        /* \"#utility.yul\":18348:18434   */\n      swap1\n      pop\n        /* \"#utility.yul\":18018:18441   */\n      swap4\n      swap3\n      pop\n      pop\n      pop\n      jump\t// out\n        /* \"#utility.yul\":18447:18622   */\n    tag_219:\n        /* \"#utility.yul\":18587:18614   */\n      0x4170706c6963616e7420646f6573206e6f742065786973742e00000000000000\n        /* \"#utility.yul\":18583:18584   */\n      0x00\n        /* \"#utility.yul\":18575:18581   */\n      dup3\n        /* \"#utility.yul\":18571:18585   */\n      add\n        /* \"#utility.yul\":18564:18615   */\n      mstore\n        /* \"#utility.yul\":18447:18622   */\n      pop\n      jump\t// out\n        /* \"#utility.yul\":18628:18994   */\n    tag_220:\n        /* \"#utility.yul\":18770:18773   */\n      0x00\n        /* \"#utility.yul\":18791:18858   */\n      tag_414\n        /* \"#utility.yul\":18855:18857   */\n      0x19\n        /* \"#utility.yul\":18850:18853   */\n      dup4\n        /* \"#utility.yul\":18791:18858   */\n      tag_182\n      jump\t// in\n    tag_414:\n        /* \"#utility.yul\":18784:18858   */\n      swap2\n      pop\n        /* \"#utility.yul\":18867:18960   */\n      tag_415\n        /* \"#utility.yul\":18956:18959   */\n      dup3\n        /* \"#utility.yul\":18867:18960   */\n      tag_219\n      jump\t// in\n    tag_415:\n        /* \"#utility.yul\":18985:18987   */\n      0x20\n        /* \"#utility.yul\":18980:18983   */\n      dup3\n        /* \"#utility.yul\":18976:18988   */\n      add\n        /* \"#utility.yul\":18969:18988   */\n      swap1\n      pop\n        /* \"#utility.yul\":18628:18994   */\n      swap2\n      swap1\n      pop\n      jump\t// out\n        /* \"#utility.yul\":19000:19419   */\n    tag_126:\n        /* \"#utility.yul\":19166:19170   */\n      0x00\n        /* \"#utility.yul\":19204:19206   */\n      0x20\n        /* \"#utility.yul\":19193:19202   */\n      dup3\n        /* \"#utility.yul\":19189:19207   */\n      add\n        /* \"#utility.yul\":19181:19207   */\n      swap1\n      pop\n        /* \"#utility.yul\":19253:19262   */\n      dup2\n        /* \"#utility.yul\":19247:19251   */\n      dup2\n        /* \"#utility.yul\":19243:19263   */\n      sub\n        /* \"#utility.yul\":19239:19240   */\n      0x00\n        /* \"#utility.yul\":19228:19237   */\n      dup4\n        /* \"#utility.yul\":19224:19241   */\n      add\n        /* \"#utility.yul\":19217:19264   */\n      mstore\n        /* \"#utility.yul\":19281:19412   */\n      tag_417\n        /* \"#utility.yul\":19407:19411   */\n      dup2\n        /* \"#utility.yul\":19281:19412   */\n      tag_220\n      jump\t// in\n    tag_417:\n        /* \"#utility.yul\":19273:19412   */\n      swap1\n      pop\n        /* \"#utility.yul\":19000:19419   */\n      swap2\n      swap1\n      pop\n      jump\t// out\n        /* \"#utility.yul\":19425:19649   */\n    tag_221:\n        /* \"#utility.yul\":19565:19599   */\n      0x526174696e672076616c7565206d757374206265206265747765656e20302061\n        /* \"#utility.yul\":19561:19562   */\n      0x00\n        /* \"#utility.yul\":19553:19559   */\n      dup3\n        /* \"#utility.yul\":19549:19563   */\n      add\n        /* \"#utility.yul\":19542:19600   */\n      mstore\n        /* \"#utility.yul\":19634:19641   */\n      0x6e6420352e000000000000000000000000000000000000000000000000000000\n        /* \"#utility.yul\":19629:19631   */\n      0x20\n        /* \"#utility.yul\":19621:19627   */\n      dup3\n        /* \"#utility.yul\":19617:19632   */\n      add\n        /* \"#utility.yul\":19610:19642   */\n      mstore\n        /* \"#utility.yul\":19425:19649   */\n      pop\n      jump\t// out\n        /* \"#utility.yul\":19655:20021   */\n    tag_222:\n        /* \"#utility.yul\":19797:19800   */\n      0x00\n        /* \"#utility.yul\":19818:19885   */\n      tag_420\n        /* \"#utility.yul\":19882:19884   */\n      0x25\n        /* \"#utility.yul\":19877:19880   */\n      dup4\n        /* \"#utility.yul\":19818:19885   */\n      tag_182\n      jump\t// in\n    tag_420:\n        /* \"#utility.yul\":19811:19885   */\n      swap2\n      pop\n        /* \"#utility.yul\":19894:19987   */\n      tag_421\n        /* \"#utility.yul\":19983:19986   */\n      dup3\n        /* \"#utility.yul\":19894:19987   */\n      tag_221\n      jump\t// in\n    tag_421:\n        /* \"#utility.yul\":20012:20014   */\n      0x40\n        /* \"#utility.yul\":20007:20010   */\n      dup3\n        /* \"#utility.yul\":20003:20015   */\n      add\n        /* \"#utility.yul\":19996:20015   */\n      swap1\n      pop\n        /* \"#utility.yul\":19655:20021   */\n      swap2\n      swap1\n      pop\n      jump\t// out\n        /* \"#utility.yul\":20027:20446   */\n    tag_157:\n        /* \"#utility.yul\":20193:20197   */\n      0x00\n        /* \"#utility.yul\":20231:20233   */\n      0x20\n        /* \"#utility.yul\":20220:20229   */\n      dup3\n        /* \"#utility.yul\":20216:20234   */\n      add\n        /* \"#utility.yul\":20208:20234   */\n      swap1\n      pop\n        /* \"#utility.yul\":20280:20289   */\n      dup2\n        /* \"#utility.yul\":20274:20278   */\n      dup2\n        /* \"#utility.yul\":20270:20290   */\n      sub\n        /* \"#utility.yul\":20266:20267   */\n      0x00\n        /* \"#utility.yul\":20255:20264   */\n      dup4\n        /* \"#utility.yul\":20251:20268   */\n      add\n        /* \"#utility.yul\":20244:20291   */\n      mstore\n        /* \"#utility.yul\":20308:20439   */\n      tag_423\n        /* \"#utility.yul\":20434:20438   */\n      dup2\n        /* \"#utility.yul\":20308:20439   */\n      tag_222\n      jump\t// in\n    tag_423:\n        /* \"#utility.yul\":20300:20439   */\n      swap1\n      pop\n        /* \"#utility.yul\":20027:20446   */\n      swap2\n      swap1\n      pop\n      jump\t// out\n        /* \"#utility.yul\":20452:20643   */\n    tag_159:\n        /* \"#utility.yul\":20492:20495   */\n      0x00\n        /* \"#utility.yul\":20511:20531   */\n      tag_425\n        /* \"#utility.yul\":20529:20530   */\n      dup3\n        /* \"#utility.yul\":20511:20531   */\n      tag_177\n      jump\t// in\n    tag_425:\n        /* \"#utility.yul\":20506:20531   */\n      swap2\n      pop\n        /* \"#utility.yul\":20545:20565   */\n      tag_426\n        /* \"#utility.yul\":20563:20564   */\n      dup4\n        /* \"#utility.yul\":20545:20565   */\n      tag_177\n      jump\t// in\n    tag_426:\n        /* \"#utility.yul\":20540:20565   */\n      swap3\n      pop\n        /* \"#utility.yul\":20588:20589   */\n      dup3\n        /* \"#utility.yul\":20585:20586   */\n      dup3\n        /* \"#utility.yul\":20581:20590   */\n      add\n        /* \"#utility.yul\":20574:20590   */\n      swap1\n      pop\n        /* \"#utility.yul\":20609:20612   */\n      dup1\n        /* \"#utility.yul\":20606:20607   */\n      dup3\n        /* \"#utility.yul\":20603:20613   */\n      gt\n        /* \"#utility.yul\":20600:20636   */\n      iszero\n      tag_427\n      jumpi\n        /* \"#utility.yul\":20616:20634   */\n      tag_428\n      tag_203\n      jump\t// in\n    tag_428:\n        /* \"#utility.yul\":20600:20636   */\n    tag_427:\n        /* \"#utility.yul\":20452:20643   */\n      swap3\n      swap2\n      pop\n      pop\n      jump\t// out\n\n    auxdata: 0xa264697066735822122040a410a7fce0d21c2fa1497a0b31e1fc40aad930bf44e0f6c3d0a582bb9d46f464736f6c63430008120033\n}\n",
				"bytecode": {
					"linkReferences": {},
					"object": "608060405234801561001057600080fd5b50611c8f806100206000396000f3fe608060405234801561001057600080fd5b50600436106100cf5760003560e01c80636c8548ff1161008c5780638798a47b116100665780638798a47b1461024657806389fb135214610278578063bfc7a66e14610294578063d280267d146102b0576100cf565b80636c8548ff146101c8578063725d89ba146101f957806379c7b00814610215576100cf565b8063180aedf3146100d457806318f53993146101095780634c5d8a0f146101275780634cac35c61461014557806363de532314610178578063640ed3fe146101ac575b600080fd5b6100ee60048036038101906100e99190611165565b6102e0565b6040516101009695949392919061128d565b60405180910390f35b610111610459565b60405161011e91906112fc565b60405180910390f35b61012f61045f565b60405161013c91906112fc565b60405180910390f35b61015f600480360381019061015a9190611165565b610465565b60405161016f9493929190611317565b60405180910390f35b610192600480360381019061018d9190611165565b61066f565b6040516101a395949392919061136a565b60405180910390f35b6101c660048036038101906101c19190611507565b61084a565b005b6101e260048036038101906101dd9190611165565b6109a9565b6040516101f0929190611592565b60405180910390f35b610213600480360381019061020e91906115bb565b610a45565b005b61022f600480360381019061022a9190611165565b610b4c565b60405161023d929190611592565b60405180910390f35b610260600480360381019061025b9190611165565b610b70565b60405161026f93929190611662565b60405180910390f35b610292600480360381019061028d91906116ae565b610dc7565b005b6102ae60048036038101906102a991906116ae565b610f10565b005b6102ca60048036038101906102c59190611165565b611012565b6040516102d791906116ee565b60405180910390f35b60016020528060005260406000206000915090508060000154908060010180546103099061173f565b80601f01602080910402602001604051908101604052809291908181526020018280546103359061173f565b80156103825780601f1061035757610100808354040283529160200191610382565b820191906000526020600020905b81548152906001019060200180831161036557829003601f168201915b5050505050908060020180546103979061173f565b80601f01602080910402602001604051908101604052809291908181526020018280546103c39061173f565b80156104105780601f106103e557610100808354040283529160200191610410565b820191906000526020600020905b8154815290600101906020018083116103f357829003601f168201915b5050505050908060030154908060040160009054906101000a900473ffffffffffffffffffffffffffffffffffffffff16908060040160149054906101000a900460ff16905086565b60035481565b60045481565b6060806000806001600086815260200190815260200160002060040160149054906101000a900460ff166104ce576040517f08c379a00000000000000000000000000000000000000000000000000000000081526004016104c5906117e2565b60405180910390fd5b600160008681526020019081526020016000206001016001600087815260200190815260200160002060020160016000888152602001908152602001600020600301546001600089815260200190815260200160002060040160009054906101000a900473ffffffffffffffffffffffffffffffffffffffff168380546105549061173f565b80601f01602080910402602001604051908101604052809291908181526020018280546105809061173f565b80156105cd5780601f106105a2576101008083540402835291602001916105cd565b820191906000526020600020905b8154815290600101906020018083116105b057829003601f168201915b505050505093508280546105e09061173f565b80601f016020809104026020016040519081016040528092919081815260200182805461060c9061173f565b80156106595780601f1061062e57610100808354040283529160200191610659565b820191906000526020600020905b81548152906001019060200180831161063c57829003601f168201915b5050505050925093509350935093509193509193565b60006020528060005260406000206000915090508060000154908060010180546106989061173f565b80601f01602080910402602001604051908101604052809291908181526020018280546106c49061173f565b80156107115780601f106106e657610100808354040283529160200191610711565b820191906000526020600020905b8154815290600101906020018083116106f457829003601f168201915b5050505050908060020180546107269061173f565b80601f01602080910402602001604051908101604052809291908181526020018280546107529061173f565b801561079f5780601f106107745761010080835404028352916020019161079f565b820191906000526020600020905b81548152906001019060200180831161078257829003601f168201915b5050505050908060030180546107b49061173f565b80601f01602080910402602001604051908101604052809291908181526020018280546107e09061173f565b801561082d5780601f106108025761010080835404028352916020019161082d565b820191906000526020600020905b81548152906001019060200180831161081057829003601f168201915b5050505050908060040160009054906101000a900460ff16905085565b6004600081548092919061085d90611831565b91905055506040518060c0016040528060045481526020018481526020018381526020018281526020013373ffffffffffffffffffffffffffffffffffffffff168152602001600115158152506001600060045481526020019081526020016000206000820151816000015560208201518160010190816108de9190611a25565b5060408201518160020190816108f49190611a25565b506060820151816003015560808201518160040160006101000a81548173ffffffffffffffffffffffffffffffffffffffff021916908373ffffffffffffffffffffffffffffffffffffffff16021790555060a08201518160040160146101000a81548160ff0219169083151502179055509050507f58bf62408b452c84b39bd9a1ff70c36357ff6ade742311313b45d2de599ead9e6004548460405161099c929190611af7565b60405180910390a1505050565b60008060008084815260200190815260200160002060040160009054906101000a900460ff16610a0e576040517f08c379a0000000000000000000000000000000000000000000000000000000008152600401610a0590611b73565b60405180910390fd5b6002600084815260200190815260200160002060000154600260008581526020019081526020016000206001015491509150915091565b60036000815480929190610a5890611831565b91905055506040518060a001604052806003548152602001848152602001838152602001828152602001600115158152506000806003548152602001908152602001600020600082015181600001556020820151816001019081610abc9190611a25565b506040820151816002019081610ad29190611a25565b506060820151816003019081610ae89190611a25565b5060808201518160040160006101000a81548160ff0219169083151502179055509050507f6e0c3fd9bc1ab99067a873cf9a5aadcaca37815fcd7c43d17201ce6bbf29ce6d60035484604051610b3f929190611af7565b60405180910390a1505050565b60026020528060005260406000206000915090508060000154908060010154905082565b606080606060008085815260200190815260200160002060040160009054906101000a900460ff16610bd7576040517f08c379a0000000000000000000000000000000000000000000000000000000008152600401610bce90611b73565b60405180910390fd5b600080858152602001908152602001600020600101600080868152602001908152602001600020600201600080878152602001908152602001600020600301828054610c229061173f565b80601f0160208091040260200160405190810160405280929190818152602001828054610c4e9061173f565b8015610c9b5780601f10610c7057610100808354040283529160200191610c9b565b820191906000526020600020905b815481529060010190602001808311610c7e57829003601f168201915b50505050509250818054610cae9061173f565b80601f0160208091040260200160405190810160405280929190818152602001828054610cda9061173f565b8015610d275780601f10610cfc57610100808354040283529160200191610d27565b820191906000526020600020905b815481529060010190602001808311610d0a57829003601f168201915b50505050509150808054610d3a9061173f565b80601f0160208091040260200160405190810160405280929190818152602001828054610d669061173f565b8015610db35780601f10610d8857610100808354040283529160200191610db3565b820191906000526020600020905b815481529060010190602001808311610d9657829003601f168201915b505050505090509250925092509193909250565b60008083815260200190815260200160002060040160009054906101000a900460ff16610e29576040517f08c379a0000000000000000000000000000000000000000000000000000000008152600401610e2090611b73565b60405180910390fd5b60008110158015610e3b575060058111155b610e7a576040517f08c379a0000000000000000000000000000000000000000000000000000000008152600401610e7190611c05565b60405180910390fd5b80600260008481526020019081526020016000206000016000828254610ea09190611c25565b92505081905550600260008381526020019081526020016000206001016000815480929190610ece90611831565b91905055507fcb40c02246867b173747c15db9c37313ed612b373c8ea1710541c4fa65ff4a158282604051610f04929190611592565b60405180910390a15050565b60008083815260200190815260200160002060040160009054906101000a900460ff16610f72576040517f08c379a0000000000000000000000000000000000000000000000000000000008152600401610f6990611b73565b60405180910390fd5b6001600082815260200190815260200160002060040160149054906101000a900460ff16610fd5576040517f08c379a0000000000000000000000000000000000000000000000000000000008152600401610fcc906117e2565b60405180910390fd5b7f2b29c80621ce60165161e9d1f4d4333d5619d77a9f5c6d0c24281d48e7f88d248282604051611006929190611592565b60405180910390a15050565b606060008083815260200190815260200160002060040160009054906101000a900460ff16611076576040517f08c379a000000000000000000000000000000000000000000000000000000000815260040161106d90611b73565b60405180910390fd5b600080600084815260200190815260200160002060020180546110989061173f565b905011156110dd576040518060400160405280600b81526020017f457870657269656e6365640000000000000000000000000000000000000000008152509050611116565b6040518060400160405280600681526020017f4e6577626965000000000000000000000000000000000000000000000000000081525090505b919050565b6000604051905090565b600080fd5b600080fd5b6000819050919050565b6111428161112f565b811461114d57600080fd5b50565b60008135905061115f81611139565b92915050565b60006020828403121561117b5761117a611125565b5b600061118984828501611150565b91505092915050565b61119b8161112f565b82525050565b600081519050919050565b600082825260208201905092915050565b60005b838110156111db5780820151818401526020810190506111c0565b60008484015250505050565b6000601f19601f8301169050919050565b6000611203826111a1565b61120d81856111ac565b935061121d8185602086016111bd565b611226816111e7565b840191505092915050565b600073ffffffffffffffffffffffffffffffffffffffff82169050919050565b600061125c82611231565b9050919050565b61126c81611251565b82525050565b60008115159050919050565b61128781611272565b82525050565b600060c0820190506112a26000830189611192565b81810360208301526112b481886111f8565b905081810360408301526112c881876111f8565b90506112d76060830186611192565b6112e46080830185611263565b6112f160a083018461127e565b979650505050505050565b60006020820190506113116000830184611192565b92915050565b6000608082019050818103600083015261133181876111f8565b9050818103602083015261134581866111f8565b90506113546040830185611192565b6113616060830184611263565b95945050505050565b600060a08201905061137f6000830188611192565b818103602083015261139181876111f8565b905081810360408301526113a581866111f8565b905081810360608301526113b981856111f8565b90506113c8608083018461127e565b9695505050505050565b600080fd5b600080fd5b7f4e487b7100000000000000000000000000000000000000000000000000000000600052604160045260246000fd5b611414826111e7565b810181811067ffffffffffffffff82111715611433576114326113dc565b5b80604052505050565b600061144661111b565b9050611452828261140b565b919050565b600067ffffffffffffffff821115611472576114716113dc565b5b61147b826111e7565b9050602081019050919050565b82818337600083830152505050565b60006114aa6114a584611457565b61143c565b9050828152602081018484840111156114c6576114c56113d7565b5b6114d1848285611488565b509392505050565b600082601f8301126114ee576114ed6113d2565b5b81356114fe848260208601611497565b91505092915050565b6000806000606084860312156115205761151f611125565b5b600084013567ffffffffffffffff81111561153e5761153d61112a565b5b61154a868287016114d9565b935050602084013567ffffffffffffffff81111561156b5761156a61112a565b5b611577868287016114d9565b925050604061158886828701611150565b9150509250925092565b60006040820190506115a76000830185611192565b6115b46020830184611192565b9392505050565b6000806000606084860312156115d4576115d3611125565b5b600084013567ffffffffffffffff8111156115f2576115f161112a565b5b6115fe868287016114d9565b935050602084013567ffffffffffffffff81111561161f5761161e61112a565b5b61162b868287016114d9565b925050604084013567ffffffffffffffff81111561164c5761164b61112a565b5b611658868287016114d9565b9150509250925092565b6000606082019050818103600083015261167c81866111f8565b9050818103602083015261169081856111f8565b905081810360408301526116a481846111f8565b9050949350505050565b600080604083850312156116c5576116c4611125565b5b60006116d385828601611150565b92505060206116e485828601611150565b9150509250929050565b6000602082019050818103600083015261170881846111f8565b905092915050565b7f4e487b7100000000000000000000000000000000000000000000000000000000600052602260045260246000fd5b6000600282049050600182168061175757607f821691505b60208210810361176a57611769611710565b5b50919050565b7f4a6f6220646f6573206e6f74206578697374206f72206973206e6f742061766160008201527f696c61626c652e00000000000000000000000000000000000000000000000000602082015250565b60006117cc6027836111ac565b91506117d782611770565b604082019050919050565b600060208201905081810360008301526117fb816117bf565b9050919050565b7f4e487b7100000000000000000000000000000000000000000000000000000000600052601160045260246000fd5b600061183c8261112f565b91507fffffffffffffffffffffffffffffffffffffffffffffffffffffffffffffffff820361186e5761186d611802565b5b600182019050919050565b60008190508160005260206000209050919050565b60006020601f8301049050919050565b600082821b905092915050565b6000600883026118db7fffffffffffffffffffffffffffffffffffffffffffffffffffffffffffffffff8261189e565b6118e5868361189e565b95508019841693508086168417925050509392505050565b6000819050919050565b600061192261191d6119188461112f565b6118fd565b61112f565b9050919050565b6000819050919050565b61193c83611907565b61195061194882611929565b8484546118ab565b825550505050565b600090565b611965611958565b611970818484611933565b505050565b5b818110156119945761198960008261195d565b600181019050611976565b5050565b601f8211156119d9576119aa81611879565b6119b38461188e565b810160208510156119c2578190505b6119d66119ce8561188e565b830182611975565b50505b505050565b600082821c905092915050565b60006119fc600019846008026119de565b1980831691505092915050565b6000611a1583836119eb565b9150826002028217905092915050565b611a2e826111a1565b67ffffffffffffffff811115611a4757611a466113dc565b5b611a51825461173f565b611a5c828285611998565b600060209050601f831160018114611a8f5760008415611a7d578287015190505b611a878582611a09565b865550611aef565b601f198416611a9d86611879565b60005b82811015611ac557848901518255600182019150602085019450602081019050611aa0565b86831015611ae25784890151611ade601f8916826119eb565b8355505b6001600288020188555050505b505050505050565b6000604082019050611b0c6000830185611192565b8181036020830152611b1e81846111f8565b90509392505050565b7f4170706c6963616e7420646f6573206e6f742065786973742e00000000000000600082015250565b6000611b5d6019836111ac565b9150611b6882611b27565b602082019050919050565b60006020820190508181036000830152611b8c81611b50565b9050919050565b7f526174696e672076616c7565206d757374206265206265747765656e2030206160008201527f6e6420352e000000000000000000000000000000000000000000000000000000602082015250565b6000611bef6025836111ac565b9150611bfa82611b93565b604082019050919050565b60006020820190508181036000830152611c1e81611be2565b9050919050565b6000611c308261112f565b9150611c3b8361112f565b9250828201905080821115611c5357611c52611802565b5b9291505056fea264697066735822122040a410a7fce0d21c2fa1497a0b31e1fc40aad930bf44e0f6c3d0a582bb9d46f464736f6c63430008120033",
					"opcodes": "PUSH1 0x80 PUSH1 0x40 MSTORE CALLVALUE DUP1 ISZERO PUSH2 0x10 JUMPI PUSH1 0x0 DUP1 REVERT JUMPDEST POP PUSH2 0x1C8F DUP1 PUSH2 0x20 PUSH1 0x0 CODECOPY PUSH1 0x0 RETURN INVALID PUSH1 0x80 PUSH1 0x40 MSTORE CALLVALUE DUP1 ISZERO PUSH2 0x10 JUMPI PUSH1 0x0 DUP1 REVERT JUMPDEST POP PUSH1 0x4 CALLDATASIZE LT PUSH2 0xCF JUMPI PUSH1 0x0 CALLDATALOAD PUSH1 0xE0 SHR DUP1 PUSH4 0x6C8548FF GT PUSH2 0x8C JUMPI DUP1 PUSH4 0x8798A47B GT PUSH2 0x66 JUMPI DUP1 PUSH4 0x8798A47B EQ PUSH2 0x246 JUMPI DUP1 PUSH4 0x89FB1352 EQ PUSH2 0x278 JUMPI DUP1 PUSH4 0xBFC7A66E EQ PUSH2 0x294 JUMPI DUP1 PUSH4 0xD280267D EQ PUSH2 0x2B0 JUMPI PUSH2 0xCF JUMP JUMPDEST DUP1 PUSH4 0x6C8548FF EQ PUSH2 0x1C8 JUMPI DUP1 PUSH4 0x725D89BA EQ PUSH2 0x1F9 JUMPI DUP1 PUSH4 0x79C7B008 EQ PUSH2 0x215 JUMPI PUSH2 0xCF JUMP JUMPDEST DUP1 PUSH4 0x180AEDF3 EQ PUSH2 0xD4 JUMPI DUP1 PUSH4 0x18F53993 EQ PUSH2 0x109 JUMPI DUP1 PUSH4 0x4C5D8A0F EQ PUSH2 0x127 JUMPI DUP1 PUSH4 0x4CAC35C6 EQ PUSH2 0x145 JUMPI DUP1 PUSH4 0x63DE5323 EQ PUSH2 0x178 JUMPI DUP1 PUSH4 0x640ED3FE EQ PUSH2 0x1AC JUMPI JUMPDEST PUSH1 0x0 DUP1 REVERT JUMPDEST PUSH2 0xEE PUSH1 0x4 DUP1 CALLDATASIZE SUB DUP2 ADD SWAP1 PUSH2 0xE9 SWAP2 SWAP1 PUSH2 0x1165 JUMP JUMPDEST PUSH2 0x2E0 JUMP JUMPDEST PUSH1 0x40 MLOAD PUSH2 0x100 SWAP7 SWAP6 SWAP5 SWAP4 SWAP3 SWAP2 SWAP1 PUSH2 0x128D JUMP JUMPDEST PUSH1 0x40 MLOAD DUP1 SWAP2 SUB SWAP1 RETURN JUMPDEST PUSH2 0x111 PUSH2 0x459 JUMP JUMPDEST PUSH1 0x40 MLOAD PUSH2 0x11E SWAP2 SWAP1 PUSH2 0x12FC JUMP JUMPDEST PUSH1 0x40 MLOAD DUP1 SWAP2 SUB SWAP1 RETURN JUMPDEST PUSH2 0x12F PUSH2 0x45F JUMP JUMPDEST PUSH1 0x40 MLOAD PUSH2 0x13C SWAP2 SWAP1 PUSH2 0x12FC JUMP JUMPDEST PUSH1 0x40 MLOAD DUP1 SWAP2 SUB SWAP1 RETURN JUMPDEST PUSH2 0x15F PUSH1 0x4 DUP1 CALLDATASIZE SUB DUP2 ADD SWAP1 PUSH2 0x15A SWAP2 SWAP1 PUSH2 0x1165 JUMP JUMPDEST PUSH2 0x465 JUMP JUMPDEST PUSH1 0x40 MLOAD PUSH2 0x16F SWAP5 SWAP4 SWAP3 SWAP2 SWAP1 PUSH2 0x1317 JUMP JUMPDEST PUSH1 0x40 MLOAD DUP1 SWAP2 SUB SWAP1 RETURN JUMPDEST PUSH2 0x192 PUSH1 0x4 DUP1 CALLDATASIZE SUB DUP2 ADD SWAP1 PUSH2 0x18D SWAP2 SWAP1 PUSH2 0x1165 JUMP JUMPDEST PUSH2 0x66F JUMP JUMPDEST PUSH1 0x40 MLOAD PUSH2 0x1A3 SWAP6 SWAP5 SWAP4 SWAP3 SWAP2 SWAP1 PUSH2 0x136A JUMP JUMPDEST PUSH1 0x40 MLOAD DUP1 SWAP2 SUB SWAP1 RETURN JUMPDEST PUSH2 0x1C6 PUSH1 0x4 DUP1 CALLDATASIZE SUB DUP2 ADD SWAP1 PUSH2 0x1C1 SWAP2 SWAP1 PUSH2 0x1507 JUMP JUMPDEST PUSH2 0x84A JUMP JUMPDEST STOP JUMPDEST PUSH2 0x1E2 PUSH1 0x4 DUP1 CALLDATASIZE SUB DUP2 ADD SWAP1 PUSH2 0x1DD SWAP2 SWAP1 PUSH2 0x1165 JUMP JUMPDEST PUSH2 0x9A9 JUMP JUMPDEST PUSH1 0x40 MLOAD PUSH2 0x1F0 SWAP3 SWAP2 SWAP1 PUSH2 0x1592 JUMP JUMPDEST PUSH1 0x40 MLOAD DUP1 SWAP2 SUB SWAP1 RETURN JUMPDEST PUSH2 0x213 PUSH1 0x4 DUP1 CALLDATASIZE SUB DUP2 ADD SWAP1 PUSH2 0x20E SWAP2 SWAP1 PUSH2 0x15BB JUMP JUMPDEST PUSH2 0xA45 JUMP JUMPDEST STOP JUMPDEST PUSH2 0x22F PUSH1 0x4 DUP1 CALLDATASIZE SUB DUP2 ADD SWAP1 PUSH2 0x22A SWAP2 SWAP1 PUSH2 0x1165 JUMP JUMPDEST PUSH2 0xB4C JUMP JUMPDEST PUSH1 0x40 MLOAD PUSH2 0x23D SWAP3 SWAP2 SWAP1 PUSH2 0x1592 JUMP JUMPDEST PUSH1 0x40 MLOAD DUP1 SWAP2 SUB SWAP1 RETURN JUMPDEST PUSH2 0x260 PUSH1 0x4 DUP1 CALLDATASIZE SUB DUP2 ADD SWAP1 PUSH2 0x25B SWAP2 SWAP1 PUSH2 0x1165 JUMP JUMPDEST PUSH2 0xB70 JUMP JUMPDEST PUSH1 0x40 MLOAD PUSH2 0x26F SWAP4 SWAP3 SWAP2 SWAP1 PUSH2 0x1662 JUMP JUMPDEST PUSH1 0x40 MLOAD DUP1 SWAP2 SUB SWAP1 RETURN JUMPDEST PUSH2 0x292 PUSH1 0x4 DUP1 CALLDATASIZE SUB DUP2 ADD SWAP1 PUSH2 0x28D SWAP2 SWAP1 PUSH2 0x16AE JUMP JUMPDEST PUSH2 0xDC7 JUMP JUMPDEST STOP JUMPDEST PUSH2 0x2AE PUSH1 0x4 DUP1 CALLDATASIZE SUB DUP2 ADD SWAP1 PUSH2 0x2A9 SWAP2 SWAP1 PUSH2 0x16AE JUMP JUMPDEST PUSH2 0xF10 JUMP JUMPDEST STOP JUMPDEST PUSH2 0x2CA PUSH1 0x4 DUP1 CALLDATASIZE SUB DUP2 ADD SWAP1 PUSH2 0x2C5 SWAP2 SWAP1 PUSH2 0x1165 JUMP JUMPDEST PUSH2 0x1012 JUMP JUMPDEST PUSH1 0x40 MLOAD PUSH2 0x2D7 SWAP2 SWAP1 PUSH2 0x16EE JUMP JUMPDEST PUSH1 0x40 MLOAD DUP1 SWAP2 SUB SWAP1 RETURN JUMPDEST PUSH1 0x1 PUSH1 0x20 MSTORE DUP1 PUSH1 0x0 MSTORE PUSH1 0x40 PUSH1 0x0 KECCAK256 PUSH1 0x0 SWAP2 POP SWAP1 POP DUP1 PUSH1 0x0 ADD SLOAD SWAP1 DUP1 PUSH1 0x1 ADD DUP1 SLOAD PUSH2 0x309 SWAP1 PUSH2 0x173F JUMP JUMPDEST DUP1 PUSH1 0x1F ADD PUSH1 0x20 DUP1 SWAP2 DIV MUL PUSH1 0x20 ADD PUSH1 0x40 MLOAD SWAP1 DUP2 ADD PUSH1 0x40 MSTORE DUP1 SWAP3 SWAP2 SWAP1 DUP2 DUP2 MSTORE PUSH1 0x20 ADD DUP3 DUP1 SLOAD PUSH2 0x335 SWAP1 PUSH2 0x173F JUMP JUMPDEST DUP1 ISZERO PUSH2 0x382 JUMPI DUP1 PUSH1 0x1F LT PUSH2 0x357 JUMPI PUSH2 0x100 DUP1 DUP4 SLOAD DIV MUL DUP4 MSTORE SWAP2 PUSH1 0x20 ADD SWAP2 PUSH2 0x382 JUMP JUMPDEST DUP3 ADD SWAP2 SWAP1 PUSH1 0x0 MSTORE PUSH1 0x20 PUSH1 0x0 KECCAK256 SWAP1 JUMPDEST DUP2 SLOAD DUP2 MSTORE SWAP1 PUSH1 0x1 ADD SWAP1 PUSH1 0x20 ADD DUP1 DUP4 GT PUSH2 0x365 JUMPI DUP3 SWAP1 SUB PUSH1 0x1F AND DUP3 ADD SWAP2 JUMPDEST POP POP POP POP POP SWAP1 DUP1 PUSH1 0x2 ADD DUP1 SLOAD PUSH2 0x397 SWAP1 PUSH2 0x173F JUMP JUMPDEST DUP1 PUSH1 0x1F ADD PUSH1 0x20 DUP1 SWAP2 DIV MUL PUSH1 0x20 ADD PUSH1 0x40 MLOAD SWAP1 DUP2 ADD PUSH1 0x40 MSTORE DUP1 SWAP3 SWAP2 SWAP1 DUP2 DUP2 MSTORE PUSH1 0x20 ADD DUP3 DUP1 SLOAD PUSH2 0x3C3 SWAP1 PUSH2 0x173F JUMP JUMPDEST DUP1 ISZERO PUSH2 0x410 JUMPI DUP1 PUSH1 0x1F LT PUSH2 0x3E5 JUMPI PUSH2 0x100 DUP1 DUP4 SLOAD DIV MUL DUP4 MSTORE SWAP2 PUSH1 0x20 ADD SWAP2 PUSH2 0x410 JUMP JUMPDEST DUP3 ADD SWAP2 SWAP1 PUSH1 0x0 MSTORE PUSH1 0x20 PUSH1 0x0 KECCAK256 SWAP1 JUMPDEST DUP2 SLOAD DUP2 MSTORE SWAP1 PUSH1 0x1 ADD SWAP1 PUSH1 0x20 ADD DUP1 DUP4 GT PUSH2 0x3F3 JUMPI DUP3 SWAP1 SUB PUSH1 0x1F AND DUP3 ADD SWAP2 JUMPDEST POP POP POP POP POP SWAP1 DUP1 PUSH1 0x3 ADD SLOAD SWAP1 DUP1 PUSH1 0x4 ADD PUSH1 0x0 SWAP1 SLOAD SWAP1 PUSH2 0x100 EXP SWAP1 DIV PUSH20 0xFFFFFFFFFFFFFFFFFFFFFFFFFFFFFFFFFFFFFFFF AND SWAP1 DUP1 PUSH1 0x4 ADD PUSH1 0x14 SWAP1 SLOAD SWAP1 PUSH2 0x100 EXP SWAP1 DIV PUSH1 0xFF AND SWAP1 POP DUP7 JUMP JUMPDEST PUSH1 0x3 SLOAD DUP2 JUMP JUMPDEST PUSH1 0x4 SLOAD DUP2 JUMP JUMPDEST PUSH1 0x60 DUP1 PUSH1 0x0 DUP1 PUSH1 0x1 PUSH1 0x0 DUP7 DUP2 MSTORE PUSH1 0x20 ADD SWAP1 DUP2 MSTORE PUSH1 0x20 ADD PUSH1 0x0 KECCAK256 PUSH1 0x4 ADD PUSH1 0x14 SWAP1 SLOAD SWAP1 PUSH2 0x100 EXP SWAP1 DIV PUSH1 0xFF AND PUSH2 0x4CE JUMPI PUSH1 0x40 MLOAD PUSH32 0x8C379A000000000000000000000000000000000000000000000000000000000 DUP2 MSTORE PUSH1 0x4 ADD PUSH2 0x4C5 SWAP1 PUSH2 0x17E2 JUMP JUMPDEST PUSH1 0x40 MLOAD DUP1 SWAP2 SUB SWAP1 REVERT JUMPDEST PUSH1 0x1 PUSH1 0x0 DUP7 DUP2 MSTORE PUSH1 0x20 ADD SWAP1 DUP2 MSTORE PUSH1 0x20 ADD PUSH1 0x0 KECCAK256 PUSH1 0x1 ADD PUSH1 0x1 PUSH1 0x0 DUP8 DUP2 MSTORE PUSH1 0x20 ADD SWAP1 DUP2 MSTORE PUSH1 0x20 ADD PUSH1 0x0 KECCAK256 PUSH1 0x2 ADD PUSH1 0x1 PUSH1 0x0 DUP9 DUP2 MSTORE PUSH1 0x20 ADD SWAP1 DUP2 MSTORE PUSH1 0x20 ADD PUSH1 0x0 KECCAK256 PUSH1 0x3 ADD SLOAD PUSH1 0x1 PUSH1 0x0 DUP10 DUP2 MSTORE PUSH1 0x20 ADD SWAP1 DUP2 MSTORE PUSH1 0x20 ADD PUSH1 0x0 KECCAK256 PUSH1 0x4 ADD PUSH1 0x0 SWAP1 SLOAD SWAP1 PUSH2 0x100 EXP SWAP1 DIV PUSH20 0xFFFFFFFFFFFFFFFFFFFFFFFFFFFFFFFFFFFFFFFF AND DUP4 DUP1 SLOAD PUSH2 0x554 SWAP1 PUSH2 0x173F JUMP JUMPDEST DUP1 PUSH1 0x1F ADD PUSH1 0x20 DUP1 SWAP2 DIV MUL PUSH1 0x20 ADD PUSH1 0x40 MLOAD SWAP1 DUP2 ADD PUSH1 0x40 MSTORE DUP1 SWAP3 SWAP2 SWAP1 DUP2 DUP2 MSTORE PUSH1 0x20 ADD DUP3 DUP1 SLOAD PUSH2 0x580 SWAP1 PUSH2 0x173F JUMP JUMPDEST DUP1 ISZERO PUSH2 0x5CD JUMPI DUP1 PUSH1 0x1F LT PUSH2 0x5A2 JUMPI PUSH2 0x100 DUP1 DUP4 SLOAD DIV MUL DUP4 MSTORE SWAP2 PUSH1 0x20 ADD SWAP2 PUSH2 0x5CD JUMP JUMPDEST DUP3 ADD SWAP2 SWAP1 PUSH1 0x0 MSTORE PUSH1 0x20 PUSH1 0x0 KECCAK256 SWAP1 JUMPDEST DUP2 SLOAD DUP2 MSTORE SWAP1 PUSH1 0x1 ADD SWAP1 PUSH1 0x20 ADD DUP1 DUP4 GT PUSH2 0x5B0 JUMPI DUP3 SWAP1 SUB PUSH1 0x1F AND DUP3 ADD SWAP2 JUMPDEST POP POP POP POP POP SWAP4 POP DUP3 DUP1 SLOAD PUSH2 0x5E0 SWAP1 PUSH2 0x173F JUMP JUMPDEST DUP1 PUSH1 0x1F ADD PUSH1 0x20 DUP1 SWAP2 DIV MUL PUSH1 0x20 ADD PUSH1 0x40 MLOAD SWAP1 DUP2 ADD PUSH1 0x40 MSTORE DUP1 SWAP3 SWAP2 SWAP1 DUP2 DUP2 MSTORE PUSH1 0x20 ADD DUP3 DUP1 SLOAD PUSH2 0x60C SWAP1 PUSH2 0x173F JUMP JUMPDEST DUP1 ISZERO PUSH2 0x659 JUMPI DUP1 PUSH1 0x1F LT PUSH2 0x62E JUMPI PUSH2 0x100 DUP1 DUP4 SLOAD DIV MUL DUP4 MSTORE SWAP2 PUSH1 0x20 ADD SWAP2 PUSH2 0x659 JUMP JUMPDEST DUP3 ADD SWAP2 SWAP1 PUSH1 0x0 MSTORE PUSH1 0x20 PUSH1 0x0 KECCAK256 SWAP1 JUMPDEST DUP2 SLOAD DUP2 MSTORE SWAP1 PUSH1 0x1 ADD SWAP1 PUSH1 0x20 ADD DUP1 DUP4 GT PUSH2 0x63C JUMPI DUP3 SWAP1 SUB PUSH1 0x1F AND DUP3 ADD SWAP2 JUMPDEST POP POP POP POP POP SWAP3 POP SWAP4 POP SWAP4 POP SWAP4 POP SWAP4 POP SWAP2 SWAP4 POP SWAP2 SWAP4 JUMP JUMPDEST PUSH1 0x0 PUSH1 0x20 MSTORE DUP1 PUSH1 0x0 MSTORE PUSH1 0x40 PUSH1 0x0 KECCAK256 PUSH1 0x0 SWAP2 POP SWAP1 POP DUP1 PUSH1 0x0 ADD SLOAD SWAP1 DUP1 PUSH1 0x1 ADD DUP1 SLOAD PUSH2 0x698 SWAP1 PUSH2 0x173F JUMP JUMPDEST DUP1 PUSH1 0x1F ADD PUSH1 0x20 DUP1 SWAP2 DIV MUL PUSH1 0x20 ADD PUSH1 0x40 MLOAD SWAP1 DUP2 ADD PUSH1 0x40 MSTORE DUP1 SWAP3 SWAP2 SWAP1 DUP2 DUP2 MSTORE PUSH1 0x20 ADD DUP3 DUP1 SLOAD PUSH2 0x6C4 SWAP1 PUSH2 0x173F JUMP JUMPDEST DUP1 ISZERO PUSH2 0x711 JUMPI DUP1 PUSH1 0x1F LT PUSH2 0x6E6 JUMPI PUSH2 0x100 DUP1 DUP4 SLOAD DIV MUL DUP4 MSTORE SWAP2 PUSH1 0x20 ADD SWAP2 PUSH2 0x711 JUMP JUMPDEST DUP3 ADD SWAP2 SWAP1 PUSH1 0x0 MSTORE PUSH1 0x20 PUSH1 0x0 KECCAK256 SWAP1 JUMPDEST DUP2 SLOAD DUP2 MSTORE SWAP1 PUSH1 0x1 ADD SWAP1 PUSH1 0x20 ADD DUP1 DUP4 GT PUSH2 0x6F4 JUMPI DUP3 SWAP1 SUB PUSH1 0x1F AND DUP3 ADD SWAP2 JUMPDEST POP POP POP POP POP SWAP1 DUP1 PUSH1 0x2 ADD DUP1 SLOAD PUSH2 0x726 SWAP1 PUSH2 0x173F JUMP JUMPDEST DUP1 PUSH1 0x1F ADD PUSH1 0x20 DUP1 SWAP2 DIV MUL PUSH1 0x20 ADD PUSH1 0x40 MLOAD SWAP1 DUP2 ADD PUSH1 0x40 MSTORE DUP1 SWAP3 SWAP2 SWAP1 DUP2 DUP2 MSTORE PUSH1 0x20 ADD DUP3 DUP1 SLOAD PUSH2 0x752 SWAP1 PUSH2 0x173F JUMP JUMPDEST DUP1 ISZERO PUSH2 0x79F JUMPI DUP1 PUSH1 0x1F LT PUSH2 0x774 JUMPI PUSH2 0x100 DUP1 DUP4 SLOAD DIV MUL DUP4 MSTORE SWAP2 PUSH1 0x20 ADD SWAP2 PUSH2 0x79F JUMP JUMPDEST DUP3 ADD SWAP2 SWAP1 PUSH1 0x0 MSTORE PUSH1 0x20 PUSH1 0x0 KECCAK256 SWAP1 JUMPDEST DUP2 SLOAD DUP2 MSTORE SWAP1 PUSH1 0x1 ADD SWAP1 PUSH1 0x20 ADD DUP1 DUP4 GT PUSH2 0x782 JUMPI DUP3 SWAP1 SUB PUSH1 0x1F AND DUP3 ADD SWAP2 JUMPDEST POP POP POP POP POP SWAP1 DUP1 PUSH1 0x3 ADD DUP1 SLOAD PUSH2 0x7B4 SWAP1 PUSH2 0x173F JUMP JUMPDEST DUP1 PUSH1 0x1F ADD PUSH1 0x20 DUP1 SWAP2 DIV MUL PUSH1 0x20 ADD PUSH1 0x40 MLOAD SWAP1 DUP2 ADD PUSH1 0x40 MSTORE DUP1 SWAP3 SWAP2 SWAP1 DUP2 DUP2 MSTORE PUSH1 0x20 ADD DUP3 DUP1 SLOAD PUSH2 0x7E0 SWAP1 PUSH2 0x173F JUMP JUMPDEST DUP1 ISZERO PUSH2 0x82D JUMPI DUP1 PUSH1 0x1F LT PUSH2 0x802 JUMPI PUSH2 0x100 DUP1 DUP4 SLOAD DIV MUL DUP4 MSTORE SWAP2 PUSH1 0x20 ADD SWAP2 PUSH2 0x82D JUMP JUMPDEST DUP3 ADD SWAP2 SWAP1 PUSH1 0x0 MSTORE PUSH1 0x20 PUSH1 0x0 KECCAK256 SWAP1 JUMPDEST DUP2 SLOAD DUP2 MSTORE SWAP1 PUSH1 0x1 ADD SWAP1 PUSH1 0x20 ADD DUP1 DUP4 GT PUSH2 0x810 JUMPI DUP3 SWAP1 SUB PUSH1 0x1F AND DUP3 ADD SWAP2 JUMPDEST POP POP POP POP POP SWAP1 DUP1 PUSH1 0x4 ADD PUSH1 0x0 SWAP1 SLOAD SWAP1 PUSH2 0x100 EXP SWAP1 DIV PUSH1 0xFF AND SWAP1 POP DUP6 JUMP JUMPDEST PUSH1 0x4 PUSH1 0x0 DUP2 SLOAD DUP1 SWAP3 SWAP2 SWAP1 PUSH2 0x85D SWAP1 PUSH2 0x1831 JUMP JUMPDEST SWAP2 SWAP1 POP SSTORE POP PUSH1 0x40 MLOAD DUP1 PUSH1 0xC0 ADD PUSH1 0x40 MSTORE DUP1 PUSH1 0x4 SLOAD DUP2 MSTORE PUSH1 0x20 ADD DUP5 DUP2 MSTORE PUSH1 0x20 ADD DUP4 DUP2 MSTORE PUSH1 0x20 ADD DUP3 DUP2 MSTORE PUSH1 0x20 ADD CALLER PUSH20 0xFFFFFFFFFFFFFFFFFFFFFFFFFFFFFFFFFFFFFFFF AND DUP2 MSTORE PUSH1 0x20 ADD PUSH1 0x1 ISZERO ISZERO DUP2 MSTORE POP PUSH1 0x1 PUSH1 0x0 PUSH1 0x4 SLOAD DUP2 MSTORE PUSH1 0x20 ADD SWAP1 DUP2 MSTORE PUSH1 0x20 ADD PUSH1 0x0 KECCAK256 PUSH1 0x0 DUP3 ADD MLOAD DUP2 PUSH1 0x0 ADD SSTORE PUSH1 0x20 DUP3 ADD MLOAD DUP2 PUSH1 0x1 ADD SWAP1 DUP2 PUSH2 0x8DE SWAP2 SWAP1 PUSH2 0x1A25 JUMP JUMPDEST POP PUSH1 0x40 DUP3 ADD MLOAD DUP2 PUSH1 0x2 ADD SWAP1 DUP2 PUSH2 0x8F4 SWAP2 SWAP1 PUSH2 0x1A25 JUMP JUMPDEST POP PUSH1 0x60 DUP3 ADD MLOAD DUP2 PUSH1 0x3 ADD SSTORE PUSH1 0x80 DUP3 ADD MLOAD DUP2 PUSH1 0x4 ADD PUSH1 0x0 PUSH2 0x100 EXP DUP2 SLOAD DUP2 PUSH20 0xFFFFFFFFFFFFFFFFFFFFFFFFFFFFFFFFFFFFFFFF MUL NOT AND SWAP1 DUP4 PUSH20 0xFFFFFFFFFFFFFFFFFFFFFFFFFFFFFFFFFFFFFFFF AND MUL OR SWAP1 SSTORE POP PUSH1 0xA0 DUP3 ADD MLOAD DUP2 PUSH1 0x4 ADD PUSH1 0x14 PUSH2 0x100 EXP DUP2 SLOAD DUP2 PUSH1 0xFF MUL NOT AND SWAP1 DUP4 ISZERO ISZERO MUL OR SWAP1 SSTORE POP SWAP1 POP POP PUSH32 0x58BF62408B452C84B39BD9A1FF70C36357FF6ADE742311313B45D2DE599EAD9E PUSH1 0x4 SLOAD DUP5 PUSH1 0x40 MLOAD PUSH2 0x99C SWAP3 SWAP2 SWAP1 PUSH2 0x1AF7 JUMP JUMPDEST PUSH1 0x40 MLOAD DUP1 SWAP2 SUB SWAP1 LOG1 POP POP POP JUMP JUMPDEST PUSH1 0x0 DUP1 PUSH1 0x0 DUP1 DUP5 DUP2 MSTORE PUSH1 0x20 ADD SWAP1 DUP2 MSTORE PUSH1 0x20 ADD PUSH1 0x0 KECCAK256 PUSH1 0x4 ADD PUSH1 0x0 SWAP1 SLOAD SWAP1 PUSH2 0x100 EXP SWAP1 DIV PUSH1 0xFF AND PUSH2 0xA0E JUMPI PUSH1 0x40 MLOAD PUSH32 0x8C379A000000000000000000000000000000000000000000000000000000000 DUP2 MSTORE PUSH1 0x4 ADD PUSH2 0xA05 SWAP1 PUSH2 0x1B73 JUMP JUMPDEST PUSH1 0x40 MLOAD DUP1 SWAP2 SUB SWAP1 REVERT JUMPDEST PUSH1 0x2 PUSH1 0x0 DUP5 DUP2 MSTORE PUSH1 0x20 ADD SWAP1 DUP2 MSTORE PUSH1 0x20 ADD PUSH1 0x0 KECCAK256 PUSH1 0x0 ADD SLOAD PUSH1 0x2 PUSH1 0x0 DUP6 DUP2 MSTORE PUSH1 0x20 ADD SWAP1 DUP2 MSTORE PUSH1 0x20 ADD PUSH1 0x0 KECCAK256 PUSH1 0x1 ADD SLOAD SWAP2 POP SWAP2 POP SWAP2 POP SWAP2 JUMP JUMPDEST PUSH1 0x3 PUSH1 0x0 DUP2 SLOAD DUP1 SWAP3 SWAP2 SWAP1 PUSH2 0xA58 SWAP1 PUSH2 0x1831 JUMP JUMPDEST SWAP2 SWAP1 POP SSTORE POP PUSH1 0x40 MLOAD DUP1 PUSH1 0xA0 ADD PUSH1 0x40 MSTORE DUP1 PUSH1 0x3 SLOAD DUP2 MSTORE PUSH1 0x20 ADD DUP5 DUP2 MSTORE PUSH1 0x20 ADD DUP4 DUP2 MSTORE PUSH1 0x20 ADD DUP3 DUP2 MSTORE PUSH1 0x20 ADD PUSH1 0x1 ISZERO ISZERO DUP2 MSTORE POP PUSH1 0x0 DUP1 PUSH1 0x3 SLOAD DUP2 MSTORE PUSH1 0x20 ADD SWAP1 DUP2 MSTORE PUSH1 0x20 ADD PUSH1 0x0 KECCAK256 PUSH1 0x0 DUP3 ADD MLOAD DUP2 PUSH1 0x0 ADD SSTORE PUSH1 0x20 DUP3 ADD MLOAD DUP2 PUSH1 0x1 ADD SWAP1 DUP2 PUSH2 0xABC SWAP2 SWAP1 PUSH2 0x1A25 JUMP JUMPDEST POP PUSH1 0x40 DUP3 ADD MLOAD DUP2 PUSH1 0x2 ADD SWAP1 DUP2 PUSH2 0xAD2 SWAP2 SWAP1 PUSH2 0x1A25 JUMP JUMPDEST POP PUSH1 0x60 DUP3 ADD MLOAD DUP2 PUSH1 0x3 ADD SWAP1 DUP2 PUSH2 0xAE8 SWAP2 SWAP1 PUSH2 0x1A25 JUMP JUMPDEST POP PUSH1 0x80 DUP3 ADD MLOAD DUP2 PUSH1 0x4 ADD PUSH1 0x0 PUSH2 0x100 EXP DUP2 SLOAD DUP2 PUSH1 0xFF MUL NOT AND SWAP1 DUP4 ISZERO ISZERO MUL OR SWAP1 SSTORE POP SWAP1 POP POP PUSH32 0x6E0C3FD9BC1AB99067A873CF9A5AADCACA37815FCD7C43D17201CE6BBF29CE6D PUSH1 0x3 SLOAD DUP5 PUSH1 0x40 MLOAD PUSH2 0xB3F SWAP3 SWAP2 SWAP1 PUSH2 0x1AF7 JUMP JUMPDEST PUSH1 0x40 MLOAD DUP1 SWAP2 SUB SWAP1 LOG1 POP POP POP JUMP JUMPDEST PUSH1 0x2 PUSH1 0x20 MSTORE DUP1 PUSH1 0x0 MSTORE PUSH1 0x40 PUSH1 0x0 KECCAK256 PUSH1 0x0 SWAP2 POP SWAP1 POP DUP1 PUSH1 0x0 ADD SLOAD SWAP1 DUP1 PUSH1 0x1 ADD SLOAD SWAP1 POP DUP3 JUMP JUMPDEST PUSH1 0x60 DUP1 PUSH1 0x60 PUSH1 0x0 DUP1 DUP6 DUP2 MSTORE PUSH1 0x20 ADD SWAP1 DUP2 MSTORE PUSH1 0x20 ADD PUSH1 0x0 KECCAK256 PUSH1 0x4 ADD PUSH1 0x0 SWAP1 SLOAD SWAP1 PUSH2 0x100 EXP SWAP1 DIV PUSH1 0xFF AND PUSH2 0xBD7 JUMPI PUSH1 0x40 MLOAD PUSH32 0x8C379A000000000000000000000000000000000000000000000000000000000 DUP2 MSTORE PUSH1 0x4 ADD PUSH2 0xBCE SWAP1 PUSH2 0x1B73 JUMP JUMPDEST PUSH1 0x40 MLOAD DUP1 SWAP2 SUB SWAP1 REVERT JUMPDEST PUSH1 0x0 DUP1 DUP6 DUP2 MSTORE PUSH1 0x20 ADD SWAP1 DUP2 MSTORE PUSH1 0x20 ADD PUSH1 0x0 KECCAK256 PUSH1 0x1 ADD PUSH1 0x0 DUP1 DUP7 DUP2 MSTORE PUSH1 0x20 ADD SWAP1 DUP2 MSTORE PUSH1 0x20 ADD PUSH1 0x0 KECCAK256 PUSH1 0x2 ADD PUSH1 0x0 DUP1 DUP8 DUP2 MSTORE PUSH1 0x20 ADD SWAP1 DUP2 MSTORE PUSH1 0x20 ADD PUSH1 0x0 KECCAK256 PUSH1 0x3 ADD DUP3 DUP1 SLOAD PUSH2 0xC22 SWAP1 PUSH2 0x173F JUMP JUMPDEST DUP1 PUSH1 0x1F ADD PUSH1 0x20 DUP1 SWAP2 DIV MUL PUSH1 0x20 ADD PUSH1 0x40 MLOAD SWAP1 DUP2 ADD PUSH1 0x40 MSTORE DUP1 SWAP3 SWAP2 SWAP1 DUP2 DUP2 MSTORE PUSH1 0x20 ADD DUP3 DUP1 SLOAD PUSH2 0xC4E SWAP1 PUSH2 0x173F JUMP JUMPDEST DUP1 ISZERO PUSH2 0xC9B JUMPI DUP1 PUSH1 0x1F LT PUSH2 0xC70 JUMPI PUSH2 0x100 DUP1 DUP4 SLOAD DIV MUL DUP4 MSTORE SWAP2 PUSH1 0x20 ADD SWAP2 PUSH2 0xC9B JUMP JUMPDEST DUP3 ADD SWAP2 SWAP1 PUSH1 0x0 MSTORE PUSH1 0x20 PUSH1 0x0 KECCAK256 SWAP1 JUMPDEST DUP2 SLOAD DUP2 MSTORE SWAP1 PUSH1 0x1 ADD SWAP1 PUSH1 0x20 ADD DUP1 DUP4 GT PUSH2 0xC7E JUMPI DUP3 SWAP1 SUB PUSH1 0x1F AND DUP3 ADD SWAP2 JUMPDEST POP POP POP POP POP SWAP3 POP DUP2 DUP1 SLOAD PUSH2 0xCAE SWAP1 PUSH2 0x173F JUMP JUMPDEST DUP1 PUSH1 0x1F ADD PUSH1 0x20 DUP1 SWAP2 DIV MUL PUSH1 0x20 ADD PUSH1 0x40 MLOAD SWAP1 DUP2 ADD PUSH1 0x40 MSTORE DUP1 SWAP3 SWAP2 SWAP1 DUP2 DUP2 MSTORE PUSH1 0x20 ADD DUP3 DUP1 SLOAD PUSH2 0xCDA SWAP1 PUSH2 0x173F JUMP JUMPDEST DUP1 ISZERO PUSH2 0xD27 JUMPI DUP1 PUSH1 0x1F LT PUSH2 0xCFC JUMPI PUSH2 0x100 DUP1 DUP4 SLOAD DIV MUL DUP4 MSTORE SWAP2 PUSH1 0x20 ADD SWAP2 PUSH2 0xD27 JUMP JUMPDEST DUP3 ADD SWAP2 SWAP1 PUSH1 0x0 MSTORE PUSH1 0x20 PUSH1 0x0 KECCAK256 SWAP1 JUMPDEST DUP2 SLOAD DUP2 MSTORE SWAP1 PUSH1 0x1 ADD SWAP1 PUSH1 0x20 ADD DUP1 DUP4 GT PUSH2 0xD0A JUMPI DUP3 SWAP1 SUB PUSH1 0x1F AND DUP3 ADD SWAP2 JUMPDEST POP POP POP POP POP SWAP2 POP DUP1 DUP1 SLOAD PUSH2 0xD3A SWAP1 PUSH2 0x173F JUMP JUMPDEST DUP1 PUSH1 0x1F ADD PUSH1 0x20 DUP1 SWAP2 DIV MUL PUSH1 0x20 ADD PUSH1 0x40 MLOAD SWAP1 DUP2 ADD PUSH1 0x40 MSTORE DUP1 SWAP3 SWAP2 SWAP1 DUP2 DUP2 MSTORE PUSH1 0x20 ADD DUP3 DUP1 SLOAD PUSH2 0xD66 SWAP1 PUSH2 0x173F JUMP JUMPDEST DUP1 ISZERO PUSH2 0xDB3 JUMPI DUP1 PUSH1 0x1F LT PUSH2 0xD88 JUMPI PUSH2 0x100 DUP1 DUP4 SLOAD DIV MUL DUP4 MSTORE SWAP2 PUSH1 0x20 ADD SWAP2 PUSH2 0xDB3 JUMP JUMPDEST DUP3 ADD SWAP2 SWAP1 PUSH1 0x0 MSTORE PUSH1 0x20 PUSH1 0x0 KECCAK256 SWAP1 JUMPDEST DUP2 SLOAD DUP2 MSTORE SWAP1 PUSH1 0x1 ADD SWAP1 PUSH1 0x20 ADD DUP1 DUP4 GT PUSH2 0xD96 JUMPI DUP3 SWAP1 SUB PUSH1 0x1F AND DUP3 ADD SWAP2 JUMPDEST POP POP POP POP POP SWAP1 POP SWAP3 POP SWAP3 POP SWAP3 POP SWAP2 SWAP4 SWAP1 SWAP3 POP JUMP JUMPDEST PUSH1 0x0 DUP1 DUP4 DUP2 MSTORE PUSH1 0x20 ADD SWAP1 DUP2 MSTORE PUSH1 0x20 ADD PUSH1 0x0 KECCAK256 PUSH1 0x4 ADD PUSH1 0x0 SWAP1 SLOAD SWAP1 PUSH2 0x100 EXP SWAP1 DIV PUSH1 0xFF AND PUSH2 0xE29 JUMPI PUSH1 0x40 MLOAD PUSH32 0x8C379A000000000000000000000000000000000000000000000000000000000 DUP2 MSTORE PUSH1 0x4 ADD PUSH2 0xE20 SWAP1 PUSH2 0x1B73 JUMP JUMPDEST PUSH1 0x40 MLOAD DUP1 SWAP2 SUB SWAP1 REVERT JUMPDEST PUSH1 0x0 DUP2 LT ISZERO DUP1 ISZERO PUSH2 0xE3B JUMPI POP PUSH1 0x5 DUP2 GT ISZERO JUMPDEST PUSH2 0xE7A JUMPI PUSH1 0x40 MLOAD PUSH32 0x8C379A000000000000000000000000000000000000000000000000000000000 DUP2 MSTORE PUSH1 0x4 ADD PUSH2 0xE71 SWAP1 PUSH2 0x1C05 JUMP JUMPDEST PUSH1 0x40 MLOAD DUP1 SWAP2 SUB SWAP1 REVERT JUMPDEST DUP1 PUSH1 0x2 PUSH1 0x0 DUP5 DUP2 MSTORE PUSH1 0x20 ADD SWAP1 DUP2 MSTORE PUSH1 0x20 ADD PUSH1 0x0 KECCAK256 PUSH1 0x0 ADD PUSH1 0x0 DUP3 DUP3 SLOAD PUSH2 0xEA0 SWAP2 SWAP1 PUSH2 0x1C25 JUMP JUMPDEST SWAP3 POP POP DUP2 SWAP1 SSTORE POP PUSH1 0x2 PUSH1 0x0 DUP4 DUP2 MSTORE PUSH1 0x20 ADD SWAP1 DUP2 MSTORE PUSH1 0x20 ADD PUSH1 0x0 KECCAK256 PUSH1 0x1 ADD PUSH1 0x0 DUP2 SLOAD DUP1 SWAP3 SWAP2 SWAP1 PUSH2 0xECE SWAP1 PUSH2 0x1831 JUMP JUMPDEST SWAP2 SWAP1 POP SSTORE POP PUSH32 0xCB40C02246867B173747C15DB9C37313ED612B373C8EA1710541C4FA65FF4A15 DUP3 DUP3 PUSH1 0x40 MLOAD PUSH2 0xF04 SWAP3 SWAP2 SWAP1 PUSH2 0x1592 JUMP JUMPDEST PUSH1 0x40 MLOAD DUP1 SWAP2 SUB SWAP1 LOG1 POP POP JUMP JUMPDEST PUSH1 0x0 DUP1 DUP4 DUP2 MSTORE PUSH1 0x20 ADD SWAP1 DUP2 MSTORE PUSH1 0x20 ADD PUSH1 0x0 KECCAK256 PUSH1 0x4 ADD PUSH1 0x0 SWAP1 SLOAD SWAP1 PUSH2 0x100 EXP SWAP1 DIV PUSH1 0xFF AND PUSH2 0xF72 JUMPI PUSH1 0x40 MLOAD PUSH32 0x8C379A000000000000000000000000000000000000000000000000000000000 DUP2 MSTORE PUSH1 0x4 ADD PUSH2 0xF69 SWAP1 PUSH2 0x1B73 JUMP JUMPDEST PUSH1 0x40 MLOAD DUP1 SWAP2 SUB SWAP1 REVERT JUMPDEST PUSH1 0x1 PUSH1 0x0 DUP3 DUP2 MSTORE PUSH1 0x20 ADD SWAP1 DUP2 MSTORE PUSH1 0x20 ADD PUSH1 0x0 KECCAK256 PUSH1 0x4 ADD PUSH1 0x14 SWAP1 SLOAD SWAP1 PUSH2 0x100 EXP SWAP1 DIV PUSH1 0xFF AND PUSH2 0xFD5 JUMPI PUSH1 0x40 MLOAD PUSH32 0x8C379A000000000000000000000000000000000000000000000000000000000 DUP2 MSTORE PUSH1 0x4 ADD PUSH2 0xFCC SWAP1 PUSH2 0x17E2 JUMP JUMPDEST PUSH1 0x40 MLOAD DUP1 SWAP2 SUB SWAP1 REVERT JUMPDEST PUSH32 0x2B29C80621CE60165161E9D1F4D4333D5619D77A9F5C6D0C24281D48E7F88D24 DUP3 DUP3 PUSH1 0x40 MLOAD PUSH2 0x1006 SWAP3 SWAP2 SWAP1 PUSH2 0x1592 JUMP JUMPDEST PUSH1 0x40 MLOAD DUP1 SWAP2 SUB SWAP1 LOG1 POP POP JUMP JUMPDEST PUSH1 0x60 PUSH1 0x0 DUP1 DUP4 DUP2 MSTORE PUSH1 0x20 ADD SWAP1 DUP2 MSTORE PUSH1 0x20 ADD PUSH1 0x0 KECCAK256 PUSH1 0x4 ADD PUSH1 0x0 SWAP1 SLOAD SWAP1 PUSH2 0x100 EXP SWAP1 DIV PUSH1 0xFF AND PUSH2 0x1076 JUMPI PUSH1 0x40 MLOAD PUSH32 0x8C379A000000000000000000000000000000000000000000000000000000000 DUP2 MSTORE PUSH1 0x4 ADD PUSH2 0x106D SWAP1 PUSH2 0x1B73 JUMP JUMPDEST PUSH1 0x40 MLOAD DUP1 SWAP2 SUB SWAP1 REVERT JUMPDEST PUSH1 0x0 DUP1 PUSH1 0x0 DUP5 DUP2 MSTORE PUSH1 0x20 ADD SWAP1 DUP2 MSTORE PUSH1 0x20 ADD PUSH1 0x0 KECCAK256 PUSH1 0x2 ADD DUP1 SLOAD PUSH2 0x1098 SWAP1 PUSH2 0x173F JUMP JUMPDEST SWAP1 POP GT ISZERO PUSH2 0x10DD JUMPI PUSH1 0x40 MLOAD DUP1 PUSH1 0x40 ADD PUSH1 0x40 MSTORE DUP1 PUSH1 0xB DUP2 MSTORE PUSH1 0x20 ADD PUSH32 0x457870657269656E636564000000000000000000000000000000000000000000 DUP2 MSTORE POP SWAP1 POP PUSH2 0x1116 JUMP JUMPDEST PUSH1 0x40 MLOAD DUP1 PUSH1 0x40 ADD PUSH1 0x40 MSTORE DUP1 PUSH1 0x6 DUP2 MSTORE PUSH1 0x20 ADD PUSH32 0x4E65776269650000000000000000000000000000000000000000000000000000 DUP2 MSTORE POP SWAP1 POP JUMPDEST SWAP2 SWAP1 POP JUMP JUMPDEST PUSH1 0x0 PUSH1 0x40 MLOAD SWAP1 POP SWAP1 JUMP JUMPDEST PUSH1 0x0 DUP1 REVERT JUMPDEST PUSH1 0x0 DUP1 REVERT JUMPDEST PUSH1 0x0 DUP2 SWAP1 POP SWAP2 SWAP1 POP JUMP JUMPDEST PUSH2 0x1142 DUP2 PUSH2 0x112F JUMP JUMPDEST DUP2 EQ PUSH2 0x114D JUMPI PUSH1 0x0 DUP1 REVERT JUMPDEST POP JUMP JUMPDEST PUSH1 0x0 DUP2 CALLDATALOAD SWAP1 POP PUSH2 0x115F DUP2 PUSH2 0x1139 JUMP JUMPDEST SWAP3 SWAP2 POP POP JUMP JUMPDEST PUSH1 0x0 PUSH1 0x20 DUP3 DUP5 SUB SLT ISZERO PUSH2 0x117B JUMPI PUSH2 0x117A PUSH2 0x1125 JUMP JUMPDEST JUMPDEST PUSH1 0x0 PUSH2 0x1189 DUP5 DUP3 DUP6 ADD PUSH2 0x1150 JUMP JUMPDEST SWAP2 POP POP SWAP3 SWAP2 POP POP JUMP JUMPDEST PUSH2 0x119B DUP2 PUSH2 0x112F JUMP JUMPDEST DUP3 MSTORE POP POP JUMP JUMPDEST PUSH1 0x0 DUP2 MLOAD SWAP1 POP SWAP2 SWAP1 POP JUMP JUMPDEST PUSH1 0x0 DUP3 DUP3 MSTORE PUSH1 0x20 DUP3 ADD SWAP1 POP SWAP3 SWAP2 POP POP JUMP JUMPDEST PUSH1 0x0 JUMPDEST DUP4 DUP2 LT ISZERO PUSH2 0x11DB JUMPI DUP1 DUP3 ADD MLOAD DUP2 DUP5 ADD MSTORE PUSH1 0x20 DUP2 ADD SWAP1 POP PUSH2 0x11C0 JUMP JUMPDEST PUSH1 0x0 DUP5 DUP5 ADD MSTORE POP POP POP POP JUMP JUMPDEST PUSH1 0x0 PUSH1 0x1F NOT PUSH1 0x1F DUP4 ADD AND SWAP1 POP SWAP2 SWAP1 POP JUMP JUMPDEST PUSH1 0x0 PUSH2 0x1203 DUP3 PUSH2 0x11A1 JUMP JUMPDEST PUSH2 0x120D DUP2 DUP6 PUSH2 0x11AC JUMP JUMPDEST SWAP4 POP PUSH2 0x121D DUP2 DUP6 PUSH1 0x20 DUP7 ADD PUSH2 0x11BD JUMP JUMPDEST PUSH2 0x1226 DUP2 PUSH2 0x11E7 JUMP JUMPDEST DUP5 ADD SWAP2 POP POP SWAP3 SWAP2 POP POP JUMP JUMPDEST PUSH1 0x0 PUSH20 0xFFFFFFFFFFFFFFFFFFFFFFFFFFFFFFFFFFFFFFFF DUP3 AND SWAP1 POP SWAP2 SWAP1 POP JUMP JUMPDEST PUSH1 0x0 PUSH2 0x125C DUP3 PUSH2 0x1231 JUMP JUMPDEST SWAP1 POP SWAP2 SWAP1 POP JUMP JUMPDEST PUSH2 0x126C DUP2 PUSH2 0x1251 JUMP JUMPDEST DUP3 MSTORE POP POP JUMP JUMPDEST PUSH1 0x0 DUP2 ISZERO ISZERO SWAP1 POP SWAP2 SWAP1 POP JUMP JUMPDEST PUSH2 0x1287 DUP2 PUSH2 0x1272 JUMP JUMPDEST DUP3 MSTORE POP POP JUMP JUMPDEST PUSH1 0x0 PUSH1 0xC0 DUP3 ADD SWAP1 POP PUSH2 0x12A2 PUSH1 0x0 DUP4 ADD DUP10 PUSH2 0x1192 JUMP JUMPDEST DUP2 DUP2 SUB PUSH1 0x20 DUP4 ADD MSTORE PUSH2 0x12B4 DUP2 DUP9 PUSH2 0x11F8 JUMP JUMPDEST SWAP1 POP DUP2 DUP2 SUB PUSH1 0x40 DUP4 ADD MSTORE PUSH2 0x12C8 DUP2 DUP8 PUSH2 0x11F8 JUMP JUMPDEST SWAP1 POP PUSH2 0x12D7 PUSH1 0x60 DUP4 ADD DUP7 PUSH2 0x1192 JUMP JUMPDEST PUSH2 0x12E4 PUSH1 0x80 DUP4 ADD DUP6 PUSH2 0x1263 JUMP JUMPDEST PUSH2 0x12F1 PUSH1 0xA0 DUP4 ADD DUP5 PUSH2 0x127E JUMP JUMPDEST SWAP8 SWAP7 POP POP POP POP POP POP POP JUMP JUMPDEST PUSH1 0x0 PUSH1 0x20 DUP3 ADD SWAP1 POP PUSH2 0x1311 PUSH1 0x0 DUP4 ADD DUP5 PUSH2 0x1192 JUMP JUMPDEST SWAP3 SWAP2 POP POP JUMP JUMPDEST PUSH1 0x0 PUSH1 0x80 DUP3 ADD SWAP1 POP DUP2 DUP2 SUB PUSH1 0x0 DUP4 ADD MSTORE PUSH2 0x1331 DUP2 DUP8 PUSH2 0x11F8 JUMP JUMPDEST SWAP1 POP DUP2 DUP2 SUB PUSH1 0x20 DUP4 ADD MSTORE PUSH2 0x1345 DUP2 DUP7 PUSH2 0x11F8 JUMP JUMPDEST SWAP1 POP PUSH2 0x1354 PUSH1 0x40 DUP4 ADD DUP6 PUSH2 0x1192 JUMP JUMPDEST PUSH2 0x1361 PUSH1 0x60 DUP4 ADD DUP5 PUSH2 0x1263 JUMP JUMPDEST SWAP6 SWAP5 POP POP POP POP POP JUMP JUMPDEST PUSH1 0x0 PUSH1 0xA0 DUP3 ADD SWAP1 POP PUSH2 0x137F PUSH1 0x0 DUP4 ADD DUP9 PUSH2 0x1192 JUMP JUMPDEST DUP2 DUP2 SUB PUSH1 0x20 DUP4 ADD MSTORE PUSH2 0x1391 DUP2 DUP8 PUSH2 0x11F8 JUMP JUMPDEST SWAP1 POP DUP2 DUP2 SUB PUSH1 0x40 DUP4 ADD MSTORE PUSH2 0x13A5 DUP2 DUP7 PUSH2 0x11F8 JUMP JUMPDEST SWAP1 POP DUP2 DUP2 SUB PUSH1 0x60 DUP4 ADD MSTORE PUSH2 0x13B9 DUP2 DUP6 PUSH2 0x11F8 JUMP JUMPDEST SWAP1 POP PUSH2 0x13C8 PUSH1 0x80 DUP4 ADD DUP5 PUSH2 0x127E JUMP JUMPDEST SWAP7 SWAP6 POP POP POP POP POP POP JUMP JUMPDEST PUSH1 0x0 DUP1 REVERT JUMPDEST PUSH1 0x0 DUP1 REVERT JUMPDEST PUSH32 0x4E487B7100000000000000000000000000000000000000000000000000000000 PUSH1 0x0 MSTORE PUSH1 0x41 PUSH1 0x4 MSTORE PUSH1 0x24 PUSH1 0x0 REVERT JUMPDEST PUSH2 0x1414 DUP3 PUSH2 0x11E7 JUMP JUMPDEST DUP2 ADD DUP2 DUP2 LT PUSH8 0xFFFFFFFFFFFFFFFF DUP3 GT OR ISZERO PUSH2 0x1433 JUMPI PUSH2 0x1432 PUSH2 0x13DC JUMP JUMPDEST JUMPDEST DUP1 PUSH1 0x40 MSTORE POP POP POP JUMP JUMPDEST PUSH1 0x0 PUSH2 0x1446 PUSH2 0x111B JUMP JUMPDEST SWAP1 POP PUSH2 0x1452 DUP3 DUP3 PUSH2 0x140B JUMP JUMPDEST SWAP2 SWAP1 POP JUMP JUMPDEST PUSH1 0x0 PUSH8 0xFFFFFFFFFFFFFFFF DUP3 GT ISZERO PUSH2 0x1472 JUMPI PUSH2 0x1471 PUSH2 0x13DC JUMP JUMPDEST JUMPDEST PUSH2 0x147B DUP3 PUSH2 0x11E7 JUMP JUMPDEST SWAP1 POP PUSH1 0x20 DUP2 ADD SWAP1 POP SWAP2 SWAP1 POP JUMP JUMPDEST DUP3 DUP2 DUP4 CALLDATACOPY PUSH1 0x0 DUP4 DUP4 ADD MSTORE POP POP POP JUMP JUMPDEST PUSH1 0x0 PUSH2 0x14AA PUSH2 0x14A5 DUP5 PUSH2 0x1457 JUMP JUMPDEST PUSH2 0x143C JUMP JUMPDEST SWAP1 POP DUP3 DUP2 MSTORE PUSH1 0x20 DUP2 ADD DUP5 DUP5 DUP5 ADD GT ISZERO PUSH2 0x14C6 JUMPI PUSH2 0x14C5 PUSH2 0x13D7 JUMP JUMPDEST JUMPDEST PUSH2 0x14D1 DUP5 DUP3 DUP6 PUSH2 0x1488 JUMP JUMPDEST POP SWAP4 SWAP3 POP POP POP JUMP JUMPDEST PUSH1 0x0 DUP3 PUSH1 0x1F DUP4 ADD SLT PUSH2 0x14EE JUMPI PUSH2 0x14ED PUSH2 0x13D2 JUMP JUMPDEST JUMPDEST DUP2 CALLDATALOAD PUSH2 0x14FE DUP5 DUP3 PUSH1 0x20 DUP7 ADD PUSH2 0x1497 JUMP JUMPDEST SWAP2 POP POP SWAP3 SWAP2 POP POP JUMP JUMPDEST PUSH1 0x0 DUP1 PUSH1 0x0 PUSH1 0x60 DUP5 DUP7 SUB SLT ISZERO PUSH2 0x1520 JUMPI PUSH2 0x151F PUSH2 0x1125 JUMP JUMPDEST JUMPDEST PUSH1 0x0 DUP5 ADD CALLDATALOAD PUSH8 0xFFFFFFFFFFFFFFFF DUP2 GT ISZERO PUSH2 0x153E JUMPI PUSH2 0x153D PUSH2 0x112A JUMP JUMPDEST JUMPDEST PUSH2 0x154A DUP7 DUP3 DUP8 ADD PUSH2 0x14D9 JUMP JUMPDEST SWAP4 POP POP PUSH1 0x20 DUP5 ADD CALLDATALOAD PUSH8 0xFFFFFFFFFFFFFFFF DUP2 GT ISZERO PUSH2 0x156B JUMPI PUSH2 0x156A PUSH2 0x112A JUMP JUMPDEST JUMPDEST PUSH2 0x1577 DUP7 DUP3 DUP8 ADD PUSH2 0x14D9 JUMP JUMPDEST SWAP3 POP POP PUSH1 0x40 PUSH2 0x1588 DUP7 DUP3 DUP8 ADD PUSH2 0x1150 JUMP JUMPDEST SWAP2 POP POP SWAP3 POP SWAP3 POP SWAP3 JUMP JUMPDEST PUSH1 0x0 PUSH1 0x40 DUP3 ADD SWAP1 POP PUSH2 0x15A7 PUSH1 0x0 DUP4 ADD DUP6 PUSH2 0x1192 JUMP JUMPDEST PUSH2 0x15B4 PUSH1 0x20 DUP4 ADD DUP5 PUSH2 0x1192 JUMP JUMPDEST SWAP4 SWAP3 POP POP POP JUMP JUMPDEST PUSH1 0x0 DUP1 PUSH1 0x0 PUSH1 0x60 DUP5 DUP7 SUB SLT ISZERO PUSH2 0x15D4 JUMPI PUSH2 0x15D3 PUSH2 0x1125 JUMP JUMPDEST JUMPDEST PUSH1 0x0 DUP5 ADD CALLDATALOAD PUSH8 0xFFFFFFFFFFFFFFFF DUP2 GT ISZERO PUSH2 0x15F2 JUMPI PUSH2 0x15F1 PUSH2 0x112A JUMP JUMPDEST JUMPDEST PUSH2 0x15FE DUP7 DUP3 DUP8 ADD PUSH2 0x14D9 JUMP JUMPDEST SWAP4 POP POP PUSH1 0x20 DUP5 ADD CALLDATALOAD PUSH8 0xFFFFFFFFFFFFFFFF DUP2 GT ISZERO PUSH2 0x161F JUMPI PUSH2 0x161E PUSH2 0x112A JUMP JUMPDEST JUMPDEST PUSH2 0x162B DUP7 DUP3 DUP8 ADD PUSH2 0x14D9 JUMP JUMPDEST SWAP3 POP POP PUSH1 0x40 DUP5 ADD CALLDATALOAD PUSH8 0xFFFFFFFFFFFFFFFF DUP2 GT ISZERO PUSH2 0x164C JUMPI PUSH2 0x164B PUSH2 0x112A JUMP JUMPDEST JUMPDEST PUSH2 0x1658 DUP7 DUP3 DUP8 ADD PUSH2 0x14D9 JUMP JUMPDEST SWAP2 POP POP SWAP3 POP SWAP3 POP SWAP3 JUMP JUMPDEST PUSH1 0x0 PUSH1 0x60 DUP3 ADD SWAP1 POP DUP2 DUP2 SUB PUSH1 0x0 DUP4 ADD MSTORE PUSH2 0x167C DUP2 DUP7 PUSH2 0x11F8 JUMP JUMPDEST SWAP1 POP DUP2 DUP2 SUB PUSH1 0x20 DUP4 ADD MSTORE PUSH2 0x1690 DUP2 DUP6 PUSH2 0x11F8 JUMP JUMPDEST SWAP1 POP DUP2 DUP2 SUB PUSH1 0x40 DUP4 ADD MSTORE PUSH2 0x16A4 DUP2 DUP5 PUSH2 0x11F8 JUMP JUMPDEST SWAP1 POP SWAP5 SWAP4 POP POP POP POP JUMP JUMPDEST PUSH1 0x0 DUP1 PUSH1 0x40 DUP4 DUP6 SUB SLT ISZERO PUSH2 0x16C5 JUMPI PUSH2 0x16C4 PUSH2 0x1125 JUMP JUMPDEST JUMPDEST PUSH1 0x0 PUSH2 0x16D3 DUP6 DUP3 DUP7 ADD PUSH2 0x1150 JUMP JUMPDEST SWAP3 POP POP PUSH1 0x20 PUSH2 0x16E4 DUP6 DUP3 DUP7 ADD PUSH2 0x1150 JUMP JUMPDEST SWAP2 POP POP SWAP3 POP SWAP3 SWAP1 POP JUMP JUMPDEST PUSH1 0x0 PUSH1 0x20 DUP3 ADD SWAP1 POP DUP2 DUP2 SUB PUSH1 0x0 DUP4 ADD MSTORE PUSH2 0x1708 DUP2 DUP5 PUSH2 0x11F8 JUMP JUMPDEST SWAP1 POP SWAP3 SWAP2 POP POP JUMP JUMPDEST PUSH32 0x4E487B7100000000000000000000000000000000000000000000000000000000 PUSH1 0x0 MSTORE PUSH1 0x22 PUSH1 0x4 MSTORE PUSH1 0x24 PUSH1 0x0 REVERT JUMPDEST PUSH1 0x0 PUSH1 0x2 DUP3 DIV SWAP1 POP PUSH1 0x1 DUP3 AND DUP1 PUSH2 0x1757 JUMPI PUSH1 0x7F DUP3 AND SWAP2 POP JUMPDEST PUSH1 0x20 DUP3 LT DUP2 SUB PUSH2 0x176A JUMPI PUSH2 0x1769 PUSH2 0x1710 JUMP JUMPDEST JUMPDEST POP SWAP2 SWAP1 POP JUMP JUMPDEST PUSH32 0x4A6F6220646F6573206E6F74206578697374206F72206973206E6F7420617661 PUSH1 0x0 DUP3 ADD MSTORE PUSH32 0x696C61626C652E00000000000000000000000000000000000000000000000000 PUSH1 0x20 DUP3 ADD MSTORE POP JUMP JUMPDEST PUSH1 0x0 PUSH2 0x17CC PUSH1 0x27 DUP4 PUSH2 0x11AC JUMP JUMPDEST SWAP2 POP PUSH2 0x17D7 DUP3 PUSH2 0x1770 JUMP JUMPDEST PUSH1 0x40 DUP3 ADD SWAP1 POP SWAP2 SWAP1 POP JUMP JUMPDEST PUSH1 0x0 PUSH1 0x20 DUP3 ADD SWAP1 POP DUP2 DUP2 SUB PUSH1 0x0 DUP4 ADD MSTORE PUSH2 0x17FB DUP2 PUSH2 0x17BF JUMP JUMPDEST SWAP1 POP SWAP2 SWAP1 POP JUMP JUMPDEST PUSH32 0x4E487B7100000000000000000000000000000000000000000000000000000000 PUSH1 0x0 MSTORE PUSH1 0x11 PUSH1 0x4 MSTORE PUSH1 0x24 PUSH1 0x0 REVERT JUMPDEST PUSH1 0x0 PUSH2 0x183C DUP3 PUSH2 0x112F JUMP JUMPDEST SWAP2 POP PUSH32 0xFFFFFFFFFFFFFFFFFFFFFFFFFFFFFFFFFFFFFFFFFFFFFFFFFFFFFFFFFFFFFFFF DUP3 SUB PUSH2 0x186E JUMPI PUSH2 0x186D PUSH2 0x1802 JUMP JUMPDEST JUMPDEST PUSH1 0x1 DUP3 ADD SWAP1 POP SWAP2 SWAP1 POP JUMP JUMPDEST PUSH1 0x0 DUP2 SWAP1 POP DUP2 PUSH1 0x0 MSTORE PUSH1 0x20 PUSH1 0x0 KECCAK256 SWAP1 POP SWAP2 SWAP1 POP JUMP JUMPDEST PUSH1 0x0 PUSH1 0x20 PUSH1 0x1F DUP4 ADD DIV SWAP1 POP SWAP2 SWAP1 POP JUMP JUMPDEST PUSH1 0x0 DUP3 DUP3 SHL SWAP1 POP SWAP3 SWAP2 POP POP JUMP JUMPDEST PUSH1 0x0 PUSH1 0x8 DUP4 MUL PUSH2 0x18DB PUSH32 0xFFFFFFFFFFFFFFFFFFFFFFFFFFFFFFFFFFFFFFFFFFFFFFFFFFFFFFFFFFFFFFFF DUP3 PUSH2 0x189E JUMP JUMPDEST PUSH2 0x18E5 DUP7 DUP4 PUSH2 0x189E JUMP JUMPDEST SWAP6 POP DUP1 NOT DUP5 AND SWAP4 POP DUP1 DUP7 AND DUP5 OR SWAP3 POP POP POP SWAP4 SWAP3 POP POP POP JUMP JUMPDEST PUSH1 0x0 DUP2 SWAP1 POP SWAP2 SWAP1 POP JUMP JUMPDEST PUSH1 0x0 PUSH2 0x1922 PUSH2 0x191D PUSH2 0x1918 DUP5 PUSH2 0x112F JUMP JUMPDEST PUSH2 0x18FD JUMP JUMPDEST PUSH2 0x112F JUMP JUMPDEST SWAP1 POP SWAP2 SWAP1 POP JUMP JUMPDEST PUSH1 0x0 DUP2 SWAP1 POP SWAP2 SWAP1 POP JUMP JUMPDEST PUSH2 0x193C DUP4 PUSH2 0x1907 JUMP JUMPDEST PUSH2 0x1950 PUSH2 0x1948 DUP3 PUSH2 0x1929 JUMP JUMPDEST DUP5 DUP5 SLOAD PUSH2 0x18AB JUMP JUMPDEST DUP3 SSTORE POP POP POP POP JUMP JUMPDEST PUSH1 0x0 SWAP1 JUMP JUMPDEST PUSH2 0x1965 PUSH2 0x1958 JUMP JUMPDEST PUSH2 0x1970 DUP2 DUP5 DUP5 PUSH2 0x1933 JUMP JUMPDEST POP POP POP JUMP JUMPDEST JUMPDEST DUP2 DUP2 LT ISZERO PUSH2 0x1994 JUMPI PUSH2 0x1989 PUSH1 0x0 DUP3 PUSH2 0x195D JUMP JUMPDEST PUSH1 0x1 DUP2 ADD SWAP1 POP PUSH2 0x1976 JUMP JUMPDEST POP POP JUMP JUMPDEST PUSH1 0x1F DUP3 GT ISZERO PUSH2 0x19D9 JUMPI PUSH2 0x19AA DUP2 PUSH2 0x1879 JUMP JUMPDEST PUSH2 0x19B3 DUP5 PUSH2 0x188E JUMP JUMPDEST DUP2 ADD PUSH1 0x20 DUP6 LT ISZERO PUSH2 0x19C2 JUMPI DUP2 SWAP1 POP JUMPDEST PUSH2 0x19D6 PUSH2 0x19CE DUP6 PUSH2 0x188E JUMP JUMPDEST DUP4 ADD DUP3 PUSH2 0x1975 JUMP JUMPDEST POP POP JUMPDEST POP POP POP JUMP JUMPDEST PUSH1 0x0 DUP3 DUP3 SHR SWAP1 POP SWAP3 SWAP2 POP POP JUMP JUMPDEST PUSH1 0x0 PUSH2 0x19FC PUSH1 0x0 NOT DUP5 PUSH1 0x8 MUL PUSH2 0x19DE JUMP JUMPDEST NOT DUP1 DUP4 AND SWAP2 POP POP SWAP3 SWAP2 POP POP JUMP JUMPDEST PUSH1 0x0 PUSH2 0x1A15 DUP4 DUP4 PUSH2 0x19EB JUMP JUMPDEST SWAP2 POP DUP3 PUSH1 0x2 MUL DUP3 OR SWAP1 POP SWAP3 SWAP2 POP POP JUMP JUMPDEST PUSH2 0x1A2E DUP3 PUSH2 0x11A1 JUMP JUMPDEST PUSH8 0xFFFFFFFFFFFFFFFF DUP2 GT ISZERO PUSH2 0x1A47 JUMPI PUSH2 0x1A46 PUSH2 0x13DC JUMP JUMPDEST JUMPDEST PUSH2 0x1A51 DUP3 SLOAD PUSH2 0x173F JUMP JUMPDEST PUSH2 0x1A5C DUP3 DUP3 DUP6 PUSH2 0x1998 JUMP JUMPDEST PUSH1 0x0 PUSH1 0x20 SWAP1 POP PUSH1 0x1F DUP4 GT PUSH1 0x1 DUP2 EQ PUSH2 0x1A8F JUMPI PUSH1 0x0 DUP5 ISZERO PUSH2 0x1A7D JUMPI DUP3 DUP8 ADD MLOAD SWAP1 POP JUMPDEST PUSH2 0x1A87 DUP6 DUP3 PUSH2 0x1A09 JUMP JUMPDEST DUP7 SSTORE POP PUSH2 0x1AEF JUMP JUMPDEST PUSH1 0x1F NOT DUP5 AND PUSH2 0x1A9D DUP7 PUSH2 0x1879 JUMP JUMPDEST PUSH1 0x0 JUMPDEST DUP3 DUP2 LT ISZERO PUSH2 0x1AC5 JUMPI DUP5 DUP10 ADD MLOAD DUP3 SSTORE PUSH1 0x1 DUP3 ADD SWAP2 POP PUSH1 0x20 DUP6 ADD SWAP5 POP PUSH1 0x20 DUP2 ADD SWAP1 POP PUSH2 0x1AA0 JUMP JUMPDEST DUP7 DUP4 LT ISZERO PUSH2 0x1AE2 JUMPI DUP5 DUP10 ADD MLOAD PUSH2 0x1ADE PUSH1 0x1F DUP10 AND DUP3 PUSH2 0x19EB JUMP JUMPDEST DUP4 SSTORE POP JUMPDEST PUSH1 0x1 PUSH1 0x2 DUP9 MUL ADD DUP9 SSTORE POP POP POP JUMPDEST POP POP POP POP POP POP JUMP JUMPDEST PUSH1 0x0 PUSH1 0x40 DUP3 ADD SWAP1 POP PUSH2 0x1B0C PUSH1 0x0 DUP4 ADD DUP6 PUSH2 0x1192 JUMP JUMPDEST DUP2 DUP2 SUB PUSH1 0x20 DUP4 ADD MSTORE PUSH2 0x1B1E DUP2 DUP5 PUSH2 0x11F8 JUMP JUMPDEST SWAP1 POP SWAP4 SWAP3 POP POP POP JUMP JUMPDEST PUSH32 0x4170706C6963616E7420646F6573206E6F742065786973742E00000000000000 PUSH1 0x0 DUP3 ADD MSTORE POP JUMP JUMPDEST PUSH1 0x0 PUSH2 0x1B5D PUSH1 0x19 DUP4 PUSH2 0x11AC JUMP JUMPDEST SWAP2 POP PUSH2 0x1B68 DUP3 PUSH2 0x1B27 JUMP JUMPDEST PUSH1 0x20 DUP3 ADD SWAP1 POP SWAP2 SWAP1 POP JUMP JUMPDEST PUSH1 0x0 PUSH1 0x20 DUP3 ADD SWAP1 POP DUP2 DUP2 SUB PUSH1 0x0 DUP4 ADD MSTORE PUSH2 0x1B8C DUP2 PUSH2 0x1B50 JUMP JUMPDEST SWAP1 POP SWAP2 SWAP1 POP JUMP JUMPDEST PUSH32 0x526174696E672076616C7565206D757374206265206265747765656E20302061 PUSH1 0x0 DUP3 ADD MSTORE PUSH32 0x6E6420352E000000000000000000000000000000000000000000000000000000 PUSH1 0x20 DUP3 ADD MSTORE POP JUMP JUMPDEST PUSH1 0x0 PUSH2 0x1BEF PUSH1 0x25 DUP4 PUSH2 0x11AC JUMP JUMPDEST SWAP2 POP PUSH2 0x1BFA DUP3 PUSH2 0x1B93 JUMP JUMPDEST PUSH1 0x40 DUP3 ADD SWAP1 POP SWAP2 SWAP1 POP JUMP JUMPDEST PUSH1 0x0 PUSH1 0x20 DUP3 ADD SWAP1 POP DUP2 DUP2 SUB PUSH1 0x0 DUP4 ADD MSTORE PUSH2 0x1C1E DUP2 PUSH2 0x1BE2 JUMP JUMPDEST SWAP1 POP SWAP2 SWAP1 POP JUMP JUMPDEST PUSH1 0x0 PUSH2 0x1C30 DUP3 PUSH2 0x112F JUMP JUMPDEST SWAP2 POP PUSH2 0x1C3B DUP4 PUSH2 0x112F JUMP JUMPDEST SWAP3 POP DUP3 DUP3 ADD SWAP1 POP DUP1 DUP3 GT ISZERO PUSH2 0x1C53 JUMPI PUSH2 0x1C52 PUSH2 0x1802 JUMP JUMPDEST JUMPDEST SWAP3 SWAP2 POP POP JUMP INVALID LOG2 PUSH5 0x6970667358 0x22 SLT KECCAK256 BLOCKHASH LOG4 LT 0xA7 0xFC 0xE0 0xD2 SHR 0x2F LOG1 0x49 PUSH27 0xB31E1FC40AAD930BF44E0F6C3D0A582BB9D46F464736F6C634300 ADDMOD SLT STOP CALLER "
				},
				"gasEstimates": {
					"creation": {
						"codeDepositCost": "1462200",
						"executionCost": "1527",
						"totalCost": "1463727"
					},
					"external": {
						"addNewApplicant(string,string,string)": "infinite",
						"addNewJob(string,string,uint256)": "infinite",
						"applicantCount()": "2452",
						"applicantRatings(uint256)": "infinite",
						"applicants(uint256)": "infinite",
						"applyForJob(uint256,uint256)": "infinite",
						"fetchApplicantRating(uint256)": "infinite",
						"getApplicantDetails(uint256)": "infinite",
						"getApplicantType(uint256)": "infinite",
						"getJobDetails(uint256)": "infinite",
						"jobCount()": "2474",
						"jobs(uint256)": "infinite",
						"provideRating(uint256,uint256)": "infinite"
					}
				},
				"methodIdentifiers": {
					"addNewApplicant(string,string,string)": "725d89ba",
					"addNewJob(string,string,uint256)": "640ed3fe",
					"applicantCount()": "18f53993",
					"applicantRatings(uint256)": "79c7b008",
					"applicants(uint256)": "63de5323",
					"applyForJob(uint256,uint256)": "bfc7a66e",
					"fetchApplicantRating(uint256)": "6c8548ff",
					"getApplicantDetails(uint256)": "8798a47b",
					"getApplicantType(uint256)": "d280267d",
					"getJobDetails(uint256)": "4cac35c6",
					"jobCount()": "4c5d8a0f",
					"jobs(uint256)": "180aedf3",
					"provideRating(uint256,uint256)": "89fb1352"
				}
			},
			"storageLayout": {
				"storage": [
					{
						"astId": 35,
						"contract": "contracts/project1.sol:MigrantWorkerDapp",
						"label": "applicants",
						"offset": 0,
						"slot": "0",
						"type": "t_mapping(t_uint256,t_struct(Applicant)12_storage)"
					},
					{
						"astId": 40,
						"contract": "contracts/project1.sol:MigrantWorkerDapp",
						"label": "jobs",
						"offset": 0,
						"slot": "1",
						"type": "t_mapping(t_uint256,t_struct(Job)25_storage)"
					},
					{
						"astId": 45,
						"contract": "contracts/project1.sol:MigrantWorkerDapp",
						"label": "applicantRatings",
						"offset": 0,
						"slot": "2",
						"type": "t_mapping(t_uint256,t_struct(Rating)30_storage)"
					},
					{
						"astId": 47,
						"contract": "contracts/project1.sol:MigrantWorkerDapp",
						"label": "applicantCount",
						"offset": 0,
						"slot": "3",
						"type": "t_uint256"
					},
					{
						"astId": 49,
						"contract": "contracts/project1.sol:MigrantWorkerDapp",
						"label": "jobCount",
						"offset": 0,
						"slot": "4",
						"type": "t_uint256"
					}
				],
				"types": {
					"t_address": {
						"encoding": "inplace",
						"label": "address",
						"numberOfBytes": "20"
					},
					"t_bool": {
						"encoding": "inplace",
						"label": "bool",
						"numberOfBytes": "1"
					},
					"t_mapping(t_uint256,t_struct(Applicant)12_storage)": {
						"encoding": "mapping",
						"key": "t_uint256",
						"label": "mapping(uint256 => struct MigrantWorkerDapp.Applicant)",
						"numberOfBytes": "32",
						"value": "t_struct(Applicant)12_storage"
					},
					"t_mapping(t_uint256,t_struct(Job)25_storage)": {
						"encoding": "mapping",
						"key": "t_uint256",
						"label": "mapping(uint256 => struct MigrantWorkerDapp.Job)",
						"numberOfBytes": "32",
						"value": "t_struct(Job)25_storage"
					},
					"t_mapping(t_uint256,t_struct(Rating)30_storage)": {
						"encoding": "mapping",
						"key": "t_uint256",
						"label": "mapping(uint256 => struct MigrantWorkerDapp.Rating)",
						"numberOfBytes": "32",
						"value": "t_struct(Rating)30_storage"
					},
					"t_string_storage": {
						"encoding": "bytes",
						"label": "string",
						"numberOfBytes": "32"
					},
					"t_struct(Applicant)12_storage": {
						"encoding": "inplace",
						"label": "struct MigrantWorkerDapp.Applicant",
						"members": [
							{
								"astId": 3,
								"contract": "contracts/project1.sol:MigrantWorkerDapp",
								"label": "id",
								"offset": 0,
								"slot": "0",
								"type": "t_uint256"
							},
							{
								"astId": 5,
								"contract": "contracts/project1.sol:MigrantWorkerDapp",
								"label": "name",
								"offset": 0,
								"slot": "1",
								"type": "t_string_storage"
							},
							{
								"astId": 7,
								"contract": "contracts/project1.sol:MigrantWorkerDapp",
								"label": "laborHistory",
								"offset": 0,
								"slot": "2",
								"type": "t_string_storage"
							},
							{
								"astId": 9,
								"contract": "contracts/project1.sol:MigrantWorkerDapp",
								"label": "skills",
								"offset": 0,
								"slot": "3",
								"type": "t_string_storage"
							},
							{
								"astId": 11,
								"contract": "contracts/project1.sol:MigrantWorkerDapp",
								"label": "isRegistered",
								"offset": 0,
								"slot": "4",
								"type": "t_bool"
							}
						],
						"numberOfBytes": "160"
					},
					"t_struct(Job)25_storage": {
						"encoding": "inplace",
						"label": "struct MigrantWorkerDapp.Job",
						"members": [
							{
								"astId": 14,
								"contract": "contracts/project1.sol:MigrantWorkerDapp",
								"label": "id",
								"offset": 0,
								"slot": "0",
								"type": "t_uint256"
							},
							{
								"astId": 16,
								"contract": "contracts/project1.sol:MigrantWorkerDapp",
								"label": "title",
								"offset": 0,
								"slot": "1",
								"type": "t_string_storage"
							},
							{
								"astId": 18,
								"contract": "contracts/project1.sol:MigrantWorkerDapp",
								"label": "description",
								"offset": 0,
								"slot": "2",
								"type": "t_string_storage"
							},
							{
								"astId": 20,
								"contract": "contracts/project1.sol:MigrantWorkerDapp",
								"label": "salary",
								"offset": 0,
								"slot": "3",
								"type": "t_uint256"
							},
							{
								"astId": 22,
								"contract": "contracts/project1.sol:MigrantWorkerDapp",
								"label": "provider",
								"offset": 0,
								"slot": "4",
								"type": "t_address"
							},
							{
								"astId": 24,
								"contract": "contracts/project1.sol:MigrantWorkerDapp",
								"label": "isAvailable",
								"offset": 20,
								"slot": "4",
								"type": "t_bool"
							}
						],
						"numberOfBytes": "160"
					},
					"t_struct(Rating)30_storage": {
						"encoding": "inplace",
						"label": "struct MigrantWorkerDapp.Rating",
						"members": [
							{
								"astId": 27,
								"contract": "contracts/project1.sol:MigrantWorkerDapp",
								"label": "ratingValue",
								"offset": 0,
								"slot": "0",
								"type": "t_uint256"
							},
							{
								"astId": 29,
								"contract": "contracts/project1.sol:MigrantWorkerDapp",
								"label": "totalRatings",
								"offset": 0,
								"slot": "1",
								"type": "t_uint256"
							}
						],
						"numberOfBytes": "64"
					},
					"t_uint256": {
						"encoding": "inplace",
						"label": "uint256",
						"numberOfBytes": "32"
					}
				}
			},
			"userdoc": {
				"kind": "user",
				"methods": {},
				"version": 1
			}
		}
	}
}