{
	"contracts/session32.sol": {
		"SLParticipants": {
			"abi": [
				{
					"inputs": [
						{
							"internalType": "uint256",
							"name": "key",
							"type": "uint256"
						},
						{
							"internalType": "string",
							"name": "_name",
							"type": "string"
						},
						{
							"internalType": "uint256",
							"name": "_age",
							"type": "uint256"
						},
						{
							"internalType": "uint256",
							"name": "_phoneno",
							"type": "uint256"
						},
						{
							"internalType": "string",
							"name": "_email",
							"type": "string"
						},
						{
							"internalType": "string",
							"name": "_courseenrolled",
							"type": "string"
						},
						{
							"internalType": "bool",
							"name": "_feepaid",
							"type": "bool"
						}
					],
					"name": "addParticipant",
					"outputs": [],
					"stateMutability": "nonpayable",
					"type": "function"
				},
				{
					"inputs": [
						{
							"internalType": "uint256",
							"name": "key",
							"type": "uint256"
						}
					],
					"name": "getParticipant",
					"outputs": [
						{
							"components": [
								{
									"internalType": "string",
									"name": "Pname",
									"type": "string"
								},
								{
									"internalType": "uint256",
									"name": "Page",
									"type": "uint256"
								},
								{
									"internalType": "uint256",
									"name": "Pphoneno",
									"type": "uint256"
								},
								{
									"internalType": "string",
									"name": "Pemail",
									"type": "string"
								},
								{
									"internalType": "string",
									"name": "courseenrolled",
									"type": "string"
								},
								{
									"internalType": "bool",
									"name": "feepaid",
									"type": "bool"
								}
							],
							"internalType": "struct SLParticipants.Participant",
							"name": "",
							"type": "tuple"
						}
					],
					"stateMutability": "view",
					"type": "function"
				}
			],
			"devdoc": {
				"kind": "dev",
				"methods": {},
				"version": 1
			},
			"evm": {
				"assembly": "    /* \"contracts/session32.sol\":60:775  contract SLParticipants {... */\n  mstore(0x40, 0x80)\n  callvalue\n  dup1\n  iszero\n  tag_1\n  jumpi\n  0x00\n  dup1\n  revert\ntag_1:\n  pop\n  dataSize(sub_0)\n  dup1\n  dataOffset(sub_0)\n  0x00\n  codecopy\n  0x00\n  return\nstop\n\nsub_0: assembly {\n        /* \"contracts/session32.sol\":60:775  contract SLParticipants {... */\n      mstore(0x40, 0x80)\n      callvalue\n      dup1\n      iszero\n      tag_1\n      jumpi\n      0x00\n      dup1\n      revert\n    tag_1:\n      pop\n      jumpi(tag_2, lt(calldatasize, 0x04))\n      shr(0xe0, calldataload(0x00))\n      dup1\n      0x1b9db2ef\n      eq\n      tag_3\n      jumpi\n      dup1\n      0x2a72500a\n      eq\n      tag_4\n      jumpi\n    tag_2:\n      0x00\n      dup1\n      revert\n        /* \"contracts/session32.sol\":651:770  function getParticipant(uint key) public view returns (Participant memory)... */\n    tag_3:\n      tag_5\n      0x04\n      dup1\n      calldatasize\n      sub\n      dup2\n      add\n      swap1\n      tag_6\n      swap2\n      swap1\n      tag_7\n      jump\t// in\n    tag_6:\n      tag_8\n      jump\t// in\n    tag_5:\n      mload(0x40)\n      tag_9\n      swap2\n      swap1\n      tag_10\n      jump\t// in\n    tag_9:\n      mload(0x40)\n      dup1\n      swap2\n      sub\n      swap1\n      return\n        /* \"contracts/session32.sol\":393:647  function addParticipant(uint key,string memory _name,uint _age,uint _phoneno, string memory _email, string memory _courseenrolled, bool _feepaid) public... */\n    tag_4:\n      tag_11\n      0x04\n      dup1\n      calldatasize\n      sub\n      dup2\n      add\n      swap1\n      tag_12\n      swap2\n      swap1\n      tag_13\n      jump\t// in\n    tag_12:\n      tag_14\n      jump\t// in\n    tag_11:\n      stop\n        /* \"contracts/session32.sol\":651:770  function getParticipant(uint key) public view returns (Participant memory)... */\n    tag_8:\n        /* \"contracts/session32.sol\":706:724  Participant memory */\n      tag_15\n      tag_16\n      jump\t// in\n    tag_15:\n        /* \"contracts/session32.sol\":745:758  SParticipants */\n      0x00\n        /* \"contracts/session32.sol\":745:763  SParticipants[key] */\n      dup1\n        /* \"contracts/session32.sol\":759:762  key */\n      dup4\n        /* \"contracts/session32.sol\":745:763  SParticipants[key] */\n      dup2\n      mstore\n      0x20\n      add\n      swap1\n      dup2\n      mstore\n      0x20\n      add\n      0x00\n      keccak256\n        /* \"contracts/session32.sol\":738:764  return(SParticipants[key]) */\n      mload(0x40)\n      dup1\n      0xc0\n      add\n      0x40\n      mstore\n      swap1\n      dup2\n      0x00\n      dup3\n      add\n      dup1\n      sload\n      tag_18\n      swap1\n      tag_19\n      jump\t// in\n    tag_18:\n      dup1\n      0x1f\n      add\n      0x20\n      dup1\n      swap2\n      div\n      mul\n      0x20\n      add\n      mload(0x40)\n      swap1\n      dup2\n      add\n      0x40\n      mstore\n      dup1\n      swap3\n      swap2\n      swap1\n      dup2\n      dup2\n      mstore\n      0x20\n      add\n      dup3\n      dup1\n      sload\n      tag_20\n      swap1\n      tag_19\n      jump\t// in\n    tag_20:\n      dup1\n      iszero\n      tag_21\n      jumpi\n      dup1\n      0x1f\n      lt\n      tag_22\n      jumpi\n      0x0100\n      dup1\n      dup4\n      sload\n      div\n      mul\n      dup4\n      mstore\n      swap2\n      0x20\n      add\n      swap2\n      jump(tag_21)\n    tag_22:\n      dup3\n      add\n      swap2\n      swap1\n      0x00\n      mstore\n      keccak256(0x00, 0x20)\n      swap1\n    tag_23:\n      dup2\n      sload\n      dup2\n      mstore\n      swap1\n      0x01\n      add\n      swap1\n      0x20\n      add\n      dup1\n      dup4\n      gt\n      tag_23\n      jumpi\n      dup3\n      swap1\n      sub\n      0x1f\n      and\n      dup3\n      add\n      swap2\n    tag_21:\n      pop\n      pop\n      pop\n      pop\n      pop\n      dup2\n      mstore\n      0x20\n      add\n      0x01\n      dup3\n      add\n      sload\n      dup2\n      mstore\n      0x20\n      add\n      0x02\n      dup3\n      add\n      sload\n      dup2\n      mstore\n      0x20\n      add\n      0x03\n      dup3\n      add\n      dup1\n      sload\n      tag_24\n      swap1\n      tag_19\n      jump\t// in\n    tag_24:\n      dup1\n      0x1f\n      add\n      0x20\n      dup1\n      swap2\n      div\n      mul\n      0x20\n      add\n      mload(0x40)\n      swap1\n      dup2\n      add\n      0x40\n      mstore\n      dup1\n      swap3\n      swap2\n      swap1\n      dup2\n      dup2\n      mstore\n      0x20\n      add\n      dup3\n      dup1\n      sload\n      tag_25\n      swap1\n      tag_19\n      jump\t// in\n    tag_25:\n      dup1\n      iszero\n      tag_26\n      jumpi\n      dup1\n      0x1f\n      lt\n      tag_27\n      jumpi\n      0x0100\n      dup1\n      dup4\n      sload\n      div\n      mul\n      dup4\n      mstore\n      swap2\n      0x20\n      add\n      swap2\n      jump(tag_26)\n    tag_27:\n      dup3\n      add\n      swap2\n      swap1\n      0x00\n      mstore\n      keccak256(0x00, 0x20)\n      swap1\n    tag_28:\n      dup2\n      sload\n      dup2\n      mstore\n      swap1\n      0x01\n      add\n      swap1\n      0x20\n      add\n      dup1\n      dup4\n      gt\n      tag_28\n      jumpi\n      dup3\n      swap1\n      sub\n      0x1f\n      and\n      dup3\n      add\n      swap2\n    tag_26:\n      pop\n      pop\n      pop\n      pop\n      pop\n      dup2\n      mstore\n      0x20\n      add\n      0x04\n      dup3\n      add\n      dup1\n      sload\n      tag_29\n      swap1\n      tag_19\n      jump\t// in\n    tag_29:\n      dup1\n      0x1f\n      add\n      0x20\n      dup1\n      swap2\n      div\n      mul\n      0x20\n      add\n      mload(0x40)\n      swap1\n      dup2\n      add\n      0x40\n      mstore\n      dup1\n      swap3\n      swap2\n      swap1\n      dup2\n      dup2\n      mstore\n      0x20\n      add\n      dup3\n      dup1\n      sload\n      tag_30\n      swap1\n      tag_19\n      jump\t// in\n    tag_30:\n      dup1\n      iszero\n      tag_31\n      jumpi\n      dup1\n      0x1f\n      lt\n      tag_32\n      jumpi\n      0x0100\n      dup1\n      dup4\n      sload\n      div\n      mul\n      dup4\n      mstore\n      swap2\n      0x20\n      add\n      swap2\n      jump(tag_31)\n    tag_32:\n      dup3\n      add\n      swap2\n      swap1\n      0x00\n      mstore\n      keccak256(0x00, 0x20)\n      swap1\n    tag_33:\n      dup2\n      sload\n      dup2\n      mstore\n      swap1\n      0x01\n      add\n      swap1\n      0x20\n      add\n      dup1\n      dup4\n      gt\n      tag_33\n      jumpi\n      dup3\n      swap1\n      sub\n      0x1f\n      and\n      dup3\n      add\n      swap2\n    tag_31:\n      pop\n      pop\n      pop\n      pop\n      pop\n      dup2\n      mstore\n      0x20\n      add\n      0x05\n      dup3\n      add\n      0x00\n      swap1\n      sload\n      swap1\n      0x0100\n      exp\n      swap1\n      div\n      0xff\n      and\n      iszero\n      iszero\n      iszero\n      iszero\n      dup2\n      mstore\n      pop\n      pop\n      swap1\n      pop\n        /* \"contracts/session32.sol\":651:770  function getParticipant(uint key) public view returns (Participant memory)... */\n      swap2\n      swap1\n      pop\n      jump\t// out\n        /* \"contracts/session32.sol\":393:647  function addParticipant(uint key,string memory _name,uint _age,uint _phoneno, string memory _email, string memory _courseenrolled, bool _feepaid) public... */\n    tag_14:\n        /* \"contracts/session32.sol\":577:641  Participant(_name,_age,_phoneno,_email,_courseenrolled,_feepaid) */\n      mload(0x40)\n      dup1\n      0xc0\n      add\n      0x40\n      mstore\n      dup1\n        /* \"contracts/session32.sol\":589:594  _name */\n      dup8\n        /* \"contracts/session32.sol\":577:641  Participant(_name,_age,_phoneno,_email,_courseenrolled,_feepaid) */\n      dup2\n      mstore\n      0x20\n      add\n        /* \"contracts/session32.sol\":595:599  _age */\n      dup7\n        /* \"contracts/session32.sol\":577:641  Participant(_name,_age,_phoneno,_email,_courseenrolled,_feepaid) */\n      dup2\n      mstore\n      0x20\n      add\n        /* \"contracts/session32.sol\":600:608  _phoneno */\n      dup6\n        /* \"contracts/session32.sol\":577:641  Participant(_name,_age,_phoneno,_email,_courseenrolled,_feepaid) */\n      dup2\n      mstore\n      0x20\n      add\n        /* \"contracts/session32.sol\":609:615  _email */\n      dup5\n        /* \"contracts/session32.sol\":577:641  Participant(_name,_age,_phoneno,_email,_courseenrolled,_feepaid) */\n      dup2\n      mstore\n      0x20\n      add\n        /* \"contracts/session32.sol\":616:631  _courseenrolled */\n      dup4\n        /* \"contracts/session32.sol\":577:641  Participant(_name,_age,_phoneno,_email,_courseenrolled,_feepaid) */\n      dup2\n      mstore\n      0x20\n      add\n        /* \"contracts/session32.sol\":632:640  _feepaid */\n      dup3\n        /* \"contracts/session32.sol\":577:641  Participant(_name,_age,_phoneno,_email,_courseenrolled,_feepaid) */\n      iszero\n      iszero\n      dup2\n      mstore\n      pop\n        /* \"contracts/session32.sol\":558:571  SParticipants */\n      0x00\n        /* \"contracts/session32.sol\":558:576  SParticipants[key] */\n      dup1\n        /* \"contracts/session32.sol\":572:575  key */\n      dup10\n        /* \"contracts/session32.sol\":558:576  SParticipants[key] */\n      dup2\n      mstore\n      0x20\n      add\n      swap1\n      dup2\n      mstore\n      0x20\n      add\n      0x00\n      keccak256\n        /* \"contracts/session32.sol\":558:641  SParticipants[key]=Participant(_name,_age,_phoneno,_email,_courseenrolled,_feepaid) */\n      0x00\n      dup3\n      add\n      mload\n      dup2\n      0x00\n      add\n      swap1\n      dup2\n      tag_35\n      swap2\n      swap1\n      tag_36\n      jump\t// in\n    tag_35:\n      pop\n      0x20\n      dup3\n      add\n      mload\n      dup2\n      0x01\n      add\n      sstore\n      0x40\n      dup3\n      add\n      mload\n      dup2\n      0x02\n      add\n      sstore\n      0x60\n      dup3\n      add\n      mload\n      dup2\n      0x03\n      add\n      swap1\n      dup2\n      tag_37\n      swap2\n      swap1\n      tag_36\n      jump\t// in\n    tag_37:\n      pop\n      0x80\n      dup3\n      add\n      mload\n      dup2\n      0x04\n      add\n      swap1\n      dup2\n      tag_38\n      swap2\n      swap1\n      tag_36\n      jump\t// in\n    tag_38:\n      pop\n      0xa0\n      dup3\n      add\n      mload\n      dup2\n      0x05\n      add\n      exp(0x0100, 0x00)\n      dup2\n      sload\n      dup2\n      0xff\n      mul\n      not\n      and\n      swap1\n      dup4\n      iszero\n      iszero\n      mul\n      or\n      swap1\n      sstore\n      pop\n      swap1\n      pop\n      pop\n        /* \"contracts/session32.sol\":393:647  function addParticipant(uint key,string memory _name,uint _age,uint _phoneno, string memory _email, string memory _courseenrolled, bool _feepaid) public... */\n      pop\n      pop\n      pop\n      pop\n      pop\n      pop\n      pop\n      jump\t// out\n    tag_16:\n      mload(0x40)\n      dup1\n      0xc0\n      add\n      0x40\n      mstore\n      dup1\n      0x60\n      dup2\n      mstore\n      0x20\n      add\n      0x00\n      dup2\n      mstore\n      0x20\n      add\n      0x00\n      dup2\n      mstore\n      0x20\n      add\n      0x60\n      dup2\n      mstore\n      0x20\n      add\n      0x60\n      dup2\n      mstore\n      0x20\n      add\n      iszero(iszero(0x00))\n      dup2\n      mstore\n      pop\n      swap1\n      jump\t// out\n        /* \"#utility.yul\":7:82   */\n    tag_39:\n        /* \"#utility.yul\":40:46   */\n      0x00\n        /* \"#utility.yul\":73:75   */\n      0x40\n        /* \"#utility.yul\":67:76   */\n      mload\n        /* \"#utility.yul\":57:76   */\n      swap1\n      pop\n        /* \"#utility.yul\":7:82   */\n      swap1\n      jump\t// out\n        /* \"#utility.yul\":88:205   */\n    tag_40:\n        /* \"#utility.yul\":197:198   */\n      0x00\n        /* \"#utility.yul\":194:195   */\n      dup1\n        /* \"#utility.yul\":187:199   */\n      revert\n        /* \"#utility.yul\":211:328   */\n    tag_41:\n        /* \"#utility.yul\":320:321   */\n      0x00\n        /* \"#utility.yul\":317:318   */\n      dup1\n        /* \"#utility.yul\":310:322   */\n      revert\n        /* \"#utility.yul\":334:411   */\n    tag_42:\n        /* \"#utility.yul\":371:378   */\n      0x00\n        /* \"#utility.yul\":400:405   */\n      dup2\n        /* \"#utility.yul\":389:405   */\n      swap1\n      pop\n        /* \"#utility.yul\":334:411   */\n      swap2\n      swap1\n      pop\n      jump\t// out\n        /* \"#utility.yul\":417:539   */\n    tag_43:\n        /* \"#utility.yul\":490:514   */\n      tag_87\n        /* \"#utility.yul\":508:513   */\n      dup2\n        /* \"#utility.yul\":490:514   */\n      tag_42\n      jump\t// in\n    tag_87:\n        /* \"#utility.yul\":483:488   */\n      dup2\n        /* \"#utility.yul\":480:515   */\n      eq\n        /* \"#utility.yul\":470:533   */\n      tag_88\n      jumpi\n        /* \"#utility.yul\":529:530   */\n      0x00\n        /* \"#utility.yul\":526:527   */\n      dup1\n        /* \"#utility.yul\":519:531   */\n      revert\n        /* \"#utility.yul\":470:533   */\n    tag_88:\n        /* \"#utility.yul\":417:539   */\n      pop\n      jump\t// out\n        /* \"#utility.yul\":545:684   */\n    tag_44:\n        /* \"#utility.yul\":591:596   */\n      0x00\n        /* \"#utility.yul\":629:635   */\n      dup2\n        /* \"#utility.yul\":616:636   */\n      calldataload\n        /* \"#utility.yul\":607:636   */\n      swap1\n      pop\n        /* \"#utility.yul\":645:678   */\n      tag_90\n        /* \"#utility.yul\":672:677   */\n      dup2\n        /* \"#utility.yul\":645:678   */\n      tag_43\n      jump\t// in\n    tag_90:\n        /* \"#utility.yul\":545:684   */\n      swap3\n      swap2\n      pop\n      pop\n      jump\t// out\n        /* \"#utility.yul\":690:1019   */\n    tag_7:\n        /* \"#utility.yul\":749:755   */\n      0x00\n        /* \"#utility.yul\":798:800   */\n      0x20\n        /* \"#utility.yul\":786:795   */\n      dup3\n        /* \"#utility.yul\":777:784   */\n      dup5\n        /* \"#utility.yul\":773:796   */\n      sub\n        /* \"#utility.yul\":769:801   */\n      slt\n        /* \"#utility.yul\":766:885   */\n      iszero\n      tag_92\n      jumpi\n        /* \"#utility.yul\":804:883   */\n      tag_93\n      tag_40\n      jump\t// in\n    tag_93:\n        /* \"#utility.yul\":766:885   */\n    tag_92:\n        /* \"#utility.yul\":924:925   */\n      0x00\n        /* \"#utility.yul\":949:1002   */\n      tag_94\n        /* \"#utility.yul\":994:1001   */\n      dup5\n        /* \"#utility.yul\":985:991   */\n      dup3\n        /* \"#utility.yul\":974:983   */\n      dup6\n        /* \"#utility.yul\":970:992   */\n      add\n        /* \"#utility.yul\":949:1002   */\n      tag_44\n      jump\t// in\n    tag_94:\n        /* \"#utility.yul\":939:1002   */\n      swap2\n      pop\n        /* \"#utility.yul\":895:1012   */\n      pop\n        /* \"#utility.yul\":690:1019   */\n      swap3\n      swap2\n      pop\n      pop\n      jump\t// out\n        /* \"#utility.yul\":1025:1124   */\n    tag_45:\n        /* \"#utility.yul\":1077:1083   */\n      0x00\n        /* \"#utility.yul\":1111:1116   */\n      dup2\n        /* \"#utility.yul\":1105:1117   */\n      mload\n        /* \"#utility.yul\":1095:1117   */\n      swap1\n      pop\n        /* \"#utility.yul\":1025:1124   */\n      swap2\n      swap1\n      pop\n      jump\t// out\n        /* \"#utility.yul\":1130:1289   */\n    tag_46:\n        /* \"#utility.yul\":1204:1215   */\n      0x00\n        /* \"#utility.yul\":1238:1244   */\n      dup3\n        /* \"#utility.yul\":1233:1236   */\n      dup3\n        /* \"#utility.yul\":1226:1245   */\n      mstore\n        /* \"#utility.yul\":1278:1282   */\n      0x20\n        /* \"#utility.yul\":1273:1276   */\n      dup3\n        /* \"#utility.yul\":1269:1283   */\n      add\n        /* \"#utility.yul\":1254:1283   */\n      swap1\n      pop\n        /* \"#utility.yul\":1130:1289   */\n      swap3\n      swap2\n      pop\n      pop\n      jump\t// out\n        /* \"#utility.yul\":1295:1541   */\n    tag_47:\n        /* \"#utility.yul\":1376:1377   */\n      0x00\n        /* \"#utility.yul\":1386:1499   */\n    tag_98:\n        /* \"#utility.yul\":1400:1406   */\n      dup4\n        /* \"#utility.yul\":1397:1398   */\n      dup2\n        /* \"#utility.yul\":1394:1407   */\n      lt\n        /* \"#utility.yul\":1386:1499   */\n      iszero\n      tag_100\n      jumpi\n        /* \"#utility.yul\":1485:1486   */\n      dup1\n        /* \"#utility.yul\":1480:1483   */\n      dup3\n        /* \"#utility.yul\":1476:1487   */\n      add\n        /* \"#utility.yul\":1470:1488   */\n      mload\n        /* \"#utility.yul\":1466:1467   */\n      dup2\n        /* \"#utility.yul\":1461:1464   */\n      dup5\n        /* \"#utility.yul\":1457:1468   */\n      add\n        /* \"#utility.yul\":1450:1489   */\n      mstore\n        /* \"#utility.yul\":1422:1424   */\n      0x20\n        /* \"#utility.yul\":1419:1420   */\n      dup2\n        /* \"#utility.yul\":1415:1425   */\n      add\n        /* \"#utility.yul\":1410:1425   */\n      swap1\n      pop\n        /* \"#utility.yul\":1386:1499   */\n      jump(tag_98)\n    tag_100:\n        /* \"#utility.yul\":1533:1534   */\n      0x00\n        /* \"#utility.yul\":1524:1530   */\n      dup5\n        /* \"#utility.yul\":1519:1522   */\n      dup5\n        /* \"#utility.yul\":1515:1531   */\n      add\n        /* \"#utility.yul\":1508:1535   */\n      mstore\n        /* \"#utility.yul\":1357:1541   */\n      pop\n        /* \"#utility.yul\":1295:1541   */\n      pop\n      pop\n      pop\n      jump\t// out\n        /* \"#utility.yul\":1547:1649   */\n    tag_48:\n        /* \"#utility.yul\":1588:1594   */\n      0x00\n        /* \"#utility.yul\":1639:1641   */\n      0x1f\n        /* \"#utility.yul\":1635:1642   */\n      not\n        /* \"#utility.yul\":1630:1632   */\n      0x1f\n        /* \"#utility.yul\":1623:1628   */\n      dup4\n        /* \"#utility.yul\":1619:1633   */\n      add\n        /* \"#utility.yul\":1615:1643   */\n      and\n        /* \"#utility.yul\":1605:1643   */\n      swap1\n      pop\n        /* \"#utility.yul\":1547:1649   */\n      swap2\n      swap1\n      pop\n      jump\t// out\n        /* \"#utility.yul\":1655:2012   */\n    tag_49:\n        /* \"#utility.yul\":1733:1736   */\n      0x00\n        /* \"#utility.yul\":1761:1800   */\n      tag_103\n        /* \"#utility.yul\":1794:1799   */\n      dup3\n        /* \"#utility.yul\":1761:1800   */\n      tag_45\n      jump\t// in\n    tag_103:\n        /* \"#utility.yul\":1816:1877   */\n      tag_104\n        /* \"#utility.yul\":1870:1876   */\n      dup2\n        /* \"#utility.yul\":1865:1868   */\n      dup6\n        /* \"#utility.yul\":1816:1877   */\n      tag_46\n      jump\t// in\n    tag_104:\n        /* \"#utility.yul\":1809:1877   */\n      swap4\n      pop\n        /* \"#utility.yul\":1886:1951   */\n      tag_105\n        /* \"#utility.yul\":1944:1950   */\n      dup2\n        /* \"#utility.yul\":1939:1942   */\n      dup6\n        /* \"#utility.yul\":1932:1936   */\n      0x20\n        /* \"#utility.yul\":1925:1930   */\n      dup7\n        /* \"#utility.yul\":1921:1937   */\n      add\n        /* \"#utility.yul\":1886:1951   */\n      tag_47\n      jump\t// in\n    tag_105:\n        /* \"#utility.yul\":1976:2005   */\n      tag_106\n        /* \"#utility.yul\":1998:2004   */\n      dup2\n        /* \"#utility.yul\":1976:2005   */\n      tag_48\n      jump\t// in\n    tag_106:\n        /* \"#utility.yul\":1971:1974   */\n      dup5\n        /* \"#utility.yul\":1967:2006   */\n      add\n        /* \"#utility.yul\":1960:2006   */\n      swap2\n      pop\n        /* \"#utility.yul\":1737:2012   */\n      pop\n        /* \"#utility.yul\":1655:2012   */\n      swap3\n      swap2\n      pop\n      pop\n      jump\t// out\n        /* \"#utility.yul\":2018:2126   */\n    tag_50:\n        /* \"#utility.yul\":2095:2119   */\n      tag_108\n        /* \"#utility.yul\":2113:2118   */\n      dup2\n        /* \"#utility.yul\":2095:2119   */\n      tag_42\n      jump\t// in\n    tag_108:\n        /* \"#utility.yul\":2090:2093   */\n      dup3\n        /* \"#utility.yul\":2083:2120   */\n      mstore\n        /* \"#utility.yul\":2018:2126   */\n      pop\n      pop\n      jump\t// out\n        /* \"#utility.yul\":2132:2222   */\n    tag_51:\n        /* \"#utility.yul\":2166:2173   */\n      0x00\n        /* \"#utility.yul\":2209:2214   */\n      dup2\n        /* \"#utility.yul\":2202:2215   */\n      iszero\n        /* \"#utility.yul\":2195:2216   */\n      iszero\n        /* \"#utility.yul\":2184:2216   */\n      swap1\n      pop\n        /* \"#utility.yul\":2132:2222   */\n      swap2\n      swap1\n      pop\n      jump\t// out\n        /* \"#utility.yul\":2228:2327   */\n    tag_52:\n        /* \"#utility.yul\":2299:2320   */\n      tag_111\n        /* \"#utility.yul\":2314:2319   */\n      dup2\n        /* \"#utility.yul\":2299:2320   */\n      tag_51\n      jump\t// in\n    tag_111:\n        /* \"#utility.yul\":2294:2297   */\n      dup3\n        /* \"#utility.yul\":2287:2321   */\n      mstore\n        /* \"#utility.yul\":2228:2327   */\n      pop\n      pop\n      jump\t// out\n        /* \"#utility.yul\":2411:3873   */\n    tag_53:\n        /* \"#utility.yul\":2534:2537   */\n      0x00\n        /* \"#utility.yul\":2570:2574   */\n      0xc0\n        /* \"#utility.yul\":2565:2568   */\n      dup4\n        /* \"#utility.yul\":2561:2575   */\n      add\n        /* \"#utility.yul\":2658:2662   */\n      0x00\n        /* \"#utility.yul\":2651:2656   */\n      dup4\n        /* \"#utility.yul\":2647:2663   */\n      add\n        /* \"#utility.yul\":2641:2664   */\n      mload\n        /* \"#utility.yul\":2711:2714   */\n      dup5\n        /* \"#utility.yul\":2705:2709   */\n      dup3\n        /* \"#utility.yul\":2701:2715   */\n      sub\n        /* \"#utility.yul\":2694:2698   */\n      0x00\n        /* \"#utility.yul\":2689:2692   */\n      dup7\n        /* \"#utility.yul\":2685:2699   */\n      add\n        /* \"#utility.yul\":2678:2716   */\n      mstore\n        /* \"#utility.yul\":2737:2810   */\n      tag_113\n        /* \"#utility.yul\":2805:2809   */\n      dup3\n        /* \"#utility.yul\":2791:2803   */\n      dup3\n        /* \"#utility.yul\":2737:2810   */\n      tag_49\n      jump\t// in\n    tag_113:\n        /* \"#utility.yul\":2729:2810   */\n      swap2\n      pop\n        /* \"#utility.yul\":2585:2821   */\n      pop\n        /* \"#utility.yul\":2903:2907   */\n      0x20\n        /* \"#utility.yul\":2896:2901   */\n      dup4\n        /* \"#utility.yul\":2892:2908   */\n      add\n        /* \"#utility.yul\":2886:2909   */\n      mload\n        /* \"#utility.yul\":2922:2985   */\n      tag_114\n        /* \"#utility.yul\":2979:2983   */\n      0x20\n        /* \"#utility.yul\":2974:2977   */\n      dup7\n        /* \"#utility.yul\":2970:2984   */\n      add\n        /* \"#utility.yul\":2956:2968   */\n      dup3\n        /* \"#utility.yul\":2922:2985   */\n      tag_50\n      jump\t// in\n    tag_114:\n        /* \"#utility.yul\":2831:2995   */\n      pop\n        /* \"#utility.yul\":3081:3085   */\n      0x40\n        /* \"#utility.yul\":3074:3079   */\n      dup4\n        /* \"#utility.yul\":3070:3086   */\n      add\n        /* \"#utility.yul\":3064:3087   */\n      mload\n        /* \"#utility.yul\":3100:3163   */\n      tag_115\n        /* \"#utility.yul\":3157:3161   */\n      0x40\n        /* \"#utility.yul\":3152:3155   */\n      dup7\n        /* \"#utility.yul\":3148:3162   */\n      add\n        /* \"#utility.yul\":3134:3146   */\n      dup3\n        /* \"#utility.yul\":3100:3163   */\n      tag_50\n      jump\t// in\n    tag_115:\n        /* \"#utility.yul\":3005:3173   */\n      pop\n        /* \"#utility.yul\":3257:3261   */\n      0x60\n        /* \"#utility.yul\":3250:3255   */\n      dup4\n        /* \"#utility.yul\":3246:3262   */\n      add\n        /* \"#utility.yul\":3240:3263   */\n      mload\n        /* \"#utility.yul\":3310:3313   */\n      dup5\n        /* \"#utility.yul\":3304:3308   */\n      dup3\n        /* \"#utility.yul\":3300:3314   */\n      sub\n        /* \"#utility.yul\":3293:3297   */\n      0x60\n        /* \"#utility.yul\":3288:3291   */\n      dup7\n        /* \"#utility.yul\":3284:3298   */\n      add\n        /* \"#utility.yul\":3277:3315   */\n      mstore\n        /* \"#utility.yul\":3336:3409   */\n      tag_116\n        /* \"#utility.yul\":3404:3408   */\n      dup3\n        /* \"#utility.yul\":3390:3402   */\n      dup3\n        /* \"#utility.yul\":3336:3409   */\n      tag_49\n      jump\t// in\n    tag_116:\n        /* \"#utility.yul\":3328:3409   */\n      swap2\n      pop\n        /* \"#utility.yul\":3183:3420   */\n      pop\n        /* \"#utility.yul\":3512:3516   */\n      0x80\n        /* \"#utility.yul\":3505:3510   */\n      dup4\n        /* \"#utility.yul\":3501:3517   */\n      add\n        /* \"#utility.yul\":3495:3518   */\n      mload\n        /* \"#utility.yul\":3565:3568   */\n      dup5\n        /* \"#utility.yul\":3559:3563   */\n      dup3\n        /* \"#utility.yul\":3555:3569   */\n      sub\n        /* \"#utility.yul\":3548:3552   */\n      0x80\n        /* \"#utility.yul\":3543:3546   */\n      dup7\n        /* \"#utility.yul\":3539:3553   */\n      add\n        /* \"#utility.yul\":3532:3570   */\n      mstore\n        /* \"#utility.yul\":3591:3664   */\n      tag_117\n        /* \"#utility.yul\":3659:3663   */\n      dup3\n        /* \"#utility.yul\":3645:3657   */\n      dup3\n        /* \"#utility.yul\":3591:3664   */\n      tag_49\n      jump\t// in\n    tag_117:\n        /* \"#utility.yul\":3583:3664   */\n      swap2\n      pop\n        /* \"#utility.yul\":3430:3675   */\n      pop\n        /* \"#utility.yul\":3760:3764   */\n      0xa0\n        /* \"#utility.yul\":3753:3758   */\n      dup4\n        /* \"#utility.yul\":3749:3765   */\n      add\n        /* \"#utility.yul\":3743:3766   */\n      mload\n        /* \"#utility.yul\":3779:3836   */\n      tag_118\n        /* \"#utility.yul\":3830:3834   */\n      0xa0\n        /* \"#utility.yul\":3825:3828   */\n      dup7\n        /* \"#utility.yul\":3821:3835   */\n      add\n        /* \"#utility.yul\":3807:3819   */\n      dup3\n        /* \"#utility.yul\":3779:3836   */\n      tag_52\n      jump\t// in\n    tag_118:\n        /* \"#utility.yul\":3685:3846   */\n      pop\n        /* \"#utility.yul\":3863:3867   */\n      dup1\n        /* \"#utility.yul\":3856:3867   */\n      swap2\n      pop\n        /* \"#utility.yul\":2539:3873   */\n      pop\n        /* \"#utility.yul\":2411:3873   */\n      swap3\n      swap2\n      pop\n      pop\n      jump\t// out\n        /* \"#utility.yul\":3879:4260   */\n    tag_10:\n        /* \"#utility.yul\":4026:4030   */\n      0x00\n        /* \"#utility.yul\":4064:4066   */\n      0x20\n        /* \"#utility.yul\":4053:4062   */\n      dup3\n        /* \"#utility.yul\":4049:4067   */\n      add\n        /* \"#utility.yul\":4041:4067   */\n      swap1\n      pop\n        /* \"#utility.yul\":4113:4122   */\n      dup2\n        /* \"#utility.yul\":4107:4111   */\n      dup2\n        /* \"#utility.yul\":4103:4123   */\n      sub\n        /* \"#utility.yul\":4099:4100   */\n      0x00\n        /* \"#utility.yul\":4088:4097   */\n      dup4\n        /* \"#utility.yul\":4084:4101   */\n      add\n        /* \"#utility.yul\":4077:4124   */\n      mstore\n        /* \"#utility.yul\":4141:4253   */\n      tag_120\n        /* \"#utility.yul\":4248:4252   */\n      dup2\n        /* \"#utility.yul\":4239:4245   */\n      dup5\n        /* \"#utility.yul\":4141:4253   */\n      tag_53\n      jump\t// in\n    tag_120:\n        /* \"#utility.yul\":4133:4253   */\n      swap1\n      pop\n        /* \"#utility.yul\":3879:4260   */\n      swap3\n      swap2\n      pop\n      pop\n      jump\t// out\n        /* \"#utility.yul\":4266:4383   */\n    tag_54:\n        /* \"#utility.yul\":4375:4376   */\n      0x00\n        /* \"#utility.yul\":4372:4373   */\n      dup1\n        /* \"#utility.yul\":4365:4377   */\n      revert\n        /* \"#utility.yul\":4389:4506   */\n    tag_55:\n        /* \"#utility.yul\":4498:4499   */\n      0x00\n        /* \"#utility.yul\":4495:4496   */\n      dup1\n        /* \"#utility.yul\":4488:4500   */\n      revert\n        /* \"#utility.yul\":4512:4692   */\n    tag_56:\n        /* \"#utility.yul\":4560:4637   */\n      0x4e487b7100000000000000000000000000000000000000000000000000000000\n        /* \"#utility.yul\":4557:4558   */\n      0x00\n        /* \"#utility.yul\":4550:4638   */\n      mstore\n        /* \"#utility.yul\":4657:4661   */\n      0x41\n        /* \"#utility.yul\":4654:4655   */\n      0x04\n        /* \"#utility.yul\":4647:4662   */\n      mstore\n        /* \"#utility.yul\":4681:4685   */\n      0x24\n        /* \"#utility.yul\":4678:4679   */\n      0x00\n        /* \"#utility.yul\":4671:4686   */\n      revert\n        /* \"#utility.yul\":4698:4979   */\n    tag_57:\n        /* \"#utility.yul\":4781:4808   */\n      tag_125\n        /* \"#utility.yul\":4803:4807   */\n      dup3\n        /* \"#utility.yul\":4781:4808   */\n      tag_48\n      jump\t// in\n    tag_125:\n        /* \"#utility.yul\":4773:4779   */\n      dup2\n        /* \"#utility.yul\":4769:4809   */\n      add\n        /* \"#utility.yul\":4911:4917   */\n      dup2\n        /* \"#utility.yul\":4899:4909   */\n      dup2\n        /* \"#utility.yul\":4896:4918   */\n      lt\n        /* \"#utility.yul\":4875:4893   */\n      0xffffffffffffffff\n        /* \"#utility.yul\":4863:4873   */\n      dup3\n        /* \"#utility.yul\":4860:4894   */\n      gt\n        /* \"#utility.yul\":4857:4919   */\n      or\n        /* \"#utility.yul\":4854:4942   */\n      iszero\n      tag_126\n      jumpi\n        /* \"#utility.yul\":4922:4940   */\n      tag_127\n      tag_56\n      jump\t// in\n    tag_127:\n        /* \"#utility.yul\":4854:4942   */\n    tag_126:\n        /* \"#utility.yul\":4962:4972   */\n      dup1\n        /* \"#utility.yul\":4958:4960   */\n      0x40\n        /* \"#utility.yul\":4951:4973   */\n      mstore\n        /* \"#utility.yul\":4741:4979   */\n      pop\n        /* \"#utility.yul\":4698:4979   */\n      pop\n      pop\n      jump\t// out\n        /* \"#utility.yul\":4985:5114   */\n    tag_58:\n        /* \"#utility.yul\":5019:5025   */\n      0x00\n        /* \"#utility.yul\":5046:5066   */\n      tag_129\n      tag_39\n      jump\t// in\n    tag_129:\n        /* \"#utility.yul\":5036:5066   */\n      swap1\n      pop\n        /* \"#utility.yul\":5075:5108   */\n      tag_130\n        /* \"#utility.yul\":5103:5107   */\n      dup3\n        /* \"#utility.yul\":5095:5101   */\n      dup3\n        /* \"#utility.yul\":5075:5108   */\n      tag_57\n      jump\t// in\n    tag_130:\n        /* \"#utility.yul\":4985:5114   */\n      swap2\n      swap1\n      pop\n      jump\t// out\n        /* \"#utility.yul\":5120:5428   */\n    tag_59:\n        /* \"#utility.yul\":5182:5186   */\n      0x00\n        /* \"#utility.yul\":5272:5290   */\n      0xffffffffffffffff\n        /* \"#utility.yul\":5264:5270   */\n      dup3\n        /* \"#utility.yul\":5261:5291   */\n      gt\n        /* \"#utility.yul\":5258:5314   */\n      iszero\n      tag_132\n      jumpi\n        /* \"#utility.yul\":5294:5312   */\n      tag_133\n      tag_56\n      jump\t// in\n    tag_133:\n        /* \"#utility.yul\":5258:5314   */\n    tag_132:\n        /* \"#utility.yul\":5332:5361   */\n      tag_134\n        /* \"#utility.yul\":5354:5360   */\n      dup3\n        /* \"#utility.yul\":5332:5361   */\n      tag_48\n      jump\t// in\n    tag_134:\n        /* \"#utility.yul\":5324:5361   */\n      swap1\n      pop\n        /* \"#utility.yul\":5416:5420   */\n      0x20\n        /* \"#utility.yul\":5410:5414   */\n      dup2\n        /* \"#utility.yul\":5406:5421   */\n      add\n        /* \"#utility.yul\":5398:5421   */\n      swap1\n      pop\n        /* \"#utility.yul\":5120:5428   */\n      swap2\n      swap1\n      pop\n      jump\t// out\n        /* \"#utility.yul\":5434:5580   */\n    tag_60:\n        /* \"#utility.yul\":5531:5537   */\n      dup3\n        /* \"#utility.yul\":5526:5529   */\n      dup2\n        /* \"#utility.yul\":5521:5524   */\n      dup4\n        /* \"#utility.yul\":5508:5538   */\n      calldatacopy\n        /* \"#utility.yul\":5572:5573   */\n      0x00\n        /* \"#utility.yul\":5563:5569   */\n      dup4\n        /* \"#utility.yul\":5558:5561   */\n      dup4\n        /* \"#utility.yul\":5554:5570   */\n      add\n        /* \"#utility.yul\":5547:5574   */\n      mstore\n        /* \"#utility.yul\":5434:5580   */\n      pop\n      pop\n      pop\n      jump\t// out\n        /* \"#utility.yul\":5586:6011   */\n    tag_61:\n        /* \"#utility.yul\":5664:5669   */\n      0x00\n        /* \"#utility.yul\":5689:5755   */\n      tag_137\n        /* \"#utility.yul\":5705:5754   */\n      tag_138\n        /* \"#utility.yul\":5747:5753   */\n      dup5\n        /* \"#utility.yul\":5705:5754   */\n      tag_59\n      jump\t// in\n    tag_138:\n        /* \"#utility.yul\":5689:5755   */\n      tag_58\n      jump\t// in\n    tag_137:\n        /* \"#utility.yul\":5680:5755   */\n      swap1\n      pop\n        /* \"#utility.yul\":5778:5784   */\n      dup3\n        /* \"#utility.yul\":5771:5776   */\n      dup2\n        /* \"#utility.yul\":5764:5785   */\n      mstore\n        /* \"#utility.yul\":5816:5820   */\n      0x20\n        /* \"#utility.yul\":5809:5814   */\n      dup2\n        /* \"#utility.yul\":5805:5821   */\n      add\n        /* \"#utility.yul\":5854:5857   */\n      dup5\n        /* \"#utility.yul\":5845:5851   */\n      dup5\n        /* \"#utility.yul\":5840:5843   */\n      dup5\n        /* \"#utility.yul\":5836:5852   */\n      add\n        /* \"#utility.yul\":5833:5858   */\n      gt\n        /* \"#utility.yul\":5830:5942   */\n      iszero\n      tag_139\n      jumpi\n        /* \"#utility.yul\":5861:5940   */\n      tag_140\n      tag_55\n      jump\t// in\n    tag_140:\n        /* \"#utility.yul\":5830:5942   */\n    tag_139:\n        /* \"#utility.yul\":5951:6005   */\n      tag_141\n        /* \"#utility.yul\":5998:6004   */\n      dup5\n        /* \"#utility.yul\":5993:5996   */\n      dup3\n        /* \"#utility.yul\":5988:5991   */\n      dup6\n        /* \"#utility.yul\":5951:6005   */\n      tag_60\n      jump\t// in\n    tag_141:\n        /* \"#utility.yul\":5670:6011   */\n      pop\n        /* \"#utility.yul\":5586:6011   */\n      swap4\n      swap3\n      pop\n      pop\n      pop\n      jump\t// out\n        /* \"#utility.yul\":6031:6371   */\n    tag_62:\n        /* \"#utility.yul\":6087:6092   */\n      0x00\n        /* \"#utility.yul\":6136:6139   */\n      dup3\n        /* \"#utility.yul\":6129:6133   */\n      0x1f\n        /* \"#utility.yul\":6121:6127   */\n      dup4\n        /* \"#utility.yul\":6117:6134   */\n      add\n        /* \"#utility.yul\":6113:6140   */\n      slt\n        /* \"#utility.yul\":6103:6225   */\n      tag_143\n      jumpi\n        /* \"#utility.yul\":6144:6223   */\n      tag_144\n      tag_54\n      jump\t// in\n    tag_144:\n        /* \"#utility.yul\":6103:6225   */\n    tag_143:\n        /* \"#utility.yul\":6261:6267   */\n      dup2\n        /* \"#utility.yul\":6248:6268   */\n      calldataload\n        /* \"#utility.yul\":6286:6365   */\n      tag_145\n        /* \"#utility.yul\":6361:6364   */\n      dup5\n        /* \"#utility.yul\":6353:6359   */\n      dup3\n        /* \"#utility.yul\":6346:6350   */\n      0x20\n        /* \"#utility.yul\":6338:6344   */\n      dup7\n        /* \"#utility.yul\":6334:6351   */\n      add\n        /* \"#utility.yul\":6286:6365   */\n      tag_61\n      jump\t// in\n    tag_145:\n        /* \"#utility.yul\":6277:6365   */\n      swap2\n      pop\n        /* \"#utility.yul\":6093:6371   */\n      pop\n        /* \"#utility.yul\":6031:6371   */\n      swap3\n      swap2\n      pop\n      pop\n      jump\t// out\n        /* \"#utility.yul\":6377:6493   */\n    tag_63:\n        /* \"#utility.yul\":6447:6468   */\n      tag_147\n        /* \"#utility.yul\":6462:6467   */\n      dup2\n        /* \"#utility.yul\":6447:6468   */\n      tag_51\n      jump\t// in\n    tag_147:\n        /* \"#utility.yul\":6440:6445   */\n      dup2\n        /* \"#utility.yul\":6437:6469   */\n      eq\n        /* \"#utility.yul\":6427:6487   */\n      tag_148\n      jumpi\n        /* \"#utility.yul\":6483:6484   */\n      0x00\n        /* \"#utility.yul\":6480:6481   */\n      dup1\n        /* \"#utility.yul\":6473:6485   */\n      revert\n        /* \"#utility.yul\":6427:6487   */\n    tag_148:\n        /* \"#utility.yul\":6377:6493   */\n      pop\n      jump\t// out\n        /* \"#utility.yul\":6499:6632   */\n    tag_64:\n        /* \"#utility.yul\":6542:6547   */\n      0x00\n        /* \"#utility.yul\":6580:6586   */\n      dup2\n        /* \"#utility.yul\":6567:6587   */\n      calldataload\n        /* \"#utility.yul\":6558:6587   */\n      swap1\n      pop\n        /* \"#utility.yul\":6596:6626   */\n      tag_150\n        /* \"#utility.yul\":6620:6625   */\n      dup2\n        /* \"#utility.yul\":6596:6626   */\n      tag_63\n      jump\t// in\n    tag_150:\n        /* \"#utility.yul\":6499:6632   */\n      swap3\n      swap2\n      pop\n      pop\n      jump\t// out\n        /* \"#utility.yul\":6638:8375   */\n    tag_13:\n        /* \"#utility.yul\":6778:6784   */\n      0x00\n        /* \"#utility.yul\":6786:6792   */\n      dup1\n        /* \"#utility.yul\":6794:6800   */\n      0x00\n        /* \"#utility.yul\":6802:6808   */\n      dup1\n        /* \"#utility.yul\":6810:6816   */\n      0x00\n        /* \"#utility.yul\":6818:6824   */\n      dup1\n        /* \"#utility.yul\":6826:6832   */\n      0x00\n        /* \"#utility.yul\":6875:6878   */\n      0xe0\n        /* \"#utility.yul\":6863:6872   */\n      dup9\n        /* \"#utility.yul\":6854:6861   */\n      dup11\n        /* \"#utility.yul\":6850:6873   */\n      sub\n        /* \"#utility.yul\":6846:6879   */\n      slt\n        /* \"#utility.yul\":6843:6963   */\n      iszero\n      tag_152\n      jumpi\n        /* \"#utility.yul\":6882:6961   */\n      tag_153\n      tag_40\n      jump\t// in\n    tag_153:\n        /* \"#utility.yul\":6843:6963   */\n    tag_152:\n        /* \"#utility.yul\":7002:7003   */\n      0x00\n        /* \"#utility.yul\":7027:7080   */\n      tag_154\n        /* \"#utility.yul\":7072:7079   */\n      dup11\n        /* \"#utility.yul\":7063:7069   */\n      dup3\n        /* \"#utility.yul\":7052:7061   */\n      dup12\n        /* \"#utility.yul\":7048:7070   */\n      add\n        /* \"#utility.yul\":7027:7080   */\n      tag_44\n      jump\t// in\n    tag_154:\n        /* \"#utility.yul\":7017:7080   */\n      swap8\n      pop\n        /* \"#utility.yul\":6973:7090   */\n      pop\n        /* \"#utility.yul\":7157:7159   */\n      0x20\n        /* \"#utility.yul\":7146:7155   */\n      dup9\n        /* \"#utility.yul\":7142:7160   */\n      add\n        /* \"#utility.yul\":7129:7161   */\n      calldataload\n        /* \"#utility.yul\":7188:7206   */\n      0xffffffffffffffff\n        /* \"#utility.yul\":7180:7186   */\n      dup2\n        /* \"#utility.yul\":7177:7207   */\n      gt\n        /* \"#utility.yul\":7174:7291   */\n      iszero\n      tag_155\n      jumpi\n        /* \"#utility.yul\":7210:7289   */\n      tag_156\n      tag_41\n      jump\t// in\n    tag_156:\n        /* \"#utility.yul\":7174:7291   */\n    tag_155:\n        /* \"#utility.yul\":7315:7378   */\n      tag_157\n        /* \"#utility.yul\":7370:7377   */\n      dup11\n        /* \"#utility.yul\":7361:7367   */\n      dup3\n        /* \"#utility.yul\":7350:7359   */\n      dup12\n        /* \"#utility.yul\":7346:7368   */\n      add\n        /* \"#utility.yul\":7315:7378   */\n      tag_62\n      jump\t// in\n    tag_157:\n        /* \"#utility.yul\":7305:7378   */\n      swap7\n      pop\n        /* \"#utility.yul\":7100:7388   */\n      pop\n        /* \"#utility.yul\":7427:7429   */\n      0x40\n        /* \"#utility.yul\":7453:7506   */\n      tag_158\n        /* \"#utility.yul\":7498:7505   */\n      dup11\n        /* \"#utility.yul\":7489:7495   */\n      dup3\n        /* \"#utility.yul\":7478:7487   */\n      dup12\n        /* \"#utility.yul\":7474:7496   */\n      add\n        /* \"#utility.yul\":7453:7506   */\n      tag_44\n      jump\t// in\n    tag_158:\n        /* \"#utility.yul\":7443:7506   */\n      swap6\n      pop\n        /* \"#utility.yul\":7398:7516   */\n      pop\n        /* \"#utility.yul\":7555:7557   */\n      0x60\n        /* \"#utility.yul\":7581:7634   */\n      tag_159\n        /* \"#utility.yul\":7626:7633   */\n      dup11\n        /* \"#utility.yul\":7617:7623   */\n      dup3\n        /* \"#utility.yul\":7606:7615   */\n      dup12\n        /* \"#utility.yul\":7602:7624   */\n      add\n        /* \"#utility.yul\":7581:7634   */\n      tag_44\n      jump\t// in\n    tag_159:\n        /* \"#utility.yul\":7571:7634   */\n      swap5\n      pop\n        /* \"#utility.yul\":7526:7644   */\n      pop\n        /* \"#utility.yul\":7711:7714   */\n      0x80\n        /* \"#utility.yul\":7700:7709   */\n      dup9\n        /* \"#utility.yul\":7696:7715   */\n      add\n        /* \"#utility.yul\":7683:7716   */\n      calldataload\n        /* \"#utility.yul\":7743:7761   */\n      0xffffffffffffffff\n        /* \"#utility.yul\":7735:7741   */\n      dup2\n        /* \"#utility.yul\":7732:7762   */\n      gt\n        /* \"#utility.yul\":7729:7846   */\n      iszero\n      tag_160\n      jumpi\n        /* \"#utility.yul\":7765:7844   */\n      tag_161\n      tag_41\n      jump\t// in\n    tag_161:\n        /* \"#utility.yul\":7729:7846   */\n    tag_160:\n        /* \"#utility.yul\":7870:7933   */\n      tag_162\n        /* \"#utility.yul\":7925:7932   */\n      dup11\n        /* \"#utility.yul\":7916:7922   */\n      dup3\n        /* \"#utility.yul\":7905:7914   */\n      dup12\n        /* \"#utility.yul\":7901:7923   */\n      add\n        /* \"#utility.yul\":7870:7933   */\n      tag_62\n      jump\t// in\n    tag_162:\n        /* \"#utility.yul\":7860:7933   */\n      swap4\n      pop\n        /* \"#utility.yul\":7654:7943   */\n      pop\n        /* \"#utility.yul\":8010:8013   */\n      0xa0\n        /* \"#utility.yul\":7999:8008   */\n      dup9\n        /* \"#utility.yul\":7995:8014   */\n      add\n        /* \"#utility.yul\":7982:8015   */\n      calldataload\n        /* \"#utility.yul\":8042:8060   */\n      0xffffffffffffffff\n        /* \"#utility.yul\":8034:8040   */\n      dup2\n        /* \"#utility.yul\":8031:8061   */\n      gt\n        /* \"#utility.yul\":8028:8145   */\n      iszero\n      tag_163\n      jumpi\n        /* \"#utility.yul\":8064:8143   */\n      tag_164\n      tag_41\n      jump\t// in\n    tag_164:\n        /* \"#utility.yul\":8028:8145   */\n    tag_163:\n        /* \"#utility.yul\":8169:8232   */\n      tag_165\n        /* \"#utility.yul\":8224:8231   */\n      dup11\n        /* \"#utility.yul\":8215:8221   */\n      dup3\n        /* \"#utility.yul\":8204:8213   */\n      dup12\n        /* \"#utility.yul\":8200:8222   */\n      add\n        /* \"#utility.yul\":8169:8232   */\n      tag_62\n      jump\t// in\n    tag_165:\n        /* \"#utility.yul\":8159:8232   */\n      swap3\n      pop\n        /* \"#utility.yul\":7953:8242   */\n      pop\n        /* \"#utility.yul\":8281:8284   */\n      0xc0\n        /* \"#utility.yul\":8308:8358   */\n      tag_166\n        /* \"#utility.yul\":8350:8357   */\n      dup11\n        /* \"#utility.yul\":8341:8347   */\n      dup3\n        /* \"#utility.yul\":8330:8339   */\n      dup12\n        /* \"#utility.yul\":8326:8348   */\n      add\n        /* \"#utility.yul\":8308:8358   */\n      tag_64\n      jump\t// in\n    tag_166:\n        /* \"#utility.yul\":8298:8358   */\n      swap2\n      pop\n        /* \"#utility.yul\":8252:8368   */\n      pop\n        /* \"#utility.yul\":6638:8375   */\n      swap3\n      swap6\n      swap9\n      swap2\n      swap5\n      swap8\n      pop\n      swap3\n      swap6\n      pop\n      jump\t// out\n        /* \"#utility.yul\":8381:8561   */\n    tag_65:\n        /* \"#utility.yul\":8429:8506   */\n      0x4e487b7100000000000000000000000000000000000000000000000000000000\n        /* \"#utility.yul\":8426:8427   */\n      0x00\n        /* \"#utility.yul\":8419:8507   */\n      mstore\n        /* \"#utility.yul\":8526:8530   */\n      0x22\n        /* \"#utility.yul\":8523:8524   */\n      0x04\n        /* \"#utility.yul\":8516:8531   */\n      mstore\n        /* \"#utility.yul\":8550:8554   */\n      0x24\n        /* \"#utility.yul\":8547:8548   */\n      0x00\n        /* \"#utility.yul\":8540:8555   */\n      revert\n        /* \"#utility.yul\":8567:8887   */\n    tag_19:\n        /* \"#utility.yul\":8611:8617   */\n      0x00\n        /* \"#utility.yul\":8648:8649   */\n      0x02\n        /* \"#utility.yul\":8642:8646   */\n      dup3\n        /* \"#utility.yul\":8638:8650   */\n      div\n        /* \"#utility.yul\":8628:8650   */\n      swap1\n      pop\n        /* \"#utility.yul\":8695:8696   */\n      0x01\n        /* \"#utility.yul\":8689:8693   */\n      dup3\n        /* \"#utility.yul\":8685:8697   */\n      and\n        /* \"#utility.yul\":8716:8734   */\n      dup1\n        /* \"#utility.yul\":8706:8787   */\n      tag_169\n      jumpi\n        /* \"#utility.yul\":8772:8776   */\n      0x7f\n        /* \"#utility.yul\":8764:8770   */\n      dup3\n        /* \"#utility.yul\":8760:8777   */\n      and\n        /* \"#utility.yul\":8750:8777   */\n      swap2\n      pop\n        /* \"#utility.yul\":8706:8787   */\n    tag_169:\n        /* \"#utility.yul\":8834:8836   */\n      0x20\n        /* \"#utility.yul\":8826:8832   */\n      dup3\n        /* \"#utility.yul\":8823:8837   */\n      lt\n        /* \"#utility.yul\":8803:8821   */\n      dup2\n        /* \"#utility.yul\":8800:8838   */\n      sub\n        /* \"#utility.yul\":8797:8881   */\n      tag_170\n      jumpi\n        /* \"#utility.yul\":8853:8871   */\n      tag_171\n      tag_65\n      jump\t// in\n    tag_171:\n        /* \"#utility.yul\":8797:8881   */\n    tag_170:\n        /* \"#utility.yul\":8618:8887   */\n      pop\n        /* \"#utility.yul\":8567:8887   */\n      swap2\n      swap1\n      pop\n      jump\t// out\n        /* \"#utility.yul\":8893:9034   */\n    tag_66:\n        /* \"#utility.yul\":8942:8946   */\n      0x00\n        /* \"#utility.yul\":8965:8968   */\n      dup2\n        /* \"#utility.yul\":8957:8968   */\n      swap1\n      pop\n        /* \"#utility.yul\":8988:8991   */\n      dup2\n        /* \"#utility.yul\":8985:8986   */\n      0x00\n        /* \"#utility.yul\":8978:8992   */\n      mstore\n        /* \"#utility.yul\":9022:9026   */\n      0x20\n        /* \"#utility.yul\":9019:9020   */\n      0x00\n        /* \"#utility.yul\":9009:9027   */\n      keccak256\n        /* \"#utility.yul\":9001:9027   */\n      swap1\n      pop\n        /* \"#utility.yul\":8893:9034   */\n      swap2\n      swap1\n      pop\n      jump\t// out\n        /* \"#utility.yul\":9040:9133   */\n    tag_67:\n        /* \"#utility.yul\":9077:9083   */\n      0x00\n        /* \"#utility.yul\":9124:9126   */\n      0x20\n        /* \"#utility.yul\":9119:9121   */\n      0x1f\n        /* \"#utility.yul\":9112:9117   */\n      dup4\n        /* \"#utility.yul\":9108:9122   */\n      add\n        /* \"#utility.yul\":9104:9127   */\n      div\n        /* \"#utility.yul\":9094:9127   */\n      swap1\n      pop\n        /* \"#utility.yul\":9040:9133   */\n      swap2\n      swap1\n      pop\n      jump\t// out\n        /* \"#utility.yul\":9139:9246   */\n    tag_68:\n        /* \"#utility.yul\":9183:9191   */\n      0x00\n        /* \"#utility.yul\":9233:9238   */\n      dup3\n        /* \"#utility.yul\":9227:9231   */\n      dup3\n        /* \"#utility.yul\":9223:9239   */\n      shl\n        /* \"#utility.yul\":9202:9239   */\n      swap1\n      pop\n        /* \"#utility.yul\":9139:9246   */\n      swap3\n      swap2\n      pop\n      pop\n      jump\t// out\n        /* \"#utility.yul\":9252:9645   */\n    tag_69:\n        /* \"#utility.yul\":9321:9327   */\n      0x00\n        /* \"#utility.yul\":9371:9372   */\n      0x08\n        /* \"#utility.yul\":9359:9369   */\n      dup4\n        /* \"#utility.yul\":9355:9373   */\n      mul\n        /* \"#utility.yul\":9394:9491   */\n      tag_176\n        /* \"#utility.yul\":9424:9490   */\n      0xffffffffffffffffffffffffffffffffffffffffffffffffffffffffffffffff\n        /* \"#utility.yul\":9413:9422   */\n      dup3\n        /* \"#utility.yul\":9394:9491   */\n      tag_68\n      jump\t// in\n    tag_176:\n        /* \"#utility.yul\":9512:9551   */\n      tag_177\n        /* \"#utility.yul\":9542:9550   */\n      dup7\n        /* \"#utility.yul\":9531:9540   */\n      dup4\n        /* \"#utility.yul\":9512:9551   */\n      tag_68\n      jump\t// in\n    tag_177:\n        /* \"#utility.yul\":9500:9551   */\n      swap6\n      pop\n        /* \"#utility.yul\":9584:9588   */\n      dup1\n        /* \"#utility.yul\":9580:9589   */\n      not\n        /* \"#utility.yul\":9573:9578   */\n      dup5\n        /* \"#utility.yul\":9569:9590   */\n      and\n        /* \"#utility.yul\":9560:9590   */\n      swap4\n      pop\n        /* \"#utility.yul\":9633:9637   */\n      dup1\n        /* \"#utility.yul\":9623:9631   */\n      dup7\n        /* \"#utility.yul\":9619:9638   */\n      and\n        /* \"#utility.yul\":9612:9617   */\n      dup5\n        /* \"#utility.yul\":9609:9639   */\n      or\n        /* \"#utility.yul\":9599:9639   */\n      swap3\n      pop\n        /* \"#utility.yul\":9328:9645   */\n      pop\n      pop\n        /* \"#utility.yul\":9252:9645   */\n      swap4\n      swap3\n      pop\n      pop\n      pop\n      jump\t// out\n        /* \"#utility.yul\":9651:9711   */\n    tag_70:\n        /* \"#utility.yul\":9679:9682   */\n      0x00\n        /* \"#utility.yul\":9700:9705   */\n      dup2\n        /* \"#utility.yul\":9693:9705   */\n      swap1\n      pop\n        /* \"#utility.yul\":9651:9711   */\n      swap2\n      swap1\n      pop\n      jump\t// out\n        /* \"#utility.yul\":9717:9859   */\n    tag_71:\n        /* \"#utility.yul\":9767:9776   */\n      0x00\n        /* \"#utility.yul\":9800:9853   */\n      tag_180\n        /* \"#utility.yul\":9818:9852   */\n      tag_181\n        /* \"#utility.yul\":9827:9851   */\n      tag_182\n        /* \"#utility.yul\":9845:9850   */\n      dup5\n        /* \"#utility.yul\":9827:9851   */\n      tag_42\n      jump\t// in\n    tag_182:\n        /* \"#utility.yul\":9818:9852   */\n      tag_70\n      jump\t// in\n    tag_181:\n        /* \"#utility.yul\":9800:9853   */\n      tag_42\n      jump\t// in\n    tag_180:\n        /* \"#utility.yul\":9787:9853   */\n      swap1\n      pop\n        /* \"#utility.yul\":9717:9859   */\n      swap2\n      swap1\n      pop\n      jump\t// out\n        /* \"#utility.yul\":9865:9940   */\n    tag_72:\n        /* \"#utility.yul\":9908:9911   */\n      0x00\n        /* \"#utility.yul\":9929:9934   */\n      dup2\n        /* \"#utility.yul\":9922:9934   */\n      swap1\n      pop\n        /* \"#utility.yul\":9865:9940   */\n      swap2\n      swap1\n      pop\n      jump\t// out\n        /* \"#utility.yul\":9946:10215   */\n    tag_73:\n        /* \"#utility.yul\":10056:10095   */\n      tag_185\n        /* \"#utility.yul\":10087:10094   */\n      dup4\n        /* \"#utility.yul\":10056:10095   */\n      tag_71\n      jump\t// in\n    tag_185:\n        /* \"#utility.yul\":10117:10208   */\n      tag_186\n        /* \"#utility.yul\":10166:10207   */\n      tag_187\n        /* \"#utility.yul\":10190:10206   */\n      dup3\n        /* \"#utility.yul\":10166:10207   */\n      tag_72\n      jump\t// in\n    tag_187:\n        /* \"#utility.yul\":10158:10164   */\n      dup5\n        /* \"#utility.yul\":10151:10155   */\n      dup5\n        /* \"#utility.yul\":10145:10156   */\n      sload\n        /* \"#utility.yul\":10117:10208   */\n      tag_69\n      jump\t// in\n    tag_186:\n        /* \"#utility.yul\":10111:10115   */\n      dup3\n        /* \"#utility.yul\":10104:10209   */\n      sstore\n        /* \"#utility.yul\":10022:10215   */\n      pop\n        /* \"#utility.yul\":9946:10215   */\n      pop\n      pop\n      pop\n      jump\t// out\n        /* \"#utility.yul\":10221:10294   */\n    tag_74:\n        /* \"#utility.yul\":10266:10269   */\n      0x00\n        /* \"#utility.yul\":10221:10294   */\n      swap1\n      jump\t// out\n        /* \"#utility.yul\":10300:10489   */\n    tag_75:\n        /* \"#utility.yul\":10377:10409   */\n      tag_190\n      tag_74\n      jump\t// in\n    tag_190:\n        /* \"#utility.yul\":10418:10483   */\n      tag_191\n        /* \"#utility.yul\":10476:10482   */\n      dup2\n        /* \"#utility.yul\":10468:10474   */\n      dup5\n        /* \"#utility.yul\":10462:10466   */\n      dup5\n        /* \"#utility.yul\":10418:10483   */\n      tag_73\n      jump\t// in\n    tag_191:\n        /* \"#utility.yul\":10353:10489   */\n      pop\n        /* \"#utility.yul\":10300:10489   */\n      pop\n      pop\n      jump\t// out\n        /* \"#utility.yul\":10495:10681   */\n    tag_76:\n        /* \"#utility.yul\":10555:10675   */\n    tag_193:\n        /* \"#utility.yul\":10572:10575   */\n      dup2\n        /* \"#utility.yul\":10565:10570   */\n      dup2\n        /* \"#utility.yul\":10562:10576   */\n      lt\n        /* \"#utility.yul\":10555:10675   */\n      iszero\n      tag_195\n      jumpi\n        /* \"#utility.yul\":10626:10665   */\n      tag_196\n        /* \"#utility.yul\":10663:10664   */\n      0x00\n        /* \"#utility.yul\":10656:10661   */\n      dup3\n        /* \"#utility.yul\":10626:10665   */\n      tag_75\n      jump\t// in\n    tag_196:\n        /* \"#utility.yul\":10599:10600   */\n      0x01\n        /* \"#utility.yul\":10592:10597   */\n      dup2\n        /* \"#utility.yul\":10588:10601   */\n      add\n        /* \"#utility.yul\":10579:10601   */\n      swap1\n      pop\n        /* \"#utility.yul\":10555:10675   */\n      jump(tag_193)\n    tag_195:\n        /* \"#utility.yul\":10495:10681   */\n      pop\n      pop\n      jump\t// out\n        /* \"#utility.yul\":10687:11230   */\n    tag_77:\n        /* \"#utility.yul\":10788:10790   */\n      0x1f\n        /* \"#utility.yul\":10783:10786   */\n      dup3\n        /* \"#utility.yul\":10780:10791   */\n      gt\n        /* \"#utility.yul\":10777:11223   */\n      iszero\n      tag_198\n      jumpi\n        /* \"#utility.yul\":10822:10860   */\n      tag_199\n        /* \"#utility.yul\":10854:10859   */\n      dup2\n        /* \"#utility.yul\":10822:10860   */\n      tag_66\n      jump\t// in\n    tag_199:\n        /* \"#utility.yul\":10906:10935   */\n      tag_200\n        /* \"#utility.yul\":10924:10934   */\n      dup5\n        /* \"#utility.yul\":10906:10935   */\n      tag_67\n      jump\t// in\n    tag_200:\n        /* \"#utility.yul\":10896:10904   */\n      dup2\n        /* \"#utility.yul\":10892:10936   */\n      add\n        /* \"#utility.yul\":11089:11091   */\n      0x20\n        /* \"#utility.yul\":11077:11087   */\n      dup6\n        /* \"#utility.yul\":11074:11092   */\n      lt\n        /* \"#utility.yul\":11071:11120   */\n      iszero\n      tag_201\n      jumpi\n        /* \"#utility.yul\":11110:11118   */\n      dup2\n        /* \"#utility.yul\":11095:11118   */\n      swap1\n      pop\n        /* \"#utility.yul\":11071:11120   */\n    tag_201:\n        /* \"#utility.yul\":11133:11213   */\n      tag_202\n        /* \"#utility.yul\":11189:11211   */\n      tag_203\n        /* \"#utility.yul\":11207:11210   */\n      dup6\n        /* \"#utility.yul\":11189:11211   */\n      tag_67\n      jump\t// in\n    tag_203:\n        /* \"#utility.yul\":11179:11187   */\n      dup4\n        /* \"#utility.yul\":11175:11212   */\n      add\n        /* \"#utility.yul\":11162:11173   */\n      dup3\n        /* \"#utility.yul\":11133:11213   */\n      tag_76\n      jump\t// in\n    tag_202:\n        /* \"#utility.yul\":10792:11223   */\n      pop\n      pop\n        /* \"#utility.yul\":10777:11223   */\n    tag_198:\n        /* \"#utility.yul\":10687:11230   */\n      pop\n      pop\n      pop\n      jump\t// out\n        /* \"#utility.yul\":11236:11353   */\n    tag_78:\n        /* \"#utility.yul\":11290:11298   */\n      0x00\n        /* \"#utility.yul\":11340:11345   */\n      dup3\n        /* \"#utility.yul\":11334:11338   */\n      dup3\n        /* \"#utility.yul\":11330:11346   */\n      shr\n        /* \"#utility.yul\":11309:11346   */\n      swap1\n      pop\n        /* \"#utility.yul\":11236:11353   */\n      swap3\n      swap2\n      pop\n      pop\n      jump\t// out\n        /* \"#utility.yul\":11359:11528   */\n    tag_79:\n        /* \"#utility.yul\":11403:11409   */\n      0x00\n        /* \"#utility.yul\":11436:11487   */\n      tag_206\n        /* \"#utility.yul\":11484:11485   */\n      0x00\n        /* \"#utility.yul\":11480:11486   */\n      not\n        /* \"#utility.yul\":11472:11477   */\n      dup5\n        /* \"#utility.yul\":11469:11470   */\n      0x08\n        /* \"#utility.yul\":11465:11478   */\n      mul\n        /* \"#utility.yul\":11436:11487   */\n      tag_78\n      jump\t// in\n    tag_206:\n        /* \"#utility.yul\":11432:11488   */\n      not\n        /* \"#utility.yul\":11517:11521   */\n      dup1\n        /* \"#utility.yul\":11511:11515   */\n      dup4\n        /* \"#utility.yul\":11507:11522   */\n      and\n        /* \"#utility.yul\":11497:11522   */\n      swap2\n      pop\n        /* \"#utility.yul\":11410:11528   */\n      pop\n        /* \"#utility.yul\":11359:11528   */\n      swap3\n      swap2\n      pop\n      pop\n      jump\t// out\n        /* \"#utility.yul\":11533:11828   */\n    tag_80:\n        /* \"#utility.yul\":11609:11613   */\n      0x00\n        /* \"#utility.yul\":11755:11784   */\n      tag_208\n        /* \"#utility.yul\":11780:11783   */\n      dup4\n        /* \"#utility.yul\":11774:11778   */\n      dup4\n        /* \"#utility.yul\":11755:11784   */\n      tag_79\n      jump\t// in\n    tag_208:\n        /* \"#utility.yul\":11747:11784   */\n      swap2\n      pop\n        /* \"#utility.yul\":11817:11820   */\n      dup3\n        /* \"#utility.yul\":11814:11815   */\n      0x02\n        /* \"#utility.yul\":11810:11821   */\n      mul\n        /* \"#utility.yul\":11804:11808   */\n      dup3\n        /* \"#utility.yul\":11801:11822   */\n      or\n        /* \"#utility.yul\":11793:11822   */\n      swap1\n      pop\n        /* \"#utility.yul\":11533:11828   */\n      swap3\n      swap2\n      pop\n      pop\n      jump\t// out\n        /* \"#utility.yul\":11833:13228   */\n    tag_36:\n        /* \"#utility.yul\":11950:11987   */\n      tag_210\n        /* \"#utility.yul\":11983:11986   */\n      dup3\n        /* \"#utility.yul\":11950:11987   */\n      tag_45\n      jump\t// in\n    tag_210:\n        /* \"#utility.yul\":12052:12070   */\n      0xffffffffffffffff\n        /* \"#utility.yul\":12044:12050   */\n      dup2\n        /* \"#utility.yul\":12041:12071   */\n      gt\n        /* \"#utility.yul\":12038:12094   */\n      iszero\n      tag_211\n      jumpi\n        /* \"#utility.yul\":12074:12092   */\n      tag_212\n      tag_56\n      jump\t// in\n    tag_212:\n        /* \"#utility.yul\":12038:12094   */\n    tag_211:\n        /* \"#utility.yul\":12118:12156   */\n      tag_213\n        /* \"#utility.yul\":12150:12154   */\n      dup3\n        /* \"#utility.yul\":12144:12155   */\n      sload\n        /* \"#utility.yul\":12118:12156   */\n      tag_19\n      jump\t// in\n    tag_213:\n        /* \"#utility.yul\":12203:12270   */\n      tag_214\n        /* \"#utility.yul\":12263:12269   */\n      dup3\n        /* \"#utility.yul\":12255:12261   */\n      dup3\n        /* \"#utility.yul\":12249:12253   */\n      dup6\n        /* \"#utility.yul\":12203:12270   */\n      tag_77\n      jump\t// in\n    tag_214:\n        /* \"#utility.yul\":12297:12298   */\n      0x00\n        /* \"#utility.yul\":12321:12325   */\n      0x20\n        /* \"#utility.yul\":12308:12325   */\n      swap1\n      pop\n        /* \"#utility.yul\":12353:12355   */\n      0x1f\n        /* \"#utility.yul\":12345:12351   */\n      dup4\n        /* \"#utility.yul\":12342:12356   */\n      gt\n        /* \"#utility.yul\":12370:12371   */\n      0x01\n        /* \"#utility.yul\":12365:12983   */\n      dup2\n      eq\n      tag_216\n      jumpi\n        /* \"#utility.yul\":13027:13028   */\n      0x00\n        /* \"#utility.yul\":13044:13050   */\n      dup5\n        /* \"#utility.yul\":13041:13118   */\n      iszero\n      tag_217\n      jumpi\n        /* \"#utility.yul\":13093:13102   */\n      dup3\n        /* \"#utility.yul\":13088:13091   */\n      dup8\n        /* \"#utility.yul\":13084:13103   */\n      add\n        /* \"#utility.yul\":13078:13104   */\n      mload\n        /* \"#utility.yul\":13069:13104   */\n      swap1\n      pop\n        /* \"#utility.yul\":13041:13118   */\n    tag_217:\n        /* \"#utility.yul\":13144:13211   */\n      tag_218\n        /* \"#utility.yul\":13204:13210   */\n      dup6\n        /* \"#utility.yul\":13197:13202   */\n      dup3\n        /* \"#utility.yul\":13144:13211   */\n      tag_80\n      jump\t// in\n    tag_218:\n        /* \"#utility.yul\":13138:13142   */\n      dup7\n        /* \"#utility.yul\":13131:13212   */\n      sstore\n        /* \"#utility.yul\":13000:13222   */\n      pop\n        /* \"#utility.yul\":12335:13222   */\n      jump(tag_215)\n        /* \"#utility.yul\":12365:12983   */\n    tag_216:\n        /* \"#utility.yul\":12417:12421   */\n      0x1f\n        /* \"#utility.yul\":12413:12422   */\n      not\n        /* \"#utility.yul\":12405:12411   */\n      dup5\n        /* \"#utility.yul\":12401:12423   */\n      and\n        /* \"#utility.yul\":12451:12488   */\n      tag_219\n        /* \"#utility.yul\":12483:12487   */\n      dup7\n        /* \"#utility.yul\":12451:12488   */\n      tag_66\n      jump\t// in\n    tag_219:\n        /* \"#utility.yul\":12510:12511   */\n      0x00\n        /* \"#utility.yul\":12524:12732   */\n    tag_220:\n        /* \"#utility.yul\":12538:12545   */\n      dup3\n        /* \"#utility.yul\":12535:12536   */\n      dup2\n        /* \"#utility.yul\":12532:12546   */\n      lt\n        /* \"#utility.yul\":12524:12732   */\n      iszero\n      tag_222\n      jumpi\n        /* \"#utility.yul\":12617:12626   */\n      dup5\n        /* \"#utility.yul\":12612:12615   */\n      dup10\n        /* \"#utility.yul\":12608:12627   */\n      add\n        /* \"#utility.yul\":12602:12628   */\n      mload\n        /* \"#utility.yul\":12594:12600   */\n      dup3\n        /* \"#utility.yul\":12587:12629   */\n      sstore\n        /* \"#utility.yul\":12668:12669   */\n      0x01\n        /* \"#utility.yul\":12660:12666   */\n      dup3\n        /* \"#utility.yul\":12656:12670   */\n      add\n        /* \"#utility.yul\":12646:12670   */\n      swap2\n      pop\n        /* \"#utility.yul\":12715:12717   */\n      0x20\n        /* \"#utility.yul\":12704:12713   */\n      dup6\n        /* \"#utility.yul\":12700:12718   */\n      add\n        /* \"#utility.yul\":12687:12718   */\n      swap5\n      pop\n        /* \"#utility.yul\":12561:12565   */\n      0x20\n        /* \"#utility.yul\":12558:12559   */\n      dup2\n        /* \"#utility.yul\":12554:12566   */\n      add\n        /* \"#utility.yul\":12549:12566   */\n      swap1\n      pop\n        /* \"#utility.yul\":12524:12732   */\n      jump(tag_220)\n    tag_222:\n        /* \"#utility.yul\":12760:12766   */\n      dup7\n        /* \"#utility.yul\":12751:12758   */\n      dup4\n        /* \"#utility.yul\":12748:12767   */\n      lt\n        /* \"#utility.yul\":12745:12924   */\n      iszero\n      tag_223\n      jumpi\n        /* \"#utility.yul\":12818:12827   */\n      dup5\n        /* \"#utility.yul\":12813:12816   */\n      dup10\n        /* \"#utility.yul\":12809:12828   */\n      add\n        /* \"#utility.yul\":12803:12829   */\n      mload\n        /* \"#utility.yul\":12861:12909   */\n      tag_224\n        /* \"#utility.yul\":12903:12907   */\n      0x1f\n        /* \"#utility.yul\":12895:12901   */\n      dup10\n        /* \"#utility.yul\":12891:12908   */\n      and\n        /* \"#utility.yul\":12880:12889   */\n      dup3\n        /* \"#utility.yul\":12861:12909   */\n      tag_79\n      jump\t// in\n    tag_224:\n        /* \"#utility.yul\":12853:12859   */\n      dup4\n        /* \"#utility.yul\":12846:12910   */\n      sstore\n        /* \"#utility.yul\":12768:12924   */\n      pop\n        /* \"#utility.yul\":12745:12924   */\n    tag_223:\n        /* \"#utility.yul\":12970:12971   */\n      0x01\n        /* \"#utility.yul\":12966:12967   */\n      0x02\n        /* \"#utility.yul\":12958:12964   */\n      dup9\n        /* \"#utility.yul\":12954:12968   */\n      mul\n        /* \"#utility.yul\":12950:12972   */\n      add\n        /* \"#utility.yul\":12944:12948   */\n      dup9\n        /* \"#utility.yul\":12937:12973   */\n      sstore\n        /* \"#utility.yul\":12372:12983   */\n      pop\n      pop\n      pop\n        /* \"#utility.yul\":12335:13222   */\n    tag_215:\n      pop\n        /* \"#utility.yul\":11925:13228   */\n      pop\n      pop\n      pop\n        /* \"#utility.yul\":11833:13228   */\n      pop\n      pop\n      jump\t// out\n\n    auxdata: 0xa26469706673582212208d93c1d74d1bc83e54ad30ac5f5ec0888864b55c11f0a03e2fda32b50d655f2864736f6c63430008140033\n}\n",
				"bytecode": {
					"linkReferences": {},
					"object": "608060405234801561000f575f80fd5b50610a9a8061001d5f395ff3fe608060405234801561000f575f80fd5b5060043610610034575f3560e01c80631b9db2ef146100385780632a72500a14610068575b5f80fd5b610052600480360381019061004d91906103c2565b610084565b60405161005f9190610534565b60405180910390f35b610082600480360381019061007d91906106aa565b61028b565b005b61008c610349565b5f808381526020019081526020015f206040518060c00160405290815f820180546100b6906107c8565b80601f01602080910402602001604051908101604052809291908181526020018280546100e2906107c8565b801561012d5780601f106101045761010080835404028352916020019161012d565b820191905f5260205f20905b81548152906001019060200180831161011057829003601f168201915b50505050508152602001600182015481526020016002820154815260200160038201805461015a906107c8565b80601f0160208091040260200160405190810160405280929190818152602001828054610186906107c8565b80156101d15780601f106101a8576101008083540402835291602001916101d1565b820191905f5260205f20905b8154815290600101906020018083116101b457829003601f168201915b505050505081526020016004820180546101ea906107c8565b80601f0160208091040260200160405190810160405280929190818152602001828054610216906107c8565b80156102615780601f1061023857610100808354040283529160200191610261565b820191905f5260205f20905b81548152906001019060200180831161024457829003601f168201915b50505050508152602001600582015f9054906101000a900460ff1615151515815250509050919050565b6040518060c001604052808781526020018681526020018581526020018481526020018381526020018215158152505f808981526020019081526020015f205f820151815f0190816102dd9190610995565b50602082015181600101556040820151816002015560608201518160030190816103079190610995565b50608082015181600401908161031d9190610995565b5060a0820151816005015f6101000a81548160ff02191690831515021790555090505050505050505050565b6040518060c00160405280606081526020015f81526020015f815260200160608152602001606081526020015f151581525090565b5f604051905090565b5f80fd5b5f80fd5b5f819050919050565b6103a18161038f565b81146103ab575f80fd5b50565b5f813590506103bc81610398565b92915050565b5f602082840312156103d7576103d6610387565b5b5f6103e4848285016103ae565b91505092915050565b5f81519050919050565b5f82825260208201905092915050565b5f5b83811015610424578082015181840152602081019050610409565b5f8484015250505050565b5f601f19601f8301169050919050565b5f610449826103ed565b61045381856103f7565b9350610463818560208601610407565b61046c8161042f565b840191505092915050565b6104808161038f565b82525050565b5f8115159050919050565b61049a81610486565b82525050565b5f60c083015f8301518482035f8601526104ba828261043f565b91505060208301516104cf6020860182610477565b5060408301516104e26040860182610477565b50606083015184820360608601526104fa828261043f565b91505060808301518482036080860152610514828261043f565b91505060a083015161052960a0860182610491565b508091505092915050565b5f6020820190508181035f83015261054c81846104a0565b905092915050565b5f80fd5b5f80fd5b7f4e487b71000000000000000000000000000000000000000000000000000000005f52604160045260245ffd5b6105928261042f565b810181811067ffffffffffffffff821117156105b1576105b061055c565b5b80604052505050565b5f6105c361037e565b90506105cf8282610589565b919050565b5f67ffffffffffffffff8211156105ee576105ed61055c565b5b6105f78261042f565b9050602081019050919050565b828183375f83830152505050565b5f61062461061f846105d4565b6105ba565b9050828152602081018484840111156106405761063f610558565b5b61064b848285610604565b509392505050565b5f82601f83011261066757610666610554565b5b8135610677848260208601610612565b91505092915050565b61068981610486565b8114610693575f80fd5b50565b5f813590506106a481610680565b92915050565b5f805f805f805f60e0888a0312156106c5576106c4610387565b5b5f6106d28a828b016103ae565b975050602088013567ffffffffffffffff8111156106f3576106f261038b565b5b6106ff8a828b01610653565b96505060406107108a828b016103ae565b95505060606107218a828b016103ae565b945050608088013567ffffffffffffffff8111156107425761074161038b565b5b61074e8a828b01610653565b93505060a088013567ffffffffffffffff81111561076f5761076e61038b565b5b61077b8a828b01610653565b92505060c061078c8a828b01610696565b91505092959891949750929550565b7f4e487b71000000000000000000000000000000000000000000000000000000005f52602260045260245ffd5b5f60028204905060018216806107df57607f821691505b6020821081036107f2576107f161079b565b5b50919050565b5f819050815f5260205f209050919050565b5f6020601f8301049050919050565b5f82821b905092915050565b5f600883026108547fffffffffffffffffffffffffffffffffffffffffffffffffffffffffffffffff82610819565b61085e8683610819565b95508019841693508086168417925050509392505050565b5f819050919050565b5f61089961089461088f8461038f565b610876565b61038f565b9050919050565b5f819050919050565b6108b28361087f565b6108c66108be826108a0565b848454610825565b825550505050565b5f90565b6108da6108ce565b6108e58184846108a9565b505050565b5b81811015610908576108fd5f826108d2565b6001810190506108eb565b5050565b601f82111561094d5761091e816107f8565b6109278461080a565b81016020851015610936578190505b61094a6109428561080a565b8301826108ea565b50505b505050565b5f82821c905092915050565b5f61096d5f1984600802610952565b1980831691505092915050565b5f610985838361095e565b9150826002028217905092915050565b61099e826103ed565b67ffffffffffffffff8111156109b7576109b661055c565b5b6109c182546107c8565b6109cc82828561090c565b5f60209050601f8311600181146109fd575f84156109eb578287015190505b6109f5858261097a565b865550610a5c565b601f198416610a0b866107f8565b5f5b82811015610a3257848901518255600182019150602085019450602081019050610a0d565b86831015610a4f5784890151610a4b601f89168261095e565b8355505b6001600288020188555050505b50505050505056fea26469706673582212208d93c1d74d1bc83e54ad30ac5f5ec0888864b55c11f0a03e2fda32b50d655f2864736f6c63430008140033",
					"opcodes": "PUSH1 0x80 PUSH1 0x40 MSTORE CALLVALUE DUP1 ISZERO PUSH2 0xF JUMPI PUSH0 DUP1 REVERT JUMPDEST POP PUSH2 0xA9A DUP1 PUSH2 0x1D PUSH0 CODECOPY PUSH0 RETURN INVALID PUSH1 0x80 PUSH1 0x40 MSTORE CALLVALUE DUP1 ISZERO PUSH2 0xF JUMPI PUSH0 DUP1 REVERT JUMPDEST POP PUSH1 0x4 CALLDATASIZE LT PUSH2 0x34 JUMPI PUSH0 CALLDATALOAD PUSH1 0xE0 SHR DUP1 PUSH4 0x1B9DB2EF EQ PUSH2 0x38 JUMPI DUP1 PUSH4 0x2A72500A EQ PUSH2 0x68 JUMPI JUMPDEST PUSH0 DUP1 REVERT JUMPDEST PUSH2 0x52 PUSH1 0x4 DUP1 CALLDATASIZE SUB DUP2 ADD SWAP1 PUSH2 0x4D SWAP2 SWAP1 PUSH2 0x3C2 JUMP JUMPDEST PUSH2 0x84 JUMP JUMPDEST PUSH1 0x40 MLOAD PUSH2 0x5F SWAP2 SWAP1 PUSH2 0x534 JUMP JUMPDEST PUSH1 0x40 MLOAD DUP1 SWAP2 SUB SWAP1 RETURN JUMPDEST PUSH2 0x82 PUSH1 0x4 DUP1 CALLDATASIZE SUB DUP2 ADD SWAP1 PUSH2 0x7D SWAP2 SWAP1 PUSH2 0x6AA JUMP JUMPDEST PUSH2 0x28B JUMP JUMPDEST STOP JUMPDEST PUSH2 0x8C PUSH2 0x349 JUMP JUMPDEST PUSH0 DUP1 DUP4 DUP2 MSTORE PUSH1 0x20 ADD SWAP1 DUP2 MSTORE PUSH1 0x20 ADD PUSH0 KECCAK256 PUSH1 0x40 MLOAD DUP1 PUSH1 0xC0 ADD PUSH1 0x40 MSTORE SWAP1 DUP2 PUSH0 DUP3 ADD DUP1 SLOAD PUSH2 0xB6 SWAP1 PUSH2 0x7C8 JUMP JUMPDEST DUP1 PUSH1 0x1F ADD PUSH1 0x20 DUP1 SWAP2 DIV MUL PUSH1 0x20 ADD PUSH1 0x40 MLOAD SWAP1 DUP2 ADD PUSH1 0x40 MSTORE DUP1 SWAP3 SWAP2 SWAP1 DUP2 DUP2 MSTORE PUSH1 0x20 ADD DUP3 DUP1 SLOAD PUSH2 0xE2 SWAP1 PUSH2 0x7C8 JUMP JUMPDEST DUP1 ISZERO PUSH2 0x12D JUMPI DUP1 PUSH1 0x1F LT PUSH2 0x104 JUMPI PUSH2 0x100 DUP1 DUP4 SLOAD DIV MUL DUP4 MSTORE SWAP2 PUSH1 0x20 ADD SWAP2 PUSH2 0x12D JUMP JUMPDEST DUP3 ADD SWAP2 SWAP1 PUSH0 MSTORE PUSH1 0x20 PUSH0 KECCAK256 SWAP1 JUMPDEST DUP2 SLOAD DUP2 MSTORE SWAP1 PUSH1 0x1 ADD SWAP1 PUSH1 0x20 ADD DUP1 DUP4 GT PUSH2 0x110 JUMPI DUP3 SWAP1 SUB PUSH1 0x1F AND DUP3 ADD SWAP2 JUMPDEST POP POP POP POP POP DUP2 MSTORE PUSH1 0x20 ADD PUSH1 0x1 DUP3 ADD SLOAD DUP2 MSTORE PUSH1 0x20 ADD PUSH1 0x2 DUP3 ADD SLOAD DUP2 MSTORE PUSH1 0x20 ADD PUSH1 0x3 DUP3 ADD DUP1 SLOAD PUSH2 0x15A SWAP1 PUSH2 0x7C8 JUMP JUMPDEST DUP1 PUSH1 0x1F ADD PUSH1 0x20 DUP1 SWAP2 DIV MUL PUSH1 0x20 ADD PUSH1 0x40 MLOAD SWAP1 DUP2 ADD PUSH1 0x40 MSTORE DUP1 SWAP3 SWAP2 SWAP1 DUP2 DUP2 MSTORE PUSH1 0x20 ADD DUP3 DUP1 SLOAD PUSH2 0x186 SWAP1 PUSH2 0x7C8 JUMP JUMPDEST DUP1 ISZERO PUSH2 0x1D1 JUMPI DUP1 PUSH1 0x1F LT PUSH2 0x1A8 JUMPI PUSH2 0x100 DUP1 DUP4 SLOAD DIV MUL DUP4 MSTORE SWAP2 PUSH1 0x20 ADD SWAP2 PUSH2 0x1D1 JUMP JUMPDEST DUP3 ADD SWAP2 SWAP1 PUSH0 MSTORE PUSH1 0x20 PUSH0 KECCAK256 SWAP1 JUMPDEST DUP2 SLOAD DUP2 MSTORE SWAP1 PUSH1 0x1 ADD SWAP1 PUSH1 0x20 ADD DUP1 DUP4 GT PUSH2 0x1B4 JUMPI DUP3 SWAP1 SUB PUSH1 0x1F AND DUP3 ADD SWAP2 JUMPDEST POP POP POP POP POP DUP2 MSTORE PUSH1 0x20 ADD PUSH1 0x4 DUP3 ADD DUP1 SLOAD PUSH2 0x1EA SWAP1 PUSH2 0x7C8 JUMP JUMPDEST DUP1 PUSH1 0x1F ADD PUSH1 0x20 DUP1 SWAP2 DIV MUL PUSH1 0x20 ADD PUSH1 0x40 MLOAD SWAP1 DUP2 ADD PUSH1 0x40 MSTORE DUP1 SWAP3 SWAP2 SWAP1 DUP2 DUP2 MSTORE PUSH1 0x20 ADD DUP3 DUP1 SLOAD PUSH2 0x216 SWAP1 PUSH2 0x7C8 JUMP JUMPDEST DUP1 ISZERO PUSH2 0x261 JUMPI DUP1 PUSH1 0x1F LT PUSH2 0x238 JUMPI PUSH2 0x100 DUP1 DUP4 SLOAD DIV MUL DUP4 MSTORE SWAP2 PUSH1 0x20 ADD SWAP2 PUSH2 0x261 JUMP JUMPDEST DUP3 ADD SWAP2 SWAP1 PUSH0 MSTORE PUSH1 0x20 PUSH0 KECCAK256 SWAP1 JUMPDEST DUP2 SLOAD DUP2 MSTORE SWAP1 PUSH1 0x1 ADD SWAP1 PUSH1 0x20 ADD DUP1 DUP4 GT PUSH2 0x244 JUMPI DUP3 SWAP1 SUB PUSH1 0x1F AND DUP3 ADD SWAP2 JUMPDEST POP POP POP POP POP DUP2 MSTORE PUSH1 0x20 ADD PUSH1 0x5 DUP3 ADD PUSH0 SWAP1 SLOAD SWAP1 PUSH2 0x100 EXP SWAP1 DIV PUSH1 0xFF AND ISZERO ISZERO ISZERO ISZERO DUP2 MSTORE POP POP SWAP1 POP SWAP2 SWAP1 POP JUMP JUMPDEST PUSH1 0x40 MLOAD DUP1 PUSH1 0xC0 ADD PUSH1 0x40 MSTORE DUP1 DUP8 DUP2 MSTORE PUSH1 0x20 ADD DUP7 DUP2 MSTORE PUSH1 0x20 ADD DUP6 DUP2 MSTORE PUSH1 0x20 ADD DUP5 DUP2 MSTORE PUSH1 0x20 ADD DUP4 DUP2 MSTORE PUSH1 0x20 ADD DUP3 ISZERO ISZERO DUP2 MSTORE POP PUSH0 DUP1 DUP10 DUP2 MSTORE PUSH1 0x20 ADD SWAP1 DUP2 MSTORE PUSH1 0x20 ADD PUSH0 KECCAK256 PUSH0 DUP3 ADD MLOAD DUP2 PUSH0 ADD SWAP1 DUP2 PUSH2 0x2DD SWAP2 SWAP1 PUSH2 0x995 JUMP JUMPDEST POP PUSH1 0x20 DUP3 ADD MLOAD DUP2 PUSH1 0x1 ADD SSTORE PUSH1 0x40 DUP3 ADD MLOAD DUP2 PUSH1 0x2 ADD SSTORE PUSH1 0x60 DUP3 ADD MLOAD DUP2 PUSH1 0x3 ADD SWAP1 DUP2 PUSH2 0x307 SWAP2 SWAP1 PUSH2 0x995 JUMP JUMPDEST POP PUSH1 0x80 DUP3 ADD MLOAD DUP2 PUSH1 0x4 ADD SWAP1 DUP2 PUSH2 0x31D SWAP2 SWAP1 PUSH2 0x995 JUMP JUMPDEST POP PUSH1 0xA0 DUP3 ADD MLOAD DUP2 PUSH1 0x5 ADD PUSH0 PUSH2 0x100 EXP DUP2 SLOAD DUP2 PUSH1 0xFF MUL NOT AND SWAP1 DUP4 ISZERO ISZERO MUL OR SWAP1 SSTORE POP SWAP1 POP POP POP POP POP POP POP POP POP JUMP JUMPDEST PUSH1 0x40 MLOAD DUP1 PUSH1 0xC0 ADD PUSH1 0x40 MSTORE DUP1 PUSH1 0x60 DUP2 MSTORE PUSH1 0x20 ADD PUSH0 DUP2 MSTORE PUSH1 0x20 ADD PUSH0 DUP2 MSTORE PUSH1 0x20 ADD PUSH1 0x60 DUP2 MSTORE PUSH1 0x20 ADD PUSH1 0x60 DUP2 MSTORE PUSH1 0x20 ADD PUSH0 ISZERO ISZERO DUP2 MSTORE POP SWAP1 JUMP JUMPDEST PUSH0 PUSH1 0x40 MLOAD SWAP1 POP SWAP1 JUMP JUMPDEST PUSH0 DUP1 REVERT JUMPDEST PUSH0 DUP1 REVERT JUMPDEST PUSH0 DUP2 SWAP1 POP SWAP2 SWAP1 POP JUMP JUMPDEST PUSH2 0x3A1 DUP2 PUSH2 0x38F JUMP JUMPDEST DUP2 EQ PUSH2 0x3AB JUMPI PUSH0 DUP1 REVERT JUMPDEST POP JUMP JUMPDEST PUSH0 DUP2 CALLDATALOAD SWAP1 POP PUSH2 0x3BC DUP2 PUSH2 0x398 JUMP JUMPDEST SWAP3 SWAP2 POP POP JUMP JUMPDEST PUSH0 PUSH1 0x20 DUP3 DUP5 SUB SLT ISZERO PUSH2 0x3D7 JUMPI PUSH2 0x3D6 PUSH2 0x387 JUMP JUMPDEST JUMPDEST PUSH0 PUSH2 0x3E4 DUP5 DUP3 DUP6 ADD PUSH2 0x3AE JUMP JUMPDEST SWAP2 POP POP SWAP3 SWAP2 POP POP JUMP JUMPDEST PUSH0 DUP2 MLOAD SWAP1 POP SWAP2 SWAP1 POP JUMP JUMPDEST PUSH0 DUP3 DUP3 MSTORE PUSH1 0x20 DUP3 ADD SWAP1 POP SWAP3 SWAP2 POP POP JUMP JUMPDEST PUSH0 JUMPDEST DUP4 DUP2 LT ISZERO PUSH2 0x424 JUMPI DUP1 DUP3 ADD MLOAD DUP2 DUP5 ADD MSTORE PUSH1 0x20 DUP2 ADD SWAP1 POP PUSH2 0x409 JUMP JUMPDEST PUSH0 DUP5 DUP5 ADD MSTORE POP POP POP POP JUMP JUMPDEST PUSH0 PUSH1 0x1F NOT PUSH1 0x1F DUP4 ADD AND SWAP1 POP SWAP2 SWAP1 POP JUMP JUMPDEST PUSH0 PUSH2 0x449 DUP3 PUSH2 0x3ED JUMP JUMPDEST PUSH2 0x453 DUP2 DUP6 PUSH2 0x3F7 JUMP JUMPDEST SWAP4 POP PUSH2 0x463 DUP2 DUP6 PUSH1 0x20 DUP7 ADD PUSH2 0x407 JUMP JUMPDEST PUSH2 0x46C DUP2 PUSH2 0x42F JUMP JUMPDEST DUP5 ADD SWAP2 POP POP SWAP3 SWAP2 POP POP JUMP JUMPDEST PUSH2 0x480 DUP2 PUSH2 0x38F JUMP JUMPDEST DUP3 MSTORE POP POP JUMP JUMPDEST PUSH0 DUP2 ISZERO ISZERO SWAP1 POP SWAP2 SWAP1 POP JUMP JUMPDEST PUSH2 0x49A DUP2 PUSH2 0x486 JUMP JUMPDEST DUP3 MSTORE POP POP JUMP JUMPDEST PUSH0 PUSH1 0xC0 DUP4 ADD PUSH0 DUP4 ADD MLOAD DUP5 DUP3 SUB PUSH0 DUP7 ADD MSTORE PUSH2 0x4BA DUP3 DUP3 PUSH2 0x43F JUMP JUMPDEST SWAP2 POP POP PUSH1 0x20 DUP4 ADD MLOAD PUSH2 0x4CF PUSH1 0x20 DUP7 ADD DUP3 PUSH2 0x477 JUMP JUMPDEST POP PUSH1 0x40 DUP4 ADD MLOAD PUSH2 0x4E2 PUSH1 0x40 DUP7 ADD DUP3 PUSH2 0x477 JUMP JUMPDEST POP PUSH1 0x60 DUP4 ADD MLOAD DUP5 DUP3 SUB PUSH1 0x60 DUP7 ADD MSTORE PUSH2 0x4FA DUP3 DUP3 PUSH2 0x43F JUMP JUMPDEST SWAP2 POP POP PUSH1 0x80 DUP4 ADD MLOAD DUP5 DUP3 SUB PUSH1 0x80 DUP7 ADD MSTORE PUSH2 0x514 DUP3 DUP3 PUSH2 0x43F JUMP JUMPDEST SWAP2 POP POP PUSH1 0xA0 DUP4 ADD MLOAD PUSH2 0x529 PUSH1 0xA0 DUP7 ADD DUP3 PUSH2 0x491 JUMP JUMPDEST POP DUP1 SWAP2 POP POP SWAP3 SWAP2 POP POP JUMP JUMPDEST PUSH0 PUSH1 0x20 DUP3 ADD SWAP1 POP DUP2 DUP2 SUB PUSH0 DUP4 ADD MSTORE PUSH2 0x54C DUP2 DUP5 PUSH2 0x4A0 JUMP JUMPDEST SWAP1 POP SWAP3 SWAP2 POP POP JUMP JUMPDEST PUSH0 DUP1 REVERT JUMPDEST PUSH0 DUP1 REVERT JUMPDEST PUSH32 0x4E487B7100000000000000000000000000000000000000000000000000000000 PUSH0 MSTORE PUSH1 0x41 PUSH1 0x4 MSTORE PUSH1 0x24 PUSH0 REVERT JUMPDEST PUSH2 0x592 DUP3 PUSH2 0x42F JUMP JUMPDEST DUP2 ADD DUP2 DUP2 LT PUSH8 0xFFFFFFFFFFFFFFFF DUP3 GT OR ISZERO PUSH2 0x5B1 JUMPI PUSH2 0x5B0 PUSH2 0x55C JUMP JUMPDEST JUMPDEST DUP1 PUSH1 0x40 MSTORE POP POP POP JUMP JUMPDEST PUSH0 PUSH2 0x5C3 PUSH2 0x37E JUMP JUMPDEST SWAP1 POP PUSH2 0x5CF DUP3 DUP3 PUSH2 0x589 JUMP JUMPDEST SWAP2 SWAP1 POP JUMP JUMPDEST PUSH0 PUSH8 0xFFFFFFFFFFFFFFFF DUP3 GT ISZERO PUSH2 0x5EE JUMPI PUSH2 0x5ED PUSH2 0x55C JUMP JUMPDEST JUMPDEST PUSH2 0x5F7 DUP3 PUSH2 0x42F JUMP JUMPDEST SWAP1 POP PUSH1 0x20 DUP2 ADD SWAP1 POP SWAP2 SWAP1 POP JUMP JUMPDEST DUP3 DUP2 DUP4 CALLDATACOPY PUSH0 DUP4 DUP4 ADD MSTORE POP POP POP JUMP JUMPDEST PUSH0 PUSH2 0x624 PUSH2 0x61F DUP5 PUSH2 0x5D4 JUMP JUMPDEST PUSH2 0x5BA JUMP JUMPDEST SWAP1 POP DUP3 DUP2 MSTORE PUSH1 0x20 DUP2 ADD DUP5 DUP5 DUP5 ADD GT ISZERO PUSH2 0x640 JUMPI PUSH2 0x63F PUSH2 0x558 JUMP JUMPDEST JUMPDEST PUSH2 0x64B DUP5 DUP3 DUP6 PUSH2 0x604 JUMP JUMPDEST POP SWAP4 SWAP3 POP POP POP JUMP JUMPDEST PUSH0 DUP3 PUSH1 0x1F DUP4 ADD SLT PUSH2 0x667 JUMPI PUSH2 0x666 PUSH2 0x554 JUMP JUMPDEST JUMPDEST DUP2 CALLDATALOAD PUSH2 0x677 DUP5 DUP3 PUSH1 0x20 DUP7 ADD PUSH2 0x612 JUMP JUMPDEST SWAP2 POP POP SWAP3 SWAP2 POP POP JUMP JUMPDEST PUSH2 0x689 DUP2 PUSH2 0x486 JUMP JUMPDEST DUP2 EQ PUSH2 0x693 JUMPI PUSH0 DUP1 REVERT JUMPDEST POP JUMP JUMPDEST PUSH0 DUP2 CALLDATALOAD SWAP1 POP PUSH2 0x6A4 DUP2 PUSH2 0x680 JUMP JUMPDEST SWAP3 SWAP2 POP POP JUMP JUMPDEST PUSH0 DUP1 PUSH0 DUP1 PUSH0 DUP1 PUSH0 PUSH1 0xE0 DUP9 DUP11 SUB SLT ISZERO PUSH2 0x6C5 JUMPI PUSH2 0x6C4 PUSH2 0x387 JUMP JUMPDEST JUMPDEST PUSH0 PUSH2 0x6D2 DUP11 DUP3 DUP12 ADD PUSH2 0x3AE JUMP JUMPDEST SWAP8 POP POP PUSH1 0x20 DUP9 ADD CALLDATALOAD PUSH8 0xFFFFFFFFFFFFFFFF DUP2 GT ISZERO PUSH2 0x6F3 JUMPI PUSH2 0x6F2 PUSH2 0x38B JUMP JUMPDEST JUMPDEST PUSH2 0x6FF DUP11 DUP3 DUP12 ADD PUSH2 0x653 JUMP JUMPDEST SWAP7 POP POP PUSH1 0x40 PUSH2 0x710 DUP11 DUP3 DUP12 ADD PUSH2 0x3AE JUMP JUMPDEST SWAP6 POP POP PUSH1 0x60 PUSH2 0x721 DUP11 DUP3 DUP12 ADD PUSH2 0x3AE JUMP JUMPDEST SWAP5 POP POP PUSH1 0x80 DUP9 ADD CALLDATALOAD PUSH8 0xFFFFFFFFFFFFFFFF DUP2 GT ISZERO PUSH2 0x742 JUMPI PUSH2 0x741 PUSH2 0x38B JUMP JUMPDEST JUMPDEST PUSH2 0x74E DUP11 DUP3 DUP12 ADD PUSH2 0x653 JUMP JUMPDEST SWAP4 POP POP PUSH1 0xA0 DUP9 ADD CALLDATALOAD PUSH8 0xFFFFFFFFFFFFFFFF DUP2 GT ISZERO PUSH2 0x76F JUMPI PUSH2 0x76E PUSH2 0x38B JUMP JUMPDEST JUMPDEST PUSH2 0x77B DUP11 DUP3 DUP12 ADD PUSH2 0x653 JUMP JUMPDEST SWAP3 POP POP PUSH1 0xC0 PUSH2 0x78C DUP11 DUP3 DUP12 ADD PUSH2 0x696 JUMP JUMPDEST SWAP2 POP POP SWAP3 SWAP6 SWAP9 SWAP2 SWAP5 SWAP8 POP SWAP3 SWAP6 POP JUMP JUMPDEST PUSH32 0x4E487B7100000000000000000000000000000000000000000000000000000000 PUSH0 MSTORE PUSH1 0x22 PUSH1 0x4 MSTORE PUSH1 0x24 PUSH0 REVERT JUMPDEST PUSH0 PUSH1 0x2 DUP3 DIV SWAP1 POP PUSH1 0x1 DUP3 AND DUP1 PUSH2 0x7DF JUMPI PUSH1 0x7F DUP3 AND SWAP2 POP JUMPDEST PUSH1 0x20 DUP3 LT DUP2 SUB PUSH2 0x7F2 JUMPI PUSH2 0x7F1 PUSH2 0x79B JUMP JUMPDEST JUMPDEST POP SWAP2 SWAP1 POP JUMP JUMPDEST PUSH0 DUP2 SWAP1 POP DUP2 PUSH0 MSTORE PUSH1 0x20 PUSH0 KECCAK256 SWAP1 POP SWAP2 SWAP1 POP JUMP JUMPDEST PUSH0 PUSH1 0x20 PUSH1 0x1F DUP4 ADD DIV SWAP1 POP SWAP2 SWAP1 POP JUMP JUMPDEST PUSH0 DUP3 DUP3 SHL SWAP1 POP SWAP3 SWAP2 POP POP JUMP JUMPDEST PUSH0 PUSH1 0x8 DUP4 MUL PUSH2 0x854 PUSH32 0xFFFFFFFFFFFFFFFFFFFFFFFFFFFFFFFFFFFFFFFFFFFFFFFFFFFFFFFFFFFFFFFF DUP3 PUSH2 0x819 JUMP JUMPDEST PUSH2 0x85E DUP7 DUP4 PUSH2 0x819 JUMP JUMPDEST SWAP6 POP DUP1 NOT DUP5 AND SWAP4 POP DUP1 DUP7 AND DUP5 OR SWAP3 POP POP POP SWAP4 SWAP3 POP POP POP JUMP JUMPDEST PUSH0 DUP2 SWAP1 POP SWAP2 SWAP1 POP JUMP JUMPDEST PUSH0 PUSH2 0x899 PUSH2 0x894 PUSH2 0x88F DUP5 PUSH2 0x38F JUMP JUMPDEST PUSH2 0x876 JUMP JUMPDEST PUSH2 0x38F JUMP JUMPDEST SWAP1 POP SWAP2 SWAP1 POP JUMP JUMPDEST PUSH0 DUP2 SWAP1 POP SWAP2 SWAP1 POP JUMP JUMPDEST PUSH2 0x8B2 DUP4 PUSH2 0x87F JUMP JUMPDEST PUSH2 0x8C6 PUSH2 0x8BE DUP3 PUSH2 0x8A0 JUMP JUMPDEST DUP5 DUP5 SLOAD PUSH2 0x825 JUMP JUMPDEST DUP3 SSTORE POP POP POP POP JUMP JUMPDEST PUSH0 SWAP1 JUMP JUMPDEST PUSH2 0x8DA PUSH2 0x8CE JUMP JUMPDEST PUSH2 0x8E5 DUP2 DUP5 DUP5 PUSH2 0x8A9 JUMP JUMPDEST POP POP POP JUMP JUMPDEST JUMPDEST DUP2 DUP2 LT ISZERO PUSH2 0x908 JUMPI PUSH2 0x8FD PUSH0 DUP3 PUSH2 0x8D2 JUMP JUMPDEST PUSH1 0x1 DUP2 ADD SWAP1 POP PUSH2 0x8EB JUMP JUMPDEST POP POP JUMP JUMPDEST PUSH1 0x1F DUP3 GT ISZERO PUSH2 0x94D JUMPI PUSH2 0x91E DUP2 PUSH2 0x7F8 JUMP JUMPDEST PUSH2 0x927 DUP5 PUSH2 0x80A JUMP JUMPDEST DUP2 ADD PUSH1 0x20 DUP6 LT ISZERO PUSH2 0x936 JUMPI DUP2 SWAP1 POP JUMPDEST PUSH2 0x94A PUSH2 0x942 DUP6 PUSH2 0x80A JUMP JUMPDEST DUP4 ADD DUP3 PUSH2 0x8EA JUMP JUMPDEST POP POP JUMPDEST POP POP POP JUMP JUMPDEST PUSH0 DUP3 DUP3 SHR SWAP1 POP SWAP3 SWAP2 POP POP JUMP JUMPDEST PUSH0 PUSH2 0x96D PUSH0 NOT DUP5 PUSH1 0x8 MUL PUSH2 0x952 JUMP JUMPDEST NOT DUP1 DUP4 AND SWAP2 POP POP SWAP3 SWAP2 POP POP JUMP JUMPDEST PUSH0 PUSH2 0x985 DUP4 DUP4 PUSH2 0x95E JUMP JUMPDEST SWAP2 POP DUP3 PUSH1 0x2 MUL DUP3 OR SWAP1 POP SWAP3 SWAP2 POP POP JUMP JUMPDEST PUSH2 0x99E DUP3 PUSH2 0x3ED JUMP JUMPDEST PUSH8 0xFFFFFFFFFFFFFFFF DUP2 GT ISZERO PUSH2 0x9B7 JUMPI PUSH2 0x9B6 PUSH2 0x55C JUMP JUMPDEST JUMPDEST PUSH2 0x9C1 DUP3 SLOAD PUSH2 0x7C8 JUMP JUMPDEST PUSH2 0x9CC DUP3 DUP3 DUP6 PUSH2 0x90C JUMP JUMPDEST PUSH0 PUSH1 0x20 SWAP1 POP PUSH1 0x1F DUP4 GT PUSH1 0x1 DUP2 EQ PUSH2 0x9FD JUMPI PUSH0 DUP5 ISZERO PUSH2 0x9EB JUMPI DUP3 DUP8 ADD MLOAD SWAP1 POP JUMPDEST PUSH2 0x9F5 DUP6 DUP3 PUSH2 0x97A JUMP JUMPDEST DUP7 SSTORE POP PUSH2 0xA5C JUMP JUMPDEST PUSH1 0x1F NOT DUP5 AND PUSH2 0xA0B DUP7 PUSH2 0x7F8 JUMP JUMPDEST PUSH0 JUMPDEST DUP3 DUP2 LT ISZERO PUSH2 0xA32 JUMPI DUP5 DUP10 ADD MLOAD DUP3 SSTORE PUSH1 0x1 DUP3 ADD SWAP2 POP PUSH1 0x20 DUP6 ADD SWAP5 POP PUSH1 0x20 DUP2 ADD SWAP1 POP PUSH2 0xA0D JUMP JUMPDEST DUP7 DUP4 LT ISZERO PUSH2 0xA4F JUMPI DUP5 DUP10 ADD MLOAD PUSH2 0xA4B PUSH1 0x1F DUP10 AND DUP3 PUSH2 0x95E JUMP JUMPDEST DUP4 SSTORE POP JUMPDEST PUSH1 0x1 PUSH1 0x2 DUP9 MUL ADD DUP9 SSTORE POP POP POP JUMPDEST POP POP POP POP POP POP JUMP INVALID LOG2 PUSH5 0x6970667358 0x22 SLT KECCAK256 DUP14 SWAP4 0xC1 0xD7 0x4D SHL 0xC8 RETURNDATACOPY SLOAD 0xAD ADDRESS 0xAC PUSH0 0x5E 0xC0 DUP9 DUP9 PUSH5 0xB55C11F0A0 RETURNDATACOPY 0x2F 0xDA ORIGIN 0xB5 0xD PUSH6 0x5F2864736F6C PUSH4 0x43000814 STOP CALLER "
				},
				"gasEstimates": {
					"creation": {
						"codeDepositCost": "542800",
						"executionCost": "573",
						"totalCost": "543373"
					},
					"external": {
						"addParticipant(uint256,string,uint256,uint256,string,string,bool)": "infinite",
						"getParticipant(uint256)": "infinite"
					}
				},
				"methodIdentifiers": {
					"addParticipant(uint256,string,uint256,uint256,string,string,bool)": "2a72500a",
					"getParticipant(uint256)": "1b9db2ef"
				}
			},
			"storageLayout": {
				"storage": [
					{
						"astId": 19,
						"contract": "contracts/session32.sol:SLParticipants",
						"label": "SParticipants",
						"offset": 0,
						"slot": "0",
						"type": "t_mapping(t_uint256,t_struct(Participant)14_storage)"
					}
				],
				"types": {
					"t_bool": {
						"encoding": "inplace",
						"label": "bool",
						"numberOfBytes": "1"
					},
					"t_mapping(t_uint256,t_struct(Participant)14_storage)": {
						"encoding": "mapping",
						"key": "t_uint256",
						"label": "mapping(uint256 => struct SLParticipants.Participant)",
						"numberOfBytes": "32",
						"value": "t_struct(Participant)14_storage"
					},
					"t_string_storage": {
						"encoding": "bytes",
						"label": "string",
						"numberOfBytes": "32"
					},
					"t_struct(Participant)14_storage": {
						"encoding": "inplace",
						"label": "struct SLParticipants.Participant",
						"members": [
							{
								"astId": 3,
								"contract": "contracts/session32.sol:SLParticipants",
								"label": "Pname",
								"offset": 0,
								"slot": "0",
								"type": "t_string_storage"
							},
							{
								"astId": 5,
								"contract": "contracts/session32.sol:SLParticipants",
								"label": "Page",
								"offset": 0,
								"slot": "1",
								"type": "t_uint256"
							},
							{
								"astId": 7,
								"contract": "contracts/session32.sol:SLParticipants",
								"label": "Pphoneno",
								"offset": 0,
								"slot": "2",
								"type": "t_uint256"
							},
							{
								"astId": 9,
								"contract": "contracts/session32.sol:SLParticipants",
								"label": "Pemail",
								"offset": 0,
								"slot": "3",
								"type": "t_string_storage"
							},
							{
								"astId": 11,
								"contract": "contracts/session32.sol:SLParticipants",
								"label": "courseenrolled",
								"offset": 0,
								"slot": "4",
								"type": "t_string_storage"
							},
							{
								"astId": 13,
								"contract": "contracts/session32.sol:SLParticipants",
								"label": "feepaid",
								"offset": 0,
								"slot": "5",
								"type": "t_bool"
							}
						],
						"numberOfBytes": "192"
					},
					"t_uint256": {
						"encoding": "inplace",
						"label": "uint256",
						"numberOfBytes": "32"
					}
				}
			},
			"userdoc": {
				"kind": "user",
				"methods": {},
				"version": 1
			}
		}
	}
}