{
	"contracts/newarray.sol": {
		"Test": {
			"abi": [
				{
					"inputs": [
						{
							"internalType": "uint256",
							"name": "_index",
							"type": "uint256"
						}
					],
					"name": "getStudentDetails",
					"outputs": [
						{
							"internalType": "string",
							"name": "",
							"type": "string"
						},
						{
							"internalType": "uint256",
							"name": "",
							"type": "uint256"
						}
					],
					"stateMutability": "view",
					"type": "function"
				},
				{
					"inputs": [
						{
							"internalType": "string",
							"name": "_ins_name",
							"type": "string"
						},
						{
							"internalType": "bool",
							"name": "_registered",
							"type": "bool"
						}
					],
					"name": "setInsDetails",
					"outputs": [],
					"stateMutability": "nonpayable",
					"type": "function"
				},
				{
					"inputs": [
						{
							"internalType": "string",
							"name": "_name",
							"type": "string"
						},
						{
							"internalType": "uint256",
							"name": "_age",
							"type": "uint256"
						}
					],
					"name": "setStudentDetails",
					"outputs": [],
					"stateMutability": "nonpayable",
					"type": "function"
				}
			],
			"devdoc": {
				"kind": "dev",
				"methods": {},
				"version": 1
			},
			"evm": {
				"assembly": "    /* \"contracts/newarray.sol\":59:564  contract Test{... */\n  mstore(0x40, 0x80)\n  callvalue\n  dup1\n  iszero\n  tag_1\n  jumpi\n  0x00\n  dup1\n  revert\ntag_1:\n  pop\n  dataSize(sub_0)\n  dup1\n  dataOffset(sub_0)\n  0x00\n  codecopy\n  0x00\n  return\nstop\n\nsub_0: assembly {\n        /* \"contracts/newarray.sol\":59:564  contract Test{... */\n      mstore(0x40, 0x80)\n      callvalue\n      dup1\n      iszero\n      tag_1\n      jumpi\n      0x00\n      dup1\n      revert\n    tag_1:\n      pop\n      jumpi(tag_2, lt(calldatasize, 0x04))\n      shr(0xe0, calldataload(0x00))\n      dup1\n      0x1b47af16\n      eq\n      tag_3\n      jumpi\n      dup1\n      0x86a9b364\n      eq\n      tag_4\n      jumpi\n      dup1\n      0xa7cc1582\n      eq\n      tag_5\n      jumpi\n    tag_2:\n      0x00\n      dup1\n      revert\n        /* \"contracts/newarray.sol\":160:300  function setInsDetails(string memory _ins_name,bool _registered)public{... */\n    tag_3:\n      tag_6\n      0x04\n      dup1\n      calldatasize\n      sub\n      dup2\n      add\n      swap1\n      tag_7\n      swap2\n      swap1\n      tag_8\n      jump\t// in\n    tag_7:\n      tag_9\n      jump\t// in\n    tag_6:\n      stop\n        /* \"contracts/newarray.sol\":439:561  function getStudentDetails(uint _index) public view returns(string memory,uint){... */\n    tag_4:\n      tag_10\n      0x04\n      dup1\n      calldatasize\n      sub\n      dup2\n      add\n      swap1\n      tag_11\n      swap2\n      swap1\n      tag_12\n      jump\t// in\n    tag_11:\n      tag_13\n      jump\t// in\n    tag_10:\n      mload(0x40)\n      tag_14\n      swap3\n      swap2\n      swap1\n      tag_15\n      jump\t// in\n    tag_14:\n      mload(0x40)\n      dup1\n      swap2\n      sub\n      swap1\n      return\n        /* \"contracts/newarray.sol\":306:437  function setStudentDetails(string memory _name,uint _age)public{... */\n    tag_5:\n      tag_16\n      0x04\n      dup1\n      calldatasize\n      sub\n      dup2\n      add\n      swap1\n      tag_17\n      swap2\n      swap1\n      tag_18\n      jump\t// in\n    tag_17:\n      tag_19\n      jump\t// in\n    tag_16:\n      stop\n        /* \"contracts/newarray.sol\":160:300  function setInsDetails(string memory _ins_name,bool _registered)public{... */\n    tag_9:\n        /* \"contracts/newarray.sol\":250:259  _ins_name */\n      dup2\n        /* \"contracts/newarray.sol\":241:249  ins_name */\n      0x00\n        /* \"contracts/newarray.sol\":241:259  ins_name=_ins_name */\n      swap1\n      dup2\n      tag_21\n      swap2\n      swap1\n      tag_22\n      jump\t// in\n    tag_21:\n      pop\n        /* \"contracts/newarray.sol\":281:292  _registered */\n      dup1\n        /* \"contracts/newarray.sol\":270:280  registered */\n      0x02\n      0x00\n        /* \"contracts/newarray.sol\":270:292  registered=_registered */\n      0x0100\n      exp\n      dup2\n      sload\n      dup2\n      0xff\n      mul\n      not\n      and\n      swap1\n      dup4\n      iszero\n      iszero\n      mul\n      or\n      swap1\n      sstore\n      pop\n        /* \"contracts/newarray.sol\":160:300  function setInsDetails(string memory _ins_name,bool _registered)public{... */\n      pop\n      pop\n      jump\t// out\n        /* \"contracts/newarray.sol\":439:561  function getStudentDetails(uint _index) public view returns(string memory,uint){... */\n    tag_13:\n        /* \"contracts/newarray.sol\":499:512  string memory */\n      0x60\n        /* \"contracts/newarray.sol\":513:517  uint */\n      0x00\n        /* \"contracts/newarray.sol\":532:536  name */\n      0x01\n        /* \"contracts/newarray.sol\":537:543  _index */\n      dup4\n        /* \"contracts/newarray.sol\":532:544  name[_index] */\n      dup2\n      sload\n      dup2\n      lt\n      tag_24\n      jumpi\n      tag_25\n      tag_26\n      jump\t// in\n    tag_25:\n    tag_24:\n      swap1\n      0x00\n      mstore\n      keccak256(0x00, 0x20)\n      add\n        /* \"contracts/newarray.sol\":545:548  age */\n      0x03\n        /* \"contracts/newarray.sol\":549:555  _index */\n      dup5\n        /* \"contracts/newarray.sol\":545:556  age[_index] */\n      dup2\n      sload\n      dup2\n      lt\n      tag_28\n      jumpi\n      tag_29\n      tag_26\n      jump\t// in\n    tag_29:\n    tag_28:\n      swap1\n      0x00\n      mstore\n      keccak256(0x00, 0x20)\n      add\n      sload\n        /* \"contracts/newarray.sol\":525:557  return(name[_index],age[_index]) */\n      dup2\n      dup1\n      sload\n      tag_31\n      swap1\n      tag_32\n      jump\t// in\n    tag_31:\n      dup1\n      0x1f\n      add\n      0x20\n      dup1\n      swap2\n      div\n      mul\n      0x20\n      add\n      mload(0x40)\n      swap1\n      dup2\n      add\n      0x40\n      mstore\n      dup1\n      swap3\n      swap2\n      swap1\n      dup2\n      dup2\n      mstore\n      0x20\n      add\n      dup3\n      dup1\n      sload\n      tag_33\n      swap1\n      tag_32\n      jump\t// in\n    tag_33:\n      dup1\n      iszero\n      tag_34\n      jumpi\n      dup1\n      0x1f\n      lt\n      tag_35\n      jumpi\n      0x0100\n      dup1\n      dup4\n      sload\n      div\n      mul\n      dup4\n      mstore\n      swap2\n      0x20\n      add\n      swap2\n      jump(tag_34)\n    tag_35:\n      dup3\n      add\n      swap2\n      swap1\n      0x00\n      mstore\n      keccak256(0x00, 0x20)\n      swap1\n    tag_36:\n      dup2\n      sload\n      dup2\n      mstore\n      swap1\n      0x01\n      add\n      swap1\n      0x20\n      add\n      dup1\n      dup4\n      gt\n      tag_36\n      jumpi\n      dup3\n      swap1\n      sub\n      0x1f\n      and\n      dup3\n      add\n      swap2\n    tag_34:\n      pop\n      pop\n      pop\n      pop\n      pop\n      swap2\n      pop\n      swap2\n      pop\n      swap2\n      pop\n        /* \"contracts/newarray.sol\":439:561  function getStudentDetails(uint _index) public view returns(string memory,uint){... */\n      swap2\n      pop\n      swap2\n      jump\t// out\n        /* \"contracts/newarray.sol\":306:437  function setStudentDetails(string memory _name,uint _age)public{... */\n    tag_19:\n        /* \"contracts/newarray.sol\":384:388  name */\n      0x01\n        /* \"contracts/newarray.sol\":394:399  _name */\n      dup3\n        /* \"contracts/newarray.sol\":384:400  name.push(_name) */\n      swap1\n      dup1\n      0x01\n      dup2\n      sload\n      add\n      dup1\n      dup3\n      sstore\n      dup1\n      swap2\n      pop\n      pop\n      0x01\n      swap1\n      sub\n      swap1\n      0x00\n      mstore\n      keccak256(0x00, 0x20)\n      add\n      0x00\n      swap1\n      swap2\n      swap1\n      swap2\n      swap1\n      swap2\n      pop\n      swap1\n      dup2\n      tag_39\n      swap2\n      swap1\n      tag_22\n      jump\t// in\n    tag_39:\n      pop\n        /* \"contracts/newarray.sol\":415:418  age */\n      0x03\n        /* \"contracts/newarray.sol\":424:428  _age */\n      dup2\n        /* \"contracts/newarray.sol\":415:429  age.push(_age) */\n      swap1\n      dup1\n      0x01\n      dup2\n      sload\n      add\n      dup1\n      dup3\n      sstore\n      dup1\n      swap2\n      pop\n      pop\n      0x01\n      swap1\n      sub\n      swap1\n      0x00\n      mstore\n      keccak256(0x00, 0x20)\n      add\n      0x00\n      swap1\n      swap2\n      swap1\n      swap2\n      swap1\n      swap2\n      pop\n      sstore\n        /* \"contracts/newarray.sol\":306:437  function setStudentDetails(string memory _name,uint _age)public{... */\n      pop\n      pop\n      jump\t// out\n        /* \"#utility.yul\":7:82   */\n    tag_41:\n        /* \"#utility.yul\":40:46   */\n      0x00\n        /* \"#utility.yul\":73:75   */\n      0x40\n        /* \"#utility.yul\":67:76   */\n      mload\n        /* \"#utility.yul\":57:76   */\n      swap1\n      pop\n        /* \"#utility.yul\":7:82   */\n      swap1\n      jump\t// out\n        /* \"#utility.yul\":88:205   */\n    tag_42:\n        /* \"#utility.yul\":197:198   */\n      0x00\n        /* \"#utility.yul\":194:195   */\n      dup1\n        /* \"#utility.yul\":187:199   */\n      revert\n        /* \"#utility.yul\":211:328   */\n    tag_43:\n        /* \"#utility.yul\":320:321   */\n      0x00\n        /* \"#utility.yul\":317:318   */\n      dup1\n        /* \"#utility.yul\":310:322   */\n      revert\n        /* \"#utility.yul\":334:451   */\n    tag_44:\n        /* \"#utility.yul\":443:444   */\n      0x00\n        /* \"#utility.yul\":440:441   */\n      dup1\n        /* \"#utility.yul\":433:445   */\n      revert\n        /* \"#utility.yul\":457:574   */\n    tag_45:\n        /* \"#utility.yul\":566:567   */\n      0x00\n        /* \"#utility.yul\":563:564   */\n      dup1\n        /* \"#utility.yul\":556:568   */\n      revert\n        /* \"#utility.yul\":580:682   */\n    tag_46:\n        /* \"#utility.yul\":621:627   */\n      0x00\n        /* \"#utility.yul\":672:674   */\n      0x1f\n        /* \"#utility.yul\":668:675   */\n      not\n        /* \"#utility.yul\":663:665   */\n      0x1f\n        /* \"#utility.yul\":656:661   */\n      dup4\n        /* \"#utility.yul\":652:666   */\n      add\n        /* \"#utility.yul\":648:676   */\n      and\n        /* \"#utility.yul\":638:676   */\n      swap1\n      pop\n        /* \"#utility.yul\":580:682   */\n      swap2\n      swap1\n      pop\n      jump\t// out\n        /* \"#utility.yul\":688:868   */\n    tag_47:\n        /* \"#utility.yul\":736:813   */\n      0x4e487b7100000000000000000000000000000000000000000000000000000000\n        /* \"#utility.yul\":733:734   */\n      0x00\n        /* \"#utility.yul\":726:814   */\n      mstore\n        /* \"#utility.yul\":833:837   */\n      0x41\n        /* \"#utility.yul\":830:831   */\n      0x04\n        /* \"#utility.yul\":823:838   */\n      mstore\n        /* \"#utility.yul\":857:861   */\n      0x24\n        /* \"#utility.yul\":854:855   */\n      0x00\n        /* \"#utility.yul\":847:862   */\n      revert\n        /* \"#utility.yul\":874:1155   */\n    tag_48:\n        /* \"#utility.yul\":957:984   */\n      tag_90\n        /* \"#utility.yul\":979:983   */\n      dup3\n        /* \"#utility.yul\":957:984   */\n      tag_46\n      jump\t// in\n    tag_90:\n        /* \"#utility.yul\":949:955   */\n      dup2\n        /* \"#utility.yul\":945:985   */\n      add\n        /* \"#utility.yul\":1087:1093   */\n      dup2\n        /* \"#utility.yul\":1075:1085   */\n      dup2\n        /* \"#utility.yul\":1072:1094   */\n      lt\n        /* \"#utility.yul\":1051:1069   */\n      0xffffffffffffffff\n        /* \"#utility.yul\":1039:1049   */\n      dup3\n        /* \"#utility.yul\":1036:1070   */\n      gt\n        /* \"#utility.yul\":1033:1095   */\n      or\n        /* \"#utility.yul\":1030:1118   */\n      iszero\n      tag_91\n      jumpi\n        /* \"#utility.yul\":1098:1116   */\n      tag_92\n      tag_47\n      jump\t// in\n    tag_92:\n        /* \"#utility.yul\":1030:1118   */\n    tag_91:\n        /* \"#utility.yul\":1138:1148   */\n      dup1\n        /* \"#utility.yul\":1134:1136   */\n      0x40\n        /* \"#utility.yul\":1127:1149   */\n      mstore\n        /* \"#utility.yul\":917:1155   */\n      pop\n        /* \"#utility.yul\":874:1155   */\n      pop\n      pop\n      jump\t// out\n        /* \"#utility.yul\":1161:1290   */\n    tag_49:\n        /* \"#utility.yul\":1195:1201   */\n      0x00\n        /* \"#utility.yul\":1222:1242   */\n      tag_94\n      tag_41\n      jump\t// in\n    tag_94:\n        /* \"#utility.yul\":1212:1242   */\n      swap1\n      pop\n        /* \"#utility.yul\":1251:1284   */\n      tag_95\n        /* \"#utility.yul\":1279:1283   */\n      dup3\n        /* \"#utility.yul\":1271:1277   */\n      dup3\n        /* \"#utility.yul\":1251:1284   */\n      tag_48\n      jump\t// in\n    tag_95:\n        /* \"#utility.yul\":1161:1290   */\n      swap2\n      swap1\n      pop\n      jump\t// out\n        /* \"#utility.yul\":1296:1604   */\n    tag_50:\n        /* \"#utility.yul\":1358:1362   */\n      0x00\n        /* \"#utility.yul\":1448:1466   */\n      0xffffffffffffffff\n        /* \"#utility.yul\":1440:1446   */\n      dup3\n        /* \"#utility.yul\":1437:1467   */\n      gt\n        /* \"#utility.yul\":1434:1490   */\n      iszero\n      tag_97\n      jumpi\n        /* \"#utility.yul\":1470:1488   */\n      tag_98\n      tag_47\n      jump\t// in\n    tag_98:\n        /* \"#utility.yul\":1434:1490   */\n    tag_97:\n        /* \"#utility.yul\":1508:1537   */\n      tag_99\n        /* \"#utility.yul\":1530:1536   */\n      dup3\n        /* \"#utility.yul\":1508:1537   */\n      tag_46\n      jump\t// in\n    tag_99:\n        /* \"#utility.yul\":1500:1537   */\n      swap1\n      pop\n        /* \"#utility.yul\":1592:1596   */\n      0x20\n        /* \"#utility.yul\":1586:1590   */\n      dup2\n        /* \"#utility.yul\":1582:1597   */\n      add\n        /* \"#utility.yul\":1574:1597   */\n      swap1\n      pop\n        /* \"#utility.yul\":1296:1604   */\n      swap2\n      swap1\n      pop\n      jump\t// out\n        /* \"#utility.yul\":1610:1756   */\n    tag_51:\n        /* \"#utility.yul\":1707:1713   */\n      dup3\n        /* \"#utility.yul\":1702:1705   */\n      dup2\n        /* \"#utility.yul\":1697:1700   */\n      dup4\n        /* \"#utility.yul\":1684:1714   */\n      calldatacopy\n        /* \"#utility.yul\":1748:1749   */\n      0x00\n        /* \"#utility.yul\":1739:1745   */\n      dup4\n        /* \"#utility.yul\":1734:1737   */\n      dup4\n        /* \"#utility.yul\":1730:1746   */\n      add\n        /* \"#utility.yul\":1723:1750   */\n      mstore\n        /* \"#utility.yul\":1610:1756   */\n      pop\n      pop\n      pop\n      jump\t// out\n        /* \"#utility.yul\":1762:2187   */\n    tag_52:\n        /* \"#utility.yul\":1840:1845   */\n      0x00\n        /* \"#utility.yul\":1865:1931   */\n      tag_102\n        /* \"#utility.yul\":1881:1930   */\n      tag_103\n        /* \"#utility.yul\":1923:1929   */\n      dup5\n        /* \"#utility.yul\":1881:1930   */\n      tag_50\n      jump\t// in\n    tag_103:\n        /* \"#utility.yul\":1865:1931   */\n      tag_49\n      jump\t// in\n    tag_102:\n        /* \"#utility.yul\":1856:1931   */\n      swap1\n      pop\n        /* \"#utility.yul\":1954:1960   */\n      dup3\n        /* \"#utility.yul\":1947:1952   */\n      dup2\n        /* \"#utility.yul\":1940:1961   */\n      mstore\n        /* \"#utility.yul\":1992:1996   */\n      0x20\n        /* \"#utility.yul\":1985:1990   */\n      dup2\n        /* \"#utility.yul\":1981:1997   */\n      add\n        /* \"#utility.yul\":2030:2033   */\n      dup5\n        /* \"#utility.yul\":2021:2027   */\n      dup5\n        /* \"#utility.yul\":2016:2019   */\n      dup5\n        /* \"#utility.yul\":2012:2028   */\n      add\n        /* \"#utility.yul\":2009:2034   */\n      gt\n        /* \"#utility.yul\":2006:2118   */\n      iszero\n      tag_104\n      jumpi\n        /* \"#utility.yul\":2037:2116   */\n      tag_105\n      tag_45\n      jump\t// in\n    tag_105:\n        /* \"#utility.yul\":2006:2118   */\n    tag_104:\n        /* \"#utility.yul\":2127:2181   */\n      tag_106\n        /* \"#utility.yul\":2174:2180   */\n      dup5\n        /* \"#utility.yul\":2169:2172   */\n      dup3\n        /* \"#utility.yul\":2164:2167   */\n      dup6\n        /* \"#utility.yul\":2127:2181   */\n      tag_51\n      jump\t// in\n    tag_106:\n        /* \"#utility.yul\":1846:2187   */\n      pop\n        /* \"#utility.yul\":1762:2187   */\n      swap4\n      swap3\n      pop\n      pop\n      pop\n      jump\t// out\n        /* \"#utility.yul\":2207:2547   */\n    tag_53:\n        /* \"#utility.yul\":2263:2268   */\n      0x00\n        /* \"#utility.yul\":2312:2315   */\n      dup3\n        /* \"#utility.yul\":2305:2309   */\n      0x1f\n        /* \"#utility.yul\":2297:2303   */\n      dup4\n        /* \"#utility.yul\":2293:2310   */\n      add\n        /* \"#utility.yul\":2289:2316   */\n      slt\n        /* \"#utility.yul\":2279:2401   */\n      tag_108\n      jumpi\n        /* \"#utility.yul\":2320:2399   */\n      tag_109\n      tag_44\n      jump\t// in\n    tag_109:\n        /* \"#utility.yul\":2279:2401   */\n    tag_108:\n        /* \"#utility.yul\":2437:2443   */\n      dup2\n        /* \"#utility.yul\":2424:2444   */\n      calldataload\n        /* \"#utility.yul\":2462:2541   */\n      tag_110\n        /* \"#utility.yul\":2537:2540   */\n      dup5\n        /* \"#utility.yul\":2529:2535   */\n      dup3\n        /* \"#utility.yul\":2522:2526   */\n      0x20\n        /* \"#utility.yul\":2514:2520   */\n      dup7\n        /* \"#utility.yul\":2510:2527   */\n      add\n        /* \"#utility.yul\":2462:2541   */\n      tag_52\n      jump\t// in\n    tag_110:\n        /* \"#utility.yul\":2453:2541   */\n      swap2\n      pop\n        /* \"#utility.yul\":2269:2547   */\n      pop\n        /* \"#utility.yul\":2207:2547   */\n      swap3\n      swap2\n      pop\n      pop\n      jump\t// out\n        /* \"#utility.yul\":2553:2643   */\n    tag_54:\n        /* \"#utility.yul\":2587:2594   */\n      0x00\n        /* \"#utility.yul\":2630:2635   */\n      dup2\n        /* \"#utility.yul\":2623:2636   */\n      iszero\n        /* \"#utility.yul\":2616:2637   */\n      iszero\n        /* \"#utility.yul\":2605:2637   */\n      swap1\n      pop\n        /* \"#utility.yul\":2553:2643   */\n      swap2\n      swap1\n      pop\n      jump\t// out\n        /* \"#utility.yul\":2649:2765   */\n    tag_55:\n        /* \"#utility.yul\":2719:2740   */\n      tag_113\n        /* \"#utility.yul\":2734:2739   */\n      dup2\n        /* \"#utility.yul\":2719:2740   */\n      tag_54\n      jump\t// in\n    tag_113:\n        /* \"#utility.yul\":2712:2717   */\n      dup2\n        /* \"#utility.yul\":2709:2741   */\n      eq\n        /* \"#utility.yul\":2699:2759   */\n      tag_114\n      jumpi\n        /* \"#utility.yul\":2755:2756   */\n      0x00\n        /* \"#utility.yul\":2752:2753   */\n      dup1\n        /* \"#utility.yul\":2745:2757   */\n      revert\n        /* \"#utility.yul\":2699:2759   */\n    tag_114:\n        /* \"#utility.yul\":2649:2765   */\n      pop\n      jump\t// out\n        /* \"#utility.yul\":2771:2904   */\n    tag_56:\n        /* \"#utility.yul\":2814:2819   */\n      0x00\n        /* \"#utility.yul\":2852:2858   */\n      dup2\n        /* \"#utility.yul\":2839:2859   */\n      calldataload\n        /* \"#utility.yul\":2830:2859   */\n      swap1\n      pop\n        /* \"#utility.yul\":2868:2898   */\n      tag_116\n        /* \"#utility.yul\":2892:2897   */\n      dup2\n        /* \"#utility.yul\":2868:2898   */\n      tag_55\n      jump\t// in\n    tag_116:\n        /* \"#utility.yul\":2771:2904   */\n      swap3\n      swap2\n      pop\n      pop\n      jump\t// out\n        /* \"#utility.yul\":2910:3558   */\n    tag_8:\n        /* \"#utility.yul\":2985:2991   */\n      0x00\n        /* \"#utility.yul\":2993:2999   */\n      dup1\n        /* \"#utility.yul\":3042:3044   */\n      0x40\n        /* \"#utility.yul\":3030:3039   */\n      dup4\n        /* \"#utility.yul\":3021:3028   */\n      dup6\n        /* \"#utility.yul\":3017:3040   */\n      sub\n        /* \"#utility.yul\":3013:3045   */\n      slt\n        /* \"#utility.yul\":3010:3129   */\n      iszero\n      tag_118\n      jumpi\n        /* \"#utility.yul\":3048:3127   */\n      tag_119\n      tag_42\n      jump\t// in\n    tag_119:\n        /* \"#utility.yul\":3010:3129   */\n    tag_118:\n        /* \"#utility.yul\":3196:3197   */\n      0x00\n        /* \"#utility.yul\":3185:3194   */\n      dup4\n        /* \"#utility.yul\":3181:3198   */\n      add\n        /* \"#utility.yul\":3168:3199   */\n      calldataload\n        /* \"#utility.yul\":3226:3244   */\n      0xffffffffffffffff\n        /* \"#utility.yul\":3218:3224   */\n      dup2\n        /* \"#utility.yul\":3215:3245   */\n      gt\n        /* \"#utility.yul\":3212:3329   */\n      iszero\n      tag_120\n      jumpi\n        /* \"#utility.yul\":3248:3327   */\n      tag_121\n      tag_43\n      jump\t// in\n    tag_121:\n        /* \"#utility.yul\":3212:3329   */\n    tag_120:\n        /* \"#utility.yul\":3353:3416   */\n      tag_122\n        /* \"#utility.yul\":3408:3415   */\n      dup6\n        /* \"#utility.yul\":3399:3405   */\n      dup3\n        /* \"#utility.yul\":3388:3397   */\n      dup7\n        /* \"#utility.yul\":3384:3406   */\n      add\n        /* \"#utility.yul\":3353:3416   */\n      tag_53\n      jump\t// in\n    tag_122:\n        /* \"#utility.yul\":3343:3416   */\n      swap3\n      pop\n        /* \"#utility.yul\":3139:3426   */\n      pop\n        /* \"#utility.yul\":3465:3467   */\n      0x20\n        /* \"#utility.yul\":3491:3541   */\n      tag_123\n        /* \"#utility.yul\":3533:3540   */\n      dup6\n        /* \"#utility.yul\":3524:3530   */\n      dup3\n        /* \"#utility.yul\":3513:3522   */\n      dup7\n        /* \"#utility.yul\":3509:3531   */\n      add\n        /* \"#utility.yul\":3491:3541   */\n      tag_56\n      jump\t// in\n    tag_123:\n        /* \"#utility.yul\":3481:3541   */\n      swap2\n      pop\n        /* \"#utility.yul\":3436:3551   */\n      pop\n        /* \"#utility.yul\":2910:3558   */\n      swap3\n      pop\n      swap3\n      swap1\n      pop\n      jump\t// out\n        /* \"#utility.yul\":3564:3641   */\n    tag_57:\n        /* \"#utility.yul\":3601:3608   */\n      0x00\n        /* \"#utility.yul\":3630:3635   */\n      dup2\n        /* \"#utility.yul\":3619:3635   */\n      swap1\n      pop\n        /* \"#utility.yul\":3564:3641   */\n      swap2\n      swap1\n      pop\n      jump\t// out\n        /* \"#utility.yul\":3647:3769   */\n    tag_58:\n        /* \"#utility.yul\":3720:3744   */\n      tag_126\n        /* \"#utility.yul\":3738:3743   */\n      dup2\n        /* \"#utility.yul\":3720:3744   */\n      tag_57\n      jump\t// in\n    tag_126:\n        /* \"#utility.yul\":3713:3718   */\n      dup2\n        /* \"#utility.yul\":3710:3745   */\n      eq\n        /* \"#utility.yul\":3700:3763   */\n      tag_127\n      jumpi\n        /* \"#utility.yul\":3759:3760   */\n      0x00\n        /* \"#utility.yul\":3756:3757   */\n      dup1\n        /* \"#utility.yul\":3749:3761   */\n      revert\n        /* \"#utility.yul\":3700:3763   */\n    tag_127:\n        /* \"#utility.yul\":3647:3769   */\n      pop\n      jump\t// out\n        /* \"#utility.yul\":3775:3914   */\n    tag_59:\n        /* \"#utility.yul\":3821:3826   */\n      0x00\n        /* \"#utility.yul\":3859:3865   */\n      dup2\n        /* \"#utility.yul\":3846:3866   */\n      calldataload\n        /* \"#utility.yul\":3837:3866   */\n      swap1\n      pop\n        /* \"#utility.yul\":3875:3908   */\n      tag_129\n        /* \"#utility.yul\":3902:3907   */\n      dup2\n        /* \"#utility.yul\":3875:3908   */\n      tag_58\n      jump\t// in\n    tag_129:\n        /* \"#utility.yul\":3775:3914   */\n      swap3\n      swap2\n      pop\n      pop\n      jump\t// out\n        /* \"#utility.yul\":3920:4249   */\n    tag_12:\n        /* \"#utility.yul\":3979:3985   */\n      0x00\n        /* \"#utility.yul\":4028:4030   */\n      0x20\n        /* \"#utility.yul\":4016:4025   */\n      dup3\n        /* \"#utility.yul\":4007:4014   */\n      dup5\n        /* \"#utility.yul\":4003:4026   */\n      sub\n        /* \"#utility.yul\":3999:4031   */\n      slt\n        /* \"#utility.yul\":3996:4115   */\n      iszero\n      tag_131\n      jumpi\n        /* \"#utility.yul\":4034:4113   */\n      tag_132\n      tag_42\n      jump\t// in\n    tag_132:\n        /* \"#utility.yul\":3996:4115   */\n    tag_131:\n        /* \"#utility.yul\":4154:4155   */\n      0x00\n        /* \"#utility.yul\":4179:4232   */\n      tag_133\n        /* \"#utility.yul\":4224:4231   */\n      dup5\n        /* \"#utility.yul\":4215:4221   */\n      dup3\n        /* \"#utility.yul\":4204:4213   */\n      dup6\n        /* \"#utility.yul\":4200:4222   */\n      add\n        /* \"#utility.yul\":4179:4232   */\n      tag_59\n      jump\t// in\n    tag_133:\n        /* \"#utility.yul\":4169:4232   */\n      swap2\n      pop\n        /* \"#utility.yul\":4125:4242   */\n      pop\n        /* \"#utility.yul\":3920:4249   */\n      swap3\n      swap2\n      pop\n      pop\n      jump\t// out\n        /* \"#utility.yul\":4255:4354   */\n    tag_60:\n        /* \"#utility.yul\":4307:4313   */\n      0x00\n        /* \"#utility.yul\":4341:4346   */\n      dup2\n        /* \"#utility.yul\":4335:4347   */\n      mload\n        /* \"#utility.yul\":4325:4347   */\n      swap1\n      pop\n        /* \"#utility.yul\":4255:4354   */\n      swap2\n      swap1\n      pop\n      jump\t// out\n        /* \"#utility.yul\":4360:4529   */\n    tag_61:\n        /* \"#utility.yul\":4444:4455   */\n      0x00\n        /* \"#utility.yul\":4478:4484   */\n      dup3\n        /* \"#utility.yul\":4473:4476   */\n      dup3\n        /* \"#utility.yul\":4466:4485   */\n      mstore\n        /* \"#utility.yul\":4518:4522   */\n      0x20\n        /* \"#utility.yul\":4513:4516   */\n      dup3\n        /* \"#utility.yul\":4509:4523   */\n      add\n        /* \"#utility.yul\":4494:4523   */\n      swap1\n      pop\n        /* \"#utility.yul\":4360:4529   */\n      swap3\n      swap2\n      pop\n      pop\n      jump\t// out\n        /* \"#utility.yul\":4535:4781   */\n    tag_62:\n        /* \"#utility.yul\":4616:4617   */\n      0x00\n        /* \"#utility.yul\":4626:4739   */\n    tag_137:\n        /* \"#utility.yul\":4640:4646   */\n      dup4\n        /* \"#utility.yul\":4637:4638   */\n      dup2\n        /* \"#utility.yul\":4634:4647   */\n      lt\n        /* \"#utility.yul\":4626:4739   */\n      iszero\n      tag_139\n      jumpi\n        /* \"#utility.yul\":4725:4726   */\n      dup1\n        /* \"#utility.yul\":4720:4723   */\n      dup3\n        /* \"#utility.yul\":4716:4727   */\n      add\n        /* \"#utility.yul\":4710:4728   */\n      mload\n        /* \"#utility.yul\":4706:4707   */\n      dup2\n        /* \"#utility.yul\":4701:4704   */\n      dup5\n        /* \"#utility.yul\":4697:4708   */\n      add\n        /* \"#utility.yul\":4690:4729   */\n      mstore\n        /* \"#utility.yul\":4662:4664   */\n      0x20\n        /* \"#utility.yul\":4659:4660   */\n      dup2\n        /* \"#utility.yul\":4655:4665   */\n      add\n        /* \"#utility.yul\":4650:4665   */\n      swap1\n      pop\n        /* \"#utility.yul\":4626:4739   */\n      jump(tag_137)\n    tag_139:\n        /* \"#utility.yul\":4773:4774   */\n      0x00\n        /* \"#utility.yul\":4764:4770   */\n      dup5\n        /* \"#utility.yul\":4759:4762   */\n      dup5\n        /* \"#utility.yul\":4755:4771   */\n      add\n        /* \"#utility.yul\":4748:4775   */\n      mstore\n        /* \"#utility.yul\":4597:4781   */\n      pop\n        /* \"#utility.yul\":4535:4781   */\n      pop\n      pop\n      pop\n      jump\t// out\n        /* \"#utility.yul\":4787:5164   */\n    tag_63:\n        /* \"#utility.yul\":4875:4878   */\n      0x00\n        /* \"#utility.yul\":4903:4942   */\n      tag_141\n        /* \"#utility.yul\":4936:4941   */\n      dup3\n        /* \"#utility.yul\":4903:4942   */\n      tag_60\n      jump\t// in\n    tag_141:\n        /* \"#utility.yul\":4958:5029   */\n      tag_142\n        /* \"#utility.yul\":5022:5028   */\n      dup2\n        /* \"#utility.yul\":5017:5020   */\n      dup6\n        /* \"#utility.yul\":4958:5029   */\n      tag_61\n      jump\t// in\n    tag_142:\n        /* \"#utility.yul\":4951:5029   */\n      swap4\n      pop\n        /* \"#utility.yul\":5038:5103   */\n      tag_143\n        /* \"#utility.yul\":5096:5102   */\n      dup2\n        /* \"#utility.yul\":5091:5094   */\n      dup6\n        /* \"#utility.yul\":5084:5088   */\n      0x20\n        /* \"#utility.yul\":5077:5082   */\n      dup7\n        /* \"#utility.yul\":5073:5089   */\n      add\n        /* \"#utility.yul\":5038:5103   */\n      tag_62\n      jump\t// in\n    tag_143:\n        /* \"#utility.yul\":5128:5157   */\n      tag_144\n        /* \"#utility.yul\":5150:5156   */\n      dup2\n        /* \"#utility.yul\":5128:5157   */\n      tag_46\n      jump\t// in\n    tag_144:\n        /* \"#utility.yul\":5123:5126   */\n      dup5\n        /* \"#utility.yul\":5119:5158   */\n      add\n        /* \"#utility.yul\":5112:5158   */\n      swap2\n      pop\n        /* \"#utility.yul\":4879:5164   */\n      pop\n        /* \"#utility.yul\":4787:5164   */\n      swap3\n      swap2\n      pop\n      pop\n      jump\t// out\n        /* \"#utility.yul\":5170:5288   */\n    tag_64:\n        /* \"#utility.yul\":5257:5281   */\n      tag_146\n        /* \"#utility.yul\":5275:5280   */\n      dup2\n        /* \"#utility.yul\":5257:5281   */\n      tag_57\n      jump\t// in\n    tag_146:\n        /* \"#utility.yul\":5252:5255   */\n      dup3\n        /* \"#utility.yul\":5245:5282   */\n      mstore\n        /* \"#utility.yul\":5170:5288   */\n      pop\n      pop\n      jump\t// out\n        /* \"#utility.yul\":5294:5717   */\n    tag_15:\n        /* \"#utility.yul\":5435:5439   */\n      0x00\n        /* \"#utility.yul\":5473:5475   */\n      0x40\n        /* \"#utility.yul\":5462:5471   */\n      dup3\n        /* \"#utility.yul\":5458:5476   */\n      add\n        /* \"#utility.yul\":5450:5476   */\n      swap1\n      pop\n        /* \"#utility.yul\":5522:5531   */\n      dup2\n        /* \"#utility.yul\":5516:5520   */\n      dup2\n        /* \"#utility.yul\":5512:5532   */\n      sub\n        /* \"#utility.yul\":5508:5509   */\n      0x00\n        /* \"#utility.yul\":5497:5506   */\n      dup4\n        /* \"#utility.yul\":5493:5510   */\n      add\n        /* \"#utility.yul\":5486:5533   */\n      mstore\n        /* \"#utility.yul\":5550:5628   */\n      tag_148\n        /* \"#utility.yul\":5623:5627   */\n      dup2\n        /* \"#utility.yul\":5614:5620   */\n      dup6\n        /* \"#utility.yul\":5550:5628   */\n      tag_63\n      jump\t// in\n    tag_148:\n        /* \"#utility.yul\":5542:5628   */\n      swap1\n      pop\n        /* \"#utility.yul\":5638:5710   */\n      tag_149\n        /* \"#utility.yul\":5706:5708   */\n      0x20\n        /* \"#utility.yul\":5695:5704   */\n      dup4\n        /* \"#utility.yul\":5691:5709   */\n      add\n        /* \"#utility.yul\":5682:5688   */\n      dup5\n        /* \"#utility.yul\":5638:5710   */\n      tag_64\n      jump\t// in\n    tag_149:\n        /* \"#utility.yul\":5294:5717   */\n      swap4\n      swap3\n      pop\n      pop\n      pop\n      jump\t// out\n        /* \"#utility.yul\":5723:6377   */\n    tag_18:\n        /* \"#utility.yul\":5801:5807   */\n      0x00\n        /* \"#utility.yul\":5809:5815   */\n      dup1\n        /* \"#utility.yul\":5858:5860   */\n      0x40\n        /* \"#utility.yul\":5846:5855   */\n      dup4\n        /* \"#utility.yul\":5837:5844   */\n      dup6\n        /* \"#utility.yul\":5833:5856   */\n      sub\n        /* \"#utility.yul\":5829:5861   */\n      slt\n        /* \"#utility.yul\":5826:5945   */\n      iszero\n      tag_151\n      jumpi\n        /* \"#utility.yul\":5864:5943   */\n      tag_152\n      tag_42\n      jump\t// in\n    tag_152:\n        /* \"#utility.yul\":5826:5945   */\n    tag_151:\n        /* \"#utility.yul\":6012:6013   */\n      0x00\n        /* \"#utility.yul\":6001:6010   */\n      dup4\n        /* \"#utility.yul\":5997:6014   */\n      add\n        /* \"#utility.yul\":5984:6015   */\n      calldataload\n        /* \"#utility.yul\":6042:6060   */\n      0xffffffffffffffff\n        /* \"#utility.yul\":6034:6040   */\n      dup2\n        /* \"#utility.yul\":6031:6061   */\n      gt\n        /* \"#utility.yul\":6028:6145   */\n      iszero\n      tag_153\n      jumpi\n        /* \"#utility.yul\":6064:6143   */\n      tag_154\n      tag_43\n      jump\t// in\n    tag_154:\n        /* \"#utility.yul\":6028:6145   */\n    tag_153:\n        /* \"#utility.yul\":6169:6232   */\n      tag_155\n        /* \"#utility.yul\":6224:6231   */\n      dup6\n        /* \"#utility.yul\":6215:6221   */\n      dup3\n        /* \"#utility.yul\":6204:6213   */\n      dup7\n        /* \"#utility.yul\":6200:6222   */\n      add\n        /* \"#utility.yul\":6169:6232   */\n      tag_53\n      jump\t// in\n    tag_155:\n        /* \"#utility.yul\":6159:6232   */\n      swap3\n      pop\n        /* \"#utility.yul\":5955:6242   */\n      pop\n        /* \"#utility.yul\":6281:6283   */\n      0x20\n        /* \"#utility.yul\":6307:6360   */\n      tag_156\n        /* \"#utility.yul\":6352:6359   */\n      dup6\n        /* \"#utility.yul\":6343:6349   */\n      dup3\n        /* \"#utility.yul\":6332:6341   */\n      dup7\n        /* \"#utility.yul\":6328:6350   */\n      add\n        /* \"#utility.yul\":6307:6360   */\n      tag_59\n      jump\t// in\n    tag_156:\n        /* \"#utility.yul\":6297:6360   */\n      swap2\n      pop\n        /* \"#utility.yul\":6252:6370   */\n      pop\n        /* \"#utility.yul\":5723:6377   */\n      swap3\n      pop\n      swap3\n      swap1\n      pop\n      jump\t// out\n        /* \"#utility.yul\":6383:6563   */\n    tag_65:\n        /* \"#utility.yul\":6431:6508   */\n      0x4e487b7100000000000000000000000000000000000000000000000000000000\n        /* \"#utility.yul\":6428:6429   */\n      0x00\n        /* \"#utility.yul\":6421:6509   */\n      mstore\n        /* \"#utility.yul\":6528:6532   */\n      0x22\n        /* \"#utility.yul\":6525:6526   */\n      0x04\n        /* \"#utility.yul\":6518:6533   */\n      mstore\n        /* \"#utility.yul\":6552:6556   */\n      0x24\n        /* \"#utility.yul\":6549:6550   */\n      0x00\n        /* \"#utility.yul\":6542:6557   */\n      revert\n        /* \"#utility.yul\":6569:6889   */\n    tag_32:\n        /* \"#utility.yul\":6613:6619   */\n      0x00\n        /* \"#utility.yul\":6650:6651   */\n      0x02\n        /* \"#utility.yul\":6644:6648   */\n      dup3\n        /* \"#utility.yul\":6640:6652   */\n      div\n        /* \"#utility.yul\":6630:6652   */\n      swap1\n      pop\n        /* \"#utility.yul\":6697:6698   */\n      0x01\n        /* \"#utility.yul\":6691:6695   */\n      dup3\n        /* \"#utility.yul\":6687:6699   */\n      and\n        /* \"#utility.yul\":6718:6736   */\n      dup1\n        /* \"#utility.yul\":6708:6789   */\n      tag_159\n      jumpi\n        /* \"#utility.yul\":6774:6778   */\n      0x7f\n        /* \"#utility.yul\":6766:6772   */\n      dup3\n        /* \"#utility.yul\":6762:6779   */\n      and\n        /* \"#utility.yul\":6752:6779   */\n      swap2\n      pop\n        /* \"#utility.yul\":6708:6789   */\n    tag_159:\n        /* \"#utility.yul\":6836:6838   */\n      0x20\n        /* \"#utility.yul\":6828:6834   */\n      dup3\n        /* \"#utility.yul\":6825:6839   */\n      lt\n        /* \"#utility.yul\":6805:6823   */\n      dup2\n        /* \"#utility.yul\":6802:6840   */\n      sub\n        /* \"#utility.yul\":6799:6883   */\n      tag_160\n      jumpi\n        /* \"#utility.yul\":6855:6873   */\n      tag_161\n      tag_65\n      jump\t// in\n    tag_161:\n        /* \"#utility.yul\":6799:6883   */\n    tag_160:\n        /* \"#utility.yul\":6620:6889   */\n      pop\n        /* \"#utility.yul\":6569:6889   */\n      swap2\n      swap1\n      pop\n      jump\t// out\n        /* \"#utility.yul\":6895:7036   */\n    tag_66:\n        /* \"#utility.yul\":6944:6948   */\n      0x00\n        /* \"#utility.yul\":6967:6970   */\n      dup2\n        /* \"#utility.yul\":6959:6970   */\n      swap1\n      pop\n        /* \"#utility.yul\":6990:6993   */\n      dup2\n        /* \"#utility.yul\":6987:6988   */\n      0x00\n        /* \"#utility.yul\":6980:6994   */\n      mstore\n        /* \"#utility.yul\":7024:7028   */\n      0x20\n        /* \"#utility.yul\":7021:7022   */\n      0x00\n        /* \"#utility.yul\":7011:7029   */\n      keccak256\n        /* \"#utility.yul\":7003:7029   */\n      swap1\n      pop\n        /* \"#utility.yul\":6895:7036   */\n      swap2\n      swap1\n      pop\n      jump\t// out\n        /* \"#utility.yul\":7042:7135   */\n    tag_67:\n        /* \"#utility.yul\":7079:7085   */\n      0x00\n        /* \"#utility.yul\":7126:7128   */\n      0x20\n        /* \"#utility.yul\":7121:7123   */\n      0x1f\n        /* \"#utility.yul\":7114:7119   */\n      dup4\n        /* \"#utility.yul\":7110:7124   */\n      add\n        /* \"#utility.yul\":7106:7129   */\n      div\n        /* \"#utility.yul\":7096:7129   */\n      swap1\n      pop\n        /* \"#utility.yul\":7042:7135   */\n      swap2\n      swap1\n      pop\n      jump\t// out\n        /* \"#utility.yul\":7141:7248   */\n    tag_68:\n        /* \"#utility.yul\":7185:7193   */\n      0x00\n        /* \"#utility.yul\":7235:7240   */\n      dup3\n        /* \"#utility.yul\":7229:7233   */\n      dup3\n        /* \"#utility.yul\":7225:7241   */\n      shl\n        /* \"#utility.yul\":7204:7241   */\n      swap1\n      pop\n        /* \"#utility.yul\":7141:7248   */\n      swap3\n      swap2\n      pop\n      pop\n      jump\t// out\n        /* \"#utility.yul\":7254:7647   */\n    tag_69:\n        /* \"#utility.yul\":7323:7329   */\n      0x00\n        /* \"#utility.yul\":7373:7374   */\n      0x08\n        /* \"#utility.yul\":7361:7371   */\n      dup4\n        /* \"#utility.yul\":7357:7375   */\n      mul\n        /* \"#utility.yul\":7396:7493   */\n      tag_166\n        /* \"#utility.yul\":7426:7492   */\n      0xffffffffffffffffffffffffffffffffffffffffffffffffffffffffffffffff\n        /* \"#utility.yul\":7415:7424   */\n      dup3\n        /* \"#utility.yul\":7396:7493   */\n      tag_68\n      jump\t// in\n    tag_166:\n        /* \"#utility.yul\":7514:7553   */\n      tag_167\n        /* \"#utility.yul\":7544:7552   */\n      dup7\n        /* \"#utility.yul\":7533:7542   */\n      dup4\n        /* \"#utility.yul\":7514:7553   */\n      tag_68\n      jump\t// in\n    tag_167:\n        /* \"#utility.yul\":7502:7553   */\n      swap6\n      pop\n        /* \"#utility.yul\":7586:7590   */\n      dup1\n        /* \"#utility.yul\":7582:7591   */\n      not\n        /* \"#utility.yul\":7575:7580   */\n      dup5\n        /* \"#utility.yul\":7571:7592   */\n      and\n        /* \"#utility.yul\":7562:7592   */\n      swap4\n      pop\n        /* \"#utility.yul\":7635:7639   */\n      dup1\n        /* \"#utility.yul\":7625:7633   */\n      dup7\n        /* \"#utility.yul\":7621:7640   */\n      and\n        /* \"#utility.yul\":7614:7619   */\n      dup5\n        /* \"#utility.yul\":7611:7641   */\n      or\n        /* \"#utility.yul\":7601:7641   */\n      swap3\n      pop\n        /* \"#utility.yul\":7330:7647   */\n      pop\n      pop\n        /* \"#utility.yul\":7254:7647   */\n      swap4\n      swap3\n      pop\n      pop\n      pop\n      jump\t// out\n        /* \"#utility.yul\":7653:7713   */\n    tag_70:\n        /* \"#utility.yul\":7681:7684   */\n      0x00\n        /* \"#utility.yul\":7702:7707   */\n      dup2\n        /* \"#utility.yul\":7695:7707   */\n      swap1\n      pop\n        /* \"#utility.yul\":7653:7713   */\n      swap2\n      swap1\n      pop\n      jump\t// out\n        /* \"#utility.yul\":7719:7861   */\n    tag_71:\n        /* \"#utility.yul\":7769:7778   */\n      0x00\n        /* \"#utility.yul\":7802:7855   */\n      tag_170\n        /* \"#utility.yul\":7820:7854   */\n      tag_171\n        /* \"#utility.yul\":7829:7853   */\n      tag_172\n        /* \"#utility.yul\":7847:7852   */\n      dup5\n        /* \"#utility.yul\":7829:7853   */\n      tag_57\n      jump\t// in\n    tag_172:\n        /* \"#utility.yul\":7820:7854   */\n      tag_70\n      jump\t// in\n    tag_171:\n        /* \"#utility.yul\":7802:7855   */\n      tag_57\n      jump\t// in\n    tag_170:\n        /* \"#utility.yul\":7789:7855   */\n      swap1\n      pop\n        /* \"#utility.yul\":7719:7861   */\n      swap2\n      swap1\n      pop\n      jump\t// out\n        /* \"#utility.yul\":7867:7942   */\n    tag_72:\n        /* \"#utility.yul\":7910:7913   */\n      0x00\n        /* \"#utility.yul\":7931:7936   */\n      dup2\n        /* \"#utility.yul\":7924:7936   */\n      swap1\n      pop\n        /* \"#utility.yul\":7867:7942   */\n      swap2\n      swap1\n      pop\n      jump\t// out\n        /* \"#utility.yul\":7948:8217   */\n    tag_73:\n        /* \"#utility.yul\":8058:8097   */\n      tag_175\n        /* \"#utility.yul\":8089:8096   */\n      dup4\n        /* \"#utility.yul\":8058:8097   */\n      tag_71\n      jump\t// in\n    tag_175:\n        /* \"#utility.yul\":8119:8210   */\n      tag_176\n        /* \"#utility.yul\":8168:8209   */\n      tag_177\n        /* \"#utility.yul\":8192:8208   */\n      dup3\n        /* \"#utility.yul\":8168:8209   */\n      tag_72\n      jump\t// in\n    tag_177:\n        /* \"#utility.yul\":8160:8166   */\n      dup5\n        /* \"#utility.yul\":8153:8157   */\n      dup5\n        /* \"#utility.yul\":8147:8158   */\n      sload\n        /* \"#utility.yul\":8119:8210   */\n      tag_69\n      jump\t// in\n    tag_176:\n        /* \"#utility.yul\":8113:8117   */\n      dup3\n        /* \"#utility.yul\":8106:8211   */\n      sstore\n        /* \"#utility.yul\":8024:8217   */\n      pop\n        /* \"#utility.yul\":7948:8217   */\n      pop\n      pop\n      pop\n      jump\t// out\n        /* \"#utility.yul\":8223:8296   */\n    tag_74:\n        /* \"#utility.yul\":8268:8271   */\n      0x00\n        /* \"#utility.yul\":8223:8296   */\n      swap1\n      jump\t// out\n        /* \"#utility.yul\":8302:8491   */\n    tag_75:\n        /* \"#utility.yul\":8379:8411   */\n      tag_180\n      tag_74\n      jump\t// in\n    tag_180:\n        /* \"#utility.yul\":8420:8485   */\n      tag_181\n        /* \"#utility.yul\":8478:8484   */\n      dup2\n        /* \"#utility.yul\":8470:8476   */\n      dup5\n        /* \"#utility.yul\":8464:8468   */\n      dup5\n        /* \"#utility.yul\":8420:8485   */\n      tag_73\n      jump\t// in\n    tag_181:\n        /* \"#utility.yul\":8355:8491   */\n      pop\n        /* \"#utility.yul\":8302:8491   */\n      pop\n      pop\n      jump\t// out\n        /* \"#utility.yul\":8497:8683   */\n    tag_76:\n        /* \"#utility.yul\":8557:8677   */\n    tag_183:\n        /* \"#utility.yul\":8574:8577   */\n      dup2\n        /* \"#utility.yul\":8567:8572   */\n      dup2\n        /* \"#utility.yul\":8564:8578   */\n      lt\n        /* \"#utility.yul\":8557:8677   */\n      iszero\n      tag_185\n      jumpi\n        /* \"#utility.yul\":8628:8667   */\n      tag_186\n        /* \"#utility.yul\":8665:8666   */\n      0x00\n        /* \"#utility.yul\":8658:8663   */\n      dup3\n        /* \"#utility.yul\":8628:8667   */\n      tag_75\n      jump\t// in\n    tag_186:\n        /* \"#utility.yul\":8601:8602   */\n      0x01\n        /* \"#utility.yul\":8594:8599   */\n      dup2\n        /* \"#utility.yul\":8590:8603   */\n      add\n        /* \"#utility.yul\":8581:8603   */\n      swap1\n      pop\n        /* \"#utility.yul\":8557:8677   */\n      jump(tag_183)\n    tag_185:\n        /* \"#utility.yul\":8497:8683   */\n      pop\n      pop\n      jump\t// out\n        /* \"#utility.yul\":8689:9232   */\n    tag_77:\n        /* \"#utility.yul\":8790:8792   */\n      0x1f\n        /* \"#utility.yul\":8785:8788   */\n      dup3\n        /* \"#utility.yul\":8782:8793   */\n      gt\n        /* \"#utility.yul\":8779:9225   */\n      iszero\n      tag_188\n      jumpi\n        /* \"#utility.yul\":8824:8862   */\n      tag_189\n        /* \"#utility.yul\":8856:8861   */\n      dup2\n        /* \"#utility.yul\":8824:8862   */\n      tag_66\n      jump\t// in\n    tag_189:\n        /* \"#utility.yul\":8908:8937   */\n      tag_190\n        /* \"#utility.yul\":8926:8936   */\n      dup5\n        /* \"#utility.yul\":8908:8937   */\n      tag_67\n      jump\t// in\n    tag_190:\n        /* \"#utility.yul\":8898:8906   */\n      dup2\n        /* \"#utility.yul\":8894:8938   */\n      add\n        /* \"#utility.yul\":9091:9093   */\n      0x20\n        /* \"#utility.yul\":9079:9089   */\n      dup6\n        /* \"#utility.yul\":9076:9094   */\n      lt\n        /* \"#utility.yul\":9073:9122   */\n      iszero\n      tag_191\n      jumpi\n        /* \"#utility.yul\":9112:9120   */\n      dup2\n        /* \"#utility.yul\":9097:9120   */\n      swap1\n      pop\n        /* \"#utility.yul\":9073:9122   */\n    tag_191:\n        /* \"#utility.yul\":9135:9215   */\n      tag_192\n        /* \"#utility.yul\":9191:9213   */\n      tag_193\n        /* \"#utility.yul\":9209:9212   */\n      dup6\n        /* \"#utility.yul\":9191:9213   */\n      tag_67\n      jump\t// in\n    tag_193:\n        /* \"#utility.yul\":9181:9189   */\n      dup4\n        /* \"#utility.yul\":9177:9214   */\n      add\n        /* \"#utility.yul\":9164:9175   */\n      dup3\n        /* \"#utility.yul\":9135:9215   */\n      tag_76\n      jump\t// in\n    tag_192:\n        /* \"#utility.yul\":8794:9225   */\n      pop\n      pop\n        /* \"#utility.yul\":8779:9225   */\n    tag_188:\n        /* \"#utility.yul\":8689:9232   */\n      pop\n      pop\n      pop\n      jump\t// out\n        /* \"#utility.yul\":9238:9355   */\n    tag_78:\n        /* \"#utility.yul\":9292:9300   */\n      0x00\n        /* \"#utility.yul\":9342:9347   */\n      dup3\n        /* \"#utility.yul\":9336:9340   */\n      dup3\n        /* \"#utility.yul\":9332:9348   */\n      shr\n        /* \"#utility.yul\":9311:9348   */\n      swap1\n      pop\n        /* \"#utility.yul\":9238:9355   */\n      swap3\n      swap2\n      pop\n      pop\n      jump\t// out\n        /* \"#utility.yul\":9361:9530   */\n    tag_79:\n        /* \"#utility.yul\":9405:9411   */\n      0x00\n        /* \"#utility.yul\":9438:9489   */\n      tag_196\n        /* \"#utility.yul\":9486:9487   */\n      0x00\n        /* \"#utility.yul\":9482:9488   */\n      not\n        /* \"#utility.yul\":9474:9479   */\n      dup5\n        /* \"#utility.yul\":9471:9472   */\n      0x08\n        /* \"#utility.yul\":9467:9480   */\n      mul\n        /* \"#utility.yul\":9438:9489   */\n      tag_78\n      jump\t// in\n    tag_196:\n        /* \"#utility.yul\":9434:9490   */\n      not\n        /* \"#utility.yul\":9519:9523   */\n      dup1\n        /* \"#utility.yul\":9513:9517   */\n      dup4\n        /* \"#utility.yul\":9509:9524   */\n      and\n        /* \"#utility.yul\":9499:9524   */\n      swap2\n      pop\n        /* \"#utility.yul\":9412:9530   */\n      pop\n        /* \"#utility.yul\":9361:9530   */\n      swap3\n      swap2\n      pop\n      pop\n      jump\t// out\n        /* \"#utility.yul\":9535:9830   */\n    tag_80:\n        /* \"#utility.yul\":9611:9615   */\n      0x00\n        /* \"#utility.yul\":9757:9786   */\n      tag_198\n        /* \"#utility.yul\":9782:9785   */\n      dup4\n        /* \"#utility.yul\":9776:9780   */\n      dup4\n        /* \"#utility.yul\":9757:9786   */\n      tag_79\n      jump\t// in\n    tag_198:\n        /* \"#utility.yul\":9749:9786   */\n      swap2\n      pop\n        /* \"#utility.yul\":9819:9822   */\n      dup3\n        /* \"#utility.yul\":9816:9817   */\n      0x02\n        /* \"#utility.yul\":9812:9823   */\n      mul\n        /* \"#utility.yul\":9806:9810   */\n      dup3\n        /* \"#utility.yul\":9803:9824   */\n      or\n        /* \"#utility.yul\":9795:9824   */\n      swap1\n      pop\n        /* \"#utility.yul\":9535:9830   */\n      swap3\n      swap2\n      pop\n      pop\n      jump\t// out\n        /* \"#utility.yul\":9835:11230   */\n    tag_22:\n        /* \"#utility.yul\":9952:9989   */\n      tag_200\n        /* \"#utility.yul\":9985:9988   */\n      dup3\n        /* \"#utility.yul\":9952:9989   */\n      tag_60\n      jump\t// in\n    tag_200:\n        /* \"#utility.yul\":10054:10072   */\n      0xffffffffffffffff\n        /* \"#utility.yul\":10046:10052   */\n      dup2\n        /* \"#utility.yul\":10043:10073   */\n      gt\n        /* \"#utility.yul\":10040:10096   */\n      iszero\n      tag_201\n      jumpi\n        /* \"#utility.yul\":10076:10094   */\n      tag_202\n      tag_47\n      jump\t// in\n    tag_202:\n        /* \"#utility.yul\":10040:10096   */\n    tag_201:\n        /* \"#utility.yul\":10120:10158   */\n      tag_203\n        /* \"#utility.yul\":10152:10156   */\n      dup3\n        /* \"#utility.yul\":10146:10157   */\n      sload\n        /* \"#utility.yul\":10120:10158   */\n      tag_32\n      jump\t// in\n    tag_203:\n        /* \"#utility.yul\":10205:10272   */\n      tag_204\n        /* \"#utility.yul\":10265:10271   */\n      dup3\n        /* \"#utility.yul\":10257:10263   */\n      dup3\n        /* \"#utility.yul\":10251:10255   */\n      dup6\n        /* \"#utility.yul\":10205:10272   */\n      tag_77\n      jump\t// in\n    tag_204:\n        /* \"#utility.yul\":10299:10300   */\n      0x00\n        /* \"#utility.yul\":10323:10327   */\n      0x20\n        /* \"#utility.yul\":10310:10327   */\n      swap1\n      pop\n        /* \"#utility.yul\":10355:10357   */\n      0x1f\n        /* \"#utility.yul\":10347:10353   */\n      dup4\n        /* \"#utility.yul\":10344:10358   */\n      gt\n        /* \"#utility.yul\":10372:10373   */\n      0x01\n        /* \"#utility.yul\":10367:10985   */\n      dup2\n      eq\n      tag_206\n      jumpi\n        /* \"#utility.yul\":11029:11030   */\n      0x00\n        /* \"#utility.yul\":11046:11052   */\n      dup5\n        /* \"#utility.yul\":11043:11120   */\n      iszero\n      tag_207\n      jumpi\n        /* \"#utility.yul\":11095:11104   */\n      dup3\n        /* \"#utility.yul\":11090:11093   */\n      dup8\n        /* \"#utility.yul\":11086:11105   */\n      add\n        /* \"#utility.yul\":11080:11106   */\n      mload\n        /* \"#utility.yul\":11071:11106   */\n      swap1\n      pop\n        /* \"#utility.yul\":11043:11120   */\n    tag_207:\n        /* \"#utility.yul\":11146:11213   */\n      tag_208\n        /* \"#utility.yul\":11206:11212   */\n      dup6\n        /* \"#utility.yul\":11199:11204   */\n      dup3\n        /* \"#utility.yul\":11146:11213   */\n      tag_80\n      jump\t// in\n    tag_208:\n        /* \"#utility.yul\":11140:11144   */\n      dup7\n        /* \"#utility.yul\":11133:11214   */\n      sstore\n        /* \"#utility.yul\":11002:11224   */\n      pop\n        /* \"#utility.yul\":10337:11224   */\n      jump(tag_205)\n        /* \"#utility.yul\":10367:10985   */\n    tag_206:\n        /* \"#utility.yul\":10419:10423   */\n      0x1f\n        /* \"#utility.yul\":10415:10424   */\n      not\n        /* \"#utility.yul\":10407:10413   */\n      dup5\n        /* \"#utility.yul\":10403:10425   */\n      and\n        /* \"#utility.yul\":10453:10490   */\n      tag_209\n        /* \"#utility.yul\":10485:10489   */\n      dup7\n        /* \"#utility.yul\":10453:10490   */\n      tag_66\n      jump\t// in\n    tag_209:\n        /* \"#utility.yul\":10512:10513   */\n      0x00\n        /* \"#utility.yul\":10526:10734   */\n    tag_210:\n        /* \"#utility.yul\":10540:10547   */\n      dup3\n        /* \"#utility.yul\":10537:10538   */\n      dup2\n        /* \"#utility.yul\":10534:10548   */\n      lt\n        /* \"#utility.yul\":10526:10734   */\n      iszero\n      tag_212\n      jumpi\n        /* \"#utility.yul\":10619:10628   */\n      dup5\n        /* \"#utility.yul\":10614:10617   */\n      dup10\n        /* \"#utility.yul\":10610:10629   */\n      add\n        /* \"#utility.yul\":10604:10630   */\n      mload\n        /* \"#utility.yul\":10596:10602   */\n      dup3\n        /* \"#utility.yul\":10589:10631   */\n      sstore\n        /* \"#utility.yul\":10670:10671   */\n      0x01\n        /* \"#utility.yul\":10662:10668   */\n      dup3\n        /* \"#utility.yul\":10658:10672   */\n      add\n        /* \"#utility.yul\":10648:10672   */\n      swap2\n      pop\n        /* \"#utility.yul\":10717:10719   */\n      0x20\n        /* \"#utility.yul\":10706:10715   */\n      dup6\n        /* \"#utility.yul\":10702:10720   */\n      add\n        /* \"#utility.yul\":10689:10720   */\n      swap5\n      pop\n        /* \"#utility.yul\":10563:10567   */\n      0x20\n        /* \"#utility.yul\":10560:10561   */\n      dup2\n        /* \"#utility.yul\":10556:10568   */\n      add\n        /* \"#utility.yul\":10551:10568   */\n      swap1\n      pop\n        /* \"#utility.yul\":10526:10734   */\n      jump(tag_210)\n    tag_212:\n        /* \"#utility.yul\":10762:10768   */\n      dup7\n        /* \"#utility.yul\":10753:10760   */\n      dup4\n        /* \"#utility.yul\":10750:10769   */\n      lt\n        /* \"#utility.yul\":10747:10926   */\n      iszero\n      tag_213\n      jumpi\n        /* \"#utility.yul\":10820:10829   */\n      dup5\n        /* \"#utility.yul\":10815:10818   */\n      dup10\n        /* \"#utility.yul\":10811:10830   */\n      add\n        /* \"#utility.yul\":10805:10831   */\n      mload\n        /* \"#utility.yul\":10863:10911   */\n      tag_214\n        /* \"#utility.yul\":10905:10909   */\n      0x1f\n        /* \"#utility.yul\":10897:10903   */\n      dup10\n        /* \"#utility.yul\":10893:10910   */\n      and\n        /* \"#utility.yul\":10882:10891   */\n      dup3\n        /* \"#utility.yul\":10863:10911   */\n      tag_79\n      jump\t// in\n    tag_214:\n        /* \"#utility.yul\":10855:10861   */\n      dup4\n        /* \"#utility.yul\":10848:10912   */\n      sstore\n        /* \"#utility.yul\":10770:10926   */\n      pop\n        /* \"#utility.yul\":10747:10926   */\n    tag_213:\n        /* \"#utility.yul\":10972:10973   */\n      0x01\n        /* \"#utility.yul\":10968:10969   */\n      0x02\n        /* \"#utility.yul\":10960:10966   */\n      dup9\n        /* \"#utility.yul\":10956:10970   */\n      mul\n        /* \"#utility.yul\":10952:10974   */\n      add\n        /* \"#utility.yul\":10946:10950   */\n      dup9\n        /* \"#utility.yul\":10939:10975   */\n      sstore\n        /* \"#utility.yul\":10374:10985   */\n      pop\n      pop\n      pop\n        /* \"#utility.yul\":10337:11224   */\n    tag_205:\n      pop\n        /* \"#utility.yul\":9927:11230   */\n      pop\n      pop\n      pop\n        /* \"#utility.yul\":9835:11230   */\n      pop\n      pop\n      jump\t// out\n        /* \"#utility.yul\":11236:11416   */\n    tag_26:\n        /* \"#utility.yul\":11284:11361   */\n      0x4e487b7100000000000000000000000000000000000000000000000000000000\n        /* \"#utility.yul\":11281:11282   */\n      0x00\n        /* \"#utility.yul\":11274:11362   */\n      mstore\n        /* \"#utility.yul\":11381:11385   */\n      0x32\n        /* \"#utility.yul\":11378:11379   */\n      0x04\n        /* \"#utility.yul\":11371:11386   */\n      mstore\n        /* \"#utility.yul\":11405:11409   */\n      0x24\n        /* \"#utility.yul\":11402:11403   */\n      0x00\n        /* \"#utility.yul\":11395:11410   */\n      revert\n\n    auxdata: 0xa26469706673582212203047e249a20ae9a3c10485d5382fe45826e952a94de894101e555af04235c27b64736f6c63430008140033\n}\n",
				"bytecode": {
					"linkReferences": {},
					"object": "608060405234801561000f575f80fd5b5061087a8061001d5f395ff3fe608060405234801561000f575f80fd5b506004361061003f575f3560e01c80631b47af161461004357806386a9b3641461005f578063a7cc158214610090575b5f80fd5b61005d60048036038101906100589190610385565b6100ac565b005b61007960048036038101906100749190610412565b6100d8565b6040516100879291906104c6565b60405180910390f35b6100aa60048036038101906100a591906104f4565b6101a7565b005b815f90816100ba9190610748565b508060025f6101000a81548160ff0219169083151502179055505050565b60605f600183815481106100ef576100ee610817565b5b905f5260205f20016003848154811061010b5761010a610817565b5b905f5260205f2001548180546101209061057b565b80601f016020809104026020016040519081016040528092919081815260200182805461014c9061057b565b80156101975780601f1061016e57610100808354040283529160200191610197565b820191905f5260205f20905b81548152906001019060200180831161017a57829003601f168201915b5050505050915091509150915091565b600182908060018154018082558091505060019003905f5260205f20015f9091909190915090816101d89190610748565b50600381908060018154018082558091505060019003905f5260205f20015f90919091909150555050565b5f604051905090565b5f80fd5b5f80fd5b5f80fd5b5f80fd5b5f601f19601f8301169050919050565b7f4e487b71000000000000000000000000000000000000000000000000000000005f52604160045260245ffd5b6102628261021c565b810181811067ffffffffffffffff821117156102815761028061022c565b5b80604052505050565b5f610293610203565b905061029f8282610259565b919050565b5f67ffffffffffffffff8211156102be576102bd61022c565b5b6102c78261021c565b9050602081019050919050565b828183375f83830152505050565b5f6102f46102ef846102a4565b61028a565b9050828152602081018484840111156103105761030f610218565b5b61031b8482856102d4565b509392505050565b5f82601f83011261033757610336610214565b5b81356103478482602086016102e2565b91505092915050565b5f8115159050919050565b61036481610350565b811461036e575f80fd5b50565b5f8135905061037f8161035b565b92915050565b5f806040838503121561039b5761039a61020c565b5b5f83013567ffffffffffffffff8111156103b8576103b7610210565b5b6103c485828601610323565b92505060206103d585828601610371565b9150509250929050565b5f819050919050565b6103f1816103df565b81146103fb575f80fd5b50565b5f8135905061040c816103e8565b92915050565b5f602082840312156104275761042661020c565b5b5f610434848285016103fe565b91505092915050565b5f81519050919050565b5f82825260208201905092915050565b5f5b83811015610474578082015181840152602081019050610459565b5f8484015250505050565b5f6104898261043d565b6104938185610447565b93506104a3818560208601610457565b6104ac8161021c565b840191505092915050565b6104c0816103df565b82525050565b5f6040820190508181035f8301526104de818561047f565b90506104ed60208301846104b7565b9392505050565b5f806040838503121561050a5761050961020c565b5b5f83013567ffffffffffffffff81111561052757610526610210565b5b61053385828601610323565b9250506020610544858286016103fe565b9150509250929050565b7f4e487b71000000000000000000000000000000000000000000000000000000005f52602260045260245ffd5b5f600282049050600182168061059257607f821691505b6020821081036105a5576105a461054e565b5b50919050565b5f819050815f5260205f209050919050565b5f6020601f8301049050919050565b5f82821b905092915050565b5f600883026106077fffffffffffffffffffffffffffffffffffffffffffffffffffffffffffffffff826105cc565b61061186836105cc565b95508019841693508086168417925050509392505050565b5f819050919050565b5f61064c610647610642846103df565b610629565b6103df565b9050919050565b5f819050919050565b61066583610632565b61067961067182610653565b8484546105d8565b825550505050565b5f90565b61068d610681565b61069881848461065c565b505050565b5b818110156106bb576106b05f82610685565b60018101905061069e565b5050565b601f821115610700576106d1816105ab565b6106da846105bd565b810160208510156106e9578190505b6106fd6106f5856105bd565b83018261069d565b50505b505050565b5f82821c905092915050565b5f6107205f1984600802610705565b1980831691505092915050565b5f6107388383610711565b9150826002028217905092915050565b6107518261043d565b67ffffffffffffffff81111561076a5761076961022c565b5b610774825461057b565b61077f8282856106bf565b5f60209050601f8311600181146107b0575f841561079e578287015190505b6107a8858261072d565b86555061080f565b601f1984166107be866105ab565b5f5b828110156107e5578489015182556001820191506020850194506020810190506107c0565b8683101561080257848901516107fe601f891682610711565b8355505b6001600288020188555050505b505050505050565b7f4e487b71000000000000000000000000000000000000000000000000000000005f52603260045260245ffdfea26469706673582212203047e249a20ae9a3c10485d5382fe45826e952a94de894101e555af04235c27b64736f6c63430008140033",
					"opcodes": "PUSH1 0x80 PUSH1 0x40 MSTORE CALLVALUE DUP1 ISZERO PUSH2 0xF JUMPI PUSH0 DUP1 REVERT JUMPDEST POP PUSH2 0x87A DUP1 PUSH2 0x1D PUSH0 CODECOPY PUSH0 RETURN INVALID PUSH1 0x80 PUSH1 0x40 MSTORE CALLVALUE DUP1 ISZERO PUSH2 0xF JUMPI PUSH0 DUP1 REVERT JUMPDEST POP PUSH1 0x4 CALLDATASIZE LT PUSH2 0x3F JUMPI PUSH0 CALLDATALOAD PUSH1 0xE0 SHR DUP1 PUSH4 0x1B47AF16 EQ PUSH2 0x43 JUMPI DUP1 PUSH4 0x86A9B364 EQ PUSH2 0x5F JUMPI DUP1 PUSH4 0xA7CC1582 EQ PUSH2 0x90 JUMPI JUMPDEST PUSH0 DUP1 REVERT JUMPDEST PUSH2 0x5D PUSH1 0x4 DUP1 CALLDATASIZE SUB DUP2 ADD SWAP1 PUSH2 0x58 SWAP2 SWAP1 PUSH2 0x385 JUMP JUMPDEST PUSH2 0xAC JUMP JUMPDEST STOP JUMPDEST PUSH2 0x79 PUSH1 0x4 DUP1 CALLDATASIZE SUB DUP2 ADD SWAP1 PUSH2 0x74 SWAP2 SWAP1 PUSH2 0x412 JUMP JUMPDEST PUSH2 0xD8 JUMP JUMPDEST PUSH1 0x40 MLOAD PUSH2 0x87 SWAP3 SWAP2 SWAP1 PUSH2 0x4C6 JUMP JUMPDEST PUSH1 0x40 MLOAD DUP1 SWAP2 SUB SWAP1 RETURN JUMPDEST PUSH2 0xAA PUSH1 0x4 DUP1 CALLDATASIZE SUB DUP2 ADD SWAP1 PUSH2 0xA5 SWAP2 SWAP1 PUSH2 0x4F4 JUMP JUMPDEST PUSH2 0x1A7 JUMP JUMPDEST STOP JUMPDEST DUP2 PUSH0 SWAP1 DUP2 PUSH2 0xBA SWAP2 SWAP1 PUSH2 0x748 JUMP JUMPDEST POP DUP1 PUSH1 0x2 PUSH0 PUSH2 0x100 EXP DUP2 SLOAD DUP2 PUSH1 0xFF MUL NOT AND SWAP1 DUP4 ISZERO ISZERO MUL OR SWAP1 SSTORE POP POP POP JUMP JUMPDEST PUSH1 0x60 PUSH0 PUSH1 0x1 DUP4 DUP2 SLOAD DUP2 LT PUSH2 0xEF JUMPI PUSH2 0xEE PUSH2 0x817 JUMP JUMPDEST JUMPDEST SWAP1 PUSH0 MSTORE PUSH1 0x20 PUSH0 KECCAK256 ADD PUSH1 0x3 DUP5 DUP2 SLOAD DUP2 LT PUSH2 0x10B JUMPI PUSH2 0x10A PUSH2 0x817 JUMP JUMPDEST JUMPDEST SWAP1 PUSH0 MSTORE PUSH1 0x20 PUSH0 KECCAK256 ADD SLOAD DUP2 DUP1 SLOAD PUSH2 0x120 SWAP1 PUSH2 0x57B JUMP JUMPDEST DUP1 PUSH1 0x1F ADD PUSH1 0x20 DUP1 SWAP2 DIV MUL PUSH1 0x20 ADD PUSH1 0x40 MLOAD SWAP1 DUP2 ADD PUSH1 0x40 MSTORE DUP1 SWAP3 SWAP2 SWAP1 DUP2 DUP2 MSTORE PUSH1 0x20 ADD DUP3 DUP1 SLOAD PUSH2 0x14C SWAP1 PUSH2 0x57B JUMP JUMPDEST DUP1 ISZERO PUSH2 0x197 JUMPI DUP1 PUSH1 0x1F LT PUSH2 0x16E JUMPI PUSH2 0x100 DUP1 DUP4 SLOAD DIV MUL DUP4 MSTORE SWAP2 PUSH1 0x20 ADD SWAP2 PUSH2 0x197 JUMP JUMPDEST DUP3 ADD SWAP2 SWAP1 PUSH0 MSTORE PUSH1 0x20 PUSH0 KECCAK256 SWAP1 JUMPDEST DUP2 SLOAD DUP2 MSTORE SWAP1 PUSH1 0x1 ADD SWAP1 PUSH1 0x20 ADD DUP1 DUP4 GT PUSH2 0x17A JUMPI DUP3 SWAP1 SUB PUSH1 0x1F AND DUP3 ADD SWAP2 JUMPDEST POP POP POP POP POP SWAP2 POP SWAP2 POP SWAP2 POP SWAP2 POP SWAP2 JUMP JUMPDEST PUSH1 0x1 DUP3 SWAP1 DUP1 PUSH1 0x1 DUP2 SLOAD ADD DUP1 DUP3 SSTORE DUP1 SWAP2 POP POP PUSH1 0x1 SWAP1 SUB SWAP1 PUSH0 MSTORE PUSH1 0x20 PUSH0 KECCAK256 ADD PUSH0 SWAP1 SWAP2 SWAP1 SWAP2 SWAP1 SWAP2 POP SWAP1 DUP2 PUSH2 0x1D8 SWAP2 SWAP1 PUSH2 0x748 JUMP JUMPDEST POP PUSH1 0x3 DUP2 SWAP1 DUP1 PUSH1 0x1 DUP2 SLOAD ADD DUP1 DUP3 SSTORE DUP1 SWAP2 POP POP PUSH1 0x1 SWAP1 SUB SWAP1 PUSH0 MSTORE PUSH1 0x20 PUSH0 KECCAK256 ADD PUSH0 SWAP1 SWAP2 SWAP1 SWAP2 SWAP1 SWAP2 POP SSTORE POP POP JUMP JUMPDEST PUSH0 PUSH1 0x40 MLOAD SWAP1 POP SWAP1 JUMP JUMPDEST PUSH0 DUP1 REVERT JUMPDEST PUSH0 DUP1 REVERT JUMPDEST PUSH0 DUP1 REVERT JUMPDEST PUSH0 DUP1 REVERT JUMPDEST PUSH0 PUSH1 0x1F NOT PUSH1 0x1F DUP4 ADD AND SWAP1 POP SWAP2 SWAP1 POP JUMP JUMPDEST PUSH32 0x4E487B7100000000000000000000000000000000000000000000000000000000 PUSH0 MSTORE PUSH1 0x41 PUSH1 0x4 MSTORE PUSH1 0x24 PUSH0 REVERT JUMPDEST PUSH2 0x262 DUP3 PUSH2 0x21C JUMP JUMPDEST DUP2 ADD DUP2 DUP2 LT PUSH8 0xFFFFFFFFFFFFFFFF DUP3 GT OR ISZERO PUSH2 0x281 JUMPI PUSH2 0x280 PUSH2 0x22C JUMP JUMPDEST JUMPDEST DUP1 PUSH1 0x40 MSTORE POP POP POP JUMP JUMPDEST PUSH0 PUSH2 0x293 PUSH2 0x203 JUMP JUMPDEST SWAP1 POP PUSH2 0x29F DUP3 DUP3 PUSH2 0x259 JUMP JUMPDEST SWAP2 SWAP1 POP JUMP JUMPDEST PUSH0 PUSH8 0xFFFFFFFFFFFFFFFF DUP3 GT ISZERO PUSH2 0x2BE JUMPI PUSH2 0x2BD PUSH2 0x22C JUMP JUMPDEST JUMPDEST PUSH2 0x2C7 DUP3 PUSH2 0x21C JUMP JUMPDEST SWAP1 POP PUSH1 0x20 DUP2 ADD SWAP1 POP SWAP2 SWAP1 POP JUMP JUMPDEST DUP3 DUP2 DUP4 CALLDATACOPY PUSH0 DUP4 DUP4 ADD MSTORE POP POP POP JUMP JUMPDEST PUSH0 PUSH2 0x2F4 PUSH2 0x2EF DUP5 PUSH2 0x2A4 JUMP JUMPDEST PUSH2 0x28A JUMP JUMPDEST SWAP1 POP DUP3 DUP2 MSTORE PUSH1 0x20 DUP2 ADD DUP5 DUP5 DUP5 ADD GT ISZERO PUSH2 0x310 JUMPI PUSH2 0x30F PUSH2 0x218 JUMP JUMPDEST JUMPDEST PUSH2 0x31B DUP5 DUP3 DUP6 PUSH2 0x2D4 JUMP JUMPDEST POP SWAP4 SWAP3 POP POP POP JUMP JUMPDEST PUSH0 DUP3 PUSH1 0x1F DUP4 ADD SLT PUSH2 0x337 JUMPI PUSH2 0x336 PUSH2 0x214 JUMP JUMPDEST JUMPDEST DUP2 CALLDATALOAD PUSH2 0x347 DUP5 DUP3 PUSH1 0x20 DUP7 ADD PUSH2 0x2E2 JUMP JUMPDEST SWAP2 POP POP SWAP3 SWAP2 POP POP JUMP JUMPDEST PUSH0 DUP2 ISZERO ISZERO SWAP1 POP SWAP2 SWAP1 POP JUMP JUMPDEST PUSH2 0x364 DUP2 PUSH2 0x350 JUMP JUMPDEST DUP2 EQ PUSH2 0x36E JUMPI PUSH0 DUP1 REVERT JUMPDEST POP JUMP JUMPDEST PUSH0 DUP2 CALLDATALOAD SWAP1 POP PUSH2 0x37F DUP2 PUSH2 0x35B JUMP JUMPDEST SWAP3 SWAP2 POP POP JUMP JUMPDEST PUSH0 DUP1 PUSH1 0x40 DUP4 DUP6 SUB SLT ISZERO PUSH2 0x39B JUMPI PUSH2 0x39A PUSH2 0x20C JUMP JUMPDEST JUMPDEST PUSH0 DUP4 ADD CALLDATALOAD PUSH8 0xFFFFFFFFFFFFFFFF DUP2 GT ISZERO PUSH2 0x3B8 JUMPI PUSH2 0x3B7 PUSH2 0x210 JUMP JUMPDEST JUMPDEST PUSH2 0x3C4 DUP6 DUP3 DUP7 ADD PUSH2 0x323 JUMP JUMPDEST SWAP3 POP POP PUSH1 0x20 PUSH2 0x3D5 DUP6 DUP3 DUP7 ADD PUSH2 0x371 JUMP JUMPDEST SWAP2 POP POP SWAP3 POP SWAP3 SWAP1 POP JUMP JUMPDEST PUSH0 DUP2 SWAP1 POP SWAP2 SWAP1 POP JUMP JUMPDEST PUSH2 0x3F1 DUP2 PUSH2 0x3DF JUMP JUMPDEST DUP2 EQ PUSH2 0x3FB JUMPI PUSH0 DUP1 REVERT JUMPDEST POP JUMP JUMPDEST PUSH0 DUP2 CALLDATALOAD SWAP1 POP PUSH2 0x40C DUP2 PUSH2 0x3E8 JUMP JUMPDEST SWAP3 SWAP2 POP POP JUMP JUMPDEST PUSH0 PUSH1 0x20 DUP3 DUP5 SUB SLT ISZERO PUSH2 0x427 JUMPI PUSH2 0x426 PUSH2 0x20C JUMP JUMPDEST JUMPDEST PUSH0 PUSH2 0x434 DUP5 DUP3 DUP6 ADD PUSH2 0x3FE JUMP JUMPDEST SWAP2 POP POP SWAP3 SWAP2 POP POP JUMP JUMPDEST PUSH0 DUP2 MLOAD SWAP1 POP SWAP2 SWAP1 POP JUMP JUMPDEST PUSH0 DUP3 DUP3 MSTORE PUSH1 0x20 DUP3 ADD SWAP1 POP SWAP3 SWAP2 POP POP JUMP JUMPDEST PUSH0 JUMPDEST DUP4 DUP2 LT ISZERO PUSH2 0x474 JUMPI DUP1 DUP3 ADD MLOAD DUP2 DUP5 ADD MSTORE PUSH1 0x20 DUP2 ADD SWAP1 POP PUSH2 0x459 JUMP JUMPDEST PUSH0 DUP5 DUP5 ADD MSTORE POP POP POP POP JUMP JUMPDEST PUSH0 PUSH2 0x489 DUP3 PUSH2 0x43D JUMP JUMPDEST PUSH2 0x493 DUP2 DUP6 PUSH2 0x447 JUMP JUMPDEST SWAP4 POP PUSH2 0x4A3 DUP2 DUP6 PUSH1 0x20 DUP7 ADD PUSH2 0x457 JUMP JUMPDEST PUSH2 0x4AC DUP2 PUSH2 0x21C JUMP JUMPDEST DUP5 ADD SWAP2 POP POP SWAP3 SWAP2 POP POP JUMP JUMPDEST PUSH2 0x4C0 DUP2 PUSH2 0x3DF JUMP JUMPDEST DUP3 MSTORE POP POP JUMP JUMPDEST PUSH0 PUSH1 0x40 DUP3 ADD SWAP1 POP DUP2 DUP2 SUB PUSH0 DUP4 ADD MSTORE PUSH2 0x4DE DUP2 DUP6 PUSH2 0x47F JUMP JUMPDEST SWAP1 POP PUSH2 0x4ED PUSH1 0x20 DUP4 ADD DUP5 PUSH2 0x4B7 JUMP JUMPDEST SWAP4 SWAP3 POP POP POP JUMP JUMPDEST PUSH0 DUP1 PUSH1 0x40 DUP4 DUP6 SUB SLT ISZERO PUSH2 0x50A JUMPI PUSH2 0x509 PUSH2 0x20C JUMP JUMPDEST JUMPDEST PUSH0 DUP4 ADD CALLDATALOAD PUSH8 0xFFFFFFFFFFFFFFFF DUP2 GT ISZERO PUSH2 0x527 JUMPI PUSH2 0x526 PUSH2 0x210 JUMP JUMPDEST JUMPDEST PUSH2 0x533 DUP6 DUP3 DUP7 ADD PUSH2 0x323 JUMP JUMPDEST SWAP3 POP POP PUSH1 0x20 PUSH2 0x544 DUP6 DUP3 DUP7 ADD PUSH2 0x3FE JUMP JUMPDEST SWAP2 POP POP SWAP3 POP SWAP3 SWAP1 POP JUMP JUMPDEST PUSH32 0x4E487B7100000000000000000000000000000000000000000000000000000000 PUSH0 MSTORE PUSH1 0x22 PUSH1 0x4 MSTORE PUSH1 0x24 PUSH0 REVERT JUMPDEST PUSH0 PUSH1 0x2 DUP3 DIV SWAP1 POP PUSH1 0x1 DUP3 AND DUP1 PUSH2 0x592 JUMPI PUSH1 0x7F DUP3 AND SWAP2 POP JUMPDEST PUSH1 0x20 DUP3 LT DUP2 SUB PUSH2 0x5A5 JUMPI PUSH2 0x5A4 PUSH2 0x54E JUMP JUMPDEST JUMPDEST POP SWAP2 SWAP1 POP JUMP JUMPDEST PUSH0 DUP2 SWAP1 POP DUP2 PUSH0 MSTORE PUSH1 0x20 PUSH0 KECCAK256 SWAP1 POP SWAP2 SWAP1 POP JUMP JUMPDEST PUSH0 PUSH1 0x20 PUSH1 0x1F DUP4 ADD DIV SWAP1 POP SWAP2 SWAP1 POP JUMP JUMPDEST PUSH0 DUP3 DUP3 SHL SWAP1 POP SWAP3 SWAP2 POP POP JUMP JUMPDEST PUSH0 PUSH1 0x8 DUP4 MUL PUSH2 0x607 PUSH32 0xFFFFFFFFFFFFFFFFFFFFFFFFFFFFFFFFFFFFFFFFFFFFFFFFFFFFFFFFFFFFFFFF DUP3 PUSH2 0x5CC JUMP JUMPDEST PUSH2 0x611 DUP7 DUP4 PUSH2 0x5CC JUMP JUMPDEST SWAP6 POP DUP1 NOT DUP5 AND SWAP4 POP DUP1 DUP7 AND DUP5 OR SWAP3 POP POP POP SWAP4 SWAP3 POP POP POP JUMP JUMPDEST PUSH0 DUP2 SWAP1 POP SWAP2 SWAP1 POP JUMP JUMPDEST PUSH0 PUSH2 0x64C PUSH2 0x647 PUSH2 0x642 DUP5 PUSH2 0x3DF JUMP JUMPDEST PUSH2 0x629 JUMP JUMPDEST PUSH2 0x3DF JUMP JUMPDEST SWAP1 POP SWAP2 SWAP1 POP JUMP JUMPDEST PUSH0 DUP2 SWAP1 POP SWAP2 SWAP1 POP JUMP JUMPDEST PUSH2 0x665 DUP4 PUSH2 0x632 JUMP JUMPDEST PUSH2 0x679 PUSH2 0x671 DUP3 PUSH2 0x653 JUMP JUMPDEST DUP5 DUP5 SLOAD PUSH2 0x5D8 JUMP JUMPDEST DUP3 SSTORE POP POP POP POP JUMP JUMPDEST PUSH0 SWAP1 JUMP JUMPDEST PUSH2 0x68D PUSH2 0x681 JUMP JUMPDEST PUSH2 0x698 DUP2 DUP5 DUP5 PUSH2 0x65C JUMP JUMPDEST POP POP POP JUMP JUMPDEST JUMPDEST DUP2 DUP2 LT ISZERO PUSH2 0x6BB JUMPI PUSH2 0x6B0 PUSH0 DUP3 PUSH2 0x685 JUMP JUMPDEST PUSH1 0x1 DUP2 ADD SWAP1 POP PUSH2 0x69E JUMP JUMPDEST POP POP JUMP JUMPDEST PUSH1 0x1F DUP3 GT ISZERO PUSH2 0x700 JUMPI PUSH2 0x6D1 DUP2 PUSH2 0x5AB JUMP JUMPDEST PUSH2 0x6DA DUP5 PUSH2 0x5BD JUMP JUMPDEST DUP2 ADD PUSH1 0x20 DUP6 LT ISZERO PUSH2 0x6E9 JUMPI DUP2 SWAP1 POP JUMPDEST PUSH2 0x6FD PUSH2 0x6F5 DUP6 PUSH2 0x5BD JUMP JUMPDEST DUP4 ADD DUP3 PUSH2 0x69D JUMP JUMPDEST POP POP JUMPDEST POP POP POP JUMP JUMPDEST PUSH0 DUP3 DUP3 SHR SWAP1 POP SWAP3 SWAP2 POP POP JUMP JUMPDEST PUSH0 PUSH2 0x720 PUSH0 NOT DUP5 PUSH1 0x8 MUL PUSH2 0x705 JUMP JUMPDEST NOT DUP1 DUP4 AND SWAP2 POP POP SWAP3 SWAP2 POP POP JUMP JUMPDEST PUSH0 PUSH2 0x738 DUP4 DUP4 PUSH2 0x711 JUMP JUMPDEST SWAP2 POP DUP3 PUSH1 0x2 MUL DUP3 OR SWAP1 POP SWAP3 SWAP2 POP POP JUMP JUMPDEST PUSH2 0x751 DUP3 PUSH2 0x43D JUMP JUMPDEST PUSH8 0xFFFFFFFFFFFFFFFF DUP2 GT ISZERO PUSH2 0x76A JUMPI PUSH2 0x769 PUSH2 0x22C JUMP JUMPDEST JUMPDEST PUSH2 0x774 DUP3 SLOAD PUSH2 0x57B JUMP JUMPDEST PUSH2 0x77F DUP3 DUP3 DUP6 PUSH2 0x6BF JUMP JUMPDEST PUSH0 PUSH1 0x20 SWAP1 POP PUSH1 0x1F DUP4 GT PUSH1 0x1 DUP2 EQ PUSH2 0x7B0 JUMPI PUSH0 DUP5 ISZERO PUSH2 0x79E JUMPI DUP3 DUP8 ADD MLOAD SWAP1 POP JUMPDEST PUSH2 0x7A8 DUP6 DUP3 PUSH2 0x72D JUMP JUMPDEST DUP7 SSTORE POP PUSH2 0x80F JUMP JUMPDEST PUSH1 0x1F NOT DUP5 AND PUSH2 0x7BE DUP7 PUSH2 0x5AB JUMP JUMPDEST PUSH0 JUMPDEST DUP3 DUP2 LT ISZERO PUSH2 0x7E5 JUMPI DUP5 DUP10 ADD MLOAD DUP3 SSTORE PUSH1 0x1 DUP3 ADD SWAP2 POP PUSH1 0x20 DUP6 ADD SWAP5 POP PUSH1 0x20 DUP2 ADD SWAP1 POP PUSH2 0x7C0 JUMP JUMPDEST DUP7 DUP4 LT ISZERO PUSH2 0x802 JUMPI DUP5 DUP10 ADD MLOAD PUSH2 0x7FE PUSH1 0x1F DUP10 AND DUP3 PUSH2 0x711 JUMP JUMPDEST DUP4 SSTORE POP JUMPDEST PUSH1 0x1 PUSH1 0x2 DUP9 MUL ADD DUP9 SSTORE POP POP POP JUMPDEST POP POP POP POP POP POP JUMP JUMPDEST PUSH32 0x4E487B7100000000000000000000000000000000000000000000000000000000 PUSH0 MSTORE PUSH1 0x32 PUSH1 0x4 MSTORE PUSH1 0x24 PUSH0 REVERT INVALID LOG2 PUSH5 0x6970667358 0x22 SLT KECCAK256 ADDRESS SELFBALANCE 0xE2 0x49 LOG2 EXP 0xE9 LOG3 0xC1 DIV DUP6 0xD5 CODESIZE 0x2F 0xE4 PC 0x26 0xE9 MSTORE 0xA9 0x4D 0xE8 SWAP5 LT 0x1E SSTORE GAS CREATE TIMESTAMP CALLDATALOAD 0xC2 PUSH28 0x64736F6C634300081400330000000000000000000000000000000000 "
				},
				"gasEstimates": {
					"creation": {
						"codeDepositCost": "434000",
						"executionCost": "466",
						"totalCost": "434466"
					},
					"external": {
						"getStudentDetails(uint256)": "infinite",
						"setInsDetails(string,bool)": "infinite",
						"setStudentDetails(string,uint256)": "infinite"
					}
				},
				"methodIdentifiers": {
					"getStudentDetails(uint256)": "86a9b364",
					"setInsDetails(string,bool)": "1b47af16",
					"setStudentDetails(string,uint256)": "a7cc1582"
				}
			},
			"storageLayout": {
				"storage": [
					{
						"astId": 3,
						"contract": "contracts/newarray.sol:Test",
						"label": "ins_name",
						"offset": 0,
						"slot": "0",
						"type": "t_string_storage"
					},
					{
						"astId": 6,
						"contract": "contracts/newarray.sol:Test",
						"label": "name",
						"offset": 0,
						"slot": "1",
						"type": "t_array(t_string_storage)dyn_storage"
					},
					{
						"astId": 8,
						"contract": "contracts/newarray.sol:Test",
						"label": "registered",
						"offset": 0,
						"slot": "2",
						"type": "t_bool"
					},
					{
						"astId": 11,
						"contract": "contracts/newarray.sol:Test",
						"label": "age",
						"offset": 0,
						"slot": "3",
						"type": "t_array(t_uint256)dyn_storage"
					}
				],
				"types": {
					"t_array(t_string_storage)dyn_storage": {
						"base": "t_string_storage",
						"encoding": "dynamic_array",
						"label": "string[]",
						"numberOfBytes": "32"
					},
					"t_array(t_uint256)dyn_storage": {
						"base": "t_uint256",
						"encoding": "dynamic_array",
						"label": "uint256[]",
						"numberOfBytes": "32"
					},
					"t_bool": {
						"encoding": "inplace",
						"label": "bool",
						"numberOfBytes": "1"
					},
					"t_string_storage": {
						"encoding": "bytes",
						"label": "string",
						"numberOfBytes": "32"
					},
					"t_uint256": {
						"encoding": "inplace",
						"label": "uint256",
						"numberOfBytes": "32"
					}
				}
			},
			"userdoc": {
				"kind": "user",
				"methods": {},
				"version": 1
			}
		}
	}
}