{
	"contracts/project.sol": {
		"Dapp": {
			"abi": [
				{
					"inputs": [],
					"name": "getworkerValues",
					"outputs": [
						{
							"internalType": "string",
							"name": "",
							"type": "string"
						},
						{
							"internalType": "uint256",
							"name": "",
							"type": "uint256"
						},
						{
							"internalType": "uint256",
							"name": "",
							"type": "uint256"
						}
					],
					"stateMutability": "view",
					"type": "function"
				},
				{
					"inputs": [
						{
							"internalType": "string",
							"name": "_name",
							"type": "string"
						},
						{
							"internalType": "uint256",
							"name": "_age",
							"type": "uint256"
						},
						{
							"internalType": "uint256",
							"name": "_id",
							"type": "uint256"
						}
					],
					"name": "setworkerValues",
					"outputs": [],
					"stateMutability": "nonpayable",
					"type": "function"
				}
			],
			"devdoc": {
				"kind": "dev",
				"methods": {},
				"version": 1
			},
			"evm": {
				"assembly": "    /* \"contracts/project.sol\":60:562  contract Dapp{... */\n  mstore(0x40, 0x80)\n  callvalue\n  dup1\n  iszero\n  tag_1\n  jumpi\n  0x00\n  dup1\n  revert\ntag_1:\n  pop\n  dataSize(sub_0)\n  dup1\n  dataOffset(sub_0)\n  0x00\n  codecopy\n  0x00\n  return\nstop\n\nsub_0: assembly {\n        /* \"contracts/project.sol\":60:562  contract Dapp{... */\n      mstore(0x40, 0x80)\n      callvalue\n      dup1\n      iszero\n      tag_1\n      jumpi\n      0x00\n      dup1\n      revert\n    tag_1:\n      pop\n      jumpi(tag_2, lt(calldatasize, 0x04))\n      shr(0xe0, calldataload(0x00))\n      dup1\n      0x36038a35\n      eq\n      tag_3\n      jumpi\n      dup1\n      0xf8469103\n      eq\n      tag_4\n      jumpi\n    tag_2:\n      0x00\n      dup1\n      revert\n        /* \"contracts/project.sol\":402:553  function getworkerValues() public view returns(string memory, uint, uint){... */\n    tag_3:\n      tag_5\n      tag_6\n      jump\t// in\n    tag_5:\n      mload(0x40)\n      tag_7\n      swap4\n      swap3\n      swap2\n      swap1\n      tag_8\n      jump\t// in\n    tag_7:\n      mload(0x40)\n      dup1\n      swap2\n      sub\n      swap1\n      return\n        /* \"contracts/project.sol\":225:390  function setworkerValues(string memory _name, uint _age, uint _id) public{... */\n    tag_4:\n      tag_9\n      0x04\n      dup1\n      calldatasize\n      sub\n      dup2\n      add\n      swap1\n      tag_10\n      swap2\n      swap1\n      tag_11\n      jump\t// in\n    tag_10:\n      tag_12\n      jump\t// in\n    tag_9:\n      stop\n        /* \"contracts/project.sol\":402:553  function getworkerValues() public view returns(string memory, uint, uint){... */\n    tag_6:\n        /* \"contracts/project.sol\":449:462  string memory */\n      0x60\n        /* \"contracts/project.sol\":464:468  uint */\n      0x00\n        /* \"contracts/project.sol\":470:474  uint */\n      dup1\n        /* \"contracts/project.sol\":495:502  _worker */\n      0x00\n        /* \"contracts/project.sol\":495:507  _worker.name */\n      dup1\n      add\n        /* \"contracts/project.sol\":510:517  _worker */\n      0x00\n        /* \"contracts/project.sol\":510:521  _worker.age */\n      0x01\n      add\n      sload\n        /* \"contracts/project.sol\":524:531  _worker */\n      0x00\n        /* \"contracts/project.sol\":524:534  _worker.id */\n      0x02\n      add\n      sload\n        /* \"contracts/project.sol\":486:535  return ( _worker.name,  _worker.age,  _worker.id) */\n      dup3\n      dup1\n      sload\n      tag_14\n      swap1\n      tag_15\n      jump\t// in\n    tag_14:\n      dup1\n      0x1f\n      add\n      0x20\n      dup1\n      swap2\n      div\n      mul\n      0x20\n      add\n      mload(0x40)\n      swap1\n      dup2\n      add\n      0x40\n      mstore\n      dup1\n      swap3\n      swap2\n      swap1\n      dup2\n      dup2\n      mstore\n      0x20\n      add\n      dup3\n      dup1\n      sload\n      tag_16\n      swap1\n      tag_15\n      jump\t// in\n    tag_16:\n      dup1\n      iszero\n      tag_17\n      jumpi\n      dup1\n      0x1f\n      lt\n      tag_18\n      jumpi\n      0x0100\n      dup1\n      dup4\n      sload\n      div\n      mul\n      dup4\n      mstore\n      swap2\n      0x20\n      add\n      swap2\n      jump(tag_17)\n    tag_18:\n      dup3\n      add\n      swap2\n      swap1\n      0x00\n      mstore\n      keccak256(0x00, 0x20)\n      swap1\n    tag_19:\n      dup2\n      sload\n      dup2\n      mstore\n      swap1\n      0x01\n      add\n      swap1\n      0x20\n      add\n      dup1\n      dup4\n      gt\n      tag_19\n      jumpi\n      dup3\n      swap1\n      sub\n      0x1f\n      and\n      dup3\n      add\n      swap2\n    tag_17:\n      pop\n      pop\n      pop\n      pop\n      pop\n      swap3\n      pop\n      swap3\n      pop\n      swap3\n      pop\n      swap3\n      pop\n        /* \"contracts/project.sol\":402:553  function getworkerValues() public view returns(string memory, uint, uint){... */\n      swap1\n      swap2\n      swap3\n      jump\t// out\n        /* \"contracts/project.sol\":225:390  function setworkerValues(string memory _name, uint _age, uint _id) public{... */\n    tag_12:\n        /* \"contracts/project.sol\":323:328  _name */\n      dup3\n        /* \"contracts/project.sol\":310:317  _worker */\n      0x00\n        /* \"contracts/project.sol\":310:322  _worker.name */\n      dup1\n      add\n        /* \"contracts/project.sol\":310:328  _worker.name=_name */\n      swap1\n      dup2\n      tag_21\n      swap2\n      swap1\n      tag_22\n      jump\t// in\n    tag_21:\n      pop\n        /* \"contracts/project.sol\":352:356  _age */\n      dup2\n        /* \"contracts/project.sol\":340:347  _worker */\n      0x00\n        /* \"contracts/project.sol\":340:351  _worker.age */\n      0x01\n      add\n        /* \"contracts/project.sol\":340:356  _worker.age=_age */\n      dup2\n      swap1\n      sstore\n      pop\n        /* \"contracts/project.sol\":379:382  _id */\n      dup1\n        /* \"contracts/project.sol\":368:375  _worker */\n      0x00\n        /* \"contracts/project.sol\":368:378  _worker.id */\n      0x02\n      add\n        /* \"contracts/project.sol\":368:382  _worker.id=_id */\n      dup2\n      swap1\n      sstore\n      pop\n        /* \"contracts/project.sol\":225:390  function setworkerValues(string memory _name, uint _age, uint _id) public{... */\n      pop\n      pop\n      pop\n      jump\t// out\n        /* \"#utility.yul\":7:106   */\n    tag_23:\n        /* \"#utility.yul\":59:65   */\n      0x00\n        /* \"#utility.yul\":93:98   */\n      dup2\n        /* \"#utility.yul\":87:99   */\n      mload\n        /* \"#utility.yul\":77:99   */\n      swap1\n      pop\n        /* \"#utility.yul\":7:106   */\n      swap2\n      swap1\n      pop\n      jump\t// out\n        /* \"#utility.yul\":112:281   */\n    tag_24:\n        /* \"#utility.yul\":196:207   */\n      0x00\n        /* \"#utility.yul\":230:236   */\n      dup3\n        /* \"#utility.yul\":225:228   */\n      dup3\n        /* \"#utility.yul\":218:237   */\n      mstore\n        /* \"#utility.yul\":270:274   */\n      0x20\n        /* \"#utility.yul\":265:268   */\n      dup3\n        /* \"#utility.yul\":261:275   */\n      add\n        /* \"#utility.yul\":246:275   */\n      swap1\n      pop\n        /* \"#utility.yul\":112:281   */\n      swap3\n      swap2\n      pop\n      pop\n      jump\t// out\n        /* \"#utility.yul\":287:533   */\n    tag_25:\n        /* \"#utility.yul\":368:369   */\n      0x00\n        /* \"#utility.yul\":378:491   */\n    tag_64:\n        /* \"#utility.yul\":392:398   */\n      dup4\n        /* \"#utility.yul\":389:390   */\n      dup2\n        /* \"#utility.yul\":386:399   */\n      lt\n        /* \"#utility.yul\":378:491   */\n      iszero\n      tag_66\n      jumpi\n        /* \"#utility.yul\":477:478   */\n      dup1\n        /* \"#utility.yul\":472:475   */\n      dup3\n        /* \"#utility.yul\":468:479   */\n      add\n        /* \"#utility.yul\":462:480   */\n      mload\n        /* \"#utility.yul\":458:459   */\n      dup2\n        /* \"#utility.yul\":453:456   */\n      dup5\n        /* \"#utility.yul\":449:460   */\n      add\n        /* \"#utility.yul\":442:481   */\n      mstore\n        /* \"#utility.yul\":414:416   */\n      0x20\n        /* \"#utility.yul\":411:412   */\n      dup2\n        /* \"#utility.yul\":407:417   */\n      add\n        /* \"#utility.yul\":402:417   */\n      swap1\n      pop\n        /* \"#utility.yul\":378:491   */\n      jump(tag_64)\n    tag_66:\n        /* \"#utility.yul\":525:526   */\n      0x00\n        /* \"#utility.yul\":516:522   */\n      dup5\n        /* \"#utility.yul\":511:514   */\n      dup5\n        /* \"#utility.yul\":507:523   */\n      add\n        /* \"#utility.yul\":500:527   */\n      mstore\n        /* \"#utility.yul\":349:533   */\n      pop\n        /* \"#utility.yul\":287:533   */\n      pop\n      pop\n      pop\n      jump\t// out\n        /* \"#utility.yul\":539:641   */\n    tag_26:\n        /* \"#utility.yul\":580:586   */\n      0x00\n        /* \"#utility.yul\":631:633   */\n      0x1f\n        /* \"#utility.yul\":627:634   */\n      not\n        /* \"#utility.yul\":622:624   */\n      0x1f\n        /* \"#utility.yul\":615:620   */\n      dup4\n        /* \"#utility.yul\":611:625   */\n      add\n        /* \"#utility.yul\":607:635   */\n      and\n        /* \"#utility.yul\":597:635   */\n      swap1\n      pop\n        /* \"#utility.yul\":539:641   */\n      swap2\n      swap1\n      pop\n      jump\t// out\n        /* \"#utility.yul\":647:1024   */\n    tag_27:\n        /* \"#utility.yul\":735:738   */\n      0x00\n        /* \"#utility.yul\":763:802   */\n      tag_69\n        /* \"#utility.yul\":796:801   */\n      dup3\n        /* \"#utility.yul\":763:802   */\n      tag_23\n      jump\t// in\n    tag_69:\n        /* \"#utility.yul\":818:889   */\n      tag_70\n        /* \"#utility.yul\":882:888   */\n      dup2\n        /* \"#utility.yul\":877:880   */\n      dup6\n        /* \"#utility.yul\":818:889   */\n      tag_24\n      jump\t// in\n    tag_70:\n        /* \"#utility.yul\":811:889   */\n      swap4\n      pop\n        /* \"#utility.yul\":898:963   */\n      tag_71\n        /* \"#utility.yul\":956:962   */\n      dup2\n        /* \"#utility.yul\":951:954   */\n      dup6\n        /* \"#utility.yul\":944:948   */\n      0x20\n        /* \"#utility.yul\":937:942   */\n      dup7\n        /* \"#utility.yul\":933:949   */\n      add\n        /* \"#utility.yul\":898:963   */\n      tag_25\n      jump\t// in\n    tag_71:\n        /* \"#utility.yul\":988:1017   */\n      tag_72\n        /* \"#utility.yul\":1010:1016   */\n      dup2\n        /* \"#utility.yul\":988:1017   */\n      tag_26\n      jump\t// in\n    tag_72:\n        /* \"#utility.yul\":983:986   */\n      dup5\n        /* \"#utility.yul\":979:1018   */\n      add\n        /* \"#utility.yul\":972:1018   */\n      swap2\n      pop\n        /* \"#utility.yul\":739:1024   */\n      pop\n        /* \"#utility.yul\":647:1024   */\n      swap3\n      swap2\n      pop\n      pop\n      jump\t// out\n        /* \"#utility.yul\":1030:1107   */\n    tag_28:\n        /* \"#utility.yul\":1067:1074   */\n      0x00\n        /* \"#utility.yul\":1096:1101   */\n      dup2\n        /* \"#utility.yul\":1085:1101   */\n      swap1\n      pop\n        /* \"#utility.yul\":1030:1107   */\n      swap2\n      swap1\n      pop\n      jump\t// out\n        /* \"#utility.yul\":1113:1231   */\n    tag_29:\n        /* \"#utility.yul\":1200:1224   */\n      tag_75\n        /* \"#utility.yul\":1218:1223   */\n      dup2\n        /* \"#utility.yul\":1200:1224   */\n      tag_28\n      jump\t// in\n    tag_75:\n        /* \"#utility.yul\":1195:1198   */\n      dup3\n        /* \"#utility.yul\":1188:1225   */\n      mstore\n        /* \"#utility.yul\":1113:1231   */\n      pop\n      pop\n      jump\t// out\n        /* \"#utility.yul\":1237:1770   */\n    tag_8:\n        /* \"#utility.yul\":1406:1410   */\n      0x00\n        /* \"#utility.yul\":1444:1446   */\n      0x60\n        /* \"#utility.yul\":1433:1442   */\n      dup3\n        /* \"#utility.yul\":1429:1447   */\n      add\n        /* \"#utility.yul\":1421:1447   */\n      swap1\n      pop\n        /* \"#utility.yul\":1493:1502   */\n      dup2\n        /* \"#utility.yul\":1487:1491   */\n      dup2\n        /* \"#utility.yul\":1483:1503   */\n      sub\n        /* \"#utility.yul\":1479:1480   */\n      0x00\n        /* \"#utility.yul\":1468:1477   */\n      dup4\n        /* \"#utility.yul\":1464:1481   */\n      add\n        /* \"#utility.yul\":1457:1504   */\n      mstore\n        /* \"#utility.yul\":1521:1599   */\n      tag_77\n        /* \"#utility.yul\":1594:1598   */\n      dup2\n        /* \"#utility.yul\":1585:1591   */\n      dup7\n        /* \"#utility.yul\":1521:1599   */\n      tag_27\n      jump\t// in\n    tag_77:\n        /* \"#utility.yul\":1513:1599   */\n      swap1\n      pop\n        /* \"#utility.yul\":1609:1681   */\n      tag_78\n        /* \"#utility.yul\":1677:1679   */\n      0x20\n        /* \"#utility.yul\":1666:1675   */\n      dup4\n        /* \"#utility.yul\":1662:1680   */\n      add\n        /* \"#utility.yul\":1653:1659   */\n      dup6\n        /* \"#utility.yul\":1609:1681   */\n      tag_29\n      jump\t// in\n    tag_78:\n        /* \"#utility.yul\":1691:1763   */\n      tag_79\n        /* \"#utility.yul\":1759:1761   */\n      0x40\n        /* \"#utility.yul\":1748:1757   */\n      dup4\n        /* \"#utility.yul\":1744:1762   */\n      add\n        /* \"#utility.yul\":1735:1741   */\n      dup5\n        /* \"#utility.yul\":1691:1763   */\n      tag_29\n      jump\t// in\n    tag_79:\n        /* \"#utility.yul\":1237:1770   */\n      swap5\n      swap4\n      pop\n      pop\n      pop\n      pop\n      jump\t// out\n        /* \"#utility.yul\":1776:1851   */\n    tag_30:\n        /* \"#utility.yul\":1809:1815   */\n      0x00\n        /* \"#utility.yul\":1842:1844   */\n      0x40\n        /* \"#utility.yul\":1836:1845   */\n      mload\n        /* \"#utility.yul\":1826:1845   */\n      swap1\n      pop\n        /* \"#utility.yul\":1776:1851   */\n      swap1\n      jump\t// out\n        /* \"#utility.yul\":1857:1974   */\n    tag_31:\n        /* \"#utility.yul\":1966:1967   */\n      0x00\n        /* \"#utility.yul\":1963:1964   */\n      dup1\n        /* \"#utility.yul\":1956:1968   */\n      revert\n        /* \"#utility.yul\":1980:2097   */\n    tag_32:\n        /* \"#utility.yul\":2089:2090   */\n      0x00\n        /* \"#utility.yul\":2086:2087   */\n      dup1\n        /* \"#utility.yul\":2079:2091   */\n      revert\n        /* \"#utility.yul\":2103:2220   */\n    tag_33:\n        /* \"#utility.yul\":2212:2213   */\n      0x00\n        /* \"#utility.yul\":2209:2210   */\n      dup1\n        /* \"#utility.yul\":2202:2214   */\n      revert\n        /* \"#utility.yul\":2226:2343   */\n    tag_34:\n        /* \"#utility.yul\":2335:2336   */\n      0x00\n        /* \"#utility.yul\":2332:2333   */\n      dup1\n        /* \"#utility.yul\":2325:2337   */\n      revert\n        /* \"#utility.yul\":2349:2529   */\n    tag_35:\n        /* \"#utility.yul\":2397:2474   */\n      0x4e487b7100000000000000000000000000000000000000000000000000000000\n        /* \"#utility.yul\":2394:2395   */\n      0x00\n        /* \"#utility.yul\":2387:2475   */\n      mstore\n        /* \"#utility.yul\":2494:2498   */\n      0x41\n        /* \"#utility.yul\":2491:2492   */\n      0x04\n        /* \"#utility.yul\":2484:2499   */\n      mstore\n        /* \"#utility.yul\":2518:2522   */\n      0x24\n        /* \"#utility.yul\":2515:2516   */\n      0x00\n        /* \"#utility.yul\":2508:2523   */\n      revert\n        /* \"#utility.yul\":2535:2816   */\n    tag_36:\n        /* \"#utility.yul\":2618:2645   */\n      tag_87\n        /* \"#utility.yul\":2640:2644   */\n      dup3\n        /* \"#utility.yul\":2618:2645   */\n      tag_26\n      jump\t// in\n    tag_87:\n        /* \"#utility.yul\":2610:2616   */\n      dup2\n        /* \"#utility.yul\":2606:2646   */\n      add\n        /* \"#utility.yul\":2748:2754   */\n      dup2\n        /* \"#utility.yul\":2736:2746   */\n      dup2\n        /* \"#utility.yul\":2733:2755   */\n      lt\n        /* \"#utility.yul\":2712:2730   */\n      0xffffffffffffffff\n        /* \"#utility.yul\":2700:2710   */\n      dup3\n        /* \"#utility.yul\":2697:2731   */\n      gt\n        /* \"#utility.yul\":2694:2756   */\n      or\n        /* \"#utility.yul\":2691:2779   */\n      iszero\n      tag_88\n      jumpi\n        /* \"#utility.yul\":2759:2777   */\n      tag_89\n      tag_35\n      jump\t// in\n    tag_89:\n        /* \"#utility.yul\":2691:2779   */\n    tag_88:\n        /* \"#utility.yul\":2799:2809   */\n      dup1\n        /* \"#utility.yul\":2795:2797   */\n      0x40\n        /* \"#utility.yul\":2788:2810   */\n      mstore\n        /* \"#utility.yul\":2578:2816   */\n      pop\n        /* \"#utility.yul\":2535:2816   */\n      pop\n      pop\n      jump\t// out\n        /* \"#utility.yul\":2822:2951   */\n    tag_37:\n        /* \"#utility.yul\":2856:2862   */\n      0x00\n        /* \"#utility.yul\":2883:2903   */\n      tag_91\n      tag_30\n      jump\t// in\n    tag_91:\n        /* \"#utility.yul\":2873:2903   */\n      swap1\n      pop\n        /* \"#utility.yul\":2912:2945   */\n      tag_92\n        /* \"#utility.yul\":2940:2944   */\n      dup3\n        /* \"#utility.yul\":2932:2938   */\n      dup3\n        /* \"#utility.yul\":2912:2945   */\n      tag_36\n      jump\t// in\n    tag_92:\n        /* \"#utility.yul\":2822:2951   */\n      swap2\n      swap1\n      pop\n      jump\t// out\n        /* \"#utility.yul\":2957:3265   */\n    tag_38:\n        /* \"#utility.yul\":3019:3023   */\n      0x00\n        /* \"#utility.yul\":3109:3127   */\n      0xffffffffffffffff\n        /* \"#utility.yul\":3101:3107   */\n      dup3\n        /* \"#utility.yul\":3098:3128   */\n      gt\n        /* \"#utility.yul\":3095:3151   */\n      iszero\n      tag_94\n      jumpi\n        /* \"#utility.yul\":3131:3149   */\n      tag_95\n      tag_35\n      jump\t// in\n    tag_95:\n        /* \"#utility.yul\":3095:3151   */\n    tag_94:\n        /* \"#utility.yul\":3169:3198   */\n      tag_96\n        /* \"#utility.yul\":3191:3197   */\n      dup3\n        /* \"#utility.yul\":3169:3198   */\n      tag_26\n      jump\t// in\n    tag_96:\n        /* \"#utility.yul\":3161:3198   */\n      swap1\n      pop\n        /* \"#utility.yul\":3253:3257   */\n      0x20\n        /* \"#utility.yul\":3247:3251   */\n      dup2\n        /* \"#utility.yul\":3243:3258   */\n      add\n        /* \"#utility.yul\":3235:3258   */\n      swap1\n      pop\n        /* \"#utility.yul\":2957:3265   */\n      swap2\n      swap1\n      pop\n      jump\t// out\n        /* \"#utility.yul\":3271:3417   */\n    tag_39:\n        /* \"#utility.yul\":3368:3374   */\n      dup3\n        /* \"#utility.yul\":3363:3366   */\n      dup2\n        /* \"#utility.yul\":3358:3361   */\n      dup4\n        /* \"#utility.yul\":3345:3375   */\n      calldatacopy\n        /* \"#utility.yul\":3409:3410   */\n      0x00\n        /* \"#utility.yul\":3400:3406   */\n      dup4\n        /* \"#utility.yul\":3395:3398   */\n      dup4\n        /* \"#utility.yul\":3391:3407   */\n      add\n        /* \"#utility.yul\":3384:3411   */\n      mstore\n        /* \"#utility.yul\":3271:3417   */\n      pop\n      pop\n      pop\n      jump\t// out\n        /* \"#utility.yul\":3423:3848   */\n    tag_40:\n        /* \"#utility.yul\":3501:3506   */\n      0x00\n        /* \"#utility.yul\":3526:3592   */\n      tag_99\n        /* \"#utility.yul\":3542:3591   */\n      tag_100\n        /* \"#utility.yul\":3584:3590   */\n      dup5\n        /* \"#utility.yul\":3542:3591   */\n      tag_38\n      jump\t// in\n    tag_100:\n        /* \"#utility.yul\":3526:3592   */\n      tag_37\n      jump\t// in\n    tag_99:\n        /* \"#utility.yul\":3517:3592   */\n      swap1\n      pop\n        /* \"#utility.yul\":3615:3621   */\n      dup3\n        /* \"#utility.yul\":3608:3613   */\n      dup2\n        /* \"#utility.yul\":3601:3622   */\n      mstore\n        /* \"#utility.yul\":3653:3657   */\n      0x20\n        /* \"#utility.yul\":3646:3651   */\n      dup2\n        /* \"#utility.yul\":3642:3658   */\n      add\n        /* \"#utility.yul\":3691:3694   */\n      dup5\n        /* \"#utility.yul\":3682:3688   */\n      dup5\n        /* \"#utility.yul\":3677:3680   */\n      dup5\n        /* \"#utility.yul\":3673:3689   */\n      add\n        /* \"#utility.yul\":3670:3695   */\n      gt\n        /* \"#utility.yul\":3667:3779   */\n      iszero\n      tag_101\n      jumpi\n        /* \"#utility.yul\":3698:3777   */\n      tag_102\n      tag_34\n      jump\t// in\n    tag_102:\n        /* \"#utility.yul\":3667:3779   */\n    tag_101:\n        /* \"#utility.yul\":3788:3842   */\n      tag_103\n        /* \"#utility.yul\":3835:3841   */\n      dup5\n        /* \"#utility.yul\":3830:3833   */\n      dup3\n        /* \"#utility.yul\":3825:3828   */\n      dup6\n        /* \"#utility.yul\":3788:3842   */\n      tag_39\n      jump\t// in\n    tag_103:\n        /* \"#utility.yul\":3507:3848   */\n      pop\n        /* \"#utility.yul\":3423:3848   */\n      swap4\n      swap3\n      pop\n      pop\n      pop\n      jump\t// out\n        /* \"#utility.yul\":3868:4208   */\n    tag_41:\n        /* \"#utility.yul\":3924:3929   */\n      0x00\n        /* \"#utility.yul\":3973:3976   */\n      dup3\n        /* \"#utility.yul\":3966:3970   */\n      0x1f\n        /* \"#utility.yul\":3958:3964   */\n      dup4\n        /* \"#utility.yul\":3954:3971   */\n      add\n        /* \"#utility.yul\":3950:3977   */\n      slt\n        /* \"#utility.yul\":3940:4062   */\n      tag_105\n      jumpi\n        /* \"#utility.yul\":3981:4060   */\n      tag_106\n      tag_33\n      jump\t// in\n    tag_106:\n        /* \"#utility.yul\":3940:4062   */\n    tag_105:\n        /* \"#utility.yul\":4098:4104   */\n      dup2\n        /* \"#utility.yul\":4085:4105   */\n      calldataload\n        /* \"#utility.yul\":4123:4202   */\n      tag_107\n        /* \"#utility.yul\":4198:4201   */\n      dup5\n        /* \"#utility.yul\":4190:4196   */\n      dup3\n        /* \"#utility.yul\":4183:4187   */\n      0x20\n        /* \"#utility.yul\":4175:4181   */\n      dup7\n        /* \"#utility.yul\":4171:4188   */\n      add\n        /* \"#utility.yul\":4123:4202   */\n      tag_40\n      jump\t// in\n    tag_107:\n        /* \"#utility.yul\":4114:4202   */\n      swap2\n      pop\n        /* \"#utility.yul\":3930:4208   */\n      pop\n        /* \"#utility.yul\":3868:4208   */\n      swap3\n      swap2\n      pop\n      pop\n      jump\t// out\n        /* \"#utility.yul\":4214:4336   */\n    tag_42:\n        /* \"#utility.yul\":4287:4311   */\n      tag_109\n        /* \"#utility.yul\":4305:4310   */\n      dup2\n        /* \"#utility.yul\":4287:4311   */\n      tag_28\n      jump\t// in\n    tag_109:\n        /* \"#utility.yul\":4280:4285   */\n      dup2\n        /* \"#utility.yul\":4277:4312   */\n      eq\n        /* \"#utility.yul\":4267:4330   */\n      tag_110\n      jumpi\n        /* \"#utility.yul\":4326:4327   */\n      0x00\n        /* \"#utility.yul\":4323:4324   */\n      dup1\n        /* \"#utility.yul\":4316:4328   */\n      revert\n        /* \"#utility.yul\":4267:4330   */\n    tag_110:\n        /* \"#utility.yul\":4214:4336   */\n      pop\n      jump\t// out\n        /* \"#utility.yul\":4342:4481   */\n    tag_43:\n        /* \"#utility.yul\":4388:4393   */\n      0x00\n        /* \"#utility.yul\":4426:4432   */\n      dup2\n        /* \"#utility.yul\":4413:4433   */\n      calldataload\n        /* \"#utility.yul\":4404:4433   */\n      swap1\n      pop\n        /* \"#utility.yul\":4442:4475   */\n      tag_112\n        /* \"#utility.yul\":4469:4474   */\n      dup2\n        /* \"#utility.yul\":4442:4475   */\n      tag_42\n      jump\t// in\n    tag_112:\n        /* \"#utility.yul\":4342:4481   */\n      swap3\n      swap2\n      pop\n      pop\n      jump\t// out\n        /* \"#utility.yul\":4487:5286   */\n    tag_11:\n        /* \"#utility.yul\":4574:4580   */\n      0x00\n        /* \"#utility.yul\":4582:4588   */\n      dup1\n        /* \"#utility.yul\":4590:4596   */\n      0x00\n        /* \"#utility.yul\":4639:4641   */\n      0x60\n        /* \"#utility.yul\":4627:4636   */\n      dup5\n        /* \"#utility.yul\":4618:4625   */\n      dup7\n        /* \"#utility.yul\":4614:4637   */\n      sub\n        /* \"#utility.yul\":4610:4642   */\n      slt\n        /* \"#utility.yul\":4607:4726   */\n      iszero\n      tag_114\n      jumpi\n        /* \"#utility.yul\":4645:4724   */\n      tag_115\n      tag_31\n      jump\t// in\n    tag_115:\n        /* \"#utility.yul\":4607:4726   */\n    tag_114:\n        /* \"#utility.yul\":4793:4794   */\n      0x00\n        /* \"#utility.yul\":4782:4791   */\n      dup5\n        /* \"#utility.yul\":4778:4795   */\n      add\n        /* \"#utility.yul\":4765:4796   */\n      calldataload\n        /* \"#utility.yul\":4823:4841   */\n      0xffffffffffffffff\n        /* \"#utility.yul\":4815:4821   */\n      dup2\n        /* \"#utility.yul\":4812:4842   */\n      gt\n        /* \"#utility.yul\":4809:4926   */\n      iszero\n      tag_116\n      jumpi\n        /* \"#utility.yul\":4845:4924   */\n      tag_117\n      tag_32\n      jump\t// in\n    tag_117:\n        /* \"#utility.yul\":4809:4926   */\n    tag_116:\n        /* \"#utility.yul\":4950:5013   */\n      tag_118\n        /* \"#utility.yul\":5005:5012   */\n      dup7\n        /* \"#utility.yul\":4996:5002   */\n      dup3\n        /* \"#utility.yul\":4985:4994   */\n      dup8\n        /* \"#utility.yul\":4981:5003   */\n      add\n        /* \"#utility.yul\":4950:5013   */\n      tag_41\n      jump\t// in\n    tag_118:\n        /* \"#utility.yul\":4940:5013   */\n      swap4\n      pop\n        /* \"#utility.yul\":4736:5023   */\n      pop\n        /* \"#utility.yul\":5062:5064   */\n      0x20\n        /* \"#utility.yul\":5088:5141   */\n      tag_119\n        /* \"#utility.yul\":5133:5140   */\n      dup7\n        /* \"#utility.yul\":5124:5130   */\n      dup3\n        /* \"#utility.yul\":5113:5122   */\n      dup8\n        /* \"#utility.yul\":5109:5131   */\n      add\n        /* \"#utility.yul\":5088:5141   */\n      tag_43\n      jump\t// in\n    tag_119:\n        /* \"#utility.yul\":5078:5141   */\n      swap3\n      pop\n        /* \"#utility.yul\":5033:5151   */\n      pop\n        /* \"#utility.yul\":5190:5192   */\n      0x40\n        /* \"#utility.yul\":5216:5269   */\n      tag_120\n        /* \"#utility.yul\":5261:5268   */\n      dup7\n        /* \"#utility.yul\":5252:5258   */\n      dup3\n        /* \"#utility.yul\":5241:5250   */\n      dup8\n        /* \"#utility.yul\":5237:5259   */\n      add\n        /* \"#utility.yul\":5216:5269   */\n      tag_43\n      jump\t// in\n    tag_120:\n        /* \"#utility.yul\":5206:5269   */\n      swap2\n      pop\n        /* \"#utility.yul\":5161:5279   */\n      pop\n        /* \"#utility.yul\":4487:5286   */\n      swap3\n      pop\n      swap3\n      pop\n      swap3\n      jump\t// out\n        /* \"#utility.yul\":5292:5472   */\n    tag_44:\n        /* \"#utility.yul\":5340:5417   */\n      0x4e487b7100000000000000000000000000000000000000000000000000000000\n        /* \"#utility.yul\":5337:5338   */\n      0x00\n        /* \"#utility.yul\":5330:5418   */\n      mstore\n        /* \"#utility.yul\":5437:5441   */\n      0x22\n        /* \"#utility.yul\":5434:5435   */\n      0x04\n        /* \"#utility.yul\":5427:5442   */\n      mstore\n        /* \"#utility.yul\":5461:5465   */\n      0x24\n        /* \"#utility.yul\":5458:5459   */\n      0x00\n        /* \"#utility.yul\":5451:5466   */\n      revert\n        /* \"#utility.yul\":5478:5798   */\n    tag_15:\n        /* \"#utility.yul\":5522:5528   */\n      0x00\n        /* \"#utility.yul\":5559:5560   */\n      0x02\n        /* \"#utility.yul\":5553:5557   */\n      dup3\n        /* \"#utility.yul\":5549:5561   */\n      div\n        /* \"#utility.yul\":5539:5561   */\n      swap1\n      pop\n        /* \"#utility.yul\":5606:5607   */\n      0x01\n        /* \"#utility.yul\":5600:5604   */\n      dup3\n        /* \"#utility.yul\":5596:5608   */\n      and\n        /* \"#utility.yul\":5627:5645   */\n      dup1\n        /* \"#utility.yul\":5617:5698   */\n      tag_123\n      jumpi\n        /* \"#utility.yul\":5683:5687   */\n      0x7f\n        /* \"#utility.yul\":5675:5681   */\n      dup3\n        /* \"#utility.yul\":5671:5688   */\n      and\n        /* \"#utility.yul\":5661:5688   */\n      swap2\n      pop\n        /* \"#utility.yul\":5617:5698   */\n    tag_123:\n        /* \"#utility.yul\":5745:5747   */\n      0x20\n        /* \"#utility.yul\":5737:5743   */\n      dup3\n        /* \"#utility.yul\":5734:5748   */\n      lt\n        /* \"#utility.yul\":5714:5732   */\n      dup2\n        /* \"#utility.yul\":5711:5749   */\n      sub\n        /* \"#utility.yul\":5708:5792   */\n      tag_124\n      jumpi\n        /* \"#utility.yul\":5764:5782   */\n      tag_125\n      tag_44\n      jump\t// in\n    tag_125:\n        /* \"#utility.yul\":5708:5792   */\n    tag_124:\n        /* \"#utility.yul\":5529:5798   */\n      pop\n        /* \"#utility.yul\":5478:5798   */\n      swap2\n      swap1\n      pop\n      jump\t// out\n        /* \"#utility.yul\":5804:5945   */\n    tag_45:\n        /* \"#utility.yul\":5853:5857   */\n      0x00\n        /* \"#utility.yul\":5876:5879   */\n      dup2\n        /* \"#utility.yul\":5868:5879   */\n      swap1\n      pop\n        /* \"#utility.yul\":5899:5902   */\n      dup2\n        /* \"#utility.yul\":5896:5897   */\n      0x00\n        /* \"#utility.yul\":5889:5903   */\n      mstore\n        /* \"#utility.yul\":5933:5937   */\n      0x20\n        /* \"#utility.yul\":5930:5931   */\n      0x00\n        /* \"#utility.yul\":5920:5938   */\n      keccak256\n        /* \"#utility.yul\":5912:5938   */\n      swap1\n      pop\n        /* \"#utility.yul\":5804:5945   */\n      swap2\n      swap1\n      pop\n      jump\t// out\n        /* \"#utility.yul\":5951:6044   */\n    tag_46:\n        /* \"#utility.yul\":5988:5994   */\n      0x00\n        /* \"#utility.yul\":6035:6037   */\n      0x20\n        /* \"#utility.yul\":6030:6032   */\n      0x1f\n        /* \"#utility.yul\":6023:6028   */\n      dup4\n        /* \"#utility.yul\":6019:6033   */\n      add\n        /* \"#utility.yul\":6015:6038   */\n      div\n        /* \"#utility.yul\":6005:6038   */\n      swap1\n      pop\n        /* \"#utility.yul\":5951:6044   */\n      swap2\n      swap1\n      pop\n      jump\t// out\n        /* \"#utility.yul\":6050:6157   */\n    tag_47:\n        /* \"#utility.yul\":6094:6102   */\n      0x00\n        /* \"#utility.yul\":6144:6149   */\n      dup3\n        /* \"#utility.yul\":6138:6142   */\n      dup3\n        /* \"#utility.yul\":6134:6150   */\n      shl\n        /* \"#utility.yul\":6113:6150   */\n      swap1\n      pop\n        /* \"#utility.yul\":6050:6157   */\n      swap3\n      swap2\n      pop\n      pop\n      jump\t// out\n        /* \"#utility.yul\":6163:6556   */\n    tag_48:\n        /* \"#utility.yul\":6232:6238   */\n      0x00\n        /* \"#utility.yul\":6282:6283   */\n      0x08\n        /* \"#utility.yul\":6270:6280   */\n      dup4\n        /* \"#utility.yul\":6266:6284   */\n      mul\n        /* \"#utility.yul\":6305:6402   */\n      tag_130\n        /* \"#utility.yul\":6335:6401   */\n      0xffffffffffffffffffffffffffffffffffffffffffffffffffffffffffffffff\n        /* \"#utility.yul\":6324:6333   */\n      dup3\n        /* \"#utility.yul\":6305:6402   */\n      tag_47\n      jump\t// in\n    tag_130:\n        /* \"#utility.yul\":6423:6462   */\n      tag_131\n        /* \"#utility.yul\":6453:6461   */\n      dup7\n        /* \"#utility.yul\":6442:6451   */\n      dup4\n        /* \"#utility.yul\":6423:6462   */\n      tag_47\n      jump\t// in\n    tag_131:\n        /* \"#utility.yul\":6411:6462   */\n      swap6\n      pop\n        /* \"#utility.yul\":6495:6499   */\n      dup1\n        /* \"#utility.yul\":6491:6500   */\n      not\n        /* \"#utility.yul\":6484:6489   */\n      dup5\n        /* \"#utility.yul\":6480:6501   */\n      and\n        /* \"#utility.yul\":6471:6501   */\n      swap4\n      pop\n        /* \"#utility.yul\":6544:6548   */\n      dup1\n        /* \"#utility.yul\":6534:6542   */\n      dup7\n        /* \"#utility.yul\":6530:6549   */\n      and\n        /* \"#utility.yul\":6523:6528   */\n      dup5\n        /* \"#utility.yul\":6520:6550   */\n      or\n        /* \"#utility.yul\":6510:6550   */\n      swap3\n      pop\n        /* \"#utility.yul\":6239:6556   */\n      pop\n      pop\n        /* \"#utility.yul\":6163:6556   */\n      swap4\n      swap3\n      pop\n      pop\n      pop\n      jump\t// out\n        /* \"#utility.yul\":6562:6622   */\n    tag_49:\n        /* \"#utility.yul\":6590:6593   */\n      0x00\n        /* \"#utility.yul\":6611:6616   */\n      dup2\n        /* \"#utility.yul\":6604:6616   */\n      swap1\n      pop\n        /* \"#utility.yul\":6562:6622   */\n      swap2\n      swap1\n      pop\n      jump\t// out\n        /* \"#utility.yul\":6628:6770   */\n    tag_50:\n        /* \"#utility.yul\":6678:6687   */\n      0x00\n        /* \"#utility.yul\":6711:6764   */\n      tag_134\n        /* \"#utility.yul\":6729:6763   */\n      tag_135\n        /* \"#utility.yul\":6738:6762   */\n      tag_136\n        /* \"#utility.yul\":6756:6761   */\n      dup5\n        /* \"#utility.yul\":6738:6762   */\n      tag_28\n      jump\t// in\n    tag_136:\n        /* \"#utility.yul\":6729:6763   */\n      tag_49\n      jump\t// in\n    tag_135:\n        /* \"#utility.yul\":6711:6764   */\n      tag_28\n      jump\t// in\n    tag_134:\n        /* \"#utility.yul\":6698:6764   */\n      swap1\n      pop\n        /* \"#utility.yul\":6628:6770   */\n      swap2\n      swap1\n      pop\n      jump\t// out\n        /* \"#utility.yul\":6776:6851   */\n    tag_51:\n        /* \"#utility.yul\":6819:6822   */\n      0x00\n        /* \"#utility.yul\":6840:6845   */\n      dup2\n        /* \"#utility.yul\":6833:6845   */\n      swap1\n      pop\n        /* \"#utility.yul\":6776:6851   */\n      swap2\n      swap1\n      pop\n      jump\t// out\n        /* \"#utility.yul\":6857:7126   */\n    tag_52:\n        /* \"#utility.yul\":6967:7006   */\n      tag_139\n        /* \"#utility.yul\":6998:7005   */\n      dup4\n        /* \"#utility.yul\":6967:7006   */\n      tag_50\n      jump\t// in\n    tag_139:\n        /* \"#utility.yul\":7028:7119   */\n      tag_140\n        /* \"#utility.yul\":7077:7118   */\n      tag_141\n        /* \"#utility.yul\":7101:7117   */\n      dup3\n        /* \"#utility.yul\":7077:7118   */\n      tag_51\n      jump\t// in\n    tag_141:\n        /* \"#utility.yul\":7069:7075   */\n      dup5\n        /* \"#utility.yul\":7062:7066   */\n      dup5\n        /* \"#utility.yul\":7056:7067   */\n      sload\n        /* \"#utility.yul\":7028:7119   */\n      tag_48\n      jump\t// in\n    tag_140:\n        /* \"#utility.yul\":7022:7026   */\n      dup3\n        /* \"#utility.yul\":7015:7120   */\n      sstore\n        /* \"#utility.yul\":6933:7126   */\n      pop\n        /* \"#utility.yul\":6857:7126   */\n      pop\n      pop\n      pop\n      jump\t// out\n        /* \"#utility.yul\":7132:7205   */\n    tag_53:\n        /* \"#utility.yul\":7177:7180   */\n      0x00\n        /* \"#utility.yul\":7132:7205   */\n      swap1\n      jump\t// out\n        /* \"#utility.yul\":7211:7400   */\n    tag_54:\n        /* \"#utility.yul\":7288:7320   */\n      tag_144\n      tag_53\n      jump\t// in\n    tag_144:\n        /* \"#utility.yul\":7329:7394   */\n      tag_145\n        /* \"#utility.yul\":7387:7393   */\n      dup2\n        /* \"#utility.yul\":7379:7385   */\n      dup5\n        /* \"#utility.yul\":7373:7377   */\n      dup5\n        /* \"#utility.yul\":7329:7394   */\n      tag_52\n      jump\t// in\n    tag_145:\n        /* \"#utility.yul\":7264:7400   */\n      pop\n        /* \"#utility.yul\":7211:7400   */\n      pop\n      pop\n      jump\t// out\n        /* \"#utility.yul\":7406:7592   */\n    tag_55:\n        /* \"#utility.yul\":7466:7586   */\n    tag_147:\n        /* \"#utility.yul\":7483:7486   */\n      dup2\n        /* \"#utility.yul\":7476:7481   */\n      dup2\n        /* \"#utility.yul\":7473:7487   */\n      lt\n        /* \"#utility.yul\":7466:7586   */\n      iszero\n      tag_149\n      jumpi\n        /* \"#utility.yul\":7537:7576   */\n      tag_150\n        /* \"#utility.yul\":7574:7575   */\n      0x00\n        /* \"#utility.yul\":7567:7572   */\n      dup3\n        /* \"#utility.yul\":7537:7576   */\n      tag_54\n      jump\t// in\n    tag_150:\n        /* \"#utility.yul\":7510:7511   */\n      0x01\n        /* \"#utility.yul\":7503:7508   */\n      dup2\n        /* \"#utility.yul\":7499:7512   */\n      add\n        /* \"#utility.yul\":7490:7512   */\n      swap1\n      pop\n        /* \"#utility.yul\":7466:7586   */\n      jump(tag_147)\n    tag_149:\n        /* \"#utility.yul\":7406:7592   */\n      pop\n      pop\n      jump\t// out\n        /* \"#utility.yul\":7598:8141   */\n    tag_56:\n        /* \"#utility.yul\":7699:7701   */\n      0x1f\n        /* \"#utility.yul\":7694:7697   */\n      dup3\n        /* \"#utility.yul\":7691:7702   */\n      gt\n        /* \"#utility.yul\":7688:8134   */\n      iszero\n      tag_152\n      jumpi\n        /* \"#utility.yul\":7733:7771   */\n      tag_153\n        /* \"#utility.yul\":7765:7770   */\n      dup2\n        /* \"#utility.yul\":7733:7771   */\n      tag_45\n      jump\t// in\n    tag_153:\n        /* \"#utility.yul\":7817:7846   */\n      tag_154\n        /* \"#utility.yul\":7835:7845   */\n      dup5\n        /* \"#utility.yul\":7817:7846   */\n      tag_46\n      jump\t// in\n    tag_154:\n        /* \"#utility.yul\":7807:7815   */\n      dup2\n        /* \"#utility.yul\":7803:7847   */\n      add\n        /* \"#utility.yul\":8000:8002   */\n      0x20\n        /* \"#utility.yul\":7988:7998   */\n      dup6\n        /* \"#utility.yul\":7985:8003   */\n      lt\n        /* \"#utility.yul\":7982:8031   */\n      iszero\n      tag_155\n      jumpi\n        /* \"#utility.yul\":8021:8029   */\n      dup2\n        /* \"#utility.yul\":8006:8029   */\n      swap1\n      pop\n        /* \"#utility.yul\":7982:8031   */\n    tag_155:\n        /* \"#utility.yul\":8044:8124   */\n      tag_156\n        /* \"#utility.yul\":8100:8122   */\n      tag_157\n        /* \"#utility.yul\":8118:8121   */\n      dup6\n        /* \"#utility.yul\":8100:8122   */\n      tag_46\n      jump\t// in\n    tag_157:\n        /* \"#utility.yul\":8090:8098   */\n      dup4\n        /* \"#utility.yul\":8086:8123   */\n      add\n        /* \"#utility.yul\":8073:8084   */\n      dup3\n        /* \"#utility.yul\":8044:8124   */\n      tag_55\n      jump\t// in\n    tag_156:\n        /* \"#utility.yul\":7703:8134   */\n      pop\n      pop\n        /* \"#utility.yul\":7688:8134   */\n    tag_152:\n        /* \"#utility.yul\":7598:8141   */\n      pop\n      pop\n      pop\n      jump\t// out\n        /* \"#utility.yul\":8147:8264   */\n    tag_57:\n        /* \"#utility.yul\":8201:8209   */\n      0x00\n        /* \"#utility.yul\":8251:8256   */\n      dup3\n        /* \"#utility.yul\":8245:8249   */\n      dup3\n        /* \"#utility.yul\":8241:8257   */\n      shr\n        /* \"#utility.yul\":8220:8257   */\n      swap1\n      pop\n        /* \"#utility.yul\":8147:8264   */\n      swap3\n      swap2\n      pop\n      pop\n      jump\t// out\n        /* \"#utility.yul\":8270:8439   */\n    tag_58:\n        /* \"#utility.yul\":8314:8320   */\n      0x00\n        /* \"#utility.yul\":8347:8398   */\n      tag_160\n        /* \"#utility.yul\":8395:8396   */\n      0x00\n        /* \"#utility.yul\":8391:8397   */\n      not\n        /* \"#utility.yul\":8383:8388   */\n      dup5\n        /* \"#utility.yul\":8380:8381   */\n      0x08\n        /* \"#utility.yul\":8376:8389   */\n      mul\n        /* \"#utility.yul\":8347:8398   */\n      tag_57\n      jump\t// in\n    tag_160:\n        /* \"#utility.yul\":8343:8399   */\n      not\n        /* \"#utility.yul\":8428:8432   */\n      dup1\n        /* \"#utility.yul\":8422:8426   */\n      dup4\n        /* \"#utility.yul\":8418:8433   */\n      and\n        /* \"#utility.yul\":8408:8433   */\n      swap2\n      pop\n        /* \"#utility.yul\":8321:8439   */\n      pop\n        /* \"#utility.yul\":8270:8439   */\n      swap3\n      swap2\n      pop\n      pop\n      jump\t// out\n        /* \"#utility.yul\":8444:8739   */\n    tag_59:\n        /* \"#utility.yul\":8520:8524   */\n      0x00\n        /* \"#utility.yul\":8666:8695   */\n      tag_162\n        /* \"#utility.yul\":8691:8694   */\n      dup4\n        /* \"#utility.yul\":8685:8689   */\n      dup4\n        /* \"#utility.yul\":8666:8695   */\n      tag_58\n      jump\t// in\n    tag_162:\n        /* \"#utility.yul\":8658:8695   */\n      swap2\n      pop\n        /* \"#utility.yul\":8728:8731   */\n      dup3\n        /* \"#utility.yul\":8725:8726   */\n      0x02\n        /* \"#utility.yul\":8721:8732   */\n      mul\n        /* \"#utility.yul\":8715:8719   */\n      dup3\n        /* \"#utility.yul\":8712:8733   */\n      or\n        /* \"#utility.yul\":8704:8733   */\n      swap1\n      pop\n        /* \"#utility.yul\":8444:8739   */\n      swap3\n      swap2\n      pop\n      pop\n      jump\t// out\n        /* \"#utility.yul\":8744:10139   */\n    tag_22:\n        /* \"#utility.yul\":8861:8898   */\n      tag_164\n        /* \"#utility.yul\":8894:8897   */\n      dup3\n        /* \"#utility.yul\":8861:8898   */\n      tag_23\n      jump\t// in\n    tag_164:\n        /* \"#utility.yul\":8963:8981   */\n      0xffffffffffffffff\n        /* \"#utility.yul\":8955:8961   */\n      dup2\n        /* \"#utility.yul\":8952:8982   */\n      gt\n        /* \"#utility.yul\":8949:9005   */\n      iszero\n      tag_165\n      jumpi\n        /* \"#utility.yul\":8985:9003   */\n      tag_166\n      tag_35\n      jump\t// in\n    tag_166:\n        /* \"#utility.yul\":8949:9005   */\n    tag_165:\n        /* \"#utility.yul\":9029:9067   */\n      tag_167\n        /* \"#utility.yul\":9061:9065   */\n      dup3\n        /* \"#utility.yul\":9055:9066   */\n      sload\n        /* \"#utility.yul\":9029:9067   */\n      tag_15\n      jump\t// in\n    tag_167:\n        /* \"#utility.yul\":9114:9181   */\n      tag_168\n        /* \"#utility.yul\":9174:9180   */\n      dup3\n        /* \"#utility.yul\":9166:9172   */\n      dup3\n        /* \"#utility.yul\":9160:9164   */\n      dup6\n        /* \"#utility.yul\":9114:9181   */\n      tag_56\n      jump\t// in\n    tag_168:\n        /* \"#utility.yul\":9208:9209   */\n      0x00\n        /* \"#utility.yul\":9232:9236   */\n      0x20\n        /* \"#utility.yul\":9219:9236   */\n      swap1\n      pop\n        /* \"#utility.yul\":9264:9266   */\n      0x1f\n        /* \"#utility.yul\":9256:9262   */\n      dup4\n        /* \"#utility.yul\":9253:9267   */\n      gt\n        /* \"#utility.yul\":9281:9282   */\n      0x01\n        /* \"#utility.yul\":9276:9894   */\n      dup2\n      eq\n      tag_170\n      jumpi\n        /* \"#utility.yul\":9938:9939   */\n      0x00\n        /* \"#utility.yul\":9955:9961   */\n      dup5\n        /* \"#utility.yul\":9952:10029   */\n      iszero\n      tag_171\n      jumpi\n        /* \"#utility.yul\":10004:10013   */\n      dup3\n        /* \"#utility.yul\":9999:10002   */\n      dup8\n        /* \"#utility.yul\":9995:10014   */\n      add\n        /* \"#utility.yul\":9989:10015   */\n      mload\n        /* \"#utility.yul\":9980:10015   */\n      swap1\n      pop\n        /* \"#utility.yul\":9952:10029   */\n    tag_171:\n        /* \"#utility.yul\":10055:10122   */\n      tag_172\n        /* \"#utility.yul\":10115:10121   */\n      dup6\n        /* \"#utility.yul\":10108:10113   */\n      dup3\n        /* \"#utility.yul\":10055:10122   */\n      tag_59\n      jump\t// in\n    tag_172:\n        /* \"#utility.yul\":10049:10053   */\n      dup7\n        /* \"#utility.yul\":10042:10123   */\n      sstore\n        /* \"#utility.yul\":9911:10133   */\n      pop\n        /* \"#utility.yul\":9246:10133   */\n      jump(tag_169)\n        /* \"#utility.yul\":9276:9894   */\n    tag_170:\n        /* \"#utility.yul\":9328:9332   */\n      0x1f\n        /* \"#utility.yul\":9324:9333   */\n      not\n        /* \"#utility.yul\":9316:9322   */\n      dup5\n        /* \"#utility.yul\":9312:9334   */\n      and\n        /* \"#utility.yul\":9362:9399   */\n      tag_173\n        /* \"#utility.yul\":9394:9398   */\n      dup7\n        /* \"#utility.yul\":9362:9399   */\n      tag_45\n      jump\t// in\n    tag_173:\n        /* \"#utility.yul\":9421:9422   */\n      0x00\n        /* \"#utility.yul\":9435:9643   */\n    tag_174:\n        /* \"#utility.yul\":9449:9456   */\n      dup3\n        /* \"#utility.yul\":9446:9447   */\n      dup2\n        /* \"#utility.yul\":9443:9457   */\n      lt\n        /* \"#utility.yul\":9435:9643   */\n      iszero\n      tag_176\n      jumpi\n        /* \"#utility.yul\":9528:9537   */\n      dup5\n        /* \"#utility.yul\":9523:9526   */\n      dup10\n        /* \"#utility.yul\":9519:9538   */\n      add\n        /* \"#utility.yul\":9513:9539   */\n      mload\n        /* \"#utility.yul\":9505:9511   */\n      dup3\n        /* \"#utility.yul\":9498:9540   */\n      sstore\n        /* \"#utility.yul\":9579:9580   */\n      0x01\n        /* \"#utility.yul\":9571:9577   */\n      dup3\n        /* \"#utility.yul\":9567:9581   */\n      add\n        /* \"#utility.yul\":9557:9581   */\n      swap2\n      pop\n        /* \"#utility.yul\":9626:9628   */\n      0x20\n        /* \"#utility.yul\":9615:9624   */\n      dup6\n        /* \"#utility.yul\":9611:9629   */\n      add\n        /* \"#utility.yul\":9598:9629   */\n      swap5\n      pop\n        /* \"#utility.yul\":9472:9476   */\n      0x20\n        /* \"#utility.yul\":9469:9470   */\n      dup2\n        /* \"#utility.yul\":9465:9477   */\n      add\n        /* \"#utility.yul\":9460:9477   */\n      swap1\n      pop\n        /* \"#utility.yul\":9435:9643   */\n      jump(tag_174)\n    tag_176:\n        /* \"#utility.yul\":9671:9677   */\n      dup7\n        /* \"#utility.yul\":9662:9669   */\n      dup4\n        /* \"#utility.yul\":9659:9678   */\n      lt\n        /* \"#utility.yul\":9656:9835   */\n      iszero\n      tag_177\n      jumpi\n        /* \"#utility.yul\":9729:9738   */\n      dup5\n        /* \"#utility.yul\":9724:9727   */\n      dup10\n        /* \"#utility.yul\":9720:9739   */\n      add\n        /* \"#utility.yul\":9714:9740   */\n      mload\n        /* \"#utility.yul\":9772:9820   */\n      tag_178\n        /* \"#utility.yul\":9814:9818   */\n      0x1f\n        /* \"#utility.yul\":9806:9812   */\n      dup10\n        /* \"#utility.yul\":9802:9819   */\n      and\n        /* \"#utility.yul\":9791:9800   */\n      dup3\n        /* \"#utility.yul\":9772:9820   */\n      tag_58\n      jump\t// in\n    tag_178:\n        /* \"#utility.yul\":9764:9770   */\n      dup4\n        /* \"#utility.yul\":9757:9821   */\n      sstore\n        /* \"#utility.yul\":9679:9835   */\n      pop\n        /* \"#utility.yul\":9656:9835   */\n    tag_177:\n        /* \"#utility.yul\":9881:9882   */\n      0x01\n        /* \"#utility.yul\":9877:9878   */\n      0x02\n        /* \"#utility.yul\":9869:9875   */\n      dup9\n        /* \"#utility.yul\":9865:9879   */\n      mul\n        /* \"#utility.yul\":9861:9883   */\n      add\n        /* \"#utility.yul\":9855:9859   */\n      dup9\n        /* \"#utility.yul\":9848:9884   */\n      sstore\n        /* \"#utility.yul\":9283:9894   */\n      pop\n      pop\n      pop\n        /* \"#utility.yul\":9246:10133   */\n    tag_169:\n      pop\n        /* \"#utility.yul\":8836:10139   */\n      pop\n      pop\n      pop\n        /* \"#utility.yul\":8744:10139   */\n      pop\n      pop\n      jump\t// out\n\n    auxdata: 0xa264697066735822122099f0ea8ca641e2bec03d1478f3a70c82b120863bfbdbca6ffbf6c4a569cdf7ca64736f6c63430008140033\n}\n",
				"bytecode": {
					"linkReferences": {},
					"object": "608060405234801561000f575f80fd5b506106f28061001d5f395ff3fe608060405234801561000f575f80fd5b5060043610610034575f3560e01c806336038a3514610038578063f846910314610058575b5f80fd5b610040610074565b60405161004f939291906101e4565b60405180910390f35b610072600480360381019061006d9190610387565b61011a565b005b60605f805f80015f600101545f6002015482805461009190610420565b80601f01602080910402602001604051908101604052809291908181526020018280546100bd90610420565b80156101085780601f106100df57610100808354040283529160200191610108565b820191905f5260205f20905b8154815290600101906020018083116100eb57829003601f168201915b50505050509250925092509250909192565b825f8001908161012a91906105ed565b50815f60010181905550805f60020181905550505050565b5f81519050919050565b5f82825260208201905092915050565b5f5b8381101561017957808201518184015260208101905061015e565b5f8484015250505050565b5f601f19601f8301169050919050565b5f61019e82610142565b6101a8818561014c565b93506101b881856020860161015c565b6101c181610184565b840191505092915050565b5f819050919050565b6101de816101cc565b82525050565b5f6060820190508181035f8301526101fc8186610194565b905061020b60208301856101d5565b61021860408301846101d5565b949350505050565b5f604051905090565b5f80fd5b5f80fd5b5f80fd5b5f80fd5b7f4e487b71000000000000000000000000000000000000000000000000000000005f52604160045260245ffd5b61026f82610184565b810181811067ffffffffffffffff8211171561028e5761028d610239565b5b80604052505050565b5f6102a0610220565b90506102ac8282610266565b919050565b5f67ffffffffffffffff8211156102cb576102ca610239565b5b6102d482610184565b9050602081019050919050565b828183375f83830152505050565b5f6103016102fc846102b1565b610297565b90508281526020810184848401111561031d5761031c610235565b5b6103288482856102e1565b509392505050565b5f82601f83011261034457610343610231565b5b81356103548482602086016102ef565b91505092915050565b610366816101cc565b8114610370575f80fd5b50565b5f813590506103818161035d565b92915050565b5f805f6060848603121561039e5761039d610229565b5b5f84013567ffffffffffffffff8111156103bb576103ba61022d565b5b6103c786828701610330565b93505060206103d886828701610373565b92505060406103e986828701610373565b9150509250925092565b7f4e487b71000000000000000000000000000000000000000000000000000000005f52602260045260245ffd5b5f600282049050600182168061043757607f821691505b60208210810361044a576104496103f3565b5b50919050565b5f819050815f5260205f209050919050565b5f6020601f8301049050919050565b5f82821b905092915050565b5f600883026104ac7fffffffffffffffffffffffffffffffffffffffffffffffffffffffffffffffff82610471565b6104b68683610471565b95508019841693508086168417925050509392505050565b5f819050919050565b5f6104f16104ec6104e7846101cc565b6104ce565b6101cc565b9050919050565b5f819050919050565b61050a836104d7565b61051e610516826104f8565b84845461047d565b825550505050565b5f90565b610532610526565b61053d818484610501565b505050565b5b81811015610560576105555f8261052a565b600181019050610543565b5050565b601f8211156105a55761057681610450565b61057f84610462565b8101602085101561058e578190505b6105a261059a85610462565b830182610542565b50505b505050565b5f82821c905092915050565b5f6105c55f19846008026105aa565b1980831691505092915050565b5f6105dd83836105b6565b9150826002028217905092915050565b6105f682610142565b67ffffffffffffffff81111561060f5761060e610239565b5b6106198254610420565b610624828285610564565b5f60209050601f831160018114610655575f8415610643578287015190505b61064d85826105d2565b8655506106b4565b601f19841661066386610450565b5f5b8281101561068a57848901518255600182019150602085019450602081019050610665565b868310156106a757848901516106a3601f8916826105b6565b8355505b6001600288020188555050505b50505050505056fea264697066735822122099f0ea8ca641e2bec03d1478f3a70c82b120863bfbdbca6ffbf6c4a569cdf7ca64736f6c63430008140033",
					"opcodes": "PUSH1 0x80 PUSH1 0x40 MSTORE CALLVALUE DUP1 ISZERO PUSH2 0xF JUMPI PUSH0 DUP1 REVERT JUMPDEST POP PUSH2 0x6F2 DUP1 PUSH2 0x1D PUSH0 CODECOPY PUSH0 RETURN INVALID PUSH1 0x80 PUSH1 0x40 MSTORE CALLVALUE DUP1 ISZERO PUSH2 0xF JUMPI PUSH0 DUP1 REVERT JUMPDEST POP PUSH1 0x4 CALLDATASIZE LT PUSH2 0x34 JUMPI PUSH0 CALLDATALOAD PUSH1 0xE0 SHR DUP1 PUSH4 0x36038A35 EQ PUSH2 0x38 JUMPI DUP1 PUSH4 0xF8469103 EQ PUSH2 0x58 JUMPI JUMPDEST PUSH0 DUP1 REVERT JUMPDEST PUSH2 0x40 PUSH2 0x74 JUMP JUMPDEST PUSH1 0x40 MLOAD PUSH2 0x4F SWAP4 SWAP3 SWAP2 SWAP1 PUSH2 0x1E4 JUMP JUMPDEST PUSH1 0x40 MLOAD DUP1 SWAP2 SUB SWAP1 RETURN JUMPDEST PUSH2 0x72 PUSH1 0x4 DUP1 CALLDATASIZE SUB DUP2 ADD SWAP1 PUSH2 0x6D SWAP2 SWAP1 PUSH2 0x387 JUMP JUMPDEST PUSH2 0x11A JUMP JUMPDEST STOP JUMPDEST PUSH1 0x60 PUSH0 DUP1 PUSH0 DUP1 ADD PUSH0 PUSH1 0x1 ADD SLOAD PUSH0 PUSH1 0x2 ADD SLOAD DUP3 DUP1 SLOAD PUSH2 0x91 SWAP1 PUSH2 0x420 JUMP JUMPDEST DUP1 PUSH1 0x1F ADD PUSH1 0x20 DUP1 SWAP2 DIV MUL PUSH1 0x20 ADD PUSH1 0x40 MLOAD SWAP1 DUP2 ADD PUSH1 0x40 MSTORE DUP1 SWAP3 SWAP2 SWAP1 DUP2 DUP2 MSTORE PUSH1 0x20 ADD DUP3 DUP1 SLOAD PUSH2 0xBD SWAP1 PUSH2 0x420 JUMP JUMPDEST DUP1 ISZERO PUSH2 0x108 JUMPI DUP1 PUSH1 0x1F LT PUSH2 0xDF JUMPI PUSH2 0x100 DUP1 DUP4 SLOAD DIV MUL DUP4 MSTORE SWAP2 PUSH1 0x20 ADD SWAP2 PUSH2 0x108 JUMP JUMPDEST DUP3 ADD SWAP2 SWAP1 PUSH0 MSTORE PUSH1 0x20 PUSH0 KECCAK256 SWAP1 JUMPDEST DUP2 SLOAD DUP2 MSTORE SWAP1 PUSH1 0x1 ADD SWAP1 PUSH1 0x20 ADD DUP1 DUP4 GT PUSH2 0xEB JUMPI DUP3 SWAP1 SUB PUSH1 0x1F AND DUP3 ADD SWAP2 JUMPDEST POP POP POP POP POP SWAP3 POP SWAP3 POP SWAP3 POP SWAP3 POP SWAP1 SWAP2 SWAP3 JUMP JUMPDEST DUP3 PUSH0 DUP1 ADD SWAP1 DUP2 PUSH2 0x12A SWAP2 SWAP1 PUSH2 0x5ED JUMP JUMPDEST POP DUP2 PUSH0 PUSH1 0x1 ADD DUP2 SWAP1 SSTORE POP DUP1 PUSH0 PUSH1 0x2 ADD DUP2 SWAP1 SSTORE POP POP POP POP JUMP JUMPDEST PUSH0 DUP2 MLOAD SWAP1 POP SWAP2 SWAP1 POP JUMP JUMPDEST PUSH0 DUP3 DUP3 MSTORE PUSH1 0x20 DUP3 ADD SWAP1 POP SWAP3 SWAP2 POP POP JUMP JUMPDEST PUSH0 JUMPDEST DUP4 DUP2 LT ISZERO PUSH2 0x179 JUMPI DUP1 DUP3 ADD MLOAD DUP2 DUP5 ADD MSTORE PUSH1 0x20 DUP2 ADD SWAP1 POP PUSH2 0x15E JUMP JUMPDEST PUSH0 DUP5 DUP5 ADD MSTORE POP POP POP POP JUMP JUMPDEST PUSH0 PUSH1 0x1F NOT PUSH1 0x1F DUP4 ADD AND SWAP1 POP SWAP2 SWAP1 POP JUMP JUMPDEST PUSH0 PUSH2 0x19E DUP3 PUSH2 0x142 JUMP JUMPDEST PUSH2 0x1A8 DUP2 DUP6 PUSH2 0x14C JUMP JUMPDEST SWAP4 POP PUSH2 0x1B8 DUP2 DUP6 PUSH1 0x20 DUP7 ADD PUSH2 0x15C JUMP JUMPDEST PUSH2 0x1C1 DUP2 PUSH2 0x184 JUMP JUMPDEST DUP5 ADD SWAP2 POP POP SWAP3 SWAP2 POP POP JUMP JUMPDEST PUSH0 DUP2 SWAP1 POP SWAP2 SWAP1 POP JUMP JUMPDEST PUSH2 0x1DE DUP2 PUSH2 0x1CC JUMP JUMPDEST DUP3 MSTORE POP POP JUMP JUMPDEST PUSH0 PUSH1 0x60 DUP3 ADD SWAP1 POP DUP2 DUP2 SUB PUSH0 DUP4 ADD MSTORE PUSH2 0x1FC DUP2 DUP7 PUSH2 0x194 JUMP JUMPDEST SWAP1 POP PUSH2 0x20B PUSH1 0x20 DUP4 ADD DUP6 PUSH2 0x1D5 JUMP JUMPDEST PUSH2 0x218 PUSH1 0x40 DUP4 ADD DUP5 PUSH2 0x1D5 JUMP JUMPDEST SWAP5 SWAP4 POP POP POP POP JUMP JUMPDEST PUSH0 PUSH1 0x40 MLOAD SWAP1 POP SWAP1 JUMP JUMPDEST PUSH0 DUP1 REVERT JUMPDEST PUSH0 DUP1 REVERT JUMPDEST PUSH0 DUP1 REVERT JUMPDEST PUSH0 DUP1 REVERT JUMPDEST PUSH32 0x4E487B7100000000000000000000000000000000000000000000000000000000 PUSH0 MSTORE PUSH1 0x41 PUSH1 0x4 MSTORE PUSH1 0x24 PUSH0 REVERT JUMPDEST PUSH2 0x26F DUP3 PUSH2 0x184 JUMP JUMPDEST DUP2 ADD DUP2 DUP2 LT PUSH8 0xFFFFFFFFFFFFFFFF DUP3 GT OR ISZERO PUSH2 0x28E JUMPI PUSH2 0x28D PUSH2 0x239 JUMP JUMPDEST JUMPDEST DUP1 PUSH1 0x40 MSTORE POP POP POP JUMP JUMPDEST PUSH0 PUSH2 0x2A0 PUSH2 0x220 JUMP JUMPDEST SWAP1 POP PUSH2 0x2AC DUP3 DUP3 PUSH2 0x266 JUMP JUMPDEST SWAP2 SWAP1 POP JUMP JUMPDEST PUSH0 PUSH8 0xFFFFFFFFFFFFFFFF DUP3 GT ISZERO PUSH2 0x2CB JUMPI PUSH2 0x2CA PUSH2 0x239 JUMP JUMPDEST JUMPDEST PUSH2 0x2D4 DUP3 PUSH2 0x184 JUMP JUMPDEST SWAP1 POP PUSH1 0x20 DUP2 ADD SWAP1 POP SWAP2 SWAP1 POP JUMP JUMPDEST DUP3 DUP2 DUP4 CALLDATACOPY PUSH0 DUP4 DUP4 ADD MSTORE POP POP POP JUMP JUMPDEST PUSH0 PUSH2 0x301 PUSH2 0x2FC DUP5 PUSH2 0x2B1 JUMP JUMPDEST PUSH2 0x297 JUMP JUMPDEST SWAP1 POP DUP3 DUP2 MSTORE PUSH1 0x20 DUP2 ADD DUP5 DUP5 DUP5 ADD GT ISZERO PUSH2 0x31D JUMPI PUSH2 0x31C PUSH2 0x235 JUMP JUMPDEST JUMPDEST PUSH2 0x328 DUP5 DUP3 DUP6 PUSH2 0x2E1 JUMP JUMPDEST POP SWAP4 SWAP3 POP POP POP JUMP JUMPDEST PUSH0 DUP3 PUSH1 0x1F DUP4 ADD SLT PUSH2 0x344 JUMPI PUSH2 0x343 PUSH2 0x231 JUMP JUMPDEST JUMPDEST DUP2 CALLDATALOAD PUSH2 0x354 DUP5 DUP3 PUSH1 0x20 DUP7 ADD PUSH2 0x2EF JUMP JUMPDEST SWAP2 POP POP SWAP3 SWAP2 POP POP JUMP JUMPDEST PUSH2 0x366 DUP2 PUSH2 0x1CC JUMP JUMPDEST DUP2 EQ PUSH2 0x370 JUMPI PUSH0 DUP1 REVERT JUMPDEST POP JUMP JUMPDEST PUSH0 DUP2 CALLDATALOAD SWAP1 POP PUSH2 0x381 DUP2 PUSH2 0x35D JUMP JUMPDEST SWAP3 SWAP2 POP POP JUMP JUMPDEST PUSH0 DUP1 PUSH0 PUSH1 0x60 DUP5 DUP7 SUB SLT ISZERO PUSH2 0x39E JUMPI PUSH2 0x39D PUSH2 0x229 JUMP JUMPDEST JUMPDEST PUSH0 DUP5 ADD CALLDATALOAD PUSH8 0xFFFFFFFFFFFFFFFF DUP2 GT ISZERO PUSH2 0x3BB JUMPI PUSH2 0x3BA PUSH2 0x22D JUMP JUMPDEST JUMPDEST PUSH2 0x3C7 DUP7 DUP3 DUP8 ADD PUSH2 0x330 JUMP JUMPDEST SWAP4 POP POP PUSH1 0x20 PUSH2 0x3D8 DUP7 DUP3 DUP8 ADD PUSH2 0x373 JUMP JUMPDEST SWAP3 POP POP PUSH1 0x40 PUSH2 0x3E9 DUP7 DUP3 DUP8 ADD PUSH2 0x373 JUMP JUMPDEST SWAP2 POP POP SWAP3 POP SWAP3 POP SWAP3 JUMP JUMPDEST PUSH32 0x4E487B7100000000000000000000000000000000000000000000000000000000 PUSH0 MSTORE PUSH1 0x22 PUSH1 0x4 MSTORE PUSH1 0x24 PUSH0 REVERT JUMPDEST PUSH0 PUSH1 0x2 DUP3 DIV SWAP1 POP PUSH1 0x1 DUP3 AND DUP1 PUSH2 0x437 JUMPI PUSH1 0x7F DUP3 AND SWAP2 POP JUMPDEST PUSH1 0x20 DUP3 LT DUP2 SUB PUSH2 0x44A JUMPI PUSH2 0x449 PUSH2 0x3F3 JUMP JUMPDEST JUMPDEST POP SWAP2 SWAP1 POP JUMP JUMPDEST PUSH0 DUP2 SWAP1 POP DUP2 PUSH0 MSTORE PUSH1 0x20 PUSH0 KECCAK256 SWAP1 POP SWAP2 SWAP1 POP JUMP JUMPDEST PUSH0 PUSH1 0x20 PUSH1 0x1F DUP4 ADD DIV SWAP1 POP SWAP2 SWAP1 POP JUMP JUMPDEST PUSH0 DUP3 DUP3 SHL SWAP1 POP SWAP3 SWAP2 POP POP JUMP JUMPDEST PUSH0 PUSH1 0x8 DUP4 MUL PUSH2 0x4AC PUSH32 0xFFFFFFFFFFFFFFFFFFFFFFFFFFFFFFFFFFFFFFFFFFFFFFFFFFFFFFFFFFFFFFFF DUP3 PUSH2 0x471 JUMP JUMPDEST PUSH2 0x4B6 DUP7 DUP4 PUSH2 0x471 JUMP JUMPDEST SWAP6 POP DUP1 NOT DUP5 AND SWAP4 POP DUP1 DUP7 AND DUP5 OR SWAP3 POP POP POP SWAP4 SWAP3 POP POP POP JUMP JUMPDEST PUSH0 DUP2 SWAP1 POP SWAP2 SWAP1 POP JUMP JUMPDEST PUSH0 PUSH2 0x4F1 PUSH2 0x4EC PUSH2 0x4E7 DUP5 PUSH2 0x1CC JUMP JUMPDEST PUSH2 0x4CE JUMP JUMPDEST PUSH2 0x1CC JUMP JUMPDEST SWAP1 POP SWAP2 SWAP1 POP JUMP JUMPDEST PUSH0 DUP2 SWAP1 POP SWAP2 SWAP1 POP JUMP JUMPDEST PUSH2 0x50A DUP4 PUSH2 0x4D7 JUMP JUMPDEST PUSH2 0x51E PUSH2 0x516 DUP3 PUSH2 0x4F8 JUMP JUMPDEST DUP5 DUP5 SLOAD PUSH2 0x47D JUMP JUMPDEST DUP3 SSTORE POP POP POP POP JUMP JUMPDEST PUSH0 SWAP1 JUMP JUMPDEST PUSH2 0x532 PUSH2 0x526 JUMP JUMPDEST PUSH2 0x53D DUP2 DUP5 DUP5 PUSH2 0x501 JUMP JUMPDEST POP POP POP JUMP JUMPDEST JUMPDEST DUP2 DUP2 LT ISZERO PUSH2 0x560 JUMPI PUSH2 0x555 PUSH0 DUP3 PUSH2 0x52A JUMP JUMPDEST PUSH1 0x1 DUP2 ADD SWAP1 POP PUSH2 0x543 JUMP JUMPDEST POP POP JUMP JUMPDEST PUSH1 0x1F DUP3 GT ISZERO PUSH2 0x5A5 JUMPI PUSH2 0x576 DUP2 PUSH2 0x450 JUMP JUMPDEST PUSH2 0x57F DUP5 PUSH2 0x462 JUMP JUMPDEST DUP2 ADD PUSH1 0x20 DUP6 LT ISZERO PUSH2 0x58E JUMPI DUP2 SWAP1 POP JUMPDEST PUSH2 0x5A2 PUSH2 0x59A DUP6 PUSH2 0x462 JUMP JUMPDEST DUP4 ADD DUP3 PUSH2 0x542 JUMP JUMPDEST POP POP JUMPDEST POP POP POP JUMP JUMPDEST PUSH0 DUP3 DUP3 SHR SWAP1 POP SWAP3 SWAP2 POP POP JUMP JUMPDEST PUSH0 PUSH2 0x5C5 PUSH0 NOT DUP5 PUSH1 0x8 MUL PUSH2 0x5AA JUMP JUMPDEST NOT DUP1 DUP4 AND SWAP2 POP POP SWAP3 SWAP2 POP POP JUMP JUMPDEST PUSH0 PUSH2 0x5DD DUP4 DUP4 PUSH2 0x5B6 JUMP JUMPDEST SWAP2 POP DUP3 PUSH1 0x2 MUL DUP3 OR SWAP1 POP SWAP3 SWAP2 POP POP JUMP JUMPDEST PUSH2 0x5F6 DUP3 PUSH2 0x142 JUMP JUMPDEST PUSH8 0xFFFFFFFFFFFFFFFF DUP2 GT ISZERO PUSH2 0x60F JUMPI PUSH2 0x60E PUSH2 0x239 JUMP JUMPDEST JUMPDEST PUSH2 0x619 DUP3 SLOAD PUSH2 0x420 JUMP JUMPDEST PUSH2 0x624 DUP3 DUP3 DUP6 PUSH2 0x564 JUMP JUMPDEST PUSH0 PUSH1 0x20 SWAP1 POP PUSH1 0x1F DUP4 GT PUSH1 0x1 DUP2 EQ PUSH2 0x655 JUMPI PUSH0 DUP5 ISZERO PUSH2 0x643 JUMPI DUP3 DUP8 ADD MLOAD SWAP1 POP JUMPDEST PUSH2 0x64D DUP6 DUP3 PUSH2 0x5D2 JUMP JUMPDEST DUP7 SSTORE POP PUSH2 0x6B4 JUMP JUMPDEST PUSH1 0x1F NOT DUP5 AND PUSH2 0x663 DUP7 PUSH2 0x450 JUMP JUMPDEST PUSH0 JUMPDEST DUP3 DUP2 LT ISZERO PUSH2 0x68A JUMPI DUP5 DUP10 ADD MLOAD DUP3 SSTORE PUSH1 0x1 DUP3 ADD SWAP2 POP PUSH1 0x20 DUP6 ADD SWAP5 POP PUSH1 0x20 DUP2 ADD SWAP1 POP PUSH2 0x665 JUMP JUMPDEST DUP7 DUP4 LT ISZERO PUSH2 0x6A7 JUMPI DUP5 DUP10 ADD MLOAD PUSH2 0x6A3 PUSH1 0x1F DUP10 AND DUP3 PUSH2 0x5B6 JUMP JUMPDEST DUP4 SSTORE POP JUMPDEST PUSH1 0x1 PUSH1 0x2 DUP9 MUL ADD DUP9 SSTORE POP POP POP JUMPDEST POP POP POP POP POP POP JUMP INVALID LOG2 PUSH5 0x6970667358 0x22 SLT KECCAK256 SWAP10 CREATE 0xEA DUP13 0xA6 COINBASE 0xE2 0xBE 0xC0 RETURNDATASIZE EQ PUSH25 0xF3A70C82B120863BFBDBCA6FFBF6C4A569CDF7CA64736F6C63 NUMBER STOP ADDMOD EQ STOP CALLER "
				},
				"gasEstimates": {
					"creation": {
						"codeDepositCost": "355600",
						"executionCost": "391",
						"totalCost": "355991"
					},
					"external": {
						"getworkerValues()": "infinite",
						"setworkerValues(string,uint256,uint256)": "infinite"
					}
				},
				"methodIdentifiers": {
					"getworkerValues()": "36038a35",
					"setworkerValues(string,uint256,uint256)": "f8469103"
				}
			},
			"storageLayout": {
				"storage": [
					{
						"astId": 11,
						"contract": "contracts/project.sol:Dapp",
						"label": "_worker",
						"offset": 0,
						"slot": "0",
						"type": "t_struct(worker)8_storage"
					}
				],
				"types": {
					"t_string_storage": {
						"encoding": "bytes",
						"label": "string",
						"numberOfBytes": "32"
					},
					"t_struct(worker)8_storage": {
						"encoding": "inplace",
						"label": "struct Dapp.worker",
						"members": [
							{
								"astId": 3,
								"contract": "contracts/project.sol:Dapp",
								"label": "name",
								"offset": 0,
								"slot": "0",
								"type": "t_string_storage"
							},
							{
								"astId": 5,
								"contract": "contracts/project.sol:Dapp",
								"label": "age",
								"offset": 0,
								"slot": "1",
								"type": "t_uint256"
							},
							{
								"astId": 7,
								"contract": "contracts/project.sol:Dapp",
								"label": "id",
								"offset": 0,
								"slot": "2",
								"type": "t_uint256"
							}
						],
						"numberOfBytes": "96"
					},
					"t_uint256": {
						"encoding": "inplace",
						"label": "uint256",
						"numberOfBytes": "32"
					}
				}
			},
			"userdoc": {
				"kind": "user",
				"methods": {},
				"version": 1
			}
		}
	}
}