{
	"data": {
		"bytecode": {
			"linkReferences": {},
			"object": "608060405234801561000f575f80fd5b506106f28061001d5f395ff3fe608060405234801561000f575f80fd5b5060043610610034575f3560e01c806363b00d0c14610038578063c49ed41114610054575b5f80fd5b610052600480360381019061004d91906102c2565b610074565b005b61005c61009c565b60405161006b939291906103b7565b60405180910390f35b825f8001908161008491906105ed565b50815f60010181905550805f60020181905550505050565b60605f805f80015f600101545f600201548280546100b990610420565b80601f01602080910402602001604051908101604052809291908181526020018280546100e590610420565b80156101305780601f1061010757610100808354040283529160200191610130565b820191905f5260205f20905b81548152906001019060200180831161011357829003601f168201915b50505050509250925092509250909192565b5f604051905090565b5f80fd5b5f80fd5b5f80fd5b5f80fd5b5f601f19601f8301169050919050565b7f4e487b71000000000000000000000000000000000000000000000000000000005f52604160045260245ffd5b6101a18261015b565b810181811067ffffffffffffffff821117156101c0576101bf61016b565b5b80604052505050565b5f6101d2610142565b90506101de8282610198565b919050565b5f67ffffffffffffffff8211156101fd576101fc61016b565b5b6102068261015b565b9050602081019050919050565b828183375f83830152505050565b5f61023361022e846101e3565b6101c9565b90508281526020810184848401111561024f5761024e610157565b5b61025a848285610213565b509392505050565b5f82601f83011261027657610275610153565b5b8135610286848260208601610221565b91505092915050565b5f819050919050565b6102a18161028f565b81146102ab575f80fd5b50565b5f813590506102bc81610298565b92915050565b5f805f606084860312156102d9576102d861014b565b5b5f84013567ffffffffffffffff8111156102f6576102f561014f565b5b61030286828701610262565b9350506020610313868287016102ae565b9250506040610324868287016102ae565b9150509250925092565b5f81519050919050565b5f82825260208201905092915050565b5f5b8381101561036557808201518184015260208101905061034a565b5f8484015250505050565b5f61037a8261032e565b6103848185610338565b9350610394818560208601610348565b61039d8161015b565b840191505092915050565b6103b18161028f565b82525050565b5f6060820190508181035f8301526103cf8186610370565b90506103de60208301856103a8565b6103eb60408301846103a8565b949350505050565b7f4e487b71000000000000000000000000000000000000000000000000000000005f52602260045260245ffd5b5f600282049050600182168061043757607f821691505b60208210810361044a576104496103f3565b5b50919050565b5f819050815f5260205f209050919050565b5f6020601f8301049050919050565b5f82821b905092915050565b5f600883026104ac7fffffffffffffffffffffffffffffffffffffffffffffffffffffffffffffffff82610471565b6104b68683610471565b95508019841693508086168417925050509392505050565b5f819050919050565b5f6104f16104ec6104e78461028f565b6104ce565b61028f565b9050919050565b5f819050919050565b61050a836104d7565b61051e610516826104f8565b84845461047d565b825550505050565b5f90565b610532610526565b61053d818484610501565b505050565b5b81811015610560576105555f8261052a565b600181019050610543565b5050565b601f8211156105a55761057681610450565b61057f84610462565b8101602085101561058e578190505b6105a261059a85610462565b830182610542565b50505b505050565b5f82821c905092915050565b5f6105c55f19846008026105aa565b1980831691505092915050565b5f6105dd83836105b6565b9150826002028217905092915050565b6105f68261032e565b67ffffffffffffffff81111561060f5761060e61016b565b5b6106198254610420565b610624828285610564565b5f60209050601f831160018114610655575f8415610643578287015190505b61064d85826105d2565b8655506106b4565b601f19841661066386610450565b5f5b8281101561068a57848901518255600182019150602085019450602081019050610665565b868310156106a757848901516106a3601f8916826105b6565b8355505b6001600288020188555050505b50505050505056fea2646970667358221220fe0b383b894e5ce814e51be293c6672791a5cabd75434b2cae737a878ab3008264736f6c63430008140033",
			"opcodes": "PUSH1 0x80 PUSH1 0x40 MSTORE CALLVALUE DUP1 ISZERO PUSH2 0xF JUMPI PUSH0 DUP1 REVERT JUMPDEST POP PUSH2 0x6F2 DUP1 PUSH2 0x1D PUSH0 CODECOPY PUSH0 RETURN INVALID PUSH1 0x80 PUSH1 0x40 MSTORE CALLVALUE DUP1 ISZERO PUSH2 0xF JUMPI PUSH0 DUP1 REVERT JUMPDEST POP PUSH1 0x4 CALLDATASIZE LT PUSH2 0x34 JUMPI PUSH0 CALLDATALOAD PUSH1 0xE0 SHR DUP1 PUSH4 0x63B00D0C EQ PUSH2 0x38 JUMPI DUP1 PUSH4 0xC49ED411 EQ PUSH2 0x54 JUMPI JUMPDEST PUSH0 DUP1 REVERT JUMPDEST PUSH2 0x52 PUSH1 0x4 DUP1 CALLDATASIZE SUB DUP2 ADD SWAP1 PUSH2 0x4D SWAP2 SWAP1 PUSH2 0x2C2 JUMP JUMPDEST PUSH2 0x74 JUMP JUMPDEST STOP JUMPDEST PUSH2 0x5C PUSH2 0x9C JUMP JUMPDEST PUSH1 0x40 MLOAD PUSH2 0x6B SWAP4 SWAP3 SWAP2 SWAP1 PUSH2 0x3B7 JUMP JUMPDEST PUSH1 0x40 MLOAD DUP1 SWAP2 SUB SWAP1 RETURN JUMPDEST DUP3 PUSH0 DUP1 ADD SWAP1 DUP2 PUSH2 0x84 SWAP2 SWAP1 PUSH2 0x5ED JUMP JUMPDEST POP DUP2 PUSH0 PUSH1 0x1 ADD DUP2 SWAP1 SSTORE POP DUP1 PUSH0 PUSH1 0x2 ADD DUP2 SWAP1 SSTORE POP POP POP POP JUMP JUMPDEST PUSH1 0x60 PUSH0 DUP1 PUSH0 DUP1 ADD PUSH0 PUSH1 0x1 ADD SLOAD PUSH0 PUSH1 0x2 ADD SLOAD DUP3 DUP1 SLOAD PUSH2 0xB9 SWAP1 PUSH2 0x420 JUMP JUMPDEST DUP1 PUSH1 0x1F ADD PUSH1 0x20 DUP1 SWAP2 DIV MUL PUSH1 0x20 ADD PUSH1 0x40 MLOAD SWAP1 DUP2 ADD PUSH1 0x40 MSTORE DUP1 SWAP3 SWAP2 SWAP1 DUP2 DUP2 MSTORE PUSH1 0x20 ADD DUP3 DUP1 SLOAD PUSH2 0xE5 SWAP1 PUSH2 0x420 JUMP JUMPDEST DUP1 ISZERO PUSH2 0x130 JUMPI DUP1 PUSH1 0x1F LT PUSH2 0x107 JUMPI PUSH2 0x100 DUP1 DUP4 SLOAD DIV MUL DUP4 MSTORE SWAP2 PUSH1 0x20 ADD SWAP2 PUSH2 0x130 JUMP JUMPDEST DUP3 ADD SWAP2 SWAP1 PUSH0 MSTORE PUSH1 0x20 PUSH0 KECCAK256 SWAP1 JUMPDEST DUP2 SLOAD DUP2 MSTORE SWAP1 PUSH1 0x1 ADD SWAP1 PUSH1 0x20 ADD DUP1 DUP4 GT PUSH2 0x113 JUMPI DUP3 SWAP1 SUB PUSH1 0x1F AND DUP3 ADD SWAP2 JUMPDEST POP POP POP POP POP SWAP3 POP SWAP3 POP SWAP3 POP SWAP3 POP SWAP1 SWAP2 SWAP3 JUMP JUMPDEST PUSH0 PUSH1 0x40 MLOAD SWAP1 POP SWAP1 JUMP JUMPDEST PUSH0 DUP1 REVERT JUMPDEST PUSH0 DUP1 REVERT JUMPDEST PUSH0 DUP1 REVERT JUMPDEST PUSH0 DUP1 REVERT JUMPDEST PUSH0 PUSH1 0x1F NOT PUSH1 0x1F DUP4 ADD AND SWAP1 POP SWAP2 SWAP1 POP JUMP JUMPDEST PUSH32 0x4E487B7100000000000000000000000000000000000000000000000000000000 PUSH0 MSTORE PUSH1 0x41 PUSH1 0x4 MSTORE PUSH1 0x24 PUSH0 REVERT JUMPDEST PUSH2 0x1A1 DUP3 PUSH2 0x15B JUMP JUMPDEST DUP2 ADD DUP2 DUP2 LT PUSH8 0xFFFFFFFFFFFFFFFF DUP3 GT OR ISZERO PUSH2 0x1C0 JUMPI PUSH2 0x1BF PUSH2 0x16B JUMP JUMPDEST JUMPDEST DUP1 PUSH1 0x40 MSTORE POP POP POP JUMP JUMPDEST PUSH0 PUSH2 0x1D2 PUSH2 0x142 JUMP JUMPDEST SWAP1 POP PUSH2 0x1DE DUP3 DUP3 PUSH2 0x198 JUMP JUMPDEST SWAP2 SWAP1 POP JUMP JUMPDEST PUSH0 PUSH8 0xFFFFFFFFFFFFFFFF DUP3 GT ISZERO PUSH2 0x1FD JUMPI PUSH2 0x1FC PUSH2 0x16B JUMP JUMPDEST JUMPDEST PUSH2 0x206 DUP3 PUSH2 0x15B JUMP JUMPDEST SWAP1 POP PUSH1 0x20 DUP2 ADD SWAP1 POP SWAP2 SWAP1 POP JUMP JUMPDEST DUP3 DUP2 DUP4 CALLDATACOPY PUSH0 DUP4 DUP4 ADD MSTORE POP POP POP JUMP JUMPDEST PUSH0 PUSH2 0x233 PUSH2 0x22E DUP5 PUSH2 0x1E3 JUMP JUMPDEST PUSH2 0x1C9 JUMP JUMPDEST SWAP1 POP DUP3 DUP2 MSTORE PUSH1 0x20 DUP2 ADD DUP5 DUP5 DUP5 ADD GT ISZERO PUSH2 0x24F JUMPI PUSH2 0x24E PUSH2 0x157 JUMP JUMPDEST JUMPDEST PUSH2 0x25A DUP5 DUP3 DUP6 PUSH2 0x213 JUMP JUMPDEST POP SWAP4 SWAP3 POP POP POP JUMP JUMPDEST PUSH0 DUP3 PUSH1 0x1F DUP4 ADD SLT PUSH2 0x276 JUMPI PUSH2 0x275 PUSH2 0x153 JUMP JUMPDEST JUMPDEST DUP2 CALLDATALOAD PUSH2 0x286 DUP5 DUP3 PUSH1 0x20 DUP7 ADD PUSH2 0x221 JUMP JUMPDEST SWAP2 POP POP SWAP3 SWAP2 POP POP JUMP JUMPDEST PUSH0 DUP2 SWAP1 POP SWAP2 SWAP1 POP JUMP JUMPDEST PUSH2 0x2A1 DUP2 PUSH2 0x28F JUMP JUMPDEST DUP2 EQ PUSH2 0x2AB JUMPI PUSH0 DUP1 REVERT JUMPDEST POP JUMP JUMPDEST PUSH0 DUP2 CALLDATALOAD SWAP1 POP PUSH2 0x2BC DUP2 PUSH2 0x298 JUMP JUMPDEST SWAP3 SWAP2 POP POP JUMP JUMPDEST PUSH0 DUP1 PUSH0 PUSH1 0x60 DUP5 DUP7 SUB SLT ISZERO PUSH2 0x2D9 JUMPI PUSH2 0x2D8 PUSH2 0x14B JUMP JUMPDEST JUMPDEST PUSH0 DUP5 ADD CALLDATALOAD PUSH8 0xFFFFFFFFFFFFFFFF DUP2 GT ISZERO PUSH2 0x2F6 JUMPI PUSH2 0x2F5 PUSH2 0x14F JUMP JUMPDEST JUMPDEST PUSH2 0x302 DUP7 DUP3 DUP8 ADD PUSH2 0x262 JUMP JUMPDEST SWAP4 POP POP PUSH1 0x20 PUSH2 0x313 DUP7 DUP3 DUP8 ADD PUSH2 0x2AE JUMP JUMPDEST SWAP3 POP POP PUSH1 0x40 PUSH2 0x324 DUP7 DUP3 DUP8 ADD PUSH2 0x2AE JUMP JUMPDEST SWAP2 POP POP SWAP3 POP SWAP3 POP SWAP3 JUMP JUMPDEST PUSH0 DUP2 MLOAD SWAP1 POP SWAP2 SWAP1 POP JUMP JUMPDEST PUSH0 DUP3 DUP3 MSTORE PUSH1 0x20 DUP3 ADD SWAP1 POP SWAP3 SWAP2 POP POP JUMP JUMPDEST PUSH0 JUMPDEST DUP4 DUP2 LT ISZERO PUSH2 0x365 JUMPI DUP1 DUP3 ADD MLOAD DUP2 DUP5 ADD MSTORE PUSH1 0x20 DUP2 ADD SWAP1 POP PUSH2 0x34A JUMP JUMPDEST PUSH0 DUP5 DUP5 ADD MSTORE POP POP POP POP JUMP JUMPDEST PUSH0 PUSH2 0x37A DUP3 PUSH2 0x32E JUMP JUMPDEST PUSH2 0x384 DUP2 DUP6 PUSH2 0x338 JUMP JUMPDEST SWAP4 POP PUSH2 0x394 DUP2 DUP6 PUSH1 0x20 DUP7 ADD PUSH2 0x348 JUMP JUMPDEST PUSH2 0x39D DUP2 PUSH2 0x15B JUMP JUMPDEST DUP5 ADD SWAP2 POP POP SWAP3 SWAP2 POP POP JUMP JUMPDEST PUSH2 0x3B1 DUP2 PUSH2 0x28F JUMP JUMPDEST DUP3 MSTORE POP POP JUMP JUMPDEST PUSH0 PUSH1 0x60 DUP3 ADD SWAP1 POP DUP2 DUP2 SUB PUSH0 DUP4 ADD MSTORE PUSH2 0x3CF DUP2 DUP7 PUSH2 0x370 JUMP JUMPDEST SWAP1 POP PUSH2 0x3DE PUSH1 0x20 DUP4 ADD DUP6 PUSH2 0x3A8 JUMP JUMPDEST PUSH2 0x3EB PUSH1 0x40 DUP4 ADD DUP5 PUSH2 0x3A8 JUMP JUMPDEST SWAP5 SWAP4 POP POP POP POP JUMP JUMPDEST PUSH32 0x4E487B7100000000000000000000000000000000000000000000000000000000 PUSH0 MSTORE PUSH1 0x22 PUSH1 0x4 MSTORE PUSH1 0x24 PUSH0 REVERT JUMPDEST PUSH0 PUSH1 0x2 DUP3 DIV SWAP1 POP PUSH1 0x1 DUP3 AND DUP1 PUSH2 0x437 JUMPI PUSH1 0x7F DUP3 AND SWAP2 POP JUMPDEST PUSH1 0x20 DUP3 LT DUP2 SUB PUSH2 0x44A JUMPI PUSH2 0x449 PUSH2 0x3F3 JUMP JUMPDEST JUMPDEST POP SWAP2 SWAP1 POP JUMP JUMPDEST PUSH0 DUP2 SWAP1 POP DUP2 PUSH0 MSTORE PUSH1 0x20 PUSH0 KECCAK256 SWAP1 POP SWAP2 SWAP1 POP JUMP JUMPDEST PUSH0 PUSH1 0x20 PUSH1 0x1F DUP4 ADD DIV SWAP1 POP SWAP2 SWAP1 POP JUMP JUMPDEST PUSH0 DUP3 DUP3 SHL SWAP1 POP SWAP3 SWAP2 POP POP JUMP JUMPDEST PUSH0 PUSH1 0x8 DUP4 MUL PUSH2 0x4AC PUSH32 0xFFFFFFFFFFFFFFFFFFFFFFFFFFFFFFFFFFFFFFFFFFFFFFFFFFFFFFFFFFFFFFFF DUP3 PUSH2 0x471 JUMP JUMPDEST PUSH2 0x4B6 DUP7 DUP4 PUSH2 0x471 JUMP JUMPDEST SWAP6 POP DUP1 NOT DUP5 AND SWAP4 POP DUP1 DUP7 AND DUP5 OR SWAP3 POP POP POP SWAP4 SWAP3 POP POP POP JUMP JUMPDEST PUSH0 DUP2 SWAP1 POP SWAP2 SWAP1 POP JUMP JUMPDEST PUSH0 PUSH2 0x4F1 PUSH2 0x4EC PUSH2 0x4E7 DUP5 PUSH2 0x28F JUMP JUMPDEST PUSH2 0x4CE JUMP JUMPDEST PUSH2 0x28F JUMP JUMPDEST SWAP1 POP SWAP2 SWAP1 POP JUMP JUMPDEST PUSH0 DUP2 SWAP1 POP SWAP2 SWAP1 POP JUMP JUMPDEST PUSH2 0x50A DUP4 PUSH2 0x4D7 JUMP JUMPDEST PUSH2 0x51E PUSH2 0x516 DUP3 PUSH2 0x4F8 JUMP JUMPDEST DUP5 DUP5 SLOAD PUSH2 0x47D JUMP JUMPDEST DUP3 SSTORE POP POP POP POP JUMP JUMPDEST PUSH0 SWAP1 JUMP JUMPDEST PUSH2 0x532 PUSH2 0x526 JUMP JUMPDEST PUSH2 0x53D DUP2 DUP5 DUP5 PUSH2 0x501 JUMP JUMPDEST POP POP POP JUMP JUMPDEST JUMPDEST DUP2 DUP2 LT ISZERO PUSH2 0x560 JUMPI PUSH2 0x555 PUSH0 DUP3 PUSH2 0x52A JUMP JUMPDEST PUSH1 0x1 DUP2 ADD SWAP1 POP PUSH2 0x543 JUMP JUMPDEST POP POP JUMP JUMPDEST PUSH1 0x1F DUP3 GT ISZERO PUSH2 0x5A5 JUMPI PUSH2 0x576 DUP2 PUSH2 0x450 JUMP JUMPDEST PUSH2 0x57F DUP5 PUSH2 0x462 JUMP JUMPDEST DUP2 ADD PUSH1 0x20 DUP6 LT ISZERO PUSH2 0x58E JUMPI DUP2 SWAP1 POP JUMPDEST PUSH2 0x5A2 PUSH2 0x59A DUP6 PUSH2 0x462 JUMP JUMPDEST DUP4 ADD DUP3 PUSH2 0x542 JUMP JUMPDEST POP POP JUMPDEST POP POP POP JUMP JUMPDEST PUSH0 DUP3 DUP3 SHR SWAP1 POP SWAP3 SWAP2 POP POP JUMP JUMPDEST PUSH0 PUSH2 0x5C5 PUSH0 NOT DUP5 PUSH1 0x8 MUL PUSH2 0x5AA JUMP JUMPDEST NOT DUP1 DUP4 AND SWAP2 POP POP SWAP3 SWAP2 POP POP JUMP JUMPDEST PUSH0 PUSH2 0x5DD DUP4 DUP4 PUSH2 0x5B6 JUMP JUMPDEST SWAP2 POP DUP3 PUSH1 0x2 MUL DUP3 OR SWAP1 POP SWAP3 SWAP2 POP POP JUMP JUMPDEST PUSH2 0x5F6 DUP3 PUSH2 0x32E JUMP JUMPDEST PUSH8 0xFFFFFFFFFFFFFFFF DUP2 GT ISZERO PUSH2 0x60F JUMPI PUSH2 0x60E PUSH2 0x16B JUMP JUMPDEST JUMPDEST PUSH2 0x619 DUP3 SLOAD PUSH2 0x420 JUMP JUMPDEST PUSH2 0x624 DUP3 DUP3 DUP6 PUSH2 0x564 JUMP JUMPDEST PUSH0 PUSH1 0x20 SWAP1 POP PUSH1 0x1F DUP4 GT PUSH1 0x1 DUP2 EQ PUSH2 0x655 JUMPI PUSH0 DUP5 ISZERO PUSH2 0x643 JUMPI DUP3 DUP8 ADD MLOAD SWAP1 POP JUMPDEST PUSH2 0x64D DUP6 DUP3 PUSH2 0x5D2 JUMP JUMPDEST DUP7 SSTORE POP PUSH2 0x6B4 JUMP JUMPDEST PUSH1 0x1F NOT DUP5 AND PUSH2 0x663 DUP7 PUSH2 0x450 JUMP JUMPDEST PUSH0 JUMPDEST DUP3 DUP2 LT ISZERO PUSH2 0x68A JUMPI DUP5 DUP10 ADD MLOAD DUP3 SSTORE PUSH1 0x1 DUP3 ADD SWAP2 POP PUSH1 0x20 DUP6 ADD SWAP5 POP PUSH1 0x20 DUP2 ADD SWAP1 POP PUSH2 0x665 JUMP JUMPDEST DUP7 DUP4 LT ISZERO PUSH2 0x6A7 JUMPI DUP5 DUP10 ADD MLOAD PUSH2 0x6A3 PUSH1 0x1F DUP10 AND DUP3 PUSH2 0x5B6 JUMP JUMPDEST DUP4 SSTORE POP JUMPDEST PUSH1 0x1 PUSH1 0x2 DUP9 MUL ADD DUP9 SSTORE POP POP POP JUMPDEST POP POP POP POP POP POP JUMP INVALID LOG2 PUSH5 0x6970667358 0x22 SLT KECCAK256 INVALID SIGNEXTEND CODESIZE EXTCODESIZE DUP10 0x4E 0x5C 0xE8 EQ 0xE5 SHL 0xE2 SWAP4 0xC6 PUSH8 0x2791A5CABD75434B 0x2C 0xAE PUSH20 0x7A878AB3008264736F6C63430008140033000000 "
		},
		"gasEstimates": {
			"creation": {
				"codeDepositCost": "355600",
				"executionCost": "391",
				"totalCost": "355991"
			},
			"external": {
				"getStudentValues()": "infinite",
				"setStudentValues(string,uint256,uint256)": "infinite"
			}
		},
		"methodIdentifiers": {
			"getStudentValues()": "c49ed411",
			"setStudentValues(string,uint256,uint256)": "63b00d0c"
		}
	},
	"abi": [
		{
			"inputs": [],
			"name": "getStudentValues",
			"outputs": [
				{
					"internalType": "string",
					"name": "",
					"type": "string"
				},
				{
					"internalType": "uint256",
					"name": "",
					"type": "uint256"
				},
				{
					"internalType": "uint256",
					"name": "",
					"type": "uint256"
				}
			],
			"stateMutability": "view",
			"type": "function"
		},
		{
			"inputs": [
				{
					"internalType": "string",
					"name": "_name",
					"type": "string"
				},
				{
					"internalType": "uint256",
					"name": "_age",
					"type": "uint256"
				},
				{
					"internalType": "uint256",
					"name": "_id",
					"type": "uint256"
				}
			],
			"name": "setStudentValues",
			"outputs": [],
			"stateMutability": "nonpayable",
			"type": "function"
		}
	]
}